:100000000C945E000C94661A0C94661A0C94661A92
:100010000C94661A0C94661A0C94661A0C94661A60
:100020000C94661A0C94661A0C94661A0C94661A50
:100030000C94321A0C94661A0C94661A0C94661A74
:100040000C94661A0C94661A0C94661A0C94591443
:100050000C9413140C94EA160C94661A0C94661AF9
:100060000C94661A0C94661A0C94661A0C94661A10
:100070000C94661A0C94661A0C94661A0C94661A00
:100080000C94661A0C94661A0C94661A0C94661AF0
:100090000C94661A0C94661A0C94661A0C94661AE0
:1000A0000C94661A4C074C077B07800796074C0791
:1000B0004C077B07800740007095800011241FBE0D
:1000C000CFEFCDBFDFE7DEBFE6EBF0E040E019C0E9
:1000D000B791A79137912791079107FD0EC097918E
:1000E0008791EF01F92FE82F0BBF07900D92A21710
:1000F000B307D9F7FE011BBE04C01D92A217B307B8
:10010000E1F7EB3BF40721F70E94E90B0C94011A8D
:04011000F894FFCF91
:1001140052534F5554005253494E00494E444F5583
:060124005400574C44009A
:0D012A00546D725100546D722053766300C5
:0601370049444C450003A1
:10013E002F923F924F925F926F927F928F92AF92D9
:10014E00BF92CF92DF92EF920F931F93CF93DF93D5
:10015E001C013A01862E59012801C9010E94D715AA
:10016E008C01892B09F417C18DE290E00E94D715FE
:10017E00EC01892B89F08DE2FE0111928A95E9F747
:10018E000F8B188FF1E0AF1AB1080A0D1B1D611409
:10019E007104810429F42FC0C8010E946A1AFBC0A1
:1001AE00F301582D0E94491A698FF301582D0E94B0
:1001BE00491A6623F9F09E01265E3F4FA82DC30112
:1001CE000196A11D48E0640E711C811CFC015A2F82
:1001DE000E94491AF90161939F01E82FF92F5A2FB6
:1001EE000196A11D0E94491A662321F086159705D6
:1001FE00A80561F718A2F3E0FE1520F40F2EF3E028
:10020E00EF2EF02DEE8AE9A25E0142E0A40EB11CA3
:10021E00C5010E945B1ACE010C960E945B1AC8871C
:10022E00D98784E090E08E1991098C879D87CA8BBF
:10023E00DB8BA201B101C8010E94901988839983BA
:10024E00C114D10419F0F601C083D1830FB6F8940E
:10025E000F92809194708F5F8093947080917070E4
:10026E0090917170892BA9F5C0937070D0937170B5
:10027E00809194708130E9F580E090E70E94E81952
:10028E0089E090E70E94E81982E190E70E94E81960
:10029E008BE190E70E94E81989E490E70E94E81943
:1002AE0080E490E70E94E81987E390E70E94E8193E
:1002BE008EE290E70E94E81989E490E780936E70D1
:1002CE0090936F7080E490E780936C7090936D7054
:1002DE0010C08091927081110CC0E0917070F091FD
:1002EE00717096898E89891720F0C0937070D093A3
:1002FE00717080918F708F5F80938F708E899091C7
:10030E009370981710F48093937090E0FC01EE0FA9
:10031E00FF1FEE0FFF1FEE0FFF1F8E0F9F1FFC0123
:10032E00E050F0490180F281E02DEC83FD83848161
:10033E0095818E839F83A481B5811296AD92BC92D6
:10034E001397A482B582EE89F0E0CF01880F991F32
:10035E00880F991F880F991FE80FF91FE050F04979
:10036E00EA87FB8780818F5F80830F900FBE80911D
:10037E009270882361F0E0917070F091717096899F
:10038E008E89981730F40E94021181E005C081E039
:10039E0003C081E001C08FEFDF91CF911F910F91CC
:1003AE00EF90DF90CF90BF90AF908F907F906F9037
:0A03BE005F904F903F902F9008953C
:1003C8008F929F92AF92BF92CF92DF92EF92FF925D
:1003D8000F93CF93DF93DC01E114F10479F0FC0172
:1003E80084E0689FE00DF11D112483A094A0A5A0CE
:1003F800B6A0F70180829182A282B38270E0FD01EB
:10040800E60FF71F83A592E093A70230F9F018F4DE
:10041800013031F049C0033069F10430B9F144C00A
:10042800660F771F660F771FFD01E60FF71F83A082
:1004380094A0A5A0B6A0BA01A901482959296A29FA
:100448007B2943A354A365A376A32EC0660F771F09
:10045800660F771FFD01E60FF71F43A154A165A1A1
:1004680076A14F5F5F4F6F4F7F4F43A354A365A3A0
:1004780076A31AC0660F771F660F771FFD01E60F78
:10048800F71F23A334A345A356A30EC0823009F453
:10049800B2C0660F771F660F771FFD01E60FF71FC3
:1004A80023A334A345A356A3813009F0A6C08091A5
:1004B8008E7081116DC01A96ED91FC911B97149660
:1004C800CD91DC91159716968D919C9117978C83F9
:1004D8009D831696CD91DC91179714968D919C91DA
:1004E80015978A839B839D012E5F3F4F818192815F
:1004F8008217930731F416968D919C9117978183F3
:1005080092831A961D921C921B978081815080833A
:1005180056968C91569790919370981710F48093F3
:10052800937090E0FC01EE0FFF1FEE0FFF1FEE0F20
:10053800FF1F8E0F9F1FFC01E050F0490180F281E0
:10054800E02D1496ED93FC9315978481958116966A
:100558008D939C931797C481D5812A833B832483E9
:1005680035835696EC915697F0E0CF01880F991F86
:10057800880F991F880F991FE80FF91FE050F0495D
:100588001A96ED93FC931B9780818F5F808320C020
:1005980047E350E7FA01C181D2811E96CD93DC93DF
:1005A8001F978C819D8150968D939C9351972C8198
:1005B8003D81CD010C96F901828393838C839D83C1
:1005C80054964D935C935597FA0180818F5F808391
:1005D800E0917070F091717056969C918689891798
:1005E80070F4C114D10419F081E0F601808381E030
:1005F8008093917005C080E003C081E001C081E074
:10060800DF91CF910F91FF90EF90DF90CF90BF9047
:08061800AF909F908F900895B0
:100620000F931F93CF93DF9380918E70811102C13E
:10063000C0916A70D0916B708E010F5F1F4F009355
:100640006A7010936B7001151105B9F480916E708A
:1006500090916F7020916C7030916D7020936E70DE
:1006600030936F7080936C7090936D7080919070E8
:100670008F5F809390700E94FC18809166709091BB
:1006800067700817190710F480E0B8C080E0E091A7
:100690006E70F0916F709081911107C02FEF3FEF56
:1006A0002093667030936770A9C0E0916E70F091EE
:1006B0006F700580F681E02D0680F781E02D2281A4
:1006C00033810217130728F4209366703093677004
:1006D00095C0A285B3852481358146815781E90182
:1006E0004C835D832681378144815581E9014A83AA
:1006F0005B83AF014E5F5F4F11962D913C91129736
:100700002417350731F42681378111962D933C93B8
:100710001297128613869C9191509C93A489B58957
:10072000109719F12685378560897189E9016C83F5
:100730007D832089318966857785E9016A837B839A
:1007400011966D917C9112979F01245F3F4F621724
:10075000730731F42089318911962D933C931297B8
:10076000148A158A9C9191509C932689909193703C
:10077000921710F42093937030E0D901AA0FBB1F99
:10078000AA0FBB1FAA0FBB1F2A0F3B1FD901A050E6
:10079000B04911960D90BC91A02DA483B5831496F9
:1007A0002D913C9115972683378314962D913C917A
:1007B0001597E9014A835B8314964D935C931597D3
:1007C000A689B0E09D01220F331F220F331F220F95
:1007D000331FA20FB31FA050B049A287B3879C91CB
:1007E0009F5F9C93A0917070B0917170268956960E
:1007F0009C91921708F04BCF81E049CFE091707047
:10080000F0917170268930E0F901EE0FFF1FEE0FB5
:10081000FF1FEE0FFF1F2E0F3F1FF901E050F049A1
:100820009081923008F081E090919170992361F06D
:1008300081E00AC080916870909169700196809300
:1008400068709093697080E0DF91CF911F910F9154
:02085000089509
:100852008F929F92AF92BF92EF92FF920F93CF939C
:10086200DF93DC010FB6F8940F92E114F10479F0F2
:10087200FC0184E0689FE00DF11D112483A094A087
:10088200A5A0B6A0F70180829182A282B38270E015
:10089200FD01E60FF71F83A592E093A70230F9F05E
:1008A20018F4013031F049C0033069F10430B9F174
:1008B20044C0660F771F660F771FFD01E60FF71F13
:1008C20083A094A0A5A0B6A0BA01A90148295929DC
:1008D2006A297B2943A354A365A376A32EC0660F7E
:1008E200771F660F771FFD01E60FF71F43A154A183
:1008F20065A176A14F5F5F4F6F4F7F4F43A354A314
:1009020065A376A31AC0660F771F660F771FFD01D6
:10091200E60FF71F23A334A345A356A30EC08230CC
:1009220009F487C0660F771F660F771FFD01E60F78
:10093200F71F23A334A345A356A3813009F07BC03C
:100942001A96ED91FC911B971496CD91DC91159717
:1009520016968D919C9117978C839D831696CD91B7
:10096200DC91179714968D919C9115978A839B839E
:100972009D012E5F3F4F818192818217930731F44F
:1009820016968D919C911797818392831A961D9248
:100992001C921B9780818150808356968C9156972A
:1009A20090919370981710F48093937090E0FC01EB
:1009B200EE0FFF1FEE0FFF1FEE0FFF1F8E0F9F1F89
:1009C200FC01E050F0490180F281E02D1496ED9394
:1009D200FC9315978481958116968D939C93179716
:1009E200C481D5812A833B83248335835696EC9137
:1009F2005697F0E0CF01880F991F880F991F880F33
:100A0200991FE80FF91FE050F0491A96ED93FC93F5
:100A12001B9780818F5F8083E0917070F09171707D
:100A220056969C918689891740F40E94021181E0B2
:100A320005C080E003C081E001C081E00F900FBEDD
:100A4200DF91CF910F91FF90EF90BF90AF909F9069
:040A52008F900895E4
:100A56001F93CF93DF930FB6F8940F9280918E7009
:100A6600815080938E7080918E708111C6C0809166
:100A7600947081119BC0C4C0DB011596ED91FC9169
:100A860016970680F781E02DA489B5898685978516
:100A960020893189EC012C833D83808991892685C3
:100AA6003785EC012A833B83CF010C9611962D9155
:100AB6003C9112972817390731F48089918911964C
:100AC6008D939C931297148A158A8C9181508C93DE
:100AD600A285B3858481958126813781EC012C839B
:100AE6003D838681978124813581EC012A833B836E
:100AF6009F012E5F3F4F11968D919C911297821701
:100B0600930731F48681978111968D939C93129762
:100B1600128613868C9181508C938689909193705E
:100B2600981710F48093937090E0DC01AA0FBB1F16
:100B3600AA0FBB1FAA0FBB1F8A0F9B1FDC01A05069
:100B4600B04911960D90BC91A02DA483B58314963F
:100B56008D919C9115978683978314968D919C9180
:100B66001597EC012A833B8314962D933C93159796
:100B7600A689B0E0CD01880F991F880F991F880FAD
:100B8600991FA80FB91FA050B049A287B3878C91AF
:100B96008F5F8C93A0917070B09171709689569604
:100BA6008C91981740F04093917005C0E0E0F0E01A
:100BB60067E370E741E0DB018C9181115DCFEF2B9C
:100BC60011F00E94FC18C0916870D091697020974E
:100BD60061F011E00E94100381111093917021972A
:100BE600C9F710926870109269708091917088238D
:100BF60031F00E94021181E003C080E001C080E074
:0C0C06000F900FBEDF91CF911F91089559
:100C12002F923F924F926F927F928F92CF92DF925A
:100C2200EF92FF920F931F93CF93DF93CDB7DEB76F
:100C32002597CDBFDEBF8C016C837D83C12CD12C67
:100C42003C0180E8882E7801E1E1EE0EF11C0FB63E
:100C5200F8940F92F801828D8823E1F08150828FFF
:100C620080819181892B29F40E94B519F80184832E
:100C72009583F8018085882349F0085F1F4FB801EA
:100C820080E80E94C10781110E9402110F900FBEDD
:100C920081E089C08C819D81892B21F40F900FBE48
:100CA20080E081C0D11006C0CE0101960E94F619E3
:100CB200DD24D3940F900FBE0E94501A0FB6F89401
:100CC2000F92F801858D8F3F09F4158EF801868DFC
:100CD2008F3F09F4168E0F900FBEBE016C5F7F4FDF
:100CE200CE0101960E94111681112AC0882DB301EE
:100CF2000E94C7198823F1F0F80180819181892B24
:100D020051F40FB6F8940F92848195810E94810C60
:100D1200C82E0F900FBE6C817D81C7010E94A3195E
:100D2200C8010E94B5110E942B05811190CF0E942B
:100D320002118DCFC8010E94B5110E942B0587CFE9
:100D4200C8010E94B5110E942B05882DB3010E9493
:100D5200C719882309F47BCFCC2021F10FB6F89470
:100D62000F92A82DC3014196A11DFC015A2F0E948A
:100D7200491A662369F0A82DC3014696A11DFC01FC
:100D82005A2F0E94291AFB01808164E0681B01C06E
:100D920060E0F801848195810E94A30E0F900FBE3E
:100DA20080E001C080E02596CDBFDEBFDF91CF910C
:100DB2001F910F91FF90EF90DF90CF908F907F90D7
:0A0DC2006F904F903F902F9008951E
:100DCC00CF93DF93CDB7DEB72697CDBFDEBFCE0175
:100DDC0001965C01082F1B2DE0917A70F0917B70CD
:100DEC008081882309F4B3C00580F681E02DE08072
:100DFC00F1800E94501AC5010E94DE146C01898199
:100E0C0081111BC0CE14DF0438F00E942B05B601F3
:100E1C00C7010E94AD178EC040E0B7016C197D0967
:100E2C0080917670909177700E94DF180E942B054C
:100E3C00811180C00E9402117DC00E942B057AC0D6
:100E4C00898188230CF476C0EC80FD80D7011B9639
:100E5C008D919C911C97892B21F0C70103960E94C0
:100E6C002C18CE0106960E94DE146C01E9818E2F9F
:100E7C00EE0F990BAA0BBB0BFC013197E930F10576
:100E8C0008F058C0EE5AFF4F0C94201AF7018389D2
:100E9C008160838B2A813B8165857685620F731F08
:100EAC00A601C7010E947E17882309F443C0D7010D
:100EBC0053968C91539782FF0DC06A817B811D964E
:100ECC008D919C911E97680F791FA601C7010E94F6
:100EDC009E1803C08E7FF701838BD7015196ED913D
:100EEC00FC915297C701099525C0F70183898E7F24
:100EFC00838B20C0D70153968C9153978160539666
:100F0C008C9353976A817B811D966D937C931E976E
:100F1C006C0D7D1D9601A601C7010E947E170AC0AB
:100F2C00F701838981FD04C0C7010E946A1A02C0BF
:100F3C008E7F838B40E050E0602F712F8091767014
:100F4C00909177700E94A70A81117ACF45CF0E94A9
:100F5C00501AC5010E94DE146C01898181116DCF7C
:100F6C00E0917870F0917970808141E0811140E0DE
:060F7C00E12CF12C52CF24
:100F8200CF93DF93A82FCB010596A11DFC015A2F09
:100F92000E94291ADB011696ED91FC911797A489FC
:100FA200B589C685D785808991898C839D83C089BF
:100FB200D189868597858A839B839F01245F3F4FD2
:100FC20011968D919C9112978217930731F4808923
:100FD200918911968D939C931297148A158A8C91FC
:100FE20081508C9380918E70811160C0A285B385EF
:100FF200C481D581868197818C839D83C681D78167
:10100200848195818A839B839F012E5F3F4F119636
:101012008D919C9112978217930731F48681978163
:1010220011968D939C931297128613868C91815000
:101032008C93868990919370981710F48093937093
:1010420090E0DC01AA0FBB1FAA0FBB1FAA0FBB1F98
:101052008A0F9B1FDC01A050B04911960D90BC91E4
:10106200A02DA483B58314968D919C9115978683A8
:1010720097831496CD91DC9115972A833B8314961E
:101082002D933C931597A689B0E0CD01880F991F47
:10109200880F991F880F991FA80FB91FA050B04938
:1010A200A287B3878C918F5F8C931CC047E350E774
:1010B200DA011196CD91DC911297C687D7878C8180
:1010C2009D81808B918B8C819D81DC0112962D9369
:1010D2003C9313972C833D83448B558BDA018C917F
:1010E2008F5F8C93A0917070B091717096895696B3
:1010F2008C91891720F481E08093917001C080E087
:06110200DF91CF9108957A
:101108002F923F924F926F927F928F92CF92DF925F
:10111800EF92FF920F931F93CF93DF93CDB7DEB774
:101128002897CDBFDEBF7C014E835F8368872C8301
:101138003D8310E03C0180E8882E1301482CEAE149
:101148002E0E311C411CFBE16F0E711C811C6701C6
:1011580088E0C80ED11C0FB6F8940F92F701928D53
:10116800838D981710F00230F1F4202F4E815F81A3
:101178006885C7010E94A310F7019189992361F03E
:10118800F1E1EF0EF11CB70180E80E94C107882346
:1011980031F00E94021103C081110E9402110F90C8
:1011A8000FBE81E056C08C819D81892B21F40F9060
:1011B8000FBE80E04EC0111105C0CE0101960E94FD
:1011C800F61911E00F900FBE0E94501A0FB6F8944E
:1011D8000F92F701858D8F3F09F4158EF701868DE3
:1011E8008F3F09F4168E0F900FBEBE016C5F7F4FC4
:1011F800CE0101960E941116811125C00FB6F894F0
:101208000F92F101542D0E94491A862F0F900FBE9C
:10121800F301582D0E94491A86130FC06C817D81F5
:10122800C6010E94A319C7010E94B5110E942B058F
:10123800811191CF0E9402118ECFC7010E94B51172
:101248000E942B0588CFC7010E94B5110E942B056B
:1012580080E02896CDBFDEBFDF91CF911F910F911F
:10126800FF90EF90DF90CF908F907F906F904F908E
:061278003F902F90089545
:10127E004F925F926F927F928F929F92AF92BF9298
:10128E00CF92DF92EF92FF920F931F93CF93DF9344
:10129E00CDB7DEB72897CDBFDEBF5C014E835F832F
:1012AE00688729010C831D83FC0184819581019738
:1012BE00268520FF0AC03201F2E06F0E711C8615E2
:1012CE00970540F41C821D8243C03201841595059A
:1012DE0008F43C018C819D81892B09F439C0CE0123
:1012EE0001960E94D8190FB6F8940F92C5010E946C
:1012FE0020154C018615970530F560E080E090E0F2
:10130E000E9433190E94561AF501828793870F9017
:10131E000FBECC80DD80E12CF12C00E010E09801B6
:10132E0040E050E0BA0180E00E94480BF5011286C1
:10133E001386BE016C5F7F4FCE0101960E9411167F
:10134E00882389F202C00F900FBE8114910421F4FC
:10135E00C5010E9420154C017301840192014E813A
:10136E005F816885C5010E945B126C01892B09F1B2
:10137E00B50180E80E94D817F501268137818217C2
:10138E009307B8F00E94501AF50180859185892B3C
:10139E0071F080859185E12CF12C00E020E030E0A9
:1013AE00A90160E00E942904F501108611860E94B1
:1013BE002B05C6012896CDBFDEBFDF91CF911F91C1
:1013CE000F91FF90EF90DF90CF90BF90AF909F90D6
:0C13DE008F907F906F905F904F9008956B
:1013EA00CF93DF93CDB7DEB7CE5CD109CDBFDEBFD9
:1013FA0010E06E012BECC20ED11C360130E8832EB0
:10140A000F2EF7E45F2EF02DEE24E394CE01019621
:10141A009C0140E8C453DF4F288339834A83CC5C5C
:10142A00D0400F2EF2E59F2EF02D0F2EF9E5AF2EAC
:10143A00F02D0F2EF2E4BF2EF02D6894442441F8CB
:10144A0022E330E048EC50E0BE016D5F7F4F8091AF
:10145A008270909183700E94150D9927009781F3ED
:10146A00019771F7FB801F1509F45BC037E4F31687
:10147A0001F13F1520F042E4F41641F052C082E532
:10148A00F816E9F1E9E5FE1639F14BC0B9824A824C
:10149A0000E02FEF3FEFC453DF4F488159816A8143
:1014AA00CC5CD04080918070909181700E948408B9
:1014BA0038C05982EA8200E02FEF3FEFC453DF4F72
:1014CA00488159816A81CC5CD0408091807090912A
:1014DA0081700E94840825C0A982EA8200E02FEF69
:1014EA003FEFC453DF4F488159816A81CC5CD040B9
:1014FA0080918070909181700E94840812C09982B4
:10150A00EA8200E02FEF3FEFC453DF4F4881598151
:10151A006A81CC5CD04080918070909181700E94E9
:10152A0084088B81F60180830FEF1FEF21E030E002
:10153A00682DA30180918470909185700E943F0963
:04154A001F2D7ECF04
:10154E006F927F928F92AF92BF92CF92DF92EF9275
:10155E00FF920F931F93CF93DF93CDB7DEB72597EF
:10156E00CDBFDEBF8C015B014C835D83E12C3C0162
:10157E0080E8882E6801E1E1CE0ED11C0FB6F894FA
:10158E000F92F801F28CFF20B9F0B501C8010E944C
:10159E001819FA94F801F28E8085882349F0085FB5
:1015AE001F4FB80180E80E94C10781110E940211ED
:1015BE000F900FBE81E054C08C819D81892B21F448
:1015CE000F900FBE80E04CC0E11006C0CE01019618
:1015DE000E94F619EE24E3940F900FBE0E94501A4B
:1015EE000FB6F8940F92F801858D8F3F09F4158E82
:1015FE00F801868D8F3F09F4168E0F900FBEBE0137
:10160E006C5F7F4FCE0101960E94111681111BC097
:10161E00882DB3010E94C719882379F06C817D81D2
:10162E00C6010E94A319C8010E94B5110E942B0584
:10163E008111A4CF0E940211A1CFC8010E94B51141
:10164E000E942B059BCFC8010E94B5110E942B054D
:10165E00882DB3010E94C719882309F48FCF80E02B
:10166E002596CDBFDEBFDF91CF911F910F91FF90D9
:10167E00EF90DF90CF90BF90AF908F907F906F9054
:02168E000895BD
:101690008F929F92AF92BF92CF92DF92EF92FF9282
:1016A0000F931F93CF93DF93480159010FB6F8941E
:1016B0000F92E0917070F0917170C82FD0E0EC0F34
:1016C000FD1F83A5823061F1E0917070F09171701F
:1016D000CE01880F991F880F991FE80FF91F83A16A
:1016E00094A1A5A1B6A14095509560957095482309
:1016F00059236A237B2343A354A365A376A3E091D4
:101700007070F0917170EC0FFD1F81E083A7C11420
:10171000D10431F061E0C6010E94A20D0E940211C5
:101720000F900FBE0FB6F8940F92E114F104A1F0E0
:10173000E0917070F0917170CE01880F991F880F41
:10174000991FE80FF91F83A194A1A5A1B6A1F701E4
:1017500080839183A283B383E0917070F091717064
:10176000EC0FFD1F83A58230E9F4E0917070F091D9
:101770007170CE01880F991F880F991FE80FF91F0C
:1017800083A194A1A5A1B6A180949094A094B094B3
:1017900088229922AA22BB2283A294A2A5A2B6A241
:1017A00081E001C080E02091707030917170C20FB3
:1017B000D31F1BA60F900FBEDF91CF911F910F91EA
:1017C000FF90EF90DF90CF90BF90AF909F908F9061
:0217D00008957A
:1017D200CF92DF92EF920F931F930E94661900E05F
:1017E20010E020E030E040E061E070E082E390E071
:1017F2000E948116809388709093897020E030E077
:1018020040E061E070E088EC90E00E9481168093F5
:1018120086709093877020E030E041E060E070E0F5
:1018220080E991E00E948116809384709093857084
:1018320020E030E041E060E070E088EC90E00E945F
:101842008116809382709093837040E062E083E01F
:101852000E949C14809380709093817081E00E941A
:10186200C21880938C7090938D7043E060E081E0A9
:101872000E949C1480938A7090938B70C12CD12CFF
:101882000F2EF3E0EF2EF02D24EF31E044E151E092
:1018920060E083E598E10E949F006894EE24E2F8FC
:1018A20020E931E04AE151E060E08CE995E10E94F3
:1018B2009F006894EE24E1F82AEF30E04FE151E016
:1018C20060E083E29EE00E949F00EE24E39428E51C
:1018D20032E046E251E060E085EF99E00E949F002D
:1018E2000E94421A0E94161A0E9479180E94B71684
:1018F20080E090E01F910F91EF90DF90CF900895DC
:101902000F931F93CF93DF93FC01892B09F486C0B9
:101912002689A0917070B091717056968C9128179B
:1019220008F070C084859585992364F0A091707049
:10193200B091717056963C9184E090E0831B9109BE
:101942008487958730E0C901880F991F880F991FF6
:10195200880F991F280F391F20503049828593859F
:101962008217930709F045C0EF018F010E5F1F4FE9
:10197200C8010E942C18E0917070F09171708689F4
:101982008E8B90919370981710F48093937090E0DF
:10199200FC01EE0FFF1FEE0FFF1FEE0FFF1F8E0F5A
:1019A2009F1FFC01E050F0490180F281E02DEC83A1
:1019B200FD83848195818E839F83A481B581129654
:1019C2000D931C931397048315838E8990E0FC0179
:1019D200EE0FFF1FEE0FFF1FEE0FFF1FE80FF91FA5
:1019E200E050F049EA87FB8780818F5F808381E046
:1019F20016C0A0917070B091717056968C91868BC2
:101A020081E00DC0A0917070B091717081E021A150
:101A120056969C91291718F080E001C080E0DF9172
:081A2200CF911F910F9108956F
:101A2A002F923F924F925F926F928F929F92AF92B4
:101A3A00BF92CF92DF92EF92FF920F931F93CF93B1
:101A4A00DF93EC011B014A0169018E8580FD03C009
:101A5A00A12CB12C04C06894AA24A1F8B12CC114F9
:101A6A00D10479F10FB6F8940F922E0180E8682E0E
:101A7A00862DB2010E94D8178C01A816B90648F023
:101A8A0060E080E090E00E9433190E94561A88872D
:101A9A0099870F900FBEA016B106D8F0E12CF12C51
:101AAA0000E010E0980140E050E0BA0180E00E94B6
:101ABA00480B18861986862DB2010E94D8178C0108
:101ACA0005C0BE0180E80E94D8178C01A016B10695
:101ADA00F8F49801A401B101CE010E943F135C0100
:101AEA00892BC1F00E94501A8A859B85892B69F03F
:101AFA008A859B85E12CF12C00E020E030E0A901E9
:101B0A0060E00E9429041A861B860E942B0502C0E7
:101B1A00A12CB12CC501DF91CF911F910F91FF909C
:101B2A00EF90DF90CF90BF90AF909F908F906F9083
:0A1B3A005F904F903F902F900895A8
:101B4400FF920F931F93CF93DF93EC01F62E009136
:101B54006A7010916B7080917070909171700296A0
:101B64000E942C18CF3F8FEFD807B1F5FF20A1F1C9
:101B7400EEE2F0E7A181B281C0917070D0917170F2
:101B8400AC83BD83C0917070D091717014968D91A7
:101B94009C9115978E839F831496CD91DC91159714
:101BA400809170709091717002968A839B8380916A
:101BB400707090917170029614968D939C93159702
:101BC400A0917070B09171701A96ED93FC931B976D
:101BD40080818F5F80832FC0C00FD11FE091707010
:101BE400F0917170C283D383C017D10768F46091F8
:101BF40070707091717080916C7090916D706E5F67
:101C04007F4F0E941D1717C06091707070917170A2
:101C140080916E7090916F706E5F7F4F0E941D1760
:101C24008091667090916770C817D90720F4C093AB
:101C34006670D0936770DF91CF911F910F91FF90E1
:021C4400089501
:101C4600CF93DF9300D0CDB7DEB78CE0809341040D
:101C560083E0809361046894EE24E6F8FF24F2F8AA
:101C66006894882483F800E614E00F2EF3E0CF2E64
:101C7600F02D6894992492F80F2EFCE0DF2EF02DBB
:101C8600AA24A3946894BB24B1F84AEF50E0BE019D
:101C96006F5F7F4F80918070909181700E94A70A3C
:101CA6009A818981873481F028F4882341F082342F
:101CB600C1F1EBCF8235B9F0893521F1E6CFF701D5
:101CC600D682F801C682E1CFF7019682F801C68274
:101CD600913019F0923021F0D8CFF7018582D5CF17
:101CE600F7018782D2CFF7018682F801C68291304A
:101CF60019F0923021F0C9CFF7019582C6CFF701CE
:101D06009782C3CFF701D682F801A682913019F0E7
:101D1600923021F0BACFF801B582B7CFF801B78279
:101D2600B4CFF701D682F801B682913019F092301D
:101D360021F0ABCFF801A582A8CFF801A782A5CFE5
:101D46000F931F93CF93DF93FC01892B09F466C091
:101D560091A1961708F4962F8689891709F45EC013
:101D660022A1213009F05AC0968B2485358533236C
:101D760034F024E030E0291B31092487358790E0D0
:101D86009C01220F331F220F331F220F331F820F96
:101D9600931F805090492285338528173907F1F51E
:101DA600EF018F010E5F1F4FC8010E942C188E890C
:101DB60090919370981710F48093937090E0FC01C3
:101DC600EE0FFF1FEE0FFF1FEE0FFF1F8E0F9F1F61
:101DD600FC01E050F0490180F281E02DEC83FD83A7
:101DE600848195818E839F83A481B58112960D93FC
:101DF6001C931397048315838E8990E0FC01EE0FE4
:101E0600FF1FEE0FFF1FEE0FFF1FE80FF91FE05039
:101E1600F049EA87FB8780818F5F8083DF91CF91CE
:061E26001F910F910895C9
:101E2C0080918E70882321F081E0809391700895C9
:101E3C001092917020919370822F90E0FC01EE0F24
:101E4C00FF1FEE0FFF1FEE0FFF1FE80FF91FE050F3
:101E5C00F0493081311111C02150822F90E0FC01EA
:101E6C00EE0FFF1FEE0FFF1FEE0FFF1FE80FF91F06
:101E7C00E050F0493081332379F3AC01440F551F06
:101E8C00440F551F440F551F480F591FDA01A0501E
:101E9C00B0491196ED91FC9112970280F381E02DDF
:101EAC001196ED93FC9312974D5F5F48E417F5077D
:101EBC0029F442815381FD0141835283FC01EE0FD1
:101ECC00FF1FEE0FFF1FEE0FFF1F8E0F9F1FFC015A
:101EDC00E050F0490180F281E02D8681978180935A
:0C1EEC00707090937170209393700895B3
:101EF800EF92FF920F931F93CF93DF93FC01362F3E
:101F0800892B09F44DC0238D222309F44BC0022FDD
:101F180010E0448DE42EF12C8FEF9FEFB8010E9462
:101F28007C196E157F0508F43FC0EF010FB6F894D1
:101F38000F9260817181CB01249F800D911D112426
:101F480084839583128E62837383015011090E9DD9
:101F5800C0010F9D900D1E9D900D1124860F971F97
:101F6800868397838FEF858F868F31110DC080858B
:101F7800882391F02896BE0180E80E94C107882333
:101F880059F00E94021108C0CF0108960E94E81972
:101F9800CE0141960E94E8190F900FBE81E005C05E
:101FA80080E003C080E001C080E0DF91CF911F9105
:081FB8000F91FF90EF900895D6
:101FC0000F931F93CF93DF93FC01892B09F451C02A
:101FD00082A1815082A3268991A1291709F44BC0BF
:101FE00081114BC0EF018F010E5F1F4FC8010E948E
:101FF0002C1889A18E8B24E030E0281B31092C8716
:102000003D8790919370981710F48093937090E0AF
:10201000FC01EE0FFF1FEE0FFF1FEE0FFF1F8E0FD5
:102020009F1FFC01E050F0490180F281E02DEC831C
:10203000FD83848195818E839F83A481B5811296CF
:102040000D931C93139704831583EE89F0E0CF0161
:10205000880F991F880F991F880F991FE80FF91F84
:10206000E050F049EA87FB8780818F5F808381E0C1
:1020700005C080E003C080E001C080E0DF91CF9127
:062080001F910F9108956D
:102086000F920FB6F8940F920BB60F921F9211246F
:102096002F923F924F925F926F927F928F929F9272
:1020A600AF92BF92CF92DF92EF92FF920F931F9360
:1020B6002F933F934F935F936F937F938F939F934A
:1020C600AF93BF93CF93DF93EF93FF93A09170707D
:1020D600B09171700DB60D920EB60D920E9410035E
:1020E60081110E94160FA0917070B0917170CD9100
:1020F600CDBFDD91DEBFFF91EF91DF91CF91BF9113
:10210600AF919F918F917F916F915F914F913F9189
:102116002F911F910F91FF90EF90DF90CF90BF907E
:10212600AF909F908F907F906F905F904F903F9071
:102136002F901F900F900BBE0F900FBE0F9018950B
:102146000F931F93CF93DF93EC01022F1A8D2C8DE3
:1021560021110CC088819981892B09F042C08C819C
:102166009D810E94E00F1C821D8242C0011117C092
:1021760030E08A819B810E944D192C8D8A819B813A
:10218600820F911D8A839B832C813D818217930741
:1021960050F1888199818A839B8380E029C030E051
:1021A6008E819F810E944D198C8D90E0919581952D
:1021B60091092E813F81280F391F2E833F83488145
:1021C60059812417350730F42C813D81820F931FE6
:1021D6008E839F83023049F4112349F0115080E029
:1021E60007C080E005C080E003C080E001C080E059
:0E21F6001F5F1A8FDF91CF911F910F910895F7
:102204000F920FB6F8940F920BB60F921F921124EF
:102214002F923F924F925F926F927F928F929F92F2
:10222400AF92BF92CF92DF92EF92FF920F931F93E0
:102234002F933F934F935F936F937F938F939F93CA
:10224400AF93BF93CF93DF93EF93FF93A0917070FD
:10225400B09171700DB60D920EB60D920E94160FCC
:10226400A0917070B0917170CD91CDBFDD91DEBF42
:10227400FF91EF91DF91CF91BF91AF919F918F919A
:102284007F916F915F914F913F912F911F910F918A
:10229400FF90EF90DF90CF90BF90AF909F908F9082
:1022A4007F906F905F904F903F902F901F900F9072
:0A22B4000BBE0F900FBE0F900895AF
:1022BE00CF92DF92EF9241155105610509F44AC0A4
:1022CE0020912770309128708217930791F420E0A7
:1022DE0030E005C021E030E002C021E030E0F9013D
:1022EE00EE0FFF1FEE0FFF1FE20FF31FEC5DFF4817
:1022FE0015C0C0902470D0902570E0902670CD2827
:10230E00CE2801F520912C7030912D7082179307F5
:10231E0009F3E4E2F0E702C0E9E2F0E73097D1F02A
:10232E004083518362838383948314C0C090297049
:10233E00D0902A70E0902B70CD28CE2869F3E0E083
:10234E00F0E0ECCF20912C7030912D708217930716
:0C235E0021F2ECCFEF90DF90CF900895BB
:10236A00CF92DF92EF920F931F93CF938C010FB608
:10237A00F8940F92FC01C68D1C16C4F48189811150
:10238A0006C014C0F8018189811107C00FC0680115
:10239A00F1E1CF0ED11C80E8E82E8E2DB6010E9405
:1023AA00C10781110E945F1AC15061F78FEFF801CE
:1023BA00868F0F900FBE0FB6F8940F92C58D1C161C
:1023CA00C4F48085811106C014C0F801808581118A
:1023DA0007C00FC06801F8E0CF0ED11C80E8E82ED4
:1023EA008E2DB6010E94C10781110E945F1AC15049
:1023FA0061F78FEFF801858F0F900FBECF911F9174
:0A240A000F91EF90DF90CF9008953E
:102414006F927F928F92AF92BF92CF92DF92EF92A0
:10242400FF920F931F93CF93DF93EC013A01862E13
:10243400590168018E8580FF05C0790182E0E80EAC
:10244400F11C01C07901CE010E9420158C01950177
:10245400682DA301CE010E945B125C01892BD1F08F
:10246400BE0180E80E94D8172E813F81821793070E
:1024740088F088859985892B69F088859985E12C70
:10248400F12C00E020E030E0A90160E00E94E401CA
:1024940018861986C501DF91CF911F910F91FF9086
:1024A400EF90DF90CF90BF90AF908F907F906F9020
:0224B400089589
:1024B6006F927F928F92AF92BF92CF92DF92EF92FE
:1024C600FF920F931F93CF93DF9300D0CDB7DEB764
:1024D6005C013A01862E6901FC01228133819685D1
:1024E60090FF11C0C982DA820E151F05F0F0AE0109
:1024F6004F5F5F4F60E8890122E030E0C5010E942E
:10250600AB129C0104C00C151D0508F46801C1142A
:10251600D10469F089019601682DA301C5010E94C5
:10252600AB12F5018283938302C0C12CD12CC60164
:102536000F900F90DF91CF911F910F91FF90EF9029
:10254600DF90CF90BF90AF908F907F906F9008955F
:102556006F927F928F92CF92DF92EF92FF920F93BC
:102566001F93CF93DF936C013A01862EE901FC019C
:10257600E480F580E01AF10A2E153F0508F479018A
:10258600F601848595859701682DA301800F911F1B
:102596000E944D19EC16FD0678F49E012E193F098E
:1025A600682DA3014E0D5F1D611DF7FC6A95F601AE
:1025B600848595850E944D19C8018C0F9D1FF601D3
:1025C600248135818217930710F0821B930BDF91CC
:1025D600CF911F910F91FF90EF90DF90CF908F904A
:0625E6007F906F90089544
:1025EC000F931F93CF93DF93FC018B01A181B281D9
:1025FC008091707090917170EC01AE87BF87809163
:10260C0070709091717014962D913C911597EC010E
:10261C00288B398B14968D919C9115972091707005
:10262C0030917170245F3F4FEC012A833B832091E2
:10263C00707030917170245F3F4F14962D933C93C2
:10264C001597A0917070B09171705496ED93FC93A6
:10265C00559790819F5F9083442311F00FEF1FEFEC
:10266C00642FC8010E94A20DDF91CF911F910F9191
:02267C000895BF
:10267E00AF92BF92CF92DF92EF92FF920F931F9382
:10268E00CF93DF9300D0CDB7DEB77C015B016A013B
:10269E008901FC0120813181968590FF11C042E0B5
:1026AE0050E0BE016F5F7F4FC7010E9487139C01F0
:1026BE0089819A81C816D90698F0025011096C01C9
:1026CE00C016D10608F486010115110559F0A801AE
:1026DE00B501C7010E948713F7018083918302C061
:1026EE0000E010E0C8010F900F90DF91CF911F9185
:1026FE000F91FF90EF90DF90CF90BF90AF90089525
:10270E00AF92BF92CF92DF92EF92FF920F931F93F1
:10271E00CF93DF937C015B01EA016901FC01048127
:10272E001581021B130B4017510708F48A01F7019C
:10273E00448555854C0D5D1D60E89801C5010E94CC
:10274E004D190C171D0760F49E01201B310BF7016C
:10275E004485558560E8C501800F911F0E944D1973
:10276E00C6018C0F9D1FF7012481358182179307B7
:10277E0010F0821B930BDF91CF911F910F91FF9061
:0C278E00EF90DF90CF90BF90AF900895C7
:10279A00AF92BF92CF92DF92EF92FF920F931F9365
:1027AA00CF93DF93EC015B017A0169018E8580FD8D
:1027BA0003C000E010E002C002E010E0BE0180E8C1
:1027CA000E94D81708171907D8F49C01A701B50168
:1027DA00CE010E943F135C01892BA1F08A859B855B
:1027EA00892B81F08A859B85E12CF12C00E020E081
:1027FA0030E0A90160E00E94E4011A861B8602C04B
:10280A00A12CB12CC501DF91CF911F910F91FF909F
:0C281A00EF90DF90CF90BF90AF9008953A
:102826001F920F920FB60F9211240BB60F922F9391
:102836003F934F935F936F937F938F939F93AF9342
:10284600BF93EF93FF93CF93DF930F92CDB7DEB78E
:1028560020E030E041E050E0BE016F5F7F4F8091A5
:102866008670909187700E94CD13892B31F4E0E039
:10287600F8E085818F7D858303C089818093020876
:102886000F90DF91CF91FF91EF91BF91AF919F9103
:102896008F917F916F915F914F913F912F910F9003
:0C28A6000BBE0F900FBE0F901F901895F6
:1028B2001F920F920FB60F9211240BB60F920F9325
:1028C2001F932F933F934F935F936F937F938F93B6
:1028D2009F93AF93BF93EF93FF93CF93DF930F92A7
:1028E200CDB7DEB7809100088983AE014F5F5F4F9D
:1028F20060E800E010E021E030E080918870909183
:1029020089700E940A120F90DF91CF91FF91EF918F
:10291200BF91AF919F918F917F916F915F914F91F5
:102922003F912F911F910F910F900BBE0F900FBEF1
:062932000F901F901895A4
:102938000F931F93CF93DF93282F362F882361F1AE
:10294800682F70E08FEF9FEF0E947C19832F90E033
:102958006817790720F1239FC0011124813E4FEFAA
:10296800940700F5D32FC22F4F960E94D7158C01DC
:102978000097D1F0D11104C0FC018083918304C079
:102988004F96F80180839183F801C38FD48F61E05B
:10299800C8010E947C0F08C000E010E005C000E0FC
:1029A80010E002C000E010E0C801DF91CF911F9154
:0429B8000F910895DE
:1029BC000F931F93CF93DF938C010E940C1AEC01A1
:1029CC008091727090917370C817D90738F5E091A7
:1029DC007A70F0917B708081882381F00580F6817C
:1029EC00E02D6FEF7FEF808191810E94AD17E09118
:1029FC007A70F0917B7080818111F0CF809178702A
:102A0C009091797080937A7090937B70E09378704A
:102A1C00F093797081E0F801808302C0F801108294
:102A2C00C0937270D0937370CE01DF91CF911F91D0
:042A3C000F91089559
:102A40006F927F928F92CF92DF92EF920F931F93AC
:102A5000CF93DF933C0120E8822E482D930169013A
:102A6000E42E82E0C80ED11CE11CF901542F0E9413
:102A7000291ADB01F6015E2D0E94291A8B01AA1783
:102A8000BB0799F724E0620E711C811CF301582DDD
:102A90000E94291ACB0101978A0F9B1F801B910B63
:102AA0008617970710F0861B970BDF91CF911F9128
:102AB0000F91EF90DF90CF908F907F906F9008955F
:102AC000EF92FF921F93CF93DF93FC01228D338D02
:102AD000231718F57B01EC01168D2F5F228F1F3F06
:102AE00091F481898823D9F0CF014196BC0180E817
:102AF0000E94C1078823A9F0E114F104A1F081E04C
:102B0000F701808313C00E94631A181770F4FF2422
:102B1000F394F10EFE8E81E009C080E007C081E0F1
:102B200005C081E003C081E001C081E0DF91CF9169
:082B30001F91FF90EF90089542
:102B38000F931F93CF93DF930F92CDB7DEB72FEF8D
:102B48003FEF41E050E08E010F5F1F4FB8018091C9
:102B58008870909189700E94150D6FEF7FEF8091BA
:102B68008C7090918D700E940906A80160E80FEFA3
:102B78001FEF21E030E080918270909183700E9475
:102B88003F0900E020E030E040E050E060E0809164
:102B98008C7090918D700E9484080F90DF91CF9176
:062BA8001F910F9108953A
:102BAE00CF93DF93EC010E94501A80917C7090912C
:102BBE007D70892B31F480E090E480937C7090934B
:102BCE007D702097C9F080917E7090917F709E01EC
:102BDE00280F391F2F3F4FE2340788F482179307CF
:102BEE0088F4C0917C70D0917D70C80FD91F20934E
:102BFE007E7030937F7008C0C0E0D0E005C0C0E0AA
:102C0E00D0E002C0C0E0D0E00E942B05CE01DF91E3
:042C1E00CF910895B5
:102C2200CF93DF930FB6F8940F9220916A70309190
:102C32006B70DB014D915C914F3FBFEF5B0719F168
:102C4200EC01E981FA81A0919070B881BA1741F044
:102C52002E173F0728F0FB011082118281E014C079
:102C62002E1B3F0B2417350748F4FB01421B530B65
:102C7200408351830E94F61980E006C0DB011D9259
:102C82001C9281E001C080E00F900FBEDF91CF91D6
:022C92000895A3
:102C9400E0E0FBE080EC9DE58487958781E0858317
:102CA4008083A0917070B0917170CD91CDBFDD9192
:102CB400DEBFFF91EF91DF91CF91BF91AF919F91D3
:102CC4008F917F916F915F914F913F912F911F91C0
:102CD4000F91FF90EF90DF90CF90BF90AF909F90B7
:102CE4008F907F906F905F904F903F902F901F90A8
:0E2CF4000F900BBE0F900FBE0F900895089525
:102D0200FF920F931F93CF93DF938B01FF24F394D2
:102D1200413009F0F12C0115110511F401E010E028
:102D22009C01205F3F4F82179307B8F4EC01219674
:102D3200C9010E94D715FC01892B89F08FE0DF01C0
:102D42001D928A95E9F7CF010F9684879587C483F0
:102D5200D58306831783F68602C0E0E0F0E0CF0158
:0C2D6200DF91CF911F910F91FF90089519
:102D6E00CF92DF92EF920F931F930F2EF4E6CF2E9A
:102D7E00F0E7DF2EF02DE12C00E010E028E730E048
:102D8E0047E351E060E08AE39AE10E949F008130C0
:102D9E00A1F40E940218813081F4F8948FEF9FEF16
:102DAE00809366709093677081E08093927010921A
:102DBE006A7010926B700E944A161F910F91EF90DD
:062DCE00DF90CF90089594
:102DD4001F920F920FB60F9211240BB60F922F93DE
:102DE4003F934F935F936F937F938F939F93AF938F
:102DF400BF93EF93FF9360E070E080918A709091AD
:102E04008B700E946015E0E0F8E084818064848324
:102E1400FF91EF91BF91AF919F918F917F916F91AE
:102E24005F914F913F912F910F900BBE0F900FBE6A
:062E34000F901F9018959D
:102E3A00CF93DF93EB01488159814F3F2FEF520720
:102E4A0021F4FC01A781B0850DC0DC01139601C0F5
:102E5A00DF011296ED91FC9113972081318142177F
:102E6A005307B0F71296ED91FC911397EA83FB830F
:102E7A00C483D583AC83BD831296CD93DC93139719
:102E8A0088879987FC0120812F5F2083DF91CF916A
:022E9A00089599
:102E9C000FB6F8940F928091767090917770892B81
:102EAC0021F58BE590E70E94E81982E590E70E94F6
:102EBC00E8198BE590E780937A7090937B7082E5AC
:102ECC0090E7809378709093797040E065E08AE0A9
:102EDC000E949C148093767090937770009729F0E1
:102EEC004AE251E060E00E945F110F900FBE08951E
:102EFC00FC0163837483818792874617570790F090
:102F0C00421B530B8585968548175907E0F4BF0182
:102F1C006D5F7F4F80917870909179700E941D1732
:102F2C0080E008954217530718F46217730768F48A
:102F3C00BF016D5F7F4F80917A7090917B700E9482
:0E2F4C001D1780E0089581E0089581E008954A
:102F5A00EF92FF920F931F93CF93DF938C017B0124
:102F6A00E0917A70F0917B700580F681E02DC68140
:102F7A00D781CE0103960E942C188B8982FF06C046
:102F8A00A701B801CE010E949E1802C08E7F8B8BCA
:102F9A00E989FA89CE010995DF91CF911F910F91A5
:062FAA00FF90EF90089576
:102FB000CF92DF92EF929B01482FA82FCB0104966E
:102FC000A11DFC015A2F0E94291ADB016901E42E80
:102FD00082E0C80ED11CE11CF6015E2D0E94291A68
:102FE000CD01860F971FF901542F0E94291A861BC5
:102FF000970B8A179B0710F08A1B9B0BEF90DF90B3
:04300000CF900895D0
:10300400CF92DF92EF920F931F930E944E178091FD
:10301400767090917770892BB1F00F2EF4E7CF2E54
:10302400F0E7DF2EF02D0F2EF3E0EF2EF02D00E071
:1030340010E020EF30E04FE251E060E086EE96E0F1
:103044000E949F0001C080E01F910F91EF90DF90DC
:04305400CF9008957C
:10305800CF93DF93FC01A085B185C281D3818481A0
:1030680095818C839D83C481D581828193818A8354
:103078009B8311968D919C911297E817F90731F46B
:103088008481958111968D939C9312971086118651
:0E3098008C9181508C938C91DF91CF91089593
:1030A600CF93DF93CDB7DEB7C85CD109CDBFDEBF06
:1030B60000E018E02FEF3FEF48EC50E0BE016F5FF5
:1030C6007F4F80918470909185700E94150D898143
:1030D600F80182838581806285836FEF7FEF80911F
:0C30E6008A7090918B700E940906E4CF64
:1030F20027E030E080E0E0E0F4E071E060E4908519
:1031020092959F709727492F417050E0DA01022E65
:1031120002C0AA0FBB1F0A94E2F78A2B658390E1D3
:103122009A95F1F700C0668390E19A95F1F700C095
:0A3132002150310920F7809508951F
:10313C00EF92FF920F931F93CF93DF93EC018B01D0
:10314C007A0108C08D859E85080F191FE989FA89B7
:10315C00CE0109956D857E85600F711F9801A701C1
:10316C00CE010E947E178111EDCFDF91CF911F917F
:08317C000F91FF90EF90089500
:103184000F93CF93DF93482F60E081E00E949C145B
:10319400EC01009769F01C821D82188219821E823C
:1031A40000E020E030E040E050E060E00E9484086D
:0A31B400CE01DF91CF910F91089535
:1031BE00CF93DF93EC010FB6F8940F928D8D8F3F66
:1031CE0009F41D8E8E8D8F3F09F41E8E0F900FBE4B
:1031DE008A8D811104C0CE0141960E94F612CE0155
:0A31EE000E94B511DF91CF91089502
:1031F800E0916E70F0916F708081811107C08FEF40
:103208009FEF80936670909367700895E0916E7059
:10321800F0916F700580F681E02D80819181809317
:08322800667090936770089531
:10323000FC01248D2223B1F030E046815781420FFA
:10324000531F46835783848195814817590720F07F
:103250008081918186839783CB014681578160E885
:063260000E944D190895C3
:10326600009721F480917070909171700FB6F89468
:103276000F9270E0FC01E60FF71F23A5223031F410
:10328600FC01E60FF71F13A681E001C080E00F9056
:043296000FBE0895CA
:10329A00CF92DF92EF926A01E62EDC01280F391FE6
:1032AA00A217B30751F0F6015E2D0E94491A6D93D9
:1032BA004FEFC41AD40AE40AF3CFEF90DF90CF900D
:0232CA00089565
:1032CC008FB78F778FBFE0E0F8E081E493E08087E1
:1032DC00918783E2878381E08093010480E8858372
:0C32EC0080EC86838FB78F678FBF08953A
:1032F800AA1BBB1B51E107C0AA1FBB1FA617B70714
:1033080010F0A61BB70B881F991F5A95A9F780952F
:083318009095BC01CD01089560
:10332000FC0160833197708331971082319720E8D8
:10333000208331971082319710827797408331979D
:06334000508384970895FC
:10334600CF93DF93EB016091707070917170645F41
:103356007F4F0E941D1761E0CE010E94A20DDF91F2
:04336600CF91089566
:10336A008091707090917170892B39F0E091707032
:10337A00F091717082A18F5F82A380917070909199
:04338A0071700895C1
:10338E000FB6F8940F92A82FCB014A96A11DFC01FF
:10339E005A2F0E94491A0F900FBE81E0611180E0F2
:0233AE00089580
:1033B0000FB6F8940F9220919070FC012083209119
:1033C0006A7030916B70218332830F900FBE089525
:1033D000FC010396818392832FEF3FEF2383348395
:0C33E00085839683878390871082089570
:1033EC0020919070FC01208320916A7030916B7059
:0633FC00218332830895D5
:10340200EC010E946C1A0E946B1ACE010E946D1A86
:06341200CE010E94681AC1
:103418000FB6F8940F9280916A7090916B700F902C
:043428000FBE089536
:10342C00E0E0F4E080E2858390E19A95F1F700C04A
:04343C0086830895E6
:10344000EE0FFF1F0024001C0BBE0790F691E02D2D
:023450000994DD
:1034520057FD04C05BBF67917791089561917191A7
:023462000895CB
:103464000F9301E00093060B0F910E9443101895EF
:10347400C0E0D0E788818230E8F30E940211FACFDD
:0E348400E0E0F4E080E6818380E18283089539
:0E34920057FD03C05BBF6791089560810895E8
:0C34A00080918E708F5F80938E70089575
:0A34AC008091707090917170089586
:0834B600FC0110861186089547
:0834BE0081E0809391700895F4
:0634C6008091947008954E
:0434CC000C9400005C
:0434D0000E948800CE
:0234D400089559
:0234D600089557
:0234D800089555
:0234DA00089553
:00000001FF
