:100000000C945E000C94F21D0C94F21D0C94F21DE5
:100010000C94F21D0C94F21D0C94F21D0C94F21D24
:100020000C94F21D0C94F21D0C94F21D0C94F21D14
:100030000C94C51D0C94F21D0C94F21D0C94F21D31
:100040000C94F21D0C94F21D0C94F21D0C941A18D1
:100050000C94D4170C943D1A0C94F21D0C94F21DC0
:100060000C94F21D0C94F21D0C94F21D0C94F21DD4
:100070000C94F21D0C94F21D0C94F21D0C94F21DC4
:100080000C94F21D0C94F21D0C94F21D0C94F21DB4
:100090000C94F21D0C94F21D0C94F21D0C94F21DA4
:1000A0000C94F21D4A074A0779077E0794074A070E
:1000B0004A0779077E0740006197800011241FBE20
:1000C000CFEFCDBFDFE7DEBFE6EBF0E040E019C0E9
:1000D000B791A79137912791079107FD0EC097918E
:1000E0008791EF01F92FE82F0BBF07900D92A21710
:1000F000B307D9F7FE011BBE04C01D92A217B307B8
:10010000E1F7EB3BF40721F70E94010E0C949E1DD2
:04011000F894FFCF91
:10011400494E4954003438354F003438354900527B
:02012400520087
:0D012600546D725100546D722053766300C9
:0601330049444C450003A5
:10013A002F923F924F925F926F927F928F92AF92DD
:10014A00BF92CF92DF92EF920F931F93CF93DF93D9
:10015A001C013A01862E59012801C9010E945D1924
:10016A008C01892B09F417C18DE290E00E945D1978
:10017A00EC01892B89F08DE2FE0111928A95E9F74B
:10018A000F8B188FF1E0AF1AB1080A0D1B1D61140D
:10019A007104810429F42FC0C8010E94F61DFBC016
:1001AA00F301582D0E94D51D698FF301582D0E9425
:1001BA00D51D6623F9F09E01265E3F4FA82DC30187
:1001CA000196A11D48E0640E711C811CFC015A2F86
:1001DA000E94D51DF90161939F01E82FF92F5A2F2B
:1001EA000196A11D0E94D51D662321F0861597054B
:1001FA00A80561F718A2F3E0FE1520F40F2EF3E02C
:10020A00EF2EF02DEE8AE9A25E0142E0A40EB11CA7
:10021A00C5010E94E71DCE010C960E94E71DC88702
:10022A00D98784E090E08E1991098C879D87CA8BC3
:10023A00DB8BA201B101C8010E941A1D8883998330
:10024A00C114D10419F0F601C083D1830FB6F89412
:10025A000F92809195618F5F809395618091736110
:10026A0090917461892BA9F5C0937361D0937461DD
:10027A00809195618130E9F58FEF90E60E94851DA6
:10028A0088E091E60E94851D81E191E60E94851D24
:10029A008AE191E60E94851D88E491E60E94851D07
:1002AA008FE391E60E94851D86E391E60E94851DF3
:1002BA008DE291E60E94851D88E491E68093716142
:1002CA00909372618FE391E680936F61909370616E
:1002DA0010C08091936181110CC0E0917361F0911B
:1002EA00746196898E89891720F0C0937361D093BF
:1002FA007461809190618F5F809390618E899091F3
:10030A009461981710F48093946190E0FC01EE0FC9
:10031A00FF1FEE0FFF1FEE0FFF1F8E0F9F1FFC0127
:10032A00E150FF490180F281E02DEC83FD83848155
:10033A0095818E839F83A481B5811296AD92BC92DA
:10034A001397A482B582EE89F0E0CF01880F991F36
:10035A00880F991F880F991FE80FF91FE150FF496D
:10036A00EA87FB8780818F5F80830F900FBE809121
:10037A009361882361F0E0917361F09174619689C9
:10038A008E89981730F40E94271481E005C081E015
:10039A0003C081E001C08FEFDF91CF911F910F91D0
:1003AA00EF90DF90CF90BF90AF908F907F906F903B
:0A03BA005F904F903F902F90089540
:1003C4008F929F92AF92BF92CF92DF92EF92FF9261
:1003D4000F93CF93DF93DC01E114F10479F0FC0176
:1003E40084E0689FE00DF11D112483A094A0A5A0D2
:1003F400B6A0F70180829182A282B38270E0FD01EF
:10040400E60FF71F83A592E093A70230F9F018F4E2
:10041400013031F049C0033069F10430B9F144C00E
:10042400660F771F660F771FFD01E60FF71F83A086
:1004340094A0A5A0B6A0BA01A901482959296A29FE
:100444007B2943A354A365A376A32EC0660F771F0D
:10045400660F771FFD01E60FF71F43A154A165A1A5
:1004640076A14F5F5F4F6F4F7F4F43A354A365A3A4
:1004740076A31AC0660F771F660F771FFD01E60F7C
:10048400F71F23A334A345A356A30EC0823009F457
:10049400B2C0660F771F660F771FFD01E60FF71FC7
:1004A40023A334A345A356A3813009F0A6C08091A9
:1004B4008F6181116DC01A96ED91FC911B97149672
:1004C400CD91DC91159716968D919C9117978C83FD
:1004D4009D831696CD91DC91179714968D919C91DE
:1004E40015978A839B839D012E5F3F4F8181928163
:1004F4008217930731F416968D919C9117978183F7
:1005040092831A961D921C921B978081815080833E
:1005140056968C91569790919461981710F4809305
:10052400946190E0FC01EE0FFF1FEE0FFF1FEE0F32
:10053400FF1F8E0F9F1FFC01E150FF490180F281D4
:10054400E02D1496ED93FC9315978481958116966E
:100554008D939C931797C481D5812A833B832483ED
:1005640035835696EC915697F0E0CF01880F991F8A
:10057400880F991F880F991FE80FF91FE150FF4951
:100584001A96ED93FC931B9780818F5F808320C024
:1005940046E351E6FA01C181D2811E96CD93DC93E4
:1005A4001F978C819D8150968D939C9351972C819C
:1005B4003D81CD010C96F901828393838C839D83C5
:1005C40054964D935C935597FA0180818F5F808395
:1005D400E0917361F091746156969C9186898917B4
:1005E40070F4C114D10419F081E0F601808381E034
:1005F4008093926105C080E003C081E001C081E086
:10060400DF91CF910F91FF90EF90DF90CF90BF904B
:08061400AF909F908F900895B4
:10061C000F931F93CF93DF9380918F61811102C150
:10062C00C0916D61D0916E618E010F5F1F4F009371
:10063C006D6110936E6101151105B9F480917161B2
:10064C009091726120916F61309170612093716112
:10065C003093726180936F6190937061809191611E
:10066C008F5F809391610E945B1C80916961909176
:10067C006A610817190710F480E0B8C080E0E091B7
:10068C007161F09172619081911107C02FEF3FEF72
:10069C002093696130936A61A9C0E0917161F09116
:1006AC0072610580F681E02D0680F781E02D2281B4
:1006BC0033810217130728F42093696130936A6120
:1006CC0095C0A285B3852481358146815781E90186
:1006DC004C835D832681378144815581E9014A83AE
:1006EC005B83AF014E5F5F4F11962D913C9112973A
:1006FC002417350731F42681378111962D933C93BD
:10070C001297128613869C9191509C93A489B5895B
:10071C00109719F12685378560897189E9016C83F9
:10072C007D832089318966857785E9016A837B839E
:10073C0011966D917C9112979F01245F3F4F621728
:10074C00730731F42089318911962D933C931297BC
:10075C00148A158A9C9191509C932689909194614E
:10076C00921710F42093946130E0D901AA0FBB1FAB
:10077C00AA0FBB1FAA0FBB1F2A0F3B1FD901A150E9
:10078C00BF4911960D90BC91A02DA483B5831496EE
:10079C002D913C9115972683378314962D913C917E
:1007AC001597E9014A835B8314964D935C931597D7
:1007BC00A689B0E09D01220F331F220F331F220F99
:1007CC00331FA20FB31FA150BF49A287B3879C91BF
:1007DC009F5F9C93A0917361B0917461268956962A
:1007EC009C91921708F04BCF81E049CFE091736157
:1007FC00F0917461268930E0F901EE0FFF1FEE0FC6
:10080C00FF1FEE0FFF1F2E0F3F1FF901E150FF4995
:10081C009081923008F081E090919261992361F07F
:10082C0081E00AC080916B6190916C61019680931C
:10083C006B6190936C6180E0DF91CF911F910F9170
:02084C0008950D
:10084E008F929F92AF92BF92EF92FF920F93CF93A0
:10085E00DF93DC010FB6F8940F92E114F10479F0F6
:10086E00FC0184E0689FE00DF11D112483A094A08B
:10087E00A5A0B6A0F70180829182A282B38270E019
:10088E00FD01E60FF71F83A592E093A70230F9F062
:10089E0018F4013031F049C0033069F10430B9F178
:1008AE0044C0660F771F660F771FFD01E60FF71F17
:1008BE0083A094A0A5A0B6A0BA01A90148295929E0
:1008CE006A297B2943A354A365A376A32EC0660F82
:1008DE00771F660F771FFD01E60FF71F43A154A187
:1008EE0065A176A14F5F5F4F6F4F7F4F43A354A318
:1008FE0065A376A31AC0660F771F660F771FFD01DB
:10090E00E60FF71F23A334A345A356A30EC08230D0
:10091E0009F487C0660F771F660F771FFD01E60F7C
:10092E00F71F23A334A345A356A3813009F07BC040
:10093E001A96ED91FC911B971496CD91DC9115971B
:10094E0016968D919C9117978C839D831696CD91BB
:10095E00DC91179714968D919C9115978A839B83A2
:10096E009D012E5F3F4F818192818217930731F453
:10097E0016968D919C911797818392831A961D924C
:10098E001C921B9780818150808356968C9156972E
:10099E0090919461981710F48093946190E0FC010B
:1009AE00EE0FFF1FEE0FFF1FEE0FFF1F8E0F9F1F8D
:1009BE00FC01E150FF490180F281E02D1496ED9388
:1009CE00FC9315978481958116968D939C9317971A
:1009DE00C481D5812A833B83248335835696EC913B
:1009EE005697F0E0CF01880F991F880F991F880F37
:1009FE00991FE80FF91FE150FF491A96ED93FC93EA
:100A0E001B9780818F5F8083E0917361F091746199
:100A1E0056969C918689891740F40E94271481E08E
:100A2E0005C080E003C081E001C081E00F900FBEE1
:100A3E00DF91CF910F91FF90EF90BF90AF909F906D
:040A4E008F900895E8
:100A52001F93CF93DF930FB6F8940F9280918F611B
:100A6200815080938F6180918F618111C6C0809186
:100A7200956181119BC0C4C0DB011596ED91FC917B
:100A820016970680F781E02DA489B589868597851A
:100A920020893189EC012C833D83808991892685C7
:100AA2003785EC012A833B83CF010C9611962D9159
:100AB2003C9112972817390731F480899189119650
:100AC2008D939C931297148A158A8C9181508C93E2
:100AD200A285B3858481958126813781EC012C839F
:100AE2003D838681978124813581EC012A833B8372
:100AF2009F012E5F3F4F11968D919C911297821705
:100B0200930731F48681978111968D939C93129766
:100B1200128613868C9181508C9386899091946170
:100B2200981710F48093946190E0DC01AA0FBB1F28
:100B3200AA0FBB1FAA0FBB1F8A0F9B1FDC01A1506C
:100B4200BF4911960D90BC91A02DA483B583149634
:100B52008D919C9115978683978314968D919C9184
:100B62001597EC012A833B8314962D933C9315979A
:100B7200A689B0E0CD01880F991F880F991F880FB1
:100B8200991FA80FB91FA150BF49A287B3878C91A3
:100B92008F5F8C93A0917361B09174619689569620
:100BA2008C91981740F04093926105C0E0E0F0E02C
:100BB20066E371E641E0DB018C9181115DCFEF2BA1
:100BC20011F00E945B1CC0916B61D0916C61209707
:100BD20061F011E00E940E0381111093926121973E
:100BE200C9F710926B6110926C61809192618823B7
:100BF20031F00E94271481E003C080E001C080E050
:0C0C02000F900FBEDF91CF911F9108955D
:100C0E002F923F924F926F927F928F92CF92DF925E
:100C1E00EF92FF920F931F93CF93DF93CDB7DEB773
:100C2E002597CDBFDEBF8C016C837D83C12CD12C6B
:100C3E003C0180E8882E7801E1E1EE0EF11C0FB642
:100C4E00F8940F92F801828D8823E1F08150828F03
:100C5E0080819181892B29F40E94521DF801848391
:100C6E009583F8018085882349F0085F1F4FB801EE
:100C7E0080E80E948F0881110E9427140F900FBEEA
:100C8E0081E089C08C819D81892B21F40F900FBE4C
:100C9E0080E081C0D11006C0CE0101960E94931D46
:100CAE00DD24D3940F900FBE0E94DC1D0FB6F89476
:100CBE000F92F801858D8F3F09F4158EF801868D00
:100CCE008F3F09F4168E0F900FBEBE016C5F7F4FE3
:100CDE00CE0101960E94971981112AC0882DB30169
:100CEE000E94641D8823F1F0F80180819181892B87
:100CFE0051F40FB6F8940F92848195810E949A0E4A
:100D0E00C82E0F900FBE6C817D81C7010E94401DC1
:100D1E00C8010E9430150E942905811190CF0E94B2
:100D2E0027148DCFC8010E9430150E94290587CF48
:100D3E00C8010E9430150E942905882DB3010E941A
:100D4E00641D882309F47BCFCC2021F10FB6F894D3
:100D5E000F92A82DC3014196A11DFC015A2F0E948E
:100D6E00D51D662369F0A82DC3014696A11DFC0171
:100D7E005A2F0E94BC1DFB01808164E0681B01C0DC
:100D8E0060E0F801848195810E94C8110F900FBE1A
:100D9E0080E001C080E02596CDBFDEBFDF91CF9110
:100DAE001F910F91FF90EF90DF90CF908F907F90DB
:0A0DBE006F904F903F902F90089522
:100DC800CF93DF93CDB7DEB72697CDBFDEBFCE0179
:100DD80001965C01082F1B2DE0917D61F0917E61E9
:100DE8008081882309F4B3C00580F681E02DE08076
:100DF800F1800E94DC1DC5010E949F186C01898149
:100E080081111BC0CE14DF0438F00E942905B601F9
:100E1800C7010E94361B8EC040E0B7016C197D09DE
:100E28008091796190917A610E943E1C0E94290507
:100E3800811180C00E9427147DC00E9429057AC0B4
:100E4800898188230CF476C0EC80FD80D7011B963D
:100E58008D919C911C97892B21F0C70103960E94C4
:100E6800B51BCE0106960E949F186C01E9818E2F52
:100E7800EE0F990BAA0BBB0BFC013197E930F1057A
:100E880008F058C0EE5AFF4F0C94B31DF701838940
:100E98008160838B2A813B8165857685620F731F0C
:100EA800A601C7010E94071B882309F443C0D70184
:100EB80053968C91539782FF0DC06A817B811D9652
:100EC8008D919C911E97680F791FA601C7010E94FA
:100ED800DC1B03C08E7FF701838BD7015196ED9100
:100EE800FC915297C701099525C0F70183898E7F28
:100EF800838B20C0D70153968C915397816053966A
:100F08008C9353976A817B811D966D937C931E9772
:100F18006C0D7D1D9601A601C7010E94071B0AC022
:100F2800F701838981FD04C0C7010E94F61D02C034
:100F38008E7F838B40E050E0602F712F8091796124
:100F480090917A610E94BF0C81117ACF45CF0E949F
:100F5800DC1DC5010E949F186C01898181116DCF2C
:100F6800E0917B61F0917C61808141E0811140E0FA
:060F7800E12CF12C52CF28
:100F7E006F927F928F929F92AF92BF92CF92DF929B
:100F8E00EF92FF920F931F93CF93DF93CDB7DEB700
:100F9E002797CDBFDEBF8EE7898382E08A8380E507
:100FAE008B831C8284EF91E00E94F21CE0E0F8E05B
:100FBE008581806485836FEF7FEF8091836190914F
:100FCE0084610E940706FF24F394CE0101963C0132
:100FDE0020E8822E0F2EF0E6AF2EF4E0BF2EF02D7D
:100FEE006894EE24E7F8C12C6894DD24D3F8FC82D3
:100FFE000FEF1FEF24E030E0682DA301809189618F
:10100E0090918A610E940D0AF501E582F6018581B3
:10101E00806285836FEF7FEF80917F619091806119
:10102E000E94070625E030E041E050E0BE016B5F14
:10103E007F4F80918B6190918C610E94BD0F8D814D
:10104E008E3739F52FEF3FEF41E050E0BE016B5F79
:10105E007F4F80918B6190918C610E94BD0F9D801E
:10106E009920B9F08E010A5F1F4F9A942FEF3FEF30
:10107E0041E050E0BE016B5F7F4F80918B6190919C
:10108E008C610E94BD0F8D81F80181938F019110AB
:10109E00ECCF8E81823569F48F818F110AC08091D9
:1010AE009661E82FF0E0E050F04AF0828F5F809377
:1010BE0096611E82F394FFEFFF1299CF00E020E0BD
:1010CE0030E040E050E060E0809183619091846177
:1010DE000E94520961E070E080918D6190918E6165
:1010EE000E94531180E090E00E94DA142796CDBF43
:1010FE00DEBFDF91CF911F910F91FF90EF90DF90A8
:10110E00CF90BF90AF909F908F907F906F900895EB
:10111E00CF93DF93A82FCB010596A11DFC015A2F6B
:10112E000E94BC1DDB011696ED91FC911797A489C8
:10113E00B589C685D785808991898C839D83C08921
:10114E00D189868597858A839B839F01245F3F4F34
:10115E0011968D919C9112978217930731F4808985
:10116E00918911968D939C931297148A158A8C915E
:10117E0081508C9380918F61811160C0A285B3855F
:10118E00C481D581868197818C839D83C681D781C9
:10119E00848195818A839B839F012E5F3F4F119699
:1011AE008D919C9112978217930731F486819781C6
:1011BE0011968D939C931297128613868C91815063
:1011CE008C93868990919461981710F48093946112
:1011DE0090E0DC01AA0FBB1FAA0FBB1FAA0FBB1FFB
:1011EE008A0F9B1FDC01A150BF4911960D90BC9137
:1011FE00A02DA483B58314968D919C91159786830B
:10120E0097831496CD91DC9115972A833B83149680
:10121E002D933C931597A689B0E0CD01880F991FA9
:10122E00880F991F880F991FA80FB91FA150BF498A
:10123E00A287B3878C918F5F8C931CC046E351E6D7
:10124E00DA011196CD91DC911297C687D7878C81E2
:10125E009D81808B918B8C819D81DC0112962D93CB
:10126E003C9313972C833D83448B558BDA018C91E1
:10127E008F5F8C93A0917361B0917461968956962D
:10128E008C91891720F481E08093926101C080E0F7
:06129E00DF91CF910895DD
:1012A4002F923F924F926F927F928F92CF92DF92C2
:1012B400EF92FF920F931F93CF93DF93CDB7DEB7D7
:1012C4002897CDBFDEBF7C014E835F8368872C8364
:1012D4003D8310E03C0180E8882E1301482CEAE1AC
:1012E4002E0E311C411CFBE16F0E711C811C670129
:1012F40088E0C80ED11C0FB6F8940F92F701928DB6
:10130400838D981710F00230F1F4202F4E815F8105
:101314006885C7010E94C813F7019189992361F078
:10132400F1E1EF0EF11CB70180E80E948F088823D9
:1013340031F00E94271403C081110E9427140F90DA
:101344000FBE81E056C08C819D81892B21F40F90C2
:101354000FBE80E04EC0111105C0CE0101960E945F
:10136400931D11E00F900FBE0E94DC1D0FB6F89480
:101374000F92F701858D8F3F09F4158EF701868D45
:101384008F3F09F4168E0F900FBEBE016C5F7F4F26
:10139400CE0101960E949719811125C00FB6F894C9
:1013A4000F92F101542D0E94D51D862F0F900FBE70
:1013B400F301582D0E94D51D86130FC06C817D81C9
:1013C400C6010E94401DC7010E9430150E942905D4
:1013D400811191CF0E9427148ECFC7010E9430152E
:1013E4000E94290588CFC7010E9430150E94290553
:1013F40080E02896CDBFDEBFDF91CF911F910F9182
:10140400FF90EF90DF90CF908F907F906F904F90F0
:061414003F902F900895A7
:10141A004F925F926F927F928F929F92AF92BF92FA
:10142A00CF92DF92EF92FF920F931F93CF93DF93A6
:10143A00CDB7DEB72897CDBFDEBF5C014E835F8391
:10144A00688729010C831D83FC018481958101979A
:10145A00268520FF0AC03201F2E06F0E711C861544
:10146A00970540F41C821D8243C0320184159505FC
:10147A0008F43C018C819D81892B09F439C0CE0185
:10148A0001960E94751D0FB6F8940F92C5010E942D
:10149A00E1184C018615970530F560E080E090E090
:1014AA000E94921C0E94E21DF501828793870F9089
:1014BA000FBECC80DD80E12CF12C00E010E0980119
:1014CA0040E050E0BA0180E00E94600DF50112860A
:1014DA001386BE016C5F7F4FCE0101960E94971959
:1014EA00882389F202C00F900FBE8114910421F45F
:1014FA00C5010E94E1184C017301840192014E81D9
:10150A005F816885C5010E94D6156C01892B09F196
:10151A00B50180E80E94611BF50126813781821797
:10152A009307B8F00E94DC1DF50180859185892B0F
:10153A0071F080859185E12CF12C00E020E030E00B
:10154A00A90160E00E942704F501108611860E9415
:10155A002905C6012896CDBFDEBFDF91CF911F9125
:10156A000F91FF90EF90DF90CF90BF90AF909F9038
:0C157A008F907F906F905F904F900895CD
:10158600CF93DF93CDB7DEB7C15DD109CDBFDEBF47
:101596008EE7C753DF4F8883C95CD040C653DF4F01
:1015A6001882CA5CD04089E4C553DF4F8883CB5C80
:1015B600D0400FEF1FEF20E040E061E070E0809147
:1015C6008D6190918E610E944A10CE0101962C0188
:1015D6005E0199ECA90EB11CC501A0E8C453DF4F0A
:1015E60088839983AA83CC5CD040C201A0E8C1530A
:1015F600DF4F88839983AA83CF5CD0400F2EF0E615
:101606006F2EF4E07F2EF02D6894992497F8C12C64
:101616006894DD24D3F82FEF3FEF48EC50E0B20199
:1016260080918761909188610E94BD0F7C016FEF68
:101636007FEF80918361909184610E9407066FEF2E
:101646007FEF80918161909182610E94070681E01F
:101656008E0DF50181830FEF1FEF23E030E0C453B9
:10166600DF4F488159816A81CC5CD0408091896185
:1016760090918A610E940D0A97013327C153DF4F6B
:10168600488159816A81CF5CD0408091896190916F
:101696008A610E940D0AF3019582F60185818062B6
:1016A60085836FEF7FEF80917F61909180610E94CB
:1016B600070600E020E030E040E050E060E0809186
:1016C6008161909182610E94520920E030E040E001
:1016D60050E060E080918361909184610E9452099C
:0216E6009ACF99
:1016E800CF93DF93DC0170686D937C931197169606
:1016F800ED91FC91179718964D915C911997129658
:101708008D919C91139714962D913C911597EC010E
:101718002C833D8314968D919C91159712962D914B
:101728003C911397EC012A833B83EA0189819A81D2
:10173800A817B90731F414968D919C911597898350
:101748009A8318961D921C921997DA018C918150F0
:101758008C93A285B385C481D581868197818C833A
:101768009D83C681D781848195818A839B839F01CC
:101778002E5F3F4F11968D919C9112978217930778
:1017880031F48681978111968D939C9312971286D6
:1017980013868C9181508C938689909194619817C7
:1017A80010F48093946190E0DC01AA0FBB1FAA0F8C
:1017B800BB1FAA0FBB1F8A0F9B1FDC01A150BF498B
:1017C80011960D90BC91A02DA483B58314968D918C
:1017D8009C911597868397831496CD91DC911597E4
:1017E8002A833B8314962D933C931597A689B0E0E2
:1017F800CD01880F991F880F991F880F991FA80F6F
:10180800B91FA150BF49A287B3878C918F5F8C9372
:10181800A0917361B0917461968956968C918917DD
:0E18280018F481E080939261DF91CF910895D2
:10183600CF93DF93CDB7DEB72597CDBFDEBF8EE75B
:10184600898382E08A8380E58B831C820FEF1FEFFA
:1018560020E040E061E070E080918D6190918E61C2
:101866000E944A100F2EF0E68F2EF4E09F2EF02DE8
:101876006894CC24C7F8A12C6894BB24B3F8CE0195
:1018860001962C0120E8622E809196618823E1F36F
:10189600D12C6FEF7FEF80918361909184610E94DC
:1018A60007066FEF7FEF80918161909182610E94C0
:1018B60007068D2D90E0FC01E050F04A7F01808103
:1018C6008C830FEF1FEF24E030E0662DA20180919C
:1018D600896190918A610E940D0AF401C582F50121
:1018E6008581806285836FEF7FEF80917F61909124
:1018F60080610E94070600E020E030E040E050E012
:1019060060E080918361909184610E9452092AEF80
:1019160030E041E050E0BE016B5F7F4F8091856112
:10192600909186610E94BD0FF70190818D81981775
:1019360081F082E390E00E94F21C20E030E040E07B
:1019460050E060E080918161909182610E9452092D
:101956000CC000E020E030E040E050E060E0809124
:101966008161909182610E945209D394809196611F
:08197600D81608F48ECF88CFCB
:10197E006F927F928F92AF92BF92CF92DF92EF9241
:10198E00FF920F931F93CF93DF93CDB7DEB72597BB
:10199E00CDBFDEBF8C015B014C835D83E12C3C012E
:1019AE0080E8882E6801E1E1CE0ED11C0FB6F894C6
:1019BE000F92F801F28CFF20B9F0B501C8010E9418
:1019CE00771CFA94F801F28E8085882349F0085F1F
:1019DE001F4FB80180E80E948F0881110E942714C2
:1019EE000F900FBE81E054C08C819D81892B21F414
:1019FE000F900FBE80E04CC0E11006C0CE010196E4
:101A0E000E94931DEE24E3940F900FBE0E94DC1DE6
:101A1E000FB6F8940F92F801858D8F3F09F4158E4D
:101A2E00F801868D8F3F09F4168E0F900FBEBE0102
:101A3E006C5F7F4FCE0101960E94971981111BC0DA
:101A4E00882DB3010E94641D882379F06C817D81FD
:101A5E00C6010E94401DC8010E9430150E94290532
:101A6E008111A4CF0E942714A1CFC8010E94301566
:101A7E000E9429059BCFC8010E9430150E9429059E
:101A8E00882DB3010E94641D882309F48FCF80E056
:101A9E002596CDBFDEBFDF91CF911F910F91FF90A5
:101AAE00EF90DF90CF90BF90AF908F907F906F9020
:021ABE00089589
:101AC0008F929F92AF92BF92CF92DF92EF92FF924E
:101AD0000F931F93CF93DF93480159010FB6F894EA
:101AE0000F92E0917361F0917461C82FD0E0EC0F18
:101AF000FD1F83A5823061F1E0917361F091746103
:101B0000CE01880F991F880F991FE80FF91F83A135
:101B100094A1A5A1B6A140955095609570954823D4
:101B200059236A237B2343A354A365A376A3E0919F
:101B30007361F0917461EC0FFD1F81E083A7C11404
:101B4000D10431F061E0C6010E94D2100E94271436
:101B50000F900FBE0FB6F8940F92E114F104A1F0AC
:101B6000E0917361F0917461CE01880F991F880F25
:101B7000991FE80FF91F83A194A1A5A1B6A1F701B0
:101B800080839183A283B383E0917361F091746148
:101B9000EC0FFD1F83A58230E9F4E0917361F091B1
:101BA0007461CE01880F991F880F991FE80FF91FE4
:101BB00083A194A1A5A1B6A180949094A094B0947F
:101BC00088229922AA22BB2283A294A2A5A2B6A20D
:101BD00081E001C080E02091736130917461C20F97
:101BE000D31F1BA60F900FBEDF91CF911F910F91B6
:101BF000FF90EF90DF90CF90BF90AF909F908F902D
:021C0000089545
:101C0200CF92DF92EF920F931F93C12CD12C689445
:101C1200EE24E2F800E010E02CE231E044E151E091
:101C220060E08FEB97E00E949D006894EE24E1F85B
:101C320028E532E049E151E060E083EC9AE00E945D
:101C42009D000F2EF3E0EF2EF02D28E532E04EE15D
:101C520051E060E08EE29FE00E949D0028E532E0C4
:101C620043E251E060E08BE19CE00E949D000E9413
:101C72002D1D80938D6190938E610E94DC1CE0E6A5
:101C8200F4E080E88183868320E030E040E061E098
:101C920070E084E190E00E94071A80938B61909338
:101CA2008C6120E030E040E061E070E088EC90E0A0
:101CB2000E94071A8093896190938A6120E030E044
:101CC20041E060E070E080E991E00E94071A8093B1
:101CD20087619093886120E030E041E060E070E04D
:101CE20084E190E00E94071A809385619093866157
:101CF20081E00E94211C809383619093846181E042
:101D02000E94211C809381619093826143E060E094
:101D120081E00E945D1880937F61909380610E94B0
:101D2200731A80E090E01F910F91EF90DF90CF90B7
:021D3200089512
:101D34000F931F93CF93DF93FC01892B09F486C083
:101D44002689A0917361B091746156968C9128177D
:101D540008F070C084859585992364F0A09173611F
:101D6400B091746156963C9184E090E0831B910994
:101D74008487958730E0C901880F991F880F991FC0
:101D8400880F991F280F391F21503F498285938559
:101D94008217930709F045C0EF018F010E5F1F4FB3
:101DA400C8010E94B51BE0917361F091746186894A
:101DB4008E8B90919461981710F48093946190E0C5
:101DC400FC01EE0FFF1FEE0FFF1FEE0FFF1F8E0F24
:101DD4009F1FFC01E150FF490180F281E02DEC835B
:101DE400FD83848195818E839F83A481B58112961E
:101DF4000D931C931397048315838E8990E0FC0143
:101E0400EE0FFF1FEE0FFF1FEE0FFF1FE80FF91F6E
:101E1400E150FF49EA87FB8780818F5F808381E0FF
:101E240016C0A0917361B091746156968C91868BA3
:101E340081E00DC0A0917361B091746181E021A132
:101E440056969C91291718F080E001C080E0DF913C
:081E5400CF911F910F91089539
:101E5C00CF93DF93CDB7DEB7C95CD109CDBFDEBF61
:101E6C000FEF1FEF20E040E061E070E080918D61AA
:101E7C0090918E610E944A107E0189ECE80EF11C53
:101E8C003701E0E88E2E2FEF3FEF41E050E0B70135
:101E9C0080918B6190918C610E94BD0FF7018081C4
:101EAC008E3789F76FEF7FEF80918361909184611A
:101EBC000E9407062FEF3FEF41E050E0B701809101
:101ECC008B6190918C610E94BD0FF7010081002302
:101EDC00D1F210E025E030E041E050E0B701809114
:101EEC008B6190918C610E94BD0F892B51F0F70191
:101EFC008081E1E0F0E0EC0FFD1FE10FF11D80832C
:101F0C0001C0102F1F5F101728F389818F3409F13E
:101F1C00823509F0B8CF8A81F70180830FEF1FEF6C
:101F2C0021E030E0682DA30180918561909186615C
:101F3C000E940D0A00E020E030E040E050E060E05C
:101F4C0080918361909184610E9452099CCF8BE0B7
:101F5C0001C08BE0E1E0F0E0EC0FFD1FE80FF11D9C
:0E1F6C0090819111F4CF81508430A0F78CCF7A
:101F7A002F923F924F925F926F928F929F92AF925F
:101F8A00BF92CF92DF92EF92FF920F931F93CF935C
:101F9A00DF93EC011B014A0169018E8580FD03C0B4
:101FAA00A12CB12C04C06894AA24A1F8B12CC114A4
:101FBA00D10479F10FB6F8940F922E0180E8682EB9
:101FCA00862DB2010E94611B8C01A816B90648F041
:101FDA0060E080E090E00E94921C0E94E21D8887E7
:101FEA0099870F900FBEA016B106D8F0E12CF12CFC
:101FFA0000E010E0980140E050E0BA0180E00E9461
:10200A00600D18861986862DB2010E94611B8C010B
:10201A0005C0BE0180E80E94611B8C01A016B106B2
:10202A00F8F49801A401B101CE010E94BA165C012C
:10203A00892BC1F00E94DC1D8A859B85892B69F05A
:10204A008A859B85E12CF12C00E020E030E0A90193
:10205A0060E00E9427041A861B860E94290502C096
:10206A00A12CB12CC501DF91CF911F910F91FF9047
:10207A00EF90DF90CF90BF90AF909F908F906F902E
:0A208A005F904F903F902F90089553
:10209400AF92BF92CF92DF92EF92FF920F931F9372
:1020A400CF93DF937C016B01A42EB22E0E94DC1D22
:1020B400F701C081D181B11008C081E09E012C21BB
:1020C4003D21232B51F480E008C081E09E012C21A6
:1020D4003D212C153D0509F080E0882361F0AA20FC
:1020E40009F450C0B601609570956C237D23F70107
:1020F4006083718347C00115110509F443C0AA2008
:1021040019F060E071E002C060E070E0B11074604A
:102114006C297D29A801C70102960E948E170E948E
:102124002905811102C00E9427140E94C51C91FD3B
:1021340026C00FB6F8940F92F70180819181B110F7
:1021440008C021E0A60148235923452B51F420E07F
:1021540008C021E0A601482359234C155D0509F068
:1021640020E0222351F0AA2041F0B6016095709539
:1021740068237923F701608371830F900FBEEC010C
:10218400DD2702C00E942905CE01DF91CF911F9166
:102194000F91FF90EF90DF90CF90BF90AF90089594
:1021A400FF920F931F93CF93DF93EC01F62E0091D0
:1021B4006D6110916E61809173619091746102966A
:1021C4000E94B51BCF3F8FEFD807B1F5FF20A1F1D7
:1021D400EDE2F1E6A181B281C0917361D0917461A5
:1021E400AC83BD83C0917361D091746114968D9159
:1021F4009C9115978E839F831496CD91DC911597AE
:10220400809173619091746102968A839B8380911B
:10221400736190917461029614968D939C931597B3
:10222400A0917361B09174611A96ED93FC931B971E
:1022340080818F5F80832FC0C00FD11FE0917361B5
:10224400F0917461C283D383C017D10768F460919D
:1022540073617091746180916F61909170616E5F30
:102264007F4F0E94A61A17C06091736170917461C8
:1022740080917161909172616E5F7F4F0E94A61A86
:102284008091696190916A61C817D90720F4C0935D
:102294006961D0936A61DF91CF911F910F91FF9093
:0222A40008959B
:1022A6006F927F928F92BF92CF92DF92EF92FF92C0
:1022B6000F931F93CF93DF93EC018B013C0182E0D8
:1022C600680E711C80E8882EE82C630183E0C80E36
:1022D600D11CE11C0E94DC1D85E0680E711C811C6E
:1022E600F301582D0E94BC1DFB0188819981082BA2
:1022F600192B0883198300E010E028C0B280F38010
:10230600808191819C01332792FD09C06881798182
:102316006223732341E0672B59F440E009C06881CA
:1023260079816223732341E06217730709F040E065
:10233600442351F090FF02C0022B132B6881798150
:102346007260CF010E94740BEB2DFF2DCF01A0E828
:10235600C816D906EA0691F60095109588819981E6
:1023660008231923088319830E94290588819981E6
:10237600DF91CF911F910F91FF90EF90DF90CF905B
:0A238600BF908F907F906F90089534
:102390000F931F93CF93DF93FC01892B09F466C041
:1023A00091A1961708F4962F8689891709F45EC0C3
:1023B00022A1213009F05AC0968B2485358533231C
:1023C00034F024E030E0291B31092487358790E080
:1023D0009C01220F331F220F331F220F331F820F46
:1023E000931F81509F492285338528173907F1F5BE
:1023F000EF018F010E5F1F4FC8010E94B51B8E8930
:1024000090919461981710F48093946190E0FC018E
:10241000EE0FFF1FEE0FFF1FEE0FFF1F8E0F9F1F10
:10242000FC01E150FF490180F281E02DEC83FD8346
:10243000848195818E839F83A481B58112960D93AB
:102440001C931397048315838E8990E0FC01EE0F93
:10245000FF1FEE0FFF1FEE0FFF1FE80FF91FE150E8
:10246000FF49EA87FB8780818F5F8083DF91CF916F
:062470001F910F91089579
:1024760080918F61882321F081E080939261089595
:102486001092926120919461822F90E0FC01EE0FF0
:10249600FF1FEE0FFF1FEE0FFF1FE80FF91FE150A2
:1024A600FF493081311111C02150822F90E0FC018B
:1024B600EE0FFF1FEE0FFF1FEE0FFF1FE80FF91FB6
:1024C600E150FF493081332379F3AC01440F551FA6
:1024D600440F551F440F551F480F591FDA01A150CD
:1024E600BF491196ED91FC9112970280F381E02D80
:1024F6001196ED93FC9312974E5F5E49E417F5072C
:1025060029F442815381FD0141835283FC01EE0F80
:10251600FF1FEE0FFF1FEE0FFF1F8E0F9F1FFC0109
:10252600E150FF490180F281E02D868197818093F9
:0C25360073619093746120939461089588
:10254200EF92FF920F931F93CF93DF93FC01362FED
:10255200892B09F44DC0238D222309F44BC0022F8D
:1025620010E0448DE42EF12C8FEF9FEFB8010E9412
:10257200061D6E157F0508F43FC0EF010FB6F894F3
:102582000F9260817181CB01249F800D911D1124D6
:1025920084839583128E62837383015011090E9D89
:1025A200C0010F9D900D1E9D900D1124860F971F47
:1025B200868397838FEF858F868F31110DC080853B
:1025C200882391F02896BE0180E80E948F08882314
:1025D20059F00E94271408C0CF0108960E94851D59
:1025E200CE0141960E94851D0F900FBE81E005C06D
:1025F20080E003C080E001C080E0DF91CF911F91B5
:082602000F91FF90EF90089585
:10260A000F931F93CF93DF93FC01892B09F451C0D9
:10261A0082A1815082A3268991A1291709F44BC06E
:10262A0081114BC0EF018F010E5F1F4FC8010E943D
:10263A00B51B89A18E8B24E030E0281B31092C8739
:10264A003D8790919461981710F48093946190E07B
:10265A00FC01EE0FFF1FEE0FFF1FEE0FFF1F8E0F85
:10266A009F1FFC01E150FF490180F281E02DEC83BC
:10267A00FD83848195818E839F83A481B58112967F
:10268A000D931C93139704831583EE89F0E0CF0111
:10269A00880F991F880F991F880F991FE80FF91F34
:1026AA00E150FF49EA87FB8780818F5F808381E061
:1026BA0005C080E003C080E001C080E0DF91CF91D7
:0626CA001F910F9108951D
:1026D0000F920FB6F8940F920BB60F921F9211241F
:1026E0002F923F924F925F926F927F928F929F9222
:1026F000AF92BF92CF92DF92EF92FF920F931F9310
:102700002F933F934F935F936F937F938F939F93F9
:10271000AF93BF93CF93DF93EF93FF93A091736138
:10272000B09174610DB60D920EB60D920E940E031B
:1027300081110E943B12A0917361B0917461CD919F
:10274000CDBFDD91DEBFFF91EF91DF91CF91BF91C2
:10275000AF919F918F917F916F915F914F913F9139
:102760002F911F910F91FF90EF90DF90CF90BF902E
:10277000AF909F908F907F906F905F904F903F9021
:102780002F901F900F900BBE0F900FBE0F901895BB
:102790000F931F93CF93DF93EC01022F1A8D2C8D93
:1027A00021110CC088819981892B09F042C08C814C
:1027B0009D810E9405131C821D8242C0011117C019
:1027C00030E08A819B810E94AC1C2C8D8A819B8188
:1027D000820F911D8A839B832C813D8182179307F1
:1027E00050F1888199818A839B8380E029C030E001
:1027F0008E819F810E94AC1C8C8D90E0919581957B
:1028000091092E813F81280F391F2E833F834881F4
:1028100059812417350730F42C813D81820F931F95
:102820008E839F83023049F4112349F0115080E0D8
:1028300007C080E005C080E003C080E001C080E008
:0E2840001F5F1A8FDF91CF911F910F910895A6
:10284E000F920FB6F8940F920BB60F921F9211249F
:10285E002F923F924F925F926F927F928F929F92A2
:10286E00AF92BF92CF92DF92EF92FF920F931F9390
:10287E002F933F934F935F936F937F938F939F937A
:10288E00AF93BF93CF93DF93EF93FF93A0917361B9
:10289E00B09174610DB60D920EB60D920E943B1260
:1028AE00A0917361B0917461CD91CDBFDD91DEBF0A
:1028BE00FF91EF91DF91CF91BF91AF919F918F914A
:1028CE007F916F915F914F913F912F911F910F913A
:1028DE00FF90EF90DF90CF90BF90AF909F908F9032
:1028EE007F906F905F904F903F902F901F900F9022
:0A28FE000BBE0F900FBE0F9008955F
:10290800CF92DF92EF9241155105610509F44AC053
:1029180020912661309127618217930791F420E076
:1029280030E005C021E030E002C021E030E0F901EC
:10293800EE0FFF1FEE0FFF1FE20FF31FED5DFE49C5
:1029480015C0C0902361D0902461E0902561CD2806
:10295800CE2801F520912B6130912C6182179307C5
:1029680009F3E3E2F1E602C0E8E2F1E63097D1F0DC
:102978004083518362838383948314C0C090286109
:10298800D0902961E0902A61CD28CE2869F3E0E053
:10299800F0E0ECCF20912B6130912C6182179307E6
:0C29A80021F2ECCFEF90DF90CF9008956B
:1029B4000F931F93CF93DF93EC010FB6F8940F920C
:1029C400892B21F4C0917361D09174618E010E5FE3
:1029D4001F4FC8010E94B51B8C899D89892B21F04A
:1029E400CE010C960E94B51BB8018DE291E60E94BF
:1029F400001C8BA5813009F41BA68CA5813009F439
:102A04001CA60F900FBE80919361882339F00FB6F6
:102A1400F8940F920E945B1C0F900FBE809173611B
:102A240090917461C817D907A1F4809193618823A8
:102A340019F00E9427140DC090912D618091956129
:102A4400981305C0109273611092746102C00E94C1
:0C2A54003B12DF91CF911F910F9108956C
:102A6000CF92DF92EF920F931F93CF938C010FB60B
:102A7000F8940F92FC01C68D1C16C4F48189811153
:102A800006C014C0F8018189811107C00FC0680118
:102A9000F1E1CF0ED11C80E8E82E8E2DB6010E9408
:102AA0008F0881110E94EB1DC15061F78FEFF80173
:102AB000868F0F900FBE0FB6F8940F92C58D1C161F
:102AC000C4F48085811106C014C0F801808581118D
:102AD00007C00FC06801F8E0CF0ED11C80E8E82ED7
:102AE0008E2DB6010E948F0881110E94EB1DC150EE
:102AF00061F78FEFF801858F0F900FBECF911F9177
:0A2B00000F91EF90DF90CF90089541
:102B0A006F927F928F92AF92BF92CF92DF92EF92A3
:102B1A00FF920F931F93CF93DF93EC013A01862E16
:102B2A00590168018E8580FF05C0790182E0E80EAF
:102B3A00F11C01C07901CE010E94E1188C019501B6
:102B4A00682DA301CE010E94D6155C01892BD1F014
:102B5A00BE0180E80E94611B2E813F818217930784
:102B6A0088F088859985892B69F088859985E12C73
:102B7A00F12C00E020E030E0A90160E00E94E201CF
:102B8A0018861986C501DF91CF911F910F91FF9089
:102B9A00EF90DF90CF90BF90AF908F907F906F9023
:022BAA0008958C
:102BAC006F927F928F92AF92BF92CF92DF92EF9201
:102BBC00FF920F931F93CF93DF9300D0CDB7DEB767
:102BCC005C013A01862E6901FC01228133819685D4
:102BDC0090FF11C0C982DA820E151F05F0F0AE010C
:102BEC004F5F5F4F60E8890122E030E0C5010E9431
:102BFC0026169C0104C00C151D0508F46801C114AF
:102C0C00D10469F089019601682DA301C5010E94C8
:102C1C002616F5018283938302C0C12CD12CC601E8
:102C2C000F900F90DF91CF911F910F91FF90EF902C
:102C3C00DF90CF90BF90AF908F907F906F90089562
:102C4C006F927F928F92CF92DF92EF92FF920F93BF
:102C5C001F93CF93DF936C013A01862EE901FC019F
:102C6C00E480F580E01AF10A2E153F0508F479018D
:102C7C00F601848595859701682DA301800F911F1E
:102C8C000E94AC1CEC16FD0678F49E012E193F092F
:102C9C00682DA3014E0D5F1D611DF7FC6A95F601B1
:102CAC00848595850E94AC1CC8018C0F9D1FF60174
:102CBC00248135818217930710F0821B930BDF91CF
:102CCC00CF911F910F91FF90EF90DF90CF908F904D
:062CDC007F906F90089547
:102CE2000F931F93CF93DF93FC018B01A181B281DC
:102CF2008091736190917461EC01AE87BF8780917E
:102D020073619091746114962D913C911597EC0129
:102D1200288B398B14968D919C9115972091736114
:102D220030917461245F3F4FEC012A833B832091F1
:102D3200736130917461245F3F4F14962D933C93DD
:102D42001597A0917361B09174615496ED93FC93C1
:102D5200559790819F5F9083442311F00FEF1FEFEF
:102D6200642FC8010E94D210DF91CF911F910F9161
:022D72000895C2
:102D7400AF92BF92CF92DF92EF92FF920F931F9385
:102D8400CF93DF9300D0CDB7DEB77C015B016A013E
:102D94008901FC0120813181968590FF11C042E0B8
:102DA40050E0BE016F5F7F4FC7010E9402179C0174
:102DB40089819A81C816D90698F0025011096C01CC
:102DC400C016D10608F486010115110559F0A801B1
:102DD400B501C7010E940217F7018083918302C0E5
:102DE40000E010E0C8010F900F90DF91CF911F9188
:102DF4000F91FF90EF90DF90CF90BF90AF90089528
:102E0400AF92BF92CF92DF92EF92FF920F931F93F4
:102E1400CF93DF937C015B01EA016901FC0104812A
:102E24001581021B130B4017510708F48A01F7019F
:102E3400448555854C0D5D1D60E89801C5010E94CF
:102E4400AC1C0C171D0760F49E01201B310BF7010D
:102E54004485558560E8C501800F911F0E94AC1C14
:102E6400C6018C0F9D1FF7012481358182179307BA
:102E740010F0821B930BDF91CF911F910F91FF9064
:0C2E8400EF90DF90CF90BF90AF900895CA
:102E9000AF92BF92CF92DF92EF92FF920F931F9368
:102EA000CF93DF93EC015B017A0169018E8580FD90
:102EB00003C000E010E002C002E010E0BE0180E8C4
:102EC0000E94611B08171907D8F49C01A701B501DE
:102ED000CE010E94BA165C01892BA1F08A859B85E0
:102EE000892B81F08A859B85E12CF12C00E020E084
:102EF00030E0A90160E00E94E2011A861B8602C050
:102F0000A12CB12CC501DF91CF911F910F91FF90A2
:0C2F1000EF90DF90CF90BF90AF9008953D
:102F1C00CF93DF93FC01A0917361B09174617068E1
:102F2C001C966D937C931D97A181B281C0917361A6
:102F3C00D0917461AE87BF87C0917361D091746179
:102F4C0014968D919C911597888B998B1496CD9195
:102F5C00DC9115972091736130917461245F3F4F20
:102F6C002A833B832091736130917461245F3F4FBE
:102F7C0014962D933C931597A0917361B091746145
:102F8C005496ED93FC93559790819F5F908361E0ED
:0C2F9C00CA010E94D210DF91CF9108956D
:102FA8001F920F920FB60F9211240BB60F922F9308
:102FB8003F934F935F936F937F938F939F93AF93B9
:102FC800BF93EF93FF93CF93DF930F92CDB7DEB705
:102FD80020E030E041E050E0BE016F5F7F4F80911C
:102FE800896190918A610E944817892B31F4E0E049
:102FF800F8E085818F7D858303C0898180930208ED
:103008000F90DF91CF91FF91EF91BF91AF919F9179
:103018008F917F916F915F914F913F912F910F9079
:0C3028000BBE0F900FBE0F901F9018956C
:103034001F920F920FB60F9211240BB60F920F939B
:103044001F932F933F934F935F936F937F938F932C
:103054009F93AF93BF93EF93FF93CF93DF930F921D
:10306400CDB7DEB7809100088983AE014F5F5F4F13
:1030740060E800E010E021E030E080918B61909105
:103084008C610E9485150F90DF91CF91FF91EF9194
:10309400BF91AF919F918F917F916F915F914F916C
:1030A4003F912F911F910F910F900BBE0F900FBE68
:0630B4000F901F9018951B
:1030BA000F931F93CF93DF93282F362F882361F125
:1030CA00682F70E08FEF9FEF0E94061D832F90E01C
:1030DA006817790720F1239FC0011124813E4FEF21
:1030EA00940700F5D32FC22F4F960E945D198C01C9
:1030FA000097D1F0D11104C0FC018083918304C0F0
:10310A004F96F80180839183F801C38FD48F61E0D1
:10311A00C8010E94A11208C000E010E005C000E04A
:10312A0010E002C000E010E0C801DF91CF911F91CA
:04313A000F91089554
:10313E000F931F93CF93DF938C010E94A91DEC0177
:10314E008091756190917661C817D90738F5E09135
:10315E007D61F0917E618081882381F00580F6810A
:10316E00E02D6FEF7FEF808191810E94361BE09101
:10317E007D61F0917E6180818111F0CF80917B61C4
:10318E0090917C6180937D6190937E61E0937B61F1
:10319E00F0937C6181E0F801808302C0F801108217
:1031AE00C0937561D0937661CE01DF91CF911F915F
:0431BE000F910895D0
:1031C2006F927F928F92CF92DF92EF920F931F9323
:1031D200CF93DF933C0120E8822E482D93016901B1
:1031E200E42E82E0C80ED11CE11CF901542F0E948A
:1031F200BC1DDB01F6015E2D0E94BC1D8B01AA17CE
:10320200BB0799F724E0620E711C811CF301582D53
:103212000E94BC1DCB0101978A0F9B1F801B910B43
:103222008617970710F0861B970BDF91CF911F919E
:103232000F91EF90DF90CF908F907F906F900895D5
:10324200EF92FF921F93CF93DF93FC01228D338D78
:10325200231718F57B01EC01168D2F5F228F1F3F7C
:1032620091F481898823D9F0CF014196BC0180E88D
:103272000E948F088823A9F0E114F104A1F081E0F3
:10328200F701808313C00E94EF1D181770F4FF240A
:10329200F394F10EFE8E81E009C080E007C081E068
:1032A20005C081E003C081E001C081E0DF91CF91E0
:0832B2001F91FF90EF900895B9
:1032BA00CF93DF93EC010E94DC1D809163619091B2
:1032CA006461892B31F480E090E480936361909388
:1032DA0064612097C9F080916561909166619E0151
:1032EA00280F391F2F3F4FE1340788F482179307BD
:1032FA0088F4C0916361D0916461C80FD91F20938B
:10330A0065613093666108C0C0E0D0E005C0C0E0E6
:10331A00D0E002C0C0E0D0E00E942905CE01DF91D2
:04332A00CF910895A2
:10332E00CF93DF930FB6F8940F9220916D61309189
:10333E006E61DB014D915C914F3FBFEF5B0719F161
:10334E00EC01E981FA81A0919161B881BA1741F03F
:10335E002E173F0728F0FB011082118281E014C066
:10336E002E1B3F0B2417350748F4FB01421B530B52
:10337E00408351830E94931D80E006C0DB011D92A5
:10338E001C9281E001C080E00F900FBEDF91CF91C3
:02339E00089590
:1033A000E0E0FBE080EC9DE58487958781E0858304
:1033B0008083A0917361B0917461CD91CDBFDD9197
:1033C000DEBFFF91EF91DF91CF91BF91AF919F91C0
:1033D0008F917F916F915F914F913F912F911F91AD
:1033E0000F91FF90EF90DF90CF90BF90AF909F90A4
:1033F0008F907F906F905F904F903F902F901F9095
:0E3400000F900BBE0F900FBE0F900895089511
:10340E00FF920F931F93CF93DF938B01FF24F394BF
:10341E00413009F0F12C0115110511F401E010E015
:10342E009C01205F3F4F82179307B8F4EC01219661
:10343E00C9010E945D19FC01892B89F08FE0DF0123
:10344E001D928A95E9F7CF010F9684879587C483DD
:10345E00D58306831783F68602C0E0E0F0E0CF0145
:0C346E00DF91CF911F910F91FF90089506
:10347A001F920F920FB60F9211240BB60F922F9331
:10348A003F934F935F936F937F938F939F93AF93E2
:10349A00BF93EF93FF9380E880936604E0E0F8E03F
:1034AA0084818064848360E070E080917F61909180
:1034BA0080610E942119FF91EF91BF91AF919F9175
:1034CA008F917F916F915F914F913F912F910F90C3
:0C34DA000BBE0F900FBE0F901F901895B6
:1034E600CF92DF92EF920F931F930F2EF7E6CF2E18
:1034F600F1E6DF2EF02DE12C00E010E028E730E0C9
:1035060043E351E060E08DEC9DE10E949D00813037
:10351600A1F40E948B1B813081F4F8948FEF9FEF0A
:103526008093696190936A6181E0809393611092C0
:103536006D6110926E610E94D0191F910F91EF90EC
:06354600DF90CF90089514
:10354C00CF93DF93EB01488159814F3F2FEF520707
:10355C0021F4FC01A781B0850DC0DC01139601C0DC
:10356C00DF011296ED91FC91139720813181421766
:10357C005307B0F71296ED91FC911397EA83FB83F6
:10358C00C483D583AC83BD831296CD93DC93139700
:10359C0088879987FC0120812F5F2083DF91CF9151
:0235AC00089580
:1035AE000FB6F8940F928091796190917A61892B80
:1035BE0021F58AE591E60E94851D81E591E60E943E
:1035CE00851D8AE591E680937D6190937E6181E50C
:1035DE0091E680937B6190937C6140E065E08AE0A8
:1035EE000E945D188093796190937A61009729F01B
:1035FE0046E251E060E00E9484140F900FBE0895E1
:10360E00FC0163837483818792874617570790F076
:10361E00421B530B8585968548175907E0F4BF0169
:10362E006D5F7F4F80917B6190917C610E94A61AA5
:10363E0080E008954217530718F46217730768F471
:10364E00BF016D5F7F4F80917D6190917E610E9481
:0E365E00A61A80E0089581E0089581E00895A5
:10366C00EF92FF920F931F93CF93DF938C017B010B
:10367C00E0917D61F0917E610580F681E02DC6813F
:10368C00D781CE0103960E94B51B8B8982FF06C0A1
:10369C00A701B801CE010E94DC1B02C08E7F8B8B70
:1036AC00E989FA89CE010995DF91CF911F910F918C
:0636BC00FF90EF9008955D
:1036C200CF92DF92EF929B01482FA82FCB01049655
:1036D200A11DFC015A2F0E94BC1DDB016901E42ED1
:1036E20082E0C80ED11CE11CF6015E2D0E94BC1DB9
:1036F200CD01860F971FF901542F0E94BC1D861B16
:10370200970B8A179B0710F08A1B9B0BEF90DF9099
:04371200CF900895B7
:10371600CF92DF92EF920F931F930E94D71A809158
:10372600796190917A61892BB1F00F2EF7E7CF2E50
:10373600F1E6DF2EF02D0F2EF3E0EF2EF02D00E058
:1037460010E020EF30E04BE251E060E084EE96E0DE
:103756000E949D0001C080E01F910F91EF90DF90C5
:04376600CF90089563
:10376A00CF93DF93FC01A085B185C281D381848187
:10377A0095818C839D83C481D581828193818A833B
:10378A009B8311968D919C911297E817F90731F452
:10379A008481958111968D939C9312971086118638
:0E37AA008C9181508C938C91DF91CF9108957A
:1037B800EF92FF920F931F93CF93DF93EC018B014E
:1037C8007A0108C08D859E85080F191FE989FA8935
:1037D800CE0109956D857E85600F711F9801A7013F
:1037E800CE010E94071B8111EDCFDF91CF911F9170
:0837F8000F91FF90EF9008957E
:10380000CF93DF939C01FB01DC011196CD91DC91FC
:103810001297C283D3838C819D81848395838C810D
:103820009D81DC0112966D937C9313976C837D834D
:1038300020873187F90180818F5F8083DF91CF916D
:023840000895E9
:103842000F93CF93DF93482F60E081E00E945D18D1
:10385200EC01009769F01C821D82188219821E8277
:1038620000E020E030E040E050E060E00E945209D9
:0A387200CE01DF91CF910F91089570
:10387C00CF93DF93EC010FB6F8940F928D8D8F3FA1
:10388C0009F41D8E8E8D8F3F09F41E8E0F900FBE86
:10389C008A8D811104C0CE0141960E947116CE0111
:0A38AC000E943015DF91CF910895BE
:1038B600E0917161F09172618081811107C08FEF93
:1038C6009FEF8093696190936A610895E0917161B9
:1038D600F09172610580F681E02D8081918180935F
:0838E600696190936A61089585
:1038EE00FC01248D2223B1F030E046815781420F36
:1038FE00531F46835783848195814817590720F0BB
:10390E008081918186839783CB014681578160E8C0
:06391E000E94AC1C08959C
:10392400009721F480917361909174610FB6F894BB
:103934000F9270E0FC01E60FF71F23A5223031F44B
:10394400FC01E60FF71F13A681E001C080E00F9091
:043954000FBE089505
:10395800CF92DF92EF926A01E62EDC01280F391F21
:10396800A217B30751F0F6015E2D0E94D51D6D9385
:103978004FEFC41AD40AE40AF3CFEF90DF90CF9048
:023988000895A0
:10398A00E0917361F091746184859585E09173612A
:10399A00F0917461A0917361B091746156964C91E3
:0E39AA0024E030E0241B31092487358708957E
:1039B8008FB78F778FBFE0E0F8E081E493E08087EE
:1039C800918783E2878381E08093010480E885837F
:0C39D80080EC86838FB78F678FBF089547
:1039E400CF93DF93EC01892B51F00E94DC1D60E042
:1039F400CE010E94D2100E942905811102C00E94AA
:083A04002714DF91CF91089512
:103A0C00AA1BBB1B51E107C0AA1FBB1FA617B707F8
:103A1C0010F0A61BB70B881F991F5A95A9F7809514
:083A2C009095BC01CD01089545
:103A3400FC0160833197708331971082319720E8BD
:103A44002083319710823197108277974083319782
:063A5400508384970895E1
:103A5A00CF93DF938BE090E00E945D19EC01009711
:103A6A0031F0FC0111921192CF010E94851DCE0105
:063A7A00DF91CF910895D9
:103A8000CF93DF93EB016091736170917461645F18
:103A90007F4F0E94A61A61E0CE010E94D210DF91F2
:043AA000CF91089525
:103AA4008091736190917461892B39F0E091736115
:103AB400F091746182A18F5F82A380917361909170
:043AC400746108958C
:103AC8000FB6F8940F92A82FCB014A96A11DFC01BE
:103AD8005A2F0E94D51D0F900FBE81E0611180E022
:023AE80008953F
:103AEA000FB6F8940F9220919161FC0120832091E6
:103AFA006D6130916E61218332830F900FBE0895FC
:103B0A00FC010396818392832FEF3FEF2383348353
:0C3B1A008583968387839087108208952E
:103B260020919161FC01208320916D6130916E613D
:063B360021833283089593
:103B3C00EC010E94F81D0E94F71DCE010E94F91D98
:063B4C00CE010E94F41DF1
:103B52000FB6F8940F9280916D6190916E610F9003
:043B62000FBE0895F5
:103B6600EE0FFF1F0024001C0BBE0790F691E02D00
:023B76000994B0
:103B780057FD04C05BBF679177910895619171917A
:023B880008959E
:103B8A000F9301E00093060B0F910E94681318959A
:103B9A00CFEFD0E688818230E8F30E942714FACF6B
:0E3BAA0057FD03C05BBF6791089560810895C9
:0C3BB80080918F618F5F80938F61089572
:0A3BC400809173619091746108957F
:083BCE00FC0110861186089528
:083BD60081E0809392610895E3
:063BDE008091956108953D
:043BE4000C9400003D
:043BE8000E948800AF
:023BEC0008953A
:023BEE00089538
:023BF000089536
:023BF200089534
:00000001FF
