:100000000C9464000C9417270C9417270C94172752
:100010000C9417270C9417270C9417270C94172768
:100020000C9417270C9417270C9417270C94172758
:100030000C94BD260C9417270C9417270C941727A3
:100040000C9417270C9417270C9417270C940D1F4A
:100050000C943B1E0C94F3210C9417270C94172737
:100060000C9417270C9417270C9417270C94172718
:100070000C9417270C9417270C9417270C94501FD7
:100080000C94811E0C9490220C9417270C94172723
:100090000C9417270C94931F0C94C71E0C94C32226
:1000A0000C9417270A0C0A0C390C3E0C540C0A0C41
:1000B0000A0C390C3E0C40006163806163616F0083
:1000C0004E3E616F61B9800011241FBECFEFCDBFDE
:1000D000DFE7DEBFE6EBF0E040E019C0B791A791A3
:1000E00037912791079107FD0EC097918791EF01F6
:1000F000F92FE82F0BBF07900D92A217B307D9F77E
:10010000FE011BBE04C01D92A217B307E1F7E73C36
:10011000F40721F70E9436020C949626F894FFCF3C
:10012000494E4954003438354F003438354900526F
:10013000520058424F00584249004D4F004D49006F
:0D014000546D725100546D722053766300AF
:06014D0049444C4500038B
:10015400CF93DF93CDB7DEB7C559D140CDBFDEBF56
:10016400CE56DE4F1882C259D1400FEF1FEF20E068
:1001740040E061E070E08091AF619091B0610E94D5
:1001840071156E018FE6C81A8EEFD80A7E0199ECBC
:10019400E90EF11CAC2CBD2C0F2EF9E49F2EF02D92
:1001A400C701A0E8CD56DE4F88839983AA83C3593B
:1001B400D1402FEF3FEF41E050E06A2D7B2D80913D
:1001C400A5619091A6610E94E414F60180818E37A6
:1001D40009F076C02AE030E041E050E06A2D7B2D42
:1001E4008091A5619091A6610E94E414882309F48A
:1001F40065C02AE030E041E050E06A2D7B2D80911B
:10020400A5619091A6610E94E414F6011081CE5676
:10021400DE4F1883C259D140FE0131961192EE1679
:10022400FF06E1F7112329F1412C512C320100E0A2
:100234002AE030E041E050E06A2D7B2D8091A561F9
:100244009091A6610E94E414882389F0F6018081CC
:10025400E1E0F0E0EC0FFD1FE00FF11D8083480E9C
:10026400511C611C711C0F5F1013E2CF05C0198271
:1002740003C0412C512C32012AE030E041E050E02F
:100284006A2D7B2D8091A5619091A6610E94E41452
:10029400F6018081480E511C611C711C5524662492
:1002A4007724FFEF4F1651046104710459F0198249
:1002B400CE56DE4F1882C259D1407BCF198279CFF6
:1002C400198277CF8981803909F073CFCE56DE4FFA
:1002D4008881C259D1408250CE56DE4F8883C2599C
:1002E400D140FE01E753FF4F1192EC15FD05E1F7F4
:1002F400F70190828D8581838E8582838F858383A8
:100304008A8184838B8185838C8186838D81878395
:100314008E8180878F81818788858287898583877D
:10032400CE56DE4F8881C259D14090E002960D9797
:10033400E4F08CE090E04CE0F701E80FF91FA4E052
:10034400B0E0AC0FBD1FA80FB91F8C9180834F5F25
:10035400842F90E0CE56DE4F2881C259D14030E040
:100364002E5F3F4F821793073CF3F701828181117F
:1003740053C062E370E080919161909192610E9418
:10038400C70A8130E1F400E010E028EC30E0CD56FB
:10039400DE4F488159816A81C359D14080919B6164
:1003A40090919C610E944F1020E030E040E050E0CA
:1003B40060E080919161909192610E94940FF701A5
:1003C40083818D3409F0F5CE62E370E0809195610C
:1003D400909196610E94C70A813009F0EACE00E04C
:1003E40010E028EC30E0CD56DE4F488159816A8117
:1003F400C359D1408091A9619091AA610E944F1084
:1004040020E030E040E050E060E080919561909120
:1004140096610E94940FCDCE62E370E08091956165
:10042400909196610E94C70A813009F0C2CE00E023
:1004340010E028EC30E0CD56DE4F488159816A81C6
:10044400C359D1408091A9619091AA610E944F1033
:1004540020E030E040E050E060E0809195619091D0
:0804640096610E94940FA5CEE1
:10046C00CF92DF92EF920F931F9394E288ED84BFAB
:10047C0090936800C12CD12C6894EE24E2F800E033
:10048C0010E02CE231E040E251E060E089EE99E0CE
:10049C000E947F036894EE24E1F828E532E045E2FF
:1004AC0051E060E08AEB91E10E947F030F2EF3E0B4
:1004BC00EF2EF02D28E532E04AE251E060E08BE0CF
:1004CC0098E00E947F0328E532E04FE251E060E0C3
:1004DC0085E091E10E947F036894EE24E1F828E521
:1004EC0032E042E351E060E08FE79CE00E947F0342
:1004FC000F2EF3E0EF2EF02D28E532E046E351E02D
:10050C0060E08AEA90E00E947F036894EE24E1F8B0
:10051C0028E532E04AE351E060E080E59DE00E948E
:10052C007F030F2EF3E0EF2EF02D28E532E04DE3A4
:10053C0051E060E088ED9EE00E947F030E9414264B
:10054C008093AF619093B0610E9429220E94B523E1
:10055C000E94E323E0E6F4E080E88183868320E0D8
:10056C0030E040E061E070E084E190E00E94BD2169
:10057C008093AD619093AE6120E030E040E061E0AB
:10058C0070E088EC90E00E94BD218093AB61909369
:10059C00AC6120E030E041E060E070E080E991E0A7
:1005AC000E94BD218093A9619093AA6120E030E064
:1005BC0041E060E070E084E190E00E94BD21809316
:1005CC00A7619093A86120E030E040E061E070E02A
:1005DC0084E190E00E94BD218093A5619093A66177
:1005EC0020E030E040E061E070E088EC90E00E94B8
:1005FC00BD218093A3619093A46120E030E041E0A1
:10060C0060E070E080E991E00E94BD218093A161DF
:10061C009093A26120E030E040E061E070E084E182
:10062C0090E00E94BD2180939F619093A06120E097
:10063C0030E040E061E070E088EC90E00E94BD2189
:10064C0080939D6190939E6120E030E041E060E0FA
:10065C0070E080E991E00E94BD2180939B619093B2
:10066C009C6181E00E941E258093996190939A6110
:10067C0081E00E941E25809397619093986181E0A0
:10068C000E941E25809395619093966181E00E9453
:10069C001E25809393619093946181E00E941E25A6
:1006AC00809391619093926143E060E081E00E94BD
:1006BC00D61F80938F619093906143E060E081E05E
:1006CC000E94D61F80938D6190938E6143E060E011
:1006DC0081E00E94D61F80938B6190938C610E9465
:1006EC005D2280E090E01F910F91EF90DF90CF9012
:0206FC0008955F
:1006FE002F923F924F925F926F927F928F92AF9214
:10070E00BF92CF92DF92EF920F931F93CF93DF930F
:10071E001C013A01862E59012801C9010E9413219C
:10072E008C01892B09F417C18DE290E00E941321F0
:10073E00EC01892B89F08DE2FE0111928A95E9F781
:10074E000F8B188FF1E0AF1AB1080A0D1B1D611443
:10075E007104810429F42FC0C8010E941B27FBC01D
:10076E00F301582D0E94E926698FF301582D0E943E
:10077E00E9266623F9F09E01265E3F4FA82DC301A0
:10078E000196A11D48E0640E711C811CFC015A2FBC
:10079E000E94E926F90161939F01E82FF92F5A2F44
:1007AE000196A11D0E94E926662321F08615970564
:1007BE00A80561F718A2F3E0FE1520F40F2EF3E062
:1007CE00EF2EF02DEE8AE9A25E0142E0A40EB11CDE
:1007DE00C5010E940127CE010C960E940127C887F1
:1007EE00D98784E090E08E1991098C879D87CA8BFA
:1007FE00DB8BA201B101C8010E9401268883998377
:10080E00C114D10419F0F601C083D1830FB6F89448
:10081E000F928091B7618F5F8093B76180917F61F6
:10082E0090918061892BA9F5C0937F61D0938061EF
:10083E008091B7618130E9F58FEF90E60E947D26B9
:10084E0088E091E60E947D2681E191E60E947D2658
:10085E008AE191E60E947D2688E491E60E947D263B
:10086E008FE391E60E947D2686E391E60E947D2627
:10087E008DE291E60E947D2688E491E680937D616B
:10088E0090937E618FE391E680937B6190937C6180
:10089E0010C08091B56181110CC0E0917F61F09123
:1008AE00806196898E89891720F0C0937F61D093DD
:1008BE0080618091B2618F5F8093B2618E899091D9
:1008CE00B661981710F48093B66190E0FC01EE0FBC
:1008DE00FF1FEE0FFF1FEE0FFF1F8E0F9F1FFC015E
:1008EE00E150FF490180F281E02DEC83FD8384818C
:1008FE0095818E839F83A481B5811296AD92BC9211
:10090E001397A482B582EE89F0E0CF01880F991F6C
:10091E00880F991F880F991FE80FF91FE150FF49A3
:10092E00EA87FB8780818F5F80830F900FBE809157
:10093E00B561882361F0E0917F61F09180619689C5
:10094E008E89981730F40E948E1A81E005C081E0DE
:10095E0003C081E001C08FEFDF91CF911F910F9106
:10096E00EF90DF90CF90BF90AF908F907F906F9071
:0A097E005F904F903F902F90089576
:100988008F929F92AF92BF92CF92DF92EF92FF9297
:100998000F93CF93DF93DC01E114F10479F0FC01AC
:1009A80084E0689FE00DF11D112483A094A0A5A008
:1009B800B6A0F70180829182A282B38270E0FD0125
:1009C800E60FF71F83A592E093A70230F9F018F419
:1009D800013031F049C0033069F10430B9F144C045
:1009E800660F771F660F771FFD01E60FF71F83A0BD
:1009F80094A0A5A0B6A0BA01A901482959296A2935
:100A08007B2943A354A365A376A32EC0660F771F43
:100A1800660F771FFD01E60FF71F43A154A165A1DB
:100A280076A14F5F5F4F6F4F7F4F43A354A365A3DA
:100A380076A31AC0660F771F660F771FFD01E60FB2
:100A4800F71F23A334A345A356A30EC0823009F48D
:100A5800B2C0660F771F660F771FFD01E60FF71FFD
:100A680023A334A345A356A3813009F0A6C08091DF
:100A7800B16181116DC01A96ED91FC911B97149686
:100A8800CD91DC91159716968D919C9117978C8333
:100A98009D831696CD91DC91179714968D919C9114
:100AA80015978A839B839D012E5F3F4F8181928199
:100AB8008217930731F416968D919C91179781832D
:100AC80092831A961D921C921B9780818150808375
:100AD80056968C9156979091B661981710F480931A
:100AE800B66190E0FC01EE0FFF1FEE0FFF1FEE0F47
:100AF800FF1F8E0F9F1FFC01E150FF490180F2810B
:100B0800E02D1496ED93FC931597848195811696A4
:100B18008D939C931797C481D5812A833B83248323
:100B280035835696EC915697F0E0CF01880F991FC0
:100B3800880F991F880F991FE80FF91FE150FF4987
:100B48001A96ED93FC931B9780818F5F808320C05A
:100B580046E351E6FA01C181D2811E96CD93DC931A
:100B68001F978C819D8150968D939C9351972C81D2
:100B78003D81CD010C96F901828393838C839D83FB
:100B880054964D935C935597FA0180818F5F8083CB
:100B9800E0917F61F091806156969C9186898917D2
:100BA80070F4C114D10419F081E0F601808381E06A
:100BB8008093B46105C080E003C081E001C081E09A
:100BC800DF91CF910F91FF90EF90DF90CF90BF9082
:080BD800AF909F908F900895EB
:100BE0000F931F93CF93DF938091B161811102C165
:100BF000C0917961D0917A618E010F5F1F4F009390
:100C0000796110937A6101151105B9F480917D61C4
:100C100090917E6120917B6130917C6120937D6118
:100C200030937E6180937B6190937C618091B3610E
:100C30008F5F8093B3610E94582580917561909178
:100C400076610817190710F480E0B8C080E0E091E1
:100C50007D61F0917E619081911107C02FEF3FEF90
:100C60002093756130937661A9C0E0917D61F09128
:100C70007E610580F681E02D0680F781E02D2281DE
:100C800033810217130728F420937561309376613E
:100C900095C0A285B3852481358146815781E901BC
:100CA0004C835D832681378144815581E9014A83E4
:100CB0005B83AF014E5F5F4F11962D913C91129770
:100CC0002417350731F42681378111962D933C93F3
:100CD0001297128613869C9191509C93A489B58992
:100CE000109719F12685378560897189E9016C8330
:100CF0007D832089318966857785E9016A837B83D5
:100D000011966D917C9112979F01245F3F4F62175E
:100D1000730731F42089318911962D933C931297F2
:100D2000148A158A9C9191509C9326899091B66162
:100D3000921710F42093B66130E0D901AA0FBB1FBF
:100D4000AA0FBB1FAA0FBB1F2A0F3B1FD901A1501F
:100D5000BF4911960D90BC91A02DA483B583149624
:100D60002D913C9115972683378314962D913C91B4
:100D70001597E9014A835B8314964D935C9315970D
:100D8000A689B0E09D01220F331F220F331F220FCF
:100D9000331FA20FB31FA150BF49A287B3879C91F5
:100DA0009F5F9C93A0917F61B09180612689569648
:100DB0009C91921708F04BCF81E049CFE0917F6181
:100DC000F0918061268930E0F901EE0FFF1FEE0FF0
:100DD000FF1FEE0FFF1F2E0F3F1FF901E150FF49CC
:100DE0009081923008F081E09091B461992361F094
:100DF00081E00AC08091776190917861019680933B
:100E000077619093786180E0DF91CF911F910F918E
:020E1000089543
:100E12008F929F92AF92BF92EF92FF920F93CF93D6
:100E2200DF93DC010FB6F8940F92E114F10479F02C
:100E3200FC0184E0689FE00DF11D112483A094A0C1
:100E4200A5A0B6A0F70180829182A282B38270E04F
:100E5200FD01E60FF71F83A592E093A70230F9F098
:100E620018F4013031F049C0033069F10430B9F1AE
:100E720044C0660F771F660F771FFD01E60FF71F4D
:100E820083A094A0A5A0B6A0BA01A9014829592916
:100E92006A297B2943A354A365A376A32EC0660FB8
:100EA200771F660F771FFD01E60FF71F43A154A1BD
:100EB20065A176A14F5F5F4F6F4F7F4F43A354A34E
:100EC20065A376A31AC0660F771F660F771FFD0111
:100ED200E60FF71F23A334A345A356A30EC0823007
:100EE20009F487C0660F771F660F771FFD01E60FB3
:100EF200F71F23A334A345A356A3813009F07BC077
:100F02001A96ED91FC911B971496CD91DC91159751
:100F120016968D919C9117978C839D831696CD91F1
:100F2200DC91179714968D919C9115978A839B83D8
:100F32009D012E5F3F4F818192818217930731F489
:100F420016968D919C911797818392831A961D9282
:100F52001C921B9780818150808356968C91569764
:100F62009091B661981710F48093B66190E0FC01FD
:100F7200EE0FFF1FEE0FFF1FEE0FFF1F8E0F9F1FC3
:100F8200FC01E150FF490180F281E02D1496ED93BE
:100F9200FC9315978481958116968D939C93179750
:100FA200C481D5812A833B83248335835696EC9171
:100FB2005697F0E0CF01880F991F880F991F880F6D
:100FC200991FE80FF91FE150FF491A96ED93FC9320
:100FD2001B9780818F5F8083E0917F61F0918061B8
:100FE20056969C918689891740F40E948E1A81E058
:100FF20005C080E003C081E001C081E00F900FBE18
:10100200DF91CF910F91FF90EF90BF90AF909F90A3
:041012008F9008951E
:10101600CF93DF93CDB7DEB7C95CD109CDBFDEBFB5
:101026000FEF1FEF20E040E061E070E08091AF61DC
:101036009091B0610E9471157E0129ECE20EF11CBF
:10104600170180E8482E5E01E5E0AE0EB11CCE0128
:1010560001963C01F0E88F2E28EC30E041E050E0AC
:10106600B7018091AD619091AE610E94E414892B25
:1010760079F400E020E030E040E050E060E080916C
:10108600996190919A610E94940FF7011082E4CFC2
:10109600F70180818E3701F76FEF7FEF80919961BD
:1010A60090919A610E94C70A22E330E041E050E045
:1010B600B7018091AD619091AE610E94E414F70191
:1010C6009080992049F28E010F5F1F4FCC24CA945D
:1010D600C90CD12CFFEFCF1ADF0AC00ED11E2AE0B1
:1010E60030E041E050E0B7018091AD619091AE6192
:1010F6000E94E414892B09F4AFCFF7018081F8012F
:1011060081938F01CE16DF0651F76BC08A81F701F6
:10111600808305E010E021E030E0642DA10180919C
:10112600A7619091A8610E944F1000E020E030E096
:1011360040E050E060E08091996190919A610E9450
:10114600940F8ACFFE013D968291811156C0AE164C
:10115600BF06D1F74EC0292D30E000E010E0682D23
:10116600A3018091A1619091A2610E944F1020E09D
:1011760030E040E050E060E08091936190919461AE
:101186000E94940F21C062E370E08091916190917A
:1011960092610E94C70A8130B9F400E010E028ECA1
:1011A60030E0682DA30180919B6190919C610E9423
:1011B6004F1020E030E040E050E060E08091916127
:1011C600909192610E94940F00E020E030E040E0B0
:1011D60050E060E08091996190919A610E94940F2D
:1011E6003BCF89818F3409F4ADCF823509F48ECF98
:1011F60033CF8B818111E8CFC6CF62E370E0809157
:101206009361909194610E94C70A8130E9F6A3CF59
:101216001F93CF93DF930FB6F8940F928091B1612D
:1012260081508093B1618091B1618111C6C0809176
:10123600B76181119BC0C4C0DB011596ED91FC918D
:1012460016970680F781E02DA489B589868597854E
:1012560020893189EC012C833D83808991892685FB
:101266003785EC012A833B83CF010C9611962D918D
:101276003C9112972817390731F480899189119684
:101286008D939C931297148A158A8C9181508C9316
:10129600A285B3858481958126813781EC012C83D3
:1012A6003D838681978124813581EC012A833B83A6
:1012B6009F012E5F3F4F11968D919C911297821739
:1012C600930731F48681978111968D939C9312979B
:1012D600128613868C9181508C9386899091B66183
:1012E600981710F48093B66190E0DC01AA0FBB1F3B
:1012F600AA0FBB1FAA0FBB1F8A0F9B1FDC01A150A1
:10130600BF4911960D90BC91A02DA483B583149668
:101316008D919C9115978683978314968D919C91B8
:101326001597EC012A833B8314962D933C931597CE
:10133600A689B0E0CD01880F991F880F991F880FE5
:10134600991FA80FB91FA150BF49A287B3878C91D7
:101356008F5F8C93A0917F61B0918061968956963C
:101366008C91981740F04093B46105C0E0E0F0E03E
:1013760066E371E641E0DB018C9181115DCFEF2BD5
:1013860011F00E945825C0917761D091786120971D
:1013960061F011E00E94F00581111093B46121976C
:1013A600C9F710927761109278618091B4618823B1
:1013B60031F00E948E1A81E003C080E001C080E017
:0C13C6000F900FBEDF91CF911F91089592
:1013D2006F927F928F929F92AF92BF92CF92DF9243
:1013E200EF92FF920F931F93CF93DF93CDB7DEB7A8
:1013F2002797CDBFDEBF8EE7898382E08A8380E5AF
:101402008B831C8284EF91E00E94D925E0E0F8E012
:10141200858180648583E0E2F8E08581806485834C
:10142200E0E4F8E08581806485836FEF7FEF80914F
:10143200996190919A610E94C70AFF24F394CE01A8
:1014420001963C0120E8822E0F2EF0E6AF2EF4E04A
:10145200BF2EF02D6894EE24E7F8C12C6894DD24A9
:10146200D3F8FC820FEF1FEF24E030E0682DA301D8
:101472008091AB619091AC610E944F10F501E582C1
:10148200F6018581806285836FEF7FEF80918F61A6
:10149200909190610E94C70A2AE030E041E050E05A
:1014A200BE016B5F7F4F8091AD619091AE610E94F2
:1014B200E4148D818E3739F52FEF3FEF41E050E094
:1014C200BE016B5F7F4F8091AD619091AE610E94D2
:1014D200E4149D809920B9F08E010A5F1F4F9A94FF
:1014E2002FEF3FEF41E050E0BE016B5F7F4F8091F5
:1014F200AD619091AE610E94E4148D81F8018193F7
:101502008F019110ECCF8E81823569F48F818F111A
:101512000AC08091B861E82FF0E0E050F04AF08212
:101522008F5F8093B8611E82F394FFEFFF1299CF11
:1015320000E020E030E040E050E060E0809199611E
:1015420090919A610E94940F84E690E00E94D925BE
:1015520061E070E08091AF619091B0610E947A1673
:1015620080E090E00E94411B2796CDBFDEBFDF9155
:10157200CF911F910F91FF90EF90DF90CF90BF908E
:0C158200AF909F908F907F906F90089525
:10158E002F923F924F926F927F928F92CF92DF92D5
:10159E00EF92FF920F931F93CF93DF93CDB7DEB7EA
:1015AE002597CDBFDEBF8C016C837D83C12CD12CE2
:1015BE003C0180E8882E7801E1E1EE0EF11C0FB6B9
:1015CE00F8940F92F801828D8823E1F08150828F7A
:1015DE0080819181892B29F40E943926F801848318
:1015EE009583F8018085882349F0085F1F4FB80165
:1015FE0080E80E94150E81110E948E1A0F900FBE68
:10160E0081E089C08C819D81892B21F40F900FBEC2
:10161E0080E081C0D11006C0CE0101960E948B26BB
:10162E00DD24D3940F900FBE0E94F0260FB6F894CF
:10163E000F92F801858D8F3F09F4158EF801868D76
:10164E008F3F09F4168E0F900FBEBE016C5F7F4F59
:10165E00CE0101960E944D2181112AC0882DB30121
:10166E000E944B268823F1F0F80180819181892B0D
:10167E0051F40FB6F8940F92848195810E94501404
:10168E00C82E0F900FBE6C817D81C7010E94272648
:10169E00C8010E94971B0E940B09811190CF0E94D6
:1016AE008E1A8DCFC8010E94971B0E940B0987CFFF
:1016BE00C8010E94971B0E940B09882DB3010E943E
:1016CE004B26882309F47BCFCC2021F10FB6F8945A
:1016DE000F92A82DC3014196A11DFC015A2F0E9405
:1016EE00E926662369F0A82DC3014696A11DFC01CB
:1016FE005A2F0E94B426FB01808164E0681B01C052
:10170E0060E0F801848195810E94EF160F900FBE64
:10171E0080E001C080E02596CDBFDEBFDF91CF9186
:10172E001F910F91FF90EF90DF90CF908F907F9051
:0A173E006F904F903F902F90089598
:10174800CF93DF93CDB7DEB72697CDBFDEBFCE01EF
:1017580001965C01082F1B2DE0918961F0918A6147
:101768008081882309F4B3C00580F681E02DE080EC
:10177800F1800E94F026C5010E9418206C01898121
:1017880081111BC0CE14DF0438F00E940B09B6018A
:10179800C7010E9411248EC040E0B7016C197D0971
:1017A80080918561909186610E943B250E940B097A
:1017B800811180C00E948E1A7DC00E940B097AC0D8
:1017C800898188230CF476C0EC80FD80D7011B96B4
:1017D8008D919C911C97892B21F0C70103960E943B
:1017E8009024CE0106960E9418206C01E9818E2F64
:1017F800EE0F990BAA0BBB0BFC013197E930F105F1
:1018080008F058C0EE5AFF4F0C94AB26F7018389B5
:101818008160838B2A813B8165857685620F731F82
:10182800A601C7010E945723882309F443C0D701A2
:1018380053968C91539782FF0DC06A817B811D96C8
:101848008D919C911E97680F791FA601C7010E9470
:10185800B72403C08E7FF701838BD7015196ED9192
:10186800FC915297C701099525C0F70183898E7F9E
:10187800838B20C0D70153968C91539781605396E0
:101888008C9353976A817B811D966D937C931E97E9
:101898006C0D7D1D9601A601C7010E9457230AC041
:1018A800F701838981FD04C0C7010E941B2702C07C
:1018B8008E7F838B40E050E0602F712F809185618F
:1018C800909186610E940E1381117ACF45CF0E94B4
:1018D800F026C5010E9418206C01898181116DCF05
:1018E800E0918761F0918861808141E0811140E059
:0618F800E12CF12C52CF9F
:1018FE00CF93DF93CDB7DEB7CF5DD109CDBFDEBFBE
:10190E000FEF1FEF20E040E061E070E08091AF61EB
:10191E009091B0610E947115CE0101967E0129EC65
:10192E00E20EF11C0F2EFEE75F2EF02D670134E163
:10193E00C30ED11C982EA92E970140E8C352DF4F3B
:10194E00288339834A83CD5DD0401C0130E8432E75
:10195E006894882484F877247A940F2EFEEF6F2EE5
:10196E00F02D24EF31E048EC50E0692D7A2D809176
:10197E00A1619091A2610E94E414B82E882389F38C
:10198E00F7015082118285E08B0D8283838214824F
:10199E008D8185838E8186838F81878388858087DD
:1019AE00898581878A8582878B8583878C858487C5
:1019BE00758666861786108A8A81818B8B81828BCB
:1019CE008C81838B00E010E024E130E0C352DF4FC6
:1019DE00488159816A81CD5DD0408091A3619091FB
:1019EE00A4610E944F10FCE0FB1570F4FE013196CD
:1019FE0023EF2B0D30E02F5F3F4F2E0F3F1F8485BF
:101A0E008193E217F307D9F7F701339680E090E060
:101A1E00DC012191820F911DA11DB11DEC15FD055B
:101A2E00C1F72CE0B21689F0FE01319623EF2B0D93
:101A3E0030E02F5F3F4F2E0F3F1F4191840F911DBE
:101A4E00A11DB11DE217F307C1F735EFB30E2B2D14
:101A5E0030E0FE01E20FF31F8095808300E010E07E
:101A6E00642DA1018091A3619091A4610E944F10F9
:101A7E00BB2009F476CF809145088062809345089B
:101A8E006FEF7FEF80918D6190918E610E94C70AFA
:021A9E005FCF18
:101AA000CF93DF93CDB7DEB7C25DD109CDBFDEBF27
:101AB0000F2EFEE7FF2EF02DC753DF4FF882C95CD3
:101AC000D040C653DF4F1882CA5CD0400FEF1FEFE3
:101AD00020E040E061E070E08091AF619091B06102
:101AE0000E947115C553DF4FF882CB5CD04082E075
:101AF000C453DF4F8883CC5CD04080E5C353DF4FB5
:101B00008883CD5CD0408DE4C253DF4F8883CE5CA8
:101B1000D0406E018BECC80ED11C90E8E92E689481
:101B2000882485F8992493F85E01AFECAA0EB11CC5
:101B30000FEF1FEF24E030E06E2DA60180919D6134
:101B400090919E610E944F10F4018581806285838F
:101B50006FEF7FEF80918B6190918C610E94C70A3B
:101B600028EC30E041E050E0B50180919F61909118
:101B7000A0610E94E414FEE7AF16B104C9F662E06A
:101B800070E08091AF619091B0610E947A16CE01B1
:101B900001965C014E0199EC890E911CC401A0E8EC
:101BA000C053DF4F88839983AA83C05DD04025014D
:101BB00090E8692E6894CC24C5F8DD24D3F82FEF83
:101BC0003FEF48EC50E0B50180919B6190919C61A2
:101BD0000E94E4147C01F401818300E010E022E023
:101BE00030E0C053DF4F488159816A81C05DD040E9
:101BF00080919D6190919E610E944F1097013327C3
:101C0000662DA20180919D6190919E610E944F106E
:101C1000F6018581806285836FEF7FEF80918B6114
:0A1C200090918C610E94C70ACACFA0
:101C2A00CF93DF93A82FCB010596A11DFC015A2F54
:101C3A000E94B426DB011696ED91FC911797A489B0
:101C4A00B589C685D785808991898C839D83C0890A
:101C5A00D189868597858A839B839F01245F3F4F1D
:101C6A0011968D919C9112978217930731F480896E
:101C7A00918911968D939C931297148A158A8C9147
:101C8A0081508C938091B161811160C0A285B38526
:101C9A00C481D581868197818C839D83C681D781B2
:101CAA00848195818A839B839F012E5F3F4F119682
:101CBA008D919C9112978217930731F486819781AF
:101CCA0011968D939C931297128613868C9181504C
:101CDA008C9386899091B661981710F48093B661B7
:101CEA0090E0DC01AA0FBB1FAA0FBB1FAA0FBB1FE4
:101CFA008A0F9B1FDC01A150BF4911960D90BC9120
:101D0A00A02DA483B58314968D919C9115978683F3
:101D1A0097831496CD91DC9115972A833B83149669
:101D2A002D933C931597A689B0E0CD01880F991F92
:101D3A00880F991F880F991FA80FB91FA150BF4973
:101D4A00A287B3878C918F5F8C931CC046E351E6C0
:101D5A00DA011196CD91DC911297C687D7878C81CB
:101D6A009D81808B918B8C819D81DC0112962D93B4
:101D7A003C9313972C833D83448B558BDA018C91CA
:101D8A008F5F8C93A0917F61B091806196895696FE
:101D9A008C91891720F481E08093B46101C080E0BE
:061DAA00DF91CF910895C6
:101DB000CF93DF93CDB7DEB7C95CD109CDBFDEBF0E
:101DC0000FEF1FEF20E040E062E070E08091AF6134
:101DD0009091B0610E947115CE0101963C0120E8FE
:101DE000822E28EC30E041E050E0BE0167537F4F87
:101DF00080919F619091A0610E94E414892B31F43D
:101E0000C753DF4F1882C95CD040EBCFC753DF4FB9
:101E10008881C95CD0408E3721F722E330E041E071
:101E200050E0BE0167537F4F80919F619091A06108
:101E30000E94E414C753DF4FE880C95CD040EE2015
:101E400081F28E010F5F1F4FEA94F12C8FEFE81A99
:101E5000F80AE00EF11E2AE030E041E050E0BE0159
:101E600067537F4F80919F619091A0610E94E4141D
:101E7000892B09F4B6CFC753DF4F8881C95CD040A6
:101E8000F80181938F01EE15FF0529F746C062E343
:101E900070E080919361909194610E94C70A8130B3
:101EA00009F09FCF00E010E028EC30E0682DA3019E
:101EB0008091A1619091A2610E944F1020E030E0DA
:101EC00040E050E060E080919361909194610E94C5
:101ED000940F87CF62E370E0809195619091966155
:101EE0000E94C70A813009F07CCF00E010E028ECA6
:101EF00030E0682DA3018091A9619091AA610E94B0
:101F00004F1020E030E040E050E060E080919561CB
:101F1000909196610E94940F64CF89818934D1F2A7
:081F20008F3409F4B4CF5DCF4A
:101F28002F923F924F926F927F928F92CF92DF9231
:101F3800EF92FF920F931F93CF93DF93CDB7DEB746
:101F48002897CDBFDEBF7C014E835F8368872C83D3
:101F58003D8310E03C0180E8882E1301482CEAE11B
:101F68002E0E311C411CFBE16F0E711C811C670198
:101F780088E0C80ED11C0FB6F8940F92F701928D25
:101F8800838D981710F00230F1F4202F4E815F8175
:101F98006885C7010E942F1AF7019189992361F07A
:101FA800F1E1EF0EF11CB70180E80E94150E8823BD
:101FB80031F00E948E1A03C081110E948E1A0F9070
:101FC8000FBE81E056C08C819D81892B21F40F9032
:101FD8000FBE80E04EC0111105C0CE0101960E94CF
:101FE8008B2611E00F900FBE0E94F0260FB6F894D2
:101FF8000F92F701858D8F3F09F4158EF701868DB5
:102008008F3F09F4168E0F900FBEBE016C5F7F4F95
:10201800CE0101960E944D21811125C00FB6F8947A
:102028000F92F101542D0E94E926862F0F900FBEC2
:10203800F301582D0E94E92686130FC06C817D811B
:10204800C6010E942726C7010E94971B0E940B0900
:10205800811191CF0E948E1A8ECFC7010E94971BC3
:102068000E940B0988CFC7010E94971B0E940B0989
:1020780080E02896CDBFDEBFDF91CF911F910F91F1
:10208800FF90EF90DF90CF908F907F906F904F9060
:062098003F902F90089517
:10209E004F925F926F927F928F929F92AF92BF926A
:1020AE00CF92DF92EF92FF920F931F93CF93DF9316
:1020BE00CDB7DEB72897CDBFDEBF5C014E835F8301
:1020CE00688729010C831D83FC018481958101970A
:1020DE00268520FF0AC03201F2E06F0E711C8615B4
:1020EE00970540F41C821D8243C03201841595056C
:1020FE0008F43C018C819D81892B09F439C0CE01F5
:10210E0001960E946D260FB6F8940F92C5010E949B
:10211E005A204C018615970530F560E080E090E07E
:10212E000E948F250E94FC26F501828793870F90CF
:10213E000FBECC80DD80E12CF12C00E010E0980188
:10214E0040E050E0BA0180E00E94AF13F501128624
:10215E001386BE016C5F7F4FCE0101960E944D210A
:10216E00882389F202C00F900FBE8114910421F4CE
:10217E00C5010E945A204C017301840192014E81C7
:10218E005F816885C5010E943D1C6C01892B09F198
:10219E00B50180E80E943C24F50126813781821723
:1021AE009307B8F00E94F026F50180859185892B62
:1021BE0071F080859185E12CF12C00E020E030E07B
:1021CE00A90160E00E940907F501108611860E94A0
:1021DE000B09C6012896CDBFDEBFDF91CF911F91AF
:1021EE000F91FF90EF90DF90CF90BF90AF909F90A8
:0C21FE008F907F906F905F904F9008953D
:10220A00CF93DF93CDB7DEB72597CDBFDEBF8EE77D
:10221A00898382E08A8380E58B831C820FEF1FEF1C
:10222A0020E040E061E070E08091AF619091B061A0
:10223A000E9471150F2EF0E68F2EF4E09F2EF02DDE
:10224A006894EE24E7F8A12C6894BB24B3F8CE0175
:10225A0001962C0120E8622E8091B8618823E1F36F
:10226A00F12C6FEF7FEF8091996190919A610E94B2
:10227A00C70A64EF71E080919761909198610E941A
:10228A00C70A813009F05EC08F2D90E0FC01E05052
:10229A00F04A6F0180818C830FEF1FEF24E030E05A
:1022AA00662DA2018091AB619091AC610E944F10A2
:1022BA00F401E582F5018581806285836FEF7FEF06
:1022CA0080918F61909190610E94C70A00E020E09E
:1022DA0030E040E050E060E08091996190919A612D
:1022EA000E94940F1D822AEF30E041E050E0BE01C7
:1022FA006B5F7F4F8091A7619091A8610E94E4145F
:10230A00F60190818D81981781F082E390E00E9416
:10231A00D92520E030E040E050E060E0809197610C
:10232A00909198610E94940F19C000E020E030E07B
:10233A0040E050E060E080919761909198610E943E
:10234A00940F0CC000E020E030E040E050E060E094
:10235A008091996190919A610E94940FF39480916F
:0A236A00B861F81608F47DCF77CFB4
:10237400CF93DF93CDB7DEB7CD5CD109CDBFDEBF40
:102384008EE7C753DF4F8883C95CD040C653DF4F05
:102394001882CA5CD0400FEF1FEF20E040E061E0FC
:1023A40070E08091AF619091B0610E9471157E01DF
:1023B40089ECE80EF11CFE0131965F01C701A0E82B
:1023C400C553DF4F88839983AA83CB5CD0402F0108
:1023D40090E8692E6894772477F8812C689499247E
:1023E40093F8FE0131961192EE15FF05E1F72FEFF8
:1023F4003FEF48EC50E0B5018091A9619091AA614A
:102404000E94E4146C016FEF7FEF809199619091C9
:102414009A610E94C70A64EF71E08091976190917C
:1024240098610E94C70A813009F042C0F701C18255
:1024340000E010E022E030E0C553DF4F48815981CD
:102444006A81CB5CD0408091AB619091AC610E9479
:102454004F1096013327662DA2018091AB619091B4
:10246400AC610E944F1070926504F4018581806212
:1024740085836FEF7FEF80918F61909190610E94CF
:10248400C70A20E030E040E050E060E080919761CE
:10249400909198610E94940F20E030E040E050E079
:1024A40060E08091996190919A610E94940F99CF14
:1024B40000E020E030E040E050E060E0809199618D
:0A24C40090919A610E94940F8CCF52
:1024CE00CF93DF93DC0170686D937C931197169612
:1024DE00ED91FC91179718964D915C911997129664
:1024EE008D919C91139714962D913C911597EC011B
:1024FE002C833D8314968D919C91159712962D9158
:10250E003C911397EC012A833B83EA0189819A81DE
:10251E00A817B90731F414968D919C91159789835C
:10252E009A8318961D921C921997DA018C918150FC
:10253E008C93A285B385C481D581868197818C8346
:10254E009D83C681D781848195818A839B839F01D8
:10255E002E5F3F4F11968D919C9112978217930784
:10256E0031F48681978111968D939C9312971286E2
:10257E0013868C9181508C9386899091B6619817B1
:10258E0010F48093B66190E0DC01AA0FBB1FAA0F76
:10259E00BB1FAA0FBB1F8A0F9B1FDC01A150BF4997
:1025AE0011960D90BC91A02DA483B58314968D9198
:1025BE009C911597868397831496CD91DC911597F0
:1025CE002A833B8314962D933C931597A689B0E0EE
:1025DE00CD01880F991F880F991F880F991FA80F7B
:1025EE00B91FA150BF49A287B3878C918F5F8C937F
:1025FE00A0917F61B0918061968956968C918917D2
:0E260E0018F481E08093B461DF91CF910895BC
:10261C006F927F928F92AF92BF92CF92DF92EF9296
:10262C00FF920F931F93CF93DF93CDB7DEB7259710
:10263C00CDBFDEBF8C015B014C835D83E12C3C0183
:10264C0080E8882E6801E1E1CE0ED11C0FB6F8941B
:10265C000F92F801F28CFF20B9F0B501C8010E946D
:10266C007425FA94F801F28E8085882349F0085F6E
:10267C001F4FB80180E80E94150E81110E948E1A1E
:10268C000F900FBE81E054C08C819D81892B21F469
:10269C000F900FBE80E04CC0E11006C0CE01019639
:1026AC000E948B26EE24E3940F900FBE0E94F0261E
:1026BC000FB6F8940F92F801858D8F3F09F4158EA3
:1026CC00F801868D8F3F09F4168E0F900FBEBE0158
:1026DC006C5F7F4FCE0101960E944D2181111BC072
:1026EC00882DB3010E944B26882379F06C817D8163
:1026FC00C6010E942726C8010E94971B0E940B0945
:10270C008111A4CF0E948E1AA1CFC8010E94971BE1
:10271C000E940B099BCFC8010E94971B0E940B09BA
:10272C00882DB3010E944B26882309F48FCF80E0BB
:10273C002596CDBFDEBFDF91CF911F910F91FF90FA
:10274C00EF90DF90CF90BF90AF908F907F906F9075
:02275C000895DE
:10275E008F929F92AF92BF92CF92DF92EF92FF92A3
:10276E000F931F93CF93DF93480159010FB6F8943F
:10277E000F92E0917F61F0918061C82FD0E0EC0F55
:10278E00FD1F83A5823061F1E0917F61F091806140
:10279E00CE01880F991F880F991FE80FF91F83A18B
:1027AE0094A1A5A1B6A1409550956095709548232A
:1027BE0059236A237B2343A354A365A376A3E091F5
:1027CE007F61F0918061EC0FFD1F81E083A7C11442
:1027DE00D10431F061E0C6010E94F9150E948E1AF3
:1027EE000F900FBE0FB6F8940F92E114F104A1F002
:1027FE00E0917F61F0918061CE01880F991F880F63
:10280E00991FE80FF91F83A194A1A5A1B6A1F70105
:10281E0080839183A283B383E0917F61F091806185
:10282E00EC0FFD1F83A58230E9F4E0917F61F091FA
:10283E008061CE01880F991F880F991FE80FF91F2D
:10284E0083A194A1A5A1B6A180949094A094B094D4
:10285E0088229922AA22BB2283A294A2A5A2B6A262
:10286E0081E001C080E020917F6130918061C20FD4
:10287E00D31F1BA60F900FBEDF91CF911F910F910B
:10288E00FF90EF90DF90CF90BF90AF909F908F9082
:02289E0008959B
:1028A0000F931F93CF93DF93FC01892B09F486C00C
:1028B0002689A0917F61B091806156968C912817EE
:1028C00008F070C084859585992364F0A0917F619C
:1028D000B091806156963C9184E090E0831B910911
:1028E0008487958730E0C901880F991F880F991F49
:1028F000880F991F280F391F21503F4982859385E2
:102900008217930709F045C0EF018F010E5F1F4F3B
:10291000C8010E949024E0917F61F09180618689D6
:102920008E8B9091B661981710F48093B66190E009
:10293000FC01EE0FFF1FEE0FFF1FEE0FFF1F8E0FAC
:102940009F1FFC01E150FF490180F281E02DEC83E3
:10295000FD83848195818E839F83A481B5811296A6
:102960000D931C931397048315838E8990E0FC01CB
:10297000EE0FFF1FEE0FFF1FEE0FFF1FE80FF91FF7
:10298000E150FF49EA87FB8780818F5F808381E088
:1029900016C0A0917F61B091806156968C91868B14
:1029A00081E00DC0A0917F61B091806181E021A1A3
:1029B00056969C91291718F080E001C080E0DF91C5
:0829C000CF911F910F910895C2
:1029C8002F923F924F925F926F928F929F92AF9207
:1029D800BF92CF92DF92EF92FF920F931F93CF9304
:1029E800DF93EC011B014A0169018E8580FD03C05C
:1029F800A12CB12C04C06894AA24A1F8B12CC1144C
:102A0800D10479F10FB6F8940F922E0180E8682E60
:102A1800862DB2010E943C248C01A816B90648F004
:102A280060E080E090E00E948F250E94FC26888765
:102A380099870F900FBEA016B106D8F0E12CF12CA3
:102A480000E010E0980140E050E0BA0180E00E9408
:102A5800AF1318861986862DB2010E943C248C017A
:102A680005C0BE0180E80E943C248C01A016B10676
:102A7800F8F49801A401B101CE010E94211D5C0166
:102A8800892BC1F00E94F0268A859B85892B69F0E5
:102A98008A859B85E12CF12C00E020E030E0A9013B
:102AA80060E00E9409071A861B860E940B0902C073
:102AB800A12CB12CC501DF91CF911F910F91FF90EF
:102AC800EF90DF90CF90BF90AF909F908F906F90D6
:0A2AD8005F904F903F902F900895FB
:102AE200AF92BF92CF92DF92EF92FF920F931F931A
:102AF200CF93DF937C016B01A42EB22E0E94F026AD
:102B0200F701C081D181B11008C081E09E012C2162
:102B12003D21232B51F480E008C081E09E012C214D
:102B22003D212C153D0509F080E0882361F0AA20A3
:102B320009F450C0B601609570956C237D23F701AE
:102B42006083718347C00115110509F443C0AA20AF
:102B520019F060E071E002C060E070E0B1107460F2
:102B62006C297D29A801C70102960E94F51D0E94C9
:102B72000B09811102C00E948E1A0E94C22591FD8A
:102B820026C00FB6F8940F92F70180819181B1109F
:102B920008C021E0A60148235923452B51F420E027
:102BA20008C021E0A601482359234C155D0509F010
:102BB20020E0222351F0AA2041F0B60160957095E1
:102BC20068237923F701608371830F900FBEEC01B4
:102BD200DD2702C00E940B09CE01DF91CF911F9128
:102BE2000F91FF90EF90DF90CF90BF90AF9008953C
:102BF200FF920F931F93CF93DF93EC01F62E009178
:102C0200796110917A6180917F61909180610296E1
:102C12000E949024CF3F8FEFD807B1F5FF20A1F19A
:102C2200EDE2F1E6A181B281C0917F61D091806134
:102C3200AC83BD83C0917F61D091806114968D91E8
:102C42009C9115978E839F831496CD91DC91159755
:102C520080917F619091806102968A839B838091AB
:102C62007F6190918061029614968D939C93159743
:102C7200A0917F61B09180611A96ED93FC931B97AE
:102C820080818F5F80832FC0C00FD11FE0917F6151
:102C9200F0918061C283D383C017D10768F4609139
:102CA2007F617091806180917B6190917C616E5FA8
:102CB2007F4F0E94F62217C060917F617091806100
:102CC20080917D6190917E616E5F7F4F0E94F622BE
:102CD2008091756190917661C817D90720F4C093ED
:102CE2007561D0937661DF91CF911F910F91FF9023
:022CF200089543
:102CF4006F927F928F92BF92CF92DF92EF92FF9268
:102D04000F931F93CF93DF93EC018B013C0182E07F
:102D1400680E711C80E8882EE82C630183E0C80EDD
:102D2400D11CE11C0E94F02685E0680E711C811CF8
:102D3400F301582D0E94B426FB0188819981082B48
:102D4400192B0883198300E010E028C0B280F380B7
:102D5400808191819C01332792FD09C0688179812A
:102D64006223732341E0672B59F440E009C0688172
:102D740079816223732341E06217730709F040E00D
:102D8400442351F090FF02C0022B132B68817981F8
:102D94007260CF010E946712EB2DFF2DCF01A0E8D6
:102DA400C816D906EA0691F600951095888199818E
:102DB40008231923088319830E940B0988819981A8
:102DC400DF91CF911F910F91FF90EF90DF90CF9003
:0A2DD400BF908F907F906F900895DC
:102DDE000F931F93CF93DF93FC01892B09F466C0E9
:102DEE0091A1961708F4962F8689891709F45EC06B
:102DFE0022A1213009F05AC0968B248535853323C4
:102E0E0034F024E030E0291B31092487358790E027
:102E1E009C01220F331F220F331F220F331F820FED
:102E2E00931F81509F492285338528173907F1F565
:102E3E00EF018F010E5F1F4FC8010E9490248E89F3
:102E4E009091B661981710F48093B66190E0FC01F2
:102E5E00EE0FFF1FEE0FFF1FEE0FFF1F8E0F9F1FB8
:102E6E00FC01E150FF490180F281E02DEC83FD83EE
:102E7E00848195818E839F83A481B58112960D9353
:102E8E001C931397048315838E8990E0FC01EE0F3B
:102E9E00FF1FEE0FFF1FEE0FFF1FE80FF91FE15090
:102EAE00FF49EA87FB8780818F5F8083DF91CF9117
:062EBE001F910F91089521
:102EC40010C00E94DB2658F00E94D42640F029F45A
:102ED4005F3F29F00C94F62651110C94E3260C94D0
:102EE40014270E94DB2468F39923B1F3552391F34B
:102EF400951B550BBB27AA2762177307840738F065
:102F04009F5F5F4F220F331F441FAA1FA9F335D0C1
:102F14000E2E3AF0E0E832D091505040E695001C75
:102F2400CAF72BD0FE2F29D0660F771F881FBB1F2F
:102F3400261737074807AB07B0E809F0BB0B802D0D
:102F4400BF01FF2793585F4F3AF09E3F510578F039
:102F54000C94F6260C94E3265F3FE4F3983ED4F3F6
:102F6400869577956795B795F7959F5FC9F7880F0D
:102F7400911D9695879597F90895E1E0660F771F5F
:102F8400881FBB1F621773078407BA0720F0621BF0
:0E2F9400730B840BBA0BEE1F88F7E0950895BF
:102FA2000FC00E94D42638F00E94DB2620F0952321
:102FB20011F00C94F6260C94142711240C94E32699
:102FC2000E94DB2470F3959FC1F3950F50E0551FCB
:102FD200629FF001729FBB27F00DB11D639FAA276C
:102FE200F00DB11DAA1F649F6627B00DA11D661FBB
:102FF200829F2227B00DA11D621F739FB00DA11DDC
:10300200621F839FA00D611D221F749F3327A00D95
:10301200611D231F849F600D211D822F762F6A2F31
:1030220011249F5750409AF0F1F088234AF0EE0F96
:10303200FF1FBB1F661F771F881F91505040A9F7C3
:103042009E3F510580F00C94F6260C94E3265F3FD8
:10305200E4F3983ED4F3869577956795B795F795FF
:10306200E7959F5FC1F7FE2B880F911D9695879577
:0430720097F908952D
:1030760011C00E94D42638F00E94DB2620F039F4D5
:103086009F3F19F426F40C9414270EF4E095E7FB01
:103096000C94F626E92F0E94DB2458F3BA17620730
:1030A60073078407950720F079F4A6F50C94E226B9
:1030B6000EF4E0950B2EBA2FA02D0B01B90190014D
:1030C6000C01CA01A0011124FF27591B99F0593F91
:1030D60050F4503E68F11A16F040A22F232F342FD9
:1030E6004427585FF3CF469537952795A795F04027
:1030F6005395C9F77EF41F16BA0B620B730B840B3C
:10310600BAF09150A1F0FF0FBB1F661F771F881FF3
:10311600C2F70EC0BA0F621F731F841F48F487954B
:1031260077956795B795F7959E3F08F0B0CF93953D
:0E313600880F08F09927EE0F9795879508955A
:103144008091B161882321F081E08093B461089576
:103154001092B4612091B661822F90E0FC01EE0FD1
:10316400FF1FEE0FFF1FEE0FFF1FE80FF91FE150C7
:10317400FF493081311111C02150822F90E0FC01B0
:10318400EE0FFF1FEE0FFF1FEE0FFF1FE80FF91FDB
:10319400E150FF493081332379F3AC01440F551FCB
:1031A400440F551F440F551F480F591FDA01A150F2
:1031B400BF491196ED91FC9112970280F381E02DA5
:1031C4001196ED93FC9312974E5F5E49E417F50751
:1031D40029F442815381FD0141835283FC01EE0FA6
:1031E400FF1FEE0FFF1FEE0FFF1F8E0F9F1FFC012F
:1031F400E150FF490180F281E02D8681978180931F
:0C3204007F61909380612093B661089573
:10321000EF92FF920F931F93CF93DF93FC01362F12
:10322000892B09F44DC0238D222309F44BC0022FB2
:1032300010E0448DE42EF12C8FEF9FEFB8010E9437
:10324000ED256E157F0508F43FC0EF010FB6F89429
:103250000F9260817181CB01249F800D911D1124FB
:1032600084839583128E62837383015011090E9DAE
:10327000C0010F9D900D1E9D900D1124860F971F6C
:10328000868397838FEF858F868F31110DC0808560
:10329000882391F02896BE0180E80E94150E8823AD
:1032A00059F00E948E1A08C0CF0108960E947D2610
:1032B000CE0141960E947D260F900FBE81E005C091
:1032C00080E003C080E001C080E0DF91CF911F91DA
:0832D0000F91FF90EF900895AB
:1032D8000F931F93CF93DF93FC01892B09F451C0FF
:1032E80082A1815082A3268991A1291709F44BC094
:1032F80081114BC0EF018F010E5F1F4FC8010E9463
:10330800902489A18E8B24E030E0281B31092C877A
:103318003D879091B661981710F48093B66190E05C
:10332800FC01EE0FFF1FEE0FFF1FEE0FFF1F8E0FAA
:103338009F1FFC01E150FF490180F281E02DEC83E1
:10334800FD83848195818E839F83A481B5811296A4
:103358000D931C93139704831583EE89F0E0CF0136
:10336800880F991F880F991F880F991FE80FF91F59
:10337800E150FF49EA87FB8780818F5F808381E086
:1033880005C080E003C080E001C080E0DF91CF91FC
:063398001F910F91089542
:10339E000F920FB6F8940F920BB60F921F92112444
:1033AE002F923F924F925F926F927F928F929F9247
:1033BE00AF92BF92CF92DF92EF92FF920F931F9335
:1033CE002F933F934F935F936F937F938F939F931F
:1033DE00AF93BF93CF93DF93EF93FF93A0917F6152
:1033EE00B09180610DB60D920EB60D920E94F00551
:1033FE0081110E94A218A0917F61B0918061CD9140
:10340E00CDBFDD91DEBFFF91EF91DF91CF91BF91E7
:10341E00AF919F918F917F916F915F914F913F915E
:10342E002F911F910F91FF90EF90DF90CF90BF9053
:10343E00AF909F908F907F906F905F904F903F9046
:10344E002F901F900F900BBE0F900FBE0F901895E0
:10345E000F931F93CF93DF93EC01022F1A8D2C8DB8
:10346E0021110CC088819981892B09F042C08C8171
:10347E009D810E946C191C821D8242C0011117C0D1
:10348E0030E08A819B810E94A9252C8D8A819B81A7
:10349E00820F911D8A839B832C813D818217930716
:1034AE0050F1888199818A839B8380E029C030E026
:1034BE008E819F810E94A9258C8D90E0919581959A
:1034CE0091092E813F81280F391F2E833F8348811A
:1034DE0059812417350730F42C813D81820F931FBB
:1034EE008E839F83023049F4112349F0115080E0FE
:1034FE0007C080E005C080E003C080E001C080E02E
:0E350E001F5F1A8FDF91CF911F910F910895CB
:10351C000F920FB6F8940F920BB60F921F921124C4
:10352C002F923F924F925F926F927F928F929F92C7
:10353C00AF92BF92CF92DF92EF92FF920F931F93B5
:10354C002F933F934F935F936F937F938F939F939F
:10355C00AF93BF93CF93DF93EF93FF93A0917F61D2
:10356C00B09180610DB60D920EB60D920E94A2180C
:10357C00A0917F61B0918061CD91CDBFDD91DEBF17
:10358C00FF91EF91DF91CF91BF91AF919F918F916F
:10359C007F916F915F914F913F912F911F910F915F
:1035AC00FF90EF90DF90CF90BF90AF909F908F9057
:1035BC007F906F905F904F903F902F901F900F9047
:0A35CC000BBE0F900FBE0F90089584
:1035D600CF92DF92EF9241155105610509F44AC079
:1035E60020912661309127618217930791F420E09C
:1035F60030E005C021E030E002C021E030E0F90112
:10360600EE0FFF1FEE0FFF1FE20FF31FED5DFE49EA
:1036160015C0C0902361D0902461E0902561CD282B
:10362600CE2801F520912B6130912C6182179307EA
:1036360009F3E3E2F1E602C0E8E2F1E63097D1F001
:103646004083518362838383948314C0C09028612E
:10365600D0902961E0902A61CD28CE2869F3E0E078
:10366600F0E0ECCF20912B6130912C61821793070B
:0C36760021F2ECCFEF90DF90CF90089590
:103682000F931F93CF93DF93EC010FB6F8940F9231
:10369200892B21F4C0917F61D09180618E010E5FF0
:1036A2001F4FC8010E9490248C899D89892B21F08B
:1036B200CE010C960E949024B8018DE291E60E9400
:1036C200FD248BA5813009F41BA68CA5813009F459
:1036D2001CA60F900FBE8091B561882339F00FB6FA
:1036E200F8940F920E9458250F900FBE80917F612F
:1036F20090918061C817D907A1F48091B5618823A0
:1037020019F00E948E1A0DC090912D618091B761BF
:10371200981305C010927F611092806102C00E94CE
:0C372200A218DF91CF911F910F91089524
:10372E00CF92DF92EF920F931F93CF938C010FB630
:10373E00F8940F92FC01C68D1C16C4F48189811178
:10374E0006C014C0F8018189811107C00FC068013D
:10375E00F1E1CF0ED11C80E8E82E8E2DB6010E942D
:10376E00150E81110E940527C15061F78FEFF801E8
:10377E00868F0F900FBE0FB6F8940F92C58D1C1644
:10378E00C4F48085811106C014C0F80180858111B2
:10379E0007C00FC06801F8E0CF0ED11C80E8E82EFC
:1037AE008E2DB6010E94150E81110E940527C15063
:1037BE0061F78FEFF801858F0F900FBECF911F919C
:0A37CE000F91EF90DF90CF90089567
:1037D8006F927F928F92AF92BF92CF92DF92EF92C9
:1037E800FF920F931F93CF93DF93EC013A01862E3C
:1037F800590168018E8580FF05C0790182E0E80ED5
:10380800F11C01C07901CE010E945A208C0195015A
:10381800682DA301CE010E943D1C5C01892BD1F0CB
:10382800BE0180E80E943C242E813F8182179307C5
:1038380088F088859985892B69F088859985E12C98
:10384800F12C00E020E030E0A90160E00E94C4040F
:1038580018861986C501DF91CF911F910F91FF90AE
:10386800EF90DF90CF90BF90AF908F907F906F9048
:023878000895B1
:10387A006F927F928F92AF92BF92CF92DF92EF9226
:10388A00FF920F931F93CF93DF9300D0CDB7DEB78C
:10389A005C013A01862E6901FC01228133819685F9
:1038AA0090FF11C0C982DA820E151F05F0F0AE0131
:1038BA004F5F5F4F60E8890122E030E0C5010E9456
:1038CA008D1C9C0104C00C151D0508F46801C11467
:1038DA00D10469F089019601682DA301C5010E94EE
:1038EA008D1CF5018283938302C0C12CD12CC601A1
:1038FA000F900F90DF91CF911F910F91FF90EF9052
:10390A00DF90CF90BF90AF908F907F906F90089587
:10391A006F927F928F92CF92DF92EF92FF920F93E4
:10392A001F93CF93DF936C013A01862EE901FC01C4
:10393A00E480F580E01AF10A2E153F0508F47901B2
:10394A00F601848595859701682DA301800F911F43
:10395A000E94A925EC16FD0678F49E012E193F094E
:10396A00682DA3014E0D5F1D611DF7FC6A95F601D6
:10397A00848595850E94A925C8018C0F9D1FF60193
:10398A00248135818217930710F0821B930BDF91F4
:10399A00CF911F910F91FF90EF90DF90CF908F9072
:0639AA007F906F9008956C
:1039B0000F931F93CF93DF93FC018B01A181B28101
:1039C00080917F6190918061EC01AE87BF8780918B
:1039D0007F619091806114962D913C911597EC0137
:1039E000288B398B14968D919C91159720917F612E
:1039F00030918061245F3F4FEC012A833B8320910B
:103A00007F6130918061245F3F4F14962D933C93EA
:103A10001597A0917F61B09180615496ED93FC93CE
:103A2000559790819F5F9083442311F00FEF1FEF14
:103A3000642FC8010E94F915DF91CF911F910F915A
:023A40000895E7
:103A4200AF92BF92CF92DF92EF92FF920F931F93AA
:103A5200CF93DF9300D0CDB7DEB77C015B016A0163
:103A62008901FC0120813181968590FF11C042E0DD
:103A720050E0BE016F5F7F4FC7010E94691D9C012C
:103A820089819A81C816D90698F0025011096C01F1
:103A9200C016D10608F486010115110559F0A801D6
:103AA200B501C7010E94691DF7018083918302C09D
:103AB20000E010E0C8010F900F90DF91CF911F91AD
:103AC2000F91FF90EF90DF90CF90BF90AF9008954D
:103AD200AF92BF92CF92DF92EF92FF920F931F931A
:103AE200CF93DF937C015B01EA016901FC01048150
:103AF2001581021B130B4017510708F48A01F701C5
:103B0200448555854C0D5D1D60E89801C5010E94F4
:103B1200A9250C171D0760F49E01201B310BF7012C
:103B22004485558560E8C501800F911F0E94A92533
:103B3200C6018C0F9D1FF7012481358182179307DF
:103B420010F0821B930BDF91CF911F910F91FF9089
:0C3B5200EF90DF90CF90BF90AF900895EF
:103B5E00AF92BF92CF92DF92EF92FF920F931F938D
:103B6E00CF93DF93EC015B017A0169018E8580FDB5
:103B7E0003C000E010E002C002E010E0BE0180E8E9
:103B8E000E943C2408171907D8F49C01A701B5011F
:103B9E00CE010E94211D5C01892BA1F08A859B8597
:103BAE00892B81F08A859B85E12CF12C00E020E0A9
:103BBE0030E0A90160E00E94C4041A861B8602C090
:103BCE00A12CB12CC501DF91CF911F910F91FF90C8
:0C3BDE00EF90DF90CF90BF90AF90089563
:103BEA00CF93DF93FC01A0917F61B09180617068EF
:103BFA001C966D937C931D97A181B281C0917F61C0
:103C0A00D0918061AE87BF87C0917F61D09180617A
:103C1A0014968D919C911597888B998B1496CD91BA
:103C2A00DC91159720917F6130918061245F3F4F2D
:103C3A002A833B8320917F6130918061245F3F4FCB
:103C4A0014962D933C931597A0917F61B091806152
:103C5A005496ED93FC93559790819F5F908361E012
:0C3C6A00CA010E94F915DF91CF91089566
:103C76001F920F920FB60F9211240BB60F922F932D
:103C86003F934F935F936F937F938F939F93AF93DE
:103C9600BF93EF93FF93CF93DF930F92CDB7DEB72A
:103CA60020E030E041E050E0BE016F5F7F4F809141
:103CB600AB619091AC610E94AF1D892B31F4E0E0BD
:103CC600F8E085818F7D858303C089818093020812
:103CD6000F90DF91CF91FF91EF91BF91AF919F919F
:103CE6008F917F916F915F914F913F912F910F909F
:0C3CF6000BBE0F900FBE0F901F90189592
:103D02001F920F920FB60F9211240BB60F922F93A0
:103D12003F934F935F936F937F938F939F93AF9351
:103D2200BF93EF93FF93CF93DF930F92CDB7DEB79D
:103D320020E030E041E050E0BE016F5F7F4F8091B4
:103D42009D6190919E610E94AF1D892B31F4E0E24A
:103D5200F8E085818F7D858303C089818093220865
:103D62000F90DF91CF91FF91EF91BF91AF919F9112
:103D72008F917F916F915F914F913F912F910F9012
:0C3D82000BBE0F900FBE0F901F90189505
:103D8E001F920F920FB60F9211240BB60F922F9314
:103D9E003F934F935F936F937F938F939F93AF93C5
:103DAE00BF93EF93FF93CF93DF930F92CDB7DEB711
:103DBE0020E030E041E050E0BE016F5F7F4F809128
:103DCE00A3619091A4610E94AF1D892B31F4E0E4B0
:103DDE00F8E085818F7D858303C0898180934208B9
:103DEE000F90DF91CF91FF91EF91BF91AF919F9186
:103DFE008F917F916F915F914F913F912F910F9086
:0C3E0E000BBE0F900FBE0F901F90189578
:103E1A001F920F920FB60F9211240BB60F920F93A7
:103E2A001F932F933F934F935F936F937F938F9338
:103E3A009F93AF93BF93EF93FF93CF93DF930F9229
:103E4A00CDB7DEB7809100088983AE014F5F5F4F1F
:103E5A0060E800E010E021E030E08091AD619091EF
:103E6A00AE610E94EC1B0F90DF91CF91FF91EF9111
:103E7A00BF91AF919F918F917F916F915F914F9178
:103E8A003F912F911F910F910F900BBE0F900FBE74
:063E9A000F901F90189527
:103EA0001F920F920FB60F9211240BB60F920F9321
:103EB0001F932F933F934F935F936F937F938F93B2
:103EC0009F93AF93BF93EF93FF93CF93DF930F92A3
:103ED000CDB7DEB7809120088983AE014F5F5F4F79
:103EE00060E800E010E021E030E080919F61909177
:103EF000A0610E94EC1B0F90DF91CF91FF91EF9199
:103F0000BF91AF919F918F917F916F915F914F91F1
:103F10003F912F911F910F910F900BBE0F900FBEED
:063F20000F901F901895A0
:103F26001F920F920FB60F9211240BB60F920F939A
:103F36001F932F933F934F935F936F937F938F932B
:103F46009F93AF93BF93EF93FF93CF93DF930F921C
:103F5600CDB7DEB7809140088983AE014F5F5F4FD2
:103F660060E800E010E021E030E08091A5619091EA
:103F7600A6610E94EC1B0F90DF91CF91FF91EF910C
:103F8600BF91AF919F918F917F916F915F914F916B
:103F96003F912F911F910F910F900BBE0F900FBE67
:063FA6000F901F9018951A
:103FAC000F931F93CF93DF93282F362F882361F124
:103FBC00682F70E08FEF9FEF0E94ED25832F90E02C
:103FCC006817790720F1239FC0011124813E4FEF20
:103FDC00940700F5D32FC22F4F960E9413218C010A
:103FEC000097D1F0D11104C0FC018083918304C0EF
:103FFC004F96F80180839183F801C38FD48F61E0D1
:10400C00C8010E94081908C000E010E005C000E0DB
:10401C0010E002C000E010E0C801DF91CF911F91C9
:04402C000F91089553
:104030000F931F93CF93DF938C010E94A126EC0175
:104040008091816190918261C817D90738F5E0911C
:104050008961F0918A618081882381F00580F681F1
:10406000E02D6FEF7FEF808191810E941124E0911C
:104070008961F0918A6180818111F0CF809187619F
:10408000909188618093896190938A61E0938761C0
:10409000F093886181E0F801808302C0F80110820A
:1040A000C0938161D0938261CE01DF91CF911F9146
:0440B0000F910895CF
:1040B4006F927F928F92CF92DF92EF920F931F9322
:1040C400CF93DF933C0120E8822E482D93016901B0
:1040D400E42E82E0C80ED11CE11CF901542F0E9489
:1040E400B426DB01F6015E2D0E94B4268B01AA17CB
:1040F400BB0799F724E0620E711C811CF301582D53
:104104000E94B426CB0101978A0F9B1F801B910B41
:104114008617970710F0861B970BDF91CF911F919D
:104124000F91EF90DF90CF908F907F906F900895D4
:10413400E89409C097FB3EF490958095709561953D
:104144007F4F8F4F9F4F9923A9F0F92F96E9BB27F3
:104154009395F695879577956795B795F111F8CF6F
:10416400FAF4BB0F11F460FF1BC06F5F7F4F8F4FDA
:104174009F4F16C0882311F096E911C0772321F0D0
:104184009EE8872F762F05C0662371F096E8862F68
:1041940070E060E02AF09A95660F771F881FDAF7BF
:0A41A400880F9695879597F9089506
:1041AE00EF92FF921F93CF93DF93FC01228D338DFD
:1041BE00231718F57B01EC01168D2F5F228F1F3F01
:1041CE0091F481898823D9F0CF014196BC0180E812
:1041DE000E94150E8823A9F0E114F104A1F081E0EC
:1041EE00F701808313C00E941127181770F4FF2463
:1041FE00F394F10EFE8E81E009C080E007C081E0ED
:10420E0005C081E003C081E001C081E0DF91CF9164
:08421E001F91FF90EF9008953D
:10422600CF93DF93EC010E94F02680916F6190910D
:104236007061892B31F480E090E480936F619093F4
:1042460070612097C9F080917161909172619E01B1
:10425600280F391F2F3F4FE1340788F48217930741
:1042660088F4C0916F61D0917061C80FD91F2093F7
:1042760071613093726108C0C0E0D0E005C0C0E053
:10428600D0E002C0C0E0D0E00E940B09CE01DF9171
:04429600CF91089527
:10429A00CF93DF930FB6F8940F9220917961309102
:1042AA007A61DB014D915C914F3FBFEF5B0719F1DA
:1042BA00EC01E981FA81A091B361B881BA1741F0A2
:1042CA002E173F0728F0FB011082118281E014C0EB
:1042DA002E1B3F0B2417350748F4FB01421B530BD7
:1042EA00408351830E948B2680E006C0DB011D9229
:1042FA001C9281E001C080E00F900FBEDF91CF9148
:02430A00089514
:10430C00E0E0FBE080EC9DE58487958781E0858388
:10431C008083A0917F61B0918061CD91CDBFDD9103
:10432C00DEBFFF91EF91DF91CF91BF91AF919F9144
:10433C008F917F916F915F914F913F912F911F9131
:10434C000F91FF90EF90DF90CF90BF90AF909F9028
:10435C008F907F906F905F904F903F902F901F9019
:0E436C000F900BBE0F900FBE0F900895089596
:10437A00FF920F931F93CF93DF938B01FF24F39444
:10438A00413009F0F12C0115110511F401E010E09A
:10439A009C01205F3F4F82179307B8F4EC012196E6
:1043AA00C9010E941321FC01892B89F08FE0DF01EA
:1043BA001D928A95E9F7CF010F9684879587C48362
:1043CA00D58306831783F68602C0E0E0F0E0CF01CA
:0C43DA00DF91CF911F910F91FF9008958B
:1043E6001F920F920FB60F9211240BB60F922F93B6
:1043F6003F934F935F936F937F938F939F93AF9367
:10440600BF93EF93FF9380E880936604E0E0F8E0C3
:1044160084818064848360E070E080918F619091F4
:1044260090610E94D720FF91EF91BF91AF919F912C
:104436008F917F916F915F914F913F912F910F9047
:0C4446000BBE0F900FBE0F901F9018953A
:104452008FB78F778FBF60916B6170916C61809124
:104462006D6190916E610E949A2020E030E040E8F8
:1044720051E40E940D279B01AC0160E07BE187EBD8
:104482009EE40E94092720E030E040E05FE30E94C2
:10449200CE260E948623E0E0F8E06087718783E2FF
:1044A200878381E08093010480E8858380EC8683A2
:0844B2008FB78F678FBF0895DB
:1044BA00CF92DF92EF920F931F930F2EF3E7CF2E37
:1044CA00F1E6DF2EF02DE12C00E010E028E730E0E5
:1044DA004DE451E060E085EC96E20E947F03813072
:1044EA00A1F40E946624813081F4F8948FEF9FEF43
:1044FA00809375619093766181E08093B5611092A3
:10450A00796110927A610E9486211F910F91EF9032
:06451A00DF90CF90089530
:104520001F920F920FB60F9211240BB60F922F937A
:104530003F934F935F936F937F938F939F93AF932B
:10454000BF93EF93FF93E0E2F8E08481806484837B
:1045500060E070E080918B6190918C610E94D72027
:10456000FF91EF91BF91AF919F918F917F916F914B
:104570005F914F913F912F910F900BBE0F900FBE07
:064580000F901F9018953A
:104586001F920F920FB60F9211240BB60F922F9314
:104596003F934F935F936F937F938F939F93AF93C5
:1045A600BF93EF93FF93E0E4F8E084818064848313
:1045B60060E070E080918D6190918E610E94D720BD
:1045C600FF91EF91BF91AF919F918F917F916F91E5
:1045D6005F914F913F912F910F900BBE0F900FBEA1
:0645E6000F901F901895D4
:1045EC00CF93DF93EB01488159814F3F2FEF520757
:1045FC0021F4FC01A781B0850DC0DC01139601C02C
:10460C00DF011296ED91FC911397208131814217B5
:10461C005307B0F71296ED91FC911397EA83FB8345
:10462C00C483D583AC83BD831296CD93DC9313974F
:10463C0088879987FC0120812F5F2083DF91CF91A0
:02464C000895CF
:10464E000FB6F8940F928091856190918661892BB7
:10465E0021F58AE591E60E947D2681E591E60E948C
:10466E007D268AE591E68093896190938A6181E542
:10467E0091E6809387619093886140E065E08AE0DF
:10468E000E94D61F8093856190938661009729F0D2
:10469E0040E451E060E00E94EB1A0F900FBE0895C7
:1046AE00FC0163837483818792874617570790F0C6
:1046BE00421B530B8585968548175907E0F4BF01B9
:1046CE006D5F7F4F80918761909188610E94F62285
:1046DE0080E008954217530718F46217730768F4C1
:1046EE00BF016D5F7F4F8091896190918A610E94B9
:0E46FE00F62280E0089581E0089581E008959D
:10470C000E94E32488F09F5798F0B92F9927B7514E
:10471C00B0F0E1F0660F771F881F991F1AF0BA9559
:10472C00C9F714C0B13091F00E94E226B1E00895AF
:10473C000C94E226672F782F8827B85F39F0B93FA1
:10474C00CCF3869577956795B395D9F73EF490950C
:0E475C008095709561957F4F8F4F9F4F089508
:10476A008FB78F778FBF6091676170916861809111
:10477A00696190916A610E949A2020E030E040E8E5
:10478A0051E40E940D279B01AC0160E07BE187EBBD
:10479A009EE40E9409270E948623E0E2F8E06087EF
:1047AA00718783E2878381E08093410480E885836F
:0C47BA0080EC86838FB78F678FBF089557
:1047C6008FB78F778FBF60916361709164618091BD
:1047D6006561909166610E949A2020E030E040E891
:1047E60051E40E940D279B01AC0160E07BE187EB61
:1047F6009EE40E9409270E948623E0E4F8E0608791
:10480600718783E2878381E08093A10480E88583B2
:0C48160080EC86838FB78F678FBF0895FA
:10482200EF92FF920F931F93CF93DF938C017B0143
:10483200E0918961F0918A610580F681E02DC6815F
:10484200D781CE0103960E9490248B8982FF06C0F5
:10485200A701B801CE010E94B72402C08E7F8B8BC4
:10486200E989FA89CE010995DF91CF911F910F91C4
:06487200FF90EF90089595
:10487800CF92DF92EF929B01482FA82FCB0104968D
:10488800A11DFC015A2F0E94B426DB016901E42E08
:1048980082E0C80ED11CE11CF6015E2D0E94B426F0
:1048A800CD01860F971FF901542F0E94B426861B4D
:1048B800970B8A179B0710F08A1B9B0BEF90DF90D2
:0448C800CF900895F0
:1048CC00CF92DF92EF920F931F930E942723809138
:1048DC00856190918661892BB1F00F2EF3E8CF2E74
:1048EC00F1E6DF2EF02D0F2EF3E0EF2EF02D00E091
:1048FC0010E020EF30E045E451E060E084EA9BE01A
:10490C000E947F0301C080E01F910F91EF90DF9018
:04491C00CF9008959B
:10492000CF93DF93FC01A085B185C281D3818481BF
:1049300095818C839D83C481D581828193818A8373
:104940009B8311968D919C911297E817F90731F48A
:104950008481958111968D939C9312971086118670
:0E4960008C9181508C938C91DF91CF910895B2
:10496E00EF92FF920F931F93CF93DF93EC018B0186
:10497E007A0108C08D859E85080F191FE989FA896D
:10498E00CE0109956D857E85600F711F9801A70177
:10499E00CE010E9457238111EDCFDF91CF911F9150
:0849AE000F91FF90EF900895B6
:1049B60057FD9058440F551F59F05F3F71F04795CA
:1049C600880F97FB991F61F09F3F79F087950895AF
:1049D600121613061406551FF2CF4695F1DF08C0CE
:1049E600161617061806991FF1CF869571056105EB
:0449F6000894089584
:1049FA00CF93DF939C01FB01DC011196CD91DC91F1
:104A0A001297C283D3838C819D81848395838C8101
:104A1A009D81DC0112966D937C9313976C837D8341
:104A2A0020873187F90180818F5F8083DF91CF9161
:024A3A000895DD
:104A3C000F93CF93DF93482F60E081E00E94D61F45
:104A4C00EC01009769F01C821D82188219821E826B
:104A5C0000E020E030E040E050E060E00E94940F85
:0A4A6C00CE01DF91CF910F91089564
:104A7600CF93DF93EC010FB6F8940F928D8D8F3F95
:104A860009F41D8E8E8D8F3F09F41E8E0F900FBE7A
:104A96008A8D811104C0CE0141960E94D81CCE0198
:0A4AA6000E94971BDF91CF91089545
:104AB000E0917D61F0917E618081811107C08FEF6F
:104AC0009FEF80937561909376610895E0917D6189
:104AD000F0917E610580F681E02D80819181809347
:084AE000756190937661089561
:104AE800FC01248D2223B1F030E046815781420F2A
:104AF800531F46835783848195814817590720F0AF
:104B08008081918186839783CB014681578160E8B4
:064B18000E94A92508958A
:104B1E00009721F480917F61909180610FB6F89497
:104B2E000F9270E0FC01E60FF71F23A5223031F43F
:104B3E00FC01E60FF71F13A681E001C080E00F9085
:044B4E000FBE0895F9
:104B5200CF92DF92EF926A01E62EDC01280F391F15
:104B6200A217B30751F0F6015E2D0E94E9266D935C
:104B72004FEFC41AD40AE40AF3CFEF90DF90CF903C
:024B8200089594
:104B8400E0917F61F091806184859585E0917F61FA
:104B9400F0918061A0917F61B091806156964C91B3
:0E4BA40024E030E0241B310924873587089572
:104BB200CF93DF93EC01892B51F00E94F02660E045
:104BC200CE010E94F9150E940B09811102C00E94B8
:084BD2008E1ADF91CF910895C6
:104BDA00AA1BBB1B51E107C0AA1FBB1FA617B70719
:104BEA0010F0A61BB70B881F991F5A95A9F7809535
:084BFA009095BC01CD01089566
:104C0200FC0160833197708331971082319720E8DD
:104C120020833197108231971082779740833197A2
:064C220050838497089501
:104C2800CF93DF938BE090E00E941321EC01009773
:104C380031F0FC0111921192CF010E947D26CE0124
:064C4800DF91CF910895F9
:104C4E00CF93DF93EB0160917F6170918061645F20
:104C5E007F4F0E94F62261E0CE010E94F915DF918E
:044C6E00CF91089545
:104C720080917F6190918061892B39F0E0917F6111
:104C8200F091806182A18F5F82A380917F61909178
:044C920080610895A0
:104C96000FB6F8940F92A82FCB014A96A11DFC01DE
:104CA6005A2F0E94E9260F900FBE81E0611180E025
:024CB60008955F
:104CB800092E0394000C11F4882352F0BB0F40F422
:104CC800BF2B11F460FF04C06F5F7F4F8F4F9F4F62
:024CD80008953D
:104CDA000FB6F8940F922091B361FC0120832091C2
:104CEA00796130917A61218332830F900FBE0895E2
:104CFA00FC010396818392832FEF3FEF2383348352
:0C4D0A008583968387839087108208952C
:104D16002091B361FC0120832091796130917A6101
:064D260021833283089591
:104D2C00EC010E941D270E941C27CE010E941E2709
:064D3C00CE010E941927C0
:104D42000FB6F8940F928091796190917A610F90E9
:044D52000FBE0895F3
:104D5600EE0FFF1F0024001C0BBE0790F691E02DFE
:024D66000994AE
:104D680057FD04C05BBF6791779108956191719178
:024D780008959C
:104D7A000F9301E00093060B0F910E94CF1918952B
:104D8A00CFEFD0E688818230E8F30E948E1AFACFFC
:0E4D9A005058BB27AA270E943B180C945C2699
:0E4DA80000240A941616170618060906089528
:0E4DB60000240A94121613061406050608952A
:0E4DC400E894BB2766277727CB0197F908955F
:0E4DD20057FD03C05BBF67910895608108958F
:0C4DE0008091B1618F5F8093B1610895F4
:0C4DEC0097F99F6780E870E060E0089590
:0A4DF80080917F6190918061089521
:084E0200FC01108611860895E1
:084E0A0081E08093B46108957A
:084E12000E9462170C945C265B
:084E1A000E94D1170C945C26E4
:064E22008091B7610895C4
:064E28009FEF80EC0895ED
:044E2E000C940000E0
:044E32000E948E004C
:024E36000895DD
:024E38000895DB
:024E3A000895D9
:024E3C000895D7
:044E3E0000C20100AD
:044E420000C20100A9
:044E460000C20100A5
:00000001FF
