:100000000C946A000C94102D0C94102D0C94102D4F
:100010000C94102D0C94102D0C94102D0C94102D6C
:100020000C94102D0C94102D0C94102D0C94102D5C
:100030000C94CD2C0C94102D0C94102D0C94102D90
:100040000C94102D0C94102D0C94102D0C94D02584
:100050000C9444250C94E2280C94102D0C94102D33
:100060000C948A250C94102D0C94102D0C94102DAA
:100070000C94102D0C94102D0C94102D0C94102D0C
:100080000C94102D0C94102D0C94102D0C94102DFC
:100090000C94102D0C94102D0C94102D0C94102DEC
:1000A0000C94102D9A149A14C914CE14E4149A14B2
:1000B0009A14C914CE1440006C6D806C6D6C6E0087
:1000C0005A306C6E6C70806C706C71005A316C714F
:1000D0006C75800011241FBECFEFCDBFDFE7DEBF00
:1000E000E6EBF0E040E019C0B791A7913791279176
:1000F000079107FD0EC097918791EF01F92FE82F27
:100100000BBF07900D92A217B307D9F7FE011BBED4
:1001100004C01D92A217B307E1F7E33DF40721F7EE
:0C0120000E94FE210C94A62CF894FFCF46
:10012C00434F4D4D4F555400434F4D4D494E004F8D
:09013C00464653004A4F494E00AB
:10014500494E444F5554005354415400494E44546C
:0101550000A9
:0D015600546D725100546D72205376630099
:09016300494E49540057534C0069
:06016C0049444C4500046B
:10017200CF93DF93CDB7DEB7C851D140CDBFDEBF3D
:100182000FEF1FEF20E040E061E070E080914D6CE6
:1001920090914E6C0E94931C81E0CB5EDE4F88836F
:1001A200C551D1400F2EFFE43F2EF02D0F2EFFE45C
:1001B2004F2EF02D93E4CC5EDE4F9883C451D14094
:1001C200512C212C612CDE015F96C15FDE4FA8838A
:1001D200B983CF50D1407E01B7EEEB0EF11CC701BF
:1001E200A0E8CA5EDE4F88839983AA83C651D140B4
:1001F200570198E2A90EB11C0F2EF5E47F2EF02DC7
:10020200C15FDE4FA881B981CF50D140CD01A0E8B6
:10021200CF5EDE4F88839983AA83C151D14068ECB7
:1002220070E080914F6C9091506C0E94571340E0A7
:1002320050E0BE01615E7F4F80915B6C90915C6C7F
:100242000E94301A813009F04AC08F8D8335D9F16E
:10025200843509F046C088A18A3409F044C08FEF82
:10026200F701808300E010E021E030E0CA5EDE4F5B
:10027200488159816A81C651D1408091476C9091E1
:10028200486C0E94271821E030E0CA5EDE4F4881A8
:1002920059816A81C651D1408091476C9091486CD6
:1002A2000E94271821E030E0CA5EDE4F4881598162
:1002B2006A81C651D1408091476C9091486C0E94EE
:1002C2002718912C1AC088A18C3479F4CB5EDE4FAA
:1002D200F881C551D140F1110AC0932C0EC0912C66
:1002E2000CC0912C0AC0912C08C0912C06C0912CF4
:1002F200CB5EDE4F1882C551D14020E030E048ECA1
:1003020050E0BE01615E7F4F8091456C9091466CDA
:100312000E94061C882309F4E6C24F8D842F90E0C8
:100322009C01220F331FF901E80FF91FEE0FFF1F87
:10033200EE0FFF1FE050F04A8285813308F4D3C2EA
:10034200833318F0833521F0CEC2611004C016C089
:10035200511011C223C280E020E0E1E0F0E0EC0F96
:10036200FD1FE80FF11D9081491303C0282E862D31
:1003720021E08F5F861588F3213049F0E1E0F0E05B
:10038200EC0FFD1FE60DF11D4083262C639488A11E
:10039200873409F45AC030F4823459F0833409F4B2
:1003A2001EC1A1C2823509F4FEC0893509F492C08A
:1003B2009AC2CC5EDE4F8881C451D140823449F169
:1003C200833409F090C2E1E0F0E0EC0FFD1FE20D92
:1003D200F11D808188A382E68F8F0FEF1FEF22E04D
:1003E20030E0CF5EDE4F488159816A81C151D140F0
:1003F2008091476C9091486C0E94271892E43912C0
:100402008CC2432CA2E4CC5EDE4FA883C451D140FF
:10041200DFC382E68F8FE1E0F0E0EC0FFD1FE20D1B
:10042200F11D808188A30FEF1FEF22E030E0CF5E45
:10043200DE4F488159816A81C151D1408091476C18
:100442009091486C0E9427184EC2CC5EDE4FB88154
:10045200C451D140B33431F0B73401F1B23409F0B0
:1004620042C21CC0E1E0F0E0EC0FFD1FE20DF11D05
:10047200808188A387E68F8F0FEF1FEF22E030E0A5
:10048200CF5EDE4F488159816A81C151D14080914E
:10049200476C9091486C0E94271806C4E1E0F0E096
:1004A200EC0FFD1FE20DF11D808188A387E68F8F7F
:1004B2000FEF1FEF22E030E0CF5EDE4F488159811F
:1004C2006A81C151D1408091476C9091486C0E94E1
:1004D2002718EAC3CC5EDE4FE881C451D140E33431
:1004E20071F018F4E23439F1FEC1CC5EDE4FF881CE
:1004F200C451D140F734D9F1F935C9F1F4C1E1E081
:10050200F0E0EC0FFD1FE20DF11D808188A389E769
:100512008F8F0FEF1FEF22E030E0CF5EDE4F48817A
:1005220059816A81C151D1408091476C9091486C48
:100532000E942718C4C3E1E0F0E0EC0FFD1FE20DBA
:10054200F11D808188A389E78F8F0FEF1FEF22E0D3
:1005520030E0CF5EDE4F488159816A81C151D1407E
:100562008091476C9091486C0E942718A8C3E1E0E3
:10057200F0E0EC0FFD1FE20DF11D808188A389E7F9
:100582008F8F0FEF1FEF22E030E0CF5EDE4F48810A
:1005920059816A81C151D1408091476C9091486CD8
:1005A2000E9427188CC3E1E0F0E0EC0FFD1FE20D82
:1005B200F11D808188A382E78F8F0FEF1FEF22E06A
:1005C20030E0CF5EDE4F488159816A81C151D1400E
:1005D2008091476C9091486C0E9427185AC389A158
:1005E200873409F49CC0893509F44BC0823409F080
:1005F2007AC1CC5EDE4F8881C451D1408234F9F099
:10060200833409F070C183E68F8FE1E0F0E0EC0FF4
:10061200FD1FE20DF11D808188A30FEF1FEF22E085
:1006220030E0CF5EDE4F488159816A81C151D140AD
:100632008091476C9091486C0E94271854C183E6C0
:100642008F8FE1E0F0E0EC0FFD1FE20DF11D8081E4
:1006520088A30FEF1FEF22E030E0CF5EDE4F48812C
:1006620059816A81C151D1408091476C9091486C07
:100672000E94271893E4CC5EDE4F9883C451D14088
:1006820032C1CC5EDE4FA881C451D140A73409F1FA
:10069200A93519F1A33409F026C183E68F8FE1E071
:1006A200F0E0EC0FFD1FE20DF11D808188A30FEF3A
:1006B2001FEF22E030E0CF5EDE4F488159816A8130
:1006C200C151D1408091476C9091486C0E9427188B
:1006D2000AC10F2EF9E54F2EF02D83E68F8FE1E050
:1006E200F0E0EC0FFD1FE20DF11D808188A30FEFFA
:1006F2001FEF22E030E0CF5EDE4F488159816A81F0
:10070200C151D1408091476C9091486C0E9427184A
:10071200B3E4CC5EDE4FB883C451D140E4C0CC5EBA
:10072200DE4FE881C451D140E33419F0E73409F0D7
:10073200DAC083E68F8FE1E0F0E0EC0FFD1FE20DFF
:10074200F11D808188A30FEF1FEF22E030E0CF5E22
:10075200DE4F488159816A81C151D1408091476CF5
:100762009091486C0E942718F3E4CC5EDE4FF88328
:10077200C451D140B8C080E020E0E5E1F0E0EC0FE8
:10078200FD1FE80FF11D9081491303C0282E852D0E
:1007920021E08F5F851588F3213059F0E5E1F0E023
:1007A200EC0FFD1FE50DF11D4083DD24D394D50C24
:1007B20002C0D52C522C88A18F3409F446C020F4F3
:1007C200833409F46AC08DC0823519F08935F9F095
:1007D20088C082E78F8FE5E1F0E0EC0FFD1FE50DA9
:1007E200F11D808188A30FEF1FEF22E030E0CF5E82
:1007F200DE4F488159816A81C151D1408091476C55
:100802009091486C0E942718252C5D2C42C289E7E2
:100812008F8FE5E1F0E0EC0FFD1FE50DF11D80810A
:1008220088A30FEF1FEF22E030E0CF5EDE4F48815A
:1008320059816A81C151D1408091476C9091486C35
:100842000E942718252C5D2C3AC28FE68F8FE5E196
:10085200F0E0EC0FFD1FE50DF11D808188A30FEF85
:100862001FEF22E030E0CF5EDE4F488159816A817E
:10087200C151D1408091476C9091486C0E942718D9
:100882008FE4381274C1432C252C5D2C93E4CC5E8A
:10089200DE4F9883C451D1409BC183E68F8FE5E13F
:1008A200F0E0EC0FFD1FE50DF11D808188A30FEF35
:1008B2001FEF22E030E0CF5EDE4F488159816A812E
:1008C200C151D1408091476C9091486C0E94271889
:1008D200252C5D2CA3E4CC5EDE4FA883C451D1400D
:1008E20002C0252C5D2C431409F4F4C1BFE44B165D
:1008F20009F445C1B41540F0E2E44E16A1F0F7E464
:100902004F1609F486C05EC182E5481609F4F9C0A3
:1009120099E5491609F4B9C055C1A2E4CC5EDE4F8F
:10092200A883C451D14080916F6C8430B1F58FEFB0
:100932008F8F8FE488A300E02FEF3FEFCF5EDE4F73
:10094200488159816A81C151D14080915D6C9091F9
:100952005E6C0E946C1782E48F8F84E488A32FEF71
:100962003FEFCF5EDE4F488159816A81C151D1404C
:1009720080915D6C90915E6C0E946C170F2EF2E478
:100982004F2EF02DB1E0CB5EDE4FB883C551D14082
:100992000F2EF2E43F2EF02D1BC18FEF8F8F8FE4CD
:1009A20088A300E02FEF3FEFCF5EDE4F48815981F1
:1009B2006A81C151D14080915D6C90915E6C0E94C0
:1009C2006C1787E48F8F83E588A32FEF3FEFCF5E0D
:1009D200DE4F488159816A81C151D14080915D6C5D
:1009E20090915E6C0E946C170F2EF2E44F2EF02D48
:1009F200E1E0CB5EDE4FE883C551D1400F2EF2E439
:100A02003F2EF02DE5C0F7E4CC5EDE4FF883C451F3
:100A1200D1408FEF8F8F8FE488A300E02FEF3FEF5D
:100A2200CF5EDE4F488159816A81C151D1408091A8
:100A32005D6C90915E6C0E946C1787E48F8F83E5EA
:100A420088A32FEF3FEFCF5EDE4F488159816A8145
:100A5200C151D14080915D6C90915E6C0E946C1787
:100A62000F2EF7E44F2EF02D81E0CB5EDE4F888310
:100A7200C551D1400F2EF7E43F2EF02DA9C099E5C4
:100A8200CC5EDE4F9883C451D1408FEF8F8F8FE4BD
:100A920088A300E02FEF3FEFCF5EDE4F4881598100
:100AA2006A81C151D14080915D6C90915E6C0E94CF
:100AB2006C1789E58F8F83E588A32FEF3FEFCF5E19
:100AC200DE4F488159816A81C151D14080915D6C6C
:100AD20090915E6C0E946C170F2EF9E54F2EF02D4F
:100AE200A1E0CB5EDE4FA883C551D1400F2EF9E5C0
:100AF2003F2EF02D6DC0B2E5CC5EDE4FB883C451FF
:100B0200D1408FEF8F8F8FE488A300E02FEF3FEF6C
:100B1200CF5EDE4F488159816A81C151D1408091B7
:100B22005D6C90915E6C0E946C1782E58F8F83E5FD
:100B320088A32FEF3FEFCF5EDE4F488159816A8154
:100B4200C151D14080915D6C90915E6C0E946C1796
:100B52000F2EF2E54F2EF02DE1E0CB5EDE4FE88363
:100B6200C551D1400F2EF2E53F2EF02D31C0252C7C
:100B72005D2CF3E4CC5EDE4FF883C451D1408FEF9D
:100B82008F8F8FE488A300E02FEF3FEFCF5EDE4F21
:100B9200488159816A81C151D14080915D6C9091A7
:100BA2005E6C0E946C170F2EFFE44F2EF02D81E039
:100BB200CB5EDE4F8883C551D1400F2EFFE43F2E1E
:100BC200F02D06C091E0CB5EDE4F9883C551D14037
:100BD200992009F424CB01C0342CF7011192AE16EE
:100BE200BF06E1F7662009F41ACBDE0111966D010A
:100BF200812C4DC09F012E193F09419141112AC0FC
:100C02007F8E98A2F601808189A3F701E20FF31F7C
:100C120090E09C01220F331FD901A80FB91FAA0F20
:100C2200BB1FAA0FBB1FA050B04A1B968C9180839A
:100C320005E010E023E030E0CF5EDE4F48815981CD
:100C42006A81C151D1408091476C9091486C0E9459
:100C5200271816C0D6018C9190E0DC01AA0FBB1FA9
:100C6200A80FB91FAA0FBB1FAA0FBB1FA050B04AE3
:100C72001B968C91481721F0AE16BF0609F0BACF29
:100C82008394BFEFCB1ADB0A861409F4C8CAF701B2
:100C9200B1CFE2E53E122FCF432CF2E5CC5EDE4F20
:100CA200F883C451D14094CF87E43812ACCE432CA0
:100CB20097E4CC5EDE4F9883C451D14089CFA9E539
:100CC2003A12DDCE432CB9E5CC5EDE4FB883C45177
:0C0CD200D1407ECF911080CF342CA1CAFD
:100CDE00CF93DF93CDB7DEB7CD5CD109CDBFDEBFED
:100CEE000FEF1FEF20E040E061E070E080914D6C6F
:100CFE0090914E6C0E94931C0E94B12C20E030E02B
:100D0E00AC0161E08091436C9091446C0E944A2347
:100D1E00FE01E653FF4F84E580838AE48183AF01B1
:100D2E0060E800E02FE030E080915B6C90915C6CAD
:100D3E000E946C1720E030E040E050E060E08091CF
:100D4E004F6C9091506C0E946C17B12CCE01019695
:100D5E004C011C0190E8492E682C732CA92E6E01B3
:100D6E00E5E0CE0ED11C2FEF3FEF41E050E0BE018B
:100D7E0067537F4F80914B6C90914C6C0E94061C78
:100D8E00C753DF4F8881C95CD0408E3709F04DC004
:100D9E002AE030E041E050E0BE0167537F4F809182
:100DAE004B6C90914C6C0E94061C8823E1F1C7534A
:100DBE00DF4FB880C95CD040BB2009F46AC210E096
:100DCE002AE030E041E050E0BE0167537F4F809152
:100DDE004B6C90914C6C0E94061C882369F0F401B8
:100DEE00E10FF11DC753DF4F8881C95CD04080836E
:100DFE001F5FB112E5CF4DC2198200E020E030E056
:100E0E0040E050E060E08091556C9091566C0E94ED
:100E1E006C1789818F3409F4BDC0803541F0893457
:100E2E0009F043C116C0198234C2198232C29A81A6
:100E3E008091726C981397CF00E020E030E040E094
:100E4E0050E060E08091536C9091546C0E946C174E
:100E5E008ACF8B819091716C891719F081508E3FDA
:100E6E0030F080916E6C811173C0E12C8DC19F3F6B
:100E7E0009F079CFF6CF9C017E91C453DF4FE88104
:100E8E00F981CC5CD0406291C453DF4FE883F98383
:100E9E00CC5CD040761353C0FA01E080AC15BD0592
:100EAE0051F715C2F901EE0FFF1FE20FF31FEE0F00
:100EBE00FF1FEE0FFF1FE050F04A9C8182859813B2
:100ECE0040C019834B2D50E04C5051091416150695
:100EDE00BCF480E090E020E0EDE0F0E0EC0FFD1FD0
:100EEE00E80FF91F3081E2E0F0E0EC0FFD1FE80F94
:100EFE00F91F30832F5F822F90E08417950764F3DC
:100F0E00F4EFBF0E2B2D30E002E310E0462D572DEF
:100F1E006A2D8091456C9091466C0E94271800E0D6
:100F2E0020E030E040E050E060E080914F6C909126
:100F3E00506C0E946C1710916E6C81E003C08F2D67
:100F4E0001C08F2D1F5F90916E6C191738F0AFC0D6
:100F5E0010E0E12C0F2EF9E4FF2EF02DDE011D9690
:100F6E00812F90E0FC01EE0FFF1FE80FF91FEE0F2F
:100F7E00FF1FEE0FFF1FCF01885F9F49C453DF4F46
:100F8E0088839983CC5CD040812F90E0AF01455F80
:100F9E005F4971CF8B819091716C891719F08150D7
:100FAE008E3F28F080916E6C811105C086C09F3FE8
:100FBE0009F0D9CEF7CF20E00F2EFFE4FF2EF02D53
:100FCE00822F90E0FC01EE0FFF1FE80FF91FEE0FCE
:100FDE00FF1FEE0FFF1FE050F04A4A81308543138A
:100FEE006FC1FC01EE0FFF1FE80FF91FEE0FFF1F81
:100FFE00EE0FFF1FE050F04A9C81828598134AC085
:10100E00822F90E0FC01EE0FFF1FE80FF91FEE0F8D
:10101E00FF1FEE0FFF1FE85FFF4998E082918111DD
:10102E003BC09150D9F765C180E090E020E0EDE043
:10103E00F0E0EC0FFD1FE80FF91F3081E2E0F0E069
:10104E00EC0FFD1FE80FF91F30832F5F822F90E00A
:10105E008417950764F395EFB90E2B2D30E002E35C
:10106E0010E0462D572D6A2D8091456C9091466C5F
:10107E000E94271800E020E030E040E050E060E001
:10108E0080914F6C9091506C0E946C1720916E6CF9
:10109E0081E003C081E001C08F2D2F5F90916E6CB7
:1010AE00291708F48DCFE12C02C0E12C80E08934A1
:1010BE0009F46AC08F3409F056CE60916E6C262FFB
:1010CE0030E0A901440F551FCA01820F931F880FEC
:1010DE00991F880F991FFC01E050F04A8B81818780
:1010EE008C8182878A81808710821182128213827C
:1010FE001482158216821782FA01E20FF31FEE0F89
:10110E00FF1FEE0FFF1FE050F04A81E08387860F2E
:10111E0080936E6C69834B2D50E04C505109141620
:10112E001506BCF480E090E020E0EDE0F0E0EC0F7E
:10113E00FD1FE80FF91F3081E2E0F0E0EC0FFD1F1C
:10114E00E80FF91F30832F5F822F90E084179507E9
:10115E0064F3E4EFBE0E2B2D30E002E310E0642DBD
:10116E00A1018091456C9091466C0E94271800E079
:10117E0020E030E040E050E060E080914F6C9091D4
:10118E00506C0E946C17EBCD20916E6C30E0C90153
:10119E00880F991F820F931F880F991F880F991F11
:1011AE00FC01E050F04A8B8181878C8182878A8195
:1011BE0080878D8180838E8181838F8182838885D4
:1011CE008383898584838A8585838B8586838C85B5
:1011DE008783E11012C080916D6C8F5FF901EE0F65
:1011EE00FF1FE20FF31FEE0FFF1FEE0FFF1FE0506A
:1011FE00F04A838780936D6C0CC0F901EE0FFF1FD0
:10120E00E20FF31FEE0FFF1FEE0FFF1FE050F04A2D
:10121E00E38680916E6C91E0980F90936E6C89834B
:10122E004B2D50E04C50510914161506BCF480E0BD
:10123E0090E020E0EDE0F0E0EC0FFD1FE80FF91F6D
:10124E003081E2E0F0E0EC0FFD1FE80FF91F308374
:10125E002F5F822F90E08417950764F3F4EFBF0E93
:10126E002B2D30E002E310E0642DA1018091456C3E
:10127E009091466C0E94271800E020E030E040E09C
:10128E0050E060E080914F6C9091506C0E946C1712
:10129E0066CD00E020E030E040E050E060E080917C
:1012AE00556C9091566C0E946C1789818F3409F49D
:1012BE0071CE803509F4BBCD893409F054CDC9CD3A
:1012CE002F5F80916E6C281708F47ACEF6CEFC0153
:1012DE00EE0FFF1FE80FF91FEE0FFF1FEE0FFF1FA0
:1012EE00E050F04A9A818085981709F4DBCD8F2D56
:1012FE0029CE29834B2D50E04C505109141615065A
:06130E000CF492CEA8CE03
:10131400CF93DF9300D000D0CDB7DEB78CE08093BD
:10132400410483E080936104512CC12C10E01C82A1
:101334001B82F12C6894882486F8992492F8689486
:10134400222422F80F2EF6E4DF2EF02D0F2EF2E4E5
:10135400EF2EF02D0F2EF0E6AF2EF4E0BF2EF02D81
:101364006894332431F8662463946894442443F8DD
:101374000AC0512C07C01E2D05C01E2D03C01D2DF3
:1013840001C014E4C62C49E150E0BE016F5F7F4FF9
:1013940080915D6C90915E6C0E94301A8130E1F412
:1013A4008981823599F028F4823469F0873431F0E8
:1013B40013C0893529F08F3F59F00EC0FA800CC054
:1013C4008A818B8309C0EA81EC8306C01A8104C038
:1013D400FA801F2DFC82FB828091746C8130F1F4C1
:1013E4005394F5E05F1609F45FC21092746C86E4BE
:1013F400F81609F455C08F1540F0E2E4FE1629F101
:10140400F4E4FF1609F47FC09DC08FE4F81609F4D4
:101414008FC0E3E5FE1609F45BC094C0F6E4FF1642
:1014240009F440C0FF1540F082E4F81681F0E4E4CA
:10143400FE1609F463C088C0FFE4FF1609F47AC0FD
:1014440083E5F81609F446C07FC0712C01C07C2CDA
:10145400C11081C051107FC001C0712CF4014782BA
:1014640000E020E030E040E050E060E080915F6C1C
:101474009091606C0E946C17FC81F63409F4A4C04E
:1014840038F4F23409F47EC0F43409F4B2C0E4C090
:101494008C818F3409F4D9C0833509F4C3C0DCC00E
:1014A400712C05C07C2C03C0512CC12C712C7110E3
:1014B40052C0F401478200E020E030E040E050E018
:1014C40060E080915F6C9091606C0E946C17B3C176
:1014D400712C05C07C2C03C0512CC12C712CF4013F
:1014E400458200E020E030E040E050E060E08091A0
:1014F4005F6C9091606C0E946C172DC0C11026C067
:1015040002C0512CC12CF401478200E020E030E0FD
:1015140040E050E060E080915F6C9091606C0E94CC
:101524006C1789E190E00E94D42BF401478283C1B7
:10153400712C05C07C2C03C0512CC12C712CF401DE
:10154400468209C0712C07C07C2C05C07C2C03C0CA
:10155400512CC12C712CFC81F634D1F130F4F234CD
:1015640069F0F43409F447C07BC08C818F3409F4EA
:1015740070C0833509F45AC073C0712CC11070C097
:1015840051106EC0F501678200E020E030E040E0D9
:1015940050E060E080915F6C9091606C0E946C17E9
:1015A400FB81F63409F493C038F4F23409F46FC0C3
:1015B400F43409F4A1C0D3C08B818F3409F4C8C0BA
:1015C400833509F4B2C0CBC0512CC12C01C0712C9D
:1015D400711046C0F501678200E020E030E040E091
:1015E40050E060E080915F6C9091606C0E946C1799
:1015F40036C1512CC12C711033C0F501678200E053
:1016040020E030E040E050E060E080915F6C909139
:10161400606C0E946C1789E190E00E94D42BF50164
:1016240067821DC1512CC12C01C0712CF50165824A
:1016340000E020E030E040E050E060E080915F6C4A
:101644009091606C0E946C170BC0512CC12C01C08E
:10165400712CF501668204C0512CC12C01C0712C7F
:10166400FB81F634C1F130F4F23469F0F43409F456
:1016740045C079C08B818F3409F46EC0833509F479
:1016840058C071C0712CC1106EC051106CC0F501EE
:10169400378200E020E030E040E050E060E08091FC
:1016A4005F6C9091606C0E946C17163409F47FC0D3
:1016B40038F4123409F46AC0143409F48DC059CED4
:1016C4001F3409F4B3C0133509F49FC052CE512C12
:1016D400C12C01C0712C711046C0F501378200E0A5
:1016E40020E030E040E050E060E080915F6C909159
:1016F400606C0E946C17C7C0512CC12C711033C090
:10170400F501378200E020E030E040E050E060E0A6
:1017140080915F6C9091606C0E946C1789E190E0FD
:101724000E94D42BF5013782AEC0512CC12C01C0CC
:10173400712CF501358200E020E030E040E050E01B
:1017440060E080915F6C9091606C0E946C170BC09C
:10175400512CC12C01C0712CF501368204C0512CCE
:10176400C12C01C0712C163429F128F4123451F023
:10177400143499F107CE1F3409F459C0133509F410
:1017840045C000CEC110F7CD5110F7CDF40127822A
:1017940000E020E030E040E050E060E080915F6CE9
:1017A4009091606C0E946C17512C1E2DEBCD512C26
:1017B40001C0712C7110E3CDF401278200E020E018
:1017C40030E040E050E060E080915F6C9091606CAC
:1017D4000E946C171D2DD6CD512C7110D2CDF40161
:1017E400278200E020E030E040E050E060E08091BB
:1017F4005F6C9091606C0E946C1789E190E00E948C
:10180400D42BF401278214E4BDCD512CF40125829C
:1018140000E020E030E040E050E060E080915F6C68
:101824009091606C0E946C1713E5ACCD512CF401BF
:1018340026821FE4A7CDFC81F63409F4C8CE38F41F
:10184400F23409F49ACEF43409F4D7CE08CF8C815B
:101854008F3409F4FDCE833509F4E7CE00CFEB8154
:10186400E63409F437CF38F4E23409F40BCFE43426
:1018740009F446CF77CFFB81FF3409F46CCFF335FD
:1018840009F456CF6FCF163409F493CF38F41234D9
:1018940009F478CF143409F4A2CF74CD1F3439F28B
:1018A400133509F4B3CF6ECD1092746C86E4F81638
:1018B40009F4FACD8F1548F0E2E4FE1609F4CDCD13
:1018C400F4E4FF1609F41DCE43CE8FE4F81609F4B0
:0C18D40033CEE3E5FE1609F4FFCD3ACE5A
:1018E000CF93DF93CDB7DEB7CE5ED109CDBFDEBFDC
:1018F0009EE7C952DF4F9883C75DD04082E0C8524F
:10190000DF4F8883C85DD04082E5C752DF4F8883B0
:10191000C95DD0408091726CC652DF4F8883CA5D2A
:10192000D040C552DF4F9883CB5DD0409CE0C4527D
:10193000DF4F9883CC5DD0409FE4C352DF4F988344
:10194000CD5DD040C252DF4F8883CE5DD0408091C4
:10195000716CC152DF4F8883CF5DD0408091706C35
:10196000C052DF4F8883C05ED040CF51DF4F188216
:10197000C15ED040CE51DF4F1882C25ED040CD5103
:10198000DF4F1882C35ED040CC51DF4F1882C45E57
:10199000D040CB51DF4F1882C55ED040CA51DF4FD7
:1019A0001882C65ED0408FEFC951DF4F8883C75E73
:1019B000D040C851DF4F8883C85ED0400FEF1FEF83
:1019C00020E040E061E070E080914D6C90914E6CC1
:1019D0000E94931C9E012F5F3F4F49016E0139EC1D
:1019E000C30ED11CCE0185529F4F960140E8C751CE
:1019F000DF4F288339834A83C95ED040940140E891
:101A0000C451DF4F288339834A83CC5ED0401C0108
:101A100030E8432E0F2EFEE76F2EF02DA82CB92CA8
:101A20000F2EFFE47F2EF02D20E030E048EC50E058
:101A30006A2D7B2D8091476C9091486C0E94061C0A
:101A400039813F3F81F4882309F488C000E010E029
:101A50002EE030E0642DA1018091496C90914A6C98
:101A60000E942718E1CF882309F478C0D6016C9230
:101A70002BE0280F11962C93119712967C921297B7
:101A80002091726C13962C9313972091716C14967D
:101A90002C9314972091706C15962C9399277C01A8
:101AA000B1E0EB1AF108F401EE0DFF1D808190E02A
:101AB000AC01440F551F9A01280F391F220F331F05
:101AC000220F331FF901E050F04A2081D60116960B
:101AD0002C931697218117962C931797228118968D
:101AE0002C931897238119962C93199724811A9671
:101AF0002C931A9725811B962C931B9726811C9655
:101B00002C931C97FA01E80FF91FEE0FFF1FEE0F41
:101B1000FF1FE050F04A87811D968C9300E010E093
:101B20002EE030E0C751DF4F488159816A81C95E9C
:101B3000D0408091496C90914A6C0E94271897017F
:101B4000C451DF4F488159816A81CC5ED040809179
:101B5000496C90914A6C0E94271866CF64EF71E03F
:101B60008091536C9091546C0E945713813009F00E
:101B700057CFAE0149525F4F60E800E010E024E02B
:101B800030E08091496C90914A6C0E9427186FEF69
:101B90007FEF8091556C9091566C0E94571384E5AD
:101BA0000E948F2CE0E0F8E08581806285836FEFF2
:101BB0007FEF8091516C9091526C0E94571381E09D
:101BC00080936C6C20E030E040E050E060E0809179
:0C1BD000556C9091566C0E946C171CCF55
:101BDC002F923F924F925F926F927F928F92AF9221
:101BEC00BF92CF92DF92EF920F931F93CF93DF931D
:101BFC001C013A01862E59012801C9010E94902727
:101C0C008C01892B09F416C18DE290E00E9490277B
:101C1C00EC01892B89F08DE2FE0111928A95E9F78E
:101C2C000F8B188FF1E0AF1AB1080A0D1B1D611450
:101C3C007104810429F42FC0C8010E94142DFAC02C
:101C4C00F301582D0E94EB2C698FF301582D0E9443
:101C5C00EB2C6623F9F09E01265E3F4FA82DC301A5
:101C6C000196A11D48E0640E711C811CFC015A2FC9
:101C7C000E94EB2CF90161939F01E82FF92F5A2F49
:101C8C000196A11D0E94EB2C662321F068167906A3
:101C9C008A0661F718A2F4E0FE1518F46894EE2495
:101CAC00E2F8EE8AE9A25E0142E0A40EB11CC50185
:101CBC000E94FD2CCE010C960E94FD2CC887D98762
:101CCC0085E090E08E1991098C879D87CA8BDB8B00
:101CDC00A201B101C8010E94FC2B88839983C11415
:101CEC00D10419F0F601C083D1830FB6F8940F928A
:101CFC0080916B6C8F5F80936B6C8091356C909145
:101D0C00366C892BA9F5C093356CD093366C8091C9
:101D1C006B6C8130E9F508EB1BE60F2EF5EECF2E40
:101D2C00FBE6DF2EF02DC8010E94672C075F1F4FCA
:101D3C000C151D05C1F78AE09CE60E94672C81E01A
:101D4C009CE60E94672C88EF9BE60E94672C8FEE26
:101D5C009BE60E94672C8AE09CE68093336C909300
:101D6C00346C81E09CE68093316C9093326C10C0A3
:101D7C008091696C81110CC0E091356CF091366CDE
:101D8C0096898E89891720F0C093356CD093366C68
:101D9C008091666C8F5F8093666C8E8990916A6C73
:101DAC00981710F480936A6C90E0FC01EE0FFF1F03
:101DBC00EE0FFF1FEE0FFF1F8E0F9F1FFC01E8544D
:101DCC00F4490180F281E02DEC83FD8384819581BF
:101DDC008E839F83A481B5811296AD92BC9213978A
:101DEC00A482B582EE89F0E0CF01880F991F880F8D
:101DFC00991F880F991FE80FF91FE854F449EA87D7
:101E0C00FB8780818F5F80830F900FBE8091696C00
:101E1C00882361F0E091356CF091366C96898E894F
:101E2C00981730F40E94F52081E005C081E003C0D2
:101E3C0081E001C08FEFDF91CF911F910F91EF9057
:101E4C00DF90CF90BF90AF908F907F906F905F900E
:081E5C004F903F902F90089574
:101E64008F929F92AF92BF92CF92DF92EF92FF92A6
:101E74000F93CF93DF93DC01E114F10479F0FC01BB
:101E840084E0689FE00DF11D112483A094A0A5A017
:101E9400B6A0F70180829182A282B38270E0FD0134
:101EA400E60FF71F83A592E093A70230F9F018F428
:101EB400013031F049C0033069F10430B9F144C054
:101EC400660F771F660F771FFD01E60FF71F83A0CC
:101ED40094A0A5A0B6A0BA01A901482959296A2944
:101EE4007B2943A354A365A376A32EC0660F771F53
:101EF400660F771FFD01E60FF71F43A154A165A1EB
:101F040076A14F5F5F4F6F4F7F4F43A354A365A3E9
:101F140076A31AC0660F771F660F771FFD01E60FC1
:101F2400F71F23A334A345A356A30EC0823009F49C
:101F3400B2C0660F771F660F771FFD01E60FF71F0C
:101F440023A334A345A356A3813009F0A6C08091EE
:101F5400656C81116DC01A96ED91FC911B971496D6
:101F6400CD91DC91159716968D919C9117978C8342
:101F74009D831696CD91DC91179714968D919C9123
:101F840015978A839B839D012E5F3F4F81819281A8
:101F94008217930731F416968D919C91179781833C
:101FA40092831A961D921C921B9780818150808384
:101FB40056968C91569790916A6C981710F480936A
:101FC4006A6C90E0FC01EE0FFF1FEE0FFF1FEE0F97
:101FD400FF1F8E0F9F1FFC01E854F4490180F2811A
:101FE400E02D1496ED93FC931597848195811696B4
:101FF4008D939C931797C481D5812A833B83248333
:1020040035835696EC915697F0E0CF01880F991FCF
:10201400880F991F880F991FE80FF91FE854F44996
:102024001A96ED93FC931B9780818F5F808320C069
:1020340048EF5BE6FA01C181D2811E96CD93DC9311
:102044001F978C819D8150968D939C9351972C81E1
:102054003D81CD010C96F901828393838C839D830A
:1020640054964D935C935597FA0180818F5F8083DA
:10207400E091356CF091366C56969C91868989175F
:1020840070F4C114D10419F081E0F601808381E079
:102094008093686C05C080E003C081E001C081E0EA
:1020A400DF91CF910F91FF90EF90DF90CF90BF9091
:0820B400AF909F908F900895FA
:1020BC000F931F93CF93DF938091656C811102C1B5
:1020CC00C0912F6CD091306C8E010F5F1F4F00931D
:1020DC002F6C1093306C01151105B9F48091336C91
:1020EC009091346C2091316C3091326C2093336C24
:1020FC003093346C8093316C9093326C8091676C1C
:10210C008F5F8093676C0E94282B80912B6C909131
:10211C002C6C0817190710F480E0B8C080E0E0912F
:10212C00336CF091346C9081911107C02FEF3FEF1D
:10213C0020932B6C30932C6CA9C0E091336CF091F4
:10214C00346C0580F681E02D0680F781E02D22812C
:10215C0033810217130728F420932B6C30932C6CCB
:10216C0095C0A285B3852481358146815781E901CB
:10217C004C835D832681378144815581E9014A83F3
:10218C005B83AF014E5F5F4F11962D913C9112977F
:10219C002417350731F42681378111962D933C9302
:1021AC001297128613869C9191509C93A489B589A1
:1021BC00109719F12685378560897189E9016C833F
:1021CC007D832089318966857785E9016A837B83E4
:1021DC0011966D917C9112979F01245F3F4F62176E
:1021EC00730731F42089318911962D933C93129702
:1021FC00148A158A9C9191509C93268990916A6CB3
:10220C00921710F420936A6C30E0D901AA0FBB1F0F
:10221C00AA0FBB1FAA0FBB1F2A0F3B1FD901A85423
:10222C00B44911960D90BC91A02DA483B58314963E
:10223C002D913C9115972683378314962D913C91C3
:10224C001597E9014A835B8314964D935C9315971C
:10225C00A689B0E09D01220F331F220F331F220FDE
:10226C00331FA20FB31FA854B449A287B3879C9104
:10227C009F5F9C93A091356CB091366C26895696D5
:10228C009C91921708F04BCF81E049CFE091356CCF
:10229C00F091366C268930E0F901EE0FFF1FEE0F3E
:1022AC00FF1FEE0FFF1F2E0F3F1FF901E854F449DB
:1022BC009081923008F081E09091686C992361F0E4
:1022CC0081E00AC080912D6C90912E6C01968093C8
:1022DC002D6C90932E6C80E0DF91CF911F910F911C
:0222EC00089553
:1022EE008F929F92AF92BF92EF92FF920F93CF93E6
:1022FE00DF93DC010FB6F8940F92E114F10479F03C
:10230E00FC0184E0689FE00DF11D112483A094A0D0
:10231E00A5A0B6A0F70180829182A282B38270E05E
:10232E00FD01E60FF71F83A592E093A70230F9F0A7
:10233E0018F4013031F049C0033069F10430B9F1BD
:10234E0044C0660F771F660F771FFD01E60FF71F5C
:10235E0083A094A0A5A0B6A0BA01A9014829592925
:10236E006A297B2943A354A365A376A32EC0660FC7
:10237E00771F660F771FFD01E60FF71F43A154A1CC
:10238E0065A176A14F5F5F4F6F4F7F4F43A354A35D
:10239E0065A376A31AC0660F771F660F771FFD0120
:1023AE00E60FF71F23A334A345A356A30EC0823016
:1023BE0009F487C0660F771F660F771FFD01E60FC2
:1023CE00F71F23A334A345A356A3813009F07BC086
:1023DE001A96ED91FC911B971496CD91DC91159761
:1023EE0016968D919C9117978C839D831696CD9101
:1023FE00DC91179714968D919C9115978A839B83E8
:10240E009D012E5F3F4F818192818217930731F498
:10241E0016968D919C911797818392831A961D9291
:10242E001C921B9780818150808356968C91569773
:10243E0090916A6C981710F480936A6C90E0FC018E
:10244E00EE0FFF1FEE0FFF1FEE0FFF1F8E0F9F1FD2
:10245E00FC01E854F4490180F281E02D1496ED93CD
:10246E00FC9315978481958116968D939C9317975F
:10247E00C481D5812A833B83248335835696EC9180
:10248E005697F0E0CF01880F991F880F991F880F7C
:10249E00991FE80FF91FE854F4491A96ED93FC932F
:1024AE001B9780818F5F8083E091356CF091366C45
:1024BE0056969C918689891740F40E94F52081E0FA
:1024CE0005C080E003C081E001C081E00F900FBE27
:1024DE00DF91CF910F91FF90EF90BF90AF909F90B3
:0424EE008F9008952E
:1024F2001F93CF93DF930FB6F8940F928091656C80
:1025020081508093656C8091656C8111C6C0809109
:102512006B6C81119BC0C4C0DB011596ED91FC91DF
:1025220016970680F781E02DA489B589868597855F
:1025320020893189EC012C833D838089918926850C
:102542003785EC012A833B83CF010C9611962D919E
:102552003C9112972817390731F480899189119695
:102562008D939C931297148A158A8C9181508C9327
:10257200A285B3858481958126813781EC012C83E4
:102582003D838681978124813581EC012A833B83B7
:102592009F012E5F3F4F11968D919C91129782174A
:1025A200930731F48681978111968D939C931297AC
:1025B200128613868C9181508C93868990916A6CD5
:1025C200981710F480936A6C90E0DC01AA0FBB1F8D
:1025D200AA0FBB1FAA0FBB1F8A0F9B1FDC01A854A7
:1025E200B44911960D90BC91A02DA483B583149685
:1025F2008D919C9115978683978314968D919C91CA
:102602001597EC012A833B8314962D933C931597DF
:10261200A689B0E0CD01880F991F880F991F880FF6
:10262200991FA80FB91FA854B449A287B3878C91E8
:102632008F5F8C93A091356CB091366C96895696CB
:102642008C91981740F04093686C05C0E0E0F0E090
:1026520068EF7BE641E0DB018C9181115DCFEF2BCE
:1026620011F00E94282BC0912D6CD0912E6C2097D6
:1026720061F011E00E945E1081111093686C219745
:10268200C9F710922D6C10922E6C8091686C882381
:1026920031F00E94F52081E003C080E001C080E0BB
:0C26A2000F900FBEDF91CF911F910895A3
:1026AE002F923F924F926F927F928F92CF92DF92A4
:1026BE00EF92FF920F931F93CF93DF93CDB7DEB7B9
:1026CE002597CDBFDEBF8C016C837D83C12CD12CB1
:1026DE003C0180E8882E7801E1E1EE0EF11C0FB688
:1026EE00F8940F92F801828D8823E1F08150828F49
:1026FE0080819181892B29F40E94342CF8018483E6
:10270E009583F8018085882349F0085F1F4FB80133
:10271E0080E80E94E61581110E94F5200F900FBEF1
:10272E0081E089C08C819D81892B21F40F900FBE91
:10273E0080E081C0D11006C0CE0101960E949B2C74
:10274E00DD24D3940F900FBE0E94F22C0FB6F89496
:10275E000F92F801858D8F3F09F4158EF801868D45
:10276E008F3F09F4168E0F900FBEBE016C5F7F4F28
:10277E00CE0101960E94042881112AC0882DB30132
:10278E000E94462C8823F1F0F80180819181892BDB
:10279E0051F40FB6F8940F92848195810E94721BAA
:1027AE00C82E0F900FBE6C817D81C7010E94222C16
:1027BE00C8010E9454220E947912811190CF0E946A
:1027CE00F5208DCFC8010E9454220E94791287CF26
:1027DE00C8010E9454220E947912882DB3010E94D2
:1027EE00462C882309F47BCFCC2021F10FB6F89428
:1027FE000F92A82DC3014196A11DFC015A2F0E94D4
:10280E00EB2C662369F0A82DC3014696A11DFC0191
:10281E005A2F0E94C42CFB01808165E0681B01C009
:10282E0060E0F801848195810E94961E0F900FBE84
:10283E0080E001C080E02596CDBFDEBFDF91CF9155
:10284E001F910F91FF90EF90DF90CF908F907F9020
:0A285E006F904F903F902F90089567
:10286800CF93DF93CDB7DEB72697CDBFDEBFCE01BE
:1028780001965C01082F1B2DE0913F6CF091406C94
:102888008081882309F4B3C00580F681E02DE080BB
:10289800F1800E94F22CC5010E9455266C018981A5
:1028A80081111BC0CE14DF0438F00E947912B601E2
:1028B800C7010E94DB298EC040E0B7016C197D0971
:1028C80080913B6C90913C6C0E940B2B0E9479127A
:1028D800811180C00E94F5207DC00E9479127AC0C3
:1028E800898188230CF476C0EC80FD80D7011B9683
:1028F8008D919C911C97892B21F0C70103960E940A
:10290800822ACE0106960E9455266C01E9818E2FF7
:10291800EE0F990BAA0BBB0BFC013197E930F105BF
:1029280008F058C0EE5AFF4F0C94BB2CF70183896E
:102938008160838B2A813B8165857685620F731F51
:10294800A601C7010E94AC29882309F443C0D70116
:1029580053968C91539782FF0DC06A817B811D9697
:102968008D919C911E97680F791FA601C7010E943F
:10297800A92A03C08E7FF701838BD7015196ED9169
:10298800FC915297C701099525C0F70183898E7F6D
:10299800838B20C0D70153968C91539781605396AF
:1029A8008C9353976A817B811D966D937C931E97B8
:1029B8006C0D7D1D9601A601C7010E94AC290AC0B5
:1029C800F701838981FD04C0C7010E94142D02C04C
:1029D8008E7F838B40E050E0602F712F80913B6C9D
:1029E80090913C6C0E94301A81117ACF45CF0E9499
:1029F800F22CC5010E9455266C01898181116DCF89
:102A0800E0913D6CF0913E6C808141E0811140E0A5
:062A1800E12CF12C52CF6D
:102A1E00CF93DF93CDB7DEB72597CDBFDEBF0F2E99
:102A2E00F3E5EF2EF02D0F2EFCE4FF2EF02D689423
:102A3E00CC24C6F8DD24D2F83E0183E0680E711C6A
:102A4E00E0E88E2E992493940F2EF0E6AF2EF4E04C
:102A5E00BF2EF02D1D82EB82FC8262E370E080912E
:102A6E005F6C9091606C0E945713813009F051C0D9
:102A7E00F601848183FD09C0848182FD06C0F501C3
:102A8E00848181FD02C0848180FD9D820E94E42CA0
:102A9E001092736C0E94B12C00E010E020E030E048
:102AAE00AC0162E08091616C9091626C0E944A234D
:102ABE004FEF5FEFBE016F5F7F4F8091596C90912A
:102ACE005A6C0E94301A89819A814F9770F48D81C9
:102ADE00813059F42AE030E0682DA30180915B6CBF
:102AEE0090915C6C0E946C17B5CF89819A8180970A
:102AFE0008F4B0CF8D818111ADCF00E02AE030E037
:102B0E00682DA30180915B6C90915C6C0E946C1798
:102B1E00A1CF8091736C813009F09CCFF601848136
:102B2E0083FD09C0848182FD06C0F501848181FD8B
:102B3E0002C0848180FD9D820E94E42C1092736CF1
:102B4E000E94B12C00E010E020E030E0AC0162E029
:102B5E008091616C9091626C0E944A234FEF5FEFFF
:102B6E00BE016F5F7F4F8091596C90915A6C0E949D
:102B7E00301A89819A814F9770F48D81813059F482
:102B8E002AE030E0682DA30180915B6C90915C6C23
:102B9E000E946C175FCF89819A81809708F45ACF73
:102BAE008D81811157CF00E02AE030E0682DA3011E
:0E2BBE0080915B6C90915C6C0E946C174BCF09
:102BCC00CF93DF93A82FCB010596A11DFC015A2FA3
:102BDC000E94C42CDB011696ED91FC911797A489E9
:102BEC00B589C685D785808991898C839D83C08959
:102BFC00D189868597858A839B839F01245F3F4F6C
:102C0C0011968D919C9112978217930731F48089BC
:102C1C00918911968D939C931297148A158A8C9195
:102C2C0081508C938091656C811160C0A285B385B5
:102C3C00C481D581868197818C839D83C681D78100
:102C4C00848195818A839B839F012E5F3F4F1196D0
:102C5C008D919C9112978217930731F486819781FD
:102C6C0011968D939C931297128613868C9181509A
:102C7C008C93868990916A6C981710F480936A6C87
:102C8C0090E0DC01AA0FBB1FAA0FBB1FAA0FBB1F32
:102C9C008A0F9B1FDC01A854B44911960D90BC916E
:102CAC00A02DA483B58314968D919C911597868342
:102CBC0097831496CD91DC9115972A833B831496B8
:102CCC002D933C931597A689B0E0CD01880F991FE1
:102CDC00880F991F880F991FA80FB91FA854B449C2
:102CEC00A287B3878C918F5F8C931CC048EF5BE6F7
:102CFC00DA011196CD91DC911297C687D7878C811A
:102D0C009D81808B918B8C819D81DC0112962D9302
:102D1C003C9313972C833D83448B558BDA018C9118
:102D2C008F5F8C93A091356CB091366C96895696CA
:102D3C008C91891720F481E08093686C01C080E04D
:062D4C00DF91CF91089514
:102D52006F927F928F92EF92FF920F931F93CF9376
:102D6200DF93CDB7DEB72997CDBFDEBF8EE789836C
:102D720082E08A8382E58B838091726C8C836FEF11
:102D82007FEF8091556C9091566C0E94571389E5A4
:102D92008D8386E48E833E0185E0680E711CE0E837
:102DA2008E2E00E02FEF3FEF682DA30180915D6C26
:102DB20090915E6C0E946C172FEF3FEF41E050E064
:102DC200BE01695F7F4F80914B6C90914C6C0E9469
:102DD200061C8F818E3741F52FEF3FEF41E050E027
:102DE200BE01695F7F4F80914B6C90914C6C0E9449
:102DF200061C1F811123C1F07E01F8E0EF0EF11CC9
:102E020011502FEF3FEF41E050E0BE01695F7F4F6D
:102E120080914B6C90914C6C0E94061C8F81F70143
:102E220081937F011111ECCF8885803529F6998530
:102E32008091726C9813C0CFAE014F5F5F4F60E814
:102E42000FEF1FEF24E030E08091496C90914A6CC3
:102E52000E94271884E50E948F2CE0E0F8E085812B
:102E6200806285836FEF7FEF8091516C9091526CFD
:102E72000E9457138FE48E8300E02FEF3FEF682DFF
:102E8200A30180915D6C90915E6C0E946C1720E0B2
:102E920030E040E050E060E08091556C9091566CDB
:102EA2000E946C1761E070E080914D6C90914E6CC5
:102EB2000E94211E80E090E00E94A8212996CDBFA9
:102EC200DEBFDF91CF911F910F91FF90EF908F9016
:062ED2007F906F9008954F
:102ED8002F923F924F926F927F928F92CF92DF9272
:102EE800EF92FF920F931F93CF93DF93CDB7DEB787
:102EF8002897CDBFDEBF7C014E835F8368872C8314
:102F08003D8310E03C0180E8882E1301482CEAE15B
:102F18002E0E311C411CFBE16F0E711C811C6701D8
:102F280088E0C80ED11C0FB6F8940F92F701928D65
:102F3800838D981710F00230F1F4202F4E815F81B5
:102F48006885C7010E949620F7019189992361F04D
:102F5800F1E1EF0EF11CB70180E80E94E615882325
:102F680031F00E94F52003C081110E94F5200F90D6
:102F78000FBE81E056C08C819D81892B21F40F9072
:102F88000FBE80E04EC0111105C0CE0101960E940F
:102F98009B2C11E00F900FBE0E94F22C0FB6F894F4
:102FA8000F92F701858D8F3F09F4158EF701868DF5
:102FB8008F3F09F4168E0F900FBEBE016C5F7F4FD6
:102FC800CE0101960E940428811125C00FB6F894FD
:102FD8000F92F101542D0E94EB2C862F0F900FBEFB
:102FE800F301582D0E94EB2C86130FC06C817D8154
:102FF800C6010E94222CC7010E9454220E94791205
:10300800811191CF0E94F5208ECFC7010E945422D2
:103018000E94791288CFC7010E9454220E94791217
:1030280080E02896CDBFDEBFDF91CF911F910F9131
:10303800FF90EF90DF90CF908F907F906F904F90A0
:063048003F902F90089557
:10304E004F925F926F927F928F929F92AF92BF92AA
:10305E00CF92DF92EF92FF920F931F93CF93DF9356
:10306E00CDB7DEB72897CDBFDEBF5C014E835F8341
:10307E00688729010C831D83FC018481958101974A
:10308E00268520FF0AC03201F2E06F0E711C8615F4
:10309E00970540F41C821D8243C0320184159505AC
:1030AE0008F43C018C819D81892B09F439C0CE0135
:1030BE0001960E94572C0FB6F8940F92C5010E94EC
:1030CE00D7264C018615970530F560E080E090E03C
:1030DE000E945F2B0E94F82CF501828793870F9038
:1030EE000FBECC80DD80E12CF12C00E010E09801C9
:1030FE0040E050E0BA0180E00E94D11AF50112863C
:10310E001386BE016C5F7F4FCE0101960E9404288C
:10311E00882389F202C00F900FBE8114910421F40E
:10312E00C5010E94D7264C017301840192014E8184
:10313E005F816885C5010E94FA226C01892B09F115
:10314E00B50180E80E94062AF50126813781821793
:10315E009307B8F00E94F22CF50180859185892B9A
:10316E0071F080859185E12CF12C00E020E030E0BB
:10317E00A90160E00E947711F501108611860E9468
:10318E007912C6012896CDBFDEBFDF91CF911F9178
:10319E000F91FF90EF90DF90CF90BF90AF909F90E8
:0C31AE008F907F906F905F904F9008957D
:1031BA00CF92DF92EF92FF920F931F9381E00E94CA
:1031CA00EE2A8093556C9093566C00E010E020E054
:1031DA0030E040E061E070E082E390E00E94AC28D9
:1031EA0080934B6C90934C6C20E030E040E061E0BF
:1031FA0070E080E991E00E94AC288093496C90933A
:10320A004A6C20E030E041E060E070E088EC90E059
:10321A000E94AC288093476C9093486C20E030E081
:10322A0041E060E070E088EC90E00E94AC28809376
:10323A00456C9093466C43E060E081E00E9413265F
:10324A008093536C9093546C43E060E081E00E9459
:10325A0013268093516C9093526C43E060E081E0B6
:10326A000E94132680934F6C9093506C0E940F2CEF
:10327A0080934D6C90934E6CC12CD12C0F2EF3E0A1
:10328A00EF2EF02D24EF31E04CE251E060E080E7D0
:10329A009CE00E94EE0D6894EE24E2F820E931E009
:1032AA0044E351E060E08FE696E00E94EE0D0F2EB7
:1032BA00FDE3EF2EF8E2FF2EF02D21E040E250E090
:1032CA006BE371E080E00E94CA278093436C90937D
:1032DA00446C0F2EF7E1EF2EF7E2FF2EF02D21E0DE
:1032EA0042E350E060E471E080E00E94CA278093E4
:1032FA00416C9093426C0E94A92B1F910F91FF90F1
:08330A00EF90DF90CF900895D1
:10331200CF93DF93DC0170686D937C9311971696BF
:10332200ED91FC91179718964D915C911997129611
:103332008D919C91139714962D913C911597EC01C8
:103342002C833D8314968D919C91159712962D9105
:103352003C911397EC012A833B83EA0189819A818C
:10336200A817B90731F414968D919C91159789830A
:103372009A8318961D921C921997DA018C918150AA
:103382008C93A285B385C481D581868197818C83F4
:103392009D83C681D781848195818A839B839F0186
:1033A2002E5F3F4F11968D919C9112978217930732
:1033B20031F48681978111968D939C931297128690
:1033C20013868C9181508C93868990916A6C9817A0
:1033D20010F480936A6C90E0DC01AA0FBB1FAA0F65
:1033E200BB1FAA0FBB1F8A0F9B1FDC01A854B44945
:1033F20011960D90BC91A02DA483B58314968D9146
:103402009C911597868397831496CD91DC9115979D
:103412002A833B8314962D933C931597A689B0E09B
:10342200CD01880F991F880F991F880F991FA80F28
:10343200B91FA854B449A287B3878C918F5F8C932C
:10344200A091356CB091366C968956968C918917FD
:0E34520018F481E08093686CDF91CF910895AB
:103460006F927F928F92AF92BF92CF92DF92EF9244
:10347000FF920F931F93CF93DF93CDB7DEB72597BE
:10348000CDBFDEBF8C015B014C835D83E12C3C0131
:1034900080E8882E6801E1E1CE0ED11C0FB6F894C9
:1034A0000F92F801F28CFF20B9F0B501C8010E941B
:1034B000442BFA94F801F28E8085882349F0085F46
:1034C0001F4FB80180E80E94E61581110E94F52087
:1034D0000F900FBE81E054C08C819D81892B21F417
:1034E0000F900FBE80E04CC0E11006C0CE010196E7
:1034F0000E949B2CEE24E3940F900FBE0E94F22CAE
:103500000FB6F8940F92F801858D8F3F09F4158E50
:10351000F801868D8F3F09F4168E0F900FBEBE0105
:103520006C5F7F4FCE0101960E94042881111BC061
:10353000882DB3010E94462C882379F06C817D810F
:10354000C6010E94222CC8010E9454220E947912B6
:103550008111A4CF0E94F520A1CFC8010E9454225E
:103560000E9479129BCFC8010E9454220E947912B6
:10357000882DB3010E94462C882309F48FCF80E068
:103580002596CDBFDEBFDF91CF911F910F91FF90A8
:10359000EF90DF90CF90BF90AF908F907F906F9023
:0235A00008958C
:1035A2008F929F92AF92BF92CF92DF92EF92FF9251
:1035B2000F931F93CF93DF93480159010FB6F894ED
:1035C2000F92E091356CF091366CC82FD0E0EC0F81
:1035D200FD1F83A5823061F1E091356CF091366C6C
:1035E200CE01880F991F880F991FE80FF91F83A139
:1035F20094A1A5A1B6A140955095609570954823D8
:1036020059236A237B2343A354A365A376A3E091A2
:10361200356CF091366CEC0FFD1F81E083A7C1146D
:10362200D10431F061E0C6010E94A01D0E94F52084
:103632000F900FBE0FB6F8940F92E114F104A1F0AF
:10364200E091356CF091366CCE01880F991F880F8E
:10365200991FE80FF91F83A194A1A5A1B6A1F701B3
:1036620080839183A283B383E091356CF091366CB1
:10367200EC0FFD1F83A58230E9F4E091356CF091E7
:10368200366CCE01880F991F880F991FE80FF91F1A
:1036920083A194A1A5A1B6A180949094A094B09482
:1036A20088229922AA22BB2283A294A2A5A2B6A210
:1036B20081E001C080E02091356C3091366CC20F00
:1036C200D31F1BA60F900FBEDF91CF911F910F91B9
:1036D200FF90EF90DF90CF90BF90AF909F908F9030
:0236E200089549
:1036E4000F931F93CF93DF93FC01892B09F486C0BA
:1036F4002689A091356CB091366C56968C9128171A
:1037040008F070C084859585992364F0A091356C88
:10371400B091366C56963C9185E090E0831B9109FC
:103724008487958730E0C901880F991F880F991FF6
:10373400880F991F280F391F28543449828593858F
:103744008217930709F045C0EF018F010E5F1F4FE9
:10375400C8010E94822AE091356CF091366C86890A
:103764008E8B90916A6C981710F480936A6C90E039
:10377400FC01EE0FFF1FEE0FFF1FEE0FFF1F8E0F5A
:103784009F1FFC01E854F4490180F281E02DEC8391
:10379400FD83848195818E839F83A481B581129654
:1037A4000D931C931397048315838E8990E0FC0179
:1037B400EE0FFF1FEE0FFF1FEE0FFF1FE80FF91FA5
:1037C400E854F449EA87FB8780818F5F808381E036
:1037D40016C0A091356CB091366C56968C91868B40
:1037E40081E00DC0A091356CB091366C81E021A1CF
:1037F40056969C91291718F080E001C080E0DF9173
:08380400CF911F910F9108956F
:10380C002F923F924F925F926F928F929F92AF92B4
:10381C00BF92CF92DF92EF92FF920F931F93CF93B1
:10382C00DF93EC011B014A0169018E8580FD03C009
:10383C00A12CB12C04C06894AA24A1F8B12CC114F9
:10384C00D10479F10FB6F8940F922E0180E8682E0E
:10385C00862DB2010E94062A8C01A816B90648F0E2
:10386C0060E080E090E00E945F2B0E94F82C88873B
:10387C0099870F900FBEA016B106D8F0E12CF12C51
:10388C0000E010E0980140E050E0BA0180E00E94B6
:10389C00D11A18861986862DB2010E94062A8C012F
:1038AC0005C0BE0180E80E94062A8C01A016B10654
:1038BC00F8F49801A401B101CE010E942A245C0104
:1038CC00892BC1F00E94F22C8A859B85892B69F08B
:1038DC008A859B85E12CF12C00E020E030E0A901E9
:1038EC0060E00E9477111A861B860E94791202C032
:1038FC00A12CB12CC501DF91CF911F910F91FF909D
:10390C00EF90DF90CF90BF90AF909F908F906F9083
:0A391C005F904F903F902F900895A8
:10392600AF92BF92CF92DF92EF92FF920F931F93C7
:10393600CF93DF937C016B01A42EB22E0E94F22C52
:10394600F701C081D181B11008C081E09E012C2110
:103956003D21232B51F480E008C081E09E012C21FB
:103966003D212C153D0509F080E0882361F0AA2051
:1039760009F450C0B601609570956C237D23F7015C
:103986006083718347C00115110509F443C0AA205D
:1039960019F060E071E002C060E070E0B1107460A0
:1039A6006C297D29A801C70102960E94FE240E9467
:1039B6007912811102C00E94F5200E94922B91FD7E
:1039C60026C00FB6F8940F92F70180819181B1104D
:1039D60008C021E0A60148235923452B51F420E0D5
:1039E60008C021E0A601482359234C155D0509F0BE
:1039F60020E0222351F0AA2041F0B601609570958F
:103A060068237923F701608371830F900FBEEC0161
:103A1600DD2702C00E947912CE01DF91CF911F915E
:103A26000F91FF90EF90DF90CF90BF90AF900895E9
:103A3600CF92DF92EF92FF920F931F930E94BF2BBC
:103A4600E0E0F4E084E08183868340E062E083E0A6
:103A56000E94132680935D6C90935E6C40E062E05A
:103A660083E00E94132680935B6C90935C6C40E02D
:103A760062E081E00E9413268093596C90935A6C01
:103A8600C12CD12C6894EE24E1F800E010E02EE57C
:103A960031E045E451E060E08AE899E00E94EE0DED
:103AA6000F2EF3E0EF2EF02D26E930E04CE451E046
:103AB60060E08FE095E10E94EE0D0F2EF5E0EF2E0F
:103AC600FDE2FF2EF02D21E042E350E061E571E0DA
:103AD60080E00E94CA278093636C9093646C0F2EDB
:103AE600F9E0EF2EFDE2FF2EF02D20E044EF51E04D
:103AF6006CE471E080E00E94CA278093616C909329
:103B0600626C43E060E081E00E94132680935F6C64
:103B16009093606C0E94B12C20E030E0AC0161E033
:103B26008091636C9091646C0E944A231F910F915F
:0A3B3600FF90EF90DF90CF9008950C
:103B4000FF920F931F93CF93DF93EC01F62E00911A
:103B50002F6C1091306C8091356C9091366C029680
:103B60000E94822ACF3F8FEFD807B1F5FF20A1F145
:103B7000EFEEFBE6A181B281C091356CD091366C3D
:103B8000AC83BD83C091356CD091366C14968D9109
:103B90009C9115978E839F831496CD91DC911597F8
:103BA0008091356C9091366C02968A839B838091CC
:103BB000356C9091366C029614968D939C93159764
:103BC000A091356CB091366C1A96ED93FC931B97CF
:103BD00080818F5F80832FC0C00FD11FE091356C33
:103BE000F091366CC283D383C017D10768F460911B
:103BF000356C7091366C8091316C9091326C6E5F47
:103C00007F4F0E944B2917C06091356C7091366CC4
:103C10008091336C9091346C6E5F7F4F0E944B2982
:103C200080912B6C90912C6CC817D90720F4C0930D
:103C30002B6CD0932C6CDF91CF911F910F91FF9043
:023C40000895E5
:103C42006F927F928F92BF92CF92DF92EF92FF920A
:103C52000F931F93CF93DF93EC018B013C0182E022
:103C6200680E711C80E8882EE82C630183E0C80E80
:103C7200D11CE11C0E94F22C85E0680E711C811C93
:103C8200F301582D0E94C42CFB0188819981082BD5
:103C9200192B0883198300E010E028C0B280F3805A
:103CA200808191819C01332792FD09C068817981CD
:103CB2006223732341E0672B59F440E009C0688115
:103CC20079816223732341E06217730709F040E0B0
:103CD200442351F090FF02C0022B132B688179819B
:103CE2007260CF010E948919EB2DFF2DCF01A0E850
:103CF200C816D906EA0691F6009510958881998131
:103D020008231923088319830E94791288819981D3
:103D1200DF91CF911F910F91FF90EF90DF90CF90A5
:0A3D2200BF908F907F906F9008957E
:103D2C000F931F93CF93DF93FC01892B09F466C08B
:103D3C0091A1961708F4962F8689891709F45EC00D
:103D4C0022A1213009F05AC0968B24853585332366
:103D5C0034F025E030E0291B31092487358790E0C9
:103D6C009C01220F331F220F331F220F331F820F90
:103D7C00931F885494492285338528173907F1F508
:103D8C00EF018F010E5F1F4FC8010E94822A8E899E
:103D9C0090916A6C981710F480936A6C90E0FC0117
:103DAC00EE0FFF1FEE0FFF1FEE0FFF1F8E0F9F1F5B
:103DBC00FC01E854F4490180F281E02DEC83FD8391
:103DCC00848195818E839F83A481B58112960D93F6
:103DDC001C931397048315838E8990E0FC01EE0FDE
:103DEC00FF1FEE0FFF1FEE0FFF1FE80FF91FE85428
:103DFC00F449EA87FB8780818F5F8083DF91CF91C5
:063E0C001F910F910895C3
:103E12008091656C882321F081E08093686C08951D
:103E22001092686C20916A6C822F90E0FC01EE0F78
:103E3200FF1FEE0FFF1FEE0FFF1FE80FF91FE854E1
:103E4200F4493081311111C02150822F90E0FC01E0
:103E5200EE0FFF1FEE0FFF1FEE0FFF1FE80FF91F00
:103E6200E854F4493081332379F3AC01440F551FF0
:103E7200440F551F440F551F480F591FDA01A8540C
:103E8200B4491196ED91FC9112970280F381E02DD5
:103E92001196ED93FC93129745545449E417F50794
:103EA20029F442815381FD0141835283FC01EE0FCB
:103EB200FF1FEE0FFF1FEE0FFF1F8E0F9F1FFC0154
:103EC200E854F4490180F281E02D86819781809344
:0C3ED200356C9093366C20936A6C089558
:103EDE00EF92FF920F931F93CF93DF93FC01362F38
:103EEE00892B09F44DC0238D222309F44BC0022FD8
:103EFE0010E0448DE42EF12C8FEF9FEFB8010E945D
:103F0E00E82B6E157F0508F43FC0EF010FB6F8944D
:103F1E000F9260817181CB01249F800D911D112420
:103F2E0084839583128E62837383015011090E9DD3
:103F3E00C0010F9D900D1E9D900D1124860F971F91
:103F4E00868397838FEF858F868F31110DC0808585
:103F5E00882391F02896BE0180E80E94E6158823FA
:103F6E0059F00E94F52008C0CF0108960E94672CD8
:103F7E00CE0141960E94672C0F900FBE81E005C0C6
:103F8E0080E003C080E001C080E0DF91CF911F91FF
:083F9E000F91FF90EF900895D0
:103FA6000F931F93CF93DF93FC01892B09F451C024
:103FB60082A1815082A3268991A1291709F44BC0B9
:103FC60081114BC0EF018F010E5F1F4FC8010E9488
:103FD600822A89A18E8B25E030E0281B31092C87A7
:103FE6003D8790916A6C981710F480936A6C90E004
:103FF600FC01EE0FFF1FEE0FFF1FEE0FFF1F8E0FD0
:104006009F1FFC01E854F4490180F281E02DEC8306
:10401600FD83848195818E839F83A481B5811296C9
:104026000D931C93139704831583EE89F0E0CF015B
:10403600880F991F880F991F880F991FE80FF91F7E
:10404600E854F449EA87FB8780818F5F808381E0AB
:1040560005C080E003C080E001C080E0DF91CF9121
:064066001F910F91089567
:10406C000F920FB6F8940F920BB60F921F92112469
:10407C002F923F924F925F926F927F928F929F926C
:10408C00AF92BF92CF92DF92EF92FF920F931F935A
:10409C002F933F934F935F936F937F938F939F9344
:1040AC00AF93BF93CF93DF93EF93FF93A091356CB6
:1040BC00B091366C0DB60D920EB60D920E945E103C
:1040CC0081110E94091FA091356CB091366CCD9175
:1040DC00CDBFDD91DEBFFF91EF91DF91CF91BF910D
:1040EC00AF919F918F917F916F915F914F913F9184
:1040FC002F911F910F91FF90EF90DF90CF90BF9079
:10410C00AF909F908F907F906F905F904F903F906B
:10411C002F901F900F900BBE0F900FBE0F90189505
:10412C000F931F93CF93DF93EC01022F1A8D2C8DDD
:10413C0021110CC088819981892B09F042C08C8196
:10414C009D810E94D31F1C821D8242C0011117C089
:10415C0030E08A819B810E94792B2C8D8A819B81F6
:10416C00820F911D8A839B832C813D81821793073B
:10417C0050F1888199818A839B8380E029C030E04B
:10418C008E819F810E94792B8C8D90E091958195E9
:10419C0091092E813F81280F391F2E833F8348813F
:1041AC0059812417350730F42C813D81820F931FE0
:1041BC008E839F83023049F4112349F0115080E023
:1041CC0007C080E005C080E003C080E001C080E053
:0E41DC001F5F1A8FDF91CF911F910F910895F1
:1041EA000F920FB6F8940F920BB60F921F921124EA
:1041FA002F923F924F925F926F927F928F929F92ED
:10420A00AF92BF92CF92DF92EF92FF920F931F93DA
:10421A002F933F934F935F936F937F938F939F93C4
:10422A00AF93BF93CF93DF93EF93FF93A091356C36
:10423A00B091366C0DB60D920EB60D920E94091F02
:10424A00A091356CB091366CCD91CDBFDD91DEBFBA
:10425A00FF91EF91DF91CF91BF91AF919F918F9194
:10426A007F916F915F914F913F912F911F910F9184
:10427A00FF90EF90DF90CF90BF90AF909F908F907C
:10428A007F906F905F904F903F902F901F900F906C
:0A429A000BBE0F900FBE0F900895A9
:1042A400CF92DF92EF9241155105610509F44AC09E
:1042B4002091E86B3091E96B8217930791F420E029
:1042C40030E005C021E030E002C021E030E0F90137
:1042D400EE0FFF1FEE0FFF1FE20FF31FEB51F44928
:1042E40015C0C090E56BD090E66BE090E76BCD28ED
:1042F400CE2801F52091ED6B3091EE6B8217930778
:1043040009F3E5EEFBE602C0EAEEFBE63097D1F0F6
:104314004083518362838383948314C0C090EA6B87
:10432400D090EB6BE090EC6BCD28CE2869F3E0E005
:10433400F0E0ECCF2091ED6B3091EE6B8217930798
:0C43440021F2ECCFEF90DF90CF900895B5
:104350000F931F93CF93DF93EC010FB6F8940F9256
:10436000892B21F4C091356CD091366C8E010E5F93
:104370001F4FC8010E94822A8C899D89892B21F0B8
:10438000CE010C960E94822AB8018FEE9BE60E9415
:10439000CD2A8BA5813009F41BA68CA5813009F4A8
:1043A0001CA60F900FBE8091696C882339F00FB660
:1043B000F8940F920E94282B0F900FBE8091356CBD
:1043C0009091366CC817D907A1F48091696C882345
:1043D00019F00E94F5200DC09091EF6B80916B6CED
:1043E000981305C01092356C1092366C02C00E9472
:0C43F000091FDF91CF911F910F910895DC
:1043FC00CF92DF92EF920F931F93C12CD12C689424
:10440C00EE24E2F800E010E02CE231E043E651E06B
:10441C0060E089EA96E10E94EE0DEE24E39428E533
:10442C0032E048E651E060E089EB90E00E94EE0D4E
:10443C000E94DD2C0E94832C0E94302A8093716C88
:10444C000E94302A8093726CE0E6F4E080E4828370
:10445C0088E0868B80E18A95F1F700C0808586FF25
:10446C0004C084E080936F6C03C083E080936F6C16
:10447C0084E0809376040E94DD180E941B1DE0E00E
:10448C00F8E08581806485830E94182980E090E0A3
:0C449C001F910F91EF90DF90CF900895DA
:1044A800CF92DF92EF920F931F93CF938C010FB6A9
:1044B800F8940F92FC01C68D1C16C4F481898111F1
:1044C80006C014C0F8018189811107C00FC06801B6
:1044D800F1E1CF0ED11C80E8E82E8E2DB6010E94A6
:1044E800E61581110E94012DC15061F78FEFF80187
:1044F800868F0F900FBE0FB6F8940F92C58D1C16BD
:10450800C4F48085811106C014C0F801808581112A
:1045180007C00FC06801F8E0CF0ED11C80E8E82E74
:104528008E2DB6010E94E61581110E94012DC15001
:1045380061F78FEFF801858F0F900FBECF911F9114
:0A4548000F91EF90DF90CF900895DF
:104552006F927F928F92AF92BF92CF92DF92EF9241
:10456200FF920F931F93CF93DF93EC013A01862EB4
:10457200590168018E8580FF05C0790182E0E80E4D
:10458200F11C01C07901CE010E94D7268C01950150
:10459200682DA301CE010E94FA225C01892BD1F081
:1045A200BE0180E80E94062A2E813F81821793076E
:1045B20088F088859985892B69F088859985E12C11
:1045C200F12C00E020E030E0A90160E00E94320F0F
:1045D20018861986C501DF91CF911F910F91FF9027
:1045E200EF90DF90CF90BF90AF908F907F906F90C1
:0245F20008952A
:1045F4006F927F928F92AF92BF92CF92DF92EF929F
:10460400FF920F931F93CF93DF9300D0CDB7DEB704
:104614005C013A01862E6901FC0122813381968571
:1046240090FF11C0C982DA820E151F05F0F0AE01A9
:104634004F5F5F4F60E8890122E030E0C5010E94CE
:1046440096239C0104C00C151D0508F46801C114CF
:10465400D10469F089019601682DA301C5010E9466
:104664009623F5018283938302C0C12CD12CC60109
:104674000F900F90DF91CF911F910F91FF90EF90CA
:10468400DF90CF90BF90AF908F907F906F90089500
:10469400EF92FF920F931F93CF93DF93CDB7DEB7C3
:1046A4002597CDBFDEBFE0913B6CF0913C6C309719
:1046B40081F1780169834A835B838C839D836630AF
:1046C400FCF40E94752C823069F4AE014F5F5F4F99
:1046D40060E800E0970180913B6C90913C6C0E94F3
:1046E4006C1718C0AE014F5F5F4F60E800E020E038
:1046F40030E080913B6C90913C6C0E946C170AC036
:10470400AE014F5F5F4F60E800E0CF010E94972643
:1047140001C080E02596CDBFDEBFDF91CF911F9110
:084724000F91FF90EF90089542
:10472C006F927F928F92CF92DF92EF92FF920F93C4
:10473C001F93CF93DF936C013A01862EE901FC01A4
:10474C00E480F580E01AF10A2E153F0508F4790192
:10475C00F601848595859701682DA301800F911F23
:10476C000E94792BEC16FD0678F49E012E193F0958
:10477C00682DA3014E0D5F1D611DF7FC6A95F601B6
:10478C00848595850E94792BC8018C0F9D1FF6019D
:10479C00248135818217930710F0821B930BDF91D4
:1047AC00CF911F910F91FF90EF90DF90CF908F9052
:0647BC007F906F9008954C
:1047C2000F931F93CF93DF93FC018B01A181B281E1
:1047D2008091356C9091366CEC01AE87BF878091E9
:1047E200356C9091366C14962D913C911597EC0195
:1047F200288B398B14968D919C9115972091356C4D
:104802003091366C245F3F4FEC012A833B83209129
:10481200356C3091366C245F3F4F14962D933C9348
:104822001597A091356CB091366C5496ED93FC932C
:10483200559790819F5F9083442311F00FEF1FEFF4
:10484200642FC8010E94A01DDF91CF911F910F918B
:024852000895C7
:10485400AF92BF92CF92DF92EF92FF920F931F938A
:10486400CF93DF9300D0CDB7DEB77C015B016A0143
:104874008901FC0120813181968590FF11C042E0BD
:1048840050E0BE016F5F7F4FC7010E9472249C01FC
:1048940089819A81C816D90698F0025011096C01D1
:1048A400C016D10608F486010115110559F0A801B6
:1048B400B501C7010E947224F7018083918302C06D
:1048C40000E010E0C8010F900F90DF91CF911F918D
:1048D4000F91FF90EF90DF90CF90BF90AF9008952D
:1048E400AF92BF92CF92DF92EF92FF920F931F93FA
:1048F400CF93DF937C015B01EA016901FC01048130
:104904001581021B130B4017510708F48A01F701A4
:10491400448555854C0D5D1D60E89801C5010E94D4
:10492400792B0C171D0760F49E01201B310BF70136
:104934004485558560E8C501800F911F0E94792B3D
:10494400C6018C0F9D1FF7012481358182179307BF
:1049540010F0821B930BDF91CF911F910F91FF9069
:0C496400EF90DF90CF90BF90AF900895CF
:10497000AF92BF92CF92DF92EF92FF920F931F936D
:10498000CF93DF93EC015B017A0169018E8580FD95
:1049900003C000E010E002C002E010E0BE0180E8C9
:1049A0000E94062A08171907D8F49C01A701B5012F
:1049B000CE010E942A245C01892BA1F08A859B8567
:1049C000892B81F08A859B85E12CF12C00E020E089
:1049D00030E0A90160E00E94320F1A861B8602C0F7
:1049E000A12CB12CC501DF91CF911F910F91FF90A8
:0C49F000EF90DF90CF90BF90AF90089543
:1049FC00CF93DF93FC01A091356CB091366C70684D
:104A0C001C966D937C931D97A181B281C091356CDE
:104A1C00D091366CAE87BF87C091356CD091366C17
:104A2C0014968D919C911597888B998B1496CD919A
:104A3C00DC9115972091356C3091366C245F3F4F8B
:104A4C002A833B832091356C3091366C245F3F4F29
:104A5C0014962D933C931597A091356CB091366CB0
:104A6C005496ED93FC93559790819F5F908361E0F2
:0C4A7C00CA010E94A01DDF91CF91089597
:104A88001F920F920FB60F9211240BB60F922F930D
:104A98003F934F935F936F937F938F939F93AF93BE
:104AA800BF93EF93FF93CF93DF930F92CDB7DEB70A
:104AB80020E030E041E050E0BE016F5F7F4F809121
:104AC800496C90914A6C0E94B824892B31F4E0E03B
:104AD800F8E085818F7D858303C0898180930208F2
:104AE8000F90DF91CF91FF91EF91BF91AF919F917F
:104AF8008F917F916F915F914F913F912F910F907F
:0C4B08000BBE0F900FBE0F901F90189571
:104B14001F920F920FB60F9211240BB60F920F93A0
:104B24002F933F934F935F936F937F938F939F93B1
:104B3400AF93BF93EF93FF93CF93DF9300D0CDB7A1
:104B4400DEB7E0E0F6E08089918989839A8380E486
:104B54008087AE014F5F5F4F60E800E020E030E007
:104B64008091596C90915A6C0E9497260F900F90E7
:104B7400DF91CF91FF91EF91BF91AF919F918F9171
:104B84007F916F915F914F913F912F910F910F9072
:0C4B94000BBE0F900FBE0F901F901895E5
:104BA0001F920F920FB60F9211240BB60F920F9314
:104BB0001F932F933F934F935F936F937F938F93A5
:104BC0009F93AF93BF93EF93FF93CF93DF930F9296
:104BD000CDB7DEB7809100088983AE014F5F5F4F8C
:104BE00060E800E010E021E030E080914B6C9091B3
:104BF0004C6C0E94A9220F90DF91CF91FF91EF9111
:104C0000BF91AF919F918F917F916F915F914F91E4
:104C10003F912F911F910F910F900BBE0F900FBEE0
:064C20000F901F90189593
:104C26000F931F93CF93DF93282F362F882361F19D
:104C3600682F70E08FEF9FEF0E94E82B832F90E0A4
:104C46006817790720F1239FC0011124813E4FEF99
:104C5600940700F5D32FC22F4F960E9490278C0100
:104C66000097D1F0D11104C0FC018083918304C068
:104C76004F96F80180839183F801C38FD48F61E04A
:104C8600C8010E946F1F08C000E010E005C000E0E8
:104C960010E002C000E010E0C801DF91CF911F9143
:044CA6000F910895CD
:104CAA000F931F93CF93DF938C010E94B12CEC01D9
:104CBA008091376C9091386CC817D90738F5E09114
:104CCA003F6CF091406C8081882381F00580F681E9
:104CDA00E02D6FEF7FEF808191810E94DB29E091C7
:104CEA003F6CF091406C80818111F0CF80913D6CD6
:104CFA0090913E6C80933F6C9093406CE0933D6C36
:104D0A00F0933E6C81E0F801808302C0F8011082C2
:104D1A00C093376CD093386CCE01DF91CF911F913D
:044D2A000F91089548
:104D2E00EF92FF920F931F93CF93DF937901FC01C4
:104D3E00728D338D731710F0023011F5202FEC01A8
:104D4E001E8D8A8DCE010E9496201F3F89F489897F
:104D5E008823C1F06196BE0180E80E94E615882383
:104D6E0099F0E114F10491F081E0F701808311C014
:104D7E000E940D2D181760F41F5F1E8F81E009C071
:104D8E0080E007C081E005C081E003C081E001C082
:104D9E0081E0DF91CF911F910F91FF90EF900895D9
:104DAE006F927F928F92CF92DF92EF920F931F931B
:104DBE00CF93DF933C0120E8822E482D93016901A9
:104DCE00E42E82E0C80ED11CE11CF901542F0E9482
:104DDE00C42CDB01F6015E2D0E94C42C8B01AA1798
:104DEE00BB0799F724E0620E711C811CF301582D4C
:104DFE000E94C42CCB0101978A0F9B1F801B910B25
:104E0E008617970710F0861B970BDF91CF911F9196
:104E1E000F91EF90DF90CF908F907F906F900895CD
:104E2E000F93CF93DF9300D0CDB7DEB78091576C41
:104E3E009091586C8837910508F184E589838AE44E
:104E4E008A83AE014F5F5F4F60E800E02FE030E0F5
:104E5E0080915B6C90915C6C0E946C1720E030E04E
:104E6E0040E050E060E080914F6C9091506C0E9459
:104E7E006C171092576C1092586C09C08091576C39
:104E8E009091586C01968093576C9093586C0F903C
:0A4E9E000F90DF91CF910F9108955E
:104EA800EF92FF921F93CF93DF93FC01228D338DF6
:104EB800231718F57B01EC01168D2F5F228F1F3FFA
:104EC80091F481898823D9F0CF014196BC0180E80B
:104ED8000E94E6158823A9F0E114F104A1F081E00D
:104EE800F701808313C00E940D2D181770F4FF245A
:104EF800F394F10EFE8E81E009C080E007C081E0E6
:104F080005C081E003C081E001C081E0DF91CF915D
:084F18001F91FF90EF90089536
:104F2000CF93DF93EC010E94F22C8091256C90913D
:104F3000266C892B31F480E090E48093256C90936B
:104F4000266C2097C9F08091276C9091286C9E0167
:104F5000280F391F2F3F4FE1340788F4821793073A
:104F600088F4C091256CD091266CC80FD91F20936E
:104F7000276C3093286C08C0C0E0D0E005C0C0E0CA
:104F8000D0E002C0C0E0D0E00E947912CE01DF91F3
:044F9000CF91089520
:104F94006F927F928F92AF92BF92DF92EF92FF92C5
:104FA4000F931F93CF93DF933B01882E5A01D22E88
:104FB40084E190E00E949027EC01892BA9F01B8AE0
:104FC4000E947C29688279828A82AD86BE860F8798
:104FD400188BE98AFA8ACE0103960E94FD2CDD2003
:104FE40019F08B8984608B8BCE01DF91CF911F9157
:104FF4000F91FF90EF90DF90BF90AF908F907F90D4
:045004006F9008950C
:10500800CF93DF930FB6F8940F9220912F6C3091C5
:10501800306CDB014D915C914F3FBFEF5B0719F19D
:10502800EC01E981FA81A091676CB881BA1741F067
:105038002E173F0728F0FB011082118281E014C06F
:105048002E1B3F0B2417350748F4FB01421B530B5B
:10505800408351830E949B2C80E006C0DB011D9297
:105068001C9281E001C080E00F900FBEDF91CF91CC
:02507800089599
:10507A000F931F932091576C3091586C8091726CEA
:10508A0090E02817390700F18FEF90E08093576C72
:10509A009093586C0E94B12C0FEF1FEF20E030E084
:1050AA00AC0161E08091416C9091426C0E944A236C
:1050BA0020E030E040E050E063E08091436C909162
:1050CA00446C0E944A2309C08091576C9091586C95
:1050DA0001968093576C9093586C1F910F91089585
:1050EA00E0E0FBE080EC9DE58487958781E085839D
:1050FA008083A091356CB091366CCD91CDBFDD9196
:10510A00DEBFFF91EF91DF91CF91BF91AF919F9158
:10511A008F917F916F915F914F913F912F911F9145
:10512A000F91FF90EF90DF90CF90BF90AF909F903C
:10513A008F907F906F905F904F903F902F901F902D
:0E514A000F900BBE0F900FBE0F9008950895AA
:10515800FF920F931F93CF93DF938B01FF24F39458
:10516800413009F0F12C0115110511F401E010E0AE
:105178009C01205F3F4F82179307B8F4EC012196FA
:10518800C9010E949027FC01892B89F08FE0DF017B
:105198001D928A95E9F7CF010F9684879587C48376
:1051A800D58306831783F68602C0E0E0F0E0CF01DE
:0C51B800DF91CF911F910F91FF9008959F
:1051C4001F920F920FB60F9211240BB60F922F93CA
:1051D4003F934F935F936F937F938F939F93AF937B
:1051E400BF93EF93FF9382E50E948F2CE0E0F8E0F9
:1051F40084818064848360E070E08091516C90913C
:10520400526C0E945427FF91EF91BF91AF919F91EF
:105214008F917F916F915F914F913F912F910F905B
:0C5224000BBE0F900FBE0F901F9018954E
:10523000CF92DF92EF920F931F930F2EF9E2CF2EB2
:10524000FCE6DF2EF02DE12C00E010E028E730E056
:105250004CE651E060E085ED9CE20E94EE0D81306D
:10526000A1F40E94592A813081F4F8948FEF9FEFC6
:1052700080932B6C90932C6C81E08093696C1092DE
:105280002F6C1092306C0E9475281F910F91EF9037
:06529000DF90CF900895AD
:10529600CF93DF93EB01488159814F3F2FEF5207A0
:1052A60021F4FC01A781B0850DC0DC01139601C075
:1052B600DF011296ED91FC911397208131814217FF
:1052C6005307B0F71296ED91FC911397EA83FB838F
:1052D600C483D583AC83BD831296CD93DC93139799
:1052E60088879987FC0120812F5F2083DF91CF91EA
:0252F600089519
:1052F8000FB6F8940F9280913B6C90913C6C892B7F
:1053080021F58CE19CE60E94672C83E19CE60E94D3
:10531800672C8CE19CE680933F6C9093406C83E112
:105328009CE680933D6C90933E6C40E065E08AE09B
:105338000E94132680933B6C90933C6C009729F055
:1053480046E551E060E00E9452210F900FBE08959B
:10535800FC0163837483818792874617570790F00F
:10536800421B530B8585968548175907E0F4BF0102
:105378006D5F7F4F80913D6C90913E6C0E944B29F0
:1053880080E008954217530718F46217730768F40A
:10539800BF016D5F7F4F80913F6C9091406C0E9480
:0E53A8004B2980E0089581E0089581E008958A
:1053B600EF92FF920F931F93CF93DF938C017B01A4
:1053C600E0913F6CF091406C0580F681E02DC6813E
:1053D600D781CE0103960E94822A8B8982FF06C05E
:1053E600A701B801CE010E94A92A02C08E7F8B8B2D
:1053F600E989FA89CE010995DF91CF911F910F9125
:06540600FF90EF900895F5
:10540C00CF92DF92EF929B01482FA82FCB010496ED
:10541C00A11DFC015A2F0E94C42CDB016901E42E52
:10542C0082E0C80ED11CE11CF6015E2D0E94C42C3A
:10543C00CD01860F971FF901542F0E94C42C861B97
:10544C00970B8A179B0710F08A1B9B0BEF90DF9032
:04545C00CF90089550
:1054600027E030E080E0E0E0F4E071E060E4908587
:1054700092959F709727492F417050E0DA01022ED4
:1054800002C0AA0FBB1F0A94E2F78A2B6583A7EB21
:10549000BBE01197F1F700C000006683A7EBBBE00B
:1054A0001197F1F700C000002150310900F78095F5
:0254B00008955D
:1054B200CF92DF92EF920F931F930E947C298091EB
:1054C2003B6C90913C6C892BA9F00F2EF9E3CF2E07
:1054D200FCE6DF2EF02D6894EE24E2F800E010E006
:1054E20020EF30E04BE551E060E084E394E10E947C
:1054F200EE0D01C080E01F910F91EF90DF90CF90F1
:0255020008950A
:10550400CF93DF93FC01A085B185C281D3818481CF
:1055140095818C839D83C481D581828193818A8383
:105524009B8311968D919C911297E817F90731F49A
:105534008481958111968D939C9312971086118680
:0E5544008C9181508C938C91DF91CF910895C2
:10555200EF92FF920F931F93CF93DF93EC018B0196
:105562007A0108C08D859E85080F191FE989FA897D
:10557200CE0109956D857E85600F711F9801A70187
:10558200CE010E94AC298111EDCFDF91CF911F9105
:085592000F91FF90EF900895C6
:10559A00CF93DF939C01FB01DC011196CD91DC9145
:1055AA001297C283D3838C819D81848395838C8156
:1055BA009D81DC0112966D937C9313976C837D8396
:1055CA0020873187F90180818F5F8083DF91CF91B6
:0255DA00089532
:1055DC000F93CF93DF93482F60E081E00E94132656
:1055EC00EC01009769F01C821D82188219821E82C0
:1055FC0000E020E030E040E050E060E00E946C17FA
:0A560C00CE01DF91CF910F910895B8
:10561600CF93DF93EC010FB6F8940F928D8D8F3FE9
:1056260009F41D8E8E8D8F3F09F41E8E0F900FBECE
:105636008A8D811104C0CE0141960E94E123CE01DC
:0A5646000E945422DF91CF910895D5
:10565000E091336CF091346C8081811107C08FEF41
:105660009FEF80932B6C90932C6C0895E091336C9A
:10567000F091346C0580F681E02D808191818093DA
:085680002B6C90932C6C089533
:10568800FC01248D2223B1F030E046815781420F7E
:10569800531F46835783848195814817590720F003
:1056A8008081918186839783CB014681578160E809
:0656B8000E94792B089509
:1056BE00009721F48091356C9091366C0FB6F8946A
:1056CE000F9270E0FC01E60FF71F23A5223031F494
:1056DE00FC01E60FF71F13A681E001C080E00F90DA
:0456EE000FBE08954E
:1056F200CF92DF92EF926A01E62EDC01280F391F6A
:10570200A217B30751F0F6015E2D0E94EB2C6D93A8
:105712004FEFC41AD40AE40AF3CFEF90DF90CF9090
:025722000895E8
:10572400E091356CF091366C84859585E091356C0B
:10573400F091366CA091356CB091366C56964C91C4
:0E57440025E030E0241B3109248735870895C5
:105752008FB78F778FBFE0E0F8E081E493E0808736
:10576200918783E2878381E08093010480E88583C7
:0C57720080EC86838FB78F678FBF08958F
:10577E008FB78F778FBF85E08093A000E0E0F6E0D3
:10578E008CE0828380E4808781E0848780818160E1
:0A579E0080838FB78F678FBF0895D7
:1057A800CF93DF93EC01892B51F00E94F22C60E03B
:1057B800CE010E94A01D0E947912811102C00E9490
:0857C800F520DF91CF91089557
:1057D000AA1BBB1B51E107C0AA1FBB1FA617B70717
:1057E00010F0A61BB70B881F991F5A95A9F7809533
:0857F0009095BC01CD01089564
:1057F800FC0160833197708331971082319720E8DC
:1058080020833197108231971082779740833197A0
:06581800508384970895FF
:10581E00CF93DF938BE090E00E949027EC010097EE
:10582E0031F0FC0111921192CF010E94672CCE0132
:06583E00DF91CF910895F7
:10584400CF93DF93EB016091356C7091366C645F9C
:105854007F4F0E944B2961E0CE010E94A01DDF9181
:04586400CF91089543
:105868008091356C9091366C892B39F0E091356CCC
:10587800F091366C82A18F5F82A38091356C9091F4
:04588800366C0895DD
:10588C000FB6F8940F92A82FCB014A96A11DFC01DC
:10589C005A2F0E94EB2C0F900FBE81E0611180E01B
:0258AC0008955D
:1058AE000FB6F8940F922091676CFC012083209123
:1058BE002F6C3091306C218332830F900FBE089580
:1058CE00FC010396818392832FEF3FEF2383348372
:0C58DE008583968387839087108208954D
:1058EA008091696C882331F08091656C882321F05E
:0C58FA0080E0089581E0089582E00895A8
:10590600E0E0F4E080E28583A7EBBBE01197F1F7D6
:0859160000C000008683089523
:10591E00823531F0843539F484E08093050408959E
:08592E0084E080930604089553
:105936002091676CFC01208320912F6C3091306C94
:0659460021833283089565
:10594C00EC010E94162D0E94152DCE010E94172DE0
:06595C00CE010E94122D95
:105962000FB6F8940F9280912F6C9091306C0F903B
:045972000FBE0895C7
:10597600EE0FFF1F0024001C0BBE0790F691E02DD2
:02598600099482
:1059880057FD04C05BBF679177910895619171914C
:02599800089570
:10599A000F9301E00093060B0F910E943620189591
:1059AA00C8EBDBE688818230E8F30E94F520FACF63
:0E59BA00E0E0F4E080E6818380E182830895DE
:0E59C800E0E0F6E082E0808781E082870895CB
:0E59D60057FD03C05BBF67910895608108957F
:0C59E4008091656C8F5F8093656C089566
:0A59F0008091356C9091366C08959B
:0859FA00FC01108611860895DE
