:100000000C949C000C940A2E0C940A2E0C940A2E2C
:100010000C940A2E0C940A2E0C940A2E0C940A2E80
:100020000C940A2E0C940A2E0C940A2E0C940A2E70
:100030000C94CA2D0C940A2E0C940A2E0C940A2EA1
:100040000C940A2E0C940A2E0C940A2E0C9456270B
:100050000C9410270C94F3290C94CE220C940A2EA5
:100060000C940A2E0C940A2E0C940A2E0C940A2E30
:100070000C940A2E0C940A2E0C940A2E0C940A2E20
:100080000C940A2E0C940A2E0C940A2E0C940A2E10
:100090000C940A2E0C940A2E0C940A2E0C940A2E00
:1000A0000C940A2ED316D316021707171D17D31652
:1000B000D316021707175D02A1058708870887086E
:1000C000290387088708870887088708870887081B
:1000D0008708870887086D058708870887088708C5
:1000E000870887082C0487088708870887088708F7
:1000F0008708870887081103440787088708870847
:1001000014048708870887088708870887088708EE
:100110008708870887088708870887088708870867
:1001200087088708550540006B63806B636B64002C
:1001300001D56B646B68800011241FBECFEFCDBF6B
:10014000DFE7DEBFE6E2F1E041E019C0B791A79139
:1001500037912791079107FD0EC097918791EF0185
:10016000F92FE82F0BBF07900D92A217B307D9F70D
:10017000FE011BBE04C01D92A217B307E1F7E733CF
:10018000F40721F70E94C8240C94A32DF894FFCF04
:100190005042494E00494E444F555400504254007D
:0501A000494E4454002B
:0F01A500434F4D4D4F555400434F4D4D494E0064
:0E01B400494E495400575343005265545800B9
:0D01C200546D725100546D7220537663002D
:0601CF0049444C45000309
:0101D50031F8
:1001D600CF93DF93CDB7DEB7C153D140CDBFDEBFDE
:1001E6000FEF1FEF20E040E061E070E08091466B8A
:1001F6009091476B0E944C1DB12C0F2EFFE42F2EC1
:10020600F02D0F2EFFE4DF2EF02DCF5CDE4F18828F
:10021600C153D14023E4C35DDE4F2883CD52D14084
:10022600412C512CC12C312C3E0135E6630E711C3C
:10023600E62CF72CC301A0E8C25DDE4F88839983C4
:10024600AA83CE52D14016E40F2EF7E4AF2EF02D3E
:1002560040E050E06E2D7F2D8091506B9091516B58
:100266000E94E91A813009F0C7C0D3018C9180350C
:1002760009F0C2C0C35DDE4FB881CD52D140B7345C
:10028600E1F018F4B33469F0B7C0C35DDE4FE8811E
:10029600CD52D140E23509F47BC0E93509F444C0BA
:1002A600ABC0D3011196DC90BB24B394B1E0CF5C14
:1002B600DE4FB883C153D1409FC0F30181818234A0
:1002C60031F0893589F5D82EBB24B3942DC0EFEFD4
:1002D600D301EC93FFE41196FC9301E02FEF3FEF7F
:1002E600C25DDE4F488159816A81CE52D1408091EC
:1002F600526B9091536B0E94D118D301AC92119618
:100306001C932FEF3FEFC25DDE4F488159816A8112
:10031600CE52D1408091526B9091536B0E94D1186E
:1003260088EC90E00E94D12C2FEFF30120833FE46C
:10033600318301E02FEF3FEFC25DDE4F48815981E7
:100346006A81CE52D1408091526B9091536B0E943C
:10035600D118E9E5D301EC9311961C932FEF3FEFEB
:10036600C25DDE4F488159816A81CE52D14080916B
:10037600526B9091536B0E94D11888EC90E00E94CA
:10038600D12CF1E0CF5CDE4FF883C153D14034C0AD
:10039600EFEFD301EC93FFE41196FC9301E02FEF0E
:1003A6003FEFC25DDE4F488159816A81CE52D1400E
:1003B6008091526B9091536B0E94D118EFEFD3014D
:1003C600EC9311961C932FEF3FEFC25DDE4F4881F1
:1003D60059816A81CE52D1408091526B9091536B74
:1003E6000E94D11888EC90E00E94D12CF1E0CF5CFD
:1003F600DE4FF883C153D14028EC30E048EC50E0A2
:100406006E2D7F2D80913E6B90913F6B0E94BF1C9D
:10041600882309F41DCFD3018C91BBE08B9FF0019B
:100426001124E050F04A9285953328F4933348F42A
:10043600913350F469C6933509F066C6411065C517
:100446007BC551102BC541C53320B9F090E030E093
:10045600E92FF0E0EE0FFF1F41E050E04C0F5D1F6B
:10046600E40FF51F2081821303C0C92E932D31E0BE
:100476009F5F931568F3313069F0E32DF0E0EE0FDE
:10048600FF1FA1E0B0E0AC0FBD1FEA0FFB1F80838A
:10049600C32C3394D3011196EC918E2F90E0FC017E
:1004A600E254F109E833F10508F02EC6E55AFF4F8C
:1004B6000C94B82DC35DDE4FB881CD52D140B23415
:1004C600B9F1B33409F083C0EC2DF0E0EE0FFF1F55
:1004D60021E030E02C0F3D1FE20FF31F8081D30196
:1004E60011968C93119782E68C930FEF1FEF22E003
:1004F60030E0C25DDE4F488159816A81CE52D140DB
:100506008091406B9091416B0E948C190F2EF2E402
:10051600DF2EF02DB1E0CF5CDE4FB883C153D14062
:10052600E2E4C35DDE4FE883CD52D1400C94D90A94
:10053600F1E0BF1621F022E0B21631F1E5C5EC2D4F
:10054600F0E0EE0FFF1F41E050E04C0F5D1FE40F9F
:10055600F51F82E4818382E6D3018C938081119614
:100566008C930FEF1FEF22E030E0C25DDE4F488133
:1005760059816A81CE52D1408091406B9091416BF6
:100586000E948C190C94DD0A82E6F3018083EC2D1F
:10059600F0E0EE0FFF1F21E030E02C0F3D1FE20FD1
:1005A600F31F8081D30111968C930FEF1FEF22E08A
:1005B60030E0C25DDE4F488159816A81CE52D1401A
:1005C6008091406B9091416B0E948C19EFC7C35D7F
:1005D600DE4F2881CD52D140F3012083EC2DF0E08F
:1005E600EE0FFF1F41E050E04C0F5D1FE40FF51FBB
:1005F6008081D30111968C930FEF1FEF22E030E03C
:10060600C25DDE4F488159816A81CE52D1408091C8
:10061600406B9091416B0E948C1976C5C35DDE4F8D
:10062600B881CD52D140B23409F06EC5E1E0BE12B8
:100636006BC5EC2DF0E0EE0FFF1F21E030E02C0F34
:100646003D1FE20FF31F82E48183B4C7C35DDE4F13
:100656003881CD52D140333439F0373409F46CC087
:10066600323409F0B7C034C0EC2DF0E0EE0FFF1FB6
:1006760041E050E04C0F5D1FE40FF51F87E48183D6
:1006860087E6D3018C93808111968C930FEF1FEF31
:1006960022E030E0C25DDE4F488159816A81CE5248
:1006A600D1408091406B9091416B0E948C190F2E26
:1006B600F7E4DF2EF02DB1E0CF5CDE4FB883C153F7
:1006C600D140E7E4C35DDE4FE883CD52D1406EC72B
:1006D600EC2DF0E0EE0FFF1F21E030E02C0F3D1F68
:1006E600E20FF31F87E4818387E6D3018C93808131
:1006F60011968C930FEF1FEF22E030E0C25DDE4FC4
:10070600488159816A81CE52D1408091406B909147
:10071600416B0E948C190F2EF7E4DF2EF02DB1E00D
:10072600CF5CDE4FB883C153D140E7E4C35DDE4FF3
:10073600E883CD52D1403AC7F1E0BF1621F022E05E
:10074600B21629F1E1C4EC2DF0E0EE0FFF1F41E0F7
:1007560050E04C0F5D1FE40FF51F87E4818387E6A9
:10076600D3018C93808111968C930FEF1FEF22E0BB
:1007760030E0C25DDE4F488159816A81CE52D14058
:100786008091406B9091416B0E948C1913C787E64C
:10079600F3018083EC2DF0E0EE0FFF1F21E030E047
:1007A6002C0F3D1FE20FF31F8081D30111968C930E
:1007B6000FEF1FEF22E030E0C25DDE4F4881598126
:1007C6006A81CE52D1408091406B9091416B0E94DC
:1007D6008C19ECC6C35DDE4F2881CD52D140F301A2
:1007E6002083EC2DF0E0EE0FFF1F41E050E04C0FB0
:1007F6005D1FE40FF51F8081D30111968C930FEFD7
:100806001FEF22E030E0C25DDE4F488159816A81E8
:10081600CE52D1408091406B9091416B0E948C19D1
:1008260073C4C35DDE4FB881CD52D140B73409F0F1
:100836006BC4E1E0BE1268C4EC2DF0E0EE0FFF1FC2
:1008460021E030E02C0F3D1FE20FF31F87E4818388
:10085600B1C6C35DDE4F3881CD52D140333489F005
:1008660020F4323409F441C0F6C0C35DDE4F48813E
:10087600CD52D140473409F46CC0493509F49DC0C6
:10088600EAC0EC2DF0E0EE0FFF1F81E090E08C0F48
:100896009D1FE80FF91F99E5918389E7D3018C9392
:1008A600808111968C930FEF1FEF22E030E0C25D3E
:1008B600DE4F488159816A81CE52D1408091406B8A
:1008C6009091416B0E948C190F2EF9E5DF2EF02DC9
:1008D600B1E0CF5CDE4FB883C153D140E9E5C35DDB
:1008E600DE4FE883CD52D14061C6EC2DF0E0EE0F2D
:1008F600FF1F21E030E02C0F3D1FE20FF31F39E50B
:10090600318389E7D3018C93808111968C930FEF05
:100916001FEF22E030E0C25DDE4F488159816A81D7
:10092600CE52D1408091406B9091416B0E948C19C0
:100936000F2EF9E5DF2EF02DB1E0CF5CDE4FB88348
:10094600C153D140E9E5C35DDE4FE883CD52D140C6
:100956002DC6EC2DF0E0EE0FFF1F21E030E02C0F4E
:100966003D1FE20FF31F39E5318389E7D3018C93ED
:10097600808111968C930FEF1FEF22E030E0C25D6D
:10098600DE4F488159816A81CE52D1408091406BB9
:100996009091416B0E948C190F2EF9E5DF2EF02DF8
:1009A600B1E0CF5CDE4FB883C153D140E9E5C35D0A
:1009B600DE4FE883CD52D140F9C5F1E0BF1621F0F4
:1009C60022E0B21629F1A0C3EC2DF0E0EE0FFF1FD6
:1009D60041E050E04C0F5D1FE40FF51F59E55183D0
:1009E60089E7D3018C93808111968C930FEF1FEFCB
:1009F60022E030E0C25DDE4F488159816A81CE52E5
:100A0600D1408091406B9091416B0E948C19D2C568
:100A160089E7F3018083EC2DF0E0EE0FFF1F21E064
:100A260030E02C0F3D1FE20FF31F8081D30111969A
:100A36008C930FEF1FEF22E030E0C25DDE4F48815E
:100A460059816A81CE52D1408091406B9091416B21
:100A56000E948C19ABC5C35DDE4F2881CD52D140B3
:100A6600F3012083EC2DF0E0EE0FFF1F41E050E094
:100A76004C0F5D1FE40FF51F8081D30111968C93F7
:100A86000FEF1FEF22E030E0C25DDE4F4881598153
:100A96006A81CE52D1408091406B9091416B0E9409
:100AA6008C1932C3C35DDE4FB881CD52D140B93502
:100AB60009F02AC3E1E0BE1227C3EC2DF0E0EE0FE9
:100AC600FF1F21E030E02C0F3D1FE20FF31F39E539
:100AD600318370C5EC2DF0E0EE0FFF1F41E050E0D2
:100AE6004C0F5D1FE40FF51F82E5818382E7D3017A
:100AF6008C93808111968C930FEF1FEF22E030E0EC
:100B0600C25DDE4F488159816A81CE52D1408091C3
:100B1600406B9091416B0E948C190F2EF2E5DF2EEF
:100B2600F02DB1E0CF5CDE4FB883C153D140E2E592
:100B3600C35DDE4FE883CD52D14038C5D30112964E
:100B46008C91873409F416C1893509F48CC0823436
:100B560009F0DAC2C35DDE4FB881CD52D140B3345D
:100B660039F0B23609F45DC0B23409F0CDC223C003
:100B760083E6F3018083EC2DF0E0EE0FFF1F21E00A
:100B860030E02C0F3D1FE20FF31F8081D301119639
:100B96008C930FEF1FEF22E030E0C25DDE4F4881FD
:100BA60059816A81CE52D1408091406B9091416BC0
:100BB6000E948C19A9C2B1E0BB1689F0C35DDE4F55
:100BC6002880CD52D140E1E0CF5CDE4FE883C153AF
:100BD600D140F3E4C35DDE4FF883CD52D14083E6C6
:100BE600D3018C93EC2DF0E0EE0FFF1F21E030E0F7
:100BF6002C0F3D1FE20FF31F808111968C930FEF90
:100C06001FEF22E030E0C25DDE4F488159816A81E4
:100C1600CE52D1408091406B9091416B0E948C19CD
:100C260073C283E6D3018C93EC2DF0E0EE0FFF1F29
:100C360021E030E02C0F3D1FE20FF31F808111965B
:100C46008C930FEF1FEF22E030E0C25DDE4F48814C
:100C560059816A81CE52D1408091406B9091416B0F
:100C66000E948C1951C2C35DDE4F3881CD52D140EE
:100C7600393541F1393709F45BC0333409F044C2E0
:100C860083E6D3018C93EC2DF0E0EE0FFF1F21E0FD
:100C960030E02C0F3D1FE20FF31F808111968C93DD
:100CA6000FEF1FEF22E030E0C25DDE4F4881598131
:100CB6006A81CE52D1408091406B9091416B0E94E7
:100CC6008C1922C231E0B31689F0C35DDE4F28804D
:100CD600CD52D14041E0CF5CDE4F4883C153D14075
:100CE60053E4C35DDE4F5883CD52D14083E6D30132
:100CF6008C93EC2DF0E0EE0FFF1F21E030E02C0F7F
:100D06003D1FE20FF31F808111968C930FEF1FEFAB
:100D160022E030E0C25DDE4F488159816A81CE52C1
:100D2600D1408091406B9091416B0E948C19ECC12F
:100D360083E6D3018C93EC2DF0E0EE0FFF1F21E04C
:100D460030E02C0F3D1FE20FF31F808111968C932C
:100D56000FEF1FEF22E030E0C25DDE4F4881598180
:100D66006A81CE52D1408091406B9091416B0E9436
:100D76008C19CAC1C35DDE4F3881CD52D14037349C
:100D860041F1373609F45BC0333409F0BDC183E65F
:100D9600D3018C93EC2DF0E0EE0FFF1F21E030E045
:100DA6002C0F3D1FE20FF31F808111968C930FEFDE
:100DB6001FEF22E030E0C25DDE4F488159816A8133
:100DC600CE52D1408091406B9091416B0E948C191C
:100DD6009BC131E0B31689F0C35DDE4F2880CD524A
:100DE600D14041E0CF5CDE4F4883C153D14053E44C
:100DF600C35DDE4F5883CD52D14083E6D3018C9339
:100E0600EC2DF0E0EE0FFF1F21E030E02C0F3D1F30
:100E1600E20FF31F808111968C930FEF1FEF22E0F4
:100E260030E0C25DDE4F488159816A81CE52D140A1
:100E36008091406B9091416B0E948C1965C183E64D
:100E4600D3018C93EC2DF0E0EE0FFF1F21E030E094
:100E56002C0F3D1FE20FF31F808111968C930FEF2D
:100E66001FEF22E030E0C25DDE4F488159816A8182
:100E7600CE52D1408091406B9091416B0E948C196B
:100E860043C1EC2DF0E0EE0FFF1F41E050E04C0FA8
:100E96005D1FE40FF51F83E4818336C190E030E0E7
:100EA600E92FF0E0EE0FFF1FA1E0B0E0AC0FBD1F91
:100EB600EA0FFB1F20A5821303C0C92E952D31E032
:100EC6009F5F951568F3313069F0E52DF0E0EE0F80
:100ED600FF1F21E030E02C0F3D1FE20FF31F80A71C
:100EE600C52C5394D30111968C91853409F40CC109
:100EF600EC2DF0E0EE0FFF1F21E030E02C0F3D1F40
:100F0600E20FF31F805281A7FFC090E030E0E92F87
:100F1600F0E0EE0FFF1F41E550E04C0F5D1FE40FC0
:100F2600F51F2081821303C0C92E942D31E09F5FE7
:100F3600941568F3313079F0E42DF0E0EE0FFF1FE1
:100F4600A1E5B0E0AC0FBD1FEA0FFB1F8083AA240A
:100F5600A394A40C02C0A42C4C2CF30181818F34E1
:100F660009F472C020F4833409F4A2C0CBC08235E0
:100F760019F08935A9F1C6C082E7D3018083E42D33
:100F8600F0E0EE0FFF1F21E530E02C0F3D1FE20FD2
:100F9600F31F808111968C930FEF1FEF22E030E054
:100FA600C25DDE4F488159816A81CE52D14080911F
:100FB600406B9091416B0E948C19C42C4A2C0F2EC9
:100FC600F2E5DF2EF02D31E0CF5CDE4F3883C153E2
:100FD600D14042E5C35DDE4F4883CD52D140E6C2E3
:100FE60089E7D3018083E42DF0E0EE0FFF1F21E5B2
:100FF60030E02C0F3D1FE20FF31F808111968C937A
:101006000FEF1FEF22E030E0C25DDE4F48815981CD
:101016006A81CE52D1408091406B9091416B0E9483
:101026008C19C42C4A2C0F2EF9E5DF2EF02D31E059
:10103600CF5CDE4F3883C153D14049E5C35DDE4FF7
:101046004883CD52D140B2C28FE6D3018083E42DCE
:10105600F0E0EE0FFF1F21E530E02C0F3D1FE20F01
:10106600F31F808111968C930FEF1FEF22E030E083
:10107600C25DDE4F488159816A81CE52D14080914E
:10108600406B9091416B0E948C19C42C4A2C0F2EF8
:10109600FFE4DF2EF02D31E0CF5CDE4F3883C15305
:1010A600D14043E4C35DDE4F4883CD52D1407EC27A
:1010B60083E6D3018083E42DF0E0EE0FFF1F21E5E8
:1010C60030E02C0F3D1FE20FF31F808111968C93A9
:1010D6000FEF1FEF22E030E0C25DDE4F48815981FD
:1010E6006A81CE52D1408091406B9091416B0E94B3
:1010F6008C19C42C4A2C33E4C35DDE4F3883CD52A1
:10110600D14002C0C42C4A2CD21409F4DBC041E001
:10111600B41621F052E0B512D5C085C08091626B3D
:10112600813009F0D6C0332009F465C2CE0101969C
:101136005C0188248A94830C912C9FEF891A990A62
:10114600880C991C8A0C9B1C91E0D50111968C91F8
:101156001197D816B1F0F301D0828C9181830FEFED
:101166001FEF22E030E0C25DDE4F488159816A817F
:10117600CE52D1408091406B9091416B0E948C1968
:1011860090E0F2E0AF0EB11CA814B904F1F65110CC
:1011960002C032C091E05E0129E2A20EB11C882491
:1011A6008A94850C912C3FEF831A930A880C991C1C
:1011B6008A0C9B1CD50111968C911197D816B1F00B
:1011C600F301D0828C9181830FEF1FEF22E030E094
:1011D600C25DDE4F488159816A81CE52D1408091ED
:1011E600406B9091416B0E948C1990E0F2E0AF0E3B
:1011F600B11CA814B904F1F6913009F4DEC11092BD
:10120600626B0E94AE2D0FEF1FEF20E030E0AC01C5
:1012160062E080914E6B90914F6B0E94162559C0EB
:101226006894BB24B1F88091626B813009F016C1D5
:10123600552009F446C05E0129E2A20EB11C88249D
:101246008A94850C912C3FEF831A930A880C991C7B
:101256008A0C9B1C91E0D50111968C9111978D15E6
:10126600B1F0F301D0828C9181830FEF1FEF22E062
:1012760030E0C25DDE4F488159816A81CE52D1404D
:101286008091406B9091416B0E948C1990E0F2E046
:10129600AF0EB11C8A149B04F1F6913009F49CC17F
:1012A6001092626B0E94AE2D0FEF1FEF20E030E030
:1012B600AC0162E080914E6B90914F6B0E941625B7
:1012C600CDC02D2C21E0B21621F032E0B312E6C0DB
:1012D600C5C0C35DDE4F4881CD52D140421161C0C9
:1012E6008091626B813009F0BCC0332099F1CE0148
:1012F60001965C0188248A94830C912C9FEF891AAD
:10130600990A880C991C8A0C9B1C91E0D5011196B0
:101316008C9111978334B1F0F301D0828C91818343
:101326000FEF1FEF22E030E0C25DDE4F48815981AA
:101336006A81CE52D1408091406B9091416B0E9460
:101346008C1990E0F2E0AF0EB11C8A149B04F1F602
:10135600913079F4C35DDE4F2880CD52D140222DE5
:10136600205EC35DDE4F2883CD52D140BB24B394AB
:1013760095C01092626B0E94AE2D0FEF1FEF20E01A
:1013860030E0AC0162E080914E6B90914F6B0E9411
:101396001625C35DDE4F2880CD52D140BB24B394C1
:1013A6007DC0C35DDE4F4881CD52D140242F30E051
:1013B600822D90E080962817390709F05AC080914F
:1013C600626B813009F058C0552009F458C05E019F
:1013D60059E2A50EB11C88248A94850C912C8FEFB6
:1013E600881A980A880C991C8A0C9B1C91E0D501D6
:1013F60011968C9111978334B1F0F301D0828C91C0
:1014060081830FEF1FEF22E030E0C25DDE4F48819F
:1014160059816A81CE52D1408091406B9091416B47
:101426000E948C1990E0F2E0AF0EB11C8A149B0466
:10143600F1F6913061F11092626B0E94AE2D0FEFC2
:101446001FEF20E030E0AC0162E080914E6B90919E
:101456004F6B0E941625BB24B39420C0D210AFC098
:10146600BDC0C35DDE4F2880CD52D140BB24B394AE
:1014760015C0BB24B39412C0BB24B3940FC0B12CC7
:1014860023E4C35DDE4F2883CD52D14007C0B12C83
:1014960033E4C35DDE4F3883CD52D140CF5CDE4F9F
:1014A6004881C153D140413011F00C942601D21429
:1014B60009F449C003C06894BB24B1F8EFEFD30127
:1014C600EC93FFE41196FC9300E02FEF3FEFC25D33
:1014D600DE4F488159816A81CE52D1408091526B4C
:1014E6009091536B0E94D118D3012C9216E4119659
:1014F6001C932FEF3FEFC25DDE4F488159816A8111
:10150600CE52D1408091526B9091536B0E94D1186C
:10151600F301D08211832FEF3FEFC25DDE4F48818A
:1015260059816A81CE52D1408091526B9091536B12
:101536000E94D118F1E0CF5CDE4FF883C153D14051
:101546000C942601B12CEFEFD301EC93FFE4119636
:10155600FC9300E02FEF3FEFC25DDE4F48815981DB
:101566006A81CE52D1408091526B9091536B0E940A
:10157600D118D3012C9283E511968C932FEF3FEF70
:10158600C25DDE4F488159816A81CE52D140809139
:10159600526B9091536B0E94D118D22CB1E0CF5C64
:1015A600DE4FB883C153D1400C942601D21038CEF9
:1015B600D22C54CFD210B2CD8CCE2D2C8ACECF5C6D
:1015C600DE4FE881C153D140E13009F474CF68940D
:1015D600BB24B1F80C9426012D2C01C02D2CCF5C18
:1015E600DE4FF881C153D140F13009F4ABCFD22C94
:0E15F600B12C0C9426015110CDCD2D2C6ACEB7
:10160400CF93DF93CDB7DEB7C95CD109CDBFDEBFC1
:101614000FEF1FEF20E040E061E070E08091466B47
:101624009091476B0E944C1DB12CCE0101963C0158
:1016340020E8822E582E972CA22E6E0185E0C80E2B
:10164400D11C2FEF3FEF41E050E0BE0167537F4FC5
:101654008091446B9091456B0E94BF1CC753DF4F30
:101664008881C95CD0408E3709F0C8C12FEF3FEFA5
:1016740041E050E0BE0167537F4F8091446B9091ED
:10168400456B0E94BF1CC753DF4FB880C95CD04074
:10169400BB2009F4B3C18E010F5F1F4FEE24EA94FF
:1016A400EB0CF12C9FEFE91AF90AE00EF11E2FEF73
:1016B4003FEF41E050E0BE0167537F4F8091446BA0
:1016C4009091456B0E94BF1CC753DF4F8881C95C52
:1016D400D040F80181938F01EE15FF0541F78EC1CB
:1016E4009A818091656B9813ACCF00E020E030E0E4
:1016F40040E050E060E080914A6B90914B6B0E9417
:10170400D1189FCF8B819091646B891721F0815000
:101714008E3F08F496CF8091616B811150C01EC139
:10172400A90192918E91981341C0EC15FD05C1F762
:1017340083C1E49EF001E59EF00D1124E050F04ACF
:101744009C818285981334C069834B2D50E04C50A2
:10175400510914161506BCF480E090E020E0EDE099
:10176400F0E0EC0FFD1FE80FF91F3081E2E0F0E03C
:10177400EC0FFD1FE80FF91F30832F5F822F90E0DD
:101784008417950764F3F4EFBF0E2B2D30E00FEFB1
:101794001FEF452D592D6A2D80913E6B90913F6B23
:1017A4000E948C196091616B81E003C08F2D01C090
:1017B4008F2D6F5F9091616B691750F081C060E06D
:1017C4000F2EFBE0EF2EF02D0F2EF9E4FF2EF02D5F
:1017D400FE013D96E69ED0011124A85FBF49262F45
:1017E40030E09ECF8B819091646B891721F08150FA
:1017F4008E3F08F426CF8091616B882309F466C07C
:1018040090E00F2EFBE0FF2EF02D0F2EFFE4EF2EC5
:10181400F02D292F30E0F29EF001F39EF00D1124FB
:10182400E050F04A4A8180854813FFC0F29EF001DF
:10183400F39EF00D1124E050F04A2C818285281388
:1018440036C0F99EF0011124E85FFF4928E0829137
:1018540081112FC02150D9F7FDC080E090E020E035
:10186400EDE0F0E0EC0FFD1FE80FF91F3081E2E03E
:10187400F0E0EC0FFD1FE80FF91F30832F5F822F7C
:1018840090E08417950764F324EFB20E2B2D30E01B
:101894000FEF1FEF452D592D6A2D80913E6B9091CE
:1018A4003F6B0E948C199091616B81E003C081E0D1
:1018B40001C08E2D9F5F2091616B921708F4A9CF10
:1018C400893409F44BC08F3409F0BBCE8091616B2D
:1018D4009BE0899FF0011124E050F04A9B8191879D
:1018E4009C8192879A81908710821182128213823E
:1018F400148215821682178291E0980F9093616B7F
:1019040089834B2D50E04C50510914161506BCF434
:1019140080E090E020E0EDE0F0E0EC0FFD1FE80F48
:10192400F91F3081E2E0F0E0EC0FFD1FE80FF91F32
:1019340030832F5F822F90E08417950764F3E4EFE0
:10194400BE0E2B2D30E00FEF1FEF682DA301809109
:101954003E6B90913F6B0E948C196FCE8091616BAE
:101964002BE0829FF0011124E050F04A9B81918783
:101974009C8192879A8190879D8190839E81918397
:101984009F81928398859383998594839A8595837F
:101994009B8596839C85978391E0980F9093616BC8
:1019A40089834B2D50E04C50510914161506BCF494
:1019B40080E090E020E0EDE0F0E0EC0FFD1FE80FA8
:1019C400F91F3081E2E0F0E0EC0FFD1FE80FF91F92
:1019D40030832F5F822F90E08417950764F384EFA0
:1019E400B80E2B2D30E00FEF1FEF682DA30180916F
:1019F4003E6B90913F6B0E948C191FCE00E020E05B
:101A040030E040E050E060E080914C6B90914D6B91
:101A14000E94D11889818F3409F4E4CE803509F409
:101A24005FCE893409F00DCE6DCE9F5F8091616BDE
:101A3400981708F4EECE4ACFE29EF001E39EF00D33
:101A44001124E050F04A9A818085981709F471CEE8
:101A54008F2DAFCE99834B2D50E04C505109141665
:081A640015060CF4FACE10CFB8
:101A6C00CF93DF93CDB7DEB7CE5ED109CDBFDEBF4E
:101A7C009EE7C952DF4F9883C75DD04082E0C852C1
:101A8C00DF4F8883C85DD04082E5C752DF4F888323
:101A9C00C95DD0408091656BC652DF4F8883CA5DAB
:101AAC00D040C552DF4F9883CB5DD0409CE0C452F0
:101ABC00DF4F9883CC5DD0409FE4C352DF4F9883B7
:101ACC00CD5DD040C252DF4F8883CE5DD040809137
:101ADC00646BC152DF4F8883CF5DD0408091636BC4
:101AEC00C052DF4F8883C05ED040CF51DF4F188289
:101AFC00C15ED040CE51DF4F1882C25ED040CD5176
:101B0C00DF4F1882C35ED040CC51DF4F1882C45EC9
:101B1C00D040CB51DF4F1882C55ED040CA51DF4F49
:101B2C001882C65ED0408FEFC951DF4F8883C75EE5
:101B3C00D040C851DF4F8883C85ED0400FEF1FEFF5
:101B4C0020E040E061E070E08091466B9091476B43
:101B5C000E944C1DB12C6E0129ECC20ED11C0F2E13
:101B6C00FEE76F2EF02D0F2EFFE47F2EF02D0F2EA3
:101B7C00FBE0AF2EF02DC601A0E8C751DF4F8883E4
:101B8C009983AA83C95ED040CE0185529F4F9C0198
:101B9C0040E8C451DF4F288339834A83CC5ED04060
:101BAC0004971C0130E8432E812C6894992493F8F7
:101BBC0020E030E048EC50E0BE016F5F7F4F809139
:101BCC00406B9091416B0E94BF1C39813F3FA9F43F
:101BDC00882309F480C00FEF1FEF2EE030E0C451D2
:101BEC00DF4F488159816A81CC5ED0408091426B35
:101BFC009091436B0E948C196EC0882309F46BC0C2
:101C0C000F2EFBE0BF2EF02DB80ED6016C92119664
:101C1C00BC92119712967C9212972091656B139639
:101C2C002C9313972091646B14962C9314972091FA
:101C3C00636B15962C9399277C01B1E0EB1AF10894
:101C4C00E1E0F0E0EC0FFD1FEE0DFF1DE081AE9E1C
:101C5C00F0011124E050F04A8081D60116968C9345
:101C6C001697818117968C931797828118968C936F
:101C7C001897838119968C93199784811A968C9353
:101C8C001A9785811B968C931B9786811C968C9337
:101C9C001C9787811D968C930FEF1FEF2EE030E081
:101CAC00C751DF4F488159816A81C95ED04080910C
:101CBC00426B9091436B0E948C199701C751DF4F77
:101CCC00488159816A81C95ED0408091426B909164
:101CDC00436B0E948C19B1106BCF64EF71E0809153
:101CEC004A6B90914B6B0E949015813009F060CF3C
:101CFC006FEF7FEF80914C6B90914D6B0E94901524
:101D0C000FEF1FEF24E030E0642DA1018091426BB6
:101D1C009091436B0E948C1984E50E948C2DF401E8
:101D2C008581806285836FEF7FEF8091486B909106
:101D3C00496B0E94901500E020E030E040E050E05C
:101D4C0060E080914C6B90914D6B0E94D11830CF1C
:101D5C00CF93DF9300D0CDB7DEB780E8809301043A
:101D6C0083E080934104C12CE12CF12C10E000E0C5
:101D7C006894AA24A6F8BB24B2F8DD24D3940F2EC1
:101D8C00FFE42F2EF02D0F2EF3E53F2EF02D0F2E0E
:101D9C00F6E44F2EF02D0F2EF2E45F2EF02D68940A
:101DAC00662461F8812C6894992492F868947724BD
:101DBC0077F808C0C12C05C0152D03C0152D01C026
:101DCC00142DED2C49E150E0BE016F5F7F4F8091E7
:101DDC00526B9091536B0E94E91A8130A9F489815E
:101DEC00873449F018F4823451F00EC0893529F04B
:101DFC008F3F39F009C00A8107C01A8105C0FA80EB
:101E0C0003C00A81F02E102F8091666B8130A9F4EB
:101E1C00C39485E0C81609F4ECC01092666B0634C6
:101E2C0009F43EC018F40234A9F063C00F3409F46D
:101E3C0056C0033509F449C05CC0063451F118F49E
:101E4C00023451F058C00F3409F44BC0033509F477
:101E5C003EC051C080E001C08E2DE11051C0C110B8
:101E6C004FC001C080E0F4017782F6E4FF1609F45C
:101E7C006FC0FF1528F092E4F91609F458C08CC015
:101E8C00EFE4FE1609F47FC0F3E5FF1609F472C007
:101E9C0083C0EE2009F4BEC08E2D32C0C12CE12CC3
:101EAC00F4017782F6E4FF1609F456C0FF1520F012
:101EBC0082E4F816A9F173C09FE4F91609F466C020
:101ECC00E3E5FE1609F459C06AC080E005C08E2D0A
:101EDC0003C0C12CE12C80E0F401758211C080E0BC
:101EEC0005C08E2D03C0C12CE12C80E0F40176825C
:101EFC0007C080E005C08E2D03C0C12CE12C80E012
:101F0C00F6E4FF1639F1FF1520F092E4F91649F0CA
:101F1C004BC0EFE4FE16E9F1F3E5FF1689F144C07E
:101F2C0080E0E11041C001C08E2DC1103AC0F50116
:101F3C006782163409F44CC020F4123409F443C0FF
:101F4C0039CF1F3409F450C0133509F448C032CFCF
:101F5C00C12CE12C811128C0F50167821634D9F10E
:101F6C0018F4123461F12DCF1F3409F43EC013352F
:101F7C00B9F127CFC12CE12C03C080E001C08E2D1C
:101F8C00F501658211C0C12CE12C03C080E001C0B9
:101F9C008E2DF501668208C0C12CE12C05C080E0B5
:101FAC0003C0E12C01C08E2D163499F018F41234B4
:101FBC0031F007CF1F34C9F0133591F002CFE11087
:101FCC00FBCEC110FBCEF501D782C12C152DF9CE5D
:101FDC00C12C8111F5CEF501D782142DF2CEC12C76
:101FEC00F501D582132DEDCEC12CF501D682122D23
:101FFC00E8CE1092666B063409F450CF20F402340C
:10200C0009F430CF7ACF0F3409F46DCF033509F4CE
:10201C0060CF73CFF4017782F6E4FF1609F49CCFFE
:10202C00FF1528F082E4F81609F47ECFBCCF9FE4AC
:10203C00F91609F4ADCFE3E5FE1609F4A0CFB3CF42
:10204C002F923F924F925F926F927F928F92AF92AC
:10205C00BF92CF92DF92EF920F931F93CF93DF93A8
:10206C001C013A01862E59012801C9010E94D92868
:10207C008C01892B09F417C18DE290E00E94D928BC
:10208C00EC01892B89F08DE2FE0111928A95E9F71A
:10209C000F8B188FF1E0AF1AB1080A0D1B1D6114DC
:1020AC007104810429F42FC0C8010E940E2EFBC0BC
:1020BC00F301582D0E94E12D698FF301582D0E94D8
:1020CC00E12D6623F9F09E01265E3F4FA82DC3013A
:1020DC000196A11D48E0640E711C811CFC015A2F55
:1020EC000E94E12DF90161939F01E82FF92F5A2FDE
:1020FC000196A11D0E94E12D662321F086159705FE
:10210C00A80561F718A2F3E0FE1520F40F2EF3E0FA
:10211C00EF2EF02DEE8AE9A25E0142E0A40EB11C76
:10212C00C5010E94F32DCE010C960E94F32DC88799
:10213C00D98784E090E08E1991098C879D87CA8B92
:10214C00DB8BA201B101C8010E94F92C8883998311
:10215C00C114D10419F0F601C083D1830FB6F894E1
:10216C000F928091606B8F5F8093606B8091326B6C
:10217C009091336B892BA9F5C093326BD093336B51
:10218C008091606B8130E9F58EEB9AE60E94642DAC
:10219C0087EC9AE60E94642D80ED9AE60E94642DED
:1021AC0089ED9AE60E94642D87E09BE60E94642DDF
:1021BC008EEF9AE60E94642D85EF9AE60E94642DBC
:1021CC008CEE9AE60E94642D87E09BE68093306B40
:1021DC009093316B8EEF9AE680932E6B90932F6BCE
:1021EC0010C080915E6B81110CC0E091326BF0914C
:1021FC00336B96898E89891720F0C093326BD093FC
:10220C00336B80915B6B8F5F80935B6B8E8990914E
:10221C005F6B981710F480935F6B90E0FC01EE0FEE
:10222C00FF1FEE0FFF1FEE0FFF1F8E0F9F1FFC01F6
:10223C00E254F5490180F281E02DEC83FD83848129
:10224C0095818E839F83A481B5811296AD92BC92A9
:10225C001397A482B582EE89F0E0CF01880F991F05
:10226C00880F991F880F991FE80FF91FE254F54941
:10227C00EA87FB8780818F5F80830F900FBE8091F0
:10228C005E6B882361F0E091326BF091336B968931
:10229C008E89981730F40E94712281E005C081E08C
:1022AC0003C081E001C08FEFDF91CF911F910F919F
:1022BC00EF90DF90CF90BF90AF908F907F906F900A
:0A22CC005F904F903F902F9008950F
:1022D6008F929F92AF92BF92CF92DF92EF92FF9230
:1022E6000F93CF93DF93DC01E114F10479F0FC0145
:1022F60084E0689FE00DF11D112483A094A0A5A0A1
:10230600B6A0F70180829182A282B38270E0FD01BD
:10231600E60FF71F83A592E093A70230F9F018F4B1
:10232600013031F049C0033069F10430B9F144C0DD
:10233600660F771F660F771FFD01E60FF71F83A055
:1023460094A0A5A0B6A0BA01A901482959296A29CD
:102356007B2943A354A365A376A32EC0660F771FDC
:10236600660F771FFD01E60FF71F43A154A165A174
:1023760076A14F5F5F4F6F4F7F4F43A354A365A373
:1023860076A31AC0660F771F660F771FFD01E60F4B
:10239600F71F23A334A345A356A30EC0823009F426
:1023A600B2C0660F771F660F771FFD01E60FF71F96
:1023B60023A334A345A356A3813009F0A6C0809178
:1023C6005A6B81116DC01A96ED91FC911B9714966C
:1023D600CD91DC91159716968D919C9117978C83CC
:1023E6009D831696CD91DC91179714968D919C91AD
:1023F60015978A839B839D012E5F3F4F8181928132
:102406008217930731F416968D919C9117978183C5
:1024160092831A961D921C921B978081815080830D
:1024260056968C91569790915F6B981710F48093FF
:102436005F6B90E0FC01EE0FFF1FEE0FFF1FEE0F2C
:10244600FF1F8E0F9F1FFC01E254F5490180F281A8
:10245600E02D1496ED93FC9315978481958116963D
:102466008D939C931797C481D5812A833B832483BC
:1024760035835696EC915697F0E0CF01880F991F59
:10248600880F991F880F991FE80FF91FE254F54925
:102496001A96ED93FC931B9780818F5F808320C0F3
:1024A60045EF5AE6FA01C181D2811E96CD93DC939F
:1024B6001F978C819D8150968D939C9351972C816B
:1024C6003D81CD010C96F901828393838C839D8394
:1024D60054964D935C935597FA0180818F5F808364
:1024E600E091326BF091336B56969C9186898917F1
:1024F60070F4C114D10419F081E0F601808381E003
:1025060080935D6B05C080E003C081E001C081E07F
:10251600DF91CF910F91FF90EF90DF90CF90BF901A
:08252600AF909F908F90089583
:10252E000F931F93CF93DF9380915A6B811102C14A
:10253E00C0912C6BD0912D6B8E010F5F1F4F0093AE
:10254E002C6B10932D6B01151105B9F48091306B26
:10255E009091316B20912E6B30912F6B2093306BBD
:10256E003093316B80932E6B90932F6B80915C6BBD
:10257E008F5F80935C6B0E943A2C8091286B9091B8
:10258E00296B0817190710F480E0B8C080E0E091BD
:10259E00306BF091316B9081911107C02FEF3FEFAF
:1025AE002093286B3093296BA9C0E091306BF0918A
:1025BE00316B0580F681E02D0680F781E02D2281BA
:1025CE0033810217130728F42093286B3093296B5D
:1025DE0095C0A285B3852481358146815781E90155
:1025EE004C835D832681378144815581E9014A837D
:1025FE005B83AF014E5F5F4F11962D913C91129709
:10260E002417350731F42681378111962D933C938B
:10261E001297128613869C9191509C93A489B5892A
:10262E00109719F12685378560897189E9016C83C8
:10263E007D832089318966857785E9016A837B836D
:10264E0011966D917C9112979F01245F3F4F6217F7
:10265E00730731F42089318911962D933C9312978B
:10266E00148A158A9C9191509C93268990915F6B48
:10267E00921710F420935F6B30E0D901AA0FBB1FA5
:10268E00AA0FBB1FAA0FBB1F2A0F3B1FD901A254B3
:10269E00B54911960D90BC91A02DA483B5831496C7
:1026AE002D913C9115972683378314962D913C914D
:1026BE001597E9014A835B8314964D935C931597A6
:1026CE00A689B0E09D01220F331F220F331F220F68
:1026DE00331FA20FB31FA254B549A287B3879C9193
:1026EE009F5F9C93A091326BB091336B2689569667
:1026FE009C91921708F04BCF81E049CFE091326B5D
:10270E00F091336B268930E0F901EE0FFF1FEE0FCB
:10271E00FF1FEE0FFF1F2E0F3F1FF901E254F54969
:10272E009081923008F081E090915D6B992361F079
:10273E0081E00AC080912A6B90912B6B0196809359
:10274E002A6B90932B6B80E0DF91CF911F910F91AD
:02275E000895DC
:102760008F929F92AF92BF92EF92FF920F93CF936F
:10277000DF93DC010FB6F8940F92E114F10479F0C5
:10278000FC0184E0689FE00DF11D112483A094A05A
:10279000A5A0B6A0F70180829182A282B38270E0E8
:1027A000FD01E60FF71F83A592E093A70230F9F031
:1027B00018F4013031F049C0033069F10430B9F147
:1027C00044C0660F771F660F771FFD01E60FF71FE6
:1027D00083A094A0A5A0B6A0BA01A90148295929AF
:1027E0006A297B2943A354A365A376A32EC0660F51
:1027F000771F660F771FFD01E60FF71F43A154A156
:1028000065A176A14F5F5F4F6F4F7F4F43A354A3E6
:1028100065A376A31AC0660F771F660F771FFD01A9
:10282000E60FF71F23A334A345A356A30EC082309F
:1028300009F487C0660F771F660F771FFD01E60F4B
:10284000F71F23A334A345A356A3813009F07BC00F
:102850001A96ED91FC911B971496CD91DC911597EA
:1028600016968D919C9117978C839D831696CD918A
:10287000DC91179714968D919C9115978A839B8371
:102880009D012E5F3F4F818192818217930731F422
:1028900016968D919C911797818392831A961D921B
:1028A0001C921B9780818150808356968C915697FD
:1028B00090915F6B981710F480935F6B90E0FC0130
:1028C000EE0FFF1FEE0FFF1FEE0FFF1F8E0F9F1F5C
:1028D000FC01E254F5490180F281E02D1496ED935C
:1028E000FC9315978481958116968D939C931797E9
:1028F000C481D5812A833B83248335835696EC910A
:102900005697F0E0CF01880F991F880F991F880F05
:10291000991FE80FF91FE254F5491A96ED93FC93BD
:102920001B9780818F5F8083E091326BF091336BD6
:1029300056969C918689891740F40E94712281E005
:1029400005C080E003C081E001C081E00F900FBEB0
:10295000DF91CF910F91FF90EF90BF90AF909F903C
:042960008F900895B7
:102964001F93CF93DF930FB6F8940F9280915A6B15
:10297400815080935A6B80915A6B8111C6C08091AB
:10298400606B81119BC0C4C0DB011596ED91FC9175
:1029940016970680F781E02DA489B58986859785E9
:1029A40020893189EC012C833D8380899189268596
:1029B4003785EC012A833B83CF010C9611962D9128
:1029C4003C9112972817390731F48089918911961F
:1029D4008D939C931297148A158A8C9181508C93B1
:1029E400A285B3858481958126813781EC012C836E
:1029F4003D838681978124813581EC012A833B8341
:102A04009F012E5F3F4F11968D919C9112978217D3
:102A1400930731F48681978111968D939C93129735
:102A2400128613868C9181508C93868990915F6B6A
:102A3400981710F480935F6B90E0DC01AA0FBB1F22
:102A4400AA0FBB1FAA0FBB1F8A0F9B1FDC01A25436
:102A5400B54911960D90BC91A02DA483B58314960D
:102A64008D919C9115978683978314968D919C9153
:102A74001597EC012A833B8314962D933C93159769
:102A8400A689B0E0CD01880F991F880F991F880F80
:102A9400991FA80FB91FA254B549A287B3878C9177
:102AA4008F5F8C93A091326BB091336B968956965D
:102AB4008C91981740F040935D6B05C0E0E0F0E026
:102AC40065EF7AE641E0DB018C9181115DCFEF2B5C
:102AD40011F00E943A2CC0912A6BD0912B6B209755
:102AE40061F011E00E949712811110935D6B2197A0
:102AF400C9F710922A6B10922B6B80915D6B88231F
:102B040031F00E94712281E003C080E001C080E0C6
:0C2B14000F900FBEDF91CF911F9108952C
:102B20002F923F924F926F927F928F92CF92DF922D
:102B3000EF92FF920F931F93CF93DF93CDB7DEB742
:102B40002597CDBFDEBF8C016C837D83C12CD12C3A
:102B50003C0180E8882E7801E1E1EE0EF11C0FB611
:102B6000F8940F92F801828D8823E1F08150828FD2
:102B700080819181892B29F40E94312DF801848371
:102B80009583F8018085882349F0085F1F4FB801BD
:102B900080E80E940E1881110E9471220F900FBED2
:102BA00081E089C08C819D81892B21F40F900FBE1B
:102BB00080E081C0D11006C0CE0101960E94982D00
:102BC000DD24D3940F900FBE0E94E82D0FB6F89429
:102BD0000F92F801858D8F3F09F4158EF801868DCF
:102BE0008F3F09F4168E0F900FBEBE016C5F7F4FB2
:102BF000CE0101960E944D2981112AC0882DB30172
:102C00000E94432D8823F1F0F80180819181892B66
:102C100051F40FB6F8940F92848195810E942B1C79
:102C2000C82E0F900FBE6C817D81C7010E941F2DA1
:102C3000C8010E94D2230E94B214811190CF0E9439
:102C400071228DCFC8010E94D2230E94B21487CF77
:102C5000C8010E94D2230E94B214882DB3010E94A1
:102C6000432D882309F47BCFCC2021F10FB6F894B3
:102C70000F92A82DC3014196A11DFC015A2F0E945D
:102C8000E12D662369F0A82DC3014696A11DFC0124
:102C90005A2F0E94C12DFB01808164E0681B01C096
:102CA00060E0F801848195810E943E1F0F900FBE65
:102CB00080E001C080E02596CDBFDEBFDF91CF91DF
:102CC0001F910F91FF90EF90DF90CF908F907F90AA
:0A2CD0006F904F903F902F900895F1
:102CDA00CF93DF93CDB7DEB72697CDBFDEBFCE0148
:102CEA0001965C01082F1B2DE0913C6BF0913D6B26
:102CFA008081882309F4B3C00580F681E02DE08045
:102D0A00F1800E94E82DC5010E94DB276C018981B0
:102D1A0081111BC0CE14DF0438F00E94B214B60130
:102D2A00C7010E94EC2A8EC040E0B7016C197D09E8
:102D3A008091386B9091396B0E941D2C0E94B214BD
:102D4A00811180C00E9471227DC00E94B2147AC093
:102D5A00898188230CF476C0EC80FD80D7011B960C
:102D6A008D919C911C97892B21F0C70103960E9493
:102D7A00942BCE0106960E94DB276C01E9818E2FE7
:102D8A00EE0F990BAA0BBB0BFC013197E930F10549
:102D9A0008F058C0EE5AFF4F0C94B82DF7018389FA
:102DAA008160838B2A813B8165857685620F731FDB
:102DBA00A601C7010E94BD2A882309F443C0D7018E
:102DCA0053968C91539782FF0DC06A817B811D9621
:102DDA008D919C911E97680F791FA601C7010E94C9
:102DEA00BB2B03C08E7FF701838BD7015196ED91E0
:102DFA00FC915297C701099525C0F70183898E7FF7
:102E0A00838B20C0D70153968C9153978160539638
:102E1A008C9353976A817B811D966D937C931E9741
:102E2A006C0D7D1D9601A601C7010E94BD2A0AC02C
:102E3A00F701838981FD04C0C7010E940E2E02C0DA
:102E4A008E7F838B40E050E0602F712F8091386B2A
:102E5A009091396B0E94E91A81117ACF45CF0E946D
:102E6A00E82DC5010E94DB276C01898181116DCF94
:102E7A00E0913A6BF0913B6B808141E0811140E037
:062E8A00E12CF12C52CFF7
:102E90006F927F928F92EF92FF920F931F93CF9337
:102EA000DF93CDB7DEB72997CDBFDEBF8EE789832D
:102EB00082E08A8382E58B838091656B8C836FEFE0
:102EC0007FEF80914C6B90914D6B0E9490158FEF2E
:102ED0008D8386E48E833E0185E0680E711CE0E8F8
:102EE0008E2E00E02FEF3FEF682DA3018091526BF3
:102EF0009091536B0E94D1182FEF3FEF41E050E0CB
:102F0000BE01695F7F4F8091446B9091456B0E9439
:102F1000BF1C8F818E3741F52FEF3FEF41E050E02E
:102F2000BE01695F7F4F8091446B9091456B0E9419
:102F3000BF1C1F811123C1F07E01F8E0EF0EF11CD0
:102F400011502FEF3FEF41E050E0BE01695F7F4F2E
:102F50008091446B9091456B0E94BF1C8F81F7015B
:102F600081937F011111ECCF8885803529F69985F1
:102F70008091656B9813C0CFAE014F5F5F4F60E8E3
:102F80000FEF1FEF24E030E08091426B9091436B94
:102F90000E948C1984E50E948C2DE0E0F8E0858188
:102FA000806485838581806285836FEF7FEF809168
:102FB000486B9091496B0E9490158FE48E8300E0DE
:102FC0002FEF3FEF682DA3018091526B9091536BCF
:102FD0000E94D11820E030E040E050E060E08091B5
:102FE0004C6B90914D6B0E94D11861E070E0809124
:102FF000466B9091476B0E94551E80E090E00E94C6
:103000007C232996CDBFDEBFDF91CF911F910F9119
:0C301000FF90EF908F907F906F900895DC
:10301C00CF93DF93A82FCB010596A11DFC015A2F4E
:10302C000E94C12DDB011696ED91FC911797A48996
:10303C00B589C685D785808991898C839D83C08904
:10304C00D189868597858A839B839F01245F3F4F17
:10305C0011968D919C9112978217930731F4808968
:10306C00918911968D939C931297148A158A8C9141
:10307C0081508C9380915A6B811160C0A285B3856D
:10308C00C481D581868197818C839D83C681D781AC
:10309C00848195818A839B839F012E5F3F4F11967C
:1030AC008D919C9112978217930731F486819781A9
:1030BC0011968D939C931297128613868C91815046
:1030CC008C93868990915F6B981710F480935F6B4B
:1030DC0090E0DC01AA0FBB1FAA0FBB1FAA0FBB1FDE
:1030EC008A0F9B1FDC01A254B54911960D90BC911F
:1030FC00A02DA483B58314968D919C9115978683EE
:10310C0097831496CD91DC9115972A833B83149663
:10311C002D933C931597A689B0E0CD01880F991F8C
:10312C00880F991F880F991FA80FB91FA254B54972
:10313C00A287B3878C918F5F8C931CC045EF5AE6A6
:10314C00DA011196CD91DC911297C687D7878C81C5
:10315C009D81808B918B8C819D81DC0112962D93AE
:10316C003C9313972C833D83448B558BDA018C91C4
:10317C008F5F8C93A091326BB091336B968956967E
:10318C008C91891720F481E080935D6B01C080E005
:06319C00DF91CF910895C0
:1031A2002F923F924F926F927F928F92CF92DF92A5
:1031B200EF92FF920F931F93CF93DF93CDB7DEB7BA
:1031C2002897CDBFDEBF7C014E835F8368872C8347
:1031D2003D8310E03C0180E8882E1301482CEAE18F
:1031E2002E0E311C411CFBE16F0E711C811C67010C
:1031F20088E0C80ED11C0FB6F8940F92F701928D99
:10320200838D981710F00230F1F4202F4E815F81E8
:103212006885C7010E941222F7019189992361F002
:10322200F1E1EF0EF11CB70180E80E940E1888232D
:1032320031F00E94712203C081110E9471220F900D
:103242000FBE81E056C08C819D81892B21F40F90A5
:103252000FBE80E04EC0111105C0CE0101960E9442
:10326200982D11E00F900FBE0E94E82D0FB6F89432
:103272000F92F701858D8F3F09F4158EF701868D28
:103282008F3F09F4168E0F900FBEBE016C5F7F4F09
:10329200CE0101960E944D29811125C00FB6F894E6
:1032A2000F92F101542D0E94E12D862F0F900FBE37
:1032B200F301582D0E94E12D86130FC06C817D8190
:1032C200C6010E941F2DC7010E94D2230E94B21480
:1032D200811191CF0E9471228ECFC7010E94D22309
:1032E2000E94B21488CFC7010E94D2230E94B21456
:1032F20080E02896CDBFDEBFDF91CF911F910F9165
:10330200FF90EF90DF90CF908F907F906F904F90D3
:063312003F902F9008958A
:103318004F925F926F927F928F929F92AF92BF92DD
:10332800CF92DF92EF92FF920F931F93CF93DF9389
:10333800CDB7DEB72897CDBFDEBF5C014E835F8374
:10334800688729010C831D83FC018481958101977D
:10335800268520FF0AC03201F2E06F0E711C861527
:10336800970540F41C821D8243C0320184159505DF
:1033780008F43C018C819D81892B09F439C0CE0168
:1033880001960E94542D0FB6F8940F92C5010E9421
:103398005D284C018615970530F560E080E090E0E7
:1033A8000E94712C0E94EE2DF501828793870F9061
:1033B8000FBECC80DD80E12CF12C00E010E09801FC
:1033C80040E050E0BA0180E00E948A1BF5011286B5
:1033D8001386BE016C5F7F4FCE0101960E944D2976
:1033E800882389F202C00F900FBE8114910421F442
:1033F800C5010E945D284C017301840192014E8130
:103408005F816885C5010E9478246C01892B09F1C8
:10341800B50180E80E94172BF501268137818217B4
:103428009307B8F00E94E82DF50180859185892BD6
:1034380071F080859185E12CF12C00E020E030E0EE
:10344800A90160E00E94B013F501108611860E9460
:10345800B214C6012896CDBFDEBFDF91CF911F9170
:103468000F91FF90EF90DF90CF90BF90AF909F901B
:0C3478008F907F906F905F904F900895B0
:10348400CF93DF93DC0170686D937C93119716964C
:10349400ED91FC91179718964D915C91199712969E
:1034A4008D919C91139714962D913C911597EC0155
:1034B4002C833D8314968D919C91159712962D9192
:1034C4003C911397EC012A833B83EA0189819A8119
:1034D400A817B90731F414968D919C911597898397
:1034E4009A8318961D921C921997DA018C91815037
:1034F4008C93A285B385C481D581868197818C8381
:103504009D83C681D781848195818A839B839F0112
:103514002E5F3F4F11968D919C91129782179307BE
:1035240031F48681978111968D939C93129712861C
:1035340013868C9181508C93868990915F6B981738
:1035440010F480935F6B90E0DC01AA0FBB1FAA0FFD
:10355400BB1FAA0FBB1F8A0F9B1FDC01A254B549D6
:1035640011960D90BC91A02DA483B58314968D91D2
:103574009C911597868397831496CD91DC9115972A
:103584002A833B8314962D933C931597A689B0E028
:10359400CD01880F991F880F991F880F991FA80FB5
:1035A400B91FA254B549A287B3878C918F5F8C93BE
:1035B400A091326BB091336B968956968C91891792
:0E35C40018F481E080935D6BDF91CF91089544
:1035D2006F927F928F92AF92BF92CF92DF92EF92D1
:1035E200FF920F931F93CF93DF93CDB7DEB725974B
:1035F200CDBFDEBF8C015B014C835D83E12C3C01BE
:1036020080E8882E6801E1E1CE0ED11C0FB6F89455
:103612000F92F801F28CFF20B9F0B501C8010E94A7
:10362200562CFA94F801F28E8085882349F0085FBF
:103632001F4FB80180E80E940E1881110E9471226A
:103642000F900FBE81E054C08C819D81892B21F4A3
:103652000F900FBE80E04CC0E11006C0CE01019673
:103662000E94982DEE24E3940F900FBE0E94E82D45
:103672000FB6F8940F92F801858D8F3F09F4158EDD
:10368200F801868D8F3F09F4168E0F900FBEBE0192
:103692006C5F7F4FCE0101960E944D2981111BC0A4
:1036A200882DB3010E94432D882379F06C817D819E
:1036B200C6010E941F2DC8010E94D2230E94B2148B
:1036C2008111A4CF0E947122A1CFC8010E94D223EE
:1036D2000E94B2149BCFC8010E94D2230E94B2144E
:1036E200882DB3010E94432D882309F48FCF80E0F7
:1036F2002596CDBFDEBFDF91CF911F910F91FF9035
:10370200EF90DF90CF90BF90AF908F907F906F90AF
:02371200089518
:103714008F929F92AF92BF92CF92DF92EF92FF92DD
:103724000F931F93CF93DF93480159010FB6F89479
:103734000F92E091326BF091336BC82FD0E0EC0F15
:10374400FD1F83A5823061F1E091326BF091336B00
:10375400CE01880F991F880F991FE80FF91F83A1C5
:1037640094A1A5A1B6A14095509560957095482364
:1037740059236A237B2343A354A365A376A3E0912F
:10378400326BF091336BEC0FFD1F81E083A7C11402
:10379400D10431F061E0C6010E94D41D0E9471225F
:1037A4000F900FBE0FB6F8940F92E114F104A1F03C
:1037B400E091326BF091336BCE01880F991F880F23
:1037C400991FE80FF91F83A194A1A5A1B6A1F70140
:1037D40080839183A283B383E091326BF091336B46
:1037E400EC0FFD1F83A58230E9F4E091326BF09178
:1037F400336BCE01880F991F880F991FE80FF91FAB
:1038040083A194A1A5A1B6A180949094A094B0940E
:1038140088229922AA22BB2283A294A2A5A2B6A29C
:1038240081E001C080E02091326B3091336BC20F94
:10383400D31F1BA60F900FBEDF91CF911F910F9145
:10384400FF90EF90DF90CF90BF90AF909F908F90BC
:023854000895D5
:103856000F931F93CF93DF93FC01892B09F486C046
:103866002689A091326BB091336B56968C912817AE
:1038760008F070C084859585992364F0A091326B19
:10388600B091336B56963C9184E090E0831B91098E
:103896008487958730E0C901880F991F880F991F83
:1038A600880F991F280F391F225435498285938521
:1038B6008217930709F045C0EF018F010E5F1F4F76
:1038C600C8010E94942BE091326BF091336B86898C
:1038D6008E8B90915F6B981710F480935F6B90E0DE
:1038E600FC01EE0FFF1FEE0FFF1FEE0FFF1F8E0FE7
:1038F6009F1FFC01E254F5490180F281E02DEC8323
:10390600FD83848195818E839F83A481B5811296E0
:103916000D931C931397048315838E8990E0FC0105
:10392600EE0FFF1FEE0FFF1FEE0FFF1FE80FF91F31
:10393600E254F549EA87FB8780818F5F808381E0C7
:1039460016C0A091326BB091336B56968C91868BD4
:1039560081E00DC0A091326BB091336B81E021A163
:1039660056969C91291718F080E001C080E0DF91FF
:08397600CF911F910F910895FC
:10397E002F923F924F925F926F928F929F92AF9241
:10398E00BF92CF92DF92EF92FF920F931F93CF933E
:10399E00DF93EC011B014A0169018E8580FD03C096
:1039AE00A12CB12C04C06894AA24A1F8B12CC11486
:1039BE00D10479F10FB6F8940F922E0180E8682E9B
:1039CE00862DB2010E94172B8C01A816B90648F05D
:1039DE0060E080E090E00E94712C0E94EE2D8887BE
:1039EE0099870F900FBEA016B106D8F0E12CF12CDE
:1039FE0000E010E0980140E050E0BA0180E00E9443
:103A0E008A1B18861986862DB2010E94172B8C01EF
:103A1E0005C0BE0180E80E94172B8C01A016B106CE
:103A2E00F8F49801A401B101CE010E94F6255C01C3
:103A3E00892BC1F00E94E82D8A859B85892B69F020
:103A4E008A859B85E12CF12C00E020E030E0A90175
:103A5E0060E00E94B0131A861B860E94B21402C048
:103A6E00A12CB12CC501DF91CF911F910F91FF9029
:103A7E00EF90DF90CF90BF90AF909F908F906F9010
:0A3A8E005F904F903F902F90089535
:103A9800AF92BF92CF92DF92EF92FF920F931F9354
:103AA800CF93DF937C016B01A42EB22E0E94E82DE8
:103AB800F701C081D181B11008C081E09E012C219D
:103AC8003D21232B51F480E008C081E09E012C2188
:103AD8003D212C153D0509F080E0882361F0AA20DE
:103AE80009F450C0B601609570956C237D23F701E9
:103AF8006083718347C00115110509F443C0AA20EA
:103B080019F060E071E002C060E070E0B11074602C
:103B18006C297D29A801C70102960E94CA260E9425
:103B2800B214811102C00E9471220E94A42C91FD3E
:103B380026C00FB6F8940F92F70180819181B110D9
:103B480008C021E0A60148235923452B51F420E061
:103B580008C021E0A601482359234C155D0509F04A
:103B680020E0222351F0AA2041F0B601609570951B
:103B780068237923F701608371830F900FBEEC01EE
:103B8800DD2702C00E94B214CE01DF91CF911F91B0
:103B98000F91FF90EF90DF90CF90BF90AF90089576
:103BA800FF920F931F93CF93DF93EC01F62E0091B2
:103BB8002C6B10912D6B8091326B9091336B029628
:103BC8000E94942BCF3F8FEFD807B1F5FF20A1F1CA
:103BD800ECEEFAE6A181B281C091326BD091336BE1
:103BE800AC83BD83C091326BD091336B14968D91A9
:103BF8009C9115978E839F831496CD91DC91159790
:103C08008091326B9091336B02968A839B8380916B
:103C1800326B9091336B029614968D939C93159703
:103C2800A091326BB091336B1A96ED93FC931B976E
:103C380080818F5F80832FC0C00FD11FE091326BCE
:103C4800F091336BC283D383C017D10768F46091B6
:103C5800326B7091336B80912E6B90912F6B6E5FEE
:103C68007F4F0E945C2A17C06091326B7091336B52
:103C78008091306B9091316B6E5F7F4F0E945C2A10
:103C88008091286B9091296BC817D90720F4C093AD
:103C9800286BD093296BDF91CF911F910F91FF90E3
:023CA80008957D
:103CAA006F927F928F92BF92CF92DF92EF92FF92A2
:103CBA000F931F93CF93DF93EC018B013C0182E0BA
:103CCA00680E711C80E8882EE82C630183E0C80E18
:103CDA00D11CE11C0E94E82D85E0680E711C811C34
:103CEA00F301582D0E94C12DFB0188819981082B6F
:103CFA00192B0883198300E010E028C0B280F380F2
:103D0A00808191819C01332792FD09C06881798164
:103D1A006223732341E0672B59F440E009C06881AC
:103D2A0079816223732341E06217730709F040E047
:103D3A00442351F090FF02C0022B132B6881798132
:103D4A007260CF010E94421AEB2DFF2DCF01A0E82D
:103D5A00C816D906EA0691F60095109588819981C8
:103D6A0008231923088319830E94B2148881998130
:103D7A00DF91CF911F910F91FF90EF90DF90CF903D
:0A3D8A00BF908F907F906F90089516
:103D9400CF92DF92EF92FF920F931F9380E880936C
:103DA400610440E061E083E00E9499278093546BB2
:103DB4009093556B40E062E083E00E9499278093E2
:103DC400526B9093536B40E062E083E00E9499272A
:103DD4008093506B9093516BC12CD12C6894EE243A
:103DE400E1F800E010E02AEF30E040E951E060E063
:103DF4008BEE90E20E9426102AEF30E045E951E074
:103E040060E08EEA9EE00E9426100F2EFFEFEF2E58
:103E1400FDE2FF2EF02D20E044EF51E06CE971E06B
:103E240080E00E9413298093586B9093596B0F2E56
:103E3400F3E0EF2EFEE2FF2EF02D21E042E350E00E
:103E440060EA71E080E00E9413298093566B90939E
:103E5400576B0E94AE2D20E030E0AC0161E0809110
:103E6400566B9091576B0E9416251F910F91FF90EE
:083E7400EF90DF90CF9008955C
:103E7C000F931F93CF93DF93FC01892B09F466C03A
:103E8C0091A1961708F4962F8689891709F45EC0BC
:103E9C0022A1213009F05AC0968B24853585332315
:103EAC0034F024E030E0291B31092487358790E079
:103EBC009C01220F331F220F331F220F331F820F3F
:103ECC00931F825495492285338528173907F1F5BC
:103EDC00EF018F010E5F1F4FC8010E94942B8E893A
:103EEC0090915F6B981710F480935F6B90E0FC01DE
:103EFC00EE0FFF1FEE0FFF1FEE0FFF1F8E0F9F1F0A
:103F0C00FC01E254F5490180F281E02DEC83FD8344
:103F1C00848195818E839F83A481B58112960D93A4
:103F2C001C931397048315838E8990E0FC01EE0F8C
:103F3C00FF1FEE0FFF1FEE0FFF1FE80FF91FE254DC
:103F4C00F549EA87FB8780818F5F8083DF91CF9172
:063F5C001F910F91089572
:103F6200CF92DF92EF920F931F9381E00E94002C79
:103F720080934C6B90934D6B00E010E020E030E0BA
:103F820040E061E070E082E390E00E94BD2980930E
:103F9200446B9093456B20E030E040E061E070E0DC
:103FA20080E991E00E94BD298093426B9093436B1C
:103FB20020E030E041E060E070E088EC90E00E94B8
:103FC200BD298093406B9093416B43E060E081E0B8
:103FD2000E94992780934A6B90934B6B43E060E079
:103FE20081E00E9499278093486B9093496B0E94CD
:103FF2000C2D8093466B9093476BC12CD12C0F2EC6
:10400200F3E0EF2EF02D24EF31E045EA51E060E0DD
:1040120086E39DE00E9426106894EE24E2F820E9EF
:1040220031E04DEA51E060E082E09BE00E94261020
:104032000E94BB2C1F910F91EF90DF90CF900895BB
:1040420080915A6B882321F081E080935D6B089503
:1040520010925D6B20915F6B822F90E0FC01EE0F5E
:10406200FF1FEE0FFF1FEE0FFF1FE80FF91FE254B5
:10407200F5493081311111C02150822F90E0FC01AD
:10408200EE0FFF1FEE0FFF1FEE0FFF1FE80FF91FCE
:10409200E254F5493081332379F3AC01440F551FC3
:1040A200440F551F440F551F480F591FDA01A254E0
:1040B200B5491196ED91FC9112970280F381E02DA2
:1040C2001196ED93FC9312974F535549E417F50758
:1040D20029F442815381FD0141835283FC01EE0F99
:1040E200FF1FEE0FFF1FEE0FFF1F8E0F9F1FFC0122
:1040F200E254F5490180F281E02D86819781809317
:0C410200326B9093336B20935F6B089539
:10410E00EF92FF920F931F93CF93DF93FC01362F05
:10411E00892B09F44DC0238D222309F44BC0022FA5
:10412E0010E0448DE42EF12C8FEF9FEFB8010E942A
:10413E00E52C6E157F0508F43FC0EF010FB6F8941D
:10414E000F9260817181CB01249F800D911D1124EE
:10415E0084839583128E62837383015011090E9DA1
:10416E00C0010F9D900D1E9D900D1124860F971F5F
:10417E00868397838FEF858F868F31110DC0808553
:10418E00882391F02896BE0180E80E940E1888239D
:10419E0059F00E94712208C0CF0108960E94642D2A
:1041AE00CE0141960E94642D0F900FBE81E005C096
:1041BE0080E003C080E001C080E0DF91CF911F91CD
:0841CE000F91FF90EF9008959E
:1041D600CF93DF9300D00F92CDB7DEB7E0E6F4E0E1
:1041E60088E682839BE09387848780E58A831B82A7
:1041F600E12C3E0182E0680E711C80E8882E4FEFAC
:104206005FEFBE016F5F7F4F8091546B9091556B4E
:104216000E94E91AF980EF1021C08091676B813006
:1042260071F7EB8201E02FEF3FEF682DA30180913C
:10423600506B9091516B0E94D1181092676B0E943F
:10424600AE2D0FEF1FEF20E030E0AC0162E0809171
:10425600586B9091596B0E941625D1CFFB8201E0D5
:104266002FEF3FEF682DA3018091506B9091516B1A
:104276000E94D1181092676B0E94AE2D0FEF1FEFB0
:1042860020E030E0AC0162E08091586B9091596B70
:084296000E941625EF2CB3CFA6
:10429E000F931F93CF93DF93FC01892B09F451C029
:1042AE0082A1815082A3268991A1291709F44BC0BE
:1042BE0081114BC0EF018F010E5F1F4FC8010E948D
:1042CE00942B89A18E8B24E030E0281B31092C879A
:1042DE003D8790915F6B981710F480935F6B90E021
:1042EE00FC01EE0FFF1FEE0FFF1FEE0FFF1F8E0FD5
:1042FE009F1FFC01E254F5490180F281E02DEC8311
:10430E00FD83848195818E839F83A481B5811296CE
:10431E000D931C93139704831583EE89F0E0CF0160
:10432E00880F991F880F991F880F991FE80FF91F83
:10433E00E254F549EA87FB8780818F5F808381E0B5
:10434E0005C080E003C080E001C080E0DF91CF9126
:06435E001F910F9108956C
:104364000F920FB6F8940F920BB60F921F9211246E
:104374002F923F924F925F926F927F928F929F9271
:10438400AF92BF92CF92DF92EF92FF920F931F935F
:104394002F933F934F935F936F937F938F939F9349
:1043A400AF93BF93CF93DF93EF93FF93A091326BBF
:1043B400B091336B0DB60D920EB60D920E9497120A
:1043C40081110E942120A091326BB091336BCD9169
:1043D400CDBFDD91DEBFFF91EF91DF91CF91BF9112
:1043E400AF919F918F917F916F915F914F913F9189
:1043F4002F911F910F91FF90EF90DF90CF90BF907E
:10440400AF909F908F907F906F905F904F903F9070
:104414002F901F900F900BBE0F900FBE0F9018950A
:104424000F931F93CF93DF93EC01022F1A8D2C8DE2
:1044340021110CC088819981892B09F042C08C819B
:104444009D810E944F211C821D8242C0011117C010
:1044540030E08A819B810E948B2C2C8D8A819B81E8
:10446400820F911D8A839B832C813D818217930740
:1044740050F1888199818A839B8380E029C030E050
:104484008E819F810E948B2C8C8D90E091958195DB
:1044940091092E813F81280F391F2E833F83488144
:1044A40059812417350730F42C813D81820F931FE5
:1044B4008E839F83023049F4112349F0115080E028
:1044C40007C080E005C080E003C080E001C080E058
:0E44D4001F5F1A8FDF91CF911F910F910895F6
:1044E2000F920FB6F8940F920BB60F921F921124EF
:1044F2002F923F924F925F926F927F928F929F92F2
:10450200AF92BF92CF92DF92EF92FF920F931F93DF
:104512002F933F934F935F936F937F938F939F93C9
:10452200AF93BF93CF93DF93EF93FF93A091326B3F
:10453200B091336B0DB60D920EB60D920E942120F2
:10454200A091326BB091336BCD91CDBFDD91DEBFC7
:10455200FF91EF91DF91CF91BF91AF919F918F9199
:104562007F916F915F914F913F912F911F910F9189
:10457200FF90EF90DF90CF90BF90AF909F908F9081
:104582007F906F905F904F903F902F901F900F9071
:0A4592000BBE0F900FBE0F900895AE
:10459C001F920F920FB60F9211240BB60F920F931E
:1045AC002F933F934F935F936F937F938F939F932F
:1045BC00AF93BF93EF93FF93CF93DF930F92CDB74E
:1045CC00DEB7198280916904803259F0803419F079
:1045DC00883091F40CC080E48093690482E4898370
:1045EC000BC080E28093690489E5898305C088E06B
:1045FC008093690487E48983AE014F5F5F4F60E865
:10460C0001E020E030E08091546B9091556B0E945A
:10461C001D280F90DF91CF91FF91EF91BF91AF913A
:10462C009F918F917F916F915F914F913F912F91BE
:10463C000F910F900BBE0F900FBE0F901F901895FF
:10464C00CF92DF92EF9241155105610509F44AC0F2
:10465C002091E56A3091E66A8217930791F420E085
:10466C0030E005C021E030E002C021E030E0F9018B
:10467C00EE0FFF1FEE0FFF1FE20FF31FEE51F54978
:10468C0015C0C090E26AD090E36AE090E46ACD284D
:10469C00CE2801F52091EA6A3091EB6A82179307D4
:1046AC0009F3E2EEFAE602C0E7EEFAE63097D1F053
:1046BC004083518362838383948314C0C090E76AE0
:1046CC00D090E86AE090E96ACD28CE2869F3E0E062
:1046DC00F0E0ECCF2091EA6A3091EB6A82179307F5
:0C46EC0021F2ECCFEF90DF90CF9008950A
:1046F8000F931F93CF93DF93EC010FB6F8940F92AB
:10470800892B21F4C091326BD091336B8E010E5FEF
:104718001F4FC8010E94942B8C899D89892B21F0F9
:10472800CE010C960E94942BB8018CEE9AE60E945A
:10473800DF2B8BA5813009F41BA68CA5813009F4E9
:104748001CA60F900FBE80915E6B882339F00FB6C0
:10475800F8940F920E943A2C0F900FBE8091326B02
:104768009091336BC817D907A1F480915E6B8823A9
:1047780019F00E9471220DC09091EC6A8091606BD3
:10478800981305C01092326B1092336B02C00E94CE
:0C4798002120DF91CF911F910F91089517
:1047A400CF92DF92EF920F931F93CF938C010FB6AA
:1047B400F8940F92FC01C68D1C16C4F481898111F2
:1047C40006C014C0F8018189811107C00FC06801B7
:1047D400F1E1CF0ED11C80E8E82E8E2DB6010E94A7
:1047E4000E1881110E94F72DC15061F78FEFF80167
:1047F400868F0F900FBE0FB6F8940F92C58D1C16BE
:10480400C4F48085811106C014C0F801808581112B
:1048140007C00FC06801F8E0CF0ED11C80E8E82E75
:104824008E2DB6010E940E1881110E94F72DC150E1
:1048340061F78FEFF801858F0F900FBECF911F9115
:0A4844000F91EF90DF90CF900895E0
:10484E006F927F928F92AF92BF92CF92DF92EF9242
:10485E00FF920F931F93CF93DF93EC013A01862EB5
:10486E00590168018E8580FF05C0790182E0E80E4E
:10487E00F11C01C07901CE010E945D288C019501C9
:10488E00682DA301CE010E9478245C01892BD1F002
:10489E00BE0180E80E94172B2E813F81821793075D
:1048AE0088F088859985892B69F088859985E12C12
:1048BE00F12C00E020E030E0A90160E00E946B11D5
:1048CE0018861986C501DF91CF911F910F91FF9028
:1048DE00EF90DF90CF90BF90AF908F907F906F90C2
:0248EE0008952B
:1048F0006F927F928F92AF92BF92CF92DF92EF92A0
:10490000FF920F931F93CF93DF9300D0CDB7DEB705
:104910005C013A01862E6901FC0122813381968572
:1049200090FF11C0C982DA820E151F05F0F0AE01AA
:104930004F5F5F4F60E8890122E030E0C5010E94CF
:1049400062259C0104C00C151D0508F46801C11402
:10495000D10469F089019601682DA301C5010E9467
:104960006225F5018283938302C0C12CD12CC6013C
:104970000F900F90DF91CF911F910F91FF90EF90CB
:10498000DF90CF90BF90AF908F907F906F90089501
:10499000CF92DF92EF92FF920F931F93C12CD12CF5
:1049A0006894EE24E2F800E010E02CE231E044EB01
:1049B00051E060E088E497E10E942610EE24E39441
:1049C00028E532E049EB51E060E08BEE90E00E9498
:1049D00026100E94B11F0E94CA1E0F2EFBEFEF2E61
:1049E000FDE2FF2EF02D20E044EF51E06DEB71E091
:1049F00080E00E94132980934E6B90934F6B0E942E
:104A0000DA2D0E94802D0E946B2B8093646B0E9494
:104A10006B2B8093656B0E94292A80E090E01F91A8
:0C4A20000F91FF90EF90DF90CF90089571
:104A2C00EF92FF920F931F93CF93DF93CDB7DEB727
:104A3C002597CDBFDEBFE091386BF091396B309785
:104A4C0081F1780169834A835B838C839D83663013
:104A5C00FCF40E94722D823069F4AE014F5F5F4FFF
:104A6C0060E800E097018091386B9091396B0E945F
:104A7C00D11818C0AE014F5F5F4F60E800E020E036
:104A8C0030E08091386B9091396B0E94D1180AC03C
:104A9C00AE014F5F5F4F60E800E0CF010E941D2820
:104AAC0001C080E02596CDBFDEBFDF91CF911F9175
:084ABC000F91FF90EF900895A7
:104AC4006F927F928F92CF92DF92EF92FF920F9329
:104AD4001F93CF93DF936C013A01862EE901FC0109
:104AE400E480F580E01AF10A2E153F0508F47901F7
:104AF400F601848595859701682DA301800F911F88
:104B04000E948B2CEC16FD0678F49E012E193F09A9
:104B1400682DA3014E0D5F1D611DF7FC6A95F6011A
:104B2400848595850E948B2CC8018C0F9D1FF601EE
:104B3400248135818217930710F0821B930BDF9138
:104B4400CF911F910F91FF90EF90DF90CF908F90B6
:064B54007F906F900895B0
:104B5A000F931F93CF93DF93FC018B01A181B28145
:104B6A008091326B9091336BEC01AE87BF87809155
:104B7A00326B9091336B14962D913C911597EC0101
:104B8A00288B398B14968D919C9115972091326BB5
:104B9A003091336B245F3F4FEC012A833B83209192
:104BAA00326B3091336B245F3F4F14962D933C93B5
:104BBA001597A091326BB091336B5496ED93FC9399
:104BCA00559790819F5F9083442311F00FEF1FEF59
:104BDA00642FC8010E94D41DDF91CF911F910F91BC
:024BEA0008952C
:104BEC00AF92BF92CF92DF92EF92FF920F931F93EF
:104BFC00CF93DF9300D0CDB7DEB77C015B016A01A8
:104C0C008901FC0120813181968590FF11C042E021
:104C1C0050E0BE016F5F7F4FC7010E943E269C0192
:104C2C0089819A81C816D90698F0025011096C0135
:104C3C00C016D10608F486010115110559F0A8011A
:104C4C00B501C7010E943E26F7018083918302C003
:104C5C0000E010E0C8010F900F90DF91CF911F91F1
:104C6C000F91FF90EF90DF90CF90BF90AF90089591
:104C7C00AF92BF92CF92DF92EF92FF920F931F935E
:104C8C00CF93DF937C015B01EA016901FC01048194
:104C9C001581021B130B4017510708F48A01F70109
:104CAC00448555854C0D5D1D60E89801C5010E9439
:104CBC008B2C0C171D0760F49E01201B310BF70188
:104CCC004485558560E8C501800F911F0E948B2C8F
:104CDC00C6018C0F9D1FF701248135818217930724
:104CEC0010F0821B930BDF91CF911F910F91FF90CE
:0C4CFC00EF90DF90CF90BF90AF90089534
:104D0800AF92BF92CF92DF92EF92FF920F931F93D1
:104D1800CF93DF93EC015B017A0169018E8580FDF9
:104D280003C000E010E002C002E010E0BE0180E82D
:104D38000E94172B08171907D8F49C01A701B50181
:104D4800CE010E94F6255C01892BA1F08A859B85FE
:104D5800892B81F08A859B85E12CF12C00E020E0ED
:104D680030E0A90160E00E946B111A861B8602C020
:104D7800A12CB12CC501DF91CF911F910F91FF900C
:0C4D8800EF90DF90CF90BF90AF900895A7
:104D9400CF93DF93FC01A091326BB091336B7068B9
:104DA4001C966D937C931D97A181B281C091326B47
:104DB400D091336BAE87BF87C091326BD091336B88
:104DC40014968D919C911597888B998B1496CD91FF
:104DD400DC9115972091326B3091336B245F3F4FF8
:104DE4002A833B832091326B3091336B245F3F4F96
:104DF40014962D933C931597A091326BB091336B1D
:104E04005496ED93FC93559790819F5F908361E056
:0C4E1400CA010E94D41DDF91CF910895C7
:104E20001F920F920FB60F9211240BB60F922F9371
:104E30003F934F935F936F937F938F939F93AF9322
:104E4000BF93EF93FF93CF93DF930F92CDB7DEB76E
:104E500020E030E041E050E0BE016F5F7F4F809185
:104E6000426B9091436B0E948426892B31F4E0E0E1
:104E7000F8E085818F7D858303C089818093020856
:104E80000F90DF91CF91FF91EF91BF91AF919F91E3
:104E90008F917F916F915F914F913F912F910F90E3
:0C4EA0000BBE0F900FBE0F901F901895D6
:104EAC001F920F920FB60F9211240BB60F920F9305
:104EBC001F932F933F934F935F936F937F938F9396
:104ECC009F93AF93BF93EF93FF93CF93DF930F9287
:104EDC00CDB7DEB7809100088983AE014F5F5F4F7D
:104EEC0060E800E010E021E030E08091446B9091AC
:104EFC00456B0E9427240F90DF91CF91FF91EF918A
:104F0C00BF91AF919F918F917F916F915F914F91D5
:104F1C003F912F911F910F910F900BBE0F900FBED1
:064F2C000F901F90189584
:104F32000F931F93CF93DF93282F362F882361F18E
:104F4200682F70E08FEF9FEF0E94E52C832F90E097
:104F52006817790720F1239FC0011124813E4FEF8A
:104F6200940700F5D32FC22F4F960E94D9288C01A7
:104F72000097D1F0D11104C0FC018083918304C059
:104F82004F96F80180839183F801C38FD48F61E03B
:104F9200C8010E94872008C000E010E005C000E0C0
:104FA20010E002C000E010E0C801DF91CF911F9134
:044FB2000F910895BE
:104FB6000F931F93CF93DF938C010E94AE2DEC01CC
:104FC6008091346B9091356BC817D90738F5E0910D
:104FD6003C6BF0913D6B8081882381F00580F681E2
:104FE600E02D6FEF7FEF808191810E94EC2AE091A6
:104FF6003C6BF0913D6B80818111F0CF80913A6BD3
:1050060090913B6B80933C6B90933D6BE0933A6B36
:10501600F0933B6B81E0F801808302C0F8011082B7
:10502600C093346BD093356BCE01DF91CF911F9136
:045036000F91089539
:10503A00EF92FF920F931F93CF93DF937901FC01B5
:10504A00728D338D731710F0023011F5202FEC0199
:10505A001E8D8A8DCE010E9412221F3F89F48989F2
:10506A008823C1F06196BE0180E80E940E18882349
:10507A0099F0E114F10491F081E0F701808311C005
:10508A000E94072E181760F41F5F1E8F81E009C067
:10509A0080E007C081E005C081E003C081E001C073
:1050AA0081E0DF91CF911F910F91FF90EF900895CA
:1050BA006F927F928F92CF92DF92EF920F931F930C
:1050CA00CF93DF933C0120E8822E482D930169019A
:1050DA00E42E82E0C80ED11CE11CF901542F0E9473
:1050EA00C12DDB01F6015E2D0E94C12D8B01AA178D
:1050FA00BB0799F724E0620E711C811CF301582D3D
:10510A000E94C12DCB0101978A0F9B1F801B910B17
:10511A008617970710F0861B970BDF91CF911F9187
:10512A000F91EF90DF90CF908F907F906F900895BE
:10513A00EF92FF921F93CF93DF93FC01228D338D61
:10514A00231718F57B01EC01168D2F5F228F1F3F65
:10515A0091F481898823D9F0CF014196BC0180E876
:10516A000E940E188823A9F0E114F104A1F081E04D
:10517A00F701808313C00E94072E181770F4FF24CA
:10518A00F394F10EFE8E81E009C080E007C081E051
:10519A0005C081E003C081E001C081E0DF91CF91C9
:0851AA001F91FF90EF900895A2
:1051B200CF93DF93EC010E94E82D8091226B9091B6
:1051C200236B892B31F480E090E48093226B9093DF
:1051D200236B2097C9F08091246B9091256B9E01DF
:1051E200280F391F2F3F4FE1340788F482179307A6
:1051F20088F4C091226BD091236BC80FD91F2093E2
:10520200246B3093256B08C0C0E0D0E005C0C0E03D
:10521200D0E002C0C0E0D0E00E94B214CE01DF9123
:04522200CF9108958B
:105226006F927F928F92AF92BF92DF92EF92FF9230
:105236000F931F93CF93DF933B01882E5A01D22EF3
:1052460084E190E00E94D928EC01892BA9F01B8A01
:105256000E948D2A688279828A82AD86BE860F87F1
:10526600188BE98AFA8ACE0103960E94F32DDD2077
:1052760019F08B8984608B8BCE01DF91CF911F91C2
:105286000F91FF90EF90DF90BF90AF908F907F903F
:045296006F90089578
:10529A00CF93DF930FB6F8940F9220912C6B309135
:1052AA002D6BDB014D915C914F3FBFEF5B0719F10D
:1052BA00EC01E981FA81A0915C6BB881BA1741F0DF
:1052CA002E173F0728F0FB011082118281E014C0DB
:1052DA002E1B3F0B2417350748F4FB01421B530BC7
:1052EA00408351830E94982D80E006C0DB011D9205
:1052FA001C9281E001C080E00F900FBEDF91CF9138
:02530A00089504
:10530C00E0E0FBE080EC9DE58487958781E0858378
:10531C008083A091326BB091336BCD91CDBFDD9179
:10532C00DEBFFF91EF91DF91CF91BF91AF919F9134
:10533C008F917F916F915F914F913F912F911F9121
:10534C000F91FF90EF90DF90CF90BF90AF909F9018
:10535C008F907F906F905F904F903F902F901F9009
:0E536C000F900BBE0F900FBE0F900895089586
:10537A00FF920F931F93CF93DF938B01FF24F39434
:10538A00413009F0F12C0115110511F401E010E08A
:10539A009C01205F3F4F82179307B8F4EC012196D6
:1053AA00C9010E94D928FC01892B89F08FE0DF010D
:1053BA001D928A95E9F7CF010F9684879587C48352
:1053CA00D58306831783F68602C0E0E0F0E0CF01BA
:0C53DA00DF91CF911F910F91FF9008957B
:1053E6001F920F920FB60F9211240BB60F922F93A6
:1053F6003F934F935F936F937F938F939F93AF9357
:10540600BF93EF93FF9360E070E08091486B9091BB
:10541600496B0E949D28E0E0F8E0848180648483E3
:1054260082E50E948C2DFF91EF91BF91AF919F91E4
:105436008F917F916F915F914F913F912F910F9037
:0C5446000BBE0F900FBE0F901F9018952A
:10545200CF92DF92EF920F931F930F2EF6E2CF2E91
:10546200FBE6DF2EF02DE12C00E010E028E730E033
:105472004FEC51E060E082ED9DE20E942610813007
:10548200A1F40E94412B813081F4F8948FEF9FEFB9
:105492008093286B9093296B81E080935E6B1092CE
:1054A2002C6B10922D6B0E9486291F910F91EF9009
:0654B200DF90CF90089589
:1054B800CF93DF93EB01488159814F3F2FEF52077C
:1054C80021F4FC01A781B0850DC0DC01139601C051
:1054D800DF011296ED91FC911397208131814217DB
:1054E8005307B0F71296ED91FC911397EA83FB836B
:1054F800C483D583AC83BD831296CD93DC93139775
:1055080088879987FC0120812F5F2083DF91CF91C5
:025518000895F4
:10551A000FB6F8940F928091386B9091396B892B62
:10552A0021F589E19BE60E94642D80E19BE60E94B9
:10553A00642D89E19BE680933C6B90933D6B80E1FF
:10554A009BE680933A6B90933B6B40E065E08AE080
:10555A000E9499278093386B9093396B009729F0B2
:10556A0042EC51E060E00E9426230F900FBE08959E
:10557A00FC0163837483818792874617570790F0EB
:10558A00421B530B8585968548175907E0F4BF01DE
:10559A006D5F7F4F80913A6B90913B6B0E945C2AC2
:1055AA0080E008954217530718F46217730768F4E6
:1055BA00BF016D5F7F4F80913C6B90913D6B0E9464
:0E55CA005C2A80E0089581E0089581E0089554
:1055D800EF92FF920F931F93CF93DF938C017B0180
:1055E800E0913C6BF0913D6B0580F681E02DC68122
:1055F800D781CE0103960E94942B8B8982FF06C027
:10560800A701B801CE010E94BB2B02C08E7F8B8BF5
:10561800E989FA89CE010995DF91CF911F910F9100
:06562800FF90EF900895D1
:10562E00CF92DF92EF929B01482FA82FCB010496C9
:10563E00A11DFC015A2F0E94C12DDB016901E42E30
:10564E0082E0C80ED11CE11CF6015E2D0E94C12D18
:10565E00CD01860F971FF901542F0E94C12D861B75
:10566E00970B8A179B0710F08A1B9B0BEF90DF900E
:04567E00CF9008952C
:10568200CF92DF92EF920F931F930E948D2A809107
:10569200386B9091396B892BB1F00F2EF6E3CF2E38
:1056A200FBE6DF2EF02D0F2EF3E0EF2EF02D00E0C3
:1056B20010E020EF30E047EC51E060E08DE696E14B
:1056C2000E94261001C080E01F910F91EF90DF90A1
:0456D200CF900895D8
:1056D60027E030E080E0E0E0F4E071E060E490850F
:1056E60092959F709727492F417050E0DA01022E5C
:1056F60002C0AA0FBB1F0A94E2F78A2B6583A7EBA9
:10570600BBE01197F1F700C000006683A7EBBBE092
:105716001197F1F700C000002150310900F780957C
:025726000895E4
:10572800CF93DF93FC01A085B185C281D3818481A9
:1057380095818C839D83C481D581828193818A835D
:105748009B8311968D919C911297E817F90731F474
:105758008481958111968D939C931297108611865A
:0E5768008C9181508C938C91DF91CF9108959C
:10577600EF92FF920F931F93CF93DF93EC018B0170
:105786007A0108C08D859E85080F191FE989FA8957
:10579600CE0109956D857E85600F711F9801A70161
:1057A600CE010E94BD2A8111EDCFDF91CF911F91CD
:0857B6000F91FF90EF900895A0
:1057BE00CF93DF939C01FB01DC011196CD91DC911F
:1057CE001297C283D3838C819D81848395838C8130
:1057DE009D81DC0112966D937C9313976C837D8370
:1057EE0020873187F90180818F5F8083DF91CF9190
:0257FE0008950C
:105800000F93CF93DF93482F60E081E00E949927A8
:10581000EC01009769F01C821D82188219821E8299
:1058200000E020E030E040E050E060E00E94D1186D
:0A583000CE01DF91CF910F91089592
:10583A00CF93DF93EC010FB6F8940F928D8D8F3FC3
:10584A0009F41D8E8E8D8F3F09F41E8E0F900FBEA8
:10585A008A8D811104C0CE0141960E94AD25CE01E8
:0A586A000E94D223DF91CF91089530
:10587400E091306BF091316B8081811107C08FEF23
:105884009FEF8093286B9093296B0895E091306B80
:10589400F091316B0580F681E02D808191818093B8
:0858A400286B9093296B089515
:1058AC00FC01248D2223B1F030E046815781420F58
:1058BC00531F46835783848195814817590720F0DD
:1058CC008081918186839783CB014681578160E8E3
:0658DC000E948B2C0895D0
:1058E200009721F48091326B9091336B0FB6F8944C
:1058F2000F9270E0FC01E60FF71F23A5223031F46E
:10590200FC01E60FF71F13A681E001C080E00F90B3
:045912000FBE089527
:10591600CF92DF92EF926A01E62EDC01280F391F43
:10592600A217B30751F0F6015E2D0E94E12D6D938B
:105936004FEFC41AD40AE40AF3CFEF90DF90CF906A
:025946000895C2
:10594800E091326BF091336B84859585E091326BF1
:10595800F091336BA091326BB091336B56964C91AA
:0E59680024E030E0241B3109248735870895A0
:105976008FB78F778FBFE0E0F8E081E493E0808710
:10598600918783E2878381E08093010480E88583A1
:0C59960080EC86838FB78F678FBF089569
:1059A200CF93DF93EC01892B51F00E94E82D60E048
:1059B200CE010E94D41D0E94B214811102C00E9425
:0859C2007122DF91CF910895DD
:1059CA00AA1BBB1B51E107C0AA1FBB1FA617B7071B
:1059DA0010F0A61BB70B881F991F5A95A9F7809537
:0859EA009095BC01CD01089568
:1059F200FC0160833197708331971082319720E8E0
:105A020020833197108231971082779740833197A4
:065A120050838497089503
:105A1800CF93DF938BE090E00E94D928EC010097A8
:105A280031F0FC0111921192CF010E94642DCE0138
:065A3800DF91CF910895FB
