:100000000C945E000C9450210C9450210C945021BF
:100010000C9450210C9450210C9450210C9450219C
:100020000C9450210C9450210C9450210C9450218C
:100030000C9424210C9450210C9450210C945021A8
:100040000C9450210C9450210C9450210C94251C9C
:100050000C94731B0C94AF1B0C943A160C94502107
:100060000C9450210C9450210C9450210C9450214C
:100070000C9450210C94311A0C9450210C94502162
:100080000C9450210C9450210C9450210C9450212C
:100090000C9450210C9450210C9450210C9450211C
:1000A0000C945021600E600E8F0E940EAA0E600EFE
:1000B000600E8F0E940E40007C54800011241FBEF1
:1000C000CFEFCDBFDFE7DEBFE6EBF0E040E019C0E9
:1000D000B791A79137912791079107FD0EC097918E
:1000E0008791EF01F92FE82F0BBF07900D92A21710
:1000F000B307D9F7FE011BBE04C01D92A217B307B8
:10010000E1F7EB3BF40721F70E94900A0C94F320EF
:04011000F894FFCF91
:10011400494E49540052534F5554005253494E00CE
:100124005042494E00494E444F55540057424D00E9
:0D013400546D725100546D722053766300BB
:0601410049444C45000397
:10014800CF93DF93CDB7DEB7C85CD109CDBFDEBF93
:100158004FEF5FEF61E081E00E9412116FEF7FEFD8
:1001680080914A7C90914B7C0E94150C2AE030E0EB
:1001780048EC50E0BE016F5F7F4F80913E7C9091CC
:100188003F7C0E948510882319F37C01FF246701B6
:1001980022E0C21AD108E1E0F0E0EC0FFD1FEC0DFF
:1001A800FD1D80818111B0C06FEF7FEF8091487C89
:1001B8009091497C0E94150C31E0E31AF108CE01B8
:1001C80001964C01E80EF91EF701808190E0AC0120
:1001D800440F551F480F591F440F551F440F551FF3
:1001E8004050504960E80FEF1FEF28E030E0809161
:1001F800407C9091417C0E94D40CF701808190E072
:10020800FC01EE0FFF1FE80FF91FEE0FFF1FEE0FA7
:10021800FF1FE050F049408550E060E821E030E001
:100228008091407C9091417C0E94D40CF7018081A0
:1002380090E0FC01EE0FFF1FE80FF91FEE0FFF1F04
:10024800EE0FFF1FE050F049418550E060E070E09C
:1002580021E030E08091407C9091417C0E94D40C58
:10026800F701808190E0FC01EE0FFF1FE80FF91FF6
:10027800EE0FFF1FEE0FFF1FE050F049428550E0E0
:1002880060E070E021E030E08091407C9091417C1A
:100298000E94D40C00E020E030E040E050E060E054
:1002A8008091487C9091497C0E94CB0EA40160E823
:1002B8000FEF1FEF96018091407C9091417C0E9446
:1002C800D40C00E614E06894FF24F7F8F801F582EE
:1002D800E0E0F8E08AEA82838581806285834FEFD7
:1002E8005FEF61E081E00E941211F801F68200E000
:1002F80020E030E040E050E060E080914A7C90915E
:100308004B7C0E94CB0E24CF853009F09EC06FEF46
:100318007FEF8091487C9091497C0E94150CB12C0C
:100328008EC0EB2CF12CF701EE0FFF1FEE0DFF1D19
:10033800EE0FFF1FEE0FFF1FE050F049838580FF8F
:100348007DC04F01AF0160E80FEF1FEF28E030E0FC
:100358008091407C9091417C0E94D40CF4014085AE
:1003680050E060E070E021E030E08091407C9091C6
:10037800417C0E94D40CF401418550E060E070E0BB
:1003880021E030E08091407C9091417C0E94D40C27
:10039800F401428550E060E070E021E030E08091B7
:1003A800407C9091417C0E94D40C00E020E030E039
:1003B80040E050E060E08091487C9091497C0E9448
:1003C800CB0EAE014F5F5F4F60E80FEF1FEF960156
:1003D8008091407C9091417C0E94D40C00E614E00E
:1003E8006894FF24F7F8F801F582E0E0F8E08AEA7B
:1003F80082838581806285834FEF5FEF61E081E0D2
:100408000E941211F801F68200E020E030E040E09E
:1004180050E060E080914A7C90914B7C0E94CB0E2A
:100428004FEF5FEF61E081E00E9412116FEF7FEF05
:1004380080914A7C90914B7C0E94150CB3948091DA
:10044800537CB81608F46DCF83CE0FEF1FEF28E06A
:1004580030E040E050E060E08091407C9091417C49
:100468000E94D40C21E030E041E050E060E080914F
:10047800407C9091417C0E94D40C21E030E041E026
:1004880050E060E08091407C9091417C0E94D40CC7
:1004980021E030E041E350E060E08091407C9091C1
:1004A800417C0E94D40C00E614E06894FF24F7F81D
:1004B800F801F582E0E0F8E08AEA828385818062CB
:1004C80085834FEF5FEF61E081E00E941211F80130
:1004D800F68200E020E030E040E050E060E080910B
:0C04E8004A7C90914B7C0E94CB0E32CEDF
:1004F400CF93DF93CDB7DEB7CB5CD109CDBFDEBFE1
:100504002FEF3FEF41E050E0BE0167537F4F8091F2
:10051400427C9091437C0E948510C753DF4F8881B1
:10052400C95CD0408A3A61F76FEF7FEF80914A7CD3
:1005340090914B7C0E94150C00E010E0D12C21C05E
:100544002FEF3FEF41E050E0BE0167537F4F8091B2
:10055400427C9091437C0E948510C753DF4F888171
:10056400C95CD040833049F0E1E0F0E0EC0FFD1FBE
:10057400E00FF11F8083D39402C008EC10E00F5FFA
:100584001F4F083C1105E4F200E020E030E040E0B9
:1005940050E060E080914A7C90914B7C0E94CB0EAD
:1005A4008B85853081F48985813009F0A9CFE12CD0
:1005B400F12C02E020E030E0A90161E080E090E06D
:1005C4000E94E3079DCF8A85813009F099CF6FEFB0
:1005D4007FEF8091487C9091497C0E94150CE12C1E
:1005E400F12C30E07AC0F701EE0FFF1FEE0DFF1D76
:1005F400EE0FFF1FEE0FFF1FE050F049908189813D
:10060400981368C0F701EE0FFF1FEE0DFF1DEE0FEC
:10061400FF1FEE0FFF1FE050F04990858985981366
:1006240059C0F701EE0FFF1FEE0DFF1DEE0FFF1F68
:10063400EE0FFF1FE050F049838580FF4BC0E98235
:100644001A828BE090E011C0FC013997A1E0B0E080
:10065400AC0FBD1FA80FB91F2C9141E050E04C0F07
:100664005D1FE40FF51F208301962D2D30E08217C6
:10067400930754F357EFD50E6FEF7FEF8091467CCD
:100684009091477C0E94150C2D2D30E0AE014F5FF8
:100694005F4F60E80FEF1FEF80913C7C90913D7CB1
:1006A4000E94D40C00E020E030E040E050E060E044
:1006B4008091467C9091477C0E94CB0E20E030E0F4
:1006C40040E050E060E08091487C9091497C0E9439
:1006D400CB0E31E08FEFE81AF80A2091537C822F79
:1006E40090E0E816F9060CF47ECF311109CF398178
:1006F400FC01EE0FFF1FDF01A80FB91FAA0FBB1FDC
:10070400AA0FBB1FA050B0493C933A8111963C9369
:1007140011973B8112963C9312973C8113963C931C
:1007240013973D8114963C9314973E8115963C9300
:1007340015973F8116963C931697388517963C93E8
:100744001797398518963C9318973A8519963C93D0
:1007540019973B851A963C931A97FD0113862F5FD0
:100764002093537C6FEF7FEF8091467C9091477C80
:100774000E94150CFE01E653FF4F85E080838091B3
:10078400537C81508183AF0160E80FEF1FEF22E0BB
:1007940030E080913C7C90913D7C0E94D40C00E040
:1007A40020E030E040E050E060E08091467C9091B1
:1007B400477C0E94CB0E82E090E00E94D81F6FEF2E
:1007C4007FEF8091487C9091497C0E94150C209188
:1007D400537C822F90E00197FC01EE0FFF1FE80F7E
:1007E400F91FEE0FFF1FEE0FFF1FE050F049838546
:1007F40080FF40C0215029831A828BE090E011C011
:10080400FC013997A1E0B0E0AC0FBD1FA80FB91FE0
:100814002C9141E050E04C0F5D1FE40FF51F208345
:1008240001962D2D30E08217930754F317EF1D0D19
:100834006FEF7FEF8091467C9091477C0E94150C6E
:10084400212F30E0AE014F5F5F4F60E80FEF1FEFE5
:1008540080913C7C90913D7C0E94D40C00E020E08F
:1008640030E040E050E060E08091467C9091477C2D
:100874000E94CB0E00E020E030E040E050E060E079
:0E0884008091487C9091497C0E94CB0E39CE29
:10089200CF93DF93CDB7DEB7CA5CD109CDBFDEBF40
:1008A2006FEF7FEF8091447C9091457C0E94150C04
:1008B200A12C99249394B12CF12C6FEF7FEF8091AE
:1008C200467C9091477C0E94150C2AEF30E048EC60
:1008D20050E0BE016D5F7F4F80913C7C90913D7CEA
:1008E2000E9485106C0100E020E030E040E050E022
:1008F20060E08091467C9091477C0E94CB0EC601BD
:1009020099278230910521F0039709F456C080C0DF
:100912008B818430B1F1853009F04FC06FEF7FEFEA
:100922008091487C9091497C0E94150C8C8190E0CA
:10093200FC01EE0FFF1FE80FF91FEE0FFF1FEE0F76
:10094200FF1FE050F0492285223371F4FC01EE0FC3
:10095200FF1FE80FF91FEE0FFF1FEE0FFF1FE05002
:10096200F04981E08387939400E020E030E040E0AA
:1009720050E060E08091487C9091497C0E94CB0ECF
:100982001CC08C81823029F0833041F08130A9F47F
:100992000AC027E4B2120CC0FB2C0FC00F2EF9E5DF
:1009A200FF2EF02D0AC00F2EF2E4FF2EF02D05C00F
:1009B200A92C0F2EF7E4FF2EF02D8D81F81228C0FE
:1009C2006FEF7FEF8091487C9091497C0E94150CDB
:1009D2008B8190E0FC01EE0FFF1FDF01A80FB91F12
:1009E200AA0FBB1FAA0FBB1FA050B049FD018385F0
:1009F20082601B968C9300E020E030E040E050E003
:100A020060E08091487C9091497C0E94CB0EAA9430
:100A1200FB1409F456C082E08A8387E4B81649F0D1
:100A220029E5B21649F082E4B81209C081E089834F
:100A320007C082E0898304C083E0898301C01982F0
:100A4200CE0101966C0120E8E22E00E02FEF3FEF8D
:100A52006E2DA6018091387C9091397C0E94CB0E3C
:100A620087E4F81649F029E5F21649F082E4F81213
:100A720009C081E0898307C082E0898304C083E0E2
:100A8200898301C0198200E02FEF3FEF6E2DA6018E
:100A92008091387C9091397C0E94CB0EFB8284E05D
:100AA2008C8381E08D83AE014D5F5F4F60E80FEF75
:100AB2001FEF23E030E080913E7C90913F7C0E94CA
:100AC200D40CA110FACE8FEF89831A82CE0101963F
:100AD2006C0120E8E22E00E02FEF3FEF6E2DA60121
:100AE2008091387C9091397C0E94CB0E81E08A8380
:100AF20087E4F81649F029E5F21649F082E4F81283
:100B020009C081E0898307C082E0898304C083E051
:100B1200898301C0198200E02FEF3FEF6E2DA601FD
:100B22008091387C9091397C0E94CB0EBF2CC5CE2F
:100B32008F929F92AF92BF92CF92DF92EF92FF92EB
:100B42000F93CF93DF93DC01E114F10489F0E62FD8
:100B5200F0E0EE0FFF1FEE0FFF1FE80FF91F83A05B
:100B620094A0A5A0B6A0F70180829182A282B3824E
:100B720070E0FD01E60FF71F93A582E083A7023024
:100B820001F118F4013031F04DC0033079F1043035
:100B9200D1F148C0660F771F660F771FFD01E60F80
:100BA200F71F83A094A0A5A0B6A0BA01A901482965
:100BB20059296A297B2943A354A365A376A381E01B
:100BC20034C0660F771F660F771FFD01E60FF71F10
:100BD20043A154A165A176A14F5F5F4F6F4F7F4F35
:100BE20043A354A365A376A381E01FC0660F771FBA
:100BF200660F771FFD01E60FF71F23A334A345A35A
:100C020056A381E012C0923079F0660F771F660F0B
:100C1200771FFD01E60FF71F23A334A345A356A3B5
:100C220081E003C081E001C080E0913009F0A4C0FE
:100C320090914C7C91116DC01A96ED91FC911B978D
:100C42001496CD91DC91159716962D913C9117979C
:100C52002C833D831696CD91DC91179714962D9196
:100C62003C9115972A833B8321813281AD014E5FEE
:100C72005F4F2417350731F416962D913C91179743
:100C8200218332831A961D921C921B979081915058
:100C9200908356962C9156979091517C921710F40E
:100CA2002093517C30E0F901EE0FFF1FEE0FFF1F82
:100CB200EE0FFF1F2E0F3F1FF901E854F448018089
:100CC200F281E02D1496ED93FC93159724813581E2
:100CD20016962D933C931797C481D5814A835B83E3
:100CE200448355835696EC915697F0E09F01220F6C
:100CF200331F220F331F220F331FE20FF31FE8545B
:100D0200F4481A96ED93FC931B9790819F5F908312
:100D120021C06FEE7BE7FB01C181D2811E96CD938C
:100D2200DC931F972C813D8150962D933C935197D4
:100D32004C815D819D01245F3F4FFA012283338301
:100D42002C833D8354966D937C935597FB01908140
:100D52009F5F908356962C91E091287CF091297C9C
:100D62009689921748F4C114D10419F091E0F60162
:100D7200908391E090934F7CDF91CF910F91FF9000
:100D8200EF90DF90CF90BF90AF909F908F9008959B
:100D92000F931F93CF93DF9380914C7C811101C1FC
:100DA200C091227CD091237C8E010F5F1F4F009354
:100DB200227C1093237C01151105B9F48091267CC5
:100DC2009091277C2091247C3091257C2093267C55
:100DD2003093277C8093247C9093257C80914E7C59
:100DE2008F5F80934E7C0E94541F80911E7C909155
:100DF2001F7C0817190720F480E0B8C081E001C009
:100E020080E0E091267CF091277C9081911107C0CF
:100E12002FEF3FEF20931E7C30931F7CA7C0E09101
:100E2200267CF091277C0580F681E02D0680F781F3
:100E3200E02D228133810217130728F420931E7CB0
:100E420030931F7C93C0A285B3852481358146816E
:100E52005781E9014C835D83268137814481558125
:100E6200E9014A835B8311962D913C911297AF0160
:100E72004E5F5F4F2417350731F426813781119673
:100E82002D933C931297128613869C9191509C93BA
:100E9200A489B589109719F12685378560897189EA
:100EA200E9016C837D832089318966857785E90133
:100EB2006A837B8311966D917C9112979F01245FC7
:100EC2003F4F6217730731F42089318911962D93B0
:100ED2003C931297148A158A9C9191509C9326896F
:100EE2009091517C921710F42093517C30E0D901FB
:100EF200AA0FBB1FAA0FBB1FAA0FBB1F2A0F3B1FA4
:100F0200D901A854B44811960D90BC91A02DA48388
:100F1200B58314962D913C911597268337831496A9
:100F22002D913C911597E9014A835B8314964D9369
:100F32005C931597A689B0E09D01220F331F220F03
:100F4200331F220F331FA20FB31FA854B448A28726
:100F5200B3879C919F5F9C932689E091287CF091B6
:100F6200297C9689921708F449CF4BCFE091287CCF
:100F7200F091297C268930E0F901EE0FFF1FEE0F78
:100F8200FF1FEE0FFF1F2E0F3F1FF901E854F44819
:100F92009081923008F081E090914F7C91110CC0C9
:100FA2000CC08091207C9091217C01968093207CC2
:100FB2009093217C80E001C081E0DF91CF911F916D
:040FC2000F910895EE
:100FC6008F929F92AF92BF92EF92FF920F93CF9321
:100FD600DF93DC010FB6F8940F92E114F10489F067
:100FE600E62FF0E0EE0FFF1FEE0FFF1FE80FF91FD1
:100FF60083A094A0A5A0B6A0F70180829182A282C8
:10100600B38270E0FD01E60FF71F83A592E093A778
:10101600023001F118F4013031F04DC0033079F19E
:101026000430D1F148C0660F771F660F771FFD01A8
:10103600E60FF71F83A094A0A5A0B6A0BA01A90148
:10104600482959296A297B2943A354A365A376A372
:1010560001E034C0660F771F660F771FFD01E60FAC
:10106600F71F43A154A165A176A14F5F5F4F6F4F54
:101076007F4F43A354A365A376A301E01FC0660F69
:10108600771F660F771FFD01E60FF71F23A334A313
:1010960045A356A301E012C0823079F0660F771F90
:1010A600660F771FFD01E60FF71F23A334A345A3A1
:1010B60056A301E003C001E001C000E0813009F061
:1010C60077C01A96ED91FC911B971496CD91DC9101
:1010D600159716968D919C9117978C839D831696DE
:1010E600CD91DC91179714968D919C9115978A83D3
:1010F6009B83818192819D012E5F3F4F82179307CB
:1011060031F416968D919C911797818392831A9646
:101116001D921C921B9780818150808356968C91DC
:1011260056979091517C981710F48093517C90E0DB
:10113600FC01EE0FFF1FEE0FFF1FEE0FFF1F8E0FBE
:101146009F1FFC01E854F4480180F281E02D1496BB
:10115600ED93FC9315978481958116968D939C93B8
:101166001797C481D5812A833B832483358356967A
:10117600EC915697F0E0CF01880F991F880F991FC1
:10118600880F991FE80FF91FE854F4481A96ED9353
:10119600FC931B9780818F5F808356969C91E0918C
:1011A600287CF091297C8689891710F40E9499166B
:1011B6000F900FBE802FDF91CF910F91FF90EF9090
:0A11C600BF90AF909F908F900895A6
:1011D000CF93DF930FB6F8940F9280914C7C81509F
:1011E00080934C7C80914C7C8111BFC08091527C5B
:1011F000811196C0BDC0E091F47BF091F57B068033
:10120000F781E02DA489B589C685D7858089918924
:101210008C839D83C089D189868597858A839B83AA
:1012200011962D913C911297CF010C9628173907F2
:1012300031F48089918911968D939C931297148A29
:10124000158A8C9181508C93A285B385C481D581F8
:10125000868197818C839D83C681D7818481958186
:101260008A839B8311968D919C9112979F012E5F8B
:101270003F4F8217930731F48681978111968D93A2
:101280009C931297128613868C9181508C93868939
:101290009091517C981710F48093517C90E0DC0180
:1012A000AA0FBB1FAA0FBB1FAA0FBB1F8A0F9B1F32
:1012B000DC01A854B44811960D90BC91A02DA483D4
:1012C000B58314968D919C91159786839783149678
:1012D000CD91DC9115972A833B8314962D933C93F3
:1012E0001597A689B0E0CD01880F991F880F991F27
:1012F000880F991FA80FB91FA854B448A287B387B5
:101300008C918F5F8C939689A091287CB091297CD9
:1013100056968C91981730F081E080934F7C02C0F4
:10132000E0E0F0E08091EF7B811165CFEF2B11F0D1
:101330000E94541FC091207CD091217C209769F09D
:101340000E94C906882319F081E080934F7C219781
:10135000B9F71092207C1092217C80914F7C8823D9
:1013600031F00E94991681E003C080E001C080E066
:0A1370000F900FBEDF91CF9108959A
:10137A00CF93DF93CDB7DEB72E97CDBFDEBF6FEF2A
:10138A007FEF80914A7C90914B7C0E94150C8FEFE5
:10139A008C8782E08D876E018CE0C80ED11CE0E854
:1013AA00EE2E00E02FEF3FEF6E2DA6018091387CE4
:1013BA009091397C0E94CB0E60E070E08091447C71
:1013CA009091457C0E94150C8AEA8C8781E08D8772
:1013DA000FEF1FEF22E030E06E2DA6018091427CD4
:1013EA009091437C0E94D40C10E021C02FEF3FEF74
:1013FA0041E050E0BE01625F7F4F8091427C909154
:10140A00437C0E9485108E858A3A89F42FEF3FEF3C
:10141A0041E050E0BE01625F7F4F8091427C909133
:10142A00437C0E9485108E85813009F411E01130C9
:10143A00E9F681E08E87AE01425F5F4F60E80FEF09
:10144A001FEF21E030E08091407C9091417C0E9426
:10145A00D40C80E880936504E0E0F8E08AEA8283AD
:10146A008581806285838091040886FFFCCFA12C48
:10147A006894BB24B3F8F50184818064848380E88E
:10148A00809366041FEF1C871D8601E02FEF3FEF54
:10149A006E2DA6018091387C9091397C0E94CB0EEA
:1014AA0019821A821B821C821D821E821F83188740
:1014BA0081E089878A8781E38B87AE014F5F5F4F1F
:1014CA0060E80FEF1FEF2BE030E080913E7C9091B7
:1014DA003F7C0E94D40CF50185818064858300E0FD
:1014EA0020E030E040E050E060E080914A7C90915A
:1014FA004B7C0E94CB0E20E030E040E050E060E000
:10150A008091447C9091457C0E94CB0E80E090E0D3
:06151A000E941A1534CFF7
:10152000CF92DF92EF920F931F930E94EE1FE0E69F
:10153000F4E080E88183868300E010E020E030E082
:1015400040E061E070E082E390E00E94F41A809352
:10155000427C9093437C20E030E040E061E070E02A
:1015600088EC90E00E94F41A8093407C9093417C38
:1015700020E030E041E060E070E080E991E00E942E
:10158000F41A80933E7C90933F7C20E030E041E071
:1015900060E070E088EC90E00E94F41A80933C7C5C
:1015A00090933D7C40E061E083E00E94731A809359
:1015B0003A7C90933B7C40E062E083E00E94731AA7
:1015C0008093387C9093397C81E00E94DA2080936C
:1015D0004A7C90934B7C81E00E94DA208093487C87
:1015E0009093497C81E00E94DA208093467C90931E
:1015F000477C43E060E081E00E94731A8093447C62
:101600009093457CC12CD12C6894EE24E2F82CE216
:1016100031E044E151E060E08DEB99E00E948413F9
:101620006894EE24E1F824EF31E049E151E060E014
:1016300084EA90E00E9484130F2EF3E0EF2EF02D49
:1016400020E931E04FE151E060E08AE792E00E945A
:1016500084136894EE24E1F82AEF30E044E251E08C
:1016600060E08EE599E10E9484132AEF30E049E2C0
:1016700051E060E081EF93E10E948413EE24E39453
:1016800028E532E040E351E060E089E494E00E9424
:1016900084130E94FC1C80E090E01F910F91EF905A
:0616A000DF90CF900895D9
:1016A600CF93DF93A82FCB010596A11DFC015A2FDE
:1016B6000E941B21DB011696ED91FC911797A489D8
:1016C600B589C685D785808991898C839D83C08994
:1016D600D189868597858A839B8311968D919C9166
:1016E60012979F01245F3F4F8217930731F4808939
:1016F600918911968D939C931297148A158A8C91D1
:1017060081508C9380914C7C811160C0A285B385F9
:10171600C481D581868197818C839D83C681D7813B
:10172600848195818A839B8311968D919C911297D2
:101736009F012E5F3F4F8217930731F48681978171
:1017460011968D939C931297128613868C918150D5
:101756008C9386899091517C981710F48093517CD4
:1017660090E0DC01AA0FBB1FAA0FBB1FAA0FBB1F6D
:101776008A0F9B1FDC01A854B44811960D90BC91AA
:10178600A02DA483B58314968D919C91159786837D
:1017960097831496CD91DC9115972A833B831496F3
:1017A6002D933C931597A689B0E0CD01880F991F1C
:1017B600880F991F880F991FA80FB91FA854B448FE
:1017C600A287B3878C918F5F8C931CC04FEE5BE72B
:1017D600DA011196CD91DC911297C687D7878C8155
:1017E6009D81808B918B8C819D81DC0112962D933E
:1017F6003C9313972C833D83448B558BDA018C9154
:101806008F5F8C939689E091287CF091297C86895C
:10181600891720F481E080934F7C01C080E0DF913E
:04182600CF910895C1
:10182A00BF92CF92DF92EF92FF920F931F93CF93C3
:10183A00DF93CDB7DEB72597CDBFDEBF8C016C83B2
:10184A007D83E12CF12C0FB6F8940F92F801828D6A
:10185A008823E1F08150828F80819181892B29F43C
:10186A000E948B20F80184839583F8018085882360
:10187A0049F0085F1F4FB80180E80E94530B81119D
:10188A000E9499160F900FBE81E07CC08C819D81C9
:10189A00892B21F40F900FBE80E074C0F11006C0AE
:1018AA00CE0101960E94E820FF24F3940F900FBE08
:1018BA000E943A210FB6F8940F92F801858D8F3F56
:1018CA0009F4158EF801868D8F3F09F4168E0F9054
:1018DA000FBEBE016C5F7F4FCE0101960E94341B82
:1018EA0081112BC0B80180E80E9440208823F9F0BA
:1018FA00F80180819181892B51F40FB6F8940F92E7
:10190A00848195810E94600FE82E0F900FBE6C8132
:10191A007D81C80141960E947920C8010E945E1CFF
:10192A000E94E80881118FCF0E9499168CCFC801B6
:10193A000E945E1C0E94E80886CFC8010E945E1CB5
:10194A000E94E808C801A0E8C92EDA2EBC018A2F35
:10195A000E944020882309F476CFEE2091F00FB63A
:10196A00F8940F92602F7C2D8D2D0E948B1F682F6B
:10197A00F801848195810E9411130F900FBE80E0B7
:10198A0001C080E02596CDBFDEBFDF91CF911F91C8
:0E199A000F91FF90EF90DF90CF90BF900895D7
:1019A8004F925F926F927F928F929F92AF92BF9267
:1019B800CF92DF92EF92FF920F931F93CF93DF9313
:1019C800CDB7DEB72897CDBFDEBF5C014E835F83FE
:1019D800688729010C831D83FC0184819581019707
:1019E800268520FF0AC03201F2E06F0E711C8615B1
:1019F800970548F41C821D8206C08415950510F0D1
:101A0800320101C03C018C819D81892BB9F1CE0145
:101A180001960E94AD200FB6F8940F92C5010E945E
:101A2800961C4C018615970530F560E080E090E043
:101A38000E94A51F0E944021F501828793870F907D
:101A48000FBECC80DD80E12CF12C00E010E0980185
:101A580040E050E0BA0180E00E948D0DF501128649
:101A68001386BE016C5F7F4FCE0101960E94341B26
:101A7800882389F205C00F900FBE02C0812C912CDB
:101A88008114910421F4C5010E94961C4C01730134
:101A9800840192014E815F816885C5010E949B1770
:101AA8006C01892B09F1B50180E80E941B1EF50124
:101AB8002681378182179307B8F00E943A21F501F1
:101AC80080859185892B71F080859185E12CF12C99
:101AD80000E020E030E0A90160E00E94E307F501A2
:101AE800108611860E94E808C6012896CDBFDEBF81
:101AF800DF91CF911F910F91FF90EF90DF90CF90E2
:101B0800BF90AF909F908F907F906F905F904F9015
:021B180008952E
:101B1A008F929F92AF92BF92CF92DF92EF92FF92F3
:101B2A000F931F93CF93DF93480159010FB6F8948F
:101B3A000F92E091287CF091297CC82FD0E0EC0F1D
:101B4A00FD1F83A5823061F1E091287CF091297C08
:101B5A00CE01880F991F880F991FE80FF91F83A1DB
:101B6A0094A1A5A1B6A1409550956095709548237A
:101B7A0059236A237B2343A354A365A376A3E09145
:101B8A00287CF091297CEC0FFD1F81E083A7C1140A
:101B9A00D10431F061E0C6010E9495110E949916A4
:101BAA000F900FBE0FB6F8940F92E114F104A1F052
:101BBA00E091287CF091297CCE01880F991F880F2B
:101BCA00991FE80FF91F83A194A1A5A1B6A1F70156
:101BDA0080839183A283B383E091287CF091297C4E
:101BEA00EC0FFD1F83A58230E9F4E091287CF09187
:101BFA00297CCE01880F991F880F991FE80FF91FBA
:101C0A0083A194A1A5A1B6A180949094A094B09424
:101C1A0088229922AA22BB2283A294A2A5A2B6A2B2
:101C2A0081E001C080E02091287C3091297CC20F9C
:101C3A00D31F1BA60F900FBEDF91CF911F910F915B
:101C4A00FF90EF90DF90CF90BF90AF909F908F90D2
:021C5A000895EB
:101C5C00EF92FF920F931F93CF93DF93CDB7DEB725
:101C6C002697CDBFDEBF7AC0898188230CF476C05D
:101C7C000C811D81D8011B968D919C911C97892BF1
:101C8C0021F0C80103960E946F1ECE0106960E9499
:101C9C00DB1E7C01E9818E2FEE0F990BAA0BBB0B7F
:101CAC00FC013197E930F10508F058C0EE5AFF4FAE
:101CBC000C941221F80183898160838B2A813B81EA
:101CCC0065857685620F731FA701C8010E94C11D2F
:101CDC00882309F443C0D80153968C91539782FF03
:101CEC000DC06A817B811D968D919C911E97680F0A
:101CFC00791FA701C8010E94961E03C08E7FF801B0
:101D0C00838BD8015196ED91FC915297C80109959E
:101D1C0025C0F80183898E7F838B20C0D801539610
:101D2C008C915397816053968C9353976A817B81E6
:101D3C001D966D937C931E976E0D7F1D9701A701C9
:101D4C00C8010E94C11D0AC0F801838981FD04C02D
:101D5C00C8010E94542102C08E7F838B40E050E06A
:101D6C00BE016F5F7F4F80912E7C90912F7C0E94E3
:101D7C00F40F811179CF2696CDBFDEBFDF91CF91C5
:0A1D8C001F910F91FF90EF90089552
:101D96006F927F928F92EF92FF920F931F93CF9342
:101DA600DF93CDB7DEB72597CDBFDEBF7C013A0105
:101DB600862E2C833D8310E00FB6F8940F92F70120
:101DC600928D838D981710F00230E9F4202F682D3C
:101DD600A301C7010E94DB15F7019189992361F0E0
:101DE600F1E1EF0EF11CB70180E80E94530B882346
:101DF60031F00E94991603C081110E9499160F9026
:101E06000FBE81E04DC08C819D81892B21F40F90FE
:101E16000FBE80E045C0111105C0CE0101960E949B
:101E2600E82011E00F900FBE0E943A210FB6F894F9
:101E36000F92F701858D8F3F09F4158EF701868D78
:101E46008F3F09F4168E0F900FBEBE016C5F7F4F59
:101E5600CE0101960E94341B81111CC0B70180E897
:101E66000E941A1F882381F06C817D81C701089624
:101E76000E947920C7010E945E1C0E94E808811119
:101E86009BCF0E94991698CFC7010E945E1C0E94A4
:101E9600E80892CFC7010E945E1C0E94E80880E015
:101EA6002596CDBFDEBFDF91CF911F910F91FF9099
:0A1EB600EF908F907F906F900895D9
:101EC0000F931F93CF93DF93FC01892B09F484C0F8
:101ED0002689A091287CB091297C56968C91281750
:101EE00008F070C084859585992364F0A091287CC2
:101EF000B091297C56963C9184E090E0831B910937
:101F0000848795878285938530E0A901440F551F0A
:101F1000440F551F440F551F240F351F28543448B4
:101F20008217930709F045C0EF018F010E5F1F4F25
:101F3000C8010E946F1EE091287CF091297C86895F
:101F40008E8B9091517C981710F48093517C90E087
:101F5000FC01EE0FFF1FEE0FFF1FEE0FFF1F8E0F96
:101F60009F1FFC01E854F4480180F281E02DEC83CE
:101F7000FD83848195818E839F83A481B581129690
:101F80000D931C931397048315838E8990E0FC01B5
:101F9000EE0FFF1FEE0FFF1FEE0FFF1FE80FF91FE1
:101FA000E854F448EA87FB8780818F5F808381E073
:101FB00016C0A091287CB091297C56968C91868B76
:101FC00081E00DC091A1E091287CF091297C868967
:101FD000981720F080E003C080E001C081E0DF912D
:081FE000CF911F910F910895AC
:101FE800CF92DF92EF92FF920F931F93CF93DF93DD
:101FF800CDB7DEB72597CDBFDEBF8C016B014C8313
:102008005D83E12C0FB6F8940F92F801F28CFF2053
:10201800B9F0B601C8010E94701FFA94F801F28E57
:102028008085882349F0085F1F4FB80180E80E9427
:10203800530B81110E9499160F900FBE81E055C075
:102048008C819D81892B21F40F900FBE80E04DC0BB
:10205800E11006C0CE0101960E94E820EE24E39428
:102068000F900FBE0E943A210FB6F8940F92F80114
:10207800858D8F3F09F4158EF801868D8F3F09F401
:10208800168E0F900FBEBE016C5F7F4FCE0101967A
:102098000E94341B81111CC0B80180E80E944020B6
:1020A800882381F06C817D81C80141960E94792046
:1020B800C8010E945E1C0E94E8088111A3CF0E94FB
:1020C8009916A0CFC8010E945E1C0E94E8089ACF0A
:1020D800C8010E945E1C0E94E808B80180E80E94BE
:1020E8004020882309F48ECF80E02596CDBFDEBF3F
:1020F800DF91CF911F910F91FF90EF90DF90CF90DC
:02210800089538
:10210A002F923F924F925F926F928F929F92AF92CD
:10211A00BF92CF92DF92EF92FF920F931F93CF93CA
:10212A00DF93EC011B014A0169018E8580FF05C01E
:10213A006894AA24A1F8B12C02C0A12CB12CC11414
:10214A00D10479F10FB6F8940F922E0180E8682E27
:10215A00862DB2010E941B1E8C01A816B90648F0F2
:10216A0060E080E090E00E94A51F0E9440218887DD
:10217A0099870F900FBEA016B106C0F0E12CF12C82
:10218A0000E010E0980140E050E0BA0180E00E94CF
:10219A008D0D18861986862DB2010E941B1E8C0190
:1021AA0005C0BE0180E80E941B1E8C01A016B10664
:1021BA00F8F49801A401B101CE010E94CE185C0185
:1021CA00892BC1F00E943A218A859B85892B69F067
:1021DA008A859B85E12CF12C00E020E030E0A90102
:1021EA0060E00E94E3071A861B860E94E80802C084
:1021FA00A12CB12CC501DF91CF911F910F91FF90B6
:10220A00EF90DF90CF90BF90AF909F908F906F909C
:0A221A005F904F903F902F900895C1
:10222400CF92DF92EF92FF921F93CF93DF93162FFB
:102234000FB6F8940F92E091287CF091297CC82F76
:10224400D0E09E01220F331F220F331FE20FF31F32
:10225400C3A0D4A0E5A0F6A0CD28CE28CF2889F429
:10226400E091287CF091297CEC0FFD1F81E083A78D
:102274004115510531F061E0CA010E9495110E9497
:1022840099160F900FBE0FB6F8940F92E091287C28
:10229400F091297CCE01880F991F880F991FE80FB0
:1022A400F91F63A174A185A196A16115710581052A
:1022B400910541F1112381F0E091287CF091297C72
:1022C4009E01220F331F220F331FE20FF31F13A2AD
:1022D40014A215A216A216C0E091287CF091297CC4
:1022E4009E01220F331F220F331FE20FF31F6B01D6
:1022F4007C0121E0C21AD108E108F108C3A2D4A2EA
:10230400E5A2F6A22091287C3091297CC20FD31F2C
:102314001BA60F900FBEDF91CF911F91FF90EF90FE
:06232400DF90CF90089548
:10232A00FF920F931F93CF93DF93EC01F62E009148
:10233A00227C1091237C8091287C9091297C0296A2
:10234A000E946F1ECF3F8FEFD807B1F5FF20A1F192
:10235A00E6EEFBE7A181B281C091287CD091297C6D
:10236A00AC83BD83C091287CD091297C14968D9131
:10237A009C9115978E839F831496CD91DC91159726
:10238A008091287C9091297C02968A839B838091F4
:10239A00287C9091297C029614968D939C9315978C
:1023AA00A091287CB091297C1A96ED93FC931B97F7
:1023BA0080818F5F80832FC0C00FD11FE091287C5E
:1023CA00F091297CC283D383C017D10768F4609146
:1023DA00287C7091297C8091247C9091257C6E5F69
:1023EA007F4F0E94601D17C06091287C7091297CE4
:1023FA008091267C9091277C6E5F7F4F0E94601DA2
:10240A0080911E7C90911F7CC817D90720F4C09335
:10241A001E7CD0931F7CDF91CF911F910F91FF906B
:02242A00089513
:10242C002F923F926F927F928F929F92AF92BF9218
:10243C00CF92DF92EF92FF920F931F93CF93DF9384
:10244C00CDB7DEB73C01A62FCA011701FC2CF40155
:10245C006789708DA801415051098B01040F151F1C
:10246C000097A105D1F41EC0242F30E06C01EA2E98
:10247C00C20ED31EE11C37FDEA94F6015E2D0E94BC
:10248C003321F401E20FF31F618FF6015E2D0E94E0
:10249C003321662329F04F5F01C040E0483020F320
:1024AC00F40110A2F3E0FF1520F40F2EF3E0FF2E41
:1024BC00F02DF401F68AF1A2C40102960E94452186
:1024CC00C4010C960E944521F4018086918684E01B
:1024DC0090E08F19910984879587828A938AA1014C
:1024EC00B301C8010E942D20F40180839183A114B3
:1024FC00B10419F0F50180829182DF91CF911F9187
:10250C000F91FF90EF90DF90CF90BF90AF909F9086
:0C251C008F907F906F903F902F9008955B
:10252800CF93DF93EC010FB6F8940F928091527C11
:102538008F5F8093527C8091287C9091297C892B95
:1025480059F4C093287CD093297C8091527C8130A7
:1025580099F40E94C91C10C08091507C81110CC054
:10256800E091287CF091297C96898E89891720F042
:10257800C093287CD093297C80914D7C8F5F809379
:102588004D7C8E899091517C981710F48093517CE2
:1025980090E0FC01EE0FFF1FEE0FFF1FEE0FFF1F75
:1025A8008E0F9F1FFC01E854F4480180F281E02D52
:1025B800EC83FD83848195818E839F83A481B5817B
:1025C800CE01029612968D939C93139784839583DC
:1025D800EE89F0E0CF01880F991F880F991F880FA7
:1025E800991FE80FF91FE854F448EA87FB878081B0
:1025F8008F5F80830F900FBE8091507C882351F0AD
:10260800E091287CF091297C96898E89981710F49E
:0A2618000E949916DF91CF910895FA
:102622000F931F93CF93DF93FC01892B09F466C0AC
:1026320091A1961708F4962F8689981709F45EC01F
:1026420022A1213009F05AC0968B24853585332387
:1026520034F024E030E0291B3109248735872285B4
:10266200338590E0AC01440F551F440F551F440FB2
:10267200551F840F951F8854944828173907F1F580
:10268200EF018F010E5F1F4FC8010E946F1E8E89DE
:102692009091517C981710F48093517C90E0FC014A
:1026A200EE0FFF1FEE0FFF1FEE0FFF1F8E0F9F1F7C
:1026B200FC01E854F4480180F281E02DEC83FD83B3
:1026C200848195818E839F83A481B58112960D9317
:1026D2001C931397048315838E8990E0FC01EE0FFF
:1026E200FF1FEE0FFF1FEE0FFF1FE80FF91FE85449
:1026F200F448EA87FB8780818F5F8083DF91CF91E7
:062702001F910F910895E4
:102708004F925F926F927F928F929F92AF92BF92F9
:10271800CF92DF92EF92FF920F931F93CF93DF93A5
:10272800CDB7DEB72597CDBFDEBF3C0149835A83BD
:102738006B8349012801C9010E94EB1B8C01892B7D
:10274800B9F08DE290E00E94EB1B8C839D83892B6E
:1027580059F08DE2EC81FD8111928A95E9F7EC81BF
:10276800FD81078B108F06C0C8010E94542102C04A
:102778001C821D828C819D81892BD1F0840120E0EF
:1027880030E01F921F921F928C809D805601CE2CA4
:10279800720149815A816B81C3010E9416128C8192
:1027A8009D810E9494120F900F900F9081E001C0BC
:1027B8008FEF2596CDBFDEBFDF91CF911F910F918F
:1027C800FF90EF90DF90CF90BF90AF909F908F9049
:0A27D8007F906F905F904F9008957E
:1027E200CF93DF9300D0CDB7DEB780E880930104AA
:1027F20083E080934104F12C00E010E04AEF50E0C6
:10280200BE016F5F7F4F8091387C9091397C0E942E
:10281200F40F8981823059F018F4813031F00EC002
:10282200833039F08F3F39F009C01A8107C00A811D
:1028320005C0FA8003C01A81F12E012F113041F038
:1028420018F0123049F00BC082E08093460407C0B2
:1028520082E08093450403C082E080934704013004
:1028620041F018F0023049F00BC081E08093460439
:1028720007C081E08093450403C081E08093470450
:1028820081E0F81651F0F81620F082E0F81649F0CF
:10289200B5CF80E880930604B1CF80E88093050429
:0A28A200ADCF80E880930704A9CFB2
:1028AC000F931F93CF93DF93FC01892B09F451C035
:1028BC0082A1815082A3268991A1291709F44BC0CA
:1028CC0081114BC0EF018F010E5F1F4FC8010E9499
:1028DC006F1E89A18E8B24E030E0281B31092C87D8
:1028EC003D879091517C981710F48093517C90E027
:1028FC00FC01EE0FFF1FEE0FFF1FEE0FFF1F8E0FE1
:10290C009F1FFC01E854F4480180F281E02DEC8318
:10291C00FD83848195818E839F83A481B5811296DA
:10292C000D931C93139704831583EE89F0E0CF016C
:10293C00880F991F880F991F880F991FE80FF91F8F
:10294C00E854F448EA87FB8780818F5F808381E0BD
:10295C0005C080E003C080E001C080E0DF91CF9132
:06296C001F910F91089578
:102972000F931F93CF93DF93FC01362F892B09F41A
:102982004EC0238D222309F44CC0022F10E08FEF9A
:102992009FEFB8010E941920448D842F90E06817A0
:1029A200790708F440C0EF010FB6F8940F926081E6
:1029B2007181FB01249FE00DF11D1124EC83FD8345
:1029C2001A8E6A837B8301501109809FA001819F27
:1029D200500D909F500D1124CB01840F951F8E83B3
:1029E2009F838FEF8D8F8E8F31110DC08885882345
:1029F20091F02896BE0180E80E94530B882359F07B
:102A02000E94991608C0CE0108960E94CC20CE01E1
:102A120041960E94CC200F900FBE81E005C080E05D
:102A220003C080E001C080E0DF91CF911F910F9140
:022A3200089505
:102A34000F931F93CF93DF93EC010FB6F8940F928B
:102A4400892B21F4C091287CD091297C8E010E5FC2
:102A54001F4FC8010E946F1E8C899D89892B21F00C
:102A6400CE010C960E946F1EB80186EE9BE70E9471
:102A7400BA1E80E00FC0282F082E000C330BFE0175
:102A8400E20FF31F93A5913021F4FE01E20FF31F2F
:102A940013A68F5F82307CF30F900FBE8091507C21
:102AA400882339F00FB6F8940F920E94541F0F90A8
:102AB4000FBE8091287C9091297CC817D907A1F476
:102AC4008091507C882319F00E9499160DC0909132
:102AD400E67B8091527C981305C01092287C10925A
:102AE400297C02C00E94F616DF91CF911F910F91AD
:022AF400089543
:102AF6000F920FB6F8940F920BB60F921F921124F5
:102B06002F923F924F925F926F927F928F929F92F7
:102B1600AF92BF92CF92DF92EF92FF920F931F93E5
:102B26002F933F934F935F936F937F938F939F93CF
:102B3600AF93BF93CF93DF93EF93FF93A091287C3E
:102B4600B091297C0DB60D920EB60D920E94C90663
:102B560081110E94F616A091287CB091297CCD9116
:102B6600CDBFDD91DEBFFF91EF91DF91CF91BF9198
:102B7600AF919F918F917F916F915F914F913F910F
:102B86002F911F910F91FF90EF90DF90CF90BF9004
:102B9600AF909F908F907F906F905F904F903F90F7
:102BA6002F901F900F900BBE0F900FBE0F90189591
:102BB6000F931F93CF93DF93EC01022F1A8D2C8D69
:102BC60021110CC088819981892B09F042C08C8122
:102BD6009D810E9456141C821D8242C0011117C09D
:102BE60030E08A819B810E94BF1F2C8D8A819B8148
:102BF600820F911D8A839B832C813D8182179307C7
:102C060050F1888199818A839B8380E029C030E0D6
:102C16008E819F810E94BF1F8C8D90E0919581953A
:102C260091092E813F81280F391F2E833F834881CA
:102C360059812417350730F42C813D81820F931F6B
:102C46008E839F83023049F4112349F0115080E0AE
:102C560007C080E005C080E003C080E001C080E0DE
:0E2C66001F5F1A8FDF91CF911F910F9108957C
:102C74001F920F920FB60F9211240BB60F920F935F
:102C84002F933F934F935F936F937F938F939F9370
:102C9400AF93BF93EF93FF93CF93DF930F92CDB78F
:102CA400DEB7198280916904883099F018F4843071
:102CB400B1F019C0803239F08034A9F480936904EA
:102CC40081E0898310C080E28093690482E0898373
:102CD4000AC088E08093690483E0898304C084E0A7
:102CE400809369048983AE014F5F5F4F60E801E020
:102CF40020E030E080913A7C90913B7C0E94B41AB1
:102D04000F90DF91CF91FF91EF91BF91AF919F9180
:102D14008F917F916F915F914F913F912F910F917F
:0E2D24000F900BBE0F900FBE0F901F901895D2
:102D32000F920FB6F8940F920BB60F921F921124B6
:102D42002F923F924F925F926F927F928F929F92B9
:102D5200AF92BF92CF92DF92EF92FF920F931F93A7
:102D62002F933F934F935F936F937F938F939F9391
:102D7200AF93BF93CF93DF93EF93FF93A091287C00
:102D8200B091297C0DB60D920EB60D920E94F616E8
:102D9200A091287CB091297CCD91CDBFDD91DEBF81
:102DA200FF91EF91DF91CF91BF91AF919F918F9161
:102DB2007F916F915F914F913F912F911F910F9151
:102DC200FF90EF90DF90CF90BF90AF909F908F9049
:102DD2007F906F905F904F903F902F901F900F9039
:0A2DE2000BBE0F900FBE0F90089576
:102DEC0080914C7C882321F081E080934F7C089566
:102DFC0010924F7C2091517C01C02150822F90E089
:102E0C00FC01EE0FFF1FEE0FFF1FEE0FFF1FE80F71
:102E1C00F91FE854F4483081332379F3AC01440FA3
:102E2C00551F440F551F440F551F480F591FDF01E5
:102E3C000180F281E02D0280F381E02D1196ED935B
:102E4C00FC93129745545448E417F50729F4428132
:102E5C005381FD0141835283FC01EE0FFF1FEE0FE6
:102E6C00FF1FEE0FFF1F8E0F9F1FFC01E854F4484D
:102E7C000180F281E02D868197818093287C90934C
:082E8C00297C2093517C08957C
:102E94006F927F928F92AF92BF92CF92DF92EF9216
:102EA400FF920F931F93CF93DF93EC013A01862E89
:102EB400590168018E8580FF05C0790182E0E80E22
:102EC400F11C01C07901CE010E94961C8C01950170
:102ED400682DA301CE010E949B175C01892BD1F0C0
:102EE400BE0180E80E941B1E2E813F81821793073A
:102EF40088F088859985892B69F088859985E12CE6
:102F0400F12C00E020E030E0A90160E00E94990586
:102F140018861986C501DF91CF911F910F91FF90FB
:102F2400EF90DF90CF90BF90AF908F907F906F9095
:022F34000895FE
:102F36006F927F928F92AF92BF92CF92DF92EF9273
:102F4600FF920F931F93CF93DF9300D0CDB7DEB7D9
:102F56005C013A01862E6901FC0122813381968546
:102F660090FF11C0C982DA820E151F0588F0AE01E6
:102F76004F5F5F4F60E8890122E030E0C5010E94A3
:102F86003A189C0107C00C151D0520F4680102C003
:102F9600C12CD12CC114D10451F089019601682DA0
:102FA600A301C5010E943A18F50182839383C601E5
:102FB6000F900F90DF91CF911F910F91FF90EF909F
:102FC600DF90CF90BF90AF908F907F906F900895D5
:102FD6006F927F928F92CF92DF92EF92CF93DF9391
:102FE600EC016A01E62E452B462B49F5A0E0B0E040
:102FF6002BC0292F30E0F901EE0FFF1FEE0FFF1F48
:10300600E20FF31FE452F448638174816C177D0765
:1030160011F4DF0119C0109781F4F901EE0FFF1FBB
:10302600EE0FFF1FE20FF31FE452F4486080718039
:1030360082806728682809F4DF019F5F03C0A0E04B
:10304600B0E090E09230A8F2109741F0CD92DD9278
:10305600EC9212971396CD93DC931497DF91CF9150
:0E306600EF90DF90CF908F907F906F90089545
:103074006F927F928F92CF92DF92EF92FF920F9393
:103084001F93CF93DF936C013A01862EE901FC0173
:10309400E480F580E01AF10A2E153F0508F4790161
:1030A400F601848595859701682DA301800F911FF2
:1030B4000E94BF1FEC16FD0678F49E012E193F09ED
:1030C400682DA3014E0D5F1D611DF7FC6A95F60185
:1030D400848595850E94BF1FC8018C0F9D1FF60132
:1030E400248135818217930710F0821B930BDF91A3
:1030F400CF911F910F91FF90EF90DF90CF908F9021
:063104007F906F9008951A
:10310A000F931F93CF93DF93FC018B01A181B281AF
:10311A008091287C9091297CEC01AE87BF878091B1
:10312A00287C9091297C14962D913C911597EC015D
:10313A00288B398B14968D919C9115972091287C18
:10314A003091297C245F3F4FEC012A833B832091F5
:10315A00287C3091297C245F3F4F14962D933C9311
:10316A001597A091287CB091297C5496ED93FC93F5
:10317A00559790819F5F9083442311F00FEF1FEFC3
:10318A00642FC8010E949511DF91CF911F910F9171
:02319A00089596
:10319C00AF92BF92CF92DF92EF92FF920F931F9359
:1031AC00CF93DF9300D0CDB7DEB77C015B016A0112
:1031BC008901FC0120813181968590FF14C042E089
:1031CC0050E0BE016F5F7F4FC7010E94A5199C01A3
:1031DC0089819A8102501109C816D90610F06C0128
:1031EC0002C0C12CD12CC016D10608F486010115E1
:1031FC00110541F0A801B501C7010E94A519F701FD
:10320C0080839183C8010F900F90DF91CF911F9114
:10321C000F91FF90EF90DF90CF90BF90AF900895FB
:10322C00CF92DF92EF92FF921F93CF93DF930F9287
:10323C00CDB7DEB77C01162F0E943A21CE01019644
:10324C000E94DB1E6C018981811127C011110AC0FB
:10325C00CE14DF0438F00E94E808B601C7010E94C2
:10326C00F01D1DC0112341F0E091307CF091317CB8
:10327C00808111E0811110E0B7016C197D09412F9B
:10328C0080912E7C90912F7C0E94371F0E94E80821
:10329C00811105C00E94991602C00E94E8080F9087
:1032AC00DF91CF911F91FF90EF90DF90CF90089519
:1032BC00CF93DF9300D00F92CDB7DEB7E0E6F4E00A
:1032CC009CE69283A0E4B4E088E012968C9312976B
:1032DC008BE08387948753968C934FEF5FEFBE01FF
:1032EC006F5F7F4F80913A7C90913B7C0E94F40FF2
:1032FC0084E08A8389818B836FEF7FEF8091467C9A
:10330C009091477C0E94150CAE014E5F5F4F60E8B8
:10331C000FEF1FEF22E030E080913C7C90913D7CE0
:10332C000E94D40C00E020E030E040E050E060E08F
:0E333C008091467C9091477C0E94CB0ECECFB4
:10334A00AF92BF92CF92DF92EF92FF920F931F93A9
:10335A00CF93DF937C015B01EA016901FC010481DF
:10336A001581021B130B4017510708F48A01F70154
:10337A00448555854C0D5D1D60E89801C5010E9484
:10338A00BF1F0C171D0760F49E01201B310BF701AC
:10339A004485558560E8C501800F911F0E94BF1FB3
:1033AA00C6018C0F9D1FF70124813581821793076F
:1033BA0010F0821B930BDF91CF911F910F91FF9019
:0C33CA00EF90DF90CF90BF90AF9008957F
:1033D600AF92BF92CF92DF92EF92FF920F931F931D
:1033E600CF93DF93EC015B017A0169018E8580FF43
:1033F60003C002E010E002C000E010E0BE0180E879
:103406000E941B1E08171907D8F49C01A701B501D5
:10341600CE010E94CE185C01892BA1F08A859B857E
:10342600892B81F08A859B85E12CF12C00E020E038
:1034360030E0A90160E00E9499051A861B8602C049
:10344600A12CB12CC501DF91CF911F910F91FF9057
:0C345600EF90DF90CF90BF90AF900895F2
:103462001F920F920FB60F9211240BB60F920F9369
:103472002F933F934F935F936F937F938F939F937A
:10348200AF93BF93EF93FF93CF93DF930F92CDB799
:10349200DEB785E0898388E080934904AE014F5FFF
:1034A2005F4F60E801E020E030E080913A7C90914B
:1034B2003B7C0E94B41A0F90DF91CF91FF91EF9164
:1034C200BF91AF919F918F917F916F915F914F913A
:1034D2003F912F910F910F900BBE0F900FBE0F9047
:0434E2001F9018958A
:1034E600DF92EF92FF920F931F93CF93DF93382FC4
:1034F600E62F882329F1682F70E08FEF9FEF0E9457
:1035060019208E2F90E068177907E8F03E9FC001DA
:103516001124813E2FEF9207C8F4D42EDE2FC32F3D
:103526004F960E94EB1B7C01009791F08C012D2D8C
:10353600AC01415E5F4F6D2F8C2F0E94532008C057
:10354600E12CF12C05C0E12CF12C02C0E12CF12C70
:10355600C701DF91CF911F910F91FF90EF90DF9000
:023566000895C6
:10356800EF92FF920F931F93CF93DF937901FC01A2
:10357800728D338D731710F0023011F5202FEC0186
:103588001E8D8A8DCE010E94DB151F3F89F4898923
:103598008823C1F06196BE0180E80E94530B8823FE
:1035A80099F0E114F10491F081E0F701808311C0F2
:1035B8000E944D21181760F41F5F1E8F81E009C01B
:1035C80080E007C081E005C081E003C081E001C060
:1035D80081E0DF91CF911F910F91FF90EF900895B7
:1035E8008F929F92AF92BF92CF92DF92EF92FF920B
:1035F8000F931F93CF93DF93EC014B01790168017F
:10360800413011F401E001C000E08114910419F483
:1036180088248394912CCE014096C817D90728F4A2
:1036280021960E94EB1B5C0102C0A12CB12CA114B5
:10363800B10441F09401AE01B501615F7F4FC5014E
:103648000E949D20C501DF91CF911F910F91FF909E
:10365800EF90DF90CF90BF90AF909F908F9008959C
:103668001F93CF93DF930FB6F8940F92E091227CCB
:10367800F091237CDC0111964D915C911297DF014A
:10368800A41BB50BEB01288139812F3FDFEF3D07E4
:10369800F9F0EC011881C0914E7C1C1741F0E41739
:1036A800F50728F0FB011082118281E012C0A217F1
:1036B800B30748F4FB012A1B3B0B208331830E948C
:1036C800E82080E006C0DB011D921C9281E001C069
:0E36D80080E00F900FBEDF91CF911F910895FB
:1036E6001F920F920FB60F9211240BB60F922F93C3
:1036F6003F934F935F936F937F938F939F93AF9374
:10370600BF93EF93FF936091020870E020E030E0F2
:1037160041E050E08091407C9091417C0E94EB1901
:10372600892B39F4E0E0F8E083E0828385818F7DA0
:103736008583FF91EF91BF91AF919F918F917F917B
:103746006F915F914F913F912F910F900BBE0F900C
:083756000FBE0F901F901895A3
:10375E001F920F920FB60F9211240BB60F92EF928B
:10376E00FF920F932F933F934F935F936F937F939C
:10377E008F939F93AF93BF93EF93FF93E12CF12C15
:10378E0002E020E030E0A90161E080E090E00E94DC
:10379E00E307E0E0F8E0848180648483FF91EF9199
:1037AE00BF91AF919F918F917F916F915F914F914B
:1037BE003F912F910F91FF90EF900F900BBE0F90B6
:0837CE000FBE0F901F9018952B
:1037D600CF93DF93EC010E943A218091347C909143
:1037E600357C892B31F480E090E48093347C90938F
:1037F600357C2097C9F08091367C9091377C9E016C
:10380600280F391F2F3F4FE2340788F4821793079A
:1038160088F4C091347CD091357CC80FD91F209391
:10382600367C3093377C08C0C0E0D0E005C0C0E0ED
:10383600D0E002C0C0E0D0E00E94E808CE01DF91EF
:04384600CF91089581
:10384A001F920F920FB60F9211240BB60F920F937D
:10385A001F932F933F934F935F936F937F938F930E
:10386A009F93AF93BF93EF93FF934091000850E06B
:10387A0060E070E000E010E021E030E08091427CFE
:10388A009091437C0E944A17FF91EF91BF91AF91AB
:10389A009F918F917F916F915F914F913F912F915E
:1038AA001F910F910F900BBE0F900FBE0F901F909C
:0238BA0018955F
:1038BC001F93CF93DF93EC010FB6F8940F921E8DEC
:1038CC000DC08989882361F0BE016F5E7F4F80E84F
:1038DC000E94530B81110E944921115011168CF337
:1038EC008FEF8E8F0F900FBE0FB6F8940F921D8D29
:1038FC000DC08885882361F0BE01685F7F4F80E82A
:10390C000E94530B81110E944921115011168CF306
:10391C008FEF8D8F0F900FBEDF91CF911F91089578
:10392C00CF92DF92EF92CF93DF939C0140E8F901A5
:10393C00542F0E941B21EB01A42FC9010496A11D39
:10394C00FC015A2F0E941B21DB01CD018C0F9D1F06
:10395C006901E42E52E0C50ED11CE11CF6015E2D6E
:10396C000E941B21861B970BCC17DD0701F70197D3
:10397C008A179B0710F08A1B9B0BDF91CF91EF905E
:06398C00DF90CF900895CA
:10399200CF93C0E010C08C2F90E09C01220F331F08
:1039A200220F331F220F331F820F931F8854944814
:1039B2000E94CC20CF5FC43070F381E09CE70E946C
:1039C200CC2088EF9BE70E94CC208FEE9BE70E94E1
:1039D200CC2086EE9BE70E94CC2081E09CE780937E
:1039E200267C9093277C88EF9BE78093247C90939E
:0639F200257CCF91089531
:1039F800CF92DF92EF920F931F930F2EFCE1CF2E01
:103A0800FCE7DF2EF02DE12C00E010E028E730E0A5
:103A180041E451E060E08CE291E20E94841381303D
:103A280011F40E94451E813081F4F8948FEF9FEFC6
:103A380080931E7C90931F7C81E08093507C109231
:103A4800227C1092237C0E942F1D1F910F91EF90D2
:063A5800DF90CF900895FD
:103A5E000E94FE20A091287CB091297CCD91CDBFF3
:103A6E00DD91DEBFFF91EF91DF91CF91BF91AF91CD
:103A7E009F918F917F916F915F914F913F912F9178
:103A8E001F910F91FF90EF90DF90CF90BF90AF906E
:103A9E009F908F907F906F905F904F903F902F9060
:103AAE001F900F900BBE0F900FBE0F90089581E0E8
:023ABE00089569
:103AC000CF93DF93EB01488159814F3F2FEF52078E
:103AD00021F4FC01A781B0850DC0DC01139601C063
:103AE000DF011296ED91FC911397208131814217ED
:103AF0005307B0F71296ED91FC911397EA83FB837D
:103B0000C483D583AC83BD831296CD93DC93139786
:103B100088879987FC0120812F5F2083DF91CF91D7
:023B2000089506
:103B22000FB6F8940F9280912E7C90912F7C892B66
:103B320021F583E19CE70E94CC208AE09CE70E9469
:103B4200CC2083E19CE78093327C9093337C8AE0A3
:103B52009CE78093307C9093317C40E065E08AE082
:103B62000E94731A80932E7C90932F7C009729F0E9
:103B720044E351E060E00E94EB170F900FBE0895FE
:103B8200FC0163837483818792874617570790F0FD
:103B9200421B530B8585968548175907E0F4BF01F0
:103BA2006D5F7F4F8091307C9091317C0E94601DCF
:103BB20080E008954217530718F46217730768F4F8
:103BC200BF016D5F7F4F8091327C9091337C0E9468
:0E3BD200601D80E0089581E0089581E008956F
:103BE000EF92FF920F931F93CF93DF938C017B0192
:103BF000E091327CF091337C0580F681E02DC68126
:103C0000D781CE0103960E946F1E8B8982FF06C06A
:103C1000A701B801CE010E94961E02C08E7F8B8B39
:103C2000E989FA89CE010995DF91CF911F910F9112
:063C3000FF90EF900895E3
:103C3600CF92DF92EF929B01482FA82FCB010496DB
:103C4600A11DFC015A2F0E941B21DB016901E42EF4
:103C560082E0C80ED11CE11CF6015E2D0E941B21DC
:103C6600CD01860F971FF901542F0E941B21861B39
:103C7600970B8A179B0710F08A1B9B0BEF90DF9020
:043C8600CF9008953E
:103C8A00CF92DF92EF920F931F930E94911D809122
:103C9A002E7C90912F7C892BB1F00F2EFCE2CF2E37
:103CAA00FCE7DF2EF02D0F2EF3E0EF2EF02D00E0D3
:103CBA0010E020EF30E049E351E060E08DEB90E264
:103CCA000E94841301C080E01F910F91EF90DF9052
:043CDA00CF900895EA
:103CDE00CF93DF93FC01A085B185C281D38184810E
:103CEE0095818C839D83C481D581828193818A83C2
:103CFE009B8311968D919C911297E817F90731F4D9
:103D0E008481958111968D939C93129710861186BE
:0E3D1E008C9181508C938C91DF91CF91089500
:103D2C00EF92FF920F931F93CF93DF93EC018B01D4
:103D3C007A0108C08D859E85080F191FE989FA89BB
:103D4C00CE0109956D857E85600F711F9801A701C5
:103D5C00CE010E94C11D8111EDCFDF91CF911F913A
:083D6C000F91FF90EF90089504
:103D7400CF93DF939C01FB01DC011196CD91DC9183
:103D84001297C283D3838C819D81848395838C8194
:103D94009D81DC0112966D937C9313976C837D83D4
:103DA40020873187F90180818F5F8083DF91CF91F4
:023DB400089570
:103DB6000F931F93CF93DF938C010E940821EC0190
:103DC60080912A7C90912B7CC817D90730F40E94E9
:103DD600FC1E81E0F801808302C0F8011082C093C6
:103DE6002A7CD0932B7CCE01DF91CF911F910F912E
:023DF60008952E
:103DF80009C00580F681E02D6FEF7FEF808191810A
:103E08000E94F01DE091327CF091337C8081811119
:103E1800F0CF8091307C9091317C8093327C90936C
:0C3E2800337CE093307CF093317C0895F3
:103E3400A82FCB010FB6F8940F929C014A2F265E4F
:103E44003F4F4F4FF901542F0E943321262F4B9699
:103E5400A11DFC015A2F0E943321261302C081E0C8
:0A3E640001C080E00F900FBE08952A
:103E6E00CF93DF93EC010FB6F8940F928D8D8F3FA9
:103E7E0009F41D8E8E8D8F3F09F41E8E0F900FBE8E
:103E8E008A8D811104C0CE0141960E948518CE0103
:0A3E9E000E945E1CDF91CF91089591
:103EA800E091267CF091277C8081811107C08FEFFB
:103EB8009FEF80931E7C90931F7C0895E091267C51
:103EC800F091277C0580F681E02D80819181809397
:083ED8001E7C90931F7C0895ED
:103EE000FC01248D2223B1F030E046815781420F3E
:103EF000531F46835783848195814817590720F0C3
:103F00008081918186839783CB014681578160E8C8
:063F10000E94BF1F08958E
:103F1600A82FCB019C014A2F2F5E3F4F4F4FF9012F
:103F2600542F0E943321662359F04696A11DFC01A9
:103F36005A2F0E941B21FB01908184E0891B089562
:043F460080E008957A
:103F4A00009721F48091287C9091297C0FB6F894EF
:103F5A000F9270E0FC01E60FF71F23A5223031F41F
:103F6A00FC01E60FF71F13A681E001C080E00F9065
:043F7A000FBE0895D9
:103F7E00CF92DF92EF926A01E62EDC01280F391FF5
:103F8E00A217B30751F0F6015E2D0E9433216D93F7
:103F9E004FEFC41AD40AE40AF3CFEF90DF90CF901C
:023FAE00089574
:103FB000CF93DF93EC01892B49F00E943A2160E016
:103FC000CE010E9495110E94E80801C080E0811195
:0C3FD00002C00E949916DF91CF91089565
:103FDC008FB78F778FBFE0E0F8E081E493E08087C4
:103FEC00918783E2878381E08093010480E8858355
:0C3FFC0080EC86838FB78F678FBF08951D
:10400800DC01E091327CF091337C808191E0811178
:1040180090E09C93911106C00580F681E02D808187
:0A4028009181089580E090E0089572
:10403200AA1BBB1B51E107C0AA1FBB1FA617B707CC
:1040420010F0A61BB70B881F991F5A95A9F78095E8
:084052009095BC01CD01089519
:10405A00FC0160833197708331971082319720E891
:10406A002083319710823197108277974083319756
:06407A00508384970895B5
:104080000FB6F8940F92A82FCB014A96A11DFC0100
:104090005A2F0E943321611102C081E001C080E0EB
:0640A0000F900FBE089511
:1040A6000F931F93F801611103C00083118302C0AF
:1040B60040835183838F648F61E0CF010E94B914DE
:0640C6001F910F91089507
:1040CC000F93009771F0FC011482158210821182FB
:1040DC00168200E020E030E040E050E060E00E941A
:0640EC00CB0E0F910895B8
:1040F200CF93DF93EB016091287C7091297C645F00
:104102007F4F0E94601D61E0CE010E949511DF91F8
:04411200CF910895AC
:104116008091287C9091297C892B39F0E091287C2C
:10412600F091297C82A18F5F82A38091287C909157
:04413600297C089543
:10413A000F93FC018FE0DF011D928A95E9F76487EE
:10414A007587448355832683378306870F9108959D
:10415A000FB6F8940F9220914E7CFC012083209197
:10416A00227C3091237C218332830F900FBE0895E5
:10417A00CF93DF930F92CDB7DEB7CE0101960E949F
:0E418A00042069810E9416190E942E0EF6CFA5
:10419800FC010396818392832FEF3FEF23833483BF
:0C41A8008583968387839087108208959A
:1041B400CF93DF93482F60E081E00E94731AEC01F3
:0C41C4000E946620CE01DF91CF9108958B
:1041D00020914E7CFC0120832091227C3091237C15
:0641E000218332830895E3
:1041E600EC010E9456210E945521CE010E945721C2
:0641F600CE010E945221DF
:1041FC00E0E0FBE080EC9DE58487958781E085839A
:04420C00808308950E
:104210000FB6F8940F928091227C9091237C0F909E
:044220000FBE089530
:10422400EE0FFF1F0024001C0BBE0790F691E02D3B
:024234000994EB
:1042360057FD04C05BBF67917791089561917191B5
:024246000895D9
:104248000F9301E00093060B0F910E947B151895C0
:0E4258008091B87B8230E0F30E949916F9CF76
:0E42660057FD03C05BBF679108956081089506
:0C42740080914C7C8F5F80934C7C0895FF
:0A4280008091287C9091297C08951C
:08428A00FC0110861186089565
:0842920081E080934F7C089548
:06429A008091527C0895A2
:0442A0000C9400007A
:0442A4000E948800EC
:0242A800089577
:0242AA00089575
:0242AC00089573
:0242AE00089571
:00000001FF
