:100000000C945E000C945A240C945A240C945A2498
:100010000C945A240C945A240C945A240C945A2468
:100020000C945A240C945A240C945A240C945A2458
:100030000C942E240C945A240C945A240C945A2474
:100040000C945A240C945A240C945A240C94331D66
:100050000C94ED1C0C94F21E0C94B0180C945A24C1
:100060000C945A240C945A240C945A240C945A2418
:100070000C945A240C94761D0C945A240C945A24F3
:100080000C945A240C945A240C945A240C945A24F8
:100090000C945A240C945A240C945A240C945A24E8
:1000A0000C945A24ED0FED0F1C1021103710ED0F9A
:1000B000ED0F1C10211040007C58800011241FBE41
:1000C000CFEFCDBFDFE7DEBFE6EBF0E040E019C0E9
:1000D000B791A79137912791079107FD0EC097918E
:1000E0008791EF01F92FE82F0BBF07900D92A21710
:1000F000B307D9F7FE011BBE04C01D92A217B307B8
:10010000E1F7EB3BF40721F70E94A30A0C94FD23CF
:04011000F894FFCF91
:10011400494E49540052534F5554005253494E00CE
:100124005042494E00494E444F55540057424D00E9
:0D013400546D725100546D722053766300BB
:0601410049444C45000397
:03014700030303AC
:10014A00CF93DF93CDB7DEB7C95ED109CDBFDEBF8E
:10015A000FEF1FEF20E040E061E070E08091447C07
:10016A009091457C0E9488156FEF7FEF8091487CC3
:10017A009091497C0E94FC0C6FEF7FEF80914E7C3E
:10018A0090914F7C0E94FC0C81E090E00E94BC227E
:10019A0019821A821B821C821D821E828FEF8F8314
:1001AA00888781E089878A8781E38B87AE014F5FE1
:1001BA005F4F60E82BE030E08091407C9091417C79
:1001CA000E94BB0D23E030E047E451E060E08091FB
:1001DA00407C9091417C0E94BB0D00E614E068943B
:1001EA00FF24F7F8F801F582E0E0F8E08AEA828372
:1001FA008581806285836FEF7FEF8091467C909145
:10020A00477C0E94FC0CF801F68200E020E030E016
:10021A0040E050E060E080914E7C90914F7C0E94DB
:10022A00581080E008C0ECE0F0E0EC0FFD1FE80F8A
:10023A00F11D10828F5F8830B0F381E08C8B8D8B3B
:10024A0081E38E8B6FEF7FEF8091487C9091497CA0
:10025A000E94FC0C81E090E00E94BC226FEF7FEFCD
:10026A0080914E7C90914F7C0E94FC0C20E030E003
:10027A0048EC50E0BE016E5D7F4F80913E7C9091CC
:10028A003F7C0E941212882309F45EC16C01DD24AE
:10029A007601F2E0EF1AF108E2E2F0E0EC0FFD1F5E
:1002AA00EE0DFF1D8081811193C06FEF7FEF80916A
:1002BA004A7C90914B7C0E94FC0CC60101976E010E
:1002CA0022E2C20ED11CF601E80FF91FE0812E2F9F
:1002DA0030E0A901440F551FCA01820F931F880FEE
:1002EA00991F880F991FFC01E050F04980818F8B7C
:1002FA008181888F8281898F83818A8F84818B8F84
:10030A0085818C8F86818D8F87818E8F80858F8F57
:10031A00818588A3FA01E20FF31FEE0FFF1FEE0F8C
:10032A00FF1FE050F049828589A300E020E030E019
:10033A0040E050E060E080914A7C90914B7C0E94C2
:10034A005810AE01495E5F4F60E80FEF1FEF2BE0D8
:10035A0030E08091407C9091417C0E94BB0DA601C7
:10036A0060E897018091407C9091417C0E94BB0D8E
:10037A0023E030E047E451E060E08091407C9091D6
:10038A00417C0E94BB0D00E614E06894FF24F7F854
:10039A00F801F582E0E0F8E08AEA828385818062EA
:1003AA0085836FEF7FEF8091467C9091477C0E9416
:1003BA00FC0CF801F68200E020E030E040E050E07A
:1003CA0060E080914E7C90914F7C0E9458103ACF09
:1003DA00853009F037CFB1C06FEF7FEF80914A7C4B
:1003EA0090914B7C0E94FC0C8D2D90E0FC01EE0F4D
:1003FA00FF1FE80FF91FEE0FFF1FEE0FFF1FE05060
:10040A00F049238520FF97C0FC01EE0FFF1FDF0193
:10041A00A80FB91FAA0FBB1FAA0FBB1FA050B04934
:10042A002C912F8B11962C911197288F12962C9123
:10043A001297298F13962C9113972A8F14962C9121
:10044A0014972B8F15962C9115972C8F16962C9105
:10045A0016972D8F17962C9117972E8F18962C91E9
:10046A0018972F8F19962C91199728A3FD01828529
:10047A0089A300E020E030E040E050E060E08091B5
:10048A004A7C90914B7C0E945810AE01495E5F4FA6
:10049A0060E80FEF1FEF2BE030E08091407C9091F5
:1004AA00417C0E94BB0DAE014E5D5F4F60E8970133
:1004BA008091407C9091417C0E94BB0D23E030E00A
:1004CA0047E451E060E08091407C9091417C0E9439
:1004DA00BB0D00E614E06894CC24C7F8F801C58285
:1004EA00E0E0F8E08AEA82838581806285836FEFA3
:1004FA007FEF8091467C9091477C0E94FC0CF8012A
:10050A00C68200E020E030E040E050E060E0809108
:10051A004E7C90914F7C0E9458104FEF5FEF61E044
:10052A0081E00E949F126FEF7FEF80914E7C909145
:10053A004F7C0E94FC0CD39401C0D12C8091577C33
:10054A00D81608F449CF7ECEAE01445F5F4F60E80B
:10055A000FEF1FEF2BE030E08091407C9091417CBF
:10056A000E94BB0D23E030E047E451E060E0809157
:10057A00407C9091417C0E94BB0D00E614E0689497
:10058A00FF24F7F8F801F582E0E0F8E08AEA8283CE
:10059A008581806285836FEF7FEF8091467C9091A1
:1005AA00477C0E94FC0CF801F68200E020E030E073
:1005BA0040E050E060E080914E7C90914F7C0E9438
:0405CA00581040CEB7
:1005CE00CF93DF93CDB7DEB7CB5CD109CDBFDEBF06
:1005DE000FEF1FEF20E040E061E070E08091447C7F
:1005EE009091457C0E9488152FEF3FEF41E050E03F
:1005FE00BE0167537F4F8091427C9091437C0E9455
:10060E001212C753DF4F8881C95CD0408A3A61F716
:10061E006FEF7FEF80914E7C90914F7C0E94FC0C8F
:10062E0000E010E0D12C7EC02FEF3FEF41E050E014
:10063E00BE0167537F4F8091427C9091437C0E9414
:10064E001212C753DF4F8881C95CD0408A3A09F431
:10065E0062C0833009F056C0E1E0F0E0EC0FFD1F00
:10066E00E00FF11F808378014FEFE41AF40A2FEFA9
:10067E003FEF41E050E0BE0167537F4F8091427CD7
:10068E009091437C0E941212C753DF4F8881C95C40
:10069E00D040833059F5E1E0F0E0EC0FFD1FEE0D98
:1006AE00FF1D8083780152E0E50EF11C2FEF3FEF26
:1006BE0041E050E0BE0167537F4F8091427C9091A4
:1006CE00437C0E941212C753DF4F8881C95CD04011
:1006DE00833021F1E1E0F0E0EC0FFD1FEE0DFF1D88
:1006EE00808383E0D80E0D5F1F4F1AC0E1E0F0E06B
:1006FE00EC0FFD1FEE0DFF1D8083D394D3940E5F80
:10070E001F4F0EC0E1E0F0E0EC0FFD1FE00FF11FF8
:10071E008083D39405C008EC10E002C008EC10E012
:10072E000F5F1F4F083C11050CF47ECF00E020E058
:10073E0030E040E050E060E080914E7C90914F7C44
:10074E000E9458108B85853081F48985813009F09F
:10075E004BCF20E030E040E050E060E08091487CFC
:10076E009091497C0E9458103FCF8A85813009F0C4
:10077E003BCF6FEF7FEF80914A7C90914B7C0E9434
:10078E00FC0CE12CF12C30E07AC0F701EE0FFF1FCC
:10079E00EE0DFF1DEE0FFF1FEE0FFF1FE050F04995
:1007AE0090818981981368C0F701EE0FFF1FEE0D3F
:1007BE00FF1DEE0FFF1FEE0FFF1FE050F04990855B
:1007CE008985981359C0F701EE0FFF1FEE0DFF1D1F
:1007DE00EE0FFF1FEE0FFF1FE050F049838580FFE5
:1007EE004BC0E9821A828BE090E011C0FC01399770
:1007FE00A1E0B0E0AC0FBD1FA80FB91F2C9141E0D6
:10080E0050E04C0F5D1FE40FF51F208301962D2D38
:10081E0030E08217930754F357EFD50E6FEF7FEF4B
:10082E0080914C7C90914D7C0E94FC0C2D2D30E0E3
:10083E00AE014F5F5F4F60E80FEF1FEF80913C7C82
:10084E0090913D7C0E94BB0D00E020E030E040E046
:10085E0050E060E080914C7C90914D7C0E9458104D
:10086E0020E030E040E050E060E080914A7C9091E2
:10087E004B7C0E94581031E08FEFE81AF80A209155
:10088E00577C822F90E0E816F9060CF47ECF3111DA
:10089E00ABCE3981FC01EE0FFF1FDF01A80FB91F90
:1008AE00AA0FBB1FAA0FBB1FA050B0493C933A81A1
:1008BE0011963C9311973B8112963C9312973C8173
:1008CE0013963C9313973D8114963C9314973E8157
:1008DE0015963C9315973F8116963C93169738853F
:1008EE0017963C931797398518963C9318973A8527
:1008FE0019963C9319973B851A963C931A97FD01CE
:10090E0013862F5F2093577C6FEF7FEF80914C7C87
:10091E0090914D7C0E94FC0CFE01E653FF4F85E04A
:10092E0080838091577C81508183AF0160E80FEF07
:10093E001FEF22E030E080913C7C90913D7C0E9444
:10094E00BB0D00E020E030E040E050E060E0809140
:10095E004C7C90914D7C0E94581082E090E00E9459
:10096E00BC226FEF7FEF80914A7C90914B7C0E946E
:10097E00FC0C2091577C822F90E00197FC01EE0F2A
:10098E00FF1FE80FF91FEE0FFF1FEE0FFF1FE050C6
:10099E00F049838580FF40C0215029831A828BE065
:1009AE0090E011C0FC013997A1E0B0E0AC0FBD1F83
:1009BE00A80FB91F2C9141E050E04C0F5D1FE40FC2
:1009CE00F51F208301962D2D30E08217930754F3E7
:1009DE0017EF1D0D6FEF7FEF80914C7C90914D7C4A
:1009EE000E94FC0C212F30E0AE014F5F5F4F60E89C
:1009FE000FEF1FEF80913C7C90913D7C0E94BB0DD0
:100A0E0000E020E030E040E050E060E080914C7C7F
:100A1E0090914D7C0E94581000E020E030E040E0C4
:100A2E0050E060E080914A7C90914B7C0E9458107F
:020A3E00DBCD0E
:100A4000CF93DF93CDB7DEB7CA5CD109CDBFDEBF90
:100A50000FEF1FEF20E040E061E070E08091447C08
:100A60009091457C0E948815A12C99249394B12CD7
:100A7000F12C6FEF7FEF80914C7C90914D7C0E9428
:100A8000FC0C2AEF30E048EC50E0BE016D5F7F4F78
:100A900080913C7C90913D7C0E9412126C0100E0A0
:100AA00020E030E040E050E060E080914C7C9091AC
:100AB0004D7C0E945810C60199278230910521F083
:100AC000039709F461C08BC08B818430B1F185300C
:100AD00009F05AC06FEF7FEF80914A7C90914B7C78
:100AE0000E94FC0C8C8190E0FC01EE0FFF1FE80FD0
:100AF000F91FEE0FFF1FEE0FFF1FE050F049228598
:100B0000223371F4FC01EE0FFF1FE80FF91FEE0F07
:100B1000FF1FEE0FFF1FE050F04981E083879394A1
:100B200000E020E030E040E050E060E080914A7C6E
:100B300090914B7C0E94581027C08C81823049F0E4
:100B4000833061F0813001F522E4B2120CC0FB2C3D
:100B50001BC087E4B8120DC0FB2C16C029E5B212E9
:100B60000EC0FB2C11C0A92C0F2EF2E4FF2EF02D8D
:100B70000BC0A92C0F2EF7E4FF2EF02D05C0A92CD9
:100B80000F2EF9E5FF2EF02D8D81F81228C06FEFA2
:100B90007FEF80914A7C90914B7C0E94FC0C8B8172
:100BA00090E0FC01EE0FFF1FDF01A80FB91FAA0F95
:100BB000BB1FAA0FBB1FA050B049FD0183858260F7
:100BC0001B968C9300E020E030E040E050E060E0D5
:100BD00080914A7C90914B7C0E945810AA94FB14FF
:100BE00009F456C082E08A8387E4B81649F029E503
:100BF000B21649F082E4B81209C081E0898307C0C7
:100C000082E0898304C083E0898301C01982CE0118
:100C100001966C0120E8E22E00E02FEF3FEF6E2DF1
:100C2000A6018091387C9091397C0E94581087E40D
:100C3000F81649F029E5F21649F082E4F81209C0E5
:100C400081E0898307C082E0898304C083E08983CF
:100C500001C0198200E02FEF3FEF6E2DA6018091B9
:100C6000387C9091397C0E945810FB8284E08C8300
:100C700081E08D83AE014D5F5F4F60E80FEF1FEFA6
:100C800023E030E080913E7C90913F7C0E94BB0D40
:100C9000A110EFCE8FEF89831A82CE0101966C01ED
:100CA00020E8E22E00E02FEF3FEF6E2DA6018091AD
:100CB000387C9091397C0E94581081E08A8387E4C7
:100CC000F81649F029E5F21649F082E4F81209C055
:100CD00081E0898307C082E0898304C083E089833F
:100CE00001C0198200E02FEF3FEF6E2DA601809129
:0E0CF000387C9091397C0E945810BF2CBACEEF
:100CFE008F929F92AF92BF92CF92DF92EF92FF921E
:100D0E000F93CF93DF93DC01E114F10489F0E62F0A
:100D1E00F0E0EE0FFF1FEE0FFF1FE80FF91F83A08D
:100D2E0094A0A5A0B6A0F70180829182A282B38280
:100D3E0070E0FD01E60FF71F93A582E083A7023056
:100D4E0001F118F4013031F04DC0033079F1043067
:100D5E00D1F148C0660F771F660F771FFD01E60FB2
:100D6E00F71F83A094A0A5A0B6A0BA01A901482997
:100D7E0059296A297B2943A354A365A376A381E04D
:100D8E0034C0660F771F660F771FFD01E60FF71F42
:100D9E0043A154A165A176A14F5F5F4F6F4F7F4F67
:100DAE0043A354A365A376A381E01FC0660F771FEC
:100DBE00660F771FFD01E60FF71F23A334A345A38C
:100DCE0056A381E012C0923079F0660F771F660F3E
:100DDE00771FFD01E60FF71F23A334A345A356A3E8
:100DEE0081E003C081E001C080E0913009F0A4C031
:100DFE009091507C91116DC01A96ED91FC911B97BC
:100E0E001496CD91DC91159716962D913C911797CE
:100E1E002C833D831696CD91DC91179714962D91C8
:100E2E003C9115972A833B8321813281AD014E5F20
:100E3E005F4F2417350731F416962D913C91179775
:100E4E00218332831A961D921C921B97908191508A
:100E5E00908356962C9156979091557C921710F43C
:100E6E002093557C30E0F901EE0FFF1FEE0FFF1FB0
:100E7E00EE0FFF1F2E0F3F1FF901E854F4480180BB
:100E8E00F281E02D1496ED93FC9315972481358114
:100E9E0016962D933C931797C481D5814A835B8315
:100EAE00448355835696EC915697F0E09F01220F9E
:100EBE00331F220F331F220F331FE20FF31FE8548D
:100ECE00F4481A96ED93FC931B9790819F5F908345
:100EDE0021C06FEE7BE7FB01C181D2811E96CD93BF
:100EEE00DC931F972C813D8150962D933C93519707
:100EFE004C815D819D01245F3F4FFA012283338334
:100F0E002C833D8354966D937C935597FB01908172
:100F1E009F5F908356962C91E091287CF091297CCE
:100F2E009689921748F4C114D10419F091E0F60194
:100F3E00908391E09093537CDF91CF910F91FF902E
:100F4E00EF90DF90CF90BF90AF909F908F900895CD
:100F5E000F931F93CF93DF938091507C811101C12A
:100F6E00C091227CD091237C8E010F5F1F4F009386
:100F7E00227C1093237C01151105B9F48091267CF7
:100F8E009091277C2091247C3091257C2093267C87
:100F9E003093277C8093247C9093257C8091527C87
:100FAE008F5F8093527C0E94212280911E7C9091B3
:100FBE001F7C0817190720F480E0B8C081E001C03B
:100FCE0080E0E091267CF091277C9081911107C002
:100FDE002FEF3FEF20931E7C30931F7CA7C0E09134
:100FEE00267CF091277C0580F681E02D0680F78126
:100FFE00E02D228133810217130728F420931E7CE3
:10100E0030931F7C93C0A285B385248135814681A0
:10101E005781E9014C835D83268137814481558157
:10102E00E9014A835B8311962D913C911297AF0192
:10103E004E5F5F4F2417350731F4268137811196A5
:10104E002D933C931297128613869C9191509C93EC
:10105E00A489B589109719F126853785608971891C
:10106E00E9016C837D832089318966857785E90165
:10107E006A837B8311966D917C9112979F01245FF9
:10108E003F4F6217730731F42089318911962D93E2
:10109E003C931297148A158A9C9191509C932689A1
:1010AE009091557C921710F42093557C30E0D90125
:1010BE00AA0FBB1FAA0FBB1FAA0FBB1F2A0F3B1FD6
:1010CE00D901A854B44811960D90BC91A02DA483BB
:1010DE00B58314962D913C911597268337831496DC
:1010EE002D913C911597E9014A835B8314964D939C
:1010FE005C931597A689B0E09D01220F331F220F36
:10110E00331F220F331FA20FB31FA854B448A28758
:10111E00B3879C919F5F9C932689E091287CF091E8
:10112E00297C9689921708F449CF4BCFE091287C01
:10113E00F091297C268930E0F901EE0FFF1FEE0FAA
:10114E00FF1FEE0FFF1F2E0F3F1FF901E854F4484B
:10115E009081923008F081E09091537C91110CC0F7
:10116E000CC08091207C9091217C01968093207CF4
:10117E009093217C80E001C081E0DF91CF911F919F
:04118E000F91089520
:101192008F929F92AF92BF92EF92FF920F93CF9353
:1011A200DF93DC010FB6F8940F92E114F10489F099
:1011B200E62FF0E0EE0FFF1FEE0FFF1FE80FF91F03
:1011C20083A094A0A5A0B6A0F70180829182A282FA
:1011D200B38270E0FD01E60FF71F83A592E093A7AB
:1011E200023001F118F4013031F04DC0033079F1D1
:1011F2000430D1F148C0660F771F660F771FFD01DB
:10120200E60FF71F83A094A0A5A0B6A0BA01A9017A
:10121200482959296A297B2943A354A365A376A3A4
:1012220001E034C0660F771F660F771FFD01E60FDE
:10123200F71F43A154A165A176A14F5F5F4F6F4F86
:101242007F4F43A354A365A376A301E01FC0660F9B
:10125200771F660F771FFD01E60FF71F23A334A345
:1012620045A356A301E012C0823079F0660F771FC2
:10127200660F771FFD01E60FF71F23A334A345A3D3
:1012820056A301E003C001E001C000E0813009F093
:1012920077C01A96ED91FC911B971496CD91DC9133
:1012A200159716968D919C9117978C839D83169610
:1012B200CD91DC91179714968D919C9115978A8305
:1012C2009B83818192819D012E5F3F4F82179307FD
:1012D20031F416968D919C911797818392831A9679
:1012E2001D921C921B9780818150808356968C910F
:1012F20056979091557C981710F48093557C90E006
:10130200FC01EE0FFF1FEE0FFF1FEE0FFF1F8E0FF0
:101312009F1FFC01E854F4480180F281E02D1496ED
:10132200ED93FC9315978481958116968D939C93EA
:101332001797C481D5812A833B83248335835696AC
:10134200EC915697F0E0CF01880F991F880F991FF3
:10135200880F991FE80FF91FE854F4481A96ED9385
:10136200FC931B9780818F5F808356969C91E091BE
:10137200287CF091297C8689891710F40E940F1924
:101382000F900FBE802FDF91CF910F91FF90EF90C2
:0A139200BF90AF909F908F900895D8
:10139C00CF93DF930FB6F8940F928091507C8150CD
:1013AC008093507C8091507C8111BFC08091567C81
:1013BC00811196C0BDC0E091F47BF091F57B068065
:1013CC00F781E02DA489B589C685D7858089918957
:1013DC008C839D83C089D189868597858A839B83DD
:1013EC0011962D913C911297CF010C962817390725
:1013FC0031F48089918911968D939C931297148A5C
:10140C00158A8C9181508C93A285B385C481D5812A
:10141C00868197818C839D83C681D78184819581B8
:10142C008A839B8311968D919C9112979F012E5FBD
:10143C003F4F8217930731F48681978111968D93D4
:10144C009C931297128613868C9181508C9386896B
:10145C009091557C981710F48093557C90E0DC01AA
:10146C00AA0FBB1FAA0FBB1FAA0FBB1F8A0F9B1F64
:10147C00DC01A854B44811960D90BC91A02DA48306
:10148C00B58314968D919C911597868397831496AA
:10149C00CD91DC9115972A833B8314962D933C9325
:1014AC001597A689B0E0CD01880F991F880F991F59
:1014BC00880F991FA80FB91FA854B448A287B387E7
:1014CC008C918F5F8C939689A091287CB091297C0C
:1014DC0056968C91981730F081E08093537C02C023
:1014EC00E0E0F0E08091EF7B811165CFEF2B11F004
:1014FC000E942122C091207CD091217C209769F000
:10150C000E94AF07882319F081E08093537C2197C8
:10151C00B9F71092207C1092217C8091537C882307
:10152C0031F00E940F1981E003C080E001C080E01F
:0A153C000F900FBEDF91CF910895CC
:10154600CF92DF92EF920F931F930E94D222E0E692
:10155600F4E080E88183868300E010E020E030E05C
:1015660040E061E070E082E390E00E94391E8093E3
:10157600427C9093437C20E030E040E061E070E004
:1015860088EC90E00E94391E8093407C9093417CC9
:1015960020E030E041E060E070E080E991E00E9408
:1015A600391E80933E7C90933F7C20E030E041E002
:1015B60060E070E088EC90E00E94391E80933C7CED
:1015C60090933D7C40E061E083E00E94B81D8093EB
:1015D6003A7C90933B7C40E062E083E00E94B81D39
:1015E6008093387C9093397C81E00E94E423809339
:1015F6004E7C90934F7C81E00E94E42380934C7C48
:1016060090934D7C81E00E94E42380934A7C9093E2
:101616004B7C43E060E081E00E94B81D8093487CEB
:101626009093497C43E060E081E00E94B81D80937E
:10163600467C9093477C0E9437238093447C90930A
:10164600457CC12CD12C0F2EF3E0EF2EF02D2CE291
:1016560031E044E151E060E086E79BE00E94FA1544
:101666006894EE24E1F824EF31E049E151E060E0CE
:1016760085EA90E00E94FA150F2EF3E0EF2EF02D8A
:1016860020E931E04FE151E060E087EE92E00E9410
:10169600FA156894EE24E1F82AEF30E044E251E0CE
:1016A60060E084ED9BE10E94FA152AEF30E049E202
:1016B60051E060E087E696E10E94FA15EE24E39495
:1016C60028E532E040E351E060E080E295E00E94E8
:1016D600FA150E94C91F80E090E01F910F91EF90CC
:0616E600DF90CF90089593
:1016EC00CF93DF9300D00F92CDB7DEB76FEF7FEFC4
:1016FC0080914E7C90914F7C0E94FC0C8FEF8983E3
:10170C0082E08A83CE0101963C0120E8822E00E023
:10171C002FEF3FEF682DA3018091387C9091397C9D
:10172C000E94581060E070E08091447C9091457C60
:10173C000E94FC0C10E02EC02FEF3FEF41E050E078
:10174C00BE016D5F7F4F8091427C9091437C0E94E3
:10175C0012128B818A3AF1F42FEF3FEF41E050E007
:10176C00BE016D5F7F4F8091427C9091437C0E94C3
:10177C0012128B81813009F411E020E030E041E05D
:10178C0050E0BE016D5F7F4F8091427C9091437C15
:10179C000E941212113081F681E08B836E0183E07E
:1017AC00C80ED11CE0E8EE2E0FEF1FEF21E030E069
:1017BC006E2DA6018091407C9091417C0E94BB0DC6
:1017CC0083E08B8321E030E06E2DA6018091407C7C
:1017DC009091417C0E94BB0D81E090E00E94BC2264
:1017EC0080E880936504E0E0F8E08AEA82838581F2
:1017FC00806285838091040886FFFCCFE12C68947D
:10180C00FF24F3F8F70184818064848380E880935B
:10181C0066048FEF89831A8201E02FEF3FEF682D6A
:10182C00A3018091387C9091397C0E945810F7016B
:10183C0085818064858300E020E030E040E050E06A
:10184C0060E080914E7C90914F7C0E94581061E03A
:10185C0070E08091447C9091457C0E949E1480E0C5
:08186C0090E00E94901742CFAA
:10187400CF93DF93A82FCB010596A11DFC015A2F0E
:101884000E942524DB011696ED91FC911797A489FB
:10189400B589C685D785808991898C839D83C089C4
:1018A400D189868597858A839B8311968D919C9196
:1018B40012979F01245F3F4F8217930731F4808969
:1018C400918911968D939C931297148A158A8C9101
:1018D40081508C938091507C811160C0A285B38526
:1018E400C481D581868197818C839D83C681D7816C
:1018F400848195818A839B8311968D919C91129703
:101904009F012E5F3F4F8217930731F486819781A1
:1019140011968D939C931297128613868C91815005
:101924008C9386899091557C981710F48093557CFC
:1019340090E0DC01AA0FBB1FAA0FBB1FAA0FBB1F9D
:101944008A0F9B1FDC01A854B44811960D90BC91DA
:10195400A02DA483B58314968D919C9115978683AD
:1019640097831496CD91DC9115972A833B83149623
:101974002D933C931597A689B0E0CD01880F991F4C
:10198400880F991F880F991FA80FB91FA854B4482E
:10199400A287B3878C918F5F8C931CC04FEE5BE75B
:1019A400DA011196CD91DC911297C687D7878C8185
:1019B4009D81808B918B8C819D81DC0112962D936E
:1019C4003C9313972C833D83448B558BDA018C9184
:1019D4008F5F8C939689E091287CF091297C86898D
:1019E400891720F481E08093537C01C080E0DF916B
:0419F400CF910895F2
:1019F800BF92CF92DF92EF92FF920F931F93CF93F4
:101A0800DF93CDB7DEB72597CDBFDEBF8C016C83E2
:101A18007D83E12CF12C0FB6F8940F92F801828D9A
:101A28008823E1F08150828F80819181892B29F46C
:101A38000E949523F80184839583F8018085882383
:101A480049F0085F1F4FB80180E80E943A0C8111E5
:101A58000E940F190F900FBE81E07CC08C819D8180
:101A6800892B21F40F900FBE80E074C0F11006C0DE
:101A7800CE0101960E94F223FF24F3940F900FBE2B
:101A88000E9444240FB6F8940F92F801858D8F3F79
:101A980009F4158EF801868D8F3F09F4168E0F9084
:101AA8000FBEBE016C5F7F4FCE0101960E94791E6A
:101AB80081112BC0B80180E80E944A238823F9F0DD
:101AC800F80180819181892B51F40FB6F8940F9217
:101AD800848195810E94ED10E82E0F900FBE6C81D5
:101AE8007D81C80141960E948323C8010E942B1F53
:101AF8000E94CE0981118FCF0E940F198CCFC80187
:101B08000E942B1F0E94CE0986CFC8010E942B1F5E
:101B18000E94CE09C801A0E8C92EDA2EBC018A2F7E
:101B28000E944A23882309F476CFEE2091F00FB65D
:101B3800F8940F92602F7C2D8D2D0E945822682FCB
:101B4800F801848195810E9415150F900FBE80E0E1
:101B580001C080E02596CDBFDEBFDF91CF911F91F8
:0E1B68000F91FF90EF90DF90CF90BF90089507
:101B76004F925F926F927F928F929F92AF92BF9297
:101B8600CF92DF92EF92FF920F931F93CF93DF9343
:101B9600CDB7DEB72897CDBFDEBF5C014E835F832E
:101BA600688729010C831D83FC0184819581019737
:101BB600268520FF0AC03201F2E06F0E711C8615E1
:101BC600970548F41C821D8206C08415950510F001
:101BD600320101C03C018C819D81892BB9F1CE0176
:101BE60001960E94B7230FB6F8940F92C5010E9482
:101BF600631F4C018615970530F560E080E090E0A4
:101C06000E9472220E944A24F501828793870F90D0
:101C16000FBECC80DD80E12CF12C00E010E09801B5
:101C260040E050E0BA0180E00E941A0FF5011286EA
:101C36001386BE016C5F7F4FCE0101960E94791E0E
:101C4600882389F205C00F900FBE02C0812C912C0B
:101C56008114910421F4C5010E94631F4C01730194
:101C6600840192014E815F816885C5010E94111A27
:101C76006C01892B09F1B50180E80E94E820F50185
:101C86002681378182179307B8F00E944424F50114
:101C960080859185892B71F080859185E12CF12CC9
:101CA60000E020E030E0A90160E00E94C908F501EB
:101CB600108611860E94CE09C6012896CDBFDEBFCA
:101CC600DF91CF911F910F91FF90EF90DF90CF9012
:101CD600BF90AF909F908F907F906F905F904F9046
:021CE60008955F
:101CE800CF93DF93DC0170686D937C931197169600
:101CF800ED91FC91179718964D915C911997129652
:101D08008D919C91139714962D913C911597EC0108
:101D18002C833D8314968D919C91159712962D9145
:101D28003C911397EC012A833B83EA0189819A81CC
:101D3800A817B90731F414968D919C91159789834A
:101D48009A8318961D921C921997DA018C918150EA
:101D58008C93A285B385C481D581868197818C8334
:101D68009D83C681D781848195818A839B831196BF
:101D78008D919C9112979F012E5F3F4F8217930779
:101D880031F48681978111968D939C9312971286D0
:101D980013868C9181508C9386899091557C9817E5
:101DA80010F48093557C90E0DC01AA0FBB1FAA0FAA
:101DB800BB1FAA0FBB1F8A0F9B1FDC01A854B44886
:101DC80011960D90BC91A02DA483B58314968D9186
:101DD8009C911597868397831496CD91DC911597DE
:101DE8002A833B8314962D933C931597A689B0E0DC
:101DF800CD01880F991F880F991F880F991FA80F69
:101E0800B91FA854B448A287B3878C918F5F8C936D
:101E18009689E091287CF091297C8689891718F4A5
:0C1E280081E08093537CDF91CF910895FE
:101E34008F929F92AF92BF92CF92DF92EF92FF92D6
:101E44000F931F93CF93DF93480159010FB6F89472
:101E54000F92E091287CF091297CC82FD0E0EC0F00
:101E6400FD1F83A5823061F1E091287CF091297CEB
:101E7400CE01880F991F880F991FE80FF91F83A1BE
:101E840094A1A5A1B6A1409550956095709548235D
:101E940059236A237B2343A354A365A376A3E09128
:101EA400287CF091297CEC0FFD1F81E083A7C114ED
:101EB400D10431F061E0C6010E9422130E940F197F
:101EC4000F900FBE0FB6F8940F92E114F104A1F035
:101ED400E091287CF091297CCE01880F991F880F0E
:101EE400991FE80FF91F83A194A1A5A1B6A1F70139
:101EF40080839183A283B383E091287CF091297C31
:101F0400EC0FFD1F83A58230E9F4E091287CF09169
:101F1400297CCE01880F991F880F991FE80FF91F9C
:101F240083A194A1A5A1B6A180949094A094B09407
:101F340088229922AA22BB2283A294A2A5A2B6A295
:101F440081E001C080E02091287C3091297CC20F7F
:101F5400D31F1BA60F900FBEDF91CF911F910F913E
:101F6400FF90EF90DF90CF90BF90AF909F908F90B5
:021F74000895CE
:101F7600EF92FF920F931F93CF93DF93CDB7DEB708
:101F86002697CDBFDEBF7AC0898188230CF476C040
:101F96000C811D81D8011B968D919C911C97892BD4
:101FA60021F0C80103960E943C21CE0106960E94AC
:101FB600A8217C01E9818E2FEE0F990BAA0BBB0B92
:101FC600FC013197E930F10508F058C0EE5AFF4F91
:101FD6000C941C24F80183898160838B2A813B81C0
:101FE60065857685620F731FA701C8010E948E2042
:101FF600882309F443C0D80153968C91539782FFE6
:102006000DC06A817B811D968D919C911E97680FEC
:10201600791FA701C8010E94632103C08E7FF801C2
:10202600838BD8015196ED91FC915297C801099581
:1020360025C0F80183898E7F838B20C0D8015396F3
:102046008C915397816053968C9353976A817B81C9
:102056001D966D937C931E976E0D7F1D9701A701AC
:10206600C8010E948E200AC0F801838981FD04C040
:10207600C8010E945E2402C08E7F838B40E050E040
:10208600BE016F5F7F4F80912E7C90912F7C0E94C6
:102096008111811179CF2696CDBFDEBFDF91CF9119
:0A20A6001F910F91FF90EF90089535
:1020B0006F927F928F92EF92FF920F931F93CF9325
:1020C000DF93CDB7DEB72597CDBFDEBF7C013A01E8
:1020D000862E2C833D8310E00FB6F8940F92F70103
:1020E000928D838D981710F00230E9F4202F682D1F
:1020F000A301C7010E945118F7019189992361F04A
:10210000F1E1EF0EF11CB70180E80E943A0C882340
:1021100031F00E940F1903C081110E940F190F9016
:102120000FBE81E04DC08C819D81892B21F40F90E1
:102130000FBE80E045C0111105C0CE0101960E947E
:10214000F22311E00F900FBE0E9444240FB6F894C2
:102150000F92F701858D8F3F09F4158EF701868D5B
:102160008F3F09F4168E0F900FBEBE016C5F7F4F3C
:10217000CE0101960E94791E81111CC0B70180E832
:102180000E94E721882381F06C817D81C701089638
:102190000E948323C7010E942B1F0E94CE09811138
:1021A0009BCF0E940F1998CFC7010E942B1F0E943E
:1021B000CE0992CFC7010E942B1F0E94CE0980E05A
:1021C0002596CDBFDEBFDF91CF911F910F91FF907C
:0A21D000EF908F907F906F900895BC
:1021DA000F931F93CF93DF93FC01892B09F484C0DB
:1021EA002689A091287CB091297C56968C91281733
:1021FA0008F070C084859585992364F0A091287CA5
:10220A00B091297C56963C9184E090E0831B910919
:10221A00848795878285938530E0A901440F551FED
:10222A00440F551F440F551F240F351F2854344897
:10223A008217930709F045C0EF018F010E5F1F4F08
:10224A00C8010E943C21E091287CF091297C868972
:10225A008E8B9091557C981710F48093557C90E062
:10226A00FC01EE0FFF1FEE0FFF1FEE0FFF1F8E0F79
:10227A009F1FFC01E854F4480180F281E02DEC83B1
:10228A00FD83848195818E839F83A481B581129673
:10229A000D931C931397048315838E8990E0FC0198
:1022AA00EE0FFF1FEE0FFF1FEE0FFF1FE80FF91FC4
:1022BA00E854F448EA87FB8780818F5F808381E056
:1022CA0016C0A091287CB091297C56968C91868B59
:1022DA0081E00DC091A1E091287CF091297C86894A
:1022EA00981720F080E003C080E001C081E0DF9110
:0822FA00CF911F910F9108958F
:10230200CF92DF92EF92FF920F931F93CF93DF93BF
:10231200CDB7DEB72597CDBFDEBF8C016B014C83F5
:102322005D83E12C0FB6F8940F92F801F28CFF2036
:10233200B9F0B601C8010E943D22FA94F801F28E6A
:102342008085882349F0085F1F4FB80180E80E940A
:102352003A0C81110E940F190F900FBE81E055C0F7
:102362008C819D81892B21F40F900FBE80E04DC09E
:10237200E11006C0CE0101960E94F223EE24E394FE
:102382000F900FBE0E9444240FB6F8940F92F801EA
:10239200858D8F3F09F4158EF801868D8F3F09F4E4
:1023A200168E0F900FBEBE016C5F7F4FCE0101965D
:1023B2000E94791E81111CC0B80180E80E944A2344
:1023C200882381F06C817D81C80141960E9483231C
:1023D200C8010E942B1F0E94CE098111A3CF0E9427
:1023E2000F19A0CFC8010E942B1F0E94CE099ACFBD
:1023F200C8010E942B1F0E94CE09B80180E80E94EA
:102402004A23882309F48ECF80E02596CDBFDEBF14
:10241200DF91CF911F910F91FF90EF90DF90CF90BE
:0224220008951B
:102424002F923F924F925F926F928F929F92AF92B0
:10243400BF92CF92DF92EF92FF920F931F93CF93AD
:10244400DF93EC011B014A0169018E8580FF05C001
:102454006894AA24A1F8B12C02C0A12CB12CC114F7
:10246400D10479F10FB6F8940F922E0180E8682E0A
:10247400862DB2010E94E8208C01A816B90648F006
:1024840060E080E090E00E9472220E944A248887E3
:1024940099870F900FBEA016B106C0F0E12CF12C65
:1024A40000E010E0980140E050E0BA0180E00E94B2
:1024B4001A0F18861986862DB2010E94E8208C0115
:1024C40005C0BE0180E80E94E8208C01A016B10678
:1024D400F8F49801A401B101CE010E94441B5C01EF
:1024E400892BC1F00E9444248A859B85892B69F03D
:1024F4008A859B85E12CF12C00E020E030E0A901E5
:1025040060E00E94C9081A861B860E94CE0902C098
:10251400A12CB12CC501DF91CF911F910F91FF9098
:10252400EF90DF90CF90BF90AF909F908F906F907F
:0A2534005F904F903F902F900895A4
:10253E00CF92DF92EF92FF921F93CF93DF93162FDE
:10254E000FB6F8940F92E091287CF091297CC82F59
:10255E00D0E09E01220F331F220F331FE20FF31F15
:10256E00C3A0D4A0E5A0F6A0CD28CE28CF2889F40C
:10257E00E091287CF091297CEC0FFD1F81E083A770
:10258E004115510531F061E0CA010E9422130E94EB
:10259E000F190F900FBE0FB6F8940F92E091287C92
:1025AE00F091297CCE01880F991F880F991FE80F93
:1025BE00F91F63A174A185A196A16115710581050D
:1025CE00910541F1112381F0E091287CF091297C55
:1025DE009E01220F331F220F331FE20FF31F13A290
:1025EE0014A215A216A216C0E091287CF091297CA7
:1025FE009E01220F331F220F331FE20FF31F6B01B9
:10260E007C0121E0C21AD108E108F108C3A2D4A2CC
:10261E00E5A2F6A22091287C3091297CC20FD31F0F
:10262E001BA60F900FBEDF91CF911F91FF90EF90E1
:06263E00DF90CF9008952B
:10264400FF920F931F93CF93DF93EC01F62E00912B
:10265400227C1091237C8091287C9091297C029685
:102664000E943C21CF3F8FEFD807B1F5FF20A1F1A5
:10267400E6EEFBE7A181B281C091287CD091297C50
:10268400AC83BD83C091287CD091297C14968D9114
:102694009C9115978E839F831496CD91DC91159709
:1026A4008091287C9091297C02968A839B838091D7
:1026B400287C9091297C029614968D939C9315976F
:1026C400A091287CB091297C1A96ED93FC931B97DA
:1026D40080818F5F80832FC0C00FD11FE091287C41
:1026E400F091297CC283D383C017D10768F4609129
:1026F400287C7091297C8091247C9091257C6E5F4C
:102704007F4F0E942D2017C06091287C7091297CF6
:102714008091267C9091277C6E5F7F4F0E942D20B4
:1027240080911E7C90911F7CC817D90720F4C09318
:102734001E7CD0931F7CDF91CF911F910F91FF904E
:022744000895F6
:102746002F923F926F927F928F929F92AF92BF92FB
:10275600CF92DF92EF92FF920F931F93CF93DF9367
:10276600CDB7DEB73C01A62FCA011701FC2CF40138
:102776006789708DA801415051098B01040F151FFF
:102786000097A105D1F41EC0242F30E06C01EA2E7B
:10279600C20ED31EE11C37FDEA94F6015E2D0E949F
:1027A6003D24F401E20FF31F618FF6015E2D0E94B6
:1027B6003D24662329F04F5F01C040E0483020F3F6
:1027C600F40110A2F3E0FF1520F40F2EF3E0FF2E24
:1027D600F02DF401F68AF1A2C40102960E944F245C
:1027E600C4010C960E944F24F4018086918684E0F1
:1027F60090E08F19910984879587828A938AA1012F
:10280600B301C8010E941123F40180839183A114AE
:10281600B10419F0F50180829182DF91CF911F9169
:102826000F91FF90EF90DF90CF90BF90AF909F9069
:0C2836008F907F906F903F902F9008953E
:10284200CF93DF93EC010FB6F8940F928091567CF0
:102852008F5F8093567C8091287C9091297C892B74
:1028620059F4C093287CD093297C8091567C813086
:1028720099F40E94961F10C08091547C81110CC063
:10288200E091287CF091297C96898E89891720F025
:10289200C093287CD093297C8091517C8F5F809358
:1028A200517C8E899091557C981710F48093557CB9
:1028B20090E0FC01EE0FFF1FEE0FFF1FEE0FFF1F58
:1028C2008E0F9F1FFC01E854F4480180F281E02D35
:1028D200EC83FD83848195818E839F83A481B5815E
:1028E200CE01029612968D939C93139784839583BF
:1028F200EE89F0E0CF01880F991F880F991F880F8A
:10290200991FE80FF91FE854F448EA87FB87808192
:102912008F5F80830F900FBE8091547C882351F08B
:10292200E091287CF091297C96898E89981710F481
:0A2932000E940F19DF91CF91089564
:10293C006F927F928F92BF92CF92DF92EF92FF9223
:10294C000F931F93CF93DF93EC018B013C0182E03B
:10295C00680E711C80E8882EE82C630183E0C80E99
:10296C00D11CE11C0E94442485E0680E711C811C62
:10297C00F301582D0E942524FB0188819981082B95
:10298C00192B0883198300E010E02AC0B280F38071
:10299C00808191819C01332792FD08C04881598127
:1029AC0042235323452B59F440E00CC048815981F4
:1029BC00422353232417350721F040E003C041E0A4
:1029CC0001C041E0442351F090FF02C0022B132BB5
:1029DC00688179817260CF010E94740EEB2DFF2DFE
:1029EC00CF01A0E8C816D906EA0681F60095109525
:1029FC008881998108231923088319830E94CE09A1
:102A0C0088819981DF91CF911F910F91FF90EF9069
:0E2A1C00DF90CF90BF908F907F906F900895C5
:102A2A000F931F93CF93DF93FC01892B09F466C0A0
:102A3A0091A1961708F4962F8689981709F45EC013
:102A4A0022A1213009F05AC0968B2485358533237B
:102A5A0034F024E030E0291B3109248735872285A8
:102A6A00338590E0AC01440F551F440F551F440FA6
:102A7A00551F840F951F8854944828173907F1F574
:102A8A00EF018F010E5F1F4FC8010E943C218E8902
:102A9A009091557C981710F48093557C90E0FC0136
:102AAA00EE0FFF1FEE0FFF1FEE0FFF1F8E0F9F1F70
:102ABA00FC01E854F4480180F281E02DEC83FD83A7
:102ACA00848195818E839F83A481B58112960D930B
:102ADA001C931397048315838E8990E0FC01EE0FF3
:102AEA00FF1FEE0FFF1FEE0FFF1FE80FF91FE8543D
:102AFA00F448EA87FB8780818F5F8083DF91CF91DB
:062B0A001F910F910895D8
:102B1000AF92BF92CF92DF92EF92FF920F931F93EB
:102B2000CF93DF937C015B01C42ED22E0E944424FC
:102B3000F701C081D1814D2DB501CE010E94242322
:102B4000882369F0CC2009F1C501809590958C23EC
:102B50009D23F7018083918300E010E018C00115E8
:102B60001105A9F0C11003C060E070E002C060E090
:102B700071E0D11074606A297B29A801C70102960F
:102B80000E94A71CC0E0D0E002C000E010E00E945C
:102B9000CE09012B19F1811102C00E940F190E9468
:102BA000A522EC0191FD19C00FB6F8940F92F70120
:102BB000C081D1814D2DB501CE010E9424238823EF
:102BC00051F0CC2041F0B501609570956C237D23C8
:102BD000F701608371830F900FBEDD27CE01DF9177
:102BE000CF911F910F91FF90EF90DF90CF90BF900A
:042BF000AF90089505
:102BF4004F925F926F927F928F929F92AF92BF9209
:102C0400CF92DF92EF92FF920F931F93CF93DF93B4
:102C1400CDB7DEB72597CDBFDEBF3C0149835A83CC
:102C24006B8349012801C9010E94B81E8C01892BBC
:102C3400B9F08DE290E00E94B81E8C839D83892BAD
:102C440059F08DE2EC81FD8111928A95E9F7EC81CE
:102C5400FD81078B108F06C0C8010E945E2402C04C
:102C64001C821D828C819D81892BD1F0840120E0FE
:102C740030E01F921F921F928C809D805601CE2CB3
:102C8400720149815A816B81C3010E94A3138C8113
:102C94009D810E9421140F900F900F9081E001C03C
:102CA4008FEF2596CDBFDEBFDF91CF911F910F919E
:102CB400FF90EF90DF90CF90BF90AF909F908F9058
:0A2CC4007F906F905F904F9008958D
:102CCE00CF93DF9300D0CDB7DEB780E880930104B9
:102CDE0083E080934104F12C00E010E04AEF50E0D5
:102CEE00BE016F5F7F4F8091387C9091397C0E943E
:102CFE0081118981823059F018F4813031F00EC083
:102D0E00833039F08F3F39F009C01A8107C00A812C
:102D1E0005C0FA8003C01A81F12E012F113041F047
:102D2E0018F0123049F00BC082E08093460407C0C1
:102D3E0082E08093450403C082E080934704013013
:102D4E0041F018F0023049F00BC081E08093460448
:102D5E0007C081E08093450403C081E0809347045F
:102D6E0081E0F81651F0F81620F082E0F81649F0DE
:102D7E00B5CF80E880930604B1CF80E88093050438
:0A2D8E00ADCF80E880930704A9CFC1
:102D98000F931F93CF93DF93FC01892B09F451C044
:102DA80082A1815082A3268991A1291709F44BC0D9
:102DB80081114BC0EF018F010E5F1F4FC8010E94A8
:102DC8003C2189A18E8B24E030E0281B31092C8717
:102DD8003D879091557C981710F48093557C90E02E
:102DE800FC01EE0FFF1FEE0FFF1FEE0FFF1F8E0FF0
:102DF8009F1FFC01E854F4480180F281E02DEC8328
:102E0800FD83848195818E839F83A481B5811296E9
:102E18000D931C93139704831583EE89F0E0CF017B
:102E2800880F991F880F991F880F991FE80FF91F9E
:102E3800E854F448EA87FB8780818F5F808381E0CC
:102E480005C080E003C080E001C080E0DF91CF9141
:062E58001F910F91089587
:102E5E000F931F93CF93DF93FC01362F892B09F429
:102E6E004EC0238D222309F44CC0022F10E08FEFA9
:102E7E009FEFB8010E94FD22448D842F90E06817C9
:102E8E00790708F440C0EF010FB6F8940F926081F5
:102E9E007181FB01249FE00DF11D1124EC83FD8354
:102EAE001A8E6A837B8301501109809FA001819F36
:102EBE00500D909F500D1124CB01840F951F8E83C2
:102ECE009F838FEF8D8F8E8F31110DC08885882354
:102EDE0091F02896BE0180E80E943A0C882359F0A2
:102EEE000E940F1908C0CE0108960E94D623CE016B
:102EFE0041960E94D6230F900FBE81E005C080E060
:102F0E0003C080E001C080E0DF91CF911F910F914F
:022F1E00089514
:102F20000F931F93CF93DF93EC010FB6F8940F929A
:102F3000892B21F4C091287CD091297C8E010E5FD1
:102F40001F4FC8010E943C218C899D89892B21F04B
:102F5000CE010C960E943C21B80186EE9BE70E94B0
:102F6000872180E00FC0282F082E000C330BFE01B4
:102F7000E20FF31F93A5913021F4FE01E20FF31F3E
:102F800013A68F5F82307CF30F900FBE8091547C2C
:102F9000882339F00FB6F8940F920E9421220F90E7
:102FA0000FBE8091287C9091297CC817D907A1F485
:102FB0008091547C882319F00E940F190DC09091C4
:102FC000E67B8091567C981305C01092287C109265
:102FD000297C02C00E946C19DF91CF911F910F9143
:022FE000089552
:102FE2000F920FB6F8940F920BB60F921F92112404
:102FF2002F923F924F925F926F927F928F929F9207
:10300200AF92BF92CF92DF92EF92FF920F931F93F4
:103012002F933F934F935F936F937F938F939F93DE
:10302200AF93BF93CF93DF93EF93FF93A091287C4D
:10303200B091297C0DB60D920EB60D920E94AF078B
:1030420081110E946C19A091287CB091297CCD91AC
:10305200CDBFDD91DEBFFF91EF91DF91CF91BF91A7
:10306200AF919F918F917F916F915F914F913F911E
:103072002F911F910F91FF90EF90DF90CF90BF9013
:10308200AF909F908F907F906F905F904F903F9006
:103092002F901F900F900BBE0F900FBE0F901895A0
:1030A2000F931F93CF93DF93EC01022F1A8D2C8D78
:1030B20021110CC088819981892B09F042C08C8131
:1030C2009D810E94CC161C821D8242C0011117C034
:1030D20030E08A819B810E948C222C8D8A819B8187
:1030E200820F911D8A839B832C813D8182179307D6
:1030F20050F1888199818A839B8380E029C030E0E6
:103102008E819F810E948C228C8D90E09195819579
:1031120091092E813F81280F391F2E833F834881D9
:1031220059812417350730F42C813D81820F931F7A
:103132008E839F83023049F4112349F0115080E0BD
:1031420007C080E005C080E003C080E001C080E0ED
:0E3152001F5F1A8FDF91CF911F910F9108958B
:103160001F920F920FB60F9211240BB60F920F936E
:103170002F933F934F935F936F937F938F939F937F
:10318000AF93BF93EF93FF93CF93DF930F92CDB79E
:10319000DEB7198280916904883099F018F4843080
:1031A000B1F019C0803239F08034A9F480936904F9
:1031B00081E0898310C080E28093690482E0898382
:1031C0000AC088E08093690483E0898304C084E0B6
:1031D000809369048983AE014F5F5F4F60E801E02F
:1031E00020E030E080913A7C90913B7C0E94F91D78
:1031F0000F90DF91CF91FF91EF91BF91AF919F9190
:103200008F917F916F915F914F913F912F910F918E
:0E3210000F900BBE0F900FBE0F901F901895E1
:10321E000F920FB6F8940F920BB60F921F921124C5
:10322E002F923F924F925F926F927F928F929F92C8
:10323E00AF92BF92CF92DF92EF92FF920F931F93B6
:10324E002F933F934F935F936F937F938F939F93A0
:10325E00AF93BF93CF93DF93EF93FF93A091287C0F
:10326E00B091297C0DB60D920EB60D920E946C197E
:10327E00A091287CB091297CCD91CDBFDD91DEBF90
:10328E00FF91EF91DF91CF91BF91AF919F918F9170
:10329E007F916F915F914F913F912F911F910F9160
:1032AE00FF90EF90DF90CF90BF90AF909F908F9058
:1032BE007F906F905F904F903F902F901F900F9048
:0A32CE000BBE0F900FBE0F90089585
:1032D8008091507C882321F081E08093537C08956D
:1032E8001092537C2091557C01C02150822F90E090
:1032F800FC01EE0FFF1FEE0FFF1FEE0FFF1FE80F81
:10330800F91FE854F4483081332379F3AC01440FB2
:10331800551F440F551F440F551F480F591FDF01F4
:103328000180F281E02D0280F381E02D1196ED936A
:10333800FC93129745545448E417F50729F4428141
:103348005381FD0141835283FC01EE0FFF1FEE0FF5
:10335800FF1FEE0FFF1F8E0F9F1FFC01E854F4485C
:103368000180F281E02D868197818093287C90935B
:08337800297C2093557C089587
:103380006F927F928F92AF92BF92CF92DF92EF9225
:10339000FF920F931F93CF93DF93EC013A01862E98
:1033A000590168018E8580FF05C0790182E0E80E31
:1033B000F11C01C07901CE010E94631F8C019501AF
:1033C000682DA301CE010E94111A5C01892BD1F056
:1033D000BE0180E80E94E8202E813F81821793077A
:1033E00088F088859985892B69F088859985E12CF5
:1033F000F12C00E020E030E0A90160E00E947F06AF
:1034000018861986C501DF91CF911F910F91FF900A
:10341000EF90DF90CF90BF90AF908F907F906F90A4
:0234200008950D
:103422006F927F928F92AF92BF92CF92DF92EF9282
:10343200FF920F931F93CF93DF9300D0CDB7DEB7E8
:103442005C013A01862E6901FC0122813381968555
:1034520090FF11C0C982DA820E151F0588F0AE01F5
:103462004F5F5F4F60E8890122E030E0C5010E94B2
:10347200B01A9C0107C00C151D0520F4680102C09A
:10348200C12CD12CC114D10451F089019601682DAF
:10349200A301C5010E94B01AF50182839383C6017C
:1034A2000F900F90DF91CF911F910F91FF90EF90AE
:1034B200DF90CF90BF90AF908F907F906F900895E4
:1034C2006F927F928F92CF92DF92EF92CF93DF93A0
:1034D200EC016A01E62E452B462B49F5A0E0B0E04F
:1034E2002BC0292F30E0F901EE0FFF1FEE0FFF1F57
:1034F200E20FF31FE452F448638174816C177D0775
:1035020011F4DF0119C0109781F4F901EE0FFF1FCA
:10351200EE0FFF1FE20FF31FE452F4486080718048
:1035220082806728682809F4DF019F5F03C0A0E05A
:10353200B0E090E09230A8F2109741F0CD92DD9287
:10354200EC9212971396CD93DC931497DF91CF915F
:0E355200EF90DF90CF908F907F906F90089554
:103560006F927F928F92CF92DF92EF92FF920F93A2
:103570001F93CF93DF936C013A01862EE901FC0182
:10358000E480F580E01AF10A2E153F0508F4790170
:10359000F601848595859701682DA301800F911F01
:1035A0000E948C22EC16FD0678F49E012E193F092C
:1035B000682DA3014E0D5F1D611DF7FC6A95F60194
:1035C000848595850E948C22C8018C0F9D1FF60171
:1035D000248135818217930710F0821B930BDF91B2
:1035E000CF911F910F91FF90EF90DF90CF908F9030
:0635F0007F906F9008952A
:1035F6000F931F93CF93DF93FC018B01A181B281BF
:103606008091287C9091297CEC01AE87BF878091C0
:10361600287C9091297C14962D913C911597EC016C
:10362600288B398B14968D919C9115972091287C27
:103636003091297C245F3F4FEC012A833B83209104
:10364600287C3091297C245F3F4F14962D933C9320
:103656001597A091287CB091297C5496ED93FC9304
:10366600559790819F5F9083442311F00FEF1FEFD2
:10367600642FC8010E942213DF91CF911F910F91F1
:023686000895A5
:10368800AF92BF92CF92DF92EF92FF920F931F9368
:10369800CF93DF9300D0CDB7DEB77C015B016A0121
:1036A8008901FC0120813181968590FF14C042E098
:1036B80050E0BE016F5F7F4FC7010E941B1C9C0139
:1036C80089819A8102501109C816D90610F06C0137
:1036D80002C0C12CD12CC016D10608F486010115F0
:1036E800110541F0A801B501C7010E941B1CF70193
:1036F80080839183C8010F900F90DF91CF911F9124
:103708000F91FF90EF90DF90CF90BF90AF9008950A
:10371800CF92DF92EF92FF921F93CF93DF930F9296
:10372800CDB7DEB77C01162F0E944424CE01019646
:103738000E94A8216C018981811127C011110AC03A
:10374800CE14DF0438F00E94CE09B601C7010E94EA
:10375800BD201DC0112341F0E091307CF091317CF7
:10376800808111E0811110E0B7016C197D09412FAA
:1037780080912E7C90912F7C0E9404220E94CE0979
:10378800811105C00E940F1902C00E94CE090F9036
:10379800DF91CF911F91FF90EF90DF90CF90089528
:1037A800CF93DF9300D00F92CDB7DEB7E0E6F4E019
:1037B8009CE69283A0E4B4E088E012968C9312977A
:1037C8008BE08387948753968C934FEF5FEFBE010E
:1037D8006F5F7F4F80913A7C90913B7C0E94811172
:1037E80084E08A8389818B836FEF7FEF80914C7CA3
:1037F80090914D7C0E94FC0CAE014E5F5F4F60E8DB
:103808000FEF1FEF22E030E080913C7C90913D7CEF
:103818000E94BB0D00E020E030E040E050E060E0B6
:0E38280080914C7C90914D7C0E945810CECF28
:10383600AF92BF92CF92DF92EF92FF920F931F93B8
:10384600CF93DF937C015B01EA016901FC010481EE
:103856001581021B130B4017510708F48A01F70163
:10386600448555854C0D5D1D60E89801C5010E9493
:103876008C220C171D0760F49E01201B310BF701EB
:103886004485558560E8C501800F911F0E948C22F2
:10389600C6018C0F9D1FF70124813581821793077E
:1038A60010F0821B930BDF91CF911F910F91FF9028
:0C38B600EF90DF90CF90BF90AF9008958E
:1038C200AF92BF92CF92DF92EF92FF920F931F932C
:1038D200CF93DF93EC015B017A0169018E8580FF52
:1038E20003C002E010E002C000E010E0BE0180E888
:1038F2000E94E82008171907D8F49C01A701B50116
:10390200CE010E94441B5C01892BA1F08A859B8514
:10391200892B81F08A859B85E12CF12C00E020E047
:1039220030E0A90160E00E947F061A861B8602C071
:10393200A12CB12CC501DF91CF911F910F91FF9066
:0C394200EF90DF90CF90BF90AF90089501
:10394E00CF93DF93FC01A091287CB091297C706805
:10395E001C966D937C931D97A181B281C091287C9A
:10396E00D091297CAE87BF87C091287CD091297CCD
:10397E0014968D919C911597888B998B1496CD9159
:10398E00DC9115972091287C3091297C245F3F4F44
:10399E002A833B832091287C3091297C245F3F4FE2
:1039AE0014962D933C931597A091287CB091297C69
:1039BE005496ED93FC93559790819F5F908361E0B1
:0C39CE00CA010E942213DF91CF910895DE
:1039DA001F920F920FB60F9211240BB60F922F93CC
:1039EA003F934F935F936F937F938F939F93AF937D
:1039FA00BF93EF93FF93CF93DF930F92CDB7DEB7C9
:103A0A0020E030E041E050E0BE016F5F7F4F8091DF
:103A1A00407C9091417C0E94611C892B31F4E0E04A
:103A2A00F8E085818F7D858303C0898180930208B0
:103A3A000F90DF91CF91FF91EF91BF91AF919F913D
:103A4A008F917F916F915F914F913F912F910F903D
:0C3A5A000BBE0F900FBE0F901F90189530
:103A66001F920F920FB60F9211240BB60F920F935F
:103A76001F932F933F934F935F936F937F938F93F0
:103A86009F93AF93BF93EF93FF93CF93DF930F92E1
:103A9600CDB7DEB7809100088983AE014F5F5F4FD7
:103AA60060E800E010E021E030E08091427C9091F7
:103AB600437C0E94C0190F90DF91CF91FF91EF9147
:103AC600BF91AF919F918F917F916F915F914F9130
:103AD6003F912F911F910F910F900BBE0F900FBE2C
:063AE6000F901F901895DF
:103AEC001F920F920FB60F9211240BB60F920F93D9
:103AFC002F933F934F935F936F937F938F939F93EA
:103B0C00AF93BF93EF93FF93CF93DF930F92CDB708
:103B1C00DEB785E0898388E080934904AE014F5F6E
:103B2C005F4F60E801E020E030E080913A7C9091BA
:103B3C003B7C0E94F91D0F90DF91CF91FF91EF918B
:103B4C00BF91AF919F918F917F916F915F914F91A9
:103B5C003F912F910F910F900BBE0F900FBE0F90B6
:043B6C001F901895F9
:103B7000DF92EF92FF920F931F93CF93DF93382F33
:103B8000E62F882329F1682F70E08FEF9FEF0E94C6
:103B9000FD228E2F90E068177907E8F03E9FC00164
:103BA0001124813E2FEF9207C8F4D42EDE2FC32FAD
:103BB0004F960E94B81E7C01009791F08C012D2D2C
:103BC000AC01415E5F4F6D2F8C2F0E945D2308C0BA
:103BD000E12CF12C05C0E12CF12C02C0E12CF12CE0
:103BE000C701DF91CF911F910F91FF90EF90DF9070
:023BF000089536
:103BF200EF92FF920F931F93CF93DF937901FC0112
:103C0200728D338D731710F0023011F5202FEC01F5
:103C12001E8D8A8DCE010E9451181F3F89F4898919
:103C22008823C1F06196BE0180E80E943A0C882385
:103C320099F0E114F10491F081E0F701808311C061
:103C42000E945724181760F41F5F1E8F81E009C07D
:103C520080E007C081E005C081E003C081E001C0CF
:103C620081E0DF91CF911F910F91FF90EF90089526
:103C72008F929F92AF92BF92CF92DF92EF92FF927A
:103C82000F931F93CF93DF93EC014B0179016801EE
:103C9200413011F401E001C000E08114910419F4F3
:103CA20088248394912CCE014096C817D90728F412
:103CB20021960E94B81E5C0102C0A12CB12CA11455
:103CC200B10441F09401AE01B501615F7F4FC501BE
:103CD2000E94A723C501DF91CF911F910F91FF9001
:103CE200EF90DF90CF90BF90AF909F908F9008950C
:103CF2001F93CF93DF930FB6F8940F92E091227C3B
:103D0200F091237CDC0111964D915C911297DF01B9
:103D1200A41BB50BEB01288139812F3FDFEF3D0753
:103D2200F9F0EC011881C091527C1C1741F0E417A4
:103D3200F50728F0FB011082118281E012C0A21760
:103D4200B30748F4FB012A1B3B0B208331830E94FB
:103D5200F22380E006C0DB011D921C9281E001C0CB
:0E3D620080E00F900FBEDF91CF911F9108956A
:103D7000CF93DF93EC010E9444248091347C909196
:103D8000357C892B31F480E090E48093347C9093EF
:103D9000357C2097C9F08091367C9091377C9E01CC
:103DA000280F391F2F3F4FE2340788F482179307FB
:103DB00088F4C091347CD091357CC80FD91F2093F2
:103DC000367C3093377C08C0C0E0D0E005C0C0E04E
:103DD000D0E002C0C0E0D0E00E94CE09CE01DF9169
:043DE000CF910895E2
:103DE4001F920F920FB60F9211240BB60F920F93DE
:103DF4002F933F934F935F936F937F938F939F93EF
:103E0400AF93BF93EF93FF9300E020E030E040E0F6
:103E140050E060E08091467C9091477C0E9458106D
:103E2400E0E0F8E0848180648483FF91EF91BF91A6
:103E3400AF919F918F917F916F915F914F913F913E
:103E44002F910F910F900BBE0F900FBE0F901F90EC
:023E54001895BF
:103E56001F93CF93DF93EC010FB6F8940F921E8D4C
:103E66000DC08989882361F0BE016F5E7F4F80E8AF
:103E76000E943A0C81110E945324115011168CF3A2
:103E86008FEF8E8F0F900FBE0FB6F8940F921D8D89
:103E96000DC08885882361F0BE01685F7F4F80E88A
:103EA6000E943A0C81110E945324115011168CF372
:103EB6008FEF8D8F0F900FBEDF91CF911F910895D9
:103EC600CF92DF92EF92CF93DF939C0140E8F90106
:103ED600542F0E942524EB01A42FC9010496A11D8D
:103EE600FC015A2F0E942524DB01CD018C0F9D1F5A
:103EF6006901E42E52E0C50ED11CE11CF6015E2DCF
:103F06000E942524861B970BCC17DD0701F7019726
:103F16008A179B0710F08A1B9B0BDF91CF91EF90BE
:063F2600DF90CF9008952A
:103F2C00CF93C0E010C08C2F90E09C01220F331F68
:103F3C00220F331F220F331F820F931F8854944874
:103F4C000E94D623CF5FC43070F381E09CE70E94BF
:103F5C00D62388EF9BE70E94D6238FEE9BE70E9427
:103F6C00D62386EE9BE70E94D62381E09CE78093C4
:103F7C00267C9093277C88EF9BE78093247C9093FE
:063F8C00257CCF91089591
:103F9200CF92DF92EF920F931F930F2EFCE1CF2E61
:103FA200FCE7DF2EF02DE12C00E010E028E730E006
:103FB20041E451E060E086E394E20E94FA15813028
:103FC20011F40E941221813081F4F8948FEF9FEF57
:103FD20080931E7C90931F7C81E08093547C10928E
:103FE200227C1092237C0E94FC1F1F910F91EF9064
:063FF200DF90CF9008955E
:103FF8000E940824A091287CB091297CCD91CDBF46
:10400800DD91DEBFFF91EF91DF91CF91BF91AF912D
:104018009F918F917F916F915F914F913F912F91D8
:104028001F910F91FF90EF90DF90CF90BF90AF90CE
:104038009F908F907F906F905F904F903F902F90C0
:104048001F900F900BBE0F900FBE0F90089581E048
:024058000895C9
:10405A00CF93DF93EB01488159814F3F2FEF5207EE
:10406A0021F4FC01A781B0850DC0DC01139601C0C3
:10407A00DF011296ED91FC9113972081318142174D
:10408A005307B0F71296ED91FC911397EA83FB83DD
:10409A00C483D583AC83BD831296CD93DC931397E7
:1040AA0088879987FC0120812F5F2083DF91CF9138
:0240BA00089567
:1040BC000FB6F8940F9280912E7C90912F7C892BC7
:1040CC0021F583E19CE70E94D6238AE09CE70E94BD
:1040DC00D62383E19CE78093327C9093337C8AE0F7
:1040EC009CE78093307C9093317C40E065E08AE0E3
:1040FC000E94B81D80932E7C90932F7C009729F002
:10410C0044E351E060E00E94611A0F900FBE0895E5
:10411C00FC0163837483818792874617570790F05D
:10412C00421B530B8585968548175907E0F4BF0150
:10413C006D5F7F4F8091307C9091317C0E942D205F
:10414C0080E008954217530718F46217730768F458
:10415C00BF016D5F7F4F8091327C9091337C0E94C8
:0E416C002D2080E0089581E0089581E00895FF
:10417A00EF92FF920F931F93CF93DF938C017B01F2
:10418A00E091327CF091337C0580F681E02DC68186
:10419A00D781CE0103960E943C218B8982FF06C0FB
:1041AA00A701B801CE010E94632102C08E7F8B8BCA
:1041BA00E989FA89CE010995DF91CF911F910F9173
:0641CA00FF90EF90089544
:1041D000CF92DF92EF929B01482FA82FCB0104963C
:1041E000A11DFC015A2F0E942524DB016901E42E48
:1041F00082E0C80ED11CE11CF6015E2D0E94252430
:10420000CD01860F971FF901542F0E942524861B8C
:10421000970B8A179B0710F08A1B9B0BEF90DF9080
:04422000CF9008959E
:10422400CF92DF92EF920F931F930E945E208091B2
:104234002E7C90912F7C892BB1F00F2EFCE2CF2E97
:10424400FCE7DF2EF02D0F2EF3E0EF2EF02D00E033
:1042540010E020EF30E049E351E060E087EC93E2C6
:104264000E94FA1501C080E01F910F91EF90DF903A
:04427400CF9008954A
:10427800CF93DF93FC01A085B185C281D38184816E
:1042880095818C839D83C481D581828193818A8322
:104298009B8311968D919C911297E817F90731F439
:1042A8008481958111968D939C931297108611861F
:0E42B8008C9181508C938C91DF91CF91089561
:1042C600EF92FF920F931F93CF93DF93EC018B0135
:1042D6007A0108C08D859E85080F191FE989FA891C
:1042E600CE0109956D857E85600F711F9801A70126
:1042F600CE010E948E208111EDCFDF91CF911F91CB
:084306000F91FF90EF90089564
:10430E00CF93DF939C01FB01DC011196CD91DC91E3
:10431E001297C283D3838C819D81848395838C81F4
:10432E009D81DC0112966D937C9313976C837D8334
:10433E0020873187F90180818F5F8083DF91CF9154
:02434E000895D0
:104350000F931F93CF93DF938C010E941224EC01E3
:1043600080912A7C90912B7CC817D90730F40E9449
:10437000C92181E0F801808302C0F8011082C09356
:104380002A7CD0932B7CCE01DF91CF911F910F918E
:0243900008958E
:1043920009C00580F681E02D6FEF7FEF808191816A
:1043A2000E94BD20E091327CF091337C80818111AA
:1043B200F0CF8091307C9091317C8093327C9093CD
:0C43C200337CE093307CF093317C089554
:1043CE00A82FCB010FB6F8940F929C014A2F265EB0
:1043DE003F4F4F4FF901542F0E943D24262F4B96ED
:1043EE00A11DFC015A2F0E943D24261302C081E01C
:0A43FE0001C080E00F900FBE08958B
:10440800CF93DF93EC010FB6F8940F928D8D8F3F09
:1044180009F41D8E8E8D8F3F09F41E8E0F900FBEEE
:104428008A8D811104C0CE0141960E94FB1ACE01EB
:0A4438000E942B1FDF91CF91089521
:10444200E091267CF091277C8081811107C08FEF5B
:104452009FEF80931E7C90931F7C0895E091267CB1
:10446200F091277C0580F681E02D808191818093F7
:084472001E7C90931F7C08954D
:10447A00FC01248D2223B1F030E046815781420F9E
:10448A00531F46835783848195814817590720F023
:10449A008081918186839783CB014681578160E829
:0644AA000E948C2208951F
:1044B000A82FCB019C014A2F2F5E3F4F4F4FF90190
:1044C000542F0E943D24662359F04696A11DFC01FD
:1044D0005A2F0E942524FB01908184E0891B0895B6
:0444E00080E00895DB
:1044E400009721F48091287C9091297C0FB6F89450
:1044F4000F9270E0FC01E60FF71F23A5223031F480
:10450400FC01E60FF71F13A681E001C080E00F90C5
:044514000FBE089539
:10451800CF92DF92EF926A01E62EDC01280F391F55
:10452800A217B30751F0F6015E2D0E943D246D934A
:104538004FEFC41AD40AE40AF3CFEF90DF90CF907C
:024548000895D4
:10454A00E091287CF091297C84859585E091287CEE
:10455A00F091297CA091287CB091297C56964C91A7
:0E456A0024E030E0241B3109248735870895B2
:10457800CF93DF93EC01892B49F00E94442460E03B
:10458800CE010E9422130E94CE0901C080E0811151
:0C45980002C00E940F19DF91CF9108951E
:1045A4008FB78F778FBFE0E0F8E080E197E28087F4
:1045B400918783E2878381E08093010480E8858387
:0C45C40080EC86838FB78F678FBF08954F
:1045D000DC01E091327CF091337C808191E08111AB
:1045E00090E09C93911106C00580F681E02D8081BA
:0A45F0009181089580E090E00895A5
:1045FA00AA1BBB1B51E107C0AA1FBB1FA617B707FF
:10460A0010F0A61BB70B881F991F5A95A9F780951A
:08461A009095BC01CD0108954B
:10462200FC0160833197708331971082319720E8C3
:104632002083319710823197108277974083319788
:06464200508384970895E7
:10464800411106C068237923672B49F480E0089557
:10465800862397236817790721F080E0089581E081
:06466800089581E00895B1
:10466E00CF93DF938BE090E00E94B81EEC01009791
:10467E0031F0FC0111921192CF010E94D623CE018E
:06468E00DF91CF910895B9
:104694000FB6F8940F92A82FCB014A96A11DFC01E6
:1046A4005A2F0E943D24611102C081E001C080E0C4
:0646B4000F900FBE0895F7
:1046BA000F931F93F801611103C00083118302C095
:1046CA0040835183838F648F61E0CF010E942F174B
:0646DA001F910F910895ED
:1046E0000F93009771F0FC011482158210821182E1
:1046F000168200E020E030E040E050E060E00E9400
:0647000058100F9108950E
:10470600CF93DF93EB016091287C7091297C645FE5
:104716007F4F0E942D2061E0CE010E942213DF917F
:04472600CF91089592
:10472A008091287C9091297C892B39F0E091287C12
:10473A00F091297C82A18F5F82A38091287C90913D
:04474A00297C089529
:10474E000F93FC018FE0DF011D928A95E9F76487D4
:10475E007587448355832683378306870F91089583
:10476E000FB6F8940F922091527CFC012083209179
:10477E00227C3091237C218332830F900FBE0895CB
:10478E00CF93DF930F92CDB7DEB7CE0101960E9485
:0E479E00E82269810E948C1B0E94BB0FF6CF9F
:1047AC00FC010396818392832FEF3FEF23833483A5
:0C47BC0085839683878390871082089580
:1047C800CF93DF93482F60E081E00E94B81DEC0191
:0C47D8000E947023CE01DF91CF91089564
:1047E4002091527CFC0120832091227C3091237CF7
:0647F400218332830895C9
:1047FA00EC010E9460240E945F24CE010E94612481
:06480A00CE010E945C24B7
:10481000E0E0FBE080EC9DE58487958781E085837F
:0448200080830895F4
:104824000FB6F8940F928091227C9091237C0F9084
:044834000FBE089516
:10483800EE0FFF1F0024001C0BBE0790F691E02D21
:024848000994D1
:10484A0057FD04C05BBF679177910895619171919B
:02485A000895BF
:10485C000F9301E00093060B0F910E94F11718952E
:0E486C008091B87B8230E0F30E940F19F9CFE3
:0E487A0057FD03C05BBF6791089560810895EC
:0C4888008091507C8F5F8093507C0895DD
:0A4894008091287C9091297C089502
:08489E00FC011086118608954B
:0848A60081E08093537C08952A
:0648AE008091567C089584
:0448B4000C94000060
:0448B8000E948800D2
:0248BC0008955D
:0248BE0008955B
:0248C000089559
:0248C200089557
:00000001FF
