:100000000C9464000C940B270C940B270C940B2776
:100010000C940B270C940B270C940B270C940B2798
:100020000C940B270C940B270C940B270C940B2788
:100030000C94D3260C940B270C940B270C940B27B1
:100040000C940B270C940B270C940B270C94342046
:100050000C94EE1F0C9410230C940B270C940B277C
:100060000C940B270C940B270C940B270C940B2748
:100070000C940B270C940B270C940B270C940B2738
:100080000C940B270C940B270C940B270C940B2728
:100090000C940B270C940B270C940B270C940B2718
:1000A0000C940B27CA10CA10F910FE101411CA10B4
:1000B000CA10F910FE1040006B5E806B5E6B5F0033
:1000C00001576B5F6B62800011241FBECFEFCDBF65
:1000D000DFE7DEBFE6EBF0E040E019C0B791A791A3
:1000E00037912791079107FD0EC097918791EF01F6
:1000F000F92FE82F0BBF07900D92A217B307D9F77E
:10010000FE011BBE04C01D92A217B307E1F7E73C36
:10011000F40721F70E947B210C94AC26F894FFCFC2
:0F012000434F4D4D4F555400434F4D4D494E00E9
:0D012F00546D725100546D722053766300C0
:0C013C00494E444F555400494E445400B5
:09014800494E49540057534C0084
:0601510049444C45000387
:010157003374
:10015800CF93DF93CDB7DEB7C95ED109CDBFDEBF80
:100168000FEF1FEF20E040E061E070E08091466B08
:100178009091476B0E944017FE01E951FF4F8FEFA6
:100188008083AF0160E821E030E08091406B90917E
:10019800416B0E9480130F2EFFE49F2EF02D0F2E2F
:1001A800FFE4EF2EF02D83E4C851DF4F8883C85E4B
:1001B800D040F12CC12CD12C5E018FE1A80EB11CCE
:1001C80044244A940F2EFFE45F2EF02D350180E879
:1001D800882E0F2EF2E53F2EF02D0F2EF3E52F2E51
:1001E800F02D01C0E92C68EC70E08091486B90918B
:1001F800496B0E94870F40E050E0B5018091506B39
:100208009091516B0E94DD1420E030E048EC50E002
:10021800B50180913E6B90913F6B0E94B316882385
:1002280009F45FC22F8D8BE0289FF0011124E05064
:10023800F04A8285813308F454C2833318F0833539
:1002480021F04FC2D11004C016C0F110A7C1B9C126
:1002580080E030E0E1E0F0E0EC0FFD1FE80FF11D79
:100268009081291303C0C82E8D2D31E08F5F8D1525
:1002780088F3313049F0E1E0F0E0EC0FFD1FED0DBF
:10028800F11D2083CD2CD39488A1873409F44FC065
:1002980030F4823459F0833409F4EAC022C282353A
:1002A80009F4CFC0893509F47AC01BC2C851DF4FA1
:1002B8008881C85ED040823419F1833409F011C2B4
:1002C800E1E0F0E0EC0FFD1FEC0DF11D808188A34B
:1002D80082E68F8F0FEF1FEF22E030E0682DA30139
:1002E8008091406B9091416B0E94801382E4981238
:1002F80011C2E92CC851DF4F8883C85ED04073CF44
:1003080082E68F8FE1E0F0E0EC0FFD1FEC0DF11DB0
:10031800808188A30FEF1FEF22E030E0682DA30152
:100328008091406B9091416B0E948013DAC1C85153
:10033800DF4F8881C85ED0408234D1F0833409F021
:10034800D0C1E1E0F0E0EC0FFD1FEC0DF11D808164
:1003580088A387E68F8F0FEF1FEF22E030E0682D2C
:10036800A3018091406B9091416B0E9480139BC2C6
:10037800E1E0F0E0EC0FFD1FEC0DF11D808188A39A
:1003880087E68F8F0FEF1FEF22E030E0682DA30183
:100398008091406B9091416B0E94801384C2C85138
:1003A800DF4F8881C85ED040833431F0873491F1C3
:1003B800823409F096C117C0E1E0F0E0EC0FFD1FB0
:1003C800EC0DF11D808188A389E78F8F0FEF1FEF58
:1003D80022E030E0682DA3018091406B9091416B41
:1003E8000E9480136AC2E1E0F0E0EC0FFD1FEC0D03
:1003F800F11D808188A389E78F8F0FEF1FEF22E01F
:1004080030E0682DA3018091406B9091416B0E9470
:10041800801353C2E1E0F0E0EC0FFD1FEC0DF11D7D
:10042800808188A389E78F8F0FEF1FEF22E030E0EC
:10043800682DA3018091406B9091416B0E948013BD
:100448003CC2E1E0F0E0EC0FFD1FEC0DF11D8081F6
:1004580088A382E78F8F0FEF1FEF22E030E0682D2F
:10046800A3018091406B9091416B0E94801311C24F
:1004780089A1873409F483C0893509F442C08234DC
:1004880009F02FC1C851DF4F8881C85ED04083343E
:1004980021F0823409F025C117C083E68F8FE1E08F
:1004A800F0E0EC0FFD1FEC0DF11D808188A30FEF2C
:1004B8001FEF22E030E0682DA3018091406B9091FE
:1004C800416B0E9480130DC183E68F8FE1E0F0E05D
:1004D800EC0FFD1FEC0DF11D808188A30FEF1FEFBE
:1004E80022E030E0682DA3018091406B9091416B30
:1004F8000E94801383E4C851DF4F8883C85ED040D0
:10050800F0C0C851DF4F8881C85ED0408935D1F02E
:10051800833409F0E6C083E68F8FE1E0F0E0EC0F6A
:10052800FD1FEC0DF11D808188A30FEF1FEF22E066
:1005380030E0682DA3018091406B9091416B0E943F
:100548008013CFC083E68F8FE1E0F0E0EC0FFD1F52
:10055800EC0DF11D808188A30FEF1FEF22E030E042
:10056800682DA3018091406B9091416B0E9480138C
:1005780083E4C851DF4F8883C85ED040B2C0C851F9
:10058800DF4F8881C85ED040873409F0AAC083E471
:10059800C851DF4F8883C85ED040A3C080E030E0F8
:1005A800E5E1F0E0EC0FFD1FE80FF11D9081291344
:1005B80003C0C82E8F2D31E08F5F8F1588F331303F
:1005C80079F0E5E1F0E0EC0FFD1FEF0DF11D208360
:1005D80081E08F0DC751DF4F8883C95ED04006C0C8
:1005E800C751DF4FF882C95ED040FC2C88A18F34F8
:1005F80041F120F4833409F44BC06DC0823509F40D
:1006080042C1893509F067C089E78F8FE5E1F0E0DD
:10061800EC0FFD1FEF0DF11D808188A30FEF1FEF79
:1006280022E030E0682DA3018091406B9091416BEE
:100638000E948013CF2CC751DF4FF880C95ED0408D
:100648003CC18FE68F8FE5E1F0E0EC0FFD1FEF0D69
:10065800F11D808188A30FEF1FEF22E030E0682DA5
:10066800A3018091406B9091416B0E9480138FE4AD
:100678009812EDC0CF2CC751DF4FF880C95ED0402B
:10068800E92C83E4C851DF4F8883C85ED040ABCDE6
:1006980083E68F8FE5E1F0E0EC0FFD1FEF0DF11D14
:1006A800808188A30FEF1FEF22E030E0682DA301BF
:1006B8008091406B9091416B0E948013CF2CC75161
:1006C800DF4FF880C95ED04083E4C851DF4F88838C
:1006D800C85ED04006C0CF2CC751DF4FF880C95E36
:1006E800D040E91409F47ECD8FE4E81609F4BBC0C4
:1006F8008E1538F082E4E81699F087E4E816D1F10F
:1007080072CD82E5E81609F486C089E5E81609F491
:100718005AC069CD82E4C851DF4F8883C85ED04093
:100728004F8E58A200E02FEF3FEF682DA301809174
:10073800526B9091536B0E94C51282E48F8F86E4AE
:1007480088A32FEF3FEF682DA3018091526B909102
:10075800536B0E94C5120F2EF2E49F2EF02D0F2E20
:10076800F2E4EF2EF02D3FCD87E4C851DF4F8883A8
:10077800C85ED0404F8E58A200E02FEF3FEF682DA3
:10078800A3018091526B9091536B0E94C51287E42C
:100798008F8F28A22FEF3FEF682DA3018091526B16
:1007A8009091536B0E94C5120F2EF7E49F2EF02DE7
:1007B8000F2EF7E4EF2EF02D16CD89E5C851DF4F47
:1007C8008883C85ED0404F8E58A200E02FEF3FEFDD
:1007D800682DA3018091526B9091536B0E94C512B2
:1007E80089E58F8F28A22FEF3FEF682DA301809115
:1007F800526B9091536B0E94C5120F2EF9E59F2EF4
:10080800F02D0F2EF9E5EF2EF02DEDCCC851DF4F6E
:100818003882C85ED0404F8E58A200E02FEF3FEFDD
:10082800682DA3018091526B9091536B0E94C51261
:100838003F8E28A22FEF3FEF682DA3018091526BC6
:100848009091536B0E94C512932CE32CCCCCCF2CE7
:10085800C751DF4FF880C95ED04083E4C851DF4FED
:100868008883C85ED0404F8E58A200E02FEF3FEF3C
:10087800682DA3018091526B9091536B0E94C51211
:10088800952CE52CB0CCCF2CC751DF4FF880C95E32
:10089800D04082E59812BACFE92CC851DF4F388290
:1008A800C85ED040A0CC87E498125ECFE92CC8512E
:1008B800DF4F8883C85ED04096CC89E598127DCFFB
:0E08C800E92CC851DF4F8883C85ED0408CCC2D
:1008D600CF93DF93CDB7DEB7C95CD109CDBFDEBFFD
:1008E6000FEF1FEF20E040E061E070E08091466B83
:1008F6009091476B0E944017E12CCE0101964C0166
:100906001C0190E8492E682C732CA92E6E0185E0F7
:10091600C80ED11C2FEF3FEF41E050E0BE016753F8
:100926007F4F8091446B9091456B0E94B316C753DD
:10093600DF4F8881C95CD0408E3709F04DC02AE070
:1009460030E041E050E0BE0167537F4F8091446B39
:100956009091456B0E94B3168823E1F1C753DF4F90
:10096600E880C95CD040EE2009F4F8C1F12C2AE0F9
:1009760030E041E050E0BE0167537F4F8091446B09
:100986009091456B0E94B316882369F0F401EF0D30
:10099600F11DC753DF4F8881C95CD0408083F39433
:1009A600EF10E5CFDBC1198200E020E030E040E047
:1009B60050E060E080914E6B90914F6B0E94C512A3
:1009C60089818F3409F498C0803541F0893409F063
:1009D6000EC116C01982C2C11982C0C19A81809106
:1009E600606B981397CF00E020E030E040E050E0E5
:1009F60060E080914C6B90914D6B0E94C5128ACF3E
:100A06008B8190915F6B891721F081508E3F08F49E
:100A160081CF80915D6B81115CC044C1A901929127
:100A26008E9198134DC0EC15FD05C1F7B5C1B49E66
:100A3600F001B59EF00D1124E050F04A9C818285AC
:100A4600981340C069834E2D50E04C50510914163E
:100A56001506BCF480E090E020E0EDE0F0E0EC0F5D
:100A6600FD1FE80FF91F3081E2E0F0E0EC0FFD1FFB
:100A7600E80FF91F30832F5F822F90E084179507C8
:100A860064F394EFE90E00E020E030E040E050E04F
:100A960060E08091486B9091496B0E94C5122E2DA3
:100AA60030E00FEF1FEF462D572D6A2D80913E6BDC
:100AB60090913F6B0E94801360915D6B81E003C053
:100AC6008F2D01C08F2D6F5F90915D6B691750F070
:100AD6008FC060E00F2EFBE0BF2EF02D0F2EF9E445
:100AE600FF2EF02DFE013D96B69ED0011124A85F83
:100AF600BF49262F30E092CF8B8190915F6B89178B
:100B060021F081508E3F08F405CF80915D6B8823DC
:100B160009F474C090E00F2EFBE0FF2EF02D0F2E8F
:100B2600FFE4BF2EF02D292F30E0F29EF001F39E58
:100B3600F00D1124E050F04A4A818085481325C102
:100B4600F29EF001F39EF00D1124E050F04A2C8144
:100B56008285281342C0F99EF0011124E85FFF49FF
:100B660028E0829181113BC02150D9F723C180E052
:100B760090E020E0EDE0F0E0EC0FFD1FE80FF91F3C
:100B86003081E2E0F0E0EC0FFD1FE80FF91F308343
:100B96002F5F822F90E08417950764F385EFE80EA8
:100BA60000E020E030E040E050E060E08091486BFB
:100BB6009091496B0E94C5122E2D30E00FEF1FEF6A
:100BC600462D572D6A2D80913E6B90913F6B0E946A
:100BD600801390915D6B81E003C081E001C08B2D95
:100BE6009F5F20915D6B921708F49DCF01C080E056
:100BF600893409F457C08F3409F08CCE80915D6B2F
:100C06009BE0899FF0011124E050F04A9B81918777
:100C16009C8192879A819087108211821282138218
:100C2600148215821682178291E0980F90935D6B5D
:100C360089834E2D50E04C50510914161506BCF40C
:100C460080E090E020E0EDE0F0E0EC0FFD1FE80F23
:100C5600F91F3081E2E0F0E0EC0FFD1FE80FF91F0D
:100C660030832F5F822F90E08417950764F384EF1B
:100C7600E80E00E020E030E040E050E060E08091E7
:100C8600486B9091496B0E94C5122E2D30E00FEFF4
:100C96001FEF642DA10180913E6B90913F6B0E94E6
:100CA600801334CE80915D6B9BE0899FF001112407
:100CB600E050F04A9B8191879C8192879A81908728
:100CC6009D8190839E8191839F8192839885938352
:100CD600998594839A8595839B8596839C8597832E
:100CE60091E0980F90935D6B89834E2D50E04C50A8
:100CF600510914161506BCF480E090E020E0EDE002
:100D0600F0E0EC0FFD1FE80FF91F3081E2E0F0E0A4
:100D1600EC0FFD1FE80FF91F30832F5F822F90E045
:100D26008417950764F384EFE80E00E020E030E0D6
:100D360040E050E060E08091486B9091496B0E94E2
:100D4600C5122E2D30E00FEF1FEF642DA10180910B
:100D56003E6B90913F6B0E948013D8CD00E020E05F
:100D660030E040E050E060E080914E6B90914F6B38
:100D76000E94C51289818F3409F4BECE803509F4EC
:100D86002DCE893409F0C6CD3BCE9F5F80915D6B39
:100D9600981708F4C8CE32CFB29EF001B39EF00D7C
:100DA6001124E050F04A9A818085981709F43FCEC5
:100DB6008F2D89CE99834E2D50E04C505109141633
:080DC60015060CF4D4CEEACEB0
:100DCE00CF93DF9300D000D0CDB7DEB78CE0809309
:100DDE00410483E080936104712CD12C10E01C82BD
:100DEE001B8200E06894882486F8992492F868940F
:100DFE00442442F80F2EFFE42F2EF02D0F2EF3E594
:100E0E003F2EF02D0F2EF6E4EF2EF02D0F2EF2E4E6
:100E1E00FF2EF02D0F2EF0E6AF2EF4E0BF2EF02DAC
:100E2E006894552451F8CC24C3946894662463F8CE
:100E3E0008C0712C05C01F2D03C01F2D01C01E2D13
:100E4E00DC2C49E150E0BE016F5F7F4F8091526B09
:100E5E009091536B0E94DD148130E1F489818235CB
:100E6E0099F028F4823469F0873431F013C0893553
:100E7E0029F08F3F59F00EC00A810CC08A818B83F6
:100E8E0009C09A819C8306C01A8104C00A81102F62
:100E9E000C830B838091616B8130A1F47394E5E038
:100EAE007E1609F42DC11092616B0634D1F118F43F
:100EBE000234A1F05CC00F3409F44FC0033509F4BD
:100ECE0042C055C0063431F118F4023449F051C015
:100EDE000F3409F444C00335C1F14BC080E001C0AA
:100EEE008D2DD1104BC0711049C001C080E0F401AE
:100EFE006782FC81F63409F469C020F4F23409F4F7
:100F0E0052C08CC09C819F3409F47FC0933509F484
:100F1E0073C084C0DD2009F404C18D2D2FC0712C47
:100F2E00D12CF4016782FC81F63409F453C018F415
:100F3E00F23491F176C08C818F3409F469C0833517
:100F4E0009F45DC06EC080E005C08D2D03C0712C0C
:100F5E00D12C80E0F401658211C080E005C08D2D9A
:100F6E0003C0712CD12C80E0F401668207C080E0B2
:100F7E0005C08D2D03C0712CD12C80E0FC81F63480
:100F8E0039F118F4F23449F051C09C819F3409F4C0
:100F9E0042C09335B9F14AC080E0D11047C001C0BC
:100FAE008D2D711040C0F501C782FB81F63409F416
:100FBE005FC020F4F23409F44BC079C09B819F349A
:100FCE0009F46EC0933509F464C071C0712CD12C34
:100FDE0081112CC0F501C782FB81F63409F44CC097
:100FEE0018F4F23481F166C08B818F3409F45BC042
:100FFE00833509F451C05EC0712CD12C03C080E042
:10100E0001C08D2DF501C58211C0712CD12C03C0EC
:10101E0080E001C08D2DF501C68208C0712CD12C47
:10102E0005C080E003C0D12C01C08D2DFB81F634AC
:10103E0009F118F4F23441F03EC09B819F34A1F1C6
:10104E00933559F138C080E0D11035C0711033C0DE
:10105E00F5015782163409F442C018F41234D1F156
:10106E00E8CE1F3409F447C0133509F43FC0E1CE72
:10107E00712CD12C81111FC0F5015782163491F1BC
:10108E0018F4123419F1DCCE1F34B1F1133579F1A5
:10109E00D7CE712CD12C01C080E0F50155820BC04A
:1010AE00712CD12C01C080E0F501568204C0712C48
:1010BE00D12C01C080E0163499F018F4123431F0BE
:1010CE00BFCE1F34C9F0133591F0BACED110B3CEC6
:1010DE007110B3CEF4014782712C1F2DB1CE712C3D
:1010EE008111ADCEF40147821E2DAACE712CF401D2
:1010FE004582132DA5CE712CF4014682122DA0CE61
:10110E001092616B063409F40ACF20F4023409F40C
:10111E00EDCE31CF0F3409F424CF033509F417CFB8
:10112E002ACFF4016782FC81F63409F453CF20F400
:10113E00F23409F435CF79CF8C818F3409F46ACF2C
:08114E00833509F45ECF71CF77
:10115600CF93DF93CDB7DEB7CE5ED109CDBFDEBF6D
:101166009EE7C952DF4F9883C75DD04082E0C852E0
:10117600DF4F8883C85DD04082E5C752DF4F888342
:10118600C95DD0408091606BC652DF4F8883CA5DCF
:10119600D040C552DF4F9883CB5DD0409CE0C4520F
:1011A600DF4F9883CC5DD0409FE4C352DF4F9883D6
:1011B600CD5DD040C252DF4F8883CE5DD040809156
:1011C6005F6BC152DF4F8883CF5DD04080915E6BED
:1011D600C052DF4F8883C05ED040CF51DF4F1882A8
:1011E600C15ED040CE51DF4F1882C25ED040CD5195
:1011F600DF4F1882C35ED040CC51DF4F1882C45EE9
:10120600D040CB51DF4F1882C55ED040CA51DF4F68
:101216001882C65ED0408FEFC951DF4F8883C75E04
:10122600D040C851DF4F8883C85ED0400FEF1FEF14
:1012360020E040E061E070E08091466B9091476B62
:101246000E9440179E012F5F3F4F49016E0139EC06
:10125600C30ED11CCE0185529F4FA82CB92C9601E6
:1012660040E8C751DF4F288339834A83C95ED0409F
:101276009C0140E8C451DF4F288339834A83CC5E02
:10128600D04004971C0130E8432E0F2EFEE75F2E58
:10129600F02D0F2EFFE46F2EF02D0F2EFBE07F2E8C
:1012A600F02D20E030E048EC50E06A2D7B2D809157
:1012B600406B9091416B0E94B31639813F3FA9F470
:1012C600882309F47BC00FEF1FEF2EE030E0C451F6
:1012D600DF4F488159816A81CC5ED0408091426B54
:1012E6009091436B0E948013DCCF882309F466C07B
:1012F600D6015C922BE0280F11962C93119712962B
:101306006C9212972091606B13962C9313972091F1
:101316005F6B14962C93149720915E6B15962C9305
:1013260099277C01B1E0EB1AF108F401EE0DFF1DDF
:10133600E0817E9EF0011124E050F04A8081D601C2
:1013460016968C931697818117968C9317978281A0
:1013560018968C931897838119968C931997848184
:101366001A968C931A9785811B968C931B97868168
:101376001C968C931C9787811D968C930FEF1FEFFD
:101386002EE030E0C751DF4F488159816A81C95E3E
:10139600D0408091426B9091436B0E9480139701DD
:1013A600C751DF4F488159816A81C95ED04080911B
:1013B600426B9091436B0E94801373CF64EF71E090
:1013C60080914C6B90914D6B0E94870F813009F094
:1013D60064CF0FEF1FEF24E030E0642DA101809170
:1013E600426B9091436B0E9480136FEF7FEF809169
:1013F6004E6B90914F6B0E94870F84E50E94952655
:10140600E0E0F8E08581806285836FEF7FEF809171
:101416004A6B90914B6B0E94870F00E020E030E012
:1014260040E050E060E080914E6B90914F6B0E94DF
:04143600C5122BCFE1
:10143A002F923F924F925F926F927F928F92AF92CA
:10144A00BF92CF92DF92EF920F931F93CF93DF93C6
:10145A001C013A01862E59012801C9010E94F62170
:10146A008C01892B09F417C18DE290E00E94F621C4
:10147A00EC01892B89F08DE2FE0111928A95E9F738
:10148A000F8B188FF1E0AF1AB1080A0D1B1D6114FA
:10149A007104810429F42FC0C8010E940F27FBC0E0
:1014AA00F301582D0E94EA26698FF301582D0E94F4
:1014BA00EA266623F9F09E01265E3F4FA82DC30156
:1014CA000196A11D48E0640E711C811CFC015A2F73
:1014DA000E94EA26F90161939F01E82FF92F5A2FFA
:1014EA000196A11D0E94EA26662321F0861597051A
:1014FA00A80561F718A2F3E0FE1520F40F2EF3E019
:10150A00EF2EF02DEE8AE9A25E0142E0A40EB11C94
:10151A00C5010E94FC26CE010C960E94FC26C887B3
:10152A00D98784E090E08E1991098C879D87CA8BB0
:10153A00DB8BA201B101C8010E940226888399832C
:10154A00C114D10419F0F601C083D1830FB6F894FF
:10155A000F9280915C6B8F5F80935C6B8091326B92
:10156A009091336B892BA9F5C093326BD093336B6F
:10157A0080915C6B8130E9F58EEB9AE60E946D26CC
:10158A0087EC9AE60E946D2680ED9AE60E946D2607
:10159A0089ED9AE60E946D2687E09BE60E946D26F9
:1015AA008EEF9AE60E946D2685EF9AE60E946D26D6
:1015BA008CEE9AE60E946D2687E09BE68093306B5C
:1015CA009093316B8EEF9AE680932E6B90932F6BEC
:1015DA0010C080915A6B81110CC0E091326BF0916E
:1015EA00336B96898E89891720F0C093326BD0931A
:1015FA00336B8091576B8F5F8093576B8E89909175
:10160A005B6B981710F480935B6B90E0FC01EE0F14
:10161A00FF1FEE0FFF1FEE0FFF1F8E0F9F1FFC0114
:10162A00E254F5490180F281E02DEC83FD83848147
:10163A0095818E839F83A481B5811296AD92BC92C7
:10164A001397A482B582EE89F0E0CF01880F991F23
:10165A00880F991F880F991FE80FF91FE254F5495F
:10166A00EA87FB8780818F5F80830F900FBE80910E
:10167A005A6B882361F0E091326BF091336B968953
:10168A008E89981730F40E94A31B81E005C081E07F
:10169A0003C081E001C08FEFDF91CF911F910F91BD
:1016AA00EF90DF90CF90BF90AF908F907F906F9028
:0A16BA005F904F903F902F9008952D
:1016C4008F929F92AF92BF92CF92DF92EF92FF924E
:1016D4000F93CF93DF93DC01E114F10479F0FC0163
:1016E40084E0689FE00DF11D112483A094A0A5A0BF
:1016F400B6A0F70180829182A282B38270E0FD01DC
:10170400E60FF71F83A592E093A70230F9F018F4CF
:10171400013031F049C0033069F10430B9F144C0FB
:10172400660F771F660F771FFD01E60FF71F83A073
:1017340094A0A5A0B6A0BA01A901482959296A29EB
:101744007B2943A354A365A376A32EC0660F771FFA
:10175400660F771FFD01E60FF71F43A154A165A192
:1017640076A14F5F5F4F6F4F7F4F43A354A365A391
:1017740076A31AC0660F771F660F771FFD01E60F69
:10178400F71F23A334A345A356A30EC0823009F444
:10179400B2C0660F771F660F771FFD01E60FF71FB4
:1017A40023A334A345A356A3813009F0A6C0809196
:1017B400566B81116DC01A96ED91FC911B9714968E
:1017C400CD91DC91159716968D919C9117978C83EA
:1017D4009D831696CD91DC91179714968D919C91CB
:1017E40015978A839B839D012E5F3F4F8181928150
:1017F4008217930731F416968D919C9117978183E4
:1018040092831A961D921C921B978081815080832B
:1018140056968C91569790915B6B981710F4809321
:101824005B6B90E0FC01EE0FFF1FEE0FFF1FEE0F4E
:10183400FF1F8E0F9F1FFC01E254F5490180F281C6
:10184400E02D1496ED93FC9315978481958116965B
:101854008D939C931797C481D5812A833B832483DA
:1018640035835696EC915697F0E0CF01880F991F77
:10187400880F991F880F991FE80FF91FE254F54943
:101884001A96ED93FC931B9780818F5F808320C011
:1018940045EF5AE6FA01C181D2811E96CD93DC93BD
:1018A4001F978C819D8150968D939C9351972C8189
:1018B4003D81CD010C96F901828393838C839D83B2
:1018C40054964D935C935597FA0180818F5F808382
:1018D400E091326BF091336B56969C91868989170F
:1018E40070F4C114D10419F081E0F601808381E021
:1018F4008093596B05C080E003C081E001C081E0A2
:10190400DF91CF910F91FF90EF90DF90CF90BF9038
:08191400AF909F908F900895A1
:10191C000F931F93CF93DF938091566B811102C16C
:10192C00C0912C6BD0912D6B8E010F5F1F4F0093CC
:10193C002C6B10932D6B01151105B9F48091306B44
:10194C009091316B20912E6B30912F6B2093306BDB
:10195C003093316B80932E6B90932F6B8091586BDF
:10196C008F5F8093586B0E9457258091286B9091C4
:10197C00296B0817190710F480E0B8C080E0E091DB
:10198C00306BF091316B9081911107C02FEF3FEFCD
:10199C002093286B3093296BA9C0E091306BF091A8
:1019AC00316B0580F681E02D0680F781E02D2281D8
:1019BC0033810217130728F42093286B3093296B7B
:1019CC0095C0A285B3852481358146815781E90173
:1019DC004C835D832681378144815581E9014A839B
:1019EC005B83AF014E5F5F4F11962D913C91129727
:1019FC002417350731F42681378111962D933C93AA
:101A0C001297128613869C9191509C93A489B58948
:101A1C00109719F12685378560897189E9016C83E6
:101A2C007D832089318966857785E9016A837B838B
:101A3C0011966D917C9112979F01245F3F4F621715
:101A4C00730731F42089318911962D933C931297A9
:101A5C00148A158A9C9191509C93268990915B6B6A
:101A6C00921710F420935B6B30E0D901AA0FBB1FC7
:101A7C00AA0FBB1FAA0FBB1F2A0F3B1FD901A254D1
:101A8C00B54911960D90BC91A02DA483B5831496E5
:101A9C002D913C9115972683378314962D913C916B
:101AAC001597E9014A835B8314964D935C931597C4
:101ABC00A689B0E09D01220F331F220F331F220F86
:101ACC00331FA20FB31FA254B549A287B3879C91B1
:101ADC009F5F9C93A091326BB091336B2689569685
:101AEC009C91921708F04BCF81E049CFE091326B7B
:101AFC00F091336B268930E0F901EE0FFF1FEE0FEA
:101B0C00FF1FEE0FFF1F2E0F3F1FF901E254F54987
:101B1C009081923008F081E09091596B992361F09B
:101B2C0081E00AC080912A6B90912B6B0196809377
:101B3C002A6B90932B6B80E0DF91CF911F910F91CB
:021B4C000895FA
:101B4E008F929F92AF92BF92EF92FF920F93CF938D
:101B5E00DF93DC010FB6F8940F92E114F10479F0E3
:101B6E00FC0184E0689FE00DF11D112483A094A078
:101B7E00A5A0B6A0F70180829182A282B38270E006
:101B8E00FD01E60FF71F83A592E093A70230F9F04F
:101B9E0018F4013031F049C0033069F10430B9F165
:101BAE0044C0660F771F660F771FFD01E60FF71F04
:101BBE0083A094A0A5A0B6A0BA01A90148295929CD
:101BCE006A297B2943A354A365A376A32EC0660F6F
:101BDE00771F660F771FFD01E60FF71F43A154A174
:101BEE0065A176A14F5F5F4F6F4F7F4F43A354A305
:101BFE0065A376A31AC0660F771F660F771FFD01C8
:101C0E00E60FF71F23A334A345A356A30EC08230BD
:101C1E0009F487C0660F771F660F771FFD01E60F69
:101C2E00F71F23A334A345A356A3813009F07BC02D
:101C3E001A96ED91FC911B971496CD91DC91159708
:101C4E0016968D919C9117978C839D831696CD91A8
:101C5E00DC91179714968D919C9115978A839B838F
:101C6E009D012E5F3F4F818192818217930731F440
:101C7E0016968D919C911797818392831A961D9239
:101C8E001C921B9780818150808356968C9156971B
:101C9E0090915B6B981710F480935B6B90E0FC0156
:101CAE00EE0FFF1FEE0FFF1FEE0FFF1F8E0F9F1F7A
:101CBE00FC01E254F5490180F281E02D1496ED937A
:101CCE00FC9315978481958116968D939C93179707
:101CDE00C481D5812A833B83248335835696EC9128
:101CEE005697F0E0CF01880F991F880F991F880F24
:101CFE00991FE80FF91FE254F5491A96ED93FC93DC
:101D0E001B9780818F5F8083E091326BF091336BF4
:101D1E0056969C918689891740F40E94A31B81E0F8
:101D2E0005C080E003C081E001C081E00F900FBECE
:101D3E00DF91CF910F91FF90EF90BF90AF909F905A
:041D4E008F900895D5
:101D52001F93CF93DF930FB6F8940F928091566B37
:101D620081508093566B8091566B8111C6C08091D1
:101D72005C6B81119BC0C4C0DB011596ED91FC9197
:101D820016970680F781E02DA489B5898685978507
:101D920020893189EC012C833D83808991892685B4
:101DA2003785EC012A833B83CF010C9611962D9146
:101DB2003C9112972817390731F48089918911963D
:101DC2008D939C931297148A158A8C9181508C93CF
:101DD200A285B3858481958126813781EC012C838C
:101DE2003D838681978124813581EC012A833B835F
:101DF2009F012E5F3F4F11968D919C9112978217F2
:101E0200930731F48681978111968D939C93129753
:101E1200128613868C9181508C93868990915B6B8C
:101E2200981710F480935B6B90E0DC01AA0FBB1F44
:101E3200AA0FBB1FAA0FBB1F8A0F9B1FDC01A25454
:101E4200B54911960D90BC91A02DA483B58314962B
:101E52008D919C9115978683978314968D919C9171
:101E62001597EC012A833B8314962D933C93159787
:101E7200A689B0E0CD01880F991F880F991F880F9E
:101E8200991FA80FB91FA254B549A287B3878C9195
:101E92008F5F8C93A091326BB091336B968956967B
:101EA2008C91981740F04093596B05C0E0E0F0E048
:101EB20065EF7AE641E0DB018C9181115DCFEF2B7A
:101EC20011F00E945725C0912A6BD0912B6B20975D
:101ED20061F011E00E948E0C81111093596B2197D1
:101EE200C9F710922A6B10922B6B8091596B882341
:101EF20031F00E94A31B81E003C080E001C080E0BA
:0C1F02000F900FBEDF91CF911F9108954A
:101F0E002F923F924F926F927F928F92CF92DF924B
:101F1E00EF92FF920F931F93CF93DF93CDB7DEB760
:101F2E002597CDBFDEBF8C016C837D83C12CD12C58
:101F3E003C0180E8882E7801E1E1EE0EF11C0FB62F
:101F4E00F8940F92F801828D8823E1F08150828FF0
:101F5E0080819181892B29F40E943A26F80184838D
:101F6E009583F8018085882349F0085F1F4FB801DB
:101F7E0080E80E943F1181110E94A31B0F900FBE9B
:101F8E0081E089C08C819D81892B21F40F900FBE39
:101F9E0080E081C0D11006C0CE0101960E94A1261C
:101FAE00DD24D3940F900FBE0E94F1260FB6F89445
:101FBE000F92F801858D8F3F09F4158EF801868DED
:101FCE008F3F09F4168E0F900FBEBE016C5F7F4FD0
:101FDE00CE0101960E946A2281112AC0882DB3017A
:101FEE000E944C268823F1F0F80180819181892B83
:101FFE0051F40FB6F8940F92848195810E941F16AA
:10200E00C82E0F900FBE6C817D81C7010E942826BD
:10201E00C8010E94AC1C0E94A90E811190CF0E9493
:10202E00A31B8DCFC8010E94AC1C0E94A90E87CFA6
:10203E00C8010E94AC1C0E94A90E882DB3010E94FB
:10204E004C26882309F47BCFCC2021F10FB6F894CF
:10205E000F92A82DC3014196A11DFC015A2F0E947B
:10206E00EA26662369F0A82DC3014696A11DFC0140
:10207E005A2F0E94CA26FB01808164E0681B01C0B2
:10208E0060E0F801848195810E9444190F900FBE83
:10209E0080E001C080E02596CDBFDEBFDF91CF91FD
:1020AE001F910F91FF90EF90DF90CF908F907F90C8
:0A20BE006F904F903F902F9008950F
:1020C800CF93DF93CDB7DEB72697CDBFDEBFCE0166
:1020D80001965C01082F1B2DE0913C6BF0913D6B44
:1020E8008081882309F4B3C00580F681E02DE08063
:1020F800F1800E94F126C5010E94B9206C018981F6
:1021080081111BC0CE14DF0438F00E94A90EB6015D
:10211800C7010E9409248EC040E0B7016C197D09EF
:102128008091386B9091396B0E943A250E94A90ED4
:10213800811180C00E94A31B7DC00E94A90E7AC095
:10214800898188230CF476C0EC80FD80D7011B962A
:102158008D919C911C97892B21F0C70103960E94B1
:10216800B124CE0106960E94B9206C01E9818E2F18
:10217800EE0F990BAA0BBB0BFC013197E930F10567
:1021880008F058C0EE5AFF4F0C94C126F701838916
:102198008160838B2A813B8165857685620F731FF9
:1021A800A601C7010E94DA23882309F443C0D70196
:1021B80053968C91539782FF0DC06A817B811D963F
:1021C8008D919C911E97680F791FA601C7010E94E7
:1021D800D82403C08E7FF701838BD7015196ED91E8
:1021E800FC915297C701099525C0F70183898E7F15
:1021F800838B20C0D70153968C9153978160539657
:102208008C9353976A817B811D966D937C931E975F
:102218006C0D7D1D9601A601C7010E94DA230AC034
:10222800F701838981FD04C0C7010E940F2702C0FE
:102238008E7F838B40E050E0602F712F8091386B48
:102248009091396B0E94DD1481117ACF45CF0E949D
:10225800F126C5010E94B9206C01898181116DCFD9
:10226800E0913A6BF0913B6B808141E0811140E055
:06227800E12CF12C52CF15
:10227E00CF93DF93A82FCB010596A11DFC015A2FFA
:10228E000E94CA26DB011696ED91FC911797A48940
:10229E00B589C685D785808991898C839D83C089B0
:1022AE00D189868597858A839B839F01245F3F4FC3
:1022BE0011968D919C9112978217930731F4808914
:1022CE00918911968D939C931297148A158A8C91ED
:1022DE0081508C938091566B811160C0A285B3851D
:1022EE00C481D581868197818C839D83C681D78158
:1022FE00848195818A839B839F012E5F3F4F119628
:10230E008D919C9112978217930731F48681978154
:10231E0011968D939C931297128613868C918150F1
:10232E008C93868990915B6B981710F480935B6BFE
:10233E0090E0DC01AA0FBB1FAA0FBB1FAA0FBB1F89
:10234E008A0F9B1FDC01A254B54911960D90BC91CA
:10235E00A02DA483B58314968D919C911597868399
:10236E0097831496CD91DC9115972A833B8314960F
:10237E002D933C931597A689B0E0CD01880F991F38
:10238E00880F991F880F991FA80FB91FA254B5491E
:10239E00A287B3878C918F5F8C931CC045EF5AE652
:1023AE00DA011196CD91DC911297C687D7878C8171
:1023BE009D81808B918B8C819D81DC0112962D935A
:1023CE003C9313972C833D83448B558BDA018C9170
:1023DE008F5F8C93A091326BB091336B968956962A
:1023EE008C91891720F481E08093596B01C080E0B5
:0623FE00DF91CF9108956C
:102404006F927F928F92EF92FF920F931F93CF93CD
:10241400DF93CDB7DEB72997CDBFDEBF8EE78983C3
:1024240082E08A8382E58B838091606B8C836FEF7B
:102434007FEF80914E6B90914F6B0E94870F89E5DF
:102444008D8386E48E833E0185E0680E711CE0E88E
:102454008E2E00E02FEF3FEF682DA3018091526B89
:102464009091536B0E94C5122FEF3FEF41E050E073
:10247400BE01695F7F4F8091446B9091456B0E94D0
:10248400B3168F818E3741F52FEF3FEF41E050E0D7
:10249400BE01695F7F4F8091446B9091456B0E94B0
:1024A400B3161F811123C1F07E01F8E0EF0EF11C79
:1024B40011502FEF3FEF41E050E0BE01695F7F4FC5
:1024C4008091446B9091456B0E94B3168F81F70104
:1024D40081937F011111ECCF8885803529F6998588
:1024E4008091606B9813C0CFAE014F5F5F4F60E87F
:1024F4000FEF1FEF24E030E08091426B9091436B2B
:102504000E94801384E50E949526E0E0F8E085812E
:10251400806285836FEF7FEF80914A6B90914B6B64
:102524000E94870F8FE48E8300E02FEF3FEF682D2A
:10253400A3018091526B9091536B0E94C51220E0CD
:1025440030E040E050E060E080914E6B90914F6B42
:102554000E94C51261E070E08091466B9091476BD8
:102564000E94CF1880E090E00E94561C2996CDBFAF
:10257400DEBFDF91CF911F910F91FF90EF908F906D
:062584007F906F900895A6
:10258A002F923F924F926F927F928F92CF92DF92C9
:10259A00EF92FF920F931F93CF93DF93CDB7DEB7DE
:1025AA002897CDBFDEBF7C014E835F8368872C836B
:1025BA003D8310E03C0180E8882E1301482CEAE1B3
:1025CA002E0E311C411CFBE16F0E711C811C670130
:1025DA0088E0C80ED11C0FB6F8940F92F701928DBD
:1025EA00838D981710F00230F1F4202F4E815F810D
:1025FA006885C7010E94441BF7019189992361F0FC
:10260A00F1E1EF0EF11CB70180E80E943F11882327
:10261A0031F00E94A31B03C081110E94A31B0F90DB
:10262A000FBE81E056C08C819D81892B21F40F90C9
:10263A000FBE80E04EC0111105C0CE0101960E9466
:10264A00A12611E00F900FBE0E94F1260FB6F89452
:10265A000F92F701858D8F3F09F4158EF701868D4C
:10266A008F3F09F4168E0F900FBEBE016C5F7F4F2D
:10267A00CE0101960E946A22811125C00FB6F894F4
:10268A000F92F101542D0E94EA26862F0F900FBE59
:10269A00F301582D0E94EA2686130FC06C817D81B2
:1026AA00C6010E942826C7010E94AC1C0E94A90EDE
:1026BA00811191CF0E94A31B8ECFC7010E94AC1C2F
:1026CA000E94A90E88CFC7010E94AC1C0E94A90EC5
:1026DA0080E02896CDBFDEBFDF91CF911F910F9189
:1026EA00FF90EF90DF90CF908F907F906F904F90F8
:0626FA003F902F900895AF
:102700004F925F926F927F928F929F92AF92BF9201
:10271000CF92DF92EF92FF920F931F93CF93DF93AD
:10272000CDB7DEB72897CDBFDEBF5C014E835F8398
:10273000688729010C831D83FC01848195810197A1
:10274000268520FF0AC03201F2E06F0E711C86154B
:10275000970540F41C821D8243C032018415950503
:1027600008F43C018C819D81892B09F439C0CE018C
:1027700001960E945D260FB6F8940F92C5010E9443
:102780003B214C018615970530F560E080E090E034
:102790000E948E250E94F726F501828793870F906D
:1027A0000FBECC80DD80E12CF12C00E010E0980120
:1027B00040E050E0BA0180E00E947E15F5011286EB
:1027C0001386BE016C5F7F4FCE0101960E946A2284
:1027D000882389F202C00F900FBE8114910421F466
:1027E000C5010E943B214C017301840192014E817D
:1027F0005F816885C5010E94A41D6C01892B09F1C8
:10280000B50180E80E943424F501268137818217C2
:102810009307B8F00E94F126F50180859185892BF8
:1028200071F080859185E12CF12C00E020E030E012
:10283000A90160E00E94A70DF501108611860E9493
:10284000A90EC6012896CDBFDEBFDF91CF911F91A3
:102850000F91FF90EF90DF90CF90BF90AF909F903F
:0C2860008F907F906F905F904F900895D4
:10286C00CF93DF93DC0170686D937C931197169670
:10287C00ED91FC91179718964D915C9119971296C2
:10288C008D919C91139714962D913C911597EC0179
:10289C002C833D8314968D919C91159712962D91B6
:1028AC003C911397EC012A833B83EA0189819A813D
:1028BC00A817B90731F414968D919C9115978983BB
:1028CC009A8318961D921C921997DA018C9181505B
:1028DC008C93A285B385C481D581868197818C83A5
:1028EC009D83C681D781848195818A839B839F0137
:1028FC002E5F3F4F11968D919C91129782179307E3
:10290C0031F48681978111968D939C931297128640
:10291C0013868C9181508C93868990915B6B981760
:10292C0010F480935B6B90E0DC01AA0FBB1FAA0F25
:10293C00BB1FAA0FBB1F8A0F9B1FDC01A254B549FA
:10294C0011960D90BC91A02DA483B58314968D91F6
:10295C009C911597868397831496CD91DC9115974E
:10296C002A833B8314962D933C931597A689B0E04C
:10297C00CD01880F991F880F991F880F991FA80FD9
:10298C00B91FA254B549A287B3878C918F5F8C93E2
:10299C00A091326BB091336B968956968C918917B6
:0E29AC0018F481E08093596BDF91CF9108956C
:1029BA006F927F928F92AF92BF92CF92DF92EF92F5
:1029CA00FF920F931F93CF93DF93CDB7DEB725976F
:1029DA00CDBFDEBF8C015B014C835D83E12C3C01E2
:1029EA0080E8882E6801E1E1CE0ED11C0FB6F8947A
:1029FA000F92F801F28CFF20B9F0B501C8010E94CC
:102A0A007325FA94F801F28E8085882349F0085FCD
:102A1A001F4FB80180E80E943F1181110E94A31B39
:102A2A000F900FBE81E054C08C819D81892B21F4C7
:102A3A000F900FBE80E04CC0E11006C0CE01019697
:102A4A000E94A126EE24E3940F900FBE0E94F12665
:102A5A000FB6F8940F92F801858D8F3F09F4158E01
:102A6A00F801868D8F3F09F4168E0F900FBEBE01B6
:102A7A006C5F7F4FCE0101960E946A2281111BC0B2
:102A8A00882DB3010E944C26882379F06C817D81C0
:102A9A00C6010E942826C8010E94AC1C0E94A90EE9
:102AAA008111A4CF0E94A31BA1CFC8010E94AC1C14
:102ABA000E94A90E9BCFC8010E94AC1C0E94A90EBD
:102ACA00882DB3010E944C26882309F48FCF80E019
:102ADA002596CDBFDEBFDF91CF911F910F91FF9059
:102AEA00EF90DF90CF90BF90AF908F907F906F90D4
:022AFA0008953D
:102AFC008F929F92AF92BF92CF92DF92EF92FF9202
:102B0C000F931F93CF93DF93480159010FB6F8949D
:102B1C000F92E091326BF091336BC82FD0E0EC0F39
:102B2C00FD1F83A5823061F1E091326BF091336B24
:102B3C00CE01880F991F880F991FE80FF91F83A1E9
:102B4C0094A1A5A1B6A14095509560957095482388
:102B5C0059236A237B2343A354A365A376A3E09153
:102B6C00326BF091336BEC0FFD1F81E083A7C11426
:102B7C00D10431F061E0C6010E944E180E94A31BE3
:102B8C000F900FBE0FB6F8940F92E114F104A1F060
:102B9C00E091326BF091336BCE01880F991F880F47
:102BAC00991FE80FF91F83A194A1A5A1B6A1F70164
:102BBC0080839183A283B383E091326BF091336B6A
:102BCC00EC0FFD1F83A58230E9F4E091326BF0919C
:102BDC00336BCE01880F991F880F991FE80FF91FCF
:102BEC0083A194A1A5A1B6A180949094A094B09433
:102BFC0088229922AA22BB2283A294A2A5A2B6A2C1
:102C0C0081E001C080E02091326B3091336BC20FB8
:102C1C00D31F1BA60F900FBEDF91CF911F910F9169
:102C2C00FF90EF90DF90CF90BF90AF909F908F90E0
:022C3C000895F9
:102C3E000F931F93CF93DF93FC01892B09F486C06A
:102C4E002689A091326BB091336B56968C912817D2
:102C5E0008F070C084859585992364F0A091326B3D
:102C6E00B091336B56963C9184E090E0831B9109B2
:102C7E008487958730E0C901880F991F880F991FA7
:102C8E00880F991F280F391F225435498285938545
:102C9E008217930709F045C0EF018F010E5F1F4F9A
:102CAE00C8010E94B124E091326BF091336B86899A
:102CBE008E8B90915B6B981710F480935B6B90E00A
:102CCE00FC01EE0FFF1FEE0FFF1FEE0FFF1F8E0F0B
:102CDE009F1FFC01E254F5490180F281E02DEC8347
:102CEE00FD83848195818E839F83A481B581129605
:102CFE000D931C931397048315838E8990E0FC012A
:102D0E00EE0FFF1FEE0FFF1FEE0FFF1FE80FF91F55
:102D1E00E254F549EA87FB8780818F5F808381E0EB
:102D2E0016C0A091326BB091336B56968C91868BF8
:102D3E0081E00DC0A091326BB091336B81E021A187
:102D4E0056969C91291718F080E001C080E0DF9123
:082D5E00CF911F910F91089520
:102D66002F923F924F925F926F928F929F92AF9265
:102D7600BF92CF92DF92EF92FF920F931F93CF9362
:102D8600DF93EC011B014A0169018E8580FD03C0BA
:102D9600A12CB12C04C06894AA24A1F8B12CC114AA
:102DA600D10479F10FB6F8940F922E0180E8682EBF
:102DB600862DB2010E9434248C01A816B90648F06B
:102DC60060E080E090E00E948E250E94F7268887CA
:102DD60099870F900FBEA016B106D8F0E12CF12C02
:102DE60000E010E0980140E050E0BA0180E00E9467
:102DF6007E1518861986862DB2010E9434248C0110
:102E060005C0BE0180E80E9434248C01A016B106DC
:102E1600F8F49801A401B101CE010E94D41E5C0110
:102E2600892BC1F00E94F1268A859B85892B69F042
:102E36008A859B85E12CF12C00E020E030E0A90199
:102E460060E00E94A70D1A861B860E94A90E02C08A
:102E5600A12CB12CC501DF91CF911F910F91FF904D
:102E6600EF90DF90CF90BF90AF909F908F906F9034
:0A2E76005F904F903F902F90089559
:102E8000AF92BF92CF92DF92EF92FF920F931F9378
:102E9000CF93DF937C016B01A42EB22E0E94F1260A
:102EA000F701C081D181B11008C081E09E012C21C1
:102EB0003D21232B51F480E008C081E09E012C21AC
:102EC0003D212C153D0509F080E0882361F0AA2002
:102ED00009F450C0B601609570956C237D23F7010D
:102EE0006083718347C00115110509F443C0AA200E
:102EF00019F060E071E002C060E070E0B110746051
:102F00006C297D29A801C70102960E94A81F0E9472
:102F1000A90E811102C00E94A31B0E94C12591FD30
:102F200026C00FB6F8940F92F70180819181B110FD
:102F300008C021E0A60148235923452B51F420E085
:102F400008C021E0A601482359234C155D0509F06E
:102F500020E0222351F0AA2041F0B601609570953F
:102F600068237923F701608371830F900FBEEC0112
:102F7000DD2702C00E94A90ECE01DF91CF911F91E3
:102F80000F91FF90EF90DF90CF90BF90AF9008959A
:102F9000CF92DF92EF920F931F9381E00E941D2545
:102FA00080934E6B90934F6B00E010E020E030E098
:102FB00040E061E070E082E390E00E94DA228093DA
:102FC000446B9093456B20E030E040E061E070E0BE
:102FD00080E991E00E94DA228093426B9093436BE8
:102FE00020E030E041E060E070E088EC90E00E949A
:102FF000DA228093406B9093416B20E030E041E017
:1030000060E070E088EC90E00E94DA2280933E6BF2
:1030100090933F6B43E060E081E00E9477208093D3
:103020004C6B90934D6B43E060E081E00E94772011
:1030300080934A6B90934B6B43E060E081E00E9489
:1030400077208093486B9093496B0E94152680935C
:10305000466B9093476BC12CD12C0F2EF3E0EF2ED3
:10306000F02D24EF31E040E251E060E08BEA98E09F
:103070000E941D0A6894EE24E2F820E931E048E25B
:1030800051E060E08BE694E00E941D0A0E94D82582
:0C3090001F910F91EF90DF90CF900895FA
:10309C00FF920F931F93CF93DF93EC01F62E0091C9
:1030AC002C6B10912D6B8091326B9091336B02963F
:1030BC000E94B124CF3F8FEFD807B1F5FF20A1F1CB
:1030CC00ECEEFAE6A181B281C091326BD091336BF8
:1030DC00AC83BD83C091326BD091336B14968D91C0
:1030EC009C9115978E839F831496CD91DC911597A7
:1030FC008091326B9091336B02968A839B83809183
:10310C00326B9091336B029614968D939C9315971A
:10311C00A091326BB091336B1A96ED93FC931B9785
:10312C0080818F5F80832FC0C00FD11FE091326BE5
:10313C00F091336BC283D383C017D10768F46091CD
:10314C00326B7091336B80912E6B90912F6B6E5F05
:10315C007F4F0E94792317C06091326B7091336B53
:10316C008091306B9091316B6E5F7F4F0E94792311
:10317C008091286B9091296BC817D90720F4C093C4
:10318C00286BD093296BDF91CF911F910F91FF90FA
:02319C00089594
:10319E006F927F928F92BF92CF92DF92EF92FF92B9
:1031AE000F931F93CF93DF93EC018B013C0182E0D1
:1031BE00680E711C80E8882EE82C630183E0C80E2F
:1031CE00D11CE11C0E94F12685E0680E711C811C49
:1031DE00F301582D0E94CA26FB0188819981082B84
:1031EE00192B0883198300E010E028C0B280F38009
:1031FE00808191819C01332792FD09C0688179817C
:10320E006223732341E0672B59F440E009C06881C3
:10321E0079816223732341E06217730709F040E05E
:10322E00442351F090FF02C0022B132B6881798149
:10323E007260CF010E943614EB2DFF2DCF01A0E856
:10324E00C816D906EA0691F60095109588819981DF
:10325E0008231923088319830E94A90E8881998156
:10326E00DF91CF911F910F91FF90EF90DF90CF9054
:0A327E00BF908F907F906F9008952D
:103288000F931F93CF93DF93FC01892B09F466C03A
:1032980091A1961708F4962F8689891709F45EC0BC
:1032A80022A1213009F05AC0968B24853585332315
:1032B80034F024E030E0291B31092487358790E079
:1032C8009C01220F331F220F331F220F331F820F3F
:1032D800931F825495492285338528173907F1F5BC
:1032E800EF018F010E5F1F4FC8010E94B1248E8924
:1032F80090915B6B981710F480935B6B90E0FC01E6
:10330800EE0FFF1FEE0FFF1FEE0FFF1F8E0F9F1F09
:10331800FC01E254F5490180F281E02DEC83FD8344
:10332800848195818E839F83A481B58112960D93A4
:103338001C931397048315838E8990E0FC01EE0F8C
:10334800FF1FEE0FFF1FEE0FFF1FE80FF91FE254DC
:10335800F549EA87FB8780818F5F8083DF91CF9172
:063368001F910F91089572
:10336E008091566B882321F081E08093596B0895EC
:10337E001092596B20915B6B822F90E0FC01EE0F47
:10338E00FF1FEE0FFF1FEE0FFF1FE80FF91FE25496
:10339E00F5493081311111C02150822F90E0FC018E
:1033AE00EE0FFF1FEE0FFF1FEE0FFF1FE80FF91FAF
:1033BE00E254F5493081332379F3AC01440F551FA4
:1033CE00440F551F440F551F480F591FDA01A254C1
:1033DE00B5491196ED91FC9112970280F381E02D83
:1033EE001196ED93FC9312974F535549E417F50739
:1033FE0029F442815381FD0141835283FC01EE0F7A
:10340E00FF1FEE0FFF1FEE0FFF1F8E0F9F1FFC0102
:10341E00E254F5490180F281E02D868197818093F7
:0C342E00326B9093336B20935B6B08951E
:10343A00EF92FF920F931F93CF93DF93FC01362FE6
:10344A00892B09F44DC0238D222309F44BC0022F86
:10345A0010E0448DE42EF12C8FEF9FEFB8010E940B
:10346A00EE256E157F0508F43FC0EF010FB6F894FC
:10347A000F9260817181CB01249F800D911D1124CF
:10348A0084839583128E62837383015011090E9D82
:10349A00C0010F9D900D1E9D900D1124860F971F40
:1034AA00868397838FEF858F868F31110DC0808534
:1034BA00882391F02896BE0180E80E943F11882354
:1034CA0059F00E94A31B08C0CF0108960E946D26DE
:1034DA00CE0141960E946D260F900FBE81E005C075
:1034EA0080E003C080E001C080E0DF91CF911F91AE
:0834FA000F91FF90EF9008957F
:103502000F931F93CF93DF93FC01892B09F451C0D2
:1035120082A1815082A3268991A1291709F44BC067
:1035220081114BC0EF018F010E5F1F4FC8010E9436
:10353200B12489A18E8B24E030E0281B31092C872D
:103542003D8790915B6B981710F480935B6B90E0D2
:10355200FC01EE0FFF1FEE0FFF1FEE0FFF1F8E0F7E
:103562009F1FFC01E254F5490180F281E02DEC83BA
:10357200FD83848195818E839F83A481B581129678
:103582000D931C93139704831583EE89F0E0CF010A
:10359200880F991F880F991F880F991FE80FF91F2D
:1035A200E254F549EA87FB8780818F5F808381E05F
:1035B20005C080E003C080E001C080E0DF91CF91D0
:0635C2001F910F91089516
:1035C8000F920FB6F8940F920BB60F921F92112418
:1035D8002F923F924F925F926F927F928F929F921B
:1035E800AF92BF92CF92DF92EF92FF920F931F9309
:1035F8002F933F934F935F936F937F938F939F93F3
:10360800AF93BF93CF93DF93EF93FF93A091326B68
:10361800B091336B0DB60D920EB60D920E948E0CC2
:1036280081110E94B719A091326BB091336BCD9183
:10363800CDBFDD91DEBFFF91EF91DF91CF91BF91BB
:10364800AF919F918F917F916F915F914F913F9132
:103658002F911F910F91FF90EF90DF90CF90BF9027
:10366800AF909F908F907F906F905F904F903F901A
:103678002F901F900F900BBE0F900FBE0F901895B4
:103688000F931F93CF93DF93EC01022F1A8D2C8D8C
:1036980021110CC088819981892B09F042C08C8145
:1036A8009D810E94811A1C821D8242C0011117C08F
:1036B80030E08A819B810E94A8252C8D8A819B817C
:1036C800820F911D8A839B832C813D8182179307EA
:1036D80050F1888199818A839B8380E029C030E0FA
:1036E8008E819F810E94A8258C8D90E0919581956F
:1036F80091092E813F81280F391F2E833F834881EE
:1037080059812417350730F42C813D81820F931F8E
:103718008E839F83023049F4112349F0115080E0D1
:1037280007C080E005C080E003C080E001C080E001
:0E3738001F5F1A8FDF91CF911F910F9108959F
:103746000F920FB6F8940F920BB60F921F92112498
:103756002F923F924F925F926F927F928F929F929B
:10376600AF92BF92CF92DF92EF92FF920F931F9389
:103776002F933F934F935F936F937F938F939F9373
:10378600AF93BF93CF93DF93EF93FF93A091326BE9
:10379600B091336B0DB60D920EB60D920E94B7190D
:1037A600A091326BB091336BCD91CDBFDD91DEBF71
:1037B600FF91EF91DF91CF91BF91AF919F918F9143
:1037C6007F916F915F914F913F912F911F910F9133
:1037D600FF90EF90DF90CF90BF90AF909F908F902B
:1037E6007F906F905F904F903F902F901F900F901B
:0A37F6000BBE0F900FBE0F90089558
:10380000CF92DF92EF9241155105610509F44AC04C
:103810002091E56A3091E66A8217930791F420E0DF
:1038200030E005C021E030E002C021E030E0F901E5
:10383000EE0FFF1FEE0FFF1FE20FF31FEE51F549D2
:1038400015C0C090E26AD090E36AE090E46ACD28A7
:10385000CE2801F52091EA6A3091EB6A821793072E
:1038600009F3E2EEFAE602C0E7EEFAE63097D1F0AD
:103870004083518362838383948314C0C090E76A3A
:10388000D090E86AE090E96ACD28CE2869F3E0E0BC
:10389000F0E0ECCF2091EA6A3091EB6A821793074F
:0C38A00021F2ECCFEF90DF90CF90089564
:1038AC000F931F93CF93DF93EC010FB6F8940F9205
:1038BC00892B21F4C091326BD091336B8E010E5F4A
:1038CC001F4FC8010E94B1248C899D89892B21F03E
:1038DC00CE010C960E94B124B8018CEE9AE60E949F
:1038EC00FC248BA5813009F41BA68CA5813009F42E
:1038FC001CA60F900FBE80915A6B882339F00FB61F
:10390C00F8940F920E9457250F900FBE8091326B46
:10391C009091336BC817D907A1F480915A6B882307
:10392C0019F00E94A31B0DC09091EC6A80915C6B06
:10393C00981305C01092326B1092336B02C00E9428
:0C394C00B719DF91CF911F910F910895E2
:10395800CF92DF92EF920F931F93CF938C010FB604
:10396800F8940F92FC01C68D1C16C4F4818981114C
:1039780006C014C0F8018189811107C00FC0680111
:10398800F1E1CF0ED11C80E8E82E8E2DB6010E9401
:103998003F1181110E940027C15061F78FEFF80194
:1039A800868F0F900FBE0FB6F8940F92C58D1C1618
:1039B800C4F48085811106C014C0F8018085811186
:1039C80007C00FC06801F8E0CF0ED11C80E8E82ED0
:1039D8008E2DB6010E943F1181110E940027C1500F
:1039E80061F78FEFF801858F0F900FBECF911F9170
:0A39F8000F91EF90DF90CF9008953B
:103A0200CF92DF92EF92FF920F931F93E0E0F4E0E8
:103A120084E08183868340E062E083E00E94772035
:103A22008093526B9093536B40E062E083E00E947C
:103A320077208093506B9093516BC12CD12C68945A
:103A4200EE24E1F800E010E02EE531E04CE351E035
:103A520060E087EE96E00E941D0A0F2EF4E0EF2E42
:103A6200F7E2FF2EF02D21E042E350E063E471E043
:103A720080E00E9430228093546B9093556B0E9499
:103A8200B72620E030E0AC0161E08091546B909168
:103A9200556B0E94F41D1F910F91FF90EF90DF90E4
:043AA200CF90089524
:103AA6006F927F928F92AF92BF92CF92DF92EF92F8
:103AB600FF920F931F93CF93DF93EC013A01862E6B
:103AC600590168018E8580FF05C0790182E0E80E04
:103AD600F11C01C07901CE010E943B218C019501A8
:103AE600682DA301CE010E94A41D5C01892BD1F093
:103AF600BE0180E80E9434242E813F8182179307FD
:103B060088F088859985892B69F088859985E12CC7
:103B1600F12C00E020E030E0A90160E00E94620B99
:103B260018861986C501DF91CF911F910F91FF90DD
:103B3600EF90DF90CF90BF90AF908F907F906F9077
:023B46000895E0
:103B48006F927F928F92AF92BF92CF92DF92EF9255
:103B5800FF920F931F93CF93DF9300D0CDB7DEB7BB
:103B68005C013A01862E6901FC0122813381968528
:103B780090FF11C0C982DA820E151F05F0F0AE0160
:103B88004F5F5F4F60E8890122E030E0C5010E9485
:103B9800401E9C0104C00C151D0508F46801C114E1
:103BA800D10469F089019601682DA301C5010E941D
:103BB800401EF5018283938302C0C12CD12CC6011B
:103BC8000F900F90DF91CF911F910F91FF90EF9081
:103BD800DF90CF90BF90AF908F907F906F900895B7
:103BE800EF92FF920F931F93CF93DF93CDB7DEB77A
:103BF8002597CDBFDEBFE091386BF091396B3097D8
:103C080081F1780169834A835B838C839D83663065
:103C1800FCF40E947B26823069F4AE014F5F5F4F4F
:103C280060E800E097018091386B9091396B0E94B1
:103C3800C51218C0AE014F5F5F4F60E800E020E09A
:103C480030E08091386B9091396B0E94C5120AC0A0
:103C5800AE014F5F5F4F60E800E0CF010E94FB209C
:103C680001C080E02596CDBFDEBFDF91CF911F91C7
:083C78000F91FF90EF900895F9
:103C80006F927F928F92CF92DF92EF92FF920F937B
:103C90001F93CF93DF936C013A01862EE901FC015B
:103CA000E480F580E01AF10A2E153F0508F4790149
:103CB000F601848595859701682DA301800F911FDA
:103CC0000E94A825EC16FD0678F49E012E193F09E6
:103CD000682DA3014E0D5F1D611DF7FC6A95F6016D
:103CE000848595850E94A825C8018C0F9D1FF6012B
:103CF000248135818217930710F0821B930BDF918B
:103D0000CF911F910F91FF90EF90DF90CF908F9008
:063D10007F906F90089502
:103D16000F931F93CF93DF93FC018B01A181B28197
:103D26008091326B9091336BEC01AE87BF878091A7
:103D3600326B9091336B14962D913C911597EC0153
:103D4600288B398B14968D919C9115972091326B07
:103D56003091336B245F3F4FEC012A833B832091E4
:103D6600326B3091336B245F3F4F14962D933C9307
:103D76001597A091326BB091336B5496ED93FC93EB
:103D8600559790819F5F9083442311F00FEF1FEFAB
:103D9600642FC8010E944E18DF91CF911F910F9199
:023DA60008957E
:103DA800AF92BF92CF92DF92EF92FF920F931F9341
:103DB800CF93DF9300D0CDB7DEB77C015B016A01FA
:103DC8008901FC0120813181968590FF11C042E074
:103DD80050E0BE016F5F7F4FC7010E941C1F9C010E
:103DE80089819A81C816D90698F0025011096C0188
:103DF800C016D10608F486010115110559F0A8016D
:103E0800B501C7010E941C1FF7018083918302C07E
:103E180000E010E0C8010F900F90DF91CF911F9143
:103E28000F91FF90EF90DF90CF90BF90AF900895E3
:103E3800AF92BF92CF92DF92EF92FF920F931F93B0
:103E4800CF93DF937C015B01EA016901FC010481E6
:103E58001581021B130B4017510708F48A01F7015B
:103E6800448555854C0D5D1D60E89801C5010E948B
:103E7800A8250C171D0760F49E01201B310BF701C4
:103E88004485558560E8C501800F911F0E94A825CB
:103E9800C6018C0F9D1FF701248135818217930776
:103EA80010F0821B930BDF91CF911F910F91FF9020
:0C3EB800EF90DF90CF90BF90AF90089586
:103EC400AF92BF92CF92DF92EF92FF920F931F9324
:103ED400CF93DF93EC015B017A0169018E8580FD4C
:103EE40003C000E010E002C002E010E0BE0180E880
:103EF4000E94342408171907D8F49C01A701B501BE
:103F0400CE010E94D41E5C01892BA1F08A859B8579
:103F1400892B81F08A859B85E12CF12C00E020E03F
:103F240030E0A90160E00E94620B1A861B8602C081
:103F3400A12CB12CC501DF91CF911F910F91FF905E
:0C3F4400EF90DF90CF90BF90AF900895F9
:103F5000CF93DF93FC01A091326BB091336B70680B
:103F60001C966D937C931D97A181B281C091326B99
:103F7000D091336BAE87BF87C091326BD091336BDA
:103F800014968D919C911597888B998B1496CD9151
:103F9000DC9115972091326B3091336B245F3F4F4A
:103FA0002A833B832091326B3091336B245F3F4FE8
:103FB00014962D933C931597A091326BB091336B6F
:103FC0005496ED93FC93559790819F5F908361E0A9
:0C3FD000CA010E944E18DF91CF910895A5
:103FDC001F920F920FB60F9211240BB60F922F93C4
:103FEC003F934F935F936F937F938F939F93AF9375
:103FFC00BF93EF93FF93CF93DF930F92CDB7DEB7C1
:10400C0020E030E041E050E0BE016F5F7F4F8091D7
:10401C00426B9091436B0E94621F892B31F4E0E05C
:10402C00F8E085818F7D858303C0898180930208A8
:10403C000F90DF91CF91FF91EF91BF91AF919F9135
:10404C008F917F916F915F914F913F912F910F9035
:0C405C000BBE0F900FBE0F901F90189528
:104068001F920F920FB60F9211240BB60F920F9357
:104078001F932F933F934F935F936F937F938F93E8
:104088009F93AF93BF93EF93FF93CF93DF930F92D9
:10409800CDB7DEB7809100088983AE014F5F5F4FCF
:1040A80060E800E010E021E030E08091446B9091FE
:1040B800456B0E94531D0F90DF91CF91FF91EF91B7
:1040C800BF91AF919F918F917F916F915F914F9128
:1040D8003F912F911F910F910F900BBE0F900FBE24
:0640E8000F901F901895D7
:1040EE000F931F93CF93DF93282F362F882361F1E1
:1040FE00682F70E08FEF9FEF0E94EE25832F90E0E8
:10410E006817790720F1239FC0011124813E4FEFDC
:10411E00940700F5D32FC22F4F960E94F6218C01E3
:10412E000097D1F0D11104C0FC018083918304C0AB
:10413E004F96F80180839183F801C38FD48F61E08D
:10414E00C8010E941D1A08C000E010E005C000E082
:10415E0010E002C000E010E0C801DF91CF911F9186
:04416E000F91089510
:104172000F931F93CF93DF938C010E94B726EC011C
:104182008091346B9091356BC817D90738F5E0915F
:104192003C6BF0913D6B8081882381F00580F68134
:1041A200E02D6FEF7FEF808191810E940924E091E1
:1041B2003C6BF0913D6B80818111F0CF80913A6B25
:1041C20090913B6B80933C6B90933D6BE0933A6B89
:1041D200F0933B6B81E0F801808302C0F80110820A
:1041E200C093346BD093356BCE01DF91CF911F9189
:0441F2000F9108958C
:1041F600EF92FF920F931F93CF93DF937901FC0108
:10420600728D338D731710F0023011F5202FEC01EB
:104216001E8D8A8DCE010E94441B1F3F89F4898919
:104226008823C1F06196BE0180E80E943F11882371
:1042360099F0E114F10491F081E0F701808311C057
:104246000E940827181760F41F5F1E8F81E009C0BF
:1042560080E007C081E005C081E003C081E001C0C5
:1042660081E0DF91CF911F910F91FF90EF9008951C
:104276006F927F928F92CF92DF92EF920F931F935E
:10428600CF93DF933C0120E8822E482D93016901EC
:10429600E42E82E0C80ED11CE11CF901542F0E94C5
:1042A600CA26DB01F6015E2D0E94CA268B01AA17DB
:1042B600BB0799F724E0620E711C811CF301582D8F
:1042C6000E94CA26CB0101978A0F9B1F801B910B68
:1042D6008617970710F0861B970BDF91CF911F91DA
:1042E6000F91EF90DF90CF908F907F906F90089511
:1042F600CF92DF92EF920F931F93C12CD12C68942B
:10430600EE24E2F800E010E02CE231E048E451E06F
:1043160060E082E092E10E941D0AEE24E39428E523
:1043260032E04DE451E060E08CEA90E00E941D0A24
:104336000E94C8170E94011D0E94E3260E9489263A
:104346000E94882480935F6B0E9488248093606B10
:10435600E0E0F8E08581806485830E94462380E062
:0E43660090E01F910F91EF90DF90CF9008959F
:10437400EF92FF921F93CF93DF93FC01228D338D35
:10438400231718F57B01EC01168D2F5F228F1F3F39
:1043940091F481898823D9F0CF014196BC0180E84A
:1043A4000E943F118823A9F0E114F104A1F081E0F7
:1043B400F701808313C00E940827181770F4FF24A4
:1043C400F394F10EFE8E81E009C080E007C081E025
:1043D40005C081E003C081E001C081E0DF91CF919D
:0843E4001F91FF90EF90089576
:1043EC00CF93DF93EC010E94F1268091226B909188
:1043FC00236B892B31F480E090E48093226B9093B3
:10440C00236B2097C9F08091246B9091256B9E01B2
:10441C00280F391F2F3F4FE1340788F48217930779
:10442C0088F4C091226BD091236BC80FD91F2093B5
:10443C00246B3093256B08C0C0E0D0E005C0C0E011
:10444C00D0E002C0C0E0D0E00E94A90ECE01DF9106
:04445C00CF9108955F
:104460006F927F928F92AF92BF92DF92EF92FF9204
:104470000F931F93CF93DF933B01882E5A01D22EC7
:1044800084E190E00E94F621EC01892BA9F01B8ABF
:104490000E94AA23688279828A82AD86BE860F87AF
:1044A000188BE98AFA8ACE0103960E94FC26DD2049
:1044B00019F08B8984608B8BCE01DF91CF911F9196
:1044C0000F91FF90EF90DF90BF90AF908F907F9013
:0444D0006F9008954C
:1044D400CF93DF930FB6F8940F9220912C6B309109
:1044E4002D6BDB014D915C914F3FBFEF5B0719F1E1
:1044F400EC01E981FA81A091586BB881BA1741F0B7
:104504002E173F0728F0FB011082118281E014C0AE
:104514002E1B3F0B2417350748F4FB01421B530B9A
:10452400408351830E94A12680E006C0DB011D92D6
:104534001C9281E001C080E00F900FBEDF91CF910B
:024544000895D8
:10454600E0E0FBE080EC9DE58487958781E085834C
:104556008083A091326BB091336BCD91CDBFDD914D
:10456600DEBFFF91EF91DF91CF91BF91AF919F9108
:104576008F917F916F915F914F913F912F911F91F5
:104586000F91FF90EF90DF90CF90BF90AF909F90EC
:104596008F907F906F905F904F903F902F901F90DD
:0E45A6000F900BBE0F900FBE0F90089508955A
:1045B400FF920F931F93CF93DF938B01FF24F39408
:1045C400413009F0F12C0115110511F401E010E05E
:1045D4009C01205F3F4F82179307B8F4EC012196AA
:1045E400C9010E94F621FC01892B89F08FE0DF01CB
:1045F4001D928A95E9F7CF010F9684879587C48326
:10460400D58306831783F68602C0E0E0F0E0CF018D
:0C461400DF91CF911F910F91FF9008954E
:104620001F920F920FB60F9211240BB60F922F9379
:104630003F934F935F936F937F938F939F93AF932A
:10464000BF93EF93FF9382E50E949526E0E0F8E0A8
:1046500084818064848360E070E080914A6B9091F3
:104660004B6B0E94BA21FF91EF91BF91AF919F9147
:104670008F917F916F915F914F913F912F910F900B
:0C4680000BBE0F900FBE0F901F901895FE
:10468C00CF92DF92EF920F931F930F2EF6E2CF2E65
:10469C00FBE6DF2EF02DE12C00E010E028E730E007
:1046AC0041E551E060E08BED96E20E941D0A8130FD
:1046BC00A1F40E945E24813081F4F8948FEF9FEF77
:1046CC008093286B9093296B81E080935A6B1092A6
:1046DC002C6B10922D6B0E94A3221F910F91EF90C7
:0646EC00DF90CF9008955D
:1046F200CF93DF93EB01488159814F3F2FEF520750
:1047020021F4FC01A781B0850DC0DC01139601C024
:10471200DF011296ED91FC911397208131814217AE
:104722005307B0F71296ED91FC911397EA83FB833E
:10473200C483D583AC83BD831296CD93DC93139748
:1047420088879987FC0120812F5F2083DF91CF9199
:024752000895C8
:104754000FB6F8940F928091386B9091396B892B36
:1047640021F589E19BE60E946D2680E19BE60E948B
:104774006D2689E19BE680933C6B90933D6B80E1D1
:104784009BE680933A6B90933B6B40E065E08AE054
:104794000E9477208093386B9093396B009729F0AF
:1047A4004FE251E060E00E94001C0F900FBE08959C
:1047B400FC0163837483818792874617570790F0BF
:1047C400421B530B8585968548175907E0F4BF01B2
:1047D4006D5F7F4F80913A6B90913B6B0E94792380
:1047E40080E008954217530718F46217730768F4BA
:1047F400BF016D5F7F4F80913C6B90913D6B0E9438
:0E480400792380E0089581E0089581E0089511
:10481200EF92FF920F931F93CF93DF938C017B0153
:10482200E0913C6BF0913D6B0580F681E02DC681F5
:10483200D781CE0103960E94B1248B8982FF06C0E4
:10484200A701B801CE010E94D82402C08E7F8B8BB3
:10485200E989FA89CE010995DF91CF911F910F91D4
:06486200FF90EF900895A5
:10486800CF92DF92EF929B01482FA82FCB0104969D
:10487800A11DFC015A2F0E94CA26DB016901E42E02
:1048880082E0C80ED11CE11CF6015E2D0E94CA26EA
:10489800CD01860F971FF901542F0E94CA26861B47
:1048A800970B8A179B0710F08A1B9B0BEF90DF90E2
:0448B800CF90089500
:1048BC00CF92DF92EF920F931F930E94AA238091C5
:1048CC00386B9091396B892BB1F00F2EF6E3CF2E0C
:1048DC00FBE6DF2EF02D0F2EF3E0EF2EF02D00E097
:1048EC0010E020EF30E044E351E060E084E690E13A
:1048FC000E941D0A01C080E01F910F91EF90DF9084
:04490C00CF900895AB
:1049100027E030E080E0E0E0F4E071E060E49085E2
:1049200092959F709727492F417050E0DA01022E2F
:1049300002C0AA0FBB1F0A94E2F78A2B6583A7EB7C
:10494000BBE01197F1F700C000006683A7EBBBE066
:104950001197F1F700C000002150310900F7809550
:024960000895B8
:10496200CF93DF93FC01A085B185C281D38184817D
:1049720095818C839D83C481D581828193818A8331
:104982009B8311968D919C911297E817F90731F448
:104992008481958111968D939C931297108611862E
:0E49A2008C9181508C938C91DF91CF91089570
:1049B000EF92FF920F931F93CF93DF93EC018B0144
:1049C0007A0108C08D859E85080F191FE989FA892B
:1049D000CE0109956D857E85600F711F9801A70135
:1049E000CE010E94DA238111EDCFDF91CF911F918B
:0849F0000F91FF90EF90089574
:1049F800CF93DF939C01FB01DC011196CD91DC91F3
:104A08001297C283D3838C819D81848395838C8103
:104A18009D81DC0112966D937C9313976C837D8343
:104A280020873187F90180818F5F8083DF91CF9163
:024A38000895DF
:104A3A000F93CF93DF93482F60E081E00E947720A5
:104A4A00EC01009769F01C821D82188219821E826D
:104A5A0000E020E030E040E050E060E00E94C51253
:0A4A6A00CE01DF91CF910F91089566
:104A7400CF93DF93EC010FB6F8940F928D8D8F3F97
:104A840009F41D8E8E8D8F3F09F41E8E0F900FBE7C
:104A94008A8D811104C0CE0141960E948B1ECE01E5
:0A4AA4000E94AC1CDF91CF91089531
:104AAE00E091306BF091316B8081811107C08FEFF7
:104ABE009FEF8093286B9093296B0895E091306B54
:104ACE00F091316B0580F681E02D8081918180938C
:084ADE00286B9093296B0895E9
:104AE600FC01248D2223B1F030E046815781420F2C
:104AF600531F46835783848195814817590720F0B1
:104B06008081918186839783CB014681578160E8B6
:064B16000E94A82508958D
:104B1C00009721F48091326B9091336B0FB6F8941F
:104B2C000F9270E0FC01E60FF71F23A5223031F441
:104B3C00FC01E60FF71F13A681E001C080E00F9087
:044B4C000FBE0895FB
:104B5000CF92DF92EF926A01E62EDC01280F391F17
:104B6000A217B30751F0F6015E2D0E94EA266D935D
:104B70004FEFC41AD40AE40AF3CFEF90DF90CF903E
:024B8000089596
:104B8200E091326BF091336B84859585E091326BC5
:104B9200F091336BA091326BB091336B56964C917E
:0E4BA20024E030E0241B310924873587089574
:104BB0008FB78F778FBFE0E0F8E081E493E08087E4
:104BC000918783E2878381E08093010480E8858375
:0C4BD00080EC86838FB78F678FBF08953D
:104BDC00AA1BBB1B51E107C0AA1FBB1FA617B70717
:104BEC0010F0A61BB70B881F991F5A95A9F7809533
:084BFC009095BC01CD01089564
:104C0400FC0160833197708331971082319720E8DB
:104C140020833197108231971082779740833197A0
:064C2400508384970895FF
:104C2A00CF93DF938BE090E00E94F621EC0100978E
:104C3A0031F0FC0111921192CF010E946D26CE0132
:064C4A00DF91CF910895F7
:104C5000CF93DF93EB016091326B7091336B645FA4
:104C60007F4F0E94792361E0CE010E944E18DF91B0
:044C7000CF91089543
:104C74008091326B9091336B892B39F0E091326BD8
:104C8400F091336B82A18F5F82A38091326B9091FC
:044C9400336B0895E1
:104C98000FB6F8940F92A82FCB014A96A11DFC01DC
:104CA8005A2F0E94EA260F900FBE81E0611180E022
:024CB80008955D
:104CBA000FB6F8940F922091586BFC012083209133
:104CCA002C6B30912D6B218332830F900FBE089588
:104CDA00FC010396818392832FEF3FEF2383348372
:0C4CEA008583968387839087108208954D
:104CF60080915A6B882331F08091566B882321F07E
:0C4D060080E0089581E0089582E00895A7
:104D1200E0E0F4E080E28583A7EBBBE01197F1F7D6
:084D220000C000008683089523
:104D2A00823531F0843539F484E08093050408959E
:084D3A0084E080930604089553
:104D42002091586BFC01208320912C6B30912D6BAC
:064D520021833283089565
:104D5800EC010E9411270E941027CE010E94122701
:064D6800CE010E940D27A0
:104D6E000FB6F8940F9280912C6B90912D6B0F9043
:044D7E000FBE0895C7
:104D8200EE0FFF1F0024001C0BBE0790F691E02DD2
:024D9200099482
:104D940057FD04C05BBF679177910895619171914C
:024DA400089570
:104DA6000F9301E00093060B0F910E94E41A1895E9
:104DB600CEEBDAE688818230E8F30E94A31BFACFB5
:0E4DC600E0E0F4E080E6818380E182830895DE
:0E4DD40057FD03C05BBF67910895608108958D
:0C4DE2008091566B8F5F8093566B089594
:0A4DEE008091326B9091336B0895B1
:084DF800FC01108611860895EC
:084E000081E08093596B0895D5
:084E080081E08093616B0895C5
:064E100080915C6B089527
:044E16000C940000F8
:044E1A000E948E0064
:024E1E000895F5
:024E20000895F3
:024E22000895F1
:024E24000895EF
:00000001FF
