:100000000C9464000C9435280C9435280C943528F5
:100010000C9435280C9435280C9435280C943528EC
:100020000C9435280C9435280C9435280C943528DC
:100030000C94FD270C9435280C9435280C94352805
:100040000C9435280C9435280C9435280C94EA200F
:100050000C94A4200C943B240C9435280C94352843
:100060000C9435280C9435280C9435280C9435289C
:100070000C9435280C9435280C9435280C9435288C
:100080000C9435280C9435280C9435280C9435287C
:100090000C9435280C9435280C9435280C9435286C
:1000A0000C9435285A115A1189118E11A4115A1124
:1000B0005A1189118E1140006B6D806B6D6B6E0053
:1000C00001616B6E6B71800011241FBECFEFCDBF3D
:1000D000DFE7DEBFE6EBF0E040E019C0B791A791A3
:1000E00037912791079107FD0EC097918791EF01F6
:1000F000F92FE82F0BBF07900D92A217B307D9F77E
:10010000FE011BBE04C01D92A217B307E1F7E73C36
:10011000F40721F70E9431220C94D627F894FFCFE0
:10012000434F4D4D4F555400434F4D4D494E004F99
:09013000464653004A4F494E00B7
:0D013900546D725100546D722053766300B6
:0C014600494E444F555400494E445400AB
:09015200494E49540057534C007A
:06015B0049444C4500047C
:01016100336A
:10016200CF93DF93CDB7DEB7CE5ED109CDBFDEBF71
:100172000FEF1FEF20E040E061E070E08091536BF1
:100182009091546B0E947C180F2EFFE49F2EF02D4D
:100192000F2EFFE4EF2EF02D83E4C651DF4F88834C
:1001A200CA5ED040F12CC12CD12C5E019FE1A90E78
:1001B200B11CCE0189519F4FC851DF4F888399836B
:1001C200C85ED04044244A94A0E8C451DF4F8883DB
:1001D2009983AA83CC5ED0400F2EFFE45F2EF02DD0
:1001E200350190E8892E0F2EF2E53F2EF02D0F2ECD
:1001F200F3E52F2EF02D01C0E92C68EC70E0809120
:10020200556B9091566B0E94171040E050E0B5017B
:1002120080915F6B9091606B0E9419168130D1F5CD
:100222008F8D8435B9F588A18A34A1F5C951DF4F84
:100232004882C75ED0400FEF1FEF21E030E0C4518B
:10024200DF4F488159816A81CC5ED04080914D6BED
:1002520090914E6B0E94101421E030E0C451DF4FA8
:10026200488159816A81CC5ED04080914D6B9091DA
:100272004E6B0E94101421E030E0C451DF4F4881E0
:1002820059816A81CC5ED04080914D6B90914E6BCA
:100292000E94101420E030E048EC50E0B50180915B
:1002A2004B6B90914C6B0E94EF17882309F486C226
:1002B2002F8DABE02A9FF0011124E050F04A828595
:1002C200813308F47BC2833318F0833521F076C280
:1002D200D11004C016C0F110CEC1E0C180E030E000
:1002E200E1E0F0E0EC0FFD1FE80FF11D9081291312
:1002F20003C0C82E8D2D31E08F5F8D1588F331300C
:1003020049F0E1E0F0E0EC0FFD1FED0DF11D20835F
:10031200CD2CD39488A1873409F450C030F48234B0
:1003220059F0833409F4F6C049C2823509F4DBC0BE
:10033200893509F47EC042C2C651DF4F8881CA5E48
:10034200D040823421F1833409F038C2E1E0F0E098
:10035200EC0FFD1FEC0DF11D808188A382E68F8FCB
:100362000FEF1FEF22E030E0682DA30180914D6B6B
:1003720090914E6B0E94101492E4991238C2E92CAB
:10038200A2E4C651DF4FA883CA5ED04036CF82E6D0
:100392008F8FE1E0F0E0EC0FFD1FEC0DF11D80818D
:1003A20088A30FEF1FEF22E030E0682DA3018091B8
:1003B2004D6B90914E6B0E94101400C2C651DF4FDC
:1003C2008881CA5ED040833431F08734D9F08234D8
:1003D20009F0F4C117C0E1E0F0E0EC0FFD1FEC0DF5
:1003E200F11D808188A387E68F8F0FEF1FEF22E038
:1003F20030E0682DA30180914D6B90914E6B0E946D
:100402001014AEC2E1E0F0E0EC0FFD1FEC0DF11DA7
:10041200808188A387E68F8F0FEF1FEF22E030E005
:10042200682DA30180914D6B90914E6B0E94101428
:1004320097C2C651DF4F9881CA5ED040933471F0A3
:1004420018F4923411F1BAC1C651DF4FA881CA5EC5
:10045200D040A73489F1A93579F1B0C1E1E0F0E0EB
:10046200EC0FFD1FEC0DF11D808188A389E78F8FB2
:100472000FEF1FEF22E030E0682DA30180914D6B5A
:1004820090914E6B0E94101476C2E1E0F0E0EC0F06
:10049200FD1FEC0DF11D808188A389E78F8F0FEF7F
:1004A2001FEF22E030E0682DA30180914D6B909107
:1004B2004E6B0E9410145FC2E1E0F0E0EC0FFD1FF2
:1004C200EC0DF11D808188A389E78F8F0FEF1FEF5D
:1004D20022E030E0682DA30180914D6B90914E6B2C
:1004E2000E94101448C2E1E0F0E0EC0FFD1FEC0D99
:1004F200F11D808188A382E78F8F0FEF1FEF22E02B
:1005020030E0682DA30180914D6B90914E6B0E945B
:10051200101442C289A1873409F488C0893509F4CC
:1005220041C0823409F04AC1C651DF4F8881CA5E98
:10053200D0408234D1F0833409F040C183E68F8FFA
:10054200E1E0F0E0EC0FFD1FEC0DF11D808188A3CE
:100552000FEF1FEF22E030E0682DA30180914D6B79
:1005620090914E6B0E94101429C183E68F8FE1E0B7
:10057200F0E0EC0FFD1FEC0DF11D808188A30FEF61
:100582001FEF22E030E0682DA30180914D6B909126
:100592004E6B0E94101493E4C651DF4F9883CA5EDB
:1005A200D0400CC1C651DF4FA881CA5ED040A734EB
:1005B200E1F0A935F1F0A33409F000C183E68F8F91
:1005C200E1E0F0E0EC0FFD1FEC0DF11D808188A34E
:1005D2000FEF1FEF22E030E0682DA30180914D6BF9
:1005E20090914E6B0E941014E9C00F2EF9E5EF2E88
:1005F200F02D83E68F8FE1E0F0E0EC0FFD1FEC0DB4
:10060200F11D808188A30FEF1FEF22E030E0682DFB
:10061200A30180914D6B90914E6B0E94101483E464
:10062200C651DF4F8883CA5ED040C8C0C651DF4F73
:100632009881CA5ED040973409F0C0C083E68F8F9C
:10064200E1E0F0E0EC0FFD1FEC0DF11D808188A3CD
:100652000FEF1FEF22E030E0682DA30180914D6B78
:1006620090914E6B0E941014A3E4C651DF4FA883F1
:10067200CA5ED040A3C080E030E0E5E1F0E0EC0FDC
:10068200FD1FE80FF11D9081291303C0C82E8F2D85
:1006920031E08F5F8F1588F3313079F0E5E1F0E0DA
:1006A200EC0FFD1FEF0DF11D208381E08F0DC55171
:1006B200DF4F8883CB5ED04006C0C551DF4FF88242
:1006C200CB5ED040FC2C88A18F3441F120F48334DE
:1006D20009F44BC06DC0823509F458C1893509F05F
:1006E20067C089E78F8FE5E1F0E0EC0FFD1FEF0DAA
:1006F200F11D808188A30FEF1FEF22E030E0682D0B
:10070200A30180914D6B90914E6B0E941014CF2CDF
:10071200C551DF4FF880CB5ED0402DC18FE68F8F61
:10072200E5E1F0E0EC0FFD1FEF0DF11D808188A3E4
:100732000FEF1FEF22E030E0682DA30180914D6B97
:1007420090914E6B0E9410149FE49912EDC0CF2C31
:10075200C551DF4FF880CB5ED040E92CA3E4C651EF
:10076200DF4FA883CA5ED04048CD83E68F8FE5E194
:10077200F0E0EC0FFD1FEF0DF11D808188A30FEF5C
:100782001FEF22E030E0682DA30180914D6B909124
:100792004E6B0E941014CF2CC551DF4FF880CB5EF8
:1007A200D04083E4C651DF4F8883CA5ED04006C082
:1007B200CF2CC551DF4FF880CB5ED040E91409F44D
:1007C2001BCD9FE4E91609F4BBC09E1538F0A2E4E4
:1007D200EA1699F087E4E816D1F10FCD92E5E91611
:1007E20009F486C0A9E5EA1609F45AC006CD82E4E6
:1007F200C651DF4F8883CA5ED0404F8E58A200E0B8
:100802002FEF3FEF682DA3018091616B9091626B96
:100812000E94551382E48F8F86E488A32FEF3FEF67
:10082200682DA3018091616B9091626B0E945513B8
:100832000F2EF2E49F2EF02D0F2EF2E4EF2EF02D6C
:10084200DCCC97E4C651DF4F9883CA5ED0404F8E0E
:1008520058A200E02FEF3FEF682DA3018091616B5A
:100862009091626B0E94551387E48F8F28A22FEF1D
:100872003FEF682DA3018091616B9091626B0E94A2
:1008820055130F2EF7E49F2EF02D0F2EF7E4EF2EC7
:10089200F02DB3CCA9E5C651DF4FA883CA5ED04084
:1008A2004F8E58A200E02FEF3FEF682DA3018091F9
:1008B200616B9091626B0E94551389E58F8F28A21C
:1008C2002FEF3FEF682DA3018091616B9091626BD6
:1008D2000E9455130F2EF9E59F2EF02D0F2EF9E5EC
:1008E200EF2EF02D8ACCC651DF4F3882CA5ED0403F
:1008F2004F8E58A200E02FEF3FEF682DA3018091A9
:10090200616B9091626B0E9455133F8E28A22FEF6C
:100912003FEF682DA3018091616B9091626B0E9401
:100922005513932CE32C69CCCF2CC551DF4FF880A3
:10093200CB5ED04093E4C651DF4F9883CA5ED0406D
:100942004F8E58A200E02FEF3FEF682DA301809158
:10095200616B9091626B0E945513952CE52C4DCCE6
:10096200A7E49A126ECFE92C87E4C651DF4F888341
:10097200CA5ED04042CC99E599128CCFE92CA9E508
:10098200C651DF4FA883CA5ED04037CCCF2CC551A9
:10099200DF4FF880CB5ED04082E59812A4CFE92CDD
:0C09A200C651DF4F3882CA5ED04027CC1F
:1009AE00CF93DF93CDB7DEB7CB5CD109CDBFDEBF22
:1009BE000FEF1FEF20E040E061E070E08091536B9D
:1009CE009091546B0E947C180E94E12720E030E049
:1009DE00AC0161E08091496B90914A6B0E94AA1E16
:1009EE00FE01E653FF4F84E580838AE48183AF01E5
:1009FE0060E800E02FE030E080915F6B9091606BDB
:100A0E000E94551320E030E040E050E060E080911D
:100A1E00556B9091566B0E945513E12CCE010196A9
:100A2E004C011C0190E8492E682C732CA92E6E01E6
:100A3E0085E0C80ED11C2FEF3FEF41E050E0BE0124
:100A4E0067537F4F8091516B9091526B0E94EF17BD
:100A5E00C753DF4F8881C95CD0408E3709F04DC037
:100A6E002AE030E041E050E0BE0167537F4F8091B5
:100A7E00516B9091526B0E94EF178823E1F1C7538F
:100A8E00DF4FE880C95CD040EE2009F4F8C1F12CAC
:100A9E002AE030E041E050E0BE0167537F4F809185
:100AAE00516B9091526B0E94EF17882369F0F401FD
:100ABE00EF0DF11DC753DF4F8881C95CD040808395
:100ACE00F394EF10E5CFDBC1198200E020E030E0B7
:100ADE0040E050E060E080915B6B90915C6B0E9417
:100AEE00551389818F3409F498C0803541F08934CB
:100AFE0009F00EC116C01982C2C11982C0C19A81F5
:100B0E0080916F6B981397CF00E020E030E040E0CB
:100B1E0050E060E08091596B90915A6B0E94551392
:100B2E008ACF8B8190916E6B891721F081508E3F09
:100B3E0008F481CF80916C6B81115CC044C1A90116
:100B4E0092918E9198134DC0EC15FD05C1F7B5C16C
:100B5E00B49EF001B59EF00D1124E050F04A9C8138
:100B6E008285981340C069834E2D50E04C50510938
:100B7E0014161506BCF480E090E020E0EDE0F0E005
:100B8E00EC0FFD1FE80FF91F3081E2E0F0E0EC0FF3
:100B9E00FD1FE80FF91F30832F5F822F90E084171F
:100BAE00950764F394EFE90E00E020E030E040E0BA
:100BBE0050E060E08091556B9091566B0E945513FA
:100BCE002E2D30E00FEF1FEF462D572D6A2D809101
:100BDE004B6B90914C6B0E94101460916C6B81E08A
:100BEE0003C08F2D01C08F2D6F5F90916C6B6917B5
:100BFE0050F08FC060E00F2EFBE0BF2EF02D0F2EB9
:100C0E00F9E4FF2EF02DFE013D96B69ED001112483
:100C1E00A85FBF49262F30E092CF8B8190916E6BEB
:100C2E00891721F081508E3F08F405CF80916C6BAF
:100C3E00882309F474C090E00F2EFBE0FF2EF02DF8
:100C4E000F2EFFE4BF2EF02D292F30E0F29EF00183
:100C5E00F39EF00D1124E050F04A4A81808548132E
:100C6E0025C1F29EF001F39EF00D1124E050F04AE2
:100C7E002C818285281342C0F99EF0011124E85F71
:100C8E00FF4928E0829181113BC02150D9F723C141
:100C9E0080E090E020E0EDE0F0E0EC0FFD1FE80FCB
:100CAE00F91F3081E2E0F0E0EC0FFD1FE80FF91FB5
:100CBE0030832F5F822F90E08417950764F385EFC2
:100CCE00E80E00E020E030E040E050E060E080918F
:100CDE00556B9091566B0E9455132E2D30E00FEFF1
:100CEE001FEF462D572D6A2D80914B6B90914C6BBB
:100CFE000E94101490916C6B81E003C081E001C0E2
:100D0E008B2D9F5F20916C6B921708F49DCF01C0C5
:100D1E0080E0893409F457C08F3409F08CCE80916D
:100D2E006C6B9BE0899FF0011124E050F04A9B818F
:100D3E0091879C8192879A8190871082118212826C
:100D4E001382148215821682178291E0980F909367
:100D5E006C6B89834E2D50E04C50510914161506BC
:100D6E00BCF480E090E020E0EDE0F0E0EC0FFD1F41
:100D7E00E80FF91F3081E2E0F0E0EC0FFD1FE80F05
:100D8E00F91F30832F5F822F90E08417950764F34D
:100D9E0084EFE80E00E020E030E040E050E060E05C
:100DAE008091556B9091566B0E9455132E2D30E00D
:100DBE000FEF1FEF642DA10180914B6B90914C6B47
:100DCE000E94101434CE80916C6B9BE0899FF001D1
:100DDE001124E050F04A9B8191879C8192879A81E1
:100DEE0090879D8190839E8191839F819283988528
:100DFE009383998594839A8595839B8596839C8509
:100E0E00978391E0980F90936C6B89834E2D50E0F1
:100E1E004C50510914161506BCF480E090E020E009
:100E2E00EDE0F0E0EC0FFD1FE80FF91F3081E2E07E
:100E3E00F0E0EC0FFD1FE80FF91F30832F5F822FBC
:100E4E0090E08417950764F384EFE80E00E020E04D
:100E5E0030E040E050E060E08091556B9091566B31
:100E6E000E9455132E2D30E00FEF1FEF642DA101C0
:100E7E0080914B6B90914C6B0E941014D8CD00E07A
:100E8E0020E030E040E050E060E080915B6B9091BC
:100E9E005C6B0E94551389818F3409F4BECE803568
:100EAE0009F42DCE893409F0C6CD3BCE9F5F8091DB
:100EBE006C6B981708F4C8CE32CFB29EF001B39E79
:100ECE00F00D1124E050F04A9A818085981709F4AC
:100EDE003FCE8F2D89CE99834E2D50E04C50510927
:0A0EEE00141615060CF4D4CEEACE5B
:100EF800CF93DF9300D000D0CDB7DEB78CE08093DE
:100F0800410483E080936104712CD12C10E01C8291
:100F18001B8200E06894882486F8992492F86894E3
:100F2800442442F80F2EFFE42F2EF02D0F2EF3E568
:100F38003F2EF02D0F2EF6E4EF2EF02D0F2EF2E4BB
:100F4800FF2EF02D0F2EF0E6AF2EF4E0BF2EF02D81
:100F58006894552451F8CC24C3946894662463F8A3
:100F680008C0712C05C01F2D03C01F2D01C01E2DE8
:100F7800DC2C49E150E0BE016F5F7F4F8091616BCF
:100F88009091626B0E9419168130E1F48981823553
:100F980099F028F4823469F0873431F013C0893528
:100FA80029F08F3F59F00EC00A810CC08A818B83CB
:100FB80009C09A819C8306C01A8104C00A81102F37
:100FC8000C830B838091706B8130A1F47394E5E0FE
:100FD8007E1609F42DC11092706B0634D1F118F405
:100FE8000234A1F05CC00F3409F44FC0033509F492
:100FF80042C055C0063431F118F4023449F051C0EA
:101008000F3409F444C00335C1F14BC080E001C07E
:101018008D2DD1104BC0711049C001C080E0F40182
:101028006782FC81F63409F469C020F4F23409F4CB
:1010380052C08CC09C819F3409F47FC0933509F459
:1010480073C084C0DD2009F404C18D2D2FC0712C1C
:10105800D12CF4016782FC81F63409F453C018F4EA
:10106800F23491F176C08C818F3409F469C08335EC
:1010780009F45DC06EC080E005C08D2D03C0712CE1
:10108800D12C80E0F401658211C080E005C08D2D6F
:1010980003C0712CD12C80E0F401668207C080E087
:1010A80005C08D2D03C0712CD12C80E0FC81F63455
:1010B80039F118F4F23449F051C09C819F3409F495
:1010C80042C09335B9F14AC080E0D11047C001C091
:1010D8008D2D711040C0F501C782FB81F63409F4EB
:1010E8005FC020F4F23409F44BC079C09B819F346F
:1010F80009F46EC0933509F464C071C0712CD12C09
:1011080081112CC0F501C782FB81F63409F44CC06B
:1011180018F4F23481F166C08B818F3409F45BC016
:10112800833509F451C05EC0712CD12C03C080E016
:1011380001C08D2DF501C58211C0712CD12C03C0C1
:1011480080E001C08D2DF501C68208C0712CD12C1C
:1011580005C080E003C0D12C01C08D2DFB81F63481
:1011680009F118F4F23441F03EC09B819F34A1F19B
:10117800933559F138C080E0D11035C0711033C0B3
:10118800F5015782163409F442C018F41234D1F12B
:10119800E8CE1F3409F447C0133509F43FC0E1CE47
:1011A800712CD12C81111FC0F5015782163491F191
:1011B80018F4123419F1DCCE1F34B1F1133579F17A
:1011C800D7CE712CD12C01C080E0F50155820BC01F
:1011D800712CD12C01C080E0F501568204C0712C1D
:1011E800D12C01C080E0163499F018F4123431F093
:1011F800BFCE1F34C9F0133591F0BACED110B3CE9B
:101208007110B3CEF4014782712C1F2DB1CE712C11
:101218008111ADCEF40147821E2DAACE712CF401A6
:101228004582132DA5CE712CF4014682122DA0CE35
:101238001092706B063409F40ACF20F4023409F4D2
:10124800EDCE31CF0F3409F424CF033509F417CF8D
:101258002ACFF4016782FC81F63409F453CF20F4D5
:10126800F23409F435CF79CF8C818F3409F46ACF01
:08127800833509F45ECF71CF4C
:10128000CF93DF93CDB7DEB7CE5ED109CDBFDEBF42
:101290009EE7C952DF4F9883C75DD04082E0C852B5
:1012A000DF4F8883C85DD04082E5C752DF4F888317
:1012B000C95DD04080916F6BC652DF4F8883CA5D95
:1012C000D040C552DF4F9883CB5DD0409CE0C452E4
:1012D000DF4F9883CC5DD0409FE4C352DF4F9883AB
:1012E000CD5DD040C252DF4F8883CE5DD04080912B
:1012F0006E6BC152DF4F8883CF5DD04080916D6BA4
:10130000C052DF4F8883C05ED040CF51DF4F18827C
:10131000C15ED040CE51DF4F1882C25ED040CD5169
:10132000DF4F1882C35ED040CC51DF4F1882C45EBD
:10133000D040CB51DF4F1882C55ED040CA51DF4F3D
:101340001882C65ED0408FEFC951DF4F8883C75ED9
:10135000D040C851DF4F8883C85ED0400FEF1FEFE9
:1013600020E040E061E070E08091536B9091546B1D
:101370000E947C189E012F5F3F4F49016E0139EC9E
:10138000C30ED11CCE0185529F4F960140E8C75134
:10139000DF4F288339834A83C95ED040940140E8F7
:1013A000C451DF4F288339834A83CC5ED0401C016F
:1013B00030E8432E0F2EFEE75F2EF02DA82CB92C1F
:1013C0000F2EFFE46F2EF02D0F2EFBE07F2EF02D61
:1013D00020E030E048EC50E06A2D7B2D80914D6B91
:1013E00090914E6B0E94EF1739813F3F81F4882323
:1013F00009F476C00FEF1FEF2EE030E0642DA1015D
:1014000080914F6B9091506B0E941014E1CF882314
:1014100009F466C0D6015C922BE0280F11962C933C
:10142000119712966C92129720916F6B13962C93D2
:10143000139720916E6B14962C93149720916D6BDB
:1014400015962C9399277C01B1E0EB1AF108F40171
:10145000EE0DFF1DE0817E9EF0011124E050F04A68
:101460008081D60116968C931697818117968C935E
:101470001797828118968C931897838119968C936D
:10148000199784811A968C931A9785811B968C9351
:101490001B9786811C968C931C9787811D968C9335
:1014A0000FEF1FEF2EE030E0C751DF4F4881598129
:1014B0006A81C95ED04080914F6B9091506B0E94C1
:1014C00010149701C451DF4F488159816A81CC5E65
:1014D000D04080914F6B9091506B0E94101478CF48
:1014E00064EF71E08091596B90915A6B0E941710D4
:1014F000813009F065CFAE0149525F4F60E80FEFD0
:101500001FEF24E030E080914F6B9091506B0E9470
:1015100010146FEF7FEF80915B6B90915C6B0E947A
:10152000171084E50E94BF27E0E0F8E08581806223
:1015300085836FEF7FEF8091576B9091586B0E947E
:10154000171000E020E030E040E050E060E08091E3
:0C1550005B6B90915C6B0E9455132CCFDC
:10155C002F923F924F925F926F927F928F92AF92A7
:10156C00BF92CF92DF92EF920F931F93CF93DF93A3
:10157C001C013A01862E59012801C9010E94E92259
:10158C008C01892B09F416C18DE290E00E94E922AE
:10159C00EC01892B89F08DE2FE0111928A95E9F715
:1015AC000F8B188FF1E0AF1AB1080A0D1B1D6114D7
:1015BC007104810429F42FC0C8010E943928FAC093
:1015CC00F301582D0E941428698FF301582D0E94A5
:1015DC0014286623F9F09E01265E3F4FA82DC30107
:1015EC000196A11D48E0640E711C811CFC015A2F50
:1015FC000E941428F90161939F01E82FF92F5A2FAB
:10160C000196A11D0E941428662321F06816790604
:10161C008A0661F718A2F4E0FE1518F46894EE241B
:10162C00E2F8EE8AE9A25E0142E0A40EB11CC5010B
:10163C000E942628CE010C960E942628C887D9879E
:10164C0085E090E08E1991098C879D87CA8BDB8B86
:10165C00A201B101C8010E942C2788839983C1146F
:10166C00D10419F0F601C083D1830FB6F8940F9210
:10167C0080916B6B8F5F80936B6B80913B6B9091C8
:10168C003C6B892BA9F5C0933B6BD0933C6B809141
:10169C006B6B8130E9F50EEB1AE60F2EFBEECF2EBD
:1016AC00FAE6DF2EF02DC8010E949727075F1F4F27
:1016BC000C151D05C1F780E19BE60E94972787E07A
:1016CC009BE60E9497278EEF9AE60E94972785EF5C
:1016DC009AE60E94972780E19BE68093396B909362
:1016EC003A6B87E09BE68093376B9093386B10C016
:1016FC008091696B81110CC0E0913B6BF0913C6B5C
:10170C0096898E89891720F0C0933B6BD0933C6BE4
:10171C008091666B8F5F8093666B8E8990916A6BFC
:10172C00981710F480936A6B90E0FC01EE0FFF1F8A
:10173C00EE0FFF1FEE0FFF1F8E0F9F1FFC01E254D9
:10174C00F5490180F281E02DEC83FD838481958144
:10175C008E839F83A481B5811296AD92BC92139710
:10176C00A482B582EE89F0E0CF01880F991F880F13
:10177C00991F880F991FE80FF91FE254F549EA8762
:10178C00FB8780818F5F80830F900FBE8091696B88
:10179C00882361F0E0913B6BF0913C6B96898E89CC
:1017AC00981730F40E94591C81E005C081E003C0F9
:1017BC0081E001C08FEFDF91CF911F910F91EF90DE
:1017CC00DF90CF90BF90AF908F907F906F905F9095
:0817DC004F903F902F900895FB
:1017E4008F929F92AF92BF92CF92DF92EF92FF922D
:1017F4000F93CF93DF93DC01E114F10479F0FC0142
:1018040084E0689FE00DF11D112483A094A0A5A09D
:10181400B6A0F70180829182A282B38270E0FD01BA
:10182400E60FF71F83A592E093A70230F9F018F4AE
:10183400013031F049C0033069F10430B9F144C0DA
:10184400660F771F660F771FFD01E60FF71F83A052
:1018540094A0A5A0B6A0BA01A901482959296A29CA
:101864007B2943A354A365A376A32EC0660F771FD9
:10187400660F771FFD01E60FF71F43A154A165A171
:1018840076A14F5F5F4F6F4F7F4F43A354A365A370
:1018940076A31AC0660F771F660F771FFD01E60F48
:1018A400F71F23A334A345A356A30EC0823009F423
:1018B400B2C0660F771F660F771FFD01E60FF71F93
:1018C40023A334A345A356A3813009F0A6C0809175
:1018D400656B81116DC01A96ED91FC911B9714965E
:1018E400CD91DC91159716968D919C9117978C83C9
:1018F4009D831696CD91DC91179714968D919C91AA
:1019040015978A839B839D012E5F3F4F818192812E
:101914008217930731F416968D919C9117978183C2
:1019240092831A961D921C921B978081815080830A
:1019340056968C91569790916A6B981710F48093F1
:101944006A6B90E0FC01EE0FFF1FEE0FFF1FEE0F1E
:10195400FF1F8E0F9F1FFC01E254F5490180F281A5
:10196400E02D1496ED93FC9315978481958116963A
:101974008D939C931797C481D5812A833B832483B9
:1019840035835696EC915697F0E0CF01880F991F56
:10199400880F991F880F991FE80FF91FE254F54922
:1019A4001A96ED93FC931B9780818F5F808320C0F0
:1019B4004EEF5AE6FA01C181D2811E96CD93DC9393
:1019C4001F978C819D8150968D939C9351972C8168
:1019D4003D81CD010C96F901828393838C839D8391
:1019E40054964D935C935597FA0180818F5F808361
:1019F400E0913B6BF0913C6B56969C9186898917DC
:101A040070F4C114D10419F081E0F601808381E0FF
:101A14008093686B05C080E003C081E001C081E071
:101A2400DF91CF910F91FF90EF90DF90CF90BF9017
:081A3400AF909F908F90089580
:101A3C000F931F93CF93DF938091656B811102C13C
:101A4C00C091356BD091366B8E010F5F1F4F009399
:101A5C00356B1093366B01151105B9F48091396B08
:101A6C0090913A6B2091376B3091386B2093396B96
:101A7C0030933A6B8093376B9093386B8091676B94
:101A8C008F5F8093676B0E9481268091316B909160
:101A9C00326B0817190710F480E0B8C080E0E091B1
:101AAC00396BF0913A6B9081911107C02FEF3FEF9A
:101ABC002093316B3093326BA9C0E091396BF0916C
:101ACC003A6B0580F681E02D0680F781E02D2281AE
:101ADC0033810217130728F42093316B3093326B48
:101AEC0095C0A285B3852481358146815781E90152
:101AFC004C835D832681378144815581E9014A837A
:101B0C005B83AF014E5F5F4F11962D913C91129705
:101B1C002417350731F42681378111962D933C9388
:101B2C001297128613869C9191509C93A489B58927
:101B3C00109719F12685378560897189E9016C83C5
:101B4C007D832089318966857785E9016A837B836A
:101B5C0011966D917C9112979F01245F3F4F6217F4
:101B6C00730731F42089318911962D933C93129788
:101B7C00148A158A9C9191509C93268990916A6B3A
:101B8C00921710F420936A6B30E0D901AA0FBB1F97
:101B9C00AA0FBB1FAA0FBB1F2A0F3B1FD901A254B0
:101BAC00B54911960D90BC91A02DA483B5831496C4
:101BBC002D913C9115972683378314962D913C914A
:101BCC001597E9014A835B8314964D935C931597A3
:101BDC00A689B0E09D01220F331F220F331F220F65
:101BEC00331FA20FB31FA254B549A287B3879C9190
:101BFC009F5F9C93A0913B6BB0913C6B2689569652
:101C0C009C91921708F04BCF81E049CFE0913B6B50
:101C1C00F0913C6B268930E0F901EE0FFF1FEE0FBF
:101C2C00FF1FEE0FFF1F2E0F3F1FF901E254F54966
:101C3C009081923008F081E09091686B992361F06B
:101C4C0081E00AC08091336B9091346B0196809344
:101C5C00336B9093346B80E0DF91CF911F910F9198
:021C6C000895D9
:101C6E008F929F92AF92BF92EF92FF920F93CF936C
:101C7E00DF93DC010FB6F8940F92E114F10479F0C2
:101C8E00FC0184E0689FE00DF11D112483A094A057
:101C9E00A5A0B6A0F70180829182A282B38270E0E5
:101CAE00FD01E60FF71F83A592E093A70230F9F02E
:101CBE0018F4013031F049C0033069F10430B9F144
:101CCE0044C0660F771F660F771FFD01E60FF71FE3
:101CDE0083A094A0A5A0B6A0BA01A90148295929AC
:101CEE006A297B2943A354A365A376A32EC0660F4E
:101CFE00771F660F771FFD01E60FF71F43A154A153
:101D0E0065A176A14F5F5F4F6F4F7F4F43A354A3E3
:101D1E0065A376A31AC0660F771F660F771FFD01A6
:101D2E00E60FF71F23A334A345A356A30EC082309C
:101D3E0009F487C0660F771F660F771FFD01E60F48
:101D4E00F71F23A334A345A356A3813009F07BC00C
:101D5E001A96ED91FC911B971496CD91DC911597E7
:101D6E0016968D919C9117978C839D831696CD9187
:101D7E00DC91179714968D919C9115978A839B836E
:101D8E009D012E5F3F4F818192818217930731F41F
:101D9E0016968D919C911797818392831A961D9218
:101DAE001C921B9780818150808356968C915697FA
:101DBE0090916A6B981710F480936A6B90E0FC0117
:101DCE00EE0FFF1FEE0FFF1FEE0FFF1F8E0F9F1F59
:101DDE00FC01E254F5490180F281E02D1496ED9359
:101DEE00FC9315978481958116968D939C931797E6
:101DFE00C481D5812A833B83248335835696EC9107
:101E0E005697F0E0CF01880F991F880F991F880F02
:101E1E00991FE80FF91FE254F5491A96ED93FC93BA
:101E2E001B9780818F5F8083E0913B6BF0913C6BC1
:101E3E0056969C918689891740F40E94591C81E020
:101E4E0005C080E003C081E001C081E00F900FBEAD
:101E5E00DF91CF910F91FF90EF90BF90AF909F9039
:041E6E008F900895B4
:101E72001F93CF93DF930FB6F8940F928091656B07
:101E820081508093656B8091656B8111C6C0809192
:101E92006B6B81119BC0C4C0DB011596ED91FC9167
:101EA20016970680F781E02DA489B58986859785E6
:101EB20020893189EC012C833D8380899189268593
:101EC2003785EC012A833B83CF010C9611962D9125
:101ED2003C9112972817390731F48089918911961C
:101EE2008D939C931297148A158A8C9181508C93AE
:101EF200A285B3858481958126813781EC012C836B
:101F02003D838681978124813581EC012A833B833D
:101F12009F012E5F3F4F11968D919C9112978217D0
:101F2200930731F48681978111968D939C93129732
:101F3200128613868C9181508C93868990916A6B5C
:101F4200981710F480936A6B90E0DC01AA0FBB1F14
:101F5200AA0FBB1FAA0FBB1F8A0F9B1FDC01A25433
:101F6200B54911960D90BC91A02DA483B58314960A
:101F72008D919C9115978683978314968D919C9150
:101F82001597EC012A833B8314962D933C93159766
:101F9200A689B0E0CD01880F991F880F991F880F7D
:101FA200991FA80FB91FA254B549A287B3878C9174
:101FB2008F5F8C93A0913B6BB0913C6B9689569648
:101FC2008C91981740F04093686B05C0E0E0F0E018
:101FD2006EEF7AE641E0DB018C9181115DCFEF2B50
:101FE20011F00E948126C091336BD091346B2097FF
:101FF20061F011E00E941E0D81111093686B219710
:10200200C9F71092336B1092346B8091686B8823FE
:1020120031F00E94591C81E003C080E001C080E0E1
:0C2022000F900FBEDF91CF911F91089529
:10202E002F923F924F926F927F928F92CF92DF922A
:10203E00EF92FF920F931F93CF93DF93CDB7DEB73F
:10204E002597CDBFDEBF8C016C837D83C12CD12C37
:10205E003C0180E8882E7801E1E1EE0EF11C0FB60E
:10206E00F8940F92F801828D8823E1F08150828FCF
:10207E0080819181892B29F40E946427F801848341
:10208E009583F8018085882349F0085F1F4FB801BA
:10209E0080E80E94CF1181110E94591C0F900FBE33
:1020AE0081E089C08C819D81892B21F40F900FBE18
:1020BE0080E081C0D11006C0CE0101960E94CB27D0
:1020CE00DD24D3940F900FBE0E941B280FB6F894F8
:1020DE000F92F801858D8F3F09F4158EF801868DCC
:1020EE008F3F09F4168E0F900FBEBE016C5F7F4FAF
:1020FE00CE0101960E945D2381112AC0882DB30165
:10210E000E9476278823F1F0F80180819181892B36
:10211E0051F40FB6F8940F92848195810E945B174B
:10212E00C82E0F900FBE6C817D81C7010E94522771
:10213E00C8010E94621D0E94390F811190CF0E942A
:10214E00591C8DCFC8010E94621D0E94390F87CF86
:10215E00C8010E94621D0E94390F882DB3010E9492
:10216E007627882309F47BCFCC2021F10FB6F89483
:10217E000F92A82DC3014196A11DFC015A2F0E945A
:10218E001428662369F0A82DC3014696A11DFC01F3
:10219E005A2F0E94F427FB01808165E0681B01C065
:1021AE0060E0F801848195810E94FA190F900FBEAC
:1021BE0080E001C080E02596CDBFDEBFDF91CF91DC
:1021CE001F910F91FF90EF90DF90CF908F907F90A7
:0A21DE006F904F903F902F900895EE
:1021E800CF93DF93CDB7DEB72697CDBFDEBFCE0145
:1021F80001965C01082F1B2DE091456BF091466B11
:102208008081882309F4B3C00580F681E02DE08041
:10221800F1800E941B28C5010E946F216C018981F1
:1022280081111BC0CE14DF0438F00E94390FB601AB
:10223800C7010E9434258EC040E0B7016C197D09A2
:102248008091416B9091426B0E9464260E94390FE5
:10225800811180C00E94591C7DC00E94390F7AC02C
:10226800898188230CF476C0EC80FD80D7011B9609
:102278008D919C911C97892B21F0C70103960E9490
:10228800DB25CE0106960E946F216C01E9818E2F15
:10229800EE0F990BAA0BBB0BFC013197E930F10546
:1022A80008F058C0EE5AFF4F0C94EB27F7018389CA
:1022B8008160838B2A813B8165857685620F731FD8
:1022C800A601C7010E940525882309F443C0D70148
:1022D80053968C91539782FF0DC06A817B811D961E
:1022E8008D919C911E97680F791FA601C7010E94C6
:1022F800022603C08E7FF701838BD7015196ED919B
:10230800FC915297C701099525C0F70183898E7FF3
:10231800838B20C0D70153968C9153978160539635
:102328008C9353976A817B811D966D937C931E973E
:102338006C0D7D1D9601A601C7010E9405250AC0E6
:10234800F701838981FD04C0C7010E94392802C0B2
:102358008E7F838B40E050E0602F712F8091416B1E
:102368009091426B0E94191681117ACF45CF0E9435
:102378001B28C5010E946F216C01898181116DCFD5
:10238800E091436BF091446B808141E0811140E022
:06239800E12CF12C52CFF4
:10239E00CF93DF93A82FCB010596A11DFC015A2FD9
:1023AE000E94F427DB011696ED91FC911797A489F4
:1023BE00B589C685D785808991898C839D83C0898F
:1023CE00D189868597858A839B839F01245F3F4FA2
:1023DE0011968D919C9112978217930731F48089F3
:1023EE00918911968D939C931297148A158A8C91CC
:1023FE0081508C938091656B811160C0A285B385ED
:10240E00C481D581868197818C839D83C681D78136
:10241E00848195818A839B839F012E5F3F4F119606
:10242E008D919C9112978217930731F48681978133
:10243E0011968D939C931297128613868C918150D0
:10244E008C93868990916A6B981710F480936A6BBF
:10245E0090E0DC01AA0FBB1FAA0FBB1FAA0FBB1F68
:10246E008A0F9B1FDC01A254B54911960D90BC91A9
:10247E00A02DA483B58314968D919C911597868378
:10248E0097831496CD91DC9115972A833B831496EE
:10249E002D933C931597A689B0E0CD01880F991F17
:1024AE00880F991F880F991FA80FB91FA254B549FD
:1024BE00A287B3878C918F5F8C931CC04EEF5AE628
:1024CE00DA011196CD91DC911297C687D7878C8150
:1024DE009D81808B918B8C819D81DC0112962D9339
:1024EE003C9313972C833D83448B558BDA018C914F
:1024FE008F5F8C93A0913B6BB0913C6B96895696F7
:10250E008C91891720F481E08093686B01C080E084
:06251E00DF91CF9108954A
:102524006F927F928F92EF92FF920F931F93CF93AC
:10253400DF93CDB7DEB72997CDBFDEBF8EE78983A2
:1025440082E08A8382E58B8380916F6B8C836FEF4B
:102554007FEF80915B6B90915C6B0E94171089E513
:102564008D8386E48E833E0185E0680E711CE0E86D
:102574008E2E00E02FEF3FEF682DA3018091616B59
:102584009091626B0E9455132FEF3FEF41E050E0B2
:10259400BE01695F7F4F8091516B9091526B0E9495
:1025A400EF178F818E3741F52FEF3FEF41E050E079
:1025B400BE01695F7F4F8091516B9091526B0E9475
:1025C400EF171F811123C1F07E01F8E0EF0EF11C1B
:1025D40011502FEF3FEF41E050E0BE01695F7F4FA4
:1025E4008091516B9091526B0E94EF178F81F7018C
:1025F40081937F011111ECCF8885803529F6998567
:1026040080916F6B9813C0CFAE014F5F5F4F60E84E
:102614000FEF1FEF24E030E080914F6B9091506BEF
:102624000E94101484E50E94BF27E0E0F8E0858151
:10263400806285836FEF7FEF8091576B9091586B29
:102644000E9417108FE48E8300E02FEF3FEF682D78
:10265400A3018091616B9091626B0E94551320E0FD
:1026640030E040E050E060E080915B6B90915C6B07
:102674000E94551361E070E08091536B9091546B0C
:102684000E94851980E090E00E940C1D2996CDBF20
:10269400DEBFDF91CF911F910F91FF90EF908F904C
:0626A4007F906F90089585
:1026AA002F923F924F926F927F928F92CF92DF92A8
:1026BA00EF92FF920F931F93CF93DF93CDB7DEB7BD
:1026CA002897CDBFDEBF7C014E835F8368872C834A
:1026DA003D8310E03C0180E8882E1301482CEAE192
:1026EA002E0E311C411CFBE16F0E711C811C67010F
:1026FA0088E0C80ED11C0FB6F8940F92F701928D9C
:10270A00838D981710F00230F1F4202F4E815F81EB
:10271A006885C7010E94FA1BF7019189992361F024
:10272A00F1E1EF0EF11CB70180E80E94CF11882376
:10273A0031F00E94591C03C081110E94591C0F904C
:10274A000FBE81E056C08C819D81892B21F40F90A8
:10275A000FBE80E04EC0111105C0CE0101960E9445
:10276A00CB2711E00F900FBE0E941B280FB6F894DA
:10277A000F92F701858D8F3F09F4158EF701868D2B
:10278A008F3F09F4168E0F900FBEBE016C5F7F4F0C
:10279A00CE0101960E945D23811125C00FB6F894DF
:1027AA000F92F101542D0E941428862F0F900FBE0C
:1027BA00F301582D0E94142886130FC06C817D8165
:1027CA00C6010E945227C7010E94621D0E94390F4A
:1027DA00811191CF0E94591C8ECFC7010E94621DA0
:1027EA000E94390F88CFC7010E94621D0E94390FCB
:1027FA0080E02896CDBFDEBFDF91CF911F910F9168
:10280A00FF90EF90DF90CF908F907F906F904F90D6
:06281A003F902F9008958D
:102820004F925F926F927F928F929F92AF92BF92E0
:10283000CF92DF92EF92FF920F931F93CF93DF938C
:10284000CDB7DEB72897CDBFDEBF5C014E835F8377
:10285000688729010C831D83FC0184819581019780
:10286000268520FF0AC03201F2E06F0E711C86152A
:10287000970540F41C821D8243C0320184159505E2
:1028800008F43C018C819D81892B09F439C0CE016B
:1028900001960E9487270FB6F8940F92C5010E94F7
:1028A000F1214C018615970530F560E080E090E05D
:1028B0000E94B8260E942128F501828793870F90F5
:1028C0000FBECC80DD80E12CF12C00E010E09801FF
:1028D00040E050E0BA0180E00E94BA16F50112868D
:1028E0001386BE016C5F7F4FCE0101960E945D236F
:1028F000882389F202C00F900FBE8114910421F445
:10290000C5010E94F1214C017301840192014E81A5
:102910005F816885C5010E945A1E6C01892B09F1EF
:10292000B50180E80E945F25F50126813781821775
:102930009307B8F00E941B28F50180859185892BAB
:1029400071F080859185E12CF12C00E020E030E0F1
:10295000A90160E00E94370EF501108611860E94E1
:10296000390FC6012896CDBFDEBFDF91CF911F91F1
:102970000F91FF90EF90DF90CF90BF90AF909F901E
:0C2980008F907F906F905F904F900895B3
:10298C00CF92DF92EF92FF920F931F9381E00E9400
:10299C00472680935B6B90935C6B00E010E020E02B
:1029AC0030E040E061E070E082E390E00E940524BA
:1029BC008093516B9093526B20E030E040E061E0EB
:1029CC0070E080E991E00E94052480934F6B909316
:1029DC00506B20E030E041E060E070E088EC90E08B
:1029EC000E94052480934D6B90934E6B20E030E059
:1029FC0041E060E070E088EC90E00E940524809358
:102A0C004B6B90934C6B43E060E081E00E942D2176
:102A1C008093596B90935A6B43E060E081E00E9485
:102A2C002D218093576B9093586B43E060E081E0CD
:102A3C000E942D218093556B9093566B0E943F27DB
:102A4C008093536B9093546BC12CD12C0F2EF3E0CD
:102A5C00EF2EF02D24EF31E040E251E060E080E415
:102A6C0099E00E94AE0A6894EE24E2F820E931E085
:102A7C0048E251E060E087ED94E00E94AE0A0F2E30
:102A8C00F6E9EF2EF3E2FF2EF02D21E040E250E0CC
:102A9C006FE271E080E00E9423238093496B909356
:102AAC004A6B0F2EF0E7EF2EF2E2FF2EF02D21E015
:102ABC0042E350E064E371E080E00E9423238093C2
:102ACC00476B9093486B0E9402271F910F91FF90C8
:082ADC00EF90DF90CF90089508
:102AE400CF93DF93DC0170686D937C9311971696F6
:102AF400ED91FC91179718964D915C911997129648
:102B04008D919C91139714962D913C911597EC01FE
:102B14002C833D8314968D919C91159712962D913B
:102B24003C911397EC012A833B83EA0189819A81C2
:102B3400A817B90731F414968D919C911597898340
:102B44009A8318961D921C921997DA018C918150E0
:102B54008C93A285B385C481D581868197818C832A
:102B64009D83C681D781848195818A839B839F01BC
:102B74002E5F3F4F11968D919C9112978217930768
:102B840031F48681978111968D939C9312971286C6
:102B940013868C9181508C93868990916A6B9817D7
:102BA40010F480936A6B90E0DC01AA0FBB1FAA0F9C
:102BB400BB1FAA0FBB1F8A0F9B1FDC01A254B54980
:102BC40011960D90BC91A02DA483B58314968D917C
:102BD4009C911597868397831496CD91DC911597D4
:102BE4002A833B8314962D933C931597A689B0E0D2
:102BF400CD01880F991F880F991F880F991FA80F5F
:102C0400B91FA254B549A287B3878C918F5F8C9367
:102C1400A0913B6BB0913C6B968956968C91891729
:0E2C240018F481E08093686BDF91CF910895E2
:102C32006F927F928F92AF92BF92CF92DF92EF927A
:102C4200FF920F931F93CF93DF93CDB7DEB72597F4
:102C5200CDBFDEBF8C015B014C835D83E12C3C0167
:102C620080E8882E6801E1E1CE0ED11C0FB6F894FF
:102C72000F92F801F28CFF20B9F0B501C8010E9451
:102C82009D26FA94F801F28E8085882349F0085F28
:102C92001F4FB80180E80E94CF1181110E94591C78
:102CA2000F900FBE81E054C08C819D81892B21F44D
:102CB2000F900FBE80E04CC0E11006C0CE0101961D
:102CC2000E94CB27EE24E3940F900FBE0E941B2894
:102CD2000FB6F8940F92F801858D8F3F09F4158E87
:102CE200F801868D8F3F09F4168E0F900FBEBE013C
:102CF2006C5F7F4FCE0101960E945D2381111BC044
:102D0200882DB3010E947627882379F06C817D811A
:102D1200C6010E945227C8010E94621D0E94390FFB
:102D22008111A4CF0E94591CA1CFC8010E94621D2B
:102D32000E94390F9BCFC8010E94621D0E94390F69
:102D4200882DB3010E947627882309F48FCF80E073
:102D52002596CDBFDEBFDF91CF911F910F91FF90DE
:102D6200EF90DF90CF90BF90AF908F907F906F9059
:022D72000895C2
:102D74008F929F92AF92BF92CF92DF92EF92FF9287
:102D84000F931F93CF93DF93480159010FB6F89423
:102D94000F92E0913B6BF0913C6BC82FD0E0EC0FAD
:102DA400FD1F83A5823061F1E0913B6BF0913C6B98
:102DB400CE01880F991F880F991FE80FF91F83A16F
:102DC40094A1A5A1B6A1409550956095709548230E
:102DD40059236A237B2343A354A365A376A3E091D9
:102DE4003B6BF0913C6BEC0FFD1F81E083A7C1149A
:102DF400D10431F061E0C6010E9404190E94591CFB
:102E04000F900FBE0FB6F8940F92E114F104A1F0E5
:102E1400E0913B6BF0913C6BCE01880F991F880FBA
:102E2400991FE80FF91F83A194A1A5A1B6A1F701E9
:102E340080839183A283B383E0913B6BF0913C6BDD
:102E4400EC0FFD1F83A58230E9F4E0913B6BF09118
:102E54003C6BCE01880F991F880F991FE80FF91F4B
:102E640083A194A1A5A1B6A180949094A094B094B8
:102E740088229922AA22BB2283A294A2A5A2B6A246
:102E840081E001C080E020913B6B30913C6BC20F2C
:102E9400D31F1BA60F900FBEDF91CF911F910F91EF
:102EA400FF90EF90DF90CF90BF90AF909F908F9066
:022EB40008957F
:102EB6000F931F93CF93DF93FC01892B09F486C0F0
:102EC6002689A0913B6BB0913C6B56968C91281746
:102ED60008F070C084859585992364F0A0913B6BBA
:102EE600B0913C6B56963C9185E090E0831B91092E
:102EF6008487958730E0C901880F991F880F991F2D
:102F0600880F991F280F391F2254354982859385CA
:102F16008217930709F045C0EF018F010E5F1F4F1F
:102F2600C8010E94DB25E0913B6BF0913C6B8689E2
:102F36008E8B90916A6B981710F480936A6B90E071
:102F4600FC01EE0FFF1FEE0FFF1FEE0FFF1F8E0F90
:102F56009F1FFC01E254F5490180F281E02DEC83CC
:102F6600FD83848195818E839F83A481B58112968A
:102F76000D931C931397048315838E8990E0FC01AF
:102F8600EE0FFF1FEE0FFF1FEE0FFF1FE80FF91FDB
:102F9600E254F549EA87FB8780818F5F808381E071
:102FA60016C0A0913B6BB0913C6B56968C91868B6C
:102FB60081E00DC0A0913B6BB0913C6B81E021A1FB
:102FC60056969C91291718F080E001C080E0DF91A9
:082FD600CF911F910F910895A6
:102FDE002F923F924F925F926F928F929F92AF92EB
:102FEE00BF92CF92DF92EF92FF920F931F93CF93E8
:102FFE00DF93EC011B014A0169018E8580FD03C040
:10300E00A12CB12C04C06894AA24A1F8B12CC1142F
:10301E00D10479F10FB6F8940F922E0180E8682E44
:10302E00862DB2010E945F258C01A816B90648F0C4
:10303E0060E080E090E00E94B8260E9421288887F8
:10304E0099870F900FBEA016B106D8F0E12CF12C87
:10305E0000E010E0980140E050E0BA0180E00E94EC
:10306E00BA1618861986862DB2010E945F258C012C
:10307E0005C0BE0180E80E945F258C01A016B10636
:10308E00F8F49801A401B101CE010E948A1F5C01DF
:10309E00892BC1F00E941B288A859B85892B69F09C
:1030AE008A859B85E12CF12C00E020E030E0A9011F
:1030BE0060E00E94370E1A861B860E94390F02C0EE
:1030CE00A12CB12CC501DF91CF911F910F91FF90D3
:1030DE00EF90DF90CF90BF90AF909F908F906F90BA
:0A30EE005F904F903F902F900895DF
:1030F800AF92BF92CF92DF92EF92FF920F931F93FE
:10310800CF93DF937C016B01A42EB22E0E941B2863
:10311800F701C081D181B11008C081E09E012C2146
:103128003D21232B51F480E008C081E09E012C2131
:103138003D212C153D0509F080E0882361F0AA2087
:1031480009F450C0B601609570956C237D23F70192
:103158006083718347C00115110509F443C0AA2093
:1031680019F060E071E002C060E070E0B1107460D6
:103178006C297D29A801C70102960E945E200E9441
:10318800390F811102C00E94591C0E94EB2691FD43
:1031980026C00FB6F8940F92F70180819181B11083
:1031A80008C021E0A60148235923452B51F420E00B
:1031B80008C021E0A601482359234C155D0509F0F4
:1031C80020E0222351F0AA2041F0B60160957095C5
:1031D80068237923F701608371830F900FBEEC0198
:1031E800DD2702C00E94390FCE01DF91CF911F91D8
:1031F8000F91FF90EF90DF90CF90BF90AF90089520
:10320800FF920F931F93CF93DF93EC01F62E00915B
:10321800356B1091366B80913B6B90913C6B0296AD
:103228000E94DB25CF3F8FEFD807B1F5FF20A1F132
:10323800E5EFFAE6A181B281C0913B6BD0913C6B7E
:10324800AC83BD83C0913B6BD0913C6B14968D9140
:103258009C9115978E839F831496CD91DC91159739
:1032680080913B6B90913C6B02968A839B83809103
:103278003B6B90913C6B029614968D939C9315979B
:10328800A0913B6BB0913C6B1A96ED93FC931B9706
:1032980080818F5F80832FC0C00FD11FE0913B6B6F
:1032A800F0913C6BC283D383C017D10768F4609157
:1032B8003B6B70913C6B8091376B9091386B6E5F74
:1032C8007F4F0E94A42417C060913B6B70913C6BA8
:1032D8008091396B90913A6B6E5F7F4F0E94A42466
:1032E8008091316B9091326BC817D90720F4C09345
:1032F800316BD093326BDF91CF911F910F91FF907B
:02330800089526
:10330A006F927F928F92BF92CF92DF92EF92FF924B
:10331A000F931F93CF93DF93EC018B013C0182E063
:10332A00680E711C80E8882EE82C630183E0C80EC1
:10333A00D11CE11C0E941B2885E0680E711C811CAF
:10334A00F301582D0E94F427FB0188819981082BEB
:10335A00192B0883198300E010E028C0B280F3809B
:10336A00808191819C01332792FD09C0688179810E
:10337A006223732341E0672B59F440E009C0688156
:10338A0079816223732341E06217730709F040E0F1
:10339A00442351F090FF02C0022B132B68817981DC
:1033AA007260CF010E947215EB2DFF2DCF01A0E8AC
:1033BA00C816D906EA0691F6009510958881998172
:1033CA0008231923088319830E94390F8881998158
:1033DA00DF91CF911F910F91FF90EF90DF90CF90E7
:0A33EA00BF908F907F906F900895C0
:1033F4000F931F93CF93DF93FC01892B09F466C0CD
:1034040091A1961708F4962F8689891709F45EC04E
:1034140022A1213009F05AC0968B248535853323A7
:1034240034F025E030E0291B31092487358790E00A
:103434009C01220F331F220F331F220F331F820FD1
:10344400931F825495492285338528173907F1F54E
:10345400EF018F010E5F1F4FC8010E94DB258E898B
:1034640090916A6B981710F480936A6B90E0FC015A
:10347400EE0FFF1FEE0FFF1FEE0FFF1F8E0F9F1F9C
:10348400FC01E254F5490180F281E02DEC83FD83D7
:10349400848195818E839F83A481B58112960D9337
:1034A4001C931397048315838E8990E0FC01EE0F1F
:1034B400FF1FEE0FFF1FEE0FFF1FE80FF91FE2546F
:1034C400F549EA87FB8780818F5F8083DF91CF9105
:0634D4001F910F91089505
:1034DA008091656B882321F081E08093686B089561
:1034EA001092686B20916A6B822F90E0FC01EE0FBC
:1034FA00FF1FEE0FFF1FEE0FFF1FE80FF91FE25429
:10350A00F5493081311111C02150822F90E0FC0120
:10351A00EE0FFF1FEE0FFF1FEE0FFF1FE80FF91F41
:10352A00E254F5493081332379F3AC01440F551F36
:10353A00440F551F440F551F480F591FDA01A25453
:10354A00B5491196ED91FC9112970280F381E02D15
:10355A001196ED93FC9312974F535549E417F507CB
:10356A0029F442815381FD0141835283FC01EE0F0C
:10357A00FF1FEE0FFF1FEE0FFF1F8E0F9F1FFC0195
:10358A00E254F5490180F281E02D8681978180938A
:0C359A003B6B90933C6B20936A6B089590
:1035A600EF92FF920F931F93CF93DF93FC01362F79
:1035B600892B09F44DC0238D222309F44BC0022F19
:1035C60010E0448DE42EF12C8FEF9FEFB8010E949E
:1035D60018276E157F0508F43FC0EF010FB6F89463
:1035E6000F9260817181CB01249F800D911D112462
:1035F60084839583128E62837383015011090E9D15
:10360600C0010F9D900D1E9D900D1124860F971FD2
:10361600868397838FEF858F868F31110DC08085C6
:10362600882391F02896BE0180E80E94CF11882356
:1036360059F00E94591C08C0CF0108960E9497278E
:10364600CE0141960E9497270F900FBE81E005C0DC
:1036560080E003C080E001C080E0DF91CF911F9140
:083666000F91FF90EF90089511
:10366E000F931F93CF93DF93FC01892B09F451C065
:10367E0082A1815082A3268991A1291709F44BC0FA
:10368E0081114BC0EF018F010E5F1F4FC8010E94C9
:10369E00DB2589A18E8B25E030E0281B31092C8794
:1036AE003D8790916A6B981710F480936A6B90E047
:1036BE00FC01EE0FFF1FEE0FFF1FEE0FFF1F8E0F11
:1036CE009F1FFC01E254F5490180F281E02DEC834D
:1036DE00FD83848195818E839F83A481B58112960B
:1036EE000D931C93139704831583EE89F0E0CF019D
:1036FE00880F991F880F991F880F991FE80FF91FC0
:10370E00E254F549EA87FB8780818F5F808381E0F1
:10371E0005C080E003C080E001C080E0DF91CF9162
:06372E001F910F910895A8
:103734000F920FB6F8940F920BB60F921F921124AA
:103744002F923F924F925F926F927F928F929F92AD
:10375400AF92BF92CF92DF92EF92FF920F931F939B
:103764002F933F934F935F936F937F938F939F9385
:10377400AF93BF93CF93DF93EF93FF93A0913B6BF2
:10378400B0913C6B0DB60D920EB60D920E941E0DBB
:1037940081110E946D1AA0913B6BB0913C6BCD914D
:1037A400CDBFDD91DEBFFF91EF91DF91CF91BF914E
:1037B400AF919F918F917F916F915F914F913F91C5
:1037C4002F911F910F91FF90EF90DF90CF90BF90BA
:1037D400AF909F908F907F906F905F904F903F90AD
:1037E4002F901F900F900BBE0F900FBE0F90189547
:1037F4000F931F93CF93DF93EC01022F1A8D2C8D1F
:1038040021110CC088819981892B09F042C08C81D7
:103814009D810E94371B1C821D8242C0011117C06A
:1038240030E08A819B810E94D2262C8D8A819B81E3
:10383400820F911D8A839B832C813D81821793077C
:1038440050F1888199818A839B8380E029C030E08C
:103854008E819F810E94D2268C8D90E091958195D6
:1038640091092E813F81280F391F2E833F83488180
:1038740059812417350730F42C813D81820F931F21
:103884008E839F83023049F4112349F0115080E064
:1038940007C080E005C080E003C080E001C080E094
:0E38A4001F5F1A8FDF91CF911F910F91089532
:1038B2000F920FB6F8940F920BB60F921F9211242B
:1038C2002F923F924F925F926F927F928F929F922E
:1038D200AF92BF92CF92DF92EF92FF920F931F931C
:1038E2002F933F934F935F936F937F938F939F9306
:1038F200AF93BF93CF93DF93EF93FF93A0913B6B73
:10390200B0913C6B0DB60D920EB60D920E946D1ADF
:10391200A0913B6BB0913C6BCD91CDBFDD91DEBFF1
:10392200FF91EF91DF91CF91BF91AF919F918F91D5
:103932007F916F915F914F913F912F911F910F91C5
:10394200FF90EF90DF90CF90BF90AF909F908F90BD
:103952007F906F905F904F903F902F901F900F90AD
:0A3962000BBE0F900FBE0F900895EA
:10396C00CF92DF92EF9241155105610509F44AC0DF
:10397C002091EE6A3091EF6A8217930791F420E060
:10398C0030E005C021E030E002C021E030E0F90178
:10399C00EE0FFF1FEE0FFF1FE20FF31FE551F5496E
:1039AC0015C0C090EB6AD090EC6AE090ED6ACD281F
:1039BC00CE2801F52091F36A3091F46A82179307AF
:1039CC0009F3EBEEFAE602C0E0EFFAE63097D1F03D
:1039DC004083518362838383948314C0C090F06AC4
:1039EC00D090F16AE090F26ACD28CE2869F3E0E03D
:1039FC00F0E0ECCF2091F36A3091F46A82179307D0
:0C3A0C0021F2ECCFEF90DF90CF900895F6
:103A18000F931F93CF93DF93EC010FB6F8940F9297
:103A2800892B21F4C0913B6BD0913C6B8E010E5FCA
:103A38001F4FC8010E94DB258C899D89892B21F0A5
:103A4800CE010C960E94DB25B80185EF9AE60E940C
:103A580026268BA5813009F41BA68CA5813009F494
:103A68001CA60F900FBE8091696B882339F00FB6A2
:103A7800F8940F920E9481260F900FBE80913B6BA5
:103A880090913C6BC817D907A1F48091696B882382
:103A980019F00E94591C0DC09091F56A80916B6BCA
:103AA800981305C010923B6B10923C6B02C00E94A9
:0C3AB8006D1ADF91CF911F910F910895BE
:103AC400CF92DF92EF920F931F93CF938C010FB697
:103AD400F8940F92FC01C68D1C16C4F481898111DF
:103AE40006C014C0F8018189811107C00FC06801A4
:103AF400F1E1CF0ED11C80E8E82E8E2DB6010E9494
:103B0400CF1181110E942A28C15061F78FEFF8016B
:103B1400868F0F900FBE0FB6F8940F92C58D1C16AA
:103B2400C4F48085811106C014C0F8018085811118
:103B340007C00FC06801F8E0CF0ED11C80E8E82E62
:103B44008E2DB6010E94CF1181110E942A28C150E6
:103B540061F78FEFF801858F0F900FBECF911F9102
:0A3B64000F91EF90DF90CF900895CD
:103B6E00CF92DF92EF92FF920F931F93E0E0F4E07B
:103B7E0084E08183868340E062E083E00E942D2111
:103B8E008093616B9093626B40E062E083E00E94F1
:103B9E002D2180935F6B9093606BC12CD12C689418
:103BAE00EE24E1F800E010E02EE531E046E451E0CD
:103BBE0060E08CE797E00E94AE0A0F2EFEE2EF2E39
:103BCE00F8E2FF2EF02D21E042E350E06DE471E0CB
:103BDE0080E00E9423238093636B9093646B0E941A
:103BEE00E12720E030E0AC0161E08091636B9091C1
:103BFE00646B0E94AA1E1F910F91FF90EF90DF90B1
:043C0E00CF900895B6
:103C12006F927F928F92AF92BF92CF92DF92EF928A
:103C2200FF920F931F93CF93DF93EC013A01862EFD
:103C3200590168018E8580FF05C0790182E0E80E96
:103C4200F11C01C07901CE010E94F1218C01950184
:103C5200682DA301CE010E945A1E5C01892BD1F06E
:103C6200BE0180E80E945F252E813F818217930763
:103C720088F088859985892B69F088859985E12C5A
:103C8200F12C00E020E030E0A90160E00E94F20B9C
:103C920018861986C501DF91CF911F910F91FF9070
:103CA200EF90DF90CF90BF90AF908F907F906F900A
:023CB200089573
:103CB4006F927F928F92AF92BF92CF92DF92EF92E8
:103CC400FF920F931F93CF93DF9300D0CDB7DEB74E
:103CD4005C013A01862E6901FC01228133819685BB
:103CE40090FF11C0C982DA820E151F05F0F0AE01F3
:103CF4004F5F5F4F60E8890122E030E0C5010E9418
:103D0400F61E9C0104C00C151D0508F46801C114BD
:103D1400D10469F089019601682DA301C5010E94AF
:103D2400F61EF5018283938302C0C12CD12CC601F7
:103D34000F900F90DF91CF911F910F91FF90EF9013
:103D4400DF90CF90BF90AF908F907F906F90089549
:103D5400EF92FF920F931F93CF93DF93CDB7DEB70C
:103D64002597CDBFDEBFE091416BF091426B309758
:103D740081F1780169834A835B838C839D836630F8
:103D8400FCF40E94A527823069F4AE014F5F5F4FB7
:103D940060E800E097018091416B9091426B0E9432
:103DA400551318C0AE014F5F5F4F60E800E020E09C
:103DB40030E08091416B9091426B0E9455130AC090
:103DC400AE014F5F5F4F60E800E0CF010E94B12178
:103DD40001C080E02596CDBFDEBFDF91CF911F915A
:083DE4000F91FF90EF9008958C
:103DEC006F927F928F92CF92DF92EF92FF920F930E
:103DFC001F93CF93DF936C013A01862EE901FC01EE
:103E0C00E480F580E01AF10A2E153F0508F47901DB
:103E1C00F601848595859701682DA301800F911F6C
:103E2C000E94D226EC16FD0678F49E012E193F094D
:103E3C00682DA3014E0D5F1D611DF7FC6A95F601FF
:103E4C00848595850E94D226C8018C0F9D1FF60192
:103E5C00248135818217930710F0821B930BDF911D
:103E6C00CF911F910F91FF90EF90DF90CF908F909B
:063E7C007F906F90089595
:103E82000F931F93CF93DF93FC018B01A181B2812A
:103E920080913B6B90913C6BEC01AE87BF87809128
:103EA2003B6B90913C6B14962D913C911597EC01D4
:103EB200288B398B14968D919C91159720913B6B91
:103EC20030913C6B245F3F4FEC012A833B8320916E
:103ED2003B6B30913C6B245F3F4F14962D933C9388
:103EE2001597A0913B6BB0913C6B5496ED93FC936C
:103EF200559790819F5F9083442311F00FEF1FEF3E
:103F0200642FC8010E940419DF91CF911F910F9174
:023F1200089510
:103F1400AF92BF92CF92DF92EF92FF920F931F93D3
:103F2400CF93DF9300D0CDB7DEB77C015B016A018C
:103F34008901FC0120813181968590FF11C042E006
:103F440050E0BE016F5F7F4FC7010E94D21F9C01EA
:103F540089819A81C816D90698F0025011096C011A
:103F6400C016D10608F486010115110559F0A801FF
:103F7400B501C7010E94D21FF7018083918302C05B
:103F840000E010E0C8010F900F90DF91CF911F91D6
:103F94000F91FF90EF90DF90CF90BF90AF90089576
:103FA400AF92BF92CF92DF92EF92FF920F931F9343
:103FB400CF93DF937C015B01EA016901FC01048179
:103FC4001581021B130B4017510708F48A01F701EE
:103FD400448555854C0D5D1D60E89801C5010E941E
:103FE400D2260C171D0760F49E01201B310BF7012C
:103FF4004485558560E8C501800F911F0E94D22633
:10400400C6018C0F9D1FF701248135818217930708
:1040140010F0821B930BDF91CF911F910F91FF90B2
:0C402400EF90DF90CF90BF90AF90089518
:10403000AF92BF92CF92DF92EF92FF920F931F93B6
:10404000CF93DF93EC015B017A0169018E8580FDDE
:1040500003C000E010E002C002E010E0BE0180E812
:104060000E945F2508171907D8F49C01A701B50124
:10407000CE010E948A1F5C01892BA1F08A859B8555
:10408000892B81F08A859B85E12CF12C00E020E0D2
:1040900030E0A90160E00E94F20B1A861B8602C084
:1040A000A12CB12CC501DF91CF911F910F91FF90F1
:0C40B000EF90DF90CF90BF90AF9008958C
:1040BC00CF93DF93FC01A0913B6BB0913C6B70688C
:1040CC001C966D937C931D97A181B281C0913B6B23
:1040DC00D0913C6BAE87BF87C0913B6BD0913C6B52
:1040EC0014968D919C911597888B998B1496CD91E4
:1040FC00DC91159720913B6B30913C6B245F3F4FCB
:10410C002A833B8320913B6B30913C6B245F3F4F68
:10411C0014962D933C931597A0913B6BB0913C6BEF
:10412C005496ED93FC93559790819F5F908361E03B
:0C413C00CA010E940419DF91CF91089580
:104148001F920F920FB60F9211240BB60F922F9356
:104158003F934F935F936F937F938F939F93AF9307
:10416800BF93EF93FF93CF93DF930F92CDB7DEB753
:1041780020E030E041E050E0BE016F5F7F4F80916A
:104188004F6B9091506B0E941820892B31F4E0E01E
:10419800F8E085818F7D858303C08981809302083B
:1041A8000F90DF91CF91FF91EF91BF91AF919F91C8
:1041B8008F917F916F915F914F913F912F910F90C8
:0C41C8000BBE0F900FBE0F901F901895BB
:1041D4001F920F920FB60F9211240BB60F920F93EA
:1041E4001F932F933F934F935F936F937F938F937B
:1041F4009F93AF93BF93EF93FF93CF93DF930F926C
:10420400CDB7DEB7809100088983AE014F5F5F4F61
:1042140060E800E010E021E030E08091516B909183
:10422400526B0E94091E0F90DF91CF91FF91EF9185
:10423400BF91AF919F918F917F916F915F914F91BA
:104244003F912F911F910F910F900BBE0F900FBEB6
:064254000F901F90189569
:10425A000F931F93CF93DF93282F362F882361F173
:10426A00682F70E08FEF9FEF0E941827832F90E04E
:10427A006817790720F1239FC0011124813E4FEF6F
:10428A00940700F5D32FC22F4F960E94E9228C0182
:10429A000097D1F0D11104C0FC018083918304C03E
:1042AA004F96F80180839183F801C38FD48F61E020
:1042BA00C8010E94D31A08C000E010E005C000E05F
:1042CA0010E002C000E010E0C801DF91CF911F9119
:0442DA000F910895A3
:1042DE000F931F93CF93DF938C010E94E127EC0184
:1042EE0080913D6B90913E6BC817D90738F5E091E0
:1042FE00456BF091466B8081882381F00580F681B5
:10430E00E02D6FEF7FEF808191810E943425E09147
:10431E00456BF091466B80818111F0CF8091436B9C
:10432E009091446B8093456B9093466BE093436BF7
:10433E00F093446B81E0F801808302C0F801108293
:10434E00C0933D6BD0933E6BCE01DF91CF911F9109
:04435E000F9108951E
:10436200EF92FF920F931F93CF93DF937901FC019A
:10437200728D338D731710F0023011F5202FEC017E
:104382001E8D8A8DCE010E94FA1B1F3F89F48989F6
:104392008823C1F06196BE0180E80E94CF11882374
:1043A20099F0E114F10491F081E0F701808311C0EA
:1043B2000E943228181760F41F5F1E8F81E009C027
:1043C20080E007C081E005C081E003C081E001C058
:1043D20081E0DF91CF911F910F91FF90EF900895AF
:1043E2006F927F928F92CF92DF92EF920F931F93F1
:1043F200CF93DF933C0120E8822E482D930169017F
:10440200E42E82E0C80ED11CE11CF901542F0E9457
:10441200F427DB01F6015E2D0E94F4278B01AA1717
:10442200BB0799F724E0620E711C811CF301582D21
:104432000E94F427CB0101978A0F9B1F801B910BCF
:104442008617970710F0861B970BDF91CF911F916C
:104452000F91EF90DF90CF908F907F906F900895A3
:10446200CF92DF92EF920F931F93C12CD12C6894BD
:10447200EE24E2F800E010E02CE231E042E551E007
:1044820060E082E992E10E94AE0AEE24E39428E51C
:1044920032E047E551E060E081EB90E00E94AE0A35
:1044A2000E940D280E94B3270E94892580936E6B7B
:1044B2000E94892580936F6B0E94C6140E94B71DCB
:1044C200E0E0F8E08581806485830E94712480E0C9
:0E44D20090E01F910F91EF90DF90CF90089532
:1044E0000F93CF93DF9300D0CDB7DEB780915D6B94
:1044F00090915E6B8837910508F184E589838AE4A1
:104500008A83AE014F5F5F4F60E800E02FE030E04C
:1045100080915F6B9091606B0E94551320E030E0BA
:1045200040E050E060E08091556B9091566B0E94A6
:10453000551310925D6B10925E6B09C080915D6B9C
:1045400090915E6B019680935D6B90935E6B0F9084
:0A4550000F90DF91CF910F910895B5
:10455A00EF92FF921F93CF93DF93FC01228D338D4D
:10456A00231718F57B01EC01168D2F5F228F1F3F51
:10457A0091F481898823D9F0CF014196BC0180E862
:10458A000E94CF118823A9F0E114F104A1F081E07F
:10459A00F701808313C00E943228181770F4FF2491
:1045AA00F394F10EFE8E81E009C080E007C081E03D
:1045BA0005C081E003C081E001C081E0DF91CF91B5
:0845CA001F91FF90EF9008958E
:1045D200CF93DF93EC010E941B2880912B6B90916B
:1045E2002C6B892B31F480E090E480932B6B9093B9
:1045F2002C6B2097C9F080912D6B90912E6B9E01B0
:10460200280F391F2F3F4FE1340788F48217930791
:1046120088F4C0912B6BD0912C6BC80FD91F2093BB
:104622002D6B30932E6B08C0C0E0D0E005C0C0E017
:10463200D0E002C0C0E0D0E00E94390FCE01DF918D
:04464200CF91089577
:104646006F927F928F92AF92BF92DF92EF92FF921C
:104656000F931F93CF93DF933B01882E5A01D22EDF
:1046660084E190E00E94E922EC01892BA9F01B8AE3
:104676000E94D524688279828A82AD86BE860F879B
:10468600188BE98AFA8ACE0103960E942628DD2035
:1046960019F08B8984608B8BCE01DF91CF911F91AE
:1046A6000F91FF90EF90DF90BF90AF908F907F902B
:0446B6006F90089564
:1046BA00CF93DF930FB6F8940F922091356B309118
:1046CA00366BDB014D915C914F3FBFEF5B0719F1F0
:1046DA00EC01E981FA81A091676BB881BA1741F0C0
:1046EA002E173F0728F0FB011082118281E014C0C7
:1046FA002E1B3F0B2417350748F4FB01421B530BB3
:10470A00408351830E94CB2780E006C0DB011D92C3
:10471A001C9281E001C080E00F900FBEDF91CF9123
:02472A000895F0
:10472C000F931F9320915D6B30915E6B80916F6B3B
:10473C0090E02817390700F18FEF90E080935D6BC4
:10474C0090935E6B0E94E1270FEF1FEF20E030E0AB
:10475C00AC0161E08091476B9091486B0E94AA1E5E
:10476C0020E030E040E050E063E08091496B9091B4
:10477C004A6B0E94AA1E09C080915D6B90915E6B82
:10478C00019680935D6B90935E6B1F910F910895D2
:10479C00E0E0FBE080EC9DE58487958781E08583F4
:1047AC008083A0913B6BB0913C6BCD91CDBFDD91E3
:1047BC00DEBFFF91EF91DF91CF91BF91AF919F91B0
:1047CC008F917F916F915F914F913F912F911F919D
:1047DC000F91FF90EF90DF90CF90BF90AF909F9094
:1047EC008F907F906F905F904F903F902F901F9085
:0E47FC000F900BBE0F900FBE0F900895089502
:10480A00FF920F931F93CF93DF938B01FF24F394AF
:10481A00413009F0F12C0115110511F401E010E005
:10482A009C01205F3F4F82179307B8F4EC01219651
:10483A00C9010E94E922FC01892B89F08FE0DF017E
:10484A001D928A95E9F7CF010F9684879587C483CD
:10485A00D58306831783F68602C0E0E0F0E0CF0135
:0C486A00DF91CF911F910F91FF900895F6
:104876001F920F920FB60F9211240BB60F922F9321
:104886003F934F935F936F937F938F939F93AF93D2
:10489600BF93EF93FF9382E50E94BF27E0E0F8E025
:1048A60084818064848360E070E08091576B90918E
:1048B600586B0E94AD22FF91EF91BF91AF919F91EE
:1048C6008F917F916F915F914F913F912F910F90B3
:0C48D6000BBE0F900FBE0F901F901895A6
:1048E200CF92DF92EF920F931F930F2EFFE2CF2E04
:1048F200FBE6DF2EF02DE12C00E010E028E730E0AF
:104902004BE551E060E085E098E20E94AE0A81301A
:10491200A1F40E94B225813081F4F8948FEF9FEFC9
:104922008093316B9093326B81E08093696B10922C
:10493200356B1092366B0E94CE231F910F91EF9030
:06494200DF90CF90089504
:10494800CF93DF93EB01488159814F3F2FEF5207F7
:1049580021F4FC01A781B0850DC0DC01139601C0CC
:10496800DF011296ED91FC91139720813181421756
:104978005307B0F71296ED91FC911397EA83FB83E6
:10498800C483D583AC83BD831296CD93DC931397F0
:1049980088879987FC0120812F5F2083DF91CF9141
:0249A800089570
:1049AA000FB6F8940F928091416B9091426B892BCC
:1049BA0021F582E29BE60E94972789E19BE60E9405
:1049CA00972782E29BE68093456B9093466B89E139
:1049DA009BE68093436B9093446B40E065E08AE0EA
:1049EA000E942D218093416B9093426B009729F08E
:1049FA0049E351E060E00E94B61C0F900FBE089593
:104A0A00FC0163837483818792874617570790F066
:104A1A00421B530B8585968548175907E0F4BF0159
:104A2A006D5F7F4F8091436B9091446B0E94A424E9
:104A3A0080E008954217530718F46217730768F461
:104A4A00BF016D5F7F4F8091456B9091466B0E94CD
:0E4A5A00A42480E0089581E0089581E008958D
:104A6800EF92FF920F931F93CF93DF938C017B01FB
:104A7800E091456BF091466B0580F681E02DC6818B
:104A8800D781CE0103960E94DB258B8982FF06C061
:104A9800A701B801CE010E94022602C08E7F8B8B2F
:104AA800E989FA89CE010995DF91CF911F910F917C
:064AB800FF90EF9008954D
:104ABE00CF92DF92EF929B01482FA82FCB01049645
:104ACE00A11DFC015A2F0E94F427DB016901E42E7F
:104ADE0082E0C80ED11CE11CF6015E2D0E94F42767
:104AEE00CD01860F971FF901542F0E94F427861BC4
:104AFE00970B8A179B0710F08A1B9B0BEF90DF908A
:044B0E00CF900895A7
:104B120027E030E080E0E0E0F4E071E060E49085DE
:104B220092959F709727492F417050E0DA01022E2B
:104B320002C0AA0FBB1F0A94E2F78A2B6583A7EB78
:104B4200BBE01197F1F700C000006683A7EBBBE062
:104B52001197F1F700C000002150310900F780954C
:024B62000895B4
:104B6400CF92DF92EF920F931F930E94D5248091EE
:104B7400416B9091426B892BA9F00F2EFFE3CF2E4E
:104B8400FBE6DF2EF02D6894EE24E2F800E010E05E
:104B940020EF30E04EE351E060E084EF90E10E94CA
:104BA400AE0A01C080E01F910F91EF90DF90CF908B
:024BB400089562
:104BB600CF93DF93FC01A085B185C281D381848127
:104BC60095818C839D83C481D581828193818A83DB
:104BD6009B8311968D919C911297E817F90731F4F2
:104BE6008481958111968D939C93129710861186D8
:0E4BF6008C9181508C938C91DF91CF9108951A
:104C0400EF92FF920F931F93CF93DF93EC018B01ED
:104C14007A0108C08D859E85080F191FE989FA89D4
:104C2400CE0109956D857E85600F711F9801A701DE
:104C3400CE010E9405258111EDCFDF91CF911F9107
:084C44000F91FF90EF9008951D
:104C4C00CF93DF939C01FB01DC011196CD91DC919C
:104C5C001297C283D3838C819D81848395838C81AD
:104C6C009D81DC0112966D937C9313976C837D83ED
:104C7C0020873187F90180818F5F8083DF91CF910D
:024C8C00089589
:104C8E000F93CF93DF93482F60E081E00E942D2198
:104C9E00EC01009769F01C821D82188219821E8217
:104CAE0000E020E030E040E050E060E00E9455136C
:0A4CBE00CE01DF91CF910F91089510
:104CC800CF93DF93EC010FB6F8940F928D8D8F3F41
:104CD80009F41D8E8E8D8F3F09F41E8E0F900FBE26
:104CE8008A8D811104C0CE0141960E94411FCE01D8
:0A4CF8000E94621DDF91CF91089524
:104D0200E091396BF0913A6B8081811107C08FEF8E
:104D12009FEF8093316B9093326B0895E091396BE2
:104D2200F0913A6B0580F681E02D8081918180932C
:084D3200316B9093326B089580
:104D3A00FC01248D2223B1F030E046815781420FD5
:104D4A00531F46835783848195814817590720F05A
:104D5A008081918186839783CB014681578160E860
:064D6A000E94D22608950C
:104D7000009721F480913B6B90913C6B0FB6F894B7
:104D80000F9270E0FC01E60FF71F23A5223031F4EB
:104D9000FC01E60FF71F13A681E001C080E00F9031
:044DA0000FBE0895A5
:104DA400CF92DF92EF926A01E62EDC01280F391FC1
:104DB400A217B30751F0F6015E2D0E9414286D93DB
:104DC4004FEFC41AD40AE40AF3CFEF90DF90CF90E8
:024DD400089540
:104DD600E0913B6BF0913C6B84859585E0913B6B54
:104DE600F0913C6BA0913B6BB0913C6B56964C910D
:0E4DF60025E030E0241B31092487358708951D
:104E04008FB78F778FBFE0E0F8E081E493E080878D
:104E1400918783E2878381E08093010480E885831E
:0C4E240080EC86838FB78F678FBF0895E6
:104E3000AA1BBB1B51E107C0AA1FBB1FA617B707C0
:104E400010F0A61BB70B881F991F5A95A9F78095DC
:084E50009095BC01CD0108950D
:104E5800FC0160833197708331971082319720E885
:104E6800208331971082319710827797408331974A
:064E7800508384970895A9
:104E7E00CF93DF938BE090E00E94E922EC01009744
:104E8E0031F0FC0111921192CF010E949727CE01B1
:064E9E00DF91CF910895A1
:104EA400CF93DF93EB0160913B6B70913C6B645F3C
:104EB4007F4F0E94A42461E0CE010E940419DF9177
:044EC400CF910895ED
:104EC80080913B6B90913C6B892B39F0E0913B6B67
:104ED800F0913C6B82A18F5F82A380913B6B909194
:044EE8003C6B089582
:104EEC000FB6F8940F92A82FCB014A96A11DFC0186
:104EFC005A2F0E9414280F900FBE81E0611180E0A0
:024F0C00089506
:104F0E000FB6F8940F922091676BFC0120832091CD
:104F1E00356B3091366B218332830F900FBE08951F
:104F2E00FC010396818392832FEF3FEF238334831B
:0C4F3E00858396838783908710820895F6
:104F4A008091696B882331F08091656B882321F009
:0C4F5A0080E0089581E0089582E0089551
:104F6600E0E0F4E080E28583A7EBBBE01197F1F780
:084F760000C0000086830895CD
:104F7E00823531F0843539F484E080930504089548
:084F8E0084E0809306040895FD
:104F96002091676BFC0120832091356B3091366B35
:064FA6002183328308950F
:104FAC00EC010E943B280E943A28CE010E943C282A
:064FBC00CE010E9437281F
:104FC2000FB6F8940F928091356B9091366B0F90DB
:044FD2000FBE089571
:104FD600EE0FFF1F0024001C0BBE0790F691E02D7C
:024FE60009942C
:104FE80057FD04C05BBF67917791089561917191F6
:024FF80008951A
:104FFA000F9301E00093060B0F910E949A1B1895DC
:10500A00CEEBDAE688818230E8F30E94591CFACFA7
:0E501A00E0E0F4E080E6818380E18283089587
:0E50280057FD03C05BBF679108956081089536
:0C5036008091656B8F5F8093656B08951F
:0A50420080913B6B90913C6B089548
:08504C00FC0110861186089595
:0850540081E08093686B089570
:08505C0081E08093706B089560
:0650640080916B6B0895C2
:04506A000C940000A2
:04506E000E948E000E
:0250720008959F
:0250740008959D
:0250760008959B
:02507800089599
:00000001FF
