:100000000C9464000C94E1250C94E1250C94E125FA
:100010000C94E1250C94E1250C94E1250C94E12548
:100020000C94E1250C94E1250C94E1250C94E12538
:100030000C94A9250C94E1250C94E1250C94E12560
:100040000C94E1250C94E1250C94E1250C940F1FF0
:100050000C94C91E0C94E6210C94E1250C94E12526
:100060000C94E1250C94E1250C94E1250C94E125F8
:100070000C94E1250C94E1250C94E1250C94E125E8
:100080000C94E1250C94E1250C94E1250C94E125D8
:100090000C94E1250C94E1250C94E1250C94E125C8
:1000A0000C94E125BA0FBA0FE90FEE0F0410BA0F46
:1000B000BA0FE90FEE0F40006B5C806B5C6B5D006C
:1000C00001576B5D6B60800011241FBECFEFCDBF69
:1000D000DFE7DEBFE6EBF0E040E019C0B791A791A3
:1000E00037912791079107FD0EC097918791EF01F6
:1000F000F92FE82F0BBF07900D92A217B307D9F77E
:10010000FE011BBE04C01D92A217B307E1F7E73C36
:10011000F40721F70E9406210C948225F894FFCF62
:0F012000434F4D4D4F555400434F4D4D494E00E9
:0D012F00546D725100546D722053766300C0
:0C013C00494E444F555400494E445400B5
:09014800494E49540057534C0084
:0601510049444C45000387
:010157003374
:10015800CF93DF93CDB7DEB7C75ED109CDBFDEBF82
:100168000FEF1FEF20E040E061E070E08091466B08
:100178009091476B0E9433160F2EFFE45F2EF02DEF
:10018800C951DF4F1882C75ED0400F2EF3E4AF2E5F
:10019800F02DC12CB12CD12C3E018FE1680E711CC1
:1001A800E62CF72C0F2EFBE09F2EF02D22242A940C
:1001B8000F2EFFE44F2EF02D80E8882E0F2EF6E448
:1001C8003F2EF02D40E050E06E2D7F2D80914E6B3C
:1001D80090914F6B0E94D01328EC30E048EC50E02F
:1001E8006E2D7F2D80913E6B90913F6B0E94A615DE
:1001F800882341F39F8D999EF0011124E050F04A25
:100208008285813308F42AC2833330F0833509F0BC
:1002180025C2C11094C1A6C1DD2099F080E030E06C
:10022800E1E0F0E0EC0FFD1FE80FF11D20819213D3
:1002380003C0B82E8D2D31E08F5F8D1588F33130D6
:1002480049F0E1E0F0E0EC0FFD1FED0DF11D9083AA
:10025800BD2CD39488A1873409F442C030F4823489
:1002680059F0833409F4E9C0F9C1823509F4CAC0E8
:10027800893509F471C0F2C182E4A816D1F083E48B
:10028800A8122EC0E1E0F0E0EC0FFD1FEB0DF11D10
:10029800808188A382E68F8F0FEF1FEF22E030E086
:1002A800682DA3018091406B9091416B0E9473125D
:1002B80038C082E68F8FE1E0F0E0EC0FFD1FEB0D18
:1002C800F11D808188A30FEF1FEF22E030E0682D39
:1002D800A3018091406B9091416B0E94731221C0E1
:1002E80082E4A816F1F083E4A812B8C1E1E0F0E0D6
:1002F800EC0FFD1FEB0DF11D808188A387E68F8F22
:100308000FEF1FEF22E030E0682DA3018091406BD2
:100318009091416B0E9473120F2EF7E4AF2EF02DCF
:1003280007C2E1E0F0E0EC0FFD1FEB0DF11D80814D
:1003380088A387E68F8F0FEF1FEF22E030E0682D4C
:10034800A3018091406B9091416B0E9473120F2E14
:10035800F7E4AF2EF02DECC183E4A81639F087E45A
:10036800A816A9F182E4A81279C11BC0E1E0F0E067
:10037800EC0FFD1FEB0DF11D808188A389E78F8F9E
:100388000FEF1FEF22E030E0682DA3018091406B52
:100398009091416B0E9473120F2EF9E5AF2EF02D4C
:1003A800C7C1E1E0F0E0EC0FFD1FEB0DF11D80810E
:1003B80088A389E78F8F0FEF1FEF22E030E0682DC9
:1003C800A3018091406B9091416B0E947312E1E010
:1003D800F0E0EC0FFD1FEB0DF11D808188A389E78C
:1003E8008F8F0FEF1FEF22E030E0682DA30180917F
:1003F800406B9091416B0E9473120F2EF9E5AF2E5E
:10040800F02D96C1E1E0F0E0EC0FFD1FEB0DF11DC2
:10041800808188A382E78F8F0FEF1FEF22E030E003
:10042800682DA3018091406B9091416B0E947312DB
:100438000F2EF2E5AF2EF02D7BC189A1873409F488
:1004480076C08935E1F1823409F008C183E4A81641
:1004580021F082E4A81202C117C083E68F8FE1E081
:10046800F0E0EC0FFD1FEB0DF11D808188A30FEF6D
:100478001FEF22E030E0682DA3018091406B90913E
:10048800416B0E947312EAC083E68F8FE1E0F0E0CF
:10049800EC0FFD1FEB0DF11D808188A30FEF1FEFFF
:1004A80022E030E0682DA3018091406B9091416B70
:1004B8000E9473120F2EF3E4AF2EF02DCFC089E502
:1004C800A816D1F083E4A812C9C083E68F8FE1E0B3
:1004D800F0E0EC0FFD1FEB0DF11D808188A30FEFFD
:1004E8001FEF22E030E0682DA3018091406B9091CE
:1004F800416B0E947312B2C083E68F8FE1E0F0E097
:10050800EC0FFD1FEB0DF11D808188A30FEF1FEF8E
:1005180022E030E0682DA3018091406B9091416BFF
:100528000E9473120F2EF3E4AF2EF02D97C087E4CC
:10053800A81294C00F2EF3E4AF2EF02D8FC080E0E8
:1005480030E0E5E1F0E0EC0FFD1FE80FF11D208140
:10055800921303C0B82E8C2D31E08F5F8C1588F371
:10056800313049F0E5E1F0E0EC0FFD1FEC0DF11D35
:100578009083BC2CC39488A18F3491F120F48334E8
:1005880009F452C06BC0823509F4CEC0893509F030
:1005980065C089E78F8FE5E1F0E0EC0FFD1FEB0DFB
:1005A800F11D808188A30FEF1FEF22E030E0682D56
:1005B800A3018091406B9091416B0E947312C951C5
:1005C800DF4F8881C75ED040813009F453C00F2EB9
:1005D800F9E5AF2EF02D0F2EF9E55F2EF02DF2CDB7
:1005E8008FE68F8FE5E1F0E0EC0FFD1FEB0DF11DBD
:1005F800808188A30FEF1FEF22E030E0682DA30170
:100608008091406B9091416B0E947312C951DF4FEA
:100618008881C75ED040813009F460C00F2EF3E4B2
:10062800AF2EF02D542CCECD83E68F8FE5E1F0E090
:10063800EC0FFD1FEB0DF11D808188A30FEF1FEF5D
:1006480022E030E0682DA3018091406B9091416BCE
:100658000E9473120F2EF3E4AF2EF02DC951DF4F15
:100668008881C75ED040813009F0ACCD8FE4581640
:10067800C9F108C00F2EF9E55F2EF02D0F2EF9E510
:10068800AF2EF02D2F8E48A200E02FEF3FEF682D00
:10069800A3018091506B9091516B0E94B8114F8EBD
:1006A80038A22FEF3FEF682DA3018091506B9091F6
:1006B800516B0E94B8115F8E38A22FEF3FEF682D63
:1006C800A3018091506B9091516B0E94B81181E009
:1006D800C951DF4F8883C75ED04074CD0F2EF3E435
:1006E800AF2EF02D2F8E48A200E02FEF3FEF682DA0
:1006F800A3018091506B9091516B0E94B8114F8E5D
:1007080083E588A32FEF3FEF682DA3018091506BFD
:100718009091516B0E94B811542C81E0C951DF4F60
:100728008883C75ED0404ECD0F2EF2E5AF2EF02D58
:040738005A2CA8CFC0
:10073C00CF93DF93CDB7DEB7C95CD109CDBFDEBF98
:10074C000FEF1FEF20E040E061E070E08091466B1E
:10075C009091476B0E943316B12CCE0101963C014F
:10076C0020E8822E582E972CA22E6E0185E0C80E02
:10077C00D11C2FEF3FEF41E050E0BE0167537F4F9C
:10078C008091446B9091456B0E94A615C753DF4F27
:10079C008881C95CD0408E3709F0C8C12FEF3FEF7C
:1007AC0041E050E0BE0167537F4F8091446B9091C4
:1007BC00456B0E94A615C753DF4FB880C95CD0406B
:1007CC00BB2009F4B3C18E010F5F1F4FEE24EA94D6
:1007DC00EB0CF12C9FEFE91AF90AE00EF11E2FEF4A
:1007EC003FEF41E050E0BE0167537F4F8091446B77
:1007FC009091456B0E94A615C753DF4F8881C95C49
:10080C00D040F80181938F01EE15FF0541F78EC1A1
:10081C009A8180915E6B9813ACCF00E020E030E0C1
:10082C0040E050E060E080914A6B90914B6B0E94ED
:10083C00B8119FCF8B8190915D6B891721F08150FE
:10084C008E3F08F496CF80915B6B811150C01EC116
:10085C00A90192918E91981341C0EC15FD05C1F739
:10086C0083C1E49EF001E59EF00D1124E050F04AA6
:10087C009C818285981334C069834B2D50E04C5079
:10088C00510914161506BCF480E090E020E0EDE070
:10089C00F0E0EC0FFD1FE80FF91F3081E2E0F0E013
:1008AC00EC0FFD1FE80FF91F30832F5F822F90E0B4
:1008BC008417950764F3F4EFBF0E2B2D30E00FEF88
:1008CC001FEF452D592D6A2D80913E6B90913F6BFA
:1008DC000E94731260915B6B81E003C08F2D01C08D
:1008EC008F2D6F5F90915B6B691750F081C060E04A
:1008FC000F2EFBE0EF2EF02D0F2EF9E4FF2EF02D36
:10090C00FE013D96E69ED0011124A85FBF49262F1B
:10091C0030E09ECF8B8190915D6B891721F08150D7
:10092C008E3F08F426CF80915B6B882309F466C058
:10093C0090E00F2EFBE0FF2EF02D0F2EFFE4EF2E9C
:10094C00F02D292F30E0F29EF001F39EF00D1124D2
:10095C00E050F04A4A8180854813FFC0F29EF001B6
:10096C00F39EF00D1124E050F04A2C81828528135F
:10097C0036C0F99EF0011124E85FFF4928E082910E
:10098C0081112FC02150D9F7FDC080E090E020E00C
:10099C00EDE0F0E0EC0FFD1FE80FF91F3081E2E015
:1009AC00F0E0EC0FFD1FE80FF91F30832F5F822F53
:1009BC0090E08417950764F324EFB20E2B2D30E0F2
:1009CC000FEF1FEF452D592D6A2D80913E6B9091A5
:1009DC003F6B0E94731290915B6B81E003C081E0CE
:1009EC0001C08E2D9F5F20915B6B921708F4A9CFED
:1009FC00893409F44BC08F3409F0BBCE80915B6B0A
:100A0C009BE0899FF0011124E050F04A9B81918773
:100A1C009C8192879A819087108211821282138214
:100A2C00148215821682178291E0980F90935B6B5B
:100A3C0089834B2D50E04C50510914161506BCF40B
:100A4C0080E090E020E0EDE0F0E0EC0FFD1FE80F1F
:100A5C00F91F3081E2E0F0E0EC0FFD1FE80FF91F09
:100A6C0030832F5F822F90E08417950764F3E4EFB7
:100A7C00BE0E2B2D30E00FEF1FEF682DA3018091E0
:100A8C003E6B90913F6B0E9473126FCE80915B6BAB
:100A9C002BE0829FF0011124E050F04A9B8191875A
:100AAC009C8192879A8190879D8190839E8191836E
:100ABC009F81928398859383998594839A85958356
:100ACC009B8596839C85978391E0980F90935B6BA5
:100ADC0089834B2D50E04C50510914161506BCF46B
:100AEC0080E090E020E0EDE0F0E0EC0FFD1FE80F7F
:100AFC00F91F3081E2E0F0E0EC0FFD1FE80FF91F69
:100B0C0030832F5F822F90E08417950764F384EF76
:100B1C00B80E2B2D30E00FEF1FEF682DA301809145
:100B2C003E6B90913F6B0E9473121FCE00E020E051
:100B3C0030E040E050E060E080914C6B90914D6B68
:100B4C000E94B81189818F3409F4E4CE803509F400
:100B5C005FCE893409F00DCE6DCE9F5F80915B6BBB
:100B6C00981708F4EECE4ACFE29EF001E39EF00D0A
:100B7C001124E050F04A9A818085981709F471CEBF
:100B8C008F2DAFCE99834B2D50E04C50510914163C
:080B9C0015060CF4FACE10CF8F
:100BA400CF93DF9300D000D0CDB7DEB78CE0809335
:100BB400410483E080936104712CD12C10E01C82E9
:100BC4001B8200E06894882486F8992492F868943B
:100BD400442442F80F2EFFE42F2EF02D0F2EF3E5C0
:100BE4003F2EF02D0F2EF6E4EF2EF02D0F2EF2E413
:100BF400FF2EF02D0F2EF0E6AF2EF4E0BF2EF02DD9
:100C04006894552451F8CC24C3946894662463F8FA
:100C140008C0712C05C01F2D03C01F2D01C01E2D3F
:100C2400DC2C49E150E0BE016F5F7F4F8091506B37
:100C34009091516B0E94D0138130D9F4898182350F
:100C440099F028F4823469F0873431F012C0893580
:100C540029F08F3F59F00DC00A810BC08A818B8324
:100C640008C09A819C8305C01A8103C00A810C8341
:100C74000B8380915F6B8130A1F47394E5E07E1661
:100C840009F42DC110925F6B0634D1F118F40234CB
:100C9400A1F05CC00F3409F44FC0033509F442C01D
:100CA40055C0063431F118F4023449F051C00F3400
:100CB40009F444C00335C1F14BC080E001C08D2D5F
:100CC400D1104BC0711049C001C080E0F4016782AB
:100CD400FC81F63409F469C020F4F23409F452C0FA
:100CE4008CC09C819F3409F47FC0933509F473C090
:100CF40084C0DD2009F404C18D2D2FC0712CD12CAA
:100D0400F4016782FC81F63409F453C018F4F23418
:100D140091F176C08C818F3409F469C0833509F46C
:100D24005DC06EC080E005C08D2D03C0712CD12C38
:100D340080E0F401658211C080E005C08D2D03C000
:100D4400712CD12C80E0F401668207C080E005C0DC
:100D54008D2D03C0712CD12C80E0FC81F63439F147
:100D640018F4F23449F051C09C819F3409F442C014
:100D74009335B9F14AC080E0D11047C001C08D2D30
:100D8400711040C0F501C782FB81F63409F45FC0DD
:100D940020F4F23409F44BC079C09B819F3409F4E8
:100DA4006EC0933509F464C071C0712CD12C8111CB
:100DB4002CC0F501C782FB81F63409F44CC018F449
:100DC400F23481F166C08B818F3409F45BC08335C2
:100DD40009F451C05EC0712CD12C03C080E001C065
:100DE4008D2DF501C58211C0712CD12C03C080E07A
:100DF40001C08D2DF501C68208C0712CD12C05C00F
:100E040080E003C0D12C01C08D2DFB81F63409F1A3
:100E140018F4F23441F03EC09B819F34A1F1933524
:100E240059F138C080E0D11035C0711033C0F501DC
:100E34005782163409F442C018F41234D1F1E9CEC1
:100E44001F3409F447C0133509F43FC0E2CE712CB6
:100E5400D12C81111FC0F5015782163491F118F479
:100E6400123419F1DDCE1F34B1F1133579F1D8CE36
:100E7400712CD12C01C080E0F50155820BC0712C7E
:100E8400D12C01C080E0F501568204C0712CD12C14
:100E940001C080E0163499F018F4123431F0C0CE59
:100EA4001F34C9F0133591F0BBCED110B4CE7110FC
:100EB400B4CEF4014782712C1F2DB2CE712C811156
:100EC400AECEF40147821E2DABCE712CF4014582C7
:100ED400132DA6CE712CF4014682122DA1CE1092B0
:100EE4005F6B063409F40ACF20F4023409F4EDCE22
:100EF40031CF0F3409F424CF033509F417CF2ACFA7
:100F0400F4016782FC81F63409F453CF20F4F234FF
:100F140009F435CF79CF8C818F3409F46ACF8335C6
:060F240009F45ECF71CF5D
:100F2A00CF93DF93CDB7DEB7CE5ED109CDBFDEBF9B
:100F3A009EE7C952DF4F9883C75DD04082E0C8520E
:100F4A00DF4F8883C85DD04082E5C752DF4F888370
:100F5A00C95DD04080915E6BC652DF4F8883CA5DFF
:100F6A00D040C552DF4F9883CB5DD0409CE0C4523D
:100F7A00DF4F9883CC5DD0409FE4C352DF4F988304
:100F8A00CD5DD040C252DF4F8883CE5DD040809184
:100F9A005D6BC152DF4F8883CF5DD04080915C6B1F
:100FAA00C052DF4F8883C05ED040CF51DF4F1882D6
:100FBA00C15ED040CE51DF4F1882C25ED040CD51C3
:100FCA00DF4F1882C35ED040CC51DF4F1882C45E17
:100FDA00D040CB51DF4F1882C55ED040CA51DF4F97
:100FEA001882C65ED0408FEFC951DF4F8883C75E33
:100FFA00D040C851DF4F8883C85ED0400FEF1FEF43
:10100A0020E040E061E070E08091466B9091476B90
:10101A000E943316B12C6E0129ECC20ED11C0F2E80
:10102A00FEE76F2EF02D0F2EFFE47F2EF02D0F2EF0
:10103A00FBE0AF2EF02DC601A0E8C751DF4F888331
:10104A009983AA83C95ED040CE0185529F4F9C01E5
:10105A0040E8C451DF4F288339834A83CC5ED040AD
:10106A0004971C0130E8432E812C6894992493F844
:10107A0020E030E048EC50E0BE016F5F7F4F809186
:10108A00406B9091416B0E94A61539813F3FA9F4AC
:10109A00882309F480C00FEF1FEF2EE030E0C4511F
:1010AA00DF4F488159816A81CC5ED0408091426B82
:1010BA009091436B0E9473126EC0882309F46BC02F
:1010CA000F2EFBE0BF2EF02DB80ED6016C921196B2
:1010DA00BC92119712967C92129720915E6B13968E
:1010EA002C93139720915D6B14962C93149720914F
:1010FA005C6B15962C9399277C01B1E0EB1AF108E9
:10110A00E1E0F0E0EC0FFD1FEE0DFF1DE081AE9E69
:10111A00F0011124E050F04A8081D60116968C9392
:10112A001697818117968C931797828118968C93BC
:10113A001897838119968C93199784811A968C93A0
:10114A001A9785811B968C931B9786811C968C9384
:10115A001C9787811D968C930FEF1FEF2EE030E0CE
:10116A00C751DF4F488159816A81C95ED040809159
:10117A00426B9091436B0E9473129701C751DF4FE4
:10118A00488159816A81C95ED0408091426B9091B1
:10119A00436B0E947312B1106BCF64EF71E08091C0
:1011AA004A6B90914B6B0E94770E813009F060CFA9
:1011BA006FEF7FEF80914C6B90914D6B0E94770E91
:1011CA000FEF1FEF24E030E0642DA1018091426B04
:1011DA009091436B0E94731284E50E946B25F4017F
:1011EA008581806285836FEF7FEF8091486B909154
:1011FA00496B0E94770E00E020E030E040E050E0CA
:10120A0060E080914C6B90914D6B0E94B81130CF89
:10121A002F923F924F925F926F927F928F92AF92EC
:10122A00BF92CF92DF92EF920F931F93CF93DF93E8
:10123A001C013A01862E59012801C9010E949220F7
:10124A008C01892B09F417C18DE290E00E9492204B
:10125A00EC01892B89F08DE2FE0111928A95E9F75A
:10126A000F8B188FF1E0AF1AB1080A0D1B1D61141C
:10127A007104810429F42FC0C8010E94E525FBC02E
:10128A00F301582D0E94C025698FF301582D0E9441
:10129A00C0256623F9F09E01265E3F4FA82DC301A3
:1012AA000196A11D48E0640E711C811CFC015A2F95
:1012BA000E94C025F90161939F01E82FF92F5A2F47
:1012CA000196A11D0E94C025662321F08615970567
:1012DA00A80561F718A2F3E0FE1520F40F2EF3E03B
:1012EA00EF2EF02DEE8AE9A25E0142E0A40EB11CB7
:1012FA00C5010E94D225CE010C960E94D225C8872C
:10130A00D98784E090E08E1991098C879D87CA8BD2
:10131A00DB8BA201B101C8010E94D824888399837A
:10132A00C114D10419F0F601C083D1830FB6F89421
:10133A000F9280915A6B8F5F80935A6B8091326BB8
:10134A009091336B892BA9F5C093326BD093336B91
:10135A0080915A6B8130E9F58EEB9AE60E9443251B
:10136A0087EC9AE60E94432580ED9AE60E9443257F
:10137A0089ED9AE60E94432587E09BE60E94432571
:10138A008EEF9AE60E94432585EF9AE60E9443254E
:10139A008CEE9AE60E94432587E09BE68093306BA9
:1013AA009093316B8EEF9AE680932E6B90932F6B0E
:1013BA0010C08091586B81110CC0E091326BF09192
:1013CA00336B96898E89891720F0C093326BD0933C
:1013DA00336B8091556B8F5F8093556B8E8990919B
:1013EA00596B981710F48093596B90E0FC01EE0F3B
:1013FA00FF1FEE0FFF1FEE0FFF1F8E0F9F1FFC0137
:10140A00E254F5490180F281E02DEC83FD83848169
:10141A0095818E839F83A481B5811296AD92BC92E9
:10142A001397A482B582EE89F0E0CF01880F991F45
:10143A00880F991F880F991FE80FF91FE254F54981
:10144A00EA87FB8780818F5F80830F900FBE809130
:10145A00586B882361F0E091326BF091336B968977
:10146A008E89981730F40E94801A81E005C081E0C5
:10147A0003C081E001C08FEFDF91CF911F910F91DF
:10148A00EF90DF90CF90BF90AF908F907F906F904A
:0A149A005F904F903F902F9008954F
:1014A4008F929F92AF92BF92CF92DF92EF92FF9270
:1014B4000F93CF93DF93DC01E114F10479F0FC0185
:1014C40084E0689FE00DF11D112483A094A0A5A0E1
:1014D400B6A0F70180829182A282B38270E0FD01FE
:1014E400E60FF71F83A592E093A70230F9F018F4F2
:1014F400013031F049C0033069F10430B9F144C01E
:10150400660F771F660F771FFD01E60FF71F83A095
:1015140094A0A5A0B6A0BA01A901482959296A290D
:101524007B2943A354A365A376A32EC0660F771F1C
:10153400660F771FFD01E60FF71F43A154A165A1B4
:1015440076A14F5F5F4F6F4F7F4F43A354A365A3B3
:1015540076A31AC0660F771F660F771FFD01E60F8B
:10156400F71F23A334A345A356A30EC0823009F466
:10157400B2C0660F771F660F771FFD01E60FF71FD6
:1015840023A334A345A356A3813009F0A6C08091B8
:10159400546B81116DC01A96ED91FC911B971496B2
:1015A400CD91DC91159716968D919C9117978C830C
:1015B4009D831696CD91DC91179714968D919C91ED
:1015C40015978A839B839D012E5F3F4F8181928172
:1015D4008217930731F416968D919C911797818306
:1015E40092831A961D921C921B978081815080834E
:1015F40056968C9156979091596B981710F4809346
:10160400596B90E0FC01EE0FFF1FEE0FFF1FEE0F72
:10161400FF1F8E0F9F1FFC01E254F5490180F281E8
:10162400E02D1496ED93FC9315978481958116967D
:101634008D939C931797C481D5812A833B832483FC
:1016440035835696EC915697F0E0CF01880F991F99
:10165400880F991F880F991FE80FF91FE254F54965
:101664001A96ED93FC931B9780818F5F808320C033
:1016740045EF5AE6FA01C181D2811E96CD93DC93DF
:101684001F978C819D8150968D939C9351972C81AB
:101694003D81CD010C96F901828393838C839D83D4
:1016A40054964D935C935597FA0180818F5F8083A4
:1016B400E091326BF091336B56969C918689891731
:1016C40070F4C114D10419F081E0F601808381E043
:1016D4008093576B05C080E003C081E001C081E0C6
:1016E400DF91CF910F91FF90EF90DF90CF90BF905B
:0816F400AF909F908F900895C4
:1016FC000F931F93CF93DF938091546B811102C191
:10170C00C0912C6BD0912D6B8E010F5F1F4F0093EE
:10171C002C6B10932D6B01151105B9F48091306B66
:10172C009091316B20912E6B30912F6B2093306BFD
:10173C003093316B80932E6B90932F6B8091566B03
:10174C008F5F8093566B0E942D248091286B909113
:10175C00296B0817190710F480E0B8C080E0E091FD
:10176C00306BF091316B9081911107C02FEF3FEFEF
:10177C002093286B3093296BA9C0E091306BF091CA
:10178C00316B0580F681E02D0680F781E02D2281FA
:10179C0033810217130728F42093286B3093296B9D
:1017AC0095C0A285B3852481358146815781E90195
:1017BC004C835D832681378144815581E9014A83BD
:1017CC005B83AF014E5F5F4F11962D913C91129749
:1017DC002417350731F42681378111962D933C93CC
:1017EC001297128613869C9191509C93A489B5896B
:1017FC00109719F12685378560897189E9016C8309
:10180C007D832089318966857785E9016A837B83AD
:10181C0011966D917C9112979F01245F3F4F621737
:10182C00730731F42089318911962D933C931297CB
:10183C00148A158A9C9191509C9326899091596B8E
:10184C00921710F42093596B30E0D901AA0FBB1FEB
:10185C00AA0FBB1FAA0FBB1F2A0F3B1FD901A254F3
:10186C00B54911960D90BC91A02DA483B583149607
:10187C002D913C9115972683378314962D913C918D
:10188C001597E9014A835B8314964D935C931597E6
:10189C00A689B0E09D01220F331F220F331F220FA8
:1018AC00331FA20FB31FA254B549A287B3879C91D3
:1018BC009F5F9C93A091326BB091336B26895696A7
:1018CC009C91921708F04BCF81E049CFE091326B9D
:1018DC00F091336B268930E0F901EE0FFF1FEE0F0C
:1018EC00FF1FEE0FFF1F2E0F3F1FF901E254F549AA
:1018FC009081923008F081E09091576B992361F0C0
:10190C0081E00AC080912A6B90912B6B0196809399
:10191C002A6B90932B6B80E0DF91CF911F910F91ED
:02192C0008951C
:10192E008F929F92AF92BF92EF92FF920F93CF93AF
:10193E00DF93DC010FB6F8940F92E114F10479F005
:10194E00FC0184E0689FE00DF11D112483A094A09A
:10195E00A5A0B6A0F70180829182A282B38270E028
:10196E00FD01E60FF71F83A592E093A70230F9F071
:10197E0018F4013031F049C0033069F10430B9F187
:10198E0044C0660F771F660F771FFD01E60FF71F26
:10199E0083A094A0A5A0B6A0BA01A90148295929EF
:1019AE006A297B2943A354A365A376A32EC0660F91
:1019BE00771F660F771FFD01E60FF71F43A154A196
:1019CE0065A176A14F5F5F4F6F4F7F4F43A354A327
:1019DE0065A376A31AC0660F771F660F771FFD01EA
:1019EE00E60FF71F23A334A345A356A30EC08230E0
:1019FE0009F487C0660F771F660F771FFD01E60F8C
:101A0E00F71F23A334A345A356A3813009F07BC04F
:101A1E001A96ED91FC911B971496CD91DC9115972A
:101A2E0016968D919C9117978C839D831696CD91CA
:101A3E00DC91179714968D919C9115978A839B83B1
:101A4E009D012E5F3F4F818192818217930731F462
:101A5E0016968D919C911797818392831A961D925B
:101A6E001C921B9780818150808356968C9156973D
:101A7E009091596B981710F48093596B90E0FC017C
:101A8E00EE0FFF1FEE0FFF1FEE0FFF1F8E0F9F1F9C
:101A9E00FC01E254F5490180F281E02D1496ED939C
:101AAE00FC9315978481958116968D939C93179729
:101ABE00C481D5812A833B83248335835696EC914A
:101ACE005697F0E0CF01880F991F880F991F880F46
:101ADE00991FE80FF91FE254F5491A96ED93FC93FE
:101AEE001B9780818F5F8083E091326BF091336B17
:101AFE0056969C918689891740F40E94801A81E03F
:101B0E0005C080E003C081E001C081E00F900FBEF0
:101B1E00DF91CF910F91FF90EF90BF90AF909F907C
:041B2E008F900895F7
:101B32001F93CF93DF930FB6F8940F928091546B5B
:101B420081508093546B8091546B8111C6C08091F7
:101B52005A6B81119BC0C4C0DB011596ED91FC91BB
:101B620016970680F781E02DA489B5898685978529
:101B720020893189EC012C833D83808991892685D6
:101B82003785EC012A833B83CF010C9611962D9168
:101B92003C9112972817390731F48089918911965F
:101BA2008D939C931297148A158A8C9181508C93F1
:101BB200A285B3858481958126813781EC012C83AE
:101BC2003D838681978124813581EC012A833B8381
:101BD2009F012E5F3F4F11968D919C911297821714
:101BE200930731F48681978111968D939C93129776
:101BF200128613868C9181508C9386899091596BB1
:101C0200981710F48093596B90E0DC01AA0FBB1F68
:101C1200AA0FBB1FAA0FBB1F8A0F9B1FDC01A25476
:101C2200B54911960D90BC91A02DA483B58314964D
:101C32008D919C9115978683978314968D919C9193
:101C42001597EC012A833B8314962D933C931597A9
:101C5200A689B0E0CD01880F991F880F991F880FC0
:101C6200991FA80FB91FA254B549A287B3878C91B7
:101C72008F5F8C93A091326BB091336B968956969D
:101C82008C91981740F04093576B05C0E0E0F0E06C
:101C920065EF7AE641E0DB018C9181115DCFEF2B9C
:101CA20011F00E942D24C0912A6BD0912B6B2097AA
:101CB20061F011E00E947E0B81111093576B219706
:101CC200C9F710922A6B10922B6B8091576B882365
:101CD20031F00E94801A81E003C080E001C080E000
:0C1CE2000F900FBEDF91CF911F9108956D
:101CEE002F923F924F926F927F928F92CF92DF926E
:101CFE00EF92FF920F931F93CF93DF93CDB7DEB783
:101D0E002597CDBFDEBF8C016C837D83C12CD12C7A
:101D1E003C0180E8882E7801E1E1EE0EF11C0FB651
:101D2E00F8940F92F801828D8823E1F08150828F12
:101D3E0080819181892B29F40E941025F8018483DA
:101D4E009583F8018085882349F0085F1F4FB801FD
:101D5E0080E80E94F51081110E94801A0F900FBE2C
:101D6E0081E089C08C819D81892B21F40F900FBE5B
:101D7E0080E081C0D11006C0CE0101960E94772569
:101D8E00DD24D3940F900FBE0E94C7250FB6F89492
:101D9E000F92F801858D8F3F09F4158EF801868D0F
:101DAE008F3F09F4168E0F900FBEBE016C5F7F4FF2
:101DBE00CE0101960E94402181112AC0882DB301C7
:101DCE000E9422258823F1F0F80180819181892BD0
:101DDE0051F40FB6F8940F92848195810E941215DA
:101DEE00C82E0F900FBE6C817D81C7010E94FE240C
:101DFE00C8010E94891B0E94990D811190CF0E94EB
:101E0E00801A8DCFC8010E94891B0E94990D87CF21
:101E1E00C8010E94891B0E94990D882DB3010E9452
:101E2E002225882309F47BCFCC2021F10FB6F8941C
:101E3E000F92A82DC3014196A11DFC015A2F0E949D
:101E4E00C025662369F0A82DC3014696A11DFC018D
:101E5E005A2F0E94A025FB01808164E0681B01C0FF
:101E6E0060E0F801848195810E94B1170F900FBE3A
:101E7E0080E001C080E02596CDBFDEBFDF91CF911F
:101E8E001F910F91FF90EF90DF90CF908F907F90EA
:0A1E9E006F904F903F902F90089531
:101EA800CF93DF93CDB7DEB72697CDBFDEBFCE0188
:101EB80001965C01082F1B2DE0913C6BF0913D6B66
:101EC8008081882309F4B3C00580F681E02DE08085
:101ED800F1800E94C725C5010E94941F6C01898169
:101EE80081111BC0CE14DF0438F00E94990DB60191
:101EF800C7010E94DF228EC040E0B7016C197D093E
:101F08008091386B9091396B0E9410240E94990D32
:101F1800811180C00E94801A7DC00E94990D7AC0EC
:101F2800898188230CF476C0EC80FD80D7011B964C
:101F38008D919C911C97892B21F0C70103960E94D3
:101F48008723CE0106960E94941F6C01E9818E2F8B
:101F5800EE0F990BAA0BBB0BFC013197E930F10589
:101F680008F058C0EE5AFF4F0C949725F701838963
:101F78008160838B2A813B8165857685620F731F1B
:101F8800A601C7010E94B022882309F443C0D701E3
:101F980053968C91539782FF0DC06A817B811D9661
:101FA8008D919C911E97680F791FA601C7010E9409
:101FB800AE2303C08E7FF701838BD7015196ED9135
:101FC800FC915297C701099525C0F70183898E7F37
:101FD800838B20C0D70153968C9153978160539679
:101FE8008C9353976A817B811D966D937C931E9782
:101FF8006C0D7D1D9601A601C7010E94B0220AC082
:10200800F701838981FD04C0C7010E94E52502C04C
:102018008E7F838B40E050E0602F712F8091386B6A
:102028009091396B0E94D01381117ACF45CF0E94CD
:10203800C725C5010E94941F6C01898181116DCF4C
:10204800E0913A6BF0913B6B808141E0811140E077
:06205800E12CF12C52CF37
:10205E006F927F928F92EF92FF920F931F93CF9377
:10206E00DF93CDB7DEB72997CDBFDEBF8EE789836D
:10207E0082E08A8382E58B8380915E6B8C836FEF27
:10208E007FEF80914C6B90914D6B0E94770E89E59E
:10209E008D8386E48E833E0185E0680E711CE0E838
:1020AE008E2E00E02FEF3FEF682DA3018091506B35
:1020BE009091516B0E94B8112FEF3FEF41E050E02D
:1020CE00BE01695F7F4F8091446B9091456B0E947A
:1020DE00A6158F818E3741F52FEF3FEF41E050E08F
:1020EE00BE01695F7F4F8091446B9091456B0E945A
:1020FE00A6151F811123C1F07E01F8E0EF0EF11C31
:10210E0011502FEF3FEF41E050E0BE01695F7F4F6E
:10211E008091446B9091456B0E94A6158F81F701BB
:10212E0081937F011111ECCF8885803529F6998531
:10213E0080915E6B9813C0CFAE014F5F5F4F60E82A
:10214E000FEF1FEF24E030E08091426B9091436BD4
:10215E000E94731284E50E946B25E0E0F8E0858111
:10216E00806485838581806285836FEF7FEF8091A8
:10217E00486B9091496B0E94770E8FE48E8300E03E
:10218E002FEF3FEF682DA3018091506B9091516B13
:10219E000E94B81120E030E040E050E060E0809115
:1021AE004C6B90914D6B0E94B81161E070E0809184
:1021BE00466B9091476B0E943C1780E090E00E9426
:1021CE00331B2996CDBFDEBFDF91CF911F910F91AB
:0C21DE00FF90EF908F907F906F9008951D
:1021EA00CF93DF93A82FCB010596A11DFC015A2F8F
:1021FA000E94A025DB011696ED91FC911797A48900
:10220A00B589C685D785808991898C839D83C08944
:10221A00D189868597858A839B839F01245F3F4F57
:10222A0011968D919C9112978217930731F48089A8
:10223A00918911968D939C931297148A158A8C9181
:10224A0081508C938091546B811160C0A285B385B3
:10225A00C481D581868197818C839D83C681D781EC
:10226A00848195818A839B839F012E5F3F4F1196BC
:10227A008D919C9112978217930731F486819781E9
:10228A0011968D939C931297128613868C91815086
:10229A008C9386899091596B981710F48093596B97
:1022AA0090E0DC01AA0FBB1FAA0FBB1FAA0FBB1F1E
:1022BA008A0F9B1FDC01A254B54911960D90BC915F
:1022CA00A02DA483B58314968D919C91159786832E
:1022DA0097831496CD91DC9115972A833B831496A4
:1022EA002D933C931597A689B0E0CD01880F991FCD
:1022FA00880F991F880F991FA80FB91FA254B549B3
:10230A00A287B3878C918F5F8C931CC045EF5AE6E6
:10231A00DA011196CD91DC911297C687D7878C8105
:10232A009D81808B918B8C819D81DC0112962D93EE
:10233A003C9313972C833D83448B558BDA018C9104
:10234A008F5F8C93A091326BB091336B96895696BE
:10235A008C91891720F481E08093576B01C080E04B
:06236A00DF91CF91089500
:102370002F923F924F926F927F928F92CF92DF92E5
:10238000EF92FF920F931F93CF93DF93CDB7DEB7FA
:102390002897CDBFDEBF7C014E835F8368872C8387
:1023A0003D8310E03C0180E8882E1301482CEAE1CF
:1023B0002E0E311C411CFBE16F0E711C811C67014C
:1023C00088E0C80ED11C0FB6F8940F92F701928DD9
:1023D000838D981710F00230F1F4202F4E815F8129
:1023E0006885C7010E94211AF7019189992361F03C
:1023F000F1E1EF0EF11CB70180E80E94F51088238F
:1024000031F00E94801A03C081110E94801A0F903F
:102410000FBE81E056C08C819D81892B21F40F90E5
:102420000FBE80E04EC0111105C0CE0101960E9482
:10243000772511E00F900FBE0E94C7250FB6F894C4
:102440000F92F701858D8F3F09F4158EF701868D68
:102450008F3F09F4168E0F900FBEBE016C5F7F4F49
:10246000CE0101960E944021811125C00FB6F8943B
:102470000F92F101542D0E94C025862F0F900FBEA0
:10248000F301582D0E94C02586130FC06C817D81F9
:10249000C6010E94FE24C7010E94891B0E94990D5B
:1024A000811191CF0E94801A8ECFC7010E94891B93
:1024B0000E94990D88CFC7010E94891B0E94990D27
:1024C00080E02896CDBFDEBFDF91CF911F910F91A5
:1024D000FF90EF90DF90CF908F907F906F904F9014
:0624E0003F902F900895CB
:1024E6004F925F926F927F928F929F92AF92BF921E
:1024F600CF92DF92EF92FF920F931F93CF93DF93CA
:10250600CDB7DEB72897CDBFDEBF5C014E835F83B4
:10251600688729010C831D83FC01848195810197BD
:10252600268520FF0AC03201F2E06F0E711C861567
:10253600970540F41C821D8243C03201841595051F
:1025460008F43C018C819D81892B09F439C0CE01A8
:1025560001960E9433250FB6F8940F92C5010E948A
:1025660016204C018615970530F560E080E090E076
:102576000E9464240E94CD25F501828793870F90DF
:102586000FBECC80DD80E12CF12C00E010E098013C
:1025960040E050E0BA0180E00E947114F501128615
:1025A6001386BE016C5F7F4FCE0101960E944021CB
:1025B600882389F202C00F900FBE8114910421F482
:1025C600C5010E9416204C017301840192014E81BF
:1025D6005F816885C5010E942F1C6C01892B09F15A
:1025E600B50180E80E940A23F5012681378182170A
:1025F6009307B8F00E94C725F50180859185892B40
:1026060071F080859185E12CF12C00E020E030E02E
:10261600A90160E00E94970CF501108611860E94C0
:10262600990DC6012896CDBFDEBFDF91CF911F91D0
:102636000F91FF90EF90DF90CF90BF90AF909F905B
:0C2646008F907F906F905F904F900895F0
:10265200CF93DF93DC0170686D937C93119716968C
:10266200ED91FC91179718964D915C9119971296DE
:102672008D919C91139714962D913C911597EC0195
:102682002C833D8314968D919C91159712962D91D2
:102692003C911397EC012A833B83EA0189819A8159
:1026A200A817B90731F414968D919C9115978983D7
:1026B2009A8318961D921C921997DA018C91815077
:1026C2008C93A285B385C481D581868197818C83C1
:1026D2009D83C681D781848195818A839B839F0153
:1026E2002E5F3F4F11968D919C91129782179307FF
:1026F20031F48681978111968D939C93129712865D
:1027020013868C9181508C9386899091596B98177E
:1027120010F48093596B90E0DC01AA0FBB1FAA0F43
:10272200BB1FAA0FBB1F8A0F9B1FDC01A254B54916
:1027320011960D90BC91A02DA483B58314968D9112
:102742009C911597868397831496CD91DC9115976A
:102752002A833B8314962D933C931597A689B0E068
:10276200CD01880F991F880F991F880F991FA80FF5
:10277200B91FA254B549A287B3878C918F5F8C93FE
:10278200A091326BB091336B968956968C918917D2
:0E27920018F481E08093576BDF91CF9108958A
:1027A0006F927F928F92AF92BF92CF92DF92EF9211
:1027B000FF920F931F93CF93DF93CDB7DEB725978B
:1027C000CDBFDEBF8C015B014C835D83E12C3C01FE
:1027D00080E8882E6801E1E1CE0ED11C0FB6F89496
:1027E0000F92F801F28CFF20B9F0B501C8010E94E8
:1027F0004924FA94F801F28E8085882349F0085F15
:102800001F4FB80180E80E94F51081110E94801AC4
:102810000F900FBE81E054C08C819D81892B21F4E3
:102820000F900FBE80E04CC0E11006C0CE010196B3
:102830000E947725EE24E3940F900FBE0E94C725D7
:102840000FB6F8940F92F801858D8F3F09F4158E1D
:10285000F801868D8F3F09F4168E0F900FBEBE01D2
:102860006C5F7F4FCE0101960E94402181111BC0F9
:10287000882DB3010E942225882379F06C817D8107
:10288000C6010E94FE24C8010E94891B0E94990D66
:102890008111A4CF0E94801AA1CFC8010E94891B78
:1028A0000E94990D9BCFC8010E94891B0E94990D1F
:1028B000882DB3010E942225882309F48FCF80E060
:1028C0002596CDBFDEBFDF91CF911F910F91FF9075
:1028D000EF90DF90CF90BF90AF908F907F906F90F0
:0228E000089559
:1028E2008F929F92AF92BF92CF92DF92EF92FF921E
:1028F2000F931F93CF93DF93480159010FB6F894BA
:102902000F92E091326BF091336BC82FD0E0EC0F55
:10291200FD1F83A5823061F1E091326BF091336B40
:10292200CE01880F991F880F991FE80FF91F83A105
:1029320094A1A5A1B6A140955095609570954823A4
:1029420059236A237B2343A354A365A376A3E0916F
:10295200326BF091336BEC0FFD1F81E083A7C11442
:10296200D10431F061E0C6010E94BB160E94801AB8
:102972000F900FBE0FB6F8940F92E114F104A1F07C
:10298200E091326BF091336BCE01880F991F880F63
:10299200991FE80FF91F83A194A1A5A1B6A1F70180
:1029A20080839183A283B383E091326BF091336B86
:1029B200EC0FFD1F83A58230E9F4E091326BF091B8
:1029C200336BCE01880F991F880F991FE80FF91FEB
:1029D20083A194A1A5A1B6A180949094A094B0944F
:1029E20088229922AA22BB2283A294A2A5A2B6A2DD
:1029F20081E001C080E02091326B3091336BC20FD5
:102A0200D31F1BA60F900FBEDF91CF911F910F9185
:102A1200FF90EF90DF90CF90BF90AF909F908F90FC
:022A2200089515
:102A24000F931F93CF93DF93FC01892B09F486C086
:102A34002689A091326BB091336B56968C912817EE
:102A440008F070C084859585992364F0A091326B59
:102A5400B091336B56963C9184E090E0831B9109CE
:102A64008487958730E0C901880F991F880F991FC3
:102A7400880F991F280F391F225435498285938561
:102A84008217930709F045C0EF018F010E5F1F4FB6
:102A9400C8010E948723E091326BF091336B8689E1
:102AA4008E8B9091596B981710F48093596B90E02A
:102AB400FC01EE0FFF1FEE0FFF1FEE0FFF1F8E0F27
:102AC4009F1FFC01E254F5490180F281E02DEC8363
:102AD400FD83848195818E839F83A481B581129621
:102AE4000D931C931397048315838E8990E0FC0146
:102AF400EE0FFF1FEE0FFF1FEE0FFF1FE80FF91F72
:102B0400E254F549EA87FB8780818F5F808381E007
:102B140016C0A091326BB091336B56968C91868B14
:102B240081E00DC0A091326BB091336B81E021A1A3
:102B340056969C91291718F080E001C080E0DF913F
:082B4400CF911F910F9108953C
:102B4C002F923F924F925F926F928F929F92AF9281
:102B5C00BF92CF92DF92EF92FF920F931F93CF937E
:102B6C00DF93EC011B014A0169018E8580FD03C0D6
:102B7C00A12CB12C04C06894AA24A1F8B12CC114C6
:102B8C00D10479F10FB6F8940F922E0180E8682EDB
:102B9C00862DB2010E940A238C01A816B90648F0B2
:102BAC0060E080E090E00E9464240E94CD2588873C
:102BBC0099870F900FBEA016B106D8F0E12CF12C1E
:102BCC0000E010E0980140E050E0BA0180E00E9483
:102BDC00711418861986862DB2010E940A238C0165
:102BEC0005C0BE0180E80E940A238C01A016B10624
:102BFC00F8F49801A401B101CE010E94AF1D5C0153
:102C0C00892BC1F00E94C7258A859B85892B69F089
:102C1C008A859B85E12CF12C00E020E030E0A901B5
:102C2C0060E00E94970C1A861B860E94990D02C0C8
:102C3C00A12CB12CC501DF91CF911F910F91FF9069
:102C4C00EF90DF90CF90BF90AF909F908F906F9050
:0A2C5C005F904F903F902F90089575
:102C6600AF92BF92CF92DF92EF92FF920F931F9394
:102C7600CF93DF937C016B01A42EB22E0E94C72551
:102C8600F701C081D181B11008C081E09E012C21DD
:102C96003D21232B51F480E008C081E09E012C21C8
:102CA6003D212C153D0509F080E0882361F0AA201E
:102CB60009F450C0B601609570956C237D23F70129
:102CC6006083718347C00115110509F443C0AA202A
:102CD60019F060E071E002C060E070E0B11074606D
:102CE6006C297D29A801C70102960E94831E0E94B5
:102CF600990D811102C00E94801A0E94972491FDAD
:102D060026C00FB6F8940F92F70180819181B11019
:102D160008C021E0A60148235923452B51F420E0A1
:102D260008C021E0A601482359234C155D0509F08A
:102D360020E0222351F0AA2041F0B601609570955B
:102D460068237923F701608371830F900FBEEC012E
:102D5600DD2702C00E94990DCE01DF91CF911F9110
:102D66000F91FF90EF90DF90CF90BF90AF900895B6
:102D7600FF920F931F93CF93DF93EC01F62E0091F2
:102D86002C6B10912D6B8091326B9091336B029668
:102D96000E948723CF3F8FEFD807B1F5FF20A1F11F
:102DA600ECEEFAE6A181B281C091326BD091336B21
:102DB600AC83BD83C091326BD091336B14968D91E9
:102DC6009C9115978E839F831496CD91DC911597D0
:102DD6008091326B9091336B02968A839B838091AC
:102DE600326B9091336B029614968D939C93159744
:102DF600A091326BB091336B1A96ED93FC931B97AF
:102E060080818F5F80832FC0C00FD11FE091326B0E
:102E1600F091336BC283D383C017D10768F46091F6
:102E2600326B7091336B80912E6B90912F6B6E5F2E
:102E36007F4F0E944F2217C06091326B7091336BA7
:102E46008091306B9091316B6E5F7F4F0E944F2265
:102E56008091286B9091296BC817D90720F4C093ED
:102E6600286BD093296BDF91CF911F910F91FF9023
:022E76000895BD
:102E78006F927F928F92BF92CF92DF92EF92FF92E2
:102E88000F931F93CF93DF93EC018B013C0182E0FA
:102E9800680E711C80E8882EE82C630183E0C80E58
:102EA800D11CE11C0E94C72585E0680E711C811C9D
:102EB800F301582D0E94A025FB0188819981082BD8
:102EC800192B0883198300E010E028C0B280F38032
:102ED800808191819C01332792FD09C068817981A5
:102EE8006223732341E0672B59F440E009C06881ED
:102EF80079816223732341E06217730709F040E088
:102F0800442351F090FF02C0022B132B6881798172
:102F18007260CF010E942913EB2DFF2DCF01A0E88D
:102F2800C816D906EA0691F6009510958881998108
:102F380008231923088319830E94990D8881998190
:102F4800DF91CF911F910F91FF90EF90DF90CF907D
:0A2F5800BF908F907F906F90089556
:102F62000F931F93CF93DF93FC01892B09F466C063
:102F720091A1961708F4962F8689891709F45EC0E5
:102F820022A1213009F05AC0968B2485358533233E
:102F920034F024E030E0291B31092487358790E0A2
:102FA2009C01220F331F220F331F220F331F820F68
:102FB200931F825495492285338528173907F1F5E5
:102FC200EF018F010E5F1F4FC8010E9487238E8978
:102FD2009091596B981710F48093596B90E0FC0113
:102FE200EE0FFF1FEE0FFF1FEE0FFF1F8E0F9F1F33
:102FF200FC01E254F5490180F281E02DEC83FD836E
:10300200848195818E839F83A481B58112960D93CD
:103012001C931397048315838E8990E0FC01EE0FB5
:10302200FF1FEE0FFF1FEE0FFF1FE80FF91FE25405
:10303200F549EA87FB8780818F5F8083DF91CF919B
:063042001F910F9108959B
:10304800CF92DF92EF920F931F9381E00E94F323B8
:1030580080934C6B90934D6B00E010E020E030E0E3
:1030680040E061E070E082E390E00E94B02180934C
:10307800446B9093456B20E030E040E061E070E005
:1030880080E991E00E94B0218093426B9093436B5A
:1030980020E030E041E060E070E088EC90E00E94E1
:1030A800B0218093406B9093416B43E060E081E0F6
:1030B8000E94521F80934A6B90934B6B43E060E0F1
:1030C80081E00E94521F8093486B9093496B0E9445
:1030D800EB248093466B9093476BC12CD12C0F2E19
:1030E800F3E0EF2EF02D24EF31E040E251E060E014
:1030F80085E997E00E940D096894EE24E2F820E93A
:1031080031E048E251E060E08EE993E00E940D0969
:103118000E94AE241F910F91EF90DF90CF900895F9
:103128008091546B882321F081E08093576B089538
:103138001092576B2091596B822F90E0FC01EE0F93
:10314800FF1FEE0FFF1FEE0FFF1FE80FF91FE254DE
:10315800F5493081311111C02150822F90E0FC01D6
:10316800EE0FFF1FEE0FFF1FEE0FFF1FE80FF91FF7
:10317800E254F5493081332379F3AC01440F551FEC
:10318800440F551F440F551F480F591FDA01A25409
:10319800B5491196ED91FC9112970280F381E02DCB
:1031A8001196ED93FC9312974F535549E417F50781
:1031B80029F442815381FD0141835283FC01EE0FC2
:1031C800FF1FEE0FFF1FEE0FFF1F8E0F9F1FFC014B
:1031D800E254F5490180F281E02D86819781809340
:0C31E800326B9093336B2093596B089569
:1031F400EF92FF920F931F93CF93DF93FC01362F2F
:10320400892B09F44DC0238D222309F44BC0022FCE
:1032140010E0448DE42EF12C8FEF9FEFB8010E9453
:10322400C4246E157F0508F43FC0EF010FB6F8946F
:103234000F9260817181CB01249F800D911D112417
:1032440084839583128E62837383015011090E9DCA
:10325400C0010F9D900D1E9D900D1124860F971F88
:10326400868397838FEF858F868F31110DC080857C
:10327400882391F02896BE0180E80E94F5108823E7
:1032840059F00E94801A08C0CF0108960E94432575
:10329400CE0141960E9443250F900FBE81E005C0E8
:1032A40080E003C080E001C080E0DF91CF911F91F6
:0832B4000F91FF90EF900895C7
:1032BC000F931F93CF93DF93FC01892B09F451C01B
:1032CC0082A1815082A3268991A1291709F44BC0B0
:1032DC0081114BC0EF018F010E5F1F4FC8010E947F
:1032EC00872389A18E8B24E030E0281B31092C87A1
:1032FC003D879091596B981710F48093596B90E01F
:10330C00FC01EE0FFF1FEE0FFF1FEE0FFF1F8E0FC6
:10331C009F1FFC01E254F5490180F281E02DEC8302
:10332C00FD83848195818E839F83A481B5811296C0
:10333C000D931C93139704831583EE89F0E0CF0152
:10334C00880F991F880F991F880F991FE80FF91F75
:10335C00E254F549EA87FB8780818F5F808381E0A7
:10336C0005C080E003C080E001C080E0DF91CF9118
:06337C001F910F9108955E
:103382000F920FB6F8940F920BB60F921F92112460
:103392002F923F924F925F926F927F928F929F9263
:1033A200AF92BF92CF92DF92EF92FF920F931F9351
:1033B2002F933F934F935F936F937F938F939F933B
:1033C200AF93BF93CF93DF93EF93FF93A091326BB1
:1033D200B091336B0DB60D920EB60D920E947E0B1C
:1033E20081110E949418A091326BB091336BCD91F0
:1033F200CDBFDD91DEBFFF91EF91DF91CF91BF9104
:10340200AF919F918F917F916F915F914F913F917A
:103412002F911F910F91FF90EF90DF90CF90BF906F
:10342200AF909F908F907F906F905F904F903F9062
:103432002F901F900F900BBE0F900FBE0F901895FC
:103442000F931F93CF93DF93EC01022F1A8D2C8DD4
:1034520021110CC088819981892B09F042C08C818D
:103462009D810E945E191C821D8242C0011117C0FB
:1034720030E08A819B810E947E242C8D8A819B81EF
:10348200820F911D8A839B832C813D818217930732
:1034920050F1888199818A839B8380E029C030E042
:1034A2008E819F810E947E248C8D90E091958195E2
:1034B20091092E813F81280F391F2E833F83488136
:1034C20059812417350730F42C813D81820F931FD7
:1034D2008E839F83023049F4112349F0115080E01A
:1034E20007C080E005C080E003C080E001C080E04A
:0E34F2001F5F1A8FDF91CF911F910F910895E8
:103500000F920FB6F8940F920BB60F921F921124E0
:103510002F923F924F925F926F927F928F929F92E3
:10352000AF92BF92CF92DF92EF92FF920F931F93D1
:103530002F933F934F935F936F937F938F939F93BB
:10354000AF93BF93CF93DF93EF93FF93A091326B31
:10355000B091336B0DB60D920EB60D920E94941879
:10356000A091326BB091336BCD91CDBFDD91DEBFB9
:10357000FF91EF91DF91CF91BF91AF919F918F918B
:103580007F916F915F914F913F912F911F910F917B
:10359000FF90EF90DF90CF90BF90AF909F908F9073
:1035A0007F906F905F904F903F902F901F900F9063
:0A35B0000BBE0F900FBE0F900895A0
:1035BA00CF92DF92EF9241155105610509F44AC095
:1035CA002091E56A3091E66A8217930791F420E028
:1035DA0030E005C021E030E002C021E030E0F9012E
:1035EA00EE0FFF1FEE0FFF1FE20FF31FEE51F5491B
:1035FA0015C0C090E26AD090E36AE090E46ACD28F0
:10360A00CE2801F52091EA6A3091EB6A8217930776
:10361A0009F3E2EEFAE602C0E7EEFAE63097D1F0F5
:10362A004083518362838383948314C0C090E76A82
:10363A00D090E86AE090E96ACD28CE2869F3E0E004
:10364A00F0E0ECCF2091EA6A3091EB6A8217930797
:0C365A0021F2ECCFEF90DF90CF900895AC
:103666000F931F93CF93DF93EC010FB6F8940F924D
:10367600892B21F4C091326BD091336B8E010E5F92
:103686001F4FC8010E9487238C899D89892B21F0B1
:10369600CE010C960E948723B8018CEE9AE60E9412
:1036A600D2238BA5813009F41BA68CA5813009F4A1
:1036B6001CA60F900FBE8091586B882339F00FB669
:1036C600F8940F920E942D240F900FBE8091326BBA
:1036D6009091336BC817D907A1F48091586B882352
:1036E60019F00E94801A0DC09091EC6A80915A6B75
:1036F600981305C01092326B1092336B02C00E9471
:0C3706009418DF91CF911F910F9108954E
:10371200CF92DF92EF920F931F93CF938C010FB64C
:10372200F8940F92FC01C68D1C16C4F48189811194
:1037320006C014C0F8018189811107C00FC0680159
:10374200F1E1CF0ED11C80E8E82E8E2DB6010E9449
:10375200F51081110E94D625C15061F78FEFF80153
:10376200868F0F900FBE0FB6F8940F92C58D1C1660
:10377200C4F48085811106C014C0F80180858111CE
:1037820007C00FC06801F8E0CF0ED11C80E8E82E18
:103792008E2DB6010E94F51081110E94D625C150CE
:1037A20061F78FEFF801858F0F900FBECF911F91B8
:0A37B2000F91EF90DF90CF90089583
:1037BC006F927F928F92AF92BF92CF92DF92EF92E5
:1037CC00FF920F931F93CF93DF93EC013A01862E58
:1037DC00590168018E8580FF05C0790182E0E80EF1
:1037EC00F11C01C07901CE010E9416208C019501BB
:1037FC00682DA301CE010E942F1C5C01892BD1F0F6
:10380C00BE0180E80E940A232E813F818217930714
:10381C0088F088859985892B69F088859985E12CB4
:10382C00F12C00E020E030E0A90160E00E94520A97
:10383C0018861986C501DF91CF911F910F91FF90CA
:10384C00EF90DF90CF90BF90AF908F907F906F9064
:02385C000895CD
:10385E006F927F928F92AF92BF92CF92DF92EF9242
:10386E00FF920F931F93CF93DF9300D0CDB7DEB7A8
:10387E005C013A01862E6901FC0122813381968515
:10388E0090FF11C0C982DA820E151F05F0F0AE014D
:10389E004F5F5F4F60E8890122E030E0C5010E9472
:1038AE001B1D9C0104C00C151D0508F46801C114F4
:1038BE00D10469F089019601682DA301C5010E940A
:1038CE001B1DF5018283938302C0C12CD12CC6012E
:1038DE000F900F90DF91CF911F910F91FF90EF906E
:1038EE00DF90CF90BF90AF908F907F906F900895A4
:1038FE00CF92DF92EF92FF920F931F9384E080930B
:10390E00010440E062E083E00E94521F8093506BFE
:10391E009093516B40E062E083E00E94521F8093CF
:10392E004E6B90934F6BC12CD12C6894EE24E1F822
:10393E0000E010E02AEF30E04CE351E060E082ED71
:10394E0095E00E940D090F2EFAEDEF2EF5E2FF2EF7
:10395E00F02D21E042E350E063E471E080E00E944C
:10396E00CC208093526B9093536B0E948D2520E058
:10397E0030E0AC0161E08091526B9091536B0E94EC
:10398E00CF1C1F910F91FF90EF90DF90CF90089575
:10399E00EF92FF920F931F93CF93DF93CDB7DEB7C6
:1039AE002597CDBFDEBFE091386BF091396B309724
:1039BE0081F1780169834A835B838C839D836630B2
:1039CE00FCF40E945125823069F4AE014F5F5F4FC7
:1039DE0060E800E097018091386B9091396B0E94FE
:1039EE00B81118C0AE014F5F5F4F60E800E020E0F5
:1039FE0030E08091386B9091396B0E94B8110AC0FB
:103A0E00AE014F5F5F4F60E800E0CF010E94D61F0E
:103A1E0001C080E02596CDBFDEBFDF91CF911F9113
:083A2E000F91FF90EF90089545
:103A36006F927F928F92CF92DF92EF92FF920F93C7
:103A46001F93CF93DF936C013A01862EE901FC01A7
:103A5600E480F580E01AF10A2E153F0508F4790195
:103A6600F601848595859701682DA301800F911F26
:103A76000E947E24EC16FD0678F49E012E193F095D
:103A8600682DA3014E0D5F1D611DF7FC6A95F601B9
:103A9600848595850E947E24C8018C0F9D1FF601A2
:103AA600248135818217930710F0821B930BDF91D7
:103AB600CF911F910F91FF90EF90DF90CF908F9055
:063AC6007F906F9008954F
:103ACC000F931F93CF93DF93FC018B01A181B281E4
:103ADC008091326B9091336BEC01AE87BF878091F4
:103AEC00326B9091336B14962D913C911597EC01A0
:103AFC00288B398B14968D919C9115972091326B54
:103B0C003091336B245F3F4FEC012A833B83209130
:103B1C00326B3091336B245F3F4F14962D933C9353
:103B2C001597A091326BB091336B5496ED93FC9337
:103B3C00559790819F5F9083442311F00FEF1FEFF7
:103B4C00642FC8010E94BB16DF91CF911F910F917A
:023B5C000895CA
:103B5E00AF92BF92CF92DF92EF92FF920F931F938D
:103B6E00CF93DF9300D0CDB7DEB77C015B016A0146
:103B7E008901FC0120813181968590FF11C042E0C0
:103B8E0050E0BE016F5F7F4FC7010E94F71D9C0181
:103B9E0089819A81C816D90698F0025011096C01D4
:103BAE00C016D10608F486010115110559F0A801B9
:103BBE00B501C7010E94F71DF7018083918302C0F2
:103BCE0000E010E0C8010F900F90DF91CF911F9190
:103BDE000F91FF90EF90DF90CF90BF90AF90089530
:103BEE00AF92BF92CF92DF92EF92FF920F931F93FD
:103BFE00CF93DF937C015B01EA016901FC01048133
:103C0E001581021B130B4017510708F48A01F701A7
:103C1E00448555854C0D5D1D60E89801C5010E94D7
:103C2E007E240C171D0760F49E01201B310BF7013B
:103C3E004485558560E8C501800F911F0E947E2442
:103C4E00C6018C0F9D1FF7012481358182179307C2
:103C5E0010F0821B930BDF91CF911F910F91FF906C
:0C3C6E00EF90DF90CF90BF90AF900895D2
:103C7A00AF92BF92CF92DF92EF92FF920F931F9370
:103C8A00CF93DF93EC015B017A0169018E8580FD98
:103C9A0003C000E010E002C002E010E0BE0180E8CC
:103CAA000E940A2308171907D8F49C01A701B50135
:103CBA00CE010E94AF1D5C01892BA1F08A859B85EC
:103CCA00892B81F08A859B85E12CF12C00E020E08C
:103CDA0030E0A90160E00E94520A1A861B8602C0DF
:103CEA00A12CB12CC501DF91CF911F910F91FF90AB
:0C3CFA00EF90DF90CF90BF90AF90089546
:103D0600CF93DF93FC01A091326BB091336B706857
:103D16001C966D937C931D97A181B281C091326BE5
:103D2600D091336BAE87BF87C091326BD091336B26
:103D360014968D919C911597888B998B1496CD919D
:103D4600DC9115972091326B3091336B245F3F4F96
:103D56002A833B832091326B3091336B245F3F4F34
:103D660014962D933C931597A091326BB091336BBB
:103D76005496ED93FC93559790819F5F908361E0F5
:0C3D8600CA010E94BB16DF91CF91089586
:103D92001F920F920FB60F9211240BB60F922F9310
:103DA2003F934F935F936F937F938F939F93AF93C1
:103DB200BF93EF93FF93CF93DF930F92CDB7DEB70D
:103DC20020E030E041E050E0BE016F5F7F4F809124
:103DD200426B9091436B0E943D1E892B31F4E0E0CF
:103DE200F8E085818F7D858303C0898180930208F5
:103DF2000F90DF91CF91FF91EF91BF91AF919F9182
:103E02008F917F916F915F914F913F912F910F9081
:0C3E12000BBE0F900FBE0F901F90189574
:103E1E001F920F920FB60F9211240BB60F920F93A3
:103E2E001F932F933F934F935F936F937F938F9334
:103E3E009F93AF93BF93EF93FF93CF93DF930F9225
:103E4E00CDB7DEB7809100088983AE014F5F5F4F1B
:103E5E0060E800E010E021E030E08091446B90914A
:103E6E00456B0E94DE1B0F90DF91CF91FF91EF917A
:103E7E00BF91AF919F918F917F916F915F914F9174
:103E8E003F912F911F910F910F900BBE0F900FBE70
:063E9E000F901F90189523
:103EA4000F931F93CF93DF93282F362F882361F12D
:103EB400682F70E08FEF9FEF0E94C424832F90E05F
:103EC4006817790720F1239FC0011124813E4FEF29
:103ED400940700F5D32FC22F4F960E9492208C0195
:103EE4000097D1F0D11104C0FC018083918304C0F8
:103EF4004F96F80180839183F801C38FD48F61E0DA
:103F0400C8010E94FA1808C000E010E005C000E0F3
:103F140010E002C000E010E0C801DF91CF911F91D2
:043F24000F9108955C
:103F28000F931F93CF93DF938C010E948D25EC0193
:103F38008091346B9091356BC817D90738F5E091AB
:103F48003C6BF0913D6B8081882381F00580F68180
:103F5800E02D6FEF7FEF808191810E94DF22E09159
:103F68003C6BF0913D6B80818111F0CF80913A6B71
:103F780090913B6B80933C6B90933D6BE0933A6BD5
:103F8800F0933B6B81E0F801808302C0F801108256
:103F9800C093346BD093356BCE01DF91CF911F91D5
:043FA8000F910895D8
:103FAC00EF92FF920F931F93CF93DF937901FC0154
:103FBC00728D338D731710F0023011F5202FEC0138
:103FCC001E8D8A8DCE010E94211A1F3F89F489898A
:103FDC008823C1F06196BE0180E80E94F510882309
:103FEC0099F0E114F10491F081E0F701808311C0A4
:103FFC000E94DE25181760F41F5F1E8F81E009C038
:10400C0080E007C081E005C081E003C081E001C011
:10401C0081E0DF91CF911F910F91FF90EF90089568
:10402C006F927F928F92CF92DF92EF920F931F93AA
:10403C00CF93DF933C0120E8822E482D9301690138
:10404C00E42E82E0C80ED11CE11CF901542F0E9411
:10405C00A025DB01F6015E2D0E94A0258B01AA177D
:10406C00BB0799F724E0620E711C811CF301582DDB
:10407C000E94A025CB0101978A0F9B1F801B910BDF
:10408C008617970710F0861B970BDF91CF911F9126
:10409C000F91EF90DF90CF908F907F906F9008955D
:1040AC00EF92FF921F93CF93DF93FC01228D338D00
:1040BC00231718F57B01EC01168D2F5F228F1F3F04
:1040CC0091F481898823D9F0CF014196BC0180E815
:1040DC000E94F5108823A9F0E114F104A1F081E00D
:1040EC00F701808313C00E94DE25181770F4FF249B
:1040FC00F394F10EFE8E81E009C080E007C081E0F0
:10410C0005C081E003C081E001C081E0DF91CF9167
:08411C001F91FF90EF90089540
:10412400CF93DF93EC010E94C7258091226B90917D
:10413400236B892B31F480E090E48093226B90937D
:10414400236B2097C9F08091246B9091256B9E017D
:10415400280F391F2F3F4FE1340788F48217930744
:1041640088F4C091226BD091236BC80FD91F209380
:10417400246B3093256B08C0C0E0D0E005C0C0E0DC
:10418400D0E002C0C0E0D0E00E94990DCE01DF91E2
:04419400CF9108952A
:104198006F927F928F92AF92BF92DF92EF92FF92CF
:1041A8000F931F93CF93DF933B01882E5A01D22E92
:1041B80084E190E00E949220EC01892BA9F01B8AEF
:1041C8000E948022688279828A82AD86BE860F87A5
:1041D800188BE98AFA8ACE0103960E94D225DD203F
:1041E80019F08B8984608B8BCE01DF91CF911F9161
:1041F8000F91FF90EF90DF90BF90AF908F907F90DE
:044208006F90089516
:10420C00CF92DF92EF920F931F93C12CD12C689415
:10421C00EE24E2F800E010E02CE231E048E451E05A
:10422C0060E08FE290E10E940D09EE24E39428E512
:10423C0032E04DE451E060E08CEA90E00E940D0920
:10424C000E9424180E947F1C0E94B9250E945F25A1
:10425C000E945E2380935D6B0E945E2380935E6B55
:10426C000E941C2280E090E01F910F91EF90DF9054
:04427C00CF90089542
:10428000CF93DF930FB6F8940F9220912C6B30915F
:104290002D6BDB014D915C914F3FBFEF5B0719F137
:1042A000EC01E981FA81A091566BB881BA1741F00F
:1042B0002E173F0728F0FB011082118281E014C005
:1042C0002E1B3F0B2417350748F4FB01421B530BF1
:1042D000408351830E94772580E006C0DB011D9258
:1042E0001C9281E001C080E00F900FBEDF91CF9162
:0242F00008952F
:1042F200E0E0FBE080EC9DE58487958781E08583A3
:104302008083A091326BB091336BCD91CDBFDD91A3
:10431200DEBFFF91EF91DF91CF91BF91AF919F915E
:104322008F917F916F915F914F913F912F911F914B
:104332000F91FF90EF90DF90CF90BF90AF909F9042
:104342008F907F906F905F904F903F902F901F9033
:0E4352000F900BBE0F900FBE0F9008950895B0
:10436000FF920F931F93CF93DF938B01FF24F3945E
:10437000413009F0F12C0115110511F401E010E0B4
:104380009C01205F3F4F82179307B8F4EC01219600
:10439000C9010E949220FC01892B89F08FE0DF0186
:1043A0001D928A95E9F7CF010F9684879587C4837C
:1043B000D58306831783F68602C0E0E0F0E0CF01E4
:0C43C000DF91CF911F910F91FF900895A5
:1043CC001F920F920FB60F9211240BB60F922F93D0
:1043DC003F934F935F936F937F938F939F93AF9381
:1043EC00BF93EF93FF9360E070E08091486B9091E6
:1043FC00496B0E945620E0E0F8E08481806484835D
:10440C0082E50E946B25FF91EF91BF91AF919F9137
:10441C008F917F916F915F914F913F912F910F9061
:0C442C000BBE0F900FBE0F901F90189554
:10443800CF92DF92EF920F931F930F2EF6E2CF2EBB
:10444800FBE6DF2EF02DE12C00E010E028E730E05D
:1044580041E551E060E081EB95E20E940D09813071
:10446800A1F40E943423813081F4F8948FEF9FEFF8
:104478008093286B9093296B81E08093586B1092FE
:104488002C6B10922D6B0E9479211F910F91EF9048
:06449800DF90CF900895B3
:10449E00CF93DF93EB01488159814F3F2FEF5207A6
:1044AE0021F4FC01A781B0850DC0DC01139601C07B
:1044BE00DF011296ED91FC91139720813181421705
:1044CE005307B0F71296ED91FC911397EA83FB8395
:1044DE00C483D583AC83BD831296CD93DC9313979F
:1044EE0088879987FC0120812F5F2083DF91CF91F0
:0244FE0008951F
:104500000FB6F8940F928091386B9091396B892B8C
:1045100021F589E19BE60E94432580E19BE60E940C
:10452000432589E19BE680933C6B90933D6B80E152
:104530009BE680933A6B90933B6B40E065E08AE0AA
:104540000E94521F8093386B9093396B009729F02B
:104550004FE251E060E00E94DD1A0F900FBE089517
:10456000FC0163837483818792874617570790F015
:10457000421B530B8585968548175907E0F4BF0108
:104580006D5F7F4F80913A6B90913B6B0E944F2201
:1045900080E008954217530718F46217730768F410
:1045A000BF016D5F7F4F80913C6B90913D6B0E948E
:0E45B0004F2280E0089581E0089581E0089593
:1045BE00EF92FF920F931F93CF93DF938C017B01AA
:1045CE00E0913C6BF0913D6B0580F681E02DC6814C
:1045DE00D781CE0103960E9487238B8982FF06C066
:1045EE00A701B801CE010E94AE2302C08E7F8B8B35
:1045FE00E989FA89CE010995DF91CF911F910F912B
:06460E00FF90EF900895FB
:10461400CF92DF92EF929B01482FA82FCB010496F3
:10462400A11DFC015A2F0E94A025DB016901E42E83
:1046340082E0C80ED11CE11CF6015E2D0E94A0256B
:10464400CD01860F971FF901542F0E94A025861BC8
:10465400970B8A179B0710F08A1B9B0BEF90DF9038
:04466400CF90089556
:10466800CF92DF92EF920F931F930E948022809146
:10467800386B9091396B892BB1F00F2EF6E3CF2E62
:10468800FBE6DF2EF02D0F2EF3E0EF2EF02D00E0ED
:1046980010E020EF30E044E351E060E084E59FE083
:1046A8000E940D0901C080E01F910F91EF90DF90EB
:0446B800CF90089502
:1046BC0027E030E080E0E0E0F4E071E060E4908539
:1046CC0092959F709727492F417050E0DA01022E86
:1046DC0002C0AA0FBB1F0A94E2F78A2B6583A7EBD3
:1046EC00BBE01197F1F700C000006683A7EBBBE0BD
:1046FC001197F1F700C000002150310900F78095A7
:02470C0008950E
:10470E00CF93DF93FC01A085B185C281D3818481D3
:10471E0095818C839D83C481D581828193818A8387
:10472E009B8311968D919C911297E817F90731F49E
:10473E008481958111968D939C9312971086118684
:0E474E008C9181508C938C91DF91CF910895C6
:10475C00EF92FF920F931F93CF93DF93EC018B019A
:10476C007A0108C08D859E85080F191FE989FA8981
:10477C00CE0109956D857E85600F711F9801A7018B
:10478C00CE010E94B0228111EDCFDF91CF911F910C
:08479C000F91FF90EF900895CA
:1047A400CF93DF939C01FB01DC011196CD91DC9149
:1047B4001297C283D3838C819D81848395838C815A
:1047C4009D81DC0112966D937C9313976C837D839A
:1047D40020873187F90180818F5F8083DF91CF91BA
:0247E400089536
:1047E6000F93CF93DF93482F60E081E00E94521F22
:1047F600EC01009769F01C821D82188219821E82C4
:1048060000E020E030E040E050E060E00E94B811B7
:0A481600CE01DF91CF910F910895BC
:10482000CF93DF93EC010FB6F8940F928D8D8F3FED
:1048300009F41D8E8E8D8F3F09F41E8E0F900FBED2
:104840008A8D811104C0CE0141960E94661DCE0161
:0A4850000E94891BDF91CF910895AB
:10485A00E091306BF091316B8081811107C08FEF4D
:10486A009FEF8093286B9093296B0895E091306BAA
:10487A00F091316B0580F681E02D808191818093E2
:08488A00286B9093296B08953F
:10489200FC01248D2223B1F030E046815781420F82
:1048A200531F46835783848195814817590720F007
:1048B2008081918186839783CB014681578160E80D
:0648C2000E947E2408950F
:1048C800009721F48091326B9091336B0FB6F89476
:1048D8000F9270E0FC01E60FF71F23A5223031F498
:1048E800FC01E60FF71F13A681E001C080E00F90DE
:0448F8000FBE089552
:1048FC00CF92DF92EF926A01E62EDC01280F391F6E
:10490C00A217B30751F0F6015E2D0E94C0256D93DE
:10491C004FEFC41AD40AE40AF3CFEF90DF90CF9094
:02492C000895EC
:10492E00E091326BF091336B84859585E091326B1B
:10493E00F091336BA091326BB091336B56964C91D4
:0E494E0024E030E0241B3109248735870895CA
:10495C008FB78F778FBFE0E0F8E081E493E080873A
:10496C00918783E2878381E08093010480E88583CB
:0C497C0080EC86838FB78F678FBF089593
:10498800AA1BBB1B51E107C0AA1FBB1FA617B7076D
:1049980010F0A61BB70B881F991F5A95A9F7809589
:0849A8009095BC01CD010895BA
:1049B000FC0160833197708331971082319720E832
:1049C00020833197108231971082779740833197F7
:0649D00050838497089556
:1049D600CF93DF938BE090E00E949220EC0100974A
:1049E60031F0FC0111921192CF010E944325CE01B4
:0649F600DF91CF9108954E
:1049FC00CF93DF93EB016091326B7091336B645FFB
:104A0C007F4F0E944F2261E0CE010E94BB16DF91C6
:044A1C00CF91089599
:104A20008091326B9091336B892B39F0E091326B2E
:104A3000F091336B82A18F5F82A38091326B909152
:044A4000336B089537
:104A44000FB6F8940F92A82FCB014A96A11DFC0132
:104A54005A2F0E94C0250F900FBE81E0611180E0A3
:024A64000895B3
:104A66000FB6F8940F922091566BFC01208320918B
:104A76002C6B30912D6B218332830F900FBE0895DE
:104A8600FC010396818392832FEF3FEF23833483C8
:0C4A9600858396838783908710820895A3
:104AA2008091586B882331F08091546B882321F0D8
:0C4AB20080E0089581E0089582E00895FE
:104ABE00E0E0F4E080E28583A7EBBBE01197F1F72D
:084ACE0000C00000868308957A
:104AD600823531F0843539F484E0809305040895F5
:084AE60084E0809306040895AA
:104AEE002091566BFC01208320912C6B30912D6B05
:064AFE00218332830895BC
:104B0400EC010E94E7250E94E625CE010E94E825DB
:064B1400CE010E94E32522
:104B1A000FB6F8940F9280912C6B90912D6B0F9099
:044B2A000FBE08951D
:104B2E00EE0FFF1F0024001C0BBE0790F691E02D28
:024B3E000994D8
:104B400057FD04C05BBF67917791089561917191A2
:024B50000895C6
:104B52000F9301E00093060B0F910E94C119189563
:104B6200CEEBDAE688818230E8F30E94801AFACF2F
:0E4B7200E0E0F4E080E6818380E18283089534
:0E4B800057FD03C05BBF6791089560810895E3
:0C4B8E008091546B8F5F8093546B0895EE
:0A4B9A008091326B9091336B089507
:084BA400FC0110861186089542
:084BAC0081E08093576B08952E
:084BB40081E080935F6B08951E
:064BBC0080915A6B089580
:044BC2000C9400004F
:044BC6000E948E00BB
:024BCA0008954C
:024BCC0008954A
:024BCE00089548
:024BD000089546
:00000001FF
