:100000000C945E000C94E4220C94E4220C94E42200
:100010000C94E4220C94E4220C94E4220C94E42248
:100020000C94E4220C94E4220C94E4220C94E42238
:100030000C94BB220C94E4220C94E4220C94E42251
:100040000C94E4220C94E4220C94E4220C94421CC0
:100050000C94FC1B0C947F1D0C94E4220C94E42261
:100060000C94E4220C94E4220C94E4220C94E422F8
:100070000C94E4220C94E4220C94E4220C94E422E8
:100080000C94E4220C94E4220C94E4220C94E422D8
:100090000C94E4220C94E4220C94E4220C94E422C8
:1000A0000C94E4220E100E103D10421058100E1049
:1000B0000E103D10421040007C56800011241FBEDF
:1000C000CFEFCDBFDFE7DEBFE6EBF0E040E019C0E9
:1000D000B791A79137912791079107FD0EC097918E
:1000E0008791EF01F92FE82F0BBF07900D92A21710
:1000F000B307D9F7FE011BBE04C01D92A217B307B8
:10010000E1F7EB3BF40721F70E94A10B0C948A2244
:04011000F894FFCF91
:10011400494E49540052534F5554005253494E00CE
:0B012400494E444F55540057424D0017
:0D012F00546D725100546D722053766300C0
:06013C0049444C4500039C
:03014200030303B1
:10014600CF93DF93CDB7DEB7C95ED109CDBFDEBF92
:100156000FEF1FEF20E040E061E070E08091427C0D
:100166009091437C0E94A0156FEF7FEF8091467CB3
:100176009091477C0E94610C6FEF7FEF80914C7CE1
:1001860090914D7C0E94610C82E090E00E94492192
:1001960019821A821B821C821D821E828FEF8F8318
:1001A600888782E0898781E08A8782E38B87AE0130
:1001B6004F5F5F4F60E82BE030E080913E7C90918E
:1001C6003F7C0E94DB0D23E030E042E451E060E03A
:1001D60080913E7C90913F7C0E94DB0D00E014E014
:1001E6006894FF24F2F8F801F582E0E0F8E08AEA84
:1001F60082838581806285836FEF7FEF8091447C67
:100206009091457C0E94610CF801F68200E020E0A6
:1002160030E040E050E060E080914C7C90914D7C75
:100226000E94791080E008C0ECE0F0E0EC0FFD1FC2
:10023600E80FF11D10828F5F8830B0F382E08C8B5F
:1002460081E08D8B82E38E8B6FEF7FEF8091467C12
:100256009091477C0E94610C6FEF7FEF80914C7C00
:1002660090914D7C0E94610C82E090E00E944921B1
:1002760020E030E048EC50E0BE016E5D7F4F80919B
:100286003C7C90913D7C0E943312882309F403C282
:100296006C01DD247601F2E0EF1AF108E2E2F0E00B
:1002A600EC0FFD1FEE0DFF1D808181119BC06FEFCE
:1002B6007FEF80914A7C90914B7C0E94610CC60135
:1002C60001976E0122E2C20ED11CF601E80FF91F5A
:1002D600E0812E2F30E0A901440F551FCA01820F7D
:1002E600931F880F991F880F991FFC01E050F04952
:1002F60080818F8B8181888F8281898F83818A8F8C
:1003060084818B8F85818C8F86818D8F87818E8F5F
:1003160082E08F8F818588A3FA01E20FF31FEE0F2B
:10032600FF1FEE0FFF1FE050F049828589A300E012
:1003360020E030E040E050E060E080914A7C90911F
:100346004B7C0E947910AE01495E5F4F60E80FEF6B
:100356001FEF2BE030E080913E7C90913F7C0E9425
:10036600DB0DA60160E8970180913E7C90913F7C71
:100376000E94DB0D23E030E042E451E060E0809132
:100386003E7C90913F7C0E94DB0D00E014E0689477
:10039600FF24F2F8F801F582E0E0F8E08AEA8283C9
:1003A6008581806285836FEF7FEF8091447C909199
:1003B600457C0E94610CF801F68200E020E030E006
:1003C60040E050E060E080914C7C90914D7C0E9432
:1003D60079106FEF7FEF8091467C9091477C0E9469
:1003E600610C32CF853009F02FCF4EC16FEF7FEF12
:1003F60080914A7C90914B7C0E94610C8D2D90E0FF
:10040600FC01EE0FFF1FE80FF91FEE0FFF1FEE0FA7
:10041600FF1FE050F0492385422F417020FF8AC01C
:100426002091557C30E0215031098217930709F05D
:1004360081C0AC01440F551F9A01280F391F220FA6
:10044600331F220F331FF901E050F04920812F8B13
:100456002181288F2281298F23812A8F24812B8F26
:1004660025812C8F26812D8F27812E8F22E02F8F9D
:10047600218528A3FA01E80FF91FEE0FFF1FEE0FE3
:10048600FF1FE050F049828589A300E020E030E0BC
:1004960040E050E060E080914A7C90914B7C0E9465
:1004A6007910AE01495E5F4F60E80FEF1FEF2BE05A
:1004B60030E080913E7C90913F7C0E94DB0DAE0146
:1004C6004E5D5F4F60E8970180913E7C90913F7C46
:1004D6000E94DB0D23E030E042E451E060E08091D1
:1004E6003E7C90913F7C0E94DB0D00E014E0689416
:1004F600CC24C2F8F801C582E0E0F8E08AEA8283FB
:100506008581806285836FEF7FEF8091447C909137
:10051600457C0E94610CF801C68200E020E030E0D4
:1005260040E050E060E080914C7C90914D7C0E94D0
:100536007910A8C0442309F491C0AC01440F551F9B
:100546009A01280F391F220F331F220F331FF9017B
:10055600E050F04920812F8B2181288F2281298F1D
:1005660023812A8F24812B8F25812C8F26812D8F05
:1005760027812E8F22E02F8F218528A3FA01E80FED
:10058600F91FEE0FFF1FEE0FFF1FE050F0498285A7
:1005960089A300E020E030E040E050E060E0809198
:1005A6004A7C90914B7C0E947910AE01495E5F4F68
:1005B60060E80FEF1FEF2BE030E080913E7C9091DA
:1005C6003F7C0E94DB0DAE014E5D5F4F60E89701F8
:1005D60080913E7C90913F7C0E94DB0D23E030E0D1
:1005E60042E451E060E080913E7C90913F7C0E9425
:1005F600DB0D00E014E06894CC24C2F8F801C58253
:10060600E0E0F8E08AEA82838581806285836FEF85
:100616007FEF8091447C9091457C0E94610CF801AB
:10062600C68200E020E030E040E050E060E08091EB
:100636004C7C90914D7C0E9479106FEF7FEF8091FA
:10064600467C9091477C0E94610C6FEF7FEF809112
:100656004C7C90914D7C0E94610C14C02091557C7D
:1006660030E0215031098217930761F400E020E061
:1006760030E040E050E060E080914C7C90914D7C11
:100686000E947910D39401C0D12C8091557CD81644
:1006960008F4ACCED9CDAE01445F5F4F60E80FEFF2
:1006A6001FEF2BE030E080913E7C90913F7C0E94D2
:1006B600DB0D23E030E042E451E060E080913E7CD7
:1006C60090913F7C0E94DB0D00E014E06894FF24CB
:1006D600F2F8F801F582E0E0F8E08AEA82838581A3
:1006E600806285836FEF7FEF8091447C9091457C9B
:1006F6000E94610CF801F68200E020E030E040E064
:1007060050E060E080914C7C90914D7C0E94791085
:020716009BCD79
:10071800CF93DF93CDB7DEB7CB5CD109CDBFDEBFBA
:1007280080E008C0E1E0F0E0EC0FFD1FE80FF11DEC
:1007380010828F5F883CB0F30FEF1FEF20E040E09E
:1007480061E070E08091427C9091437C0E94A0150A
:100758002FEF3FEF41E050E0BE0167537F4F80919C
:10076800407C9091417C0E943312C753DF4F8881AF
:10077800C95CD0408A3A61F76FEF7FEF80914C7C7B
:1007880090914D7C0E94610C00E010E0D12C7EC05D
:100798002FEF3FEF41E050E0BE0167537F4F80915C
:1007A800407C9091417C0E943312C753DF4F88816F
:1007B800C95CD0408A3A09F462C0833009F056C057
:1007C800E1E0F0E0EC0FFD1FE00FF11F80837801FE
:1007D8004FEFE41AF40A2FEF3FEF41E050E0BE017B
:1007E80067537F4F8091407C9091417C0E943312E7
:1007F800C753DF4F8881C95CD040833059F5E1E0A9
:10080800F0E0EC0FFD1FEE0DFF1D8083780152E034
:10081800E50EF11C2FEF3FEF41E050E0BE016753BA
:100828007F4F8091407C9091417C0E943312C75346
:10083800DF4F8881C95CD040833021F1E1E0F0E0EE
:10084800EC0FFD1FEE0DFF1D808383E0D80E0D5FBA
:100858001F4F1AC0E1E0F0E0EC0FFD1FEE0DFF1D89
:100868008083D394D3940E5F1F4F0EC0E1E0F0E075
:10087800EC0FFD1FE00FF11F8083D39405C008EC37
:1008880010E002C008EC10E00F5F1F4F083C110594
:100898000CF47ECF00E020E030E040E050E060E083
:1008A80080914C7C90914D7C0E9479108B8585308D
:1008B80081F48985823009F04BCF20E030E040E0B8
:1008C80050E060E08091467C9091477C0E947910CE
:1008D8003FCF8A85813009F03BCF6FEF7FEF809162
:1008E8004A7C90914B7C0E94610CE12CF12C30E009
:1008F80081C0F701EE0FFF1FEE0DFF1DEE0FFF1F6A
:10090800EE0FFF1FE050F0499081898198136FC066
:10091800F701EE0FFF1FEE0DFF1DEE0FFF1FEE0F8D
:10092800FF1FE050F04990858985981360C0F70152
:10093800EE0FFF1FEE0DFF1DEE0FFF1FEE0FFF1F47
:10094800E050F049838580FF52C000E020E030E0AD
:1009580040E050E060E080914A7C90914B7C0E949E
:1009680079104BE0D41609F441C0E9821A828BE071
:1009780090E011C0FC013997A1E0B0E0AC0FBD1FB9
:10098800A80FB91F2C9141E050E04C0F5D1FE40FF8
:10099800F51F208301962D2D30E08217930754F31D
:1009A80057EFD50E6FEF7FEF8091487C9091497C8F
:1009B8000E94610C2D2D30E0AE014F5F5F4F60E863
:1009C8000FEF1FEF80913A7C90913B7C0E94DB0DEA
:1009D80000E020E030E040E050E060E08091487CBA
:1009E8009091497C0E94791031E001C031E08FEF8D
:1009F800E81AF80A2091557C822F90E0E816F9064B
:100A08000CF477CF3111A4CE3981FC01EE0FFF1F12
:100A1800DF01A80FB91FAA0FBB1FAA0FBB1FA05049
:100A2800B0493C933A8111963C9311973B811296B9
:100A38003C9312973C8113963C9313973D811496EF
:100A48003C9314973E8115963C9315973F811696D3
:100A58003C931697388517963C93179739851896BF
:100A68003C9318973A8519963C9319973B851A96A3
:100A78003C931A97FD0113862F5F2093557C00E065
:100A880020E030E040E050E060E080914A7C9091C6
:100A98004B7C0E9479106FEF7FEF8091487C90919A
:100AA800497C0E94610CFE01E653FF4F85E080837C
:100AB8008091557C81508183AF0160E80FEF1FEF73
:100AC80022E030E080913A7C90913B7C0E94DB0DE3
:100AD80000E020E030E040E050E060E08091487CB9
:100AE8009091497C0E94791085E090E00E9449210C
:100AF8006FEF7FEF80914A7C90914B7C0E94610C54
:100B08002091557C822F90E00197FC01EE0FFF1F8A
:100B1800E80FF91FEE0FFF1FEE0FFF1FE050F0491F
:100B2800838580FF40C0215029831A828BE090E0A2
:100B380011C0FC013997A1E0B0E0AC0FBD1FA80FB0
:100B4800B91F2C9141E050E04C0F5D1FE40FF51FD9
:100B5800208301962D2D30E08217930754F317EF69
:100B68001D0D6FEF7FEF8091487C9091497C0E942A
:100B7800610C212F30E0AE014F5F5F4F60E80FEF4F
:100B88001FEF80913A7C90913B7C0E94DB0D00E046
:100B980020E030E040E050E060E08091487C9091B7
:100BA800497C0E94791000E020E030E040E050E00D
:100BB80060E080914A7C90914B7C0E947910C8CD6E
:100BC8008F929F92AF92BF92CF92DF92EF92FF9255
:100BD8000F931F93CF93DF93DC01E114F10489F0A5
:100BE800E62FF0E0EE0FFF1FEE0FFF1FE80FF91FD3
:100BF80083A094A0A5A0B6A0F70180829182A282CA
:100C0800B38270E0FD01E60FF71F93A582E083A78A
:100C18000230110519F120F40130110541F04FC0DF
:100C28000330110581F104301105D1F148C0660F78
:100C3800771F660F771FFD01E60FF71F83A094A0AB
:100C4800A5A0B6A0BA01A901482959296A297B2972
:100C580043A354A365A376A381E034C0660F771F2E
:100C6800660F771FFD01E60FF71F43A154A165A189
:100C780076A14F5F5F4F6F4F7F4F43A354A365A388
:100C880076A381E01FC0660F771F660F771FFD01EF
:100C9800E60FF71F23A334A345A356A381E012C090
:100CA800923079F0660F771F660F771FFD01E60F08
:100CB800F71F23A334A345A356A381E003C081E013
:100CC80001C080E0913009F0A4C090914E7C911150
:100CD8006DC01A96ED91FC911B971496CD91DC91FD
:100CE800159716962D913C9117972C833D83169650
:100CF800CD91DC91179714962D913C9115972A83E5
:100D08003B8321813281AD014E5F5F4F2417350748
:100D180031F416962D913C911797218332831A96B8
:100D28001D921C921B9790819150908356962C91FE
:100D380056979091537C921710F42093537C30E08F
:100D4800F901EE0FFF1FEE0FFF1FEE0FFF1F2E0F13
:100D58003F1FF901E854F4480180F281E02D149610
:100D6800ED93FC9315972481358116962D933C932A
:100D78001797C481D5814A835B83448355835696EC
:100D8800EC915697F0E09F01220F331F220F331F7B
:100D9800220F331FE20FF31FE854F4481A96ED931D
:100DA800FC931B9790819F5F908321C06FEE7BE738
:100DB800FB01C181D2811E96CD93DC931F972C81B4
:100DC8003D8150962D933C9351974C815D819D01B7
:100DD800245F3F4FFA01228333832C833D8354964B
:100DE8006D937C935597FB0190819F5F90835696F6
:100DF8002C91E091287CF091297C9689921748F4EF
:100E0800C114D10419F091E0F601908391E0909318
:100E1800517CDF91CF911F910F91FF90EF90DF9060
:0C0E2800CF90BF90AF909F908F900895E6
:100E34000F931F93CF93DF9380914E7C811101C157
:100E4400C091227CD091237C8E010F5F1F4F0093B1
:100E5400227C1093237C01151105B9F48091267C22
:100E64009091277C2091247C3091257C2093267CB2
:100E74003093277C8093247C9093257C8091507CB4
:100E84008F5F8093507C0E94AE2080911E7C909155
:100E94001F7C0817190720F480E0B8C081E001C066
:100EA40080E0E091267CF091277C9081911107C02D
:100EB4002FEF3FEF20931E7C30931F7CA7C0E0915F
:100EC400267CF091277C0580F681E02D0680F78151
:100ED400E02D228133810217130728F420931E7C0E
:100EE40030931F7C93C0A285B385248135814681CC
:100EF4005781E9014C835D83268137814481558183
:100F0400E9014A835B8311962D913C911297AF01BD
:100F14004E5F5F4F2417350731F4268137811196D0
:100F24002D933C931297128613869C9191509C9317
:100F3400A489B589109719F1268537856089718947
:100F4400E9016C837D832089318966857785E90190
:100F54006A837B8311966D917C9112979F01245F24
:100F64003F4F6217730731F42089318911962D930D
:100F74003C931297148A158A9C9191509C932689CC
:100F84009091537C921710F42093537C30E0D90154
:100F9400AA0FBB1FAA0FBB1FAA0FBB1F2A0F3B1F01
:100FA400D901A854B44811960D90BC91A02DA483E6
:100FB400B58314962D913C91159726833783149607
:100FC4002D913C911597E9014A835B8314964D93C7
:100FD4005C931597A689B0E09D01220F331F220F61
:100FE400331F220F331FA20FB31FA854B448A28784
:100FF400B3879C919F5F9C932689E091287CF09114
:10100400297C9689921708F449CF4BCFE091287C2C
:10101400F091297C268930E0F901EE0FFF1FEE0FD5
:10102400FF1FEE0FFF1F2E0F3F1FF901E854F44876
:101034009081923008F081E09091517C91110CC024
:101044000CC08091207C9091217C01968093207C1F
:101054009093217C80E001C081E0DF91CF911F91CA
:041064000F9108954B
:101068008F929F92AF92BF92EF92FF920F931F932E
:10107800CF93DF93DC010FB6F8940F92E114F104DB
:1010880089F0E62FF0E0EE0FFF1FEE0FFF1FE80FCD
:10109800F91F83A094A0A5A0B6A0F7018082918231
:1010A800A282B38270E0FD01E60FF71F83A592E0EC
:1010B80093A70230110519F120F40130110541F010
:1010C8004FC00330110581F104301105D1F148C03A
:1010D800660F771F660F771FFD01E60FF71F83A0C6
:1010E80094A0A5A0B6A0BA01A901482959296A293E
:1010F8007B2943A354A365A376A311E034C0660FEC
:10110800771F660F771FFD01E60FF71F43A154A154
:1011180065A176A14F5F5F4F6F4F7F4F43A354A3E5
:1011280065A376A311E01FC0660F771F660F771FB0
:10113800FD01E60FF71F23A334A345A356A311E02F
:1011480012C0823079F0660F771F660F771FFD0196
:10115800E60FF71F23A334A345A356A311E003C04A
:1011680011E001C010E0813009F077C01A96ED91C6
:10117800FC911B971496CD91DC91159716968D913D
:101188009C9117978C839D831696CD91DC91179728
:1011980014968D919C9115978A839B838181928166
:1011A8009D012E5F3F4F8217930731F416968D915C
:1011B8009C911797818392831A961D921C921B9774
:1011C80080818150808356968C9156979091537C5C
:1011D800981710F48093537C90E0FC01EE0FFF1FEA
:1011E800EE0FFF1FEE0FFF1F8E0F9F1FFC01E8542D
:1011F800F4480180F281E02D1496ED93FC93159745
:101208008481958116968D939C931797C481D58177
:101218002A833B83248335835696EC915697F0E0D6
:10122800CF01880F991F880F991F880F991FE80F02
:10123800F91FE854F4481A96ED93FC931B978081A4
:101248008F5F808356969C91E091287CF091297C51
:101258008689891710F40E9463180F900FBE812F9A
:10126800DF91CF911F910F91FF90EF90BF90AF90BA
:061278009F908F90089585
:10127E00CF93DF930FB6F8940F9280914E7C8150EE
:10128E0080934E7C80914E7C8111BFC08091547CA6
:10129E00811196C0BDC0E091F47BF091F57B068084
:1012AE00F781E02DA489B589C685D7858089918976
:1012BE008C839D83C089D189868597858A839B83FC
:1012CE0011962D913C911297CF010C962817390744
:1012DE0031F48089918911968D939C931297148A7B
:1012EE00158A8C9181508C93A285B385C481D5814A
:1012FE00868197818C839D83C681D78184819581D8
:10130E008A839B8311968D919C9112979F012E5FDC
:10131E003F4F8217930731F48681978111968D93F3
:10132E009C931297128613868C9181508C9386898A
:10133E009091537C981710F48093537C90E0DC01CD
:10134E00AA0FBB1FAA0FBB1FAA0FBB1F8A0F9B1F83
:10135E00DC01A854B44811960D90BC91A02DA48325
:10136E00B58314968D919C911597868397831496C9
:10137E00CD91DC9115972A833B8314962D933C9344
:10138E001597A689B0E0CD01880F991F880F991F78
:10139E00880F991FA80FB91FA854B448A287B38706
:1013AE008C918F5F8C939689A091287CB091297C2B
:1013BE0056968C91981730F081E08093517C02C044
:1013CE00E0E0F0E08091EF7B811165CFEF2B11F023
:1013DE000E94AE20C091207CD091217C209769F094
:1013EE000E941A07882319F081E08093517C21977F
:1013FE00B9F71092207C1092217C8091517C882329
:10140E0031F00E94631881E003C080E001C080E0EB
:0A141E000F900FBEDF91CF910895EB
:10142800CF93DF93CDB7DEB7CD5CD109CDBFDEBF9B
:101438006FEF7FEF8091487C9091497C0E94610C0E
:1014480022E330E048EC50E0BE016D5F7F4F8091B1
:101458003A7C90913B7C0E9433127C0100E020E0B2
:1014680030E040E050E060E08091487C9091497C19
:101478000E947910C70199278230910519F00397C6
:10148800B9F634C08B81853089F56FEF7FEF809195
:101498004A7C90914B7C0E94610C8C8190E0FC010D
:1014A800EE0FFF1FE80FF91FEE0FFF1FEE0FFF1FD4
:1014B800E050F0492285213369F4FC01EE0FFF1F4B
:1014C800E80FF91FEE0FFF1FEE0FFF1FE050F04966
:1014D80081E0838700E020E030E040E050E060E019
:1014E80080914A7C90914B7C0E9479108D81873441
:1014F800D1F018F4823431F048C08235B1F1893521
:1015080019F143C0898382E08A83AE014F5F5F4F40
:1015180060E800E02FEF3FEF8091387C9091397CB4
:101528000E94791032C0898381E08A83AE014F5FBF
:101538005F4F60E800E02FEF3FEF8091387C90919B
:10154800397C0E94791021C0898381E08A83AE01A9
:101558004F5F5F4F60E800E02FEF3FEF8091387CEE
:101568009091397C0E94791010C0898381E08A8328
:10157800AE014F5F5F4F60E800E02FEF3FEF8091D3
:10158800387C9091397C0E9479108D81FE01E55359
:10159800FF4F808385E0818381E08283AF0160E82B
:1015A8000FEF1FEF23E030E080913C7C90913D7C71
:0615B8000E94DB0D3DCF97
:1015BE00CF93DF93A82FCB010596A11DFC015A2FC7
:1015CE000E94B222DB011696ED91FC911797A48929
:1015DE00B589C685D785808991898C839D83C0897D
:1015EE00D189868597858A839B8311968D919C914F
:1015FE0012979F01245F3F4F8217930731F4808922
:10160E00918911968D939C931297148A158A8C91B9
:10161E0081508C9380914E7C811160C0A285B385E0
:10162E00C481D581868197818C839D83C681D78124
:10163E00848195818A839B8311968D919C911297BB
:10164E009F012E5F3F4F8217930731F4868197815A
:10165E0011968D939C931297128613868C918150BE
:10166E008C9386899091537C981710F48093537CB9
:10167E0090E0DC01AA0FBB1FAA0FBB1FAA0FBB1F56
:10168E008A0F9B1FDC01A854B44811960D90BC9193
:10169E00A02DA483B58314968D919C911597868366
:1016AE0097831496CD91DC9115972A833B831496DC
:1016BE002D933C931597A689B0E0CD01880F991F05
:1016CE00880F991F880F991FA80FB91FA854B448E7
:1016DE00A287B3878C918F5F8C931CC04FEE5BE714
:1016EE00DA011196CD91DC911297C687D7878C813E
:1016FE009D81808B918B8C819D81DC0112962D9327
:10170E003C9313972C833D83448B558BDA018C913C
:10171E008F5F8C939689E091287CF091297C868945
:10172E00891720F481E08093517C01C080E0DF9125
:04173E00CF910895AA
:10174200CF92DF92EF920F931F930E945F21E0E00E
:10175200F4E084E08183868300E010E020E030E062
:1017620040E061E070E082E390E00E94C61C80935A
:10177200407C9093417C20E030E040E061E070E00A
:1017820088EC90E00E94C61C80933E7C90933F7C44
:1017920020E030E041E060E070E080E991E00E940A
:1017A200C61C80933C7C90933D7C20E030E041E07D
:1017B20060E070E088EC90E00E94C61C80933A7C66
:1017C20090933B7C40E062E083E00E94851C809322
:1017D200387C9093397C81E00E94712280934C7C0A
:1017E20090934D7C81E00E94712280934A7C909379
:1017F2004B7C81E00E9471228093487C9093497CCB
:1018020043E060E081E00E94851C8093467C9093D7
:10181200477C43E060E081E00E94851C8093447C29
:101822009093457CC12CD12C6894EE24E2F82CE2F2
:1018320031E044E151E060E080E29DE00E94121656
:101842006894EE24E1F824EF31E049E151E060E0F0
:1018520083EA90E00E9412160F2EF3E0EF2EF02D95
:1018620020E931E04FE151E060E08CE893E00E9432
:1018720012166894EE24E1F82AEF30E044E251E0D7
:1018820060E08DE394E10E941216EE24E39428E5D1
:1018920032E04BE251E060E084E19AE00E941216ED
:1018A2000E94C4218093427C9093437C0E94561EE6
:1018B20080E090E01F910F91EF90DF90CF9008951C
:1018C200BF92CF92DF92EF92FF920F931F93CF932B
:1018D200DF93CDB7DEB72597CDBFDEBF8C016C831A
:1018E2007D83E12CF12C0FB6F8940F92F801828DD2
:1018F2008823E1F08150828F80819181892B29F4A4
:101902000E942222F80184839583F801808588232E
:1019120049F0085F1F4FB80180E80E94DF0A811179
:101922000E9463180F900FBE81E07CC08C819D8164
:10193200892B21F40F900FBE80E074C0F11006C015
:10194200CE0101960E947F22FF24F3940F900FBED6
:101952000E94D1220FB6F8940F92F801858D8F3F25
:1019620009F4158EF801868D8F3F09F4168E0F90BB
:101972000FBEBE016C5F7F4FCE0101960E94061D15
:1019820081112BC0B80180E80E94D7218823F9F089
:10199200F80180819181892B51F40FB6F8940F924E
:1019A200848195810E940E11E82E0F900FBE6C81EA
:1019B2007D81C80141960E941022C8010E94B81D73
:1019C2000E943F0981118FCF0E9463188CCFC801FA
:1019D2000E94B81D0E943F0986CFC8010E94B81D0F
:1019E2000E943F09C801A0E8C92EDA2EBC018A2F45
:1019F2000E94D721882309F476CFEE2091F00FB60A
:101A0200F8940F92602F7C2D8D2D0E94E520682F77
:101A1200F801848195810E942D150F900FBE80E000
:101A220001C080E02596CDBFDEBFDF91CF911F912F
:0E1A32000F91FF90EF90DF90CF90BF9008953E
:101A4000CF93DF9300D00F92CDB7DEB76FEF7FEF6C
:101A500080914C7C90914D7C0E94610C89E589833A
:101A600082E08A83CE0101963C0120E8822E00E0CC
:101A70002FEF3FEF682DA3018091387C9091397C46
:101A80000E94791010E02EC02FEF3FEF41E050E0B0
:101A9000BE016D5F7F4F8091407C9091417C0E94A0
:101AA00033128B818A3AF1F42FEF3FEF41E050E09F
:101AB000BE016D5F7F4F8091407C9091417C0E9480
:101AC00033128B81823009F411E020E030E041E0F4
:101AD00050E0BE016D5F7F4F8091407C9091417CD2
:101AE0000E943312113081F682E08B836E0183E015
:101AF000C80ED11CE0E8EE2E0FEF1FEF21E030E022
:101B00006E2DA60180913E7C90913F7C0E94DB0D62
:101B100083E08B8321E030E06E2DA60180913E7C36
:101B200090913F7C0E94DB0D81E090E00E94492172
:101B300084E080930504E0E0F8E08AEA828385810E
:101B4000806285838091040886FFFCCFE12C689435
:101B5000FF24F3F8F70184818064848384E0809318
:101B6000060419821A8201E02FEF3FEF682DA301CE
:101B70008091387C9091397C0E947910F7018581A1
:101B80008064858300E020E030E040E050E060E0E9
:101B900080914C7C90914D7C0E94791061E070E0C6
:101BA0008091427C9091437C0E94B61480E090E04A
:061BB0000E9443174BCF19
:101BB6004F925F926F927F928F929F92AF92BF9257
:101BC600CF92DF92EF92FF920F931F93CF93DF9303
:101BD600CDB7DEB72897CDBFDEBF5C014E835F83EE
:101BE600688729010C831D83FC01848195810197F7
:101BF600268520FF0AC03201F2E06F0E711C8615A1
:101C0600970548F41C821D8206C08415950510F0C0
:101C1600320101C03C018C819D81892BB9F1CE0135
:101C260001960E9444220FB6F8940F92C5010E94B5
:101C3600F01D4C018615970530F560E080E090E0D8
:101C46000E94FF200E94D722F501828793870F907A
:101C56000FBECC80DD80E12CF12C00E010E0980175
:101C660040E050E0BA0180E00E943B0FF501128689
:101C76001386BE016C5F7F4FCE0101960E94061D42
:101C8600882389F205C00F900FBE02C0812C912CCB
:101C96008114910421F4C5010E94F01D4C017301C9
:101CA600840192014E815F816885C5010E94661993
:101CB6006C01892B11F1B50180E80E94751FF501B1
:101CC6002681378182179307C0F00E94D122F50141
:101CD60080859185892B79F080859185E12CF12C81
:101CE60000E010E020E030E0A90160E00E94340846
:101CF600F501108611860E943F09C6012896CDBFC0
:101D0600DEBFDF91CF911F910F91FF90EF90DF9093
:101D1600CF90BF90AF909F908F907F906F905F9085
:041D26004F9008953D
:101D2A00CF93DF93DC0170686D937C9311971696BD
:101D3A00ED91FC91179718964D915C91199712960F
:101D4A008D919C91139714962D913C911597EC01C6
:101D5A002C833D8314968D919C91159712962D9103
:101D6A003C911397EC012A833B83EA0189819A818A
:101D7A00A817B90731F414968D919C911597898308
:101D8A009A8318961D921C921997DA018C918150A8
:101D9A008C93A285B385C481D581868197818C83F2
:101DAA009D83C681D781848195818A839B8311967D
:101DBA008D919C9112979F012E5F3F4F8217930737
:101DCA0031F48681978111968D939C93129712868E
:101DDA0013868C9181508C9386899091537C9817A5
:101DEA0010F48093537C90E0DC01AA0FBB1FAA0F6A
:101DFA00BB1FAA0FBB1F8A0F9B1FDC01A854B44844
:101E0A0011960D90BC91A02DA483B58314968D9143
:101E1A009C911597868397831496CD91DC9115979B
:101E2A002A833B8314962D933C931597A689B0E099
:101E3A00CD01880F991F880F991F880F991FA80F26
:101E4A00B91FA854B448A287B3878C918F5F8C932B
:101E5A009689E091287CF091297C8689891718F463
:0C1E6A0081E08093517CDF91CF910895BE
:101E76008F929F92AF92BF92CF92DF92EF92FF9294
:101E86000F931F93CF93DF93480159010FB6F89430
:101E96000F92E091287CF091297CC82FD0E0EC0FBE
:101EA600FD1F83A5823061F1E091287CF091297CA9
:101EB600CE01880F991F880F991FE80FF91F83A17C
:101EC60094A1A5A1B6A1409550956095709548231B
:101ED60059236A237B2343A354A365A376A3E091E6
:101EE600287CF091297CEC0FFD1F81E083A7C114AB
:101EF600D10431F061E0C6010E94C1120E9463184C
:101F06000F900FBE0FB6F8940F92E114F104A1F0F2
:101F1600E091287CF091297CCE01880F991F880FCB
:101F2600991FE80FF91F83A194A1A5A1B6A1F701F6
:101F360080839183A283B383E091287CF091297CEE
:101F4600EC0FFD1F83A58230E9F4E091287CF09127
:101F5600297CCE01880F991F880F991FE80FF91F5A
:101F660083A194A1A5A1B6A180949094A094B094C5
:101F760088229922AA22BB2283A294A2A5A2B6A253
:101F860081E001C080E02091287C3091297CC20F3D
:101F9600D31F1BA60F900FBEDF91CF911F910F91FC
:101FA600FF90EF90DF90CF90BF90AF909F908F9073
:021FB60008958C
:101FB800EF92FF920F931F93CF93DF93CDB7DEB7C6
:101FC8002697CDBFDEBF7AC0898188230CF476C0FE
:101FD8000C811D81D8011B968D919C911C97892B92
:101FE80021F0C80103960E94C91FCE0106960E94DF
:101FF80035207C01E9818E2FEE0F990BAA0BBB0BC4
:10200800FC013197E930F10508F058C0EE5AFF4F4E
:102018000C94A922F80183898160838B2A813B81F2
:1020280065857685620F731FA701C8010E941B1F73
:10203800882309F443C0D80153968C91539782FFA3
:102048000DC06A817B811D968D919C911E97680FAA
:10205800791FA701C8010E94F01F03C08E7FF801F5
:10206800838BD8015196ED91FC915297C80109953F
:1020780025C0F80183898E7F838B20C0D8015396B1
:102088008C915397816053968C9353976A817B8187
:102098001D966D937C931E976E0D7F1D9701A7016A
:1020A800C8010E941B1F0AC0F801838981FD04C072
:1020B800C8010E94E82202C08E7F838B40E050E076
:1020C800BE016F5F7F4F80912E7C90912F7C0E9484
:1020D800A211811179CF2696CDBFDEBFDF91CF91B6
:0A20E8001F910F91FF90EF900895F3
:1020F2006F927F928F92EF92FF920F931F93CF93E3
:10210200DF93CDB7DEB72597CDBFDEBF7C013A01A5
:10211200862E2C833D8310E00FB6F8940F92F701C0
:10212200928D838D981710F00230E9F4202F682DDC
:10213200A301C7010E940418F7019189992361F054
:10214200F1E1EF0EF11CB70180E80E94DF0A88235B
:1021520031F00E94631803C081110E9463180F902E
:102162000FBE81E04DC08C819D81892B21F40F909F
:102172000FBE80E045C0111105C0CE0101960E943C
:102182007F2211E00F900FBE0E94D1220FB6F89469
:102192000F92F701858D8F3F09F4158EF701868D19
:1021A2008F3F09F4168E0F900FBEBE016C5F7F4FFA
:1021B200CE0101960E94061D81111CC0B70180E864
:1021C2000E947420882381F06C817D81C70108966A
:1021D2000E941022C7010E94B81D0E943F0981116E
:1021E2009BCF0E94631898CFC7010E94B81D0E941E
:1021F2003F0992CFC7010E94B81D0E943F0980E0AB
:102202002596CDBFDEBFDF91CF911F910F91FF9039
:0A221200EF908F907F906F90089579
:10221C000F931F93CF93DF93FC01892B09F484C098
:10222C002689A091287CB091297C56968C912817F0
:10223C0008F070C084859585992364F0A091287C62
:10224C00B091297C56963C9184E090E0831B9109D7
:10225C00848795878285938530E0A901440F551FAB
:10226C00440F551F440F551F240F351F2854344855
:10227C008217930709F045C0EF018F010E5F1F4FC6
:10228C00C8010E94C91FE091287CF091297C8689A5
:10229C008E8B9091537C981710F48093537C90E024
:1022AC00FC01EE0FFF1FEE0FFF1FEE0FFF1F8E0F37
:1022BC009F1FFC01E854F4480180F281E02DEC836F
:1022CC00FD83848195818E839F83A481B581129631
:1022DC000D931C931397048315838E8990E0FC0156
:1022EC00EE0FFF1FEE0FFF1FEE0FFF1FE80FF91F82
:1022FC00E854F448EA87FB8780818F5F808381E014
:10230C0016C0A091287CB091297C56968C91868B16
:10231C0081E00DC091A1E091287CF091297C868907
:10232C00981720F080E003C080E001C081E0DF91CD
:08233C00CF911F910F9108954C
:10234400CF92DF92EF92FF920F931F93CF93DF937D
:10235400CDB7DEB72597CDBFDEBF8C016B014C83B3
:102364005D83E12C0FB6F8940F92F801F28CFF20F4
:10237400B9F0B601C8010E94CA20FA94F801F28E9D
:102384008085882349F0085F1F4FB80180E80E94C8
:10239400DF0A81110E9463180F900FBE81E055C0BF
:1023A4008C819D81892B21F40F900FBE80E04DC05C
:1023B400E11006C0CE0101960E947F22EE24E39430
:1023C4000F900FBE0E94D1220FB6F8940F92F8011D
:1023D400858D8F3F09F4158EF801868D8F3F09F4A2
:1023E400168E0F900FBEBE016C5F7F4FCE0101961B
:1023F4000E94061D81111CC0B80180E80E94D721EB
:10240400882381F06C817D81C80141960E9410224D
:10241400C8010E94B81D0E943F098111A3CF0E94E8
:102424006318A0CFC8010E94B81D0E943F099ACF2B
:10243400C8010E94B81D0E943F09B80180E80E94AB
:10244400D721882309F48ECF80E02596CDBFDEBF47
:10245400DF91CF911F910F91FF90EF90DF90CF907C
:022464000895D9
:102466002F923F924F925F926F928F929F92AF926E
:10247600BF92CF92DF92EF92FF920F931F93CF936B
:10248600DF93EC011B014A0169018E8580FF05C0BF
:102496006894AA24A1F8B12C02C0A12CB12CC114B5
:1024A600D10479F10FB6F8940F922E0180E8682EC8
:1024B600862DB2010E94751F8C01A816B90648F038
:1024C60060E080E090E00E94FF200E94D72288878B
:1024D60099870F900FBEA016B106C0F0E12CF12C23
:1024E60000E010E0980140E050E0BA0180E00E9470
:1024F6003B0F18861986862DB2010E94751F8C0126
:1025060005C0BE0180E80E94751F8C01A016B106A9
:1025160000F59801A401B101CE010E94991A5C014F
:10252600892BC9F00E94D1228A859B85892B71F05F
:102536008A859B85E12CF12C00E010E020E030E05C
:10254600A90160E00E9434081A861B860E943F0992
:1025560002C0A12CB12CC501DF91CF911F910F9123
:10256600FF90EF90DF90CF90BF90AF909F908F90AD
:0C2576006F905F904F903F902F90089561
:10258200FF920F931F93CF93DF93EC01F62E0091EE
:10259200227C1091237C8091287C9091297C029648
:1025A2000E94C91FCF3F8FEFD807B1F5FF20A1F1DD
:1025B200E6EEFBE7A181B281C091287CD091297C13
:1025C200AC83BD83C091287CD091297C14968D91D7
:1025D2009C9115978E839F831496CD91DC911597CC
:1025E2008091287C9091297C02968A839B8380919A
:1025F200287C9091297C029614968D939C93159732
:10260200A091287CB091297C1A96ED93FC931B979C
:1026120080818F5F80832FC0C00FD11FE091287C03
:10262200F091297CC283D383C017D10768F46091EB
:10263200287C7091297C8091247C9091257C6E5F0E
:102642007F4F0E94BA1E17C06091287C7091297C2E
:102652008091267C9091277C6E5F7F4F0E94BA1EEC
:1026620080911E7C90911F7CC817D90720F4C093DB
:102672001E7CD0931F7CDF91CF911F910F91FF9011
:022682000895B9
:102684002F923F926F927F928F929F92AF92BF92BE
:10269400CF92DF92EF92FF920F931F93CF93DF932A
:1026A400CDB7DEB73C01A62FCA011701FC2CF401FB
:1026B4006789708DA801415051098B01040F151FC2
:1026C4000097A105D1F41EC0242F30E06C01EA2E3E
:1026D400C20ED31EE11C37FDEA94F6015E2D0E9462
:1026E400CA22F401E20FF31F618FF6015E2D0E94EE
:1026F400CA22662329F04F5F01C040E0483020F32E
:10270400F40110A2F3E0FF1520F40F2EF3E0FF2EE6
:10271400F02DF401F68AF1A2C40102960E94DC2293
:10272400C4010C960E94DC22F4018086918684E028
:1027340090E08F19910984879587828A938AA101F1
:10274400B301C8010E949E21F40180839183A114E6
:10275400B10419F0F50180829182DF91CF911F912C
:102764000F91FF90EF90DF90CF90BF90AF909F902C
:0C2774008F907F906F903F902F90089501
:10278000CF93DF93EC010FB6F8940F928091547CB5
:102790008F5F8093547C8091287C9091297C892B39
:1027A00059F4C093287CD093297C8091547C81304B
:1027B00099F40E94231E10C08091527C81110CC09C
:1027C000E091287CF091297C96898E89891720F0E8
:1027D000C093287CD093297C80914F7C8F5F80931D
:1027E0004F7C8E899091537C981710F48093537C82
:1027F00090E0FC01EE0FFF1FEE0FFF1FEE0FFF1F1B
:102800008E0F9F1FFC01E854F4480180F281E02DF7
:10281000EC83FD83848195818E839F83A481B58120
:10282000CE01029612968D939C9313978483958381
:10283000EE89F0E0CF01880F991F880F991F880F4C
:10284000991FE80FF91FE854F448EA87FB87808155
:102850008F5F80830F900FBE8091527C882351F050
:10286000E091287CF091297C96898E89981710F444
:0A2870000E946318DF91CF910895D4
:10287A00CF93DF9300D0CDB7DEB78CE080934104CD
:10288A0083E0809361044AEF50E0BE016F5F7F4F9F
:10289A008091387C9091397C0E94A21189819A8119
:1028AA00873499F030F4882349F0823409F446C019
:1028BA00EACF8235E9F0893571F1E5CF8CE0809372
:1028CA00460483E080936604DECF84E08093460466
:1028DA0083E080936604913019F0923029F0D3CFC7
:1028EA0088E080934504CFCF88E080934704CBCF1C
:1028FA0088E08093460483E080936604913019F05F
:10290A00923029F0C0CF84E080934504BCCF84E0A4
:10291A0080934704B8CF8CE08093460481E080938B
:10292A006604913019F0923029F0ADCF82E080939D
:10293A006504A9CF82E080936704A5CF8CE08093D9
:10294A00460482E080936604913019F0923029F0AF
:10295A009ACF81E08093650496CF81E080936704E3
:02296A0092CF0A
:10296C006F927F928F92BF92CF92DF92EF92FF92F3
:10297C000F931F93CF93DF93EC018B013C0182E00B
:10298C00680E711C80E8882EE82C630183E0C80E69
:10299C00D11CE11C0E94D12285E0680E711C811CA7
:1029AC00F301582D0E94B222FB0188819981082BDA
:1029BC00192B0883198300E010E02AC0B280F38041
:1029CC00808191819C01332792FD08C048815981F7
:1029DC0042235323452B59F440E00CC048815981C4
:1029EC00422353232417350721F040E003C041E074
:1029FC0001C041E0442351F090FF02C0022B132B85
:102A0C00688179817260CF010E94950EEB2DFF2DAC
:102A1C00CF01A0E8C816D906EA0681F600951095F4
:102A2C008881998108231923088319830E943F09FF
:102A3C0088819981DF91CF911F910F91FF90EF9039
:0E2A4C00DF90CF90BF908F907F906F90089595
:102A5A000F931F93CF93DF93FC01892B09F466C070
:102A6A0091A1961708F4962F8689981709F45EC0E3
:102A7A0022A1213009F05AC0968B2485358533234B
:102A8A0034F024E030E0291B310924873587228578
:102A9A00338590E0AC01440F551F440F551F440F76
:102AAA00551F840F951F8854944828173907F1F544
:102ABA00EF018F010E5F1F4FC8010E94C91F8E8947
:102ACA009091537C981710F48093537C90E0FC010A
:102ADA00EE0FFF1FEE0FFF1FEE0FFF1F8E0F9F1F40
:102AEA00FC01E854F4480180F281E02DEC83FD8377
:102AFA00848195818E839F83A481B58112960D93DB
:102B0A001C931397048315838E8990E0FC01EE0FC2
:102B1A00FF1FEE0FFF1FEE0FFF1FE80FF91FE8540C
:102B2A00F448EA87FB8780818F5F8083DF91CF91AA
:062B3A001F910F910895A8
:102B4000AF92BF92CF92DF92EF92FF920F931F93BB
:102B5000CF93DF937C015B01C42ED22E0E94D12241
:102B6000F701C081D1814D2DB501CE010E94B12167
:102B7000882369F0CC2009F1C501809590958C23BC
:102B80009D23F7018083918300E010E018C00115B8
:102B90001105A9F0C11003C060E070E002C060E060
:102BA00071E0D11074606A297B29A801C7010296DF
:102BB0000E94B61BC0E0D0E002C000E010E00E941E
:102BC0003F09012B19F1811102C00E9463180E9474
:102BD0003221EC0191FD19C00FB6F8940F92F70164
:102BE000C081D1814D2DB501CE010E94B121882334
:102BF00051F0CC2041F0B501609570956C237D2398
:102C0000F701608371830F900FBEDD27CE01DF9146
:102C1000CF911F910F91FF90EF90DF90CF90BF90D9
:042C2000AF900895D4
:102C24004F925F926F927F928F929F92AF92BF92D8
:102C3400CF92DF92EF92FF920F931F93CF93DF9384
:102C4400CDB7DEB72597CDBFDEBF3C0149835A839C
:102C54006B8349012801C9010E94451D8C01892B00
:102C6400B9F08DE290E00E94451D8C839D83892BF1
:102C740059F08DE2EC81FD8111928A95E9F7EC819E
:102C8400FD81078B108F06C0C8010E94E82202C094
:102C94001C821D828C819D81892BD1F0840120E0CE
:102CA40030E01F921F921F928C809D805601CE2C83
:102CB400720149815A816B81C3010E9442138C8144
:102CC4009D810E94C0130F900F900F9081E001C06E
:102CD4008FEF2596CDBFDEBFDF91CF911F910F916E
:102CE400FF90EF90DF90CF90BF90AF909F908F9028
:0A2CF4007F906F905F904F9008955D
:102CFE000F931F93CF93DF93FC01892B09F451C0DF
:102D0E0082A1815082A3268991A1291709F44BC073
:102D1E0081114BC0EF018F010E5F1F4FC8010E9442
:102D2E00C91F89A18E8B24E030E0281B31092C8726
:102D3E003D879091537C981710F48093537C90E0CC
:102D4E00FC01EE0FFF1FEE0FFF1FEE0FFF1F8E0F8A
:102D5E009F1FFC01E854F4480180F281E02DEC83C2
:102D6E00FD83848195818E839F83A481B581129684
:102D7E000D931C93139704831583EE89F0E0CF0116
:102D8E00880F991F880F991F880F991FE80FF91F39
:102D9E00E854F448EA87FB8780818F5F808381E067
:102DAE0005C080E003C080E001C080E0DF91CF91DC
:062DBE001F910F91089522
:102DC4000F931F93CF93DF93FC01362F892B09F4C4
:102DD4004EC0238D222309F44CC0022F10E08FEF44
:102DE4009FEFB8010E948A21448D842F90E06817D8
:102DF400790708F440C0EF010FB6F8940F92608190
:102E04007181FB01249FE00DF11D1124EC83FD83EE
:102E14001A8E6A837B8301501109809FA001819FD0
:102E2400500D909F500D1124CB01840F951F8E835C
:102E34009F838FEF8D8F8E8F31110DC088858823EE
:102E440091F02896BE0180E80E94DF0A882359F099
:102E54000E94631808C0CE0108960E946322CE0126
:102E640041960E9463220F900FBE81E005C080E06E
:102E740003C080E001C080E0DF91CF911F910F91EA
:022E84000895AF
:102E86000F931F93CF93DF93EC010FB6F8940F9235
:102E9600892B21F4C091287CD091297C8E010E5F6C
:102EA6001F4FC8010E94C91F8C899D89892B21F05B
:102EB600CE010C960E94C91FB80186EE9BE70E94C0
:102EC600142080E00FC0282F082E000C330BFE01C3
:102ED600E20FF31F93A5913021F4FE01E20FF31FD9
:102EE60013A68F5F82307CF30F900FBE8091527CC9
:102EF600882339F00FB6F8940F920E94AE200F90F7
:102F06000FBE8091287C9091297CC817D907A1F41F
:102F16008091527C882319F00E9463180DC090910D
:102F2600E67B8091547C981305C01092287C109201
:102F3600297C02C00E94C018DF91CF911F910F918A
:022F46000895EC
:102F48000F920FB6F8940F920BB60F921F9211249E
:102F58002F923F924F925F926F927F928F929F92A1
:102F6800AF92BF92CF92DF92EF92FF920F931F938F
:102F78002F933F934F935F936F937F938F939F9379
:102F8800AF93BF93CF93DF93EF93FF93A091287CE8
:102F9800B091297C0DB60D920EB60D920E941A07BB
:102FA80081110E94C018A091287CB091297CCD91F4
:102FB800CDBFDD91DEBFFF91EF91DF91CF91BF9142
:102FC800AF919F918F917F916F915F914F913F91B9
:102FD8002F911F910F91FF90EF90DF90CF90BF90AE
:102FE800AF909F908F907F906F905F904F903F90A1
:102FF8002F901F900F900BBE0F900FBE0F9018953B
:103008000F931F93CF93DF93EC01022F1A8D2C8D12
:1030180021110CC088819981892B09F042C08C81CB
:103028009D810E947F161C821D8242C0011117C01B
:1030380030E08A819B810E9419212C8D8A819B8195
:10304800820F911D8A839B832C813D818217930770
:1030580050F1888199818A839B8380E029C030E080
:103068008E819F810E9419218C8D90E09195819588
:1030780091092E813F81280F391F2E833F83488174
:1030880059812417350730F42C813D81820F931F15
:103098008E839F83023049F4112349F0115080E058
:1030A80007C080E005C080E003C080E001C080E088
:0E30B8001F5F1A8FDF91CF911F910F91089526
:1030C6000F920FB6F8940F920BB60F921F9211241F
:1030D6002F923F924F925F926F927F928F929F9222
:1030E600AF92BF92CF92DF92EF92FF920F931F9310
:1030F6002F933F934F935F936F937F938F939F93FA
:10310600AF93BF93CF93DF93EF93FF93A091287C68
:10311600B091297C0DB60D920EB60D920E94C01884
:10312600A091287CB091297CCD91CDBFDD91DEBFE9
:10313600FF91EF91DF91CF91BF91AF919F918F91C9
:103146007F916F915F914F913F912F911F910F91B9
:10315600FF90EF90DF90CF90BF90AF909F908F90B1
:103166007F906F905F904F903F902F901F900F90A1
:0A3176000BBE0F900FBE0F900895DE
:1031800080914E7C882321F081E08093517C0895CA
:103190001092517C2091537C01C02150822F90E0ED
:1031A000FC01EE0FFF1FEE0FFF1FEE0FFF1FE80FDA
:1031B000F91FE854F4483081332379F3AC01440F0C
:1031C000551F440F551F440F551F480F591FDF014E
:1031D0000180F281E02D0280F381E02D1196ED93C4
:1031E000FC93129745545448E417F50729F442819B
:1031F0005381FD0141835283FC01EE0FFF1FEE0F4F
:10320000FF1FEE0FFF1F8E0F9F1FFC01E854F448B5
:103210000180F281E02D868197818093287C9093B4
:08322000297C2093537C0895E2
:103228006F927F928F92AF92BF92CF92DF92EF927E
:10323800FF920F931F93CF93DF93EC013A01862EF1
:10324800590168018E8580FF05C0790182E0E80E8A
:10325800F11C01C07901CE010E94F01D8C0195017D
:10326800682DA301CE010E9466195C01892BD9F053
:10327800BE0180E80E94751F2E813F818217930747
:1032880090F088859985892B71F088859985E12C3E
:10329800F12C00E010E020E030E0A90160E00E949D
:1032A800E40518861986C501DF91CF911F910F910A
:1032B800FF90EF90DF90CF90BF90AF908F907F906E
:0432C8006F90089566
:1032CC006F927F928F92AF92BF92CF92DF92EF92DA
:1032DC00FF920F931F93CF93DF9300D0CDB7DEB740
:1032EC005C013A01862E6901FC01228133819685AD
:1032FC0090FF11C0C982DA820E151F0588F0AE014D
:10330C004F5F5F4F60E8890122E030E0C5010E9409
:10331C00051A9C0107C00C151D0520F4680102C09C
:10332C00C12CD12CC114D10451F089019601682D06
:10333C00A301C5010E94051AF50182839383C6017E
:10334C000F900F90DF91CF911F910F91FF90EF9005
:10335C00DF90CF90BF90AF908F907F906F9008953B
:10336C006F927F928F92CF92DF92EF92CF93DF93F7
:10337C00EC016A01E62E452B462B49F5A0E0B0E0A6
:10338C002BC0292F30E0F901EE0FFF1FEE0FFF1FAE
:10339C00E20FF31FE452F448638174816C177D07CC
:1033AC0011F4DF0119C0109781F4F901EE0FFF1F22
:1033BC00EE0FFF1FE20FF31FE452F44860807180A0
:1033CC0082806728682809F4DF019F5F03C0A0E0B2
:1033DC00B0E090E09230A8F2109741F0CD92DD92DF
:1033EC00EC9212971396CD93DC931497DF91CF91B7
:0E33FC00EF90DF90CF908F907F906F900895AC
:10340A006F927F928F92CF92DF92EF92FF920F93F9
:10341A001F93CF93DF936C013A01862EE901FC01D9
:10342A00E480F580E01AF10A2E153F0508F47901C7
:10343A00F601848595859701682DA301800F911F58
:10344A000E941921EC16FD0678F49E012E193F09F7
:10345A00682DA3014E0D5F1D611DF7FC6A95F601EB
:10346A00848595850E941921C8018C0F9D1FF6013C
:10347A00248135818217930710F0821B930BDF9109
:10348A00CF911F910F91FF90EF90DF90CF908F9087
:06349A007F906F90089581
:1034A0000F931F93CF93DF93FC018B01A181B28116
:1034B0008091287C9091297CEC01AE87BF87809118
:1034C000287C9091297C14962D913C911597EC01C4
:1034D000288B398B14968D919C9115972091287C7F
:1034E0003091297C245F3F4FEC012A833B8320915C
:1034F000287C3091297C245F3F4F14962D933C9378
:103500001597A091287CB091297C5496ED93FC935B
:10351000559790819F5F9083442311F00FEF1FEF29
:10352000642FC8010E94C112DF91CF911F910F91AA
:023530000895FC
:10353200AF92BF92CF92DF92EF92FF920F931F93BF
:10354200CF93DF9300D0CDB7DEB77C015B016A0178
:103552008901FC0120813181968590FF14C042E0EF
:1035620050E0BE016F5F7F4FC7010E94701B9C013C
:1035720089819A8102501109C816D90610F06C018E
:1035820002C0C12CD12CC016D10608F48601011547
:10359200110541F0A801B501C7010E94701BF70196
:1035A20080839183C8010F900F90DF91CF911F917B
:1035B2000F91FF90EF90DF90CF90BF90AF90089562
:1035C200CF92DF92EF92FF921F93CF93DF930F92EE
:1035D200CDB7DEB77C01162F0E94D122CE01019613
:1035E2000E9435206C018981811127C011110AC006
:1035F200CE14DF0438F00E943F09B601C7010E94D1
:103602004A1F1DC0112341F0E091307CF091317CC2
:10361200808111E0811110E0B7016C197D09412F01
:1036220080912E7C90912F7C0E9491200E943F09D4
:10363200811105C00E94631802C00E943F090F90C9
:10364200DF91CF911F91FF90EF90DF90CF9008957F
:10365200AF92BF92CF92DF92EF92FF920F931F939E
:10366200CF93DF93EC015B017A0169018E8580FFC4
:1036720003C002E010E002C000E010E0BE0180E8FA
:103682000E94751F08171907E0F49C01A701B501F4
:10369200CE010E94991A5C01892BA9F08A859B852B
:1036A200892B89F08A859B85E12CF12C00E010E0C2
:1036B20020E030E0A90160E00E94E4051A861B8642
:1036C20002C0A12CB12CC501DF91CF911F910F91A6
:0E36D200FF90EF90DF90CF90BF90AF900895E3
:1036E000AF92BF92CF92DF92EF92FF920F931F9310
:1036F000CF93DF937C015B01EA016901FC01048146
:103700001581021B130B4017510708F48A01F701BA
:10371000448555854C0D5D1D60E89801C5010E94EA
:1037200019210C171D0760F49E01201B310BF701B6
:103730004485558560E8C501800F911F0E941921BD
:10374000C6018C0F9D1FF7012481358182179307D5
:1037500010F0821B930BDF91CF911F910F91FF907F
:0C376000EF90DF90CF90BF90AF900895E5
:10376C00CF93DF93FC01A091287CB091297C7068E9
:10377C001C966D937C931D97A181B281C091287C7E
:10378C00D091297CAE87BF87C091287CD091297CB1
:10379C0014968D919C911597888B998B1496CD913D
:1037AC00DC9115972091287C3091297C245F3F4F28
:1037BC002A833B832091287C3091297C245F3F4FC6
:1037CC0014962D933C931597A091287CB091297C4D
:1037DC005496ED93FC93559790819F5F908361E095
:0C37EC00CA010E94C112DF91CF91089524
:1037F8001F920F920FB60F9211240BB60F922F93B0
:103808003F934F935F936F937F938F939F93AF9360
:10381800BF93EF93FF93CF93DF930F92CDB7DEB7AC
:1038280020E030E041E050E0BE016F5F7F4F8091C3
:103838003E7C90913F7C0E94291B892B31F4E0E06B
:10384800F8E085818F7D858303C089818093020894
:103858000F90DF91CF91FF91EF91BF91AF919F9121
:103868008F917F916F915F914F913F912F910F9021
:0C3878000BBE0F900FBE0F901F90189514
:103884001F920F920FB60F9211240BB60F920F9343
:103894001F932F933F934F935F936F937F938F93D4
:1038A4009F93AF93BF93EF93FF93CF93DF930F92C5
:1038B400CDB7DEB7809100088983AE014F5F5F4FBB
:1038C40060E800E010E021E030E08091407C9091DD
:1038D400417C0E9414190F90DF91CF91FF91EF91D9
:1038E400BF91AF919F918F917F916F915F914F9114
:1038F4003F912F911F910F910F900BBE0F900FBE10
:063904000F901F901895C2
:10390A00DF92EF92FF920F931F93CF93DF93382F9B
:10391A00E62F882329F1682F70E08FEF9FEF0E942E
:10392A008A218E2F90E068177907E8F03E9FC00140
:10393A001124813E2FEF9207C8F4D42EDE2FC32F15
:10394A004F960E94451D7C01009791F08C012D2D08
:10395A00AC01415E5F4F6D2F8C2F0E94EA2108C097
:10396A00E12CF12C05C0E12CF12C02C0E12CF12C48
:10397A00C701DF91CF911F910F91FF90EF90DF90D8
:02398A0008959E
:10398C008F929F92AF92BF92CF92DF92EF92FF9263
:10399C000F931F93CF93DF93EC014B0179016801D7
:1039AC00413011F401E001C000E08114910419F4DC
:1039BC0088248394912CCE014096C817D90728F4FB
:1039CC0021960E94451D5C0102C0A12CB12CA114B2
:1039DC00B10441F09401AE01B501615F7F4FC501A7
:1039EC000E943422C501DF91CF911F910F91FF905E
:1039FC00EF90DF90CF90BF90AF909F908F900895F5
:103A0C001F93CF93DF930FB6F8940F92E091227C23
:103A1C00F091237CDC0111964D915C911297DF01A2
:103A2C00A41BB50BEB01288139812F3FDFEF3D073C
:103A3C00F9F0EC011881C091507C1C1741F0E4178F
:103A4C00F50728F0FB011082118281E012C0A21749
:103A5C00B30748F4FB012A1B3B0B208331830E94E4
:103A6C007F2280E006C0DB011D921C9281E001C028
:0E3A7C0080E00F900FBEDF91CF911F91089553
:103A8A00CF93DF93EC010E94D1228091347C9091F4
:103A9A00357C892B31F480E090E48093347C9093D8
:103AAA00357C2097C9F08091367C9091377C9E01B5
:103ABA00280F391F2F3F4FE2340788F482179307E4
:103ACA0088F4C091347CD091357CC80FD91F2093DB
:103ADA00367C3093377C08C0C0E0D0E005C0C0E037
:103AEA00D0E002C0C0E0D0E00E943F09CE01DF91E1
:043AFA00CF910895CB
:103AFE001F920F920FB60F9211240BB60F920F93C7
:103B0E002F933F934F935F936F937F938F939F93D7
:103B1E00AF93BF93EF93FF9300E020E030E040E0DF
:103B2E0050E060E08091447C9091457C0E94791039
:103B3E00E0E0F8E0848180648483FF91EF91BF918F
:103B4E00AF919F918F917F916F915F914F913F9127
:103B5E002F910F910F900BBE0F900FBE0F901F90D5
:023B6E001895A8
:103B70001F93CF93DF93EC010FB6F8940F921E8D35
:103B80000DC08989882361F0BE016F5E7F4F80E898
:103B90000E94DF0A81110E94E022115011168CF35D
:103BA0008FEF8E8F0F900FBE0FB6F8940F921D8D72
:103BB0000DC08885882361F0BE01685F7F4F80E873
:103BC0000E94DF0A81110E94E022115011168CF32D
:103BD0008FEF8D8F0F900FBEDF91CF911F910895C2
:103BE000CF92DF92EF92CF93DF939C0140E8F901EF
:103BF000542F0E94B222EB01A42FC9010496A11DEB
:103C0000FC015A2F0E94B222DB01CD018C0F9D1FB7
:103C10006901E42E52E0C50ED11CE11CF6015E2DB7
:103C20000E94B222861B970BCC17DD0701F7019784
:103C30008A179B0710F08A1B9B0BDF91CF91EF90A7
:063C4000DF90CF90089513
:103C4600CF93C0E010C08C2F90E09C01220F331F51
:103C5600220F331F220F331F820F931F885494485D
:103C66000E946322CF5FC43070F381E09CE70E941C
:103C7600632288EF9BE70E9463228FEE9BE70E94F8
:103C8600632286EE9BE70E94632281E09CE7809395
:103C9600267C9093277C88EF9BE78093247C9093E7
:063CA600257CCF9108957A
:103CAC00CF92DF92EF920F931F930F2EFCE1CF2E4A
:103CBC00FCE7DF2EF02DE12C00E010E028E730E0EF
:103CCC004CE351E060E083EC92E20E9412168130EA
:103CDC0011F40E949F1F813081F4F8948FEF9FEFB5
:103CEC0080931E7C90931F7C81E08093527C109279
:103CFC00227C1092237C0E94891E1F910F91EF90C1
:063D0C00DF90CF90089546
:103D12000E949522A091287CB091297CCD91CDBFA3
:103D2200DD91DEBFFF91EF91DF91CF91BF91AF9116
:103D32009F918F917F916F915F914F913F912F91C1
:103D42001F910F91FF90EF90DF90CF90BF90AF90B7
:103D52009F908F907F906F905F904F903F902F90A9
:103D62001F900F900BBE0F900FBE0F90089581E031
:023D72000895B2
:103D7400CF93DF93EB01488159814F3F2FEF5207D7
:103D840021F4FC01A781B0850DC0DC01139601C0AC
:103D9400DF011296ED91FC91139720813181421736
:103DA4005307B0F71296ED91FC911397EA83FB83C6
:103DB400C483D583AC83BD831296CD93DC931397D0
:103DC40088879987FC0120812F5F2083DF91CF9121
:023DD400089550
:103DD6000FB6F8940F9280912E7C90912F7C892BB0
:103DE60021F583E19CE70E9463228AE09CE70E941A
:103DF600632283E19CE78093327C9093337C8AE054
:103E06009CE78093307C9093317C40E065E08AE0CB
:103E16000E94851C80932E7C90932F7C009729F01E
:103E26004FE251E060E00E94B6190F900FBE089570
:103E3600FC0163837483818792874617570790F046
:103E4600421B530B8585968548175907E0F4BF0139
:103E56006D5F7F4F8091307C9091317C0E94BA1EBD
:103E660080E008954217530718F46217730768F441
:103E7600BF016D5F7F4F8091327C9091337C0E94B1
:0E3E8600BA1E80E0089581E0089581E008955D
:103E9400EF92FF920F931F93CF93DF938C017B01DB
:103EA400E091327CF091337C0580F681E02DC6816F
:103EB400D781CE0103960E94C91F8B8982FF06C059
:103EC400A701B801CE010E94F01F02C08E7F8B8B28
:103ED400E989FA89CE010995DF91CF911F910F915C
:063EE400FF90EF9008952D
:103EEA00CF92DF92EF929B01482FA82FCB01049625
:103EFA00A11DFC015A2F0E94B222DB016901E42EA6
:103F0A0082E0C80ED11CE11CF6015E2D0E94B2228D
:103F1A00CD01860F971FF901542F0E94B222861BEA
:103F2A00970B8A179B0710F08A1B9B0BEF90DF9069
:043F3A00CF90089587
:103F3E00CF92DF92EF920F931F930E94EB1E809110
:103F4E002E7C90912F7C892BB1F00F2EFCE2CF2E80
:103F5E00FCE7DF2EF02D0F2EF3E0EF2EF02D00E01C
:103F6E0010E020EF30E044E351E060E084E592E2BF
:103F7E000E94121601C080E01F910F91EF90DF900A
:043F8E00CF90089533
:103F9200CF93DF93FC01A085B185C281D381848157
:103FA20095818C839D83C481D581828193818A830B
:103FB2009B8311968D919C911297E817F90731F422
:103FC2008481958111968D939C9312971086118608
:0E3FD2008C9181508C938C91DF91CF9108954A
:103FE000EF92FF920F931F93CF93DF93EC018B011E
:103FF0007A0108C08D859E85080F191FE989FA8905
:10400000CE0109956D857E85600F711F9801A7010E
:10401000CE010E941B1F8111EDCFDF91CF911F9127
:084020000F91FF90EF9008954D
:10402800CF93DF939C01FB01DC011196CD91DC91CC
:104038001297C283D3838C819D81848395838C81DD
:104048009D81DC0112966D937C9313976C837D831D
:1040580020873187F90180818F5F8083DF91CF913D
:024068000895B9
:10406A000F931F93CF93DF938C010E949F22EC0141
:10407A0080912A7C90912B7CC817D90730F40E9432
:10408A00562081E0F801808302C0F8011082C093B3
:10409A002A7CD0932B7CCE01DF91CF911F910F9177
:0240AA00089577
:1040AC0009C00580F681E02D6FEF7FEF8081918153
:1040BC000E944A1FE091327CF091337C8081811107
:1040CC00F0CF8091307C9091317C8093327C9093B6
:0C40DC00337CE093307CF093317C08953D
:1040E800A82FCB010FB6F8940F929C014A2F265E99
:1040F8003F4F4F4FF901542F0E94CA22262F4B964B
:10410800A11DFC015A2F0E94CA22261302C081E079
:0A41180001C080E00F900FBE089573
:10412200CF93DF93EC010FB6F8940F928D8D8F3FF2
:1041320009F41D8E8E8D8F3F09F41E8E0F900FBED7
:104142008A8D811104C0CE0141960E94501ACE017F
:0A4152000E94B81DDF91CF9108957F
:10415C00E091267CF091277C8081811107C08FEF44
:10416C009FEF80931E7C90931F7C0895E091267C9A
:10417C00F091277C0580F681E02D808191818093E0
:08418C001E7C90931F7C089536
:10419400FC01248D2223B1F030E046815781420F87
:1041A400531F46835783848195814817590720F00C
:1041B4008081918186839783CB014681578160E812
:0641C4000E94192108957C
:1041CA00A82FCB019C014A2F2F5E3F4F4F4FF90179
:1041DA00542F0E94CA22662359F04696A11DFC015B
:1041EA005A2F0E94B222FB01908184E0891B089514
:0441FA0080E00895C4
:1041FE00009721F48091287C9091297C0FB6F89439
:10420E000F9270E0FC01E60FF71F23A5223031F468
:10421E00FC01E60FF71F13A681E001C080E00F90AE
:04422E000FBE089522
:10423200CF92DF92EF926A01E62EDC01280F391F3E
:10424200A217B30751F0F6015E2D0E94CA226D93A8
:104252004FEFC41AD40AE40AF3CFEF90DF90CF9065
:024262000895BD
:10426400E091287CF091297C84859585E091287CD7
:10427400F091297CA091287CB091297C56964C9190
:0E42840024E030E0241B31092487358708959B
:10429200CF93DF93EC01892B49F00E94D12260E099
:1042A200CE010E94C1120E943F0901C080E081112B
:0C42B20002C00E946318DF91CF910895B4
:1042BE008FB78F778FBFE0E0F8E084EC99E08087CE
:1042CE00918783E2878381E08093010480E8858370
:0C42DE0080EC86838FB78F678FBF089538
:1042EA00DC01E091327CF091337C808191E0811194
:1042FA0090E09C93911106C00580F681E02D8081A3
:0A430A009181089580E090E008958D
:10431400AA1BBB1B51E107C0AA1FBB1FA617B707E7
:1043240010F0A61BB70B881F991F5A95A9F7809503
:084334009095BC01CD01089534
:10433C00FC0160833197708331971082319720E8AC
:10434C002083319710823197108277974083319771
:06435C00508384970895D0
:10436200411106C068237923672B49F480E0089540
:10437200862397236817790721F080E0089581E06A
:06438200089581E008959A
:10438800CF93DF938BE090E00E94451DEC010097EE
:1043980031F0FC0111921192CF010E946322CE01EB
:0643A800DF91CF910895A2
:1043AE000FB6F8940F92A82FCB014A96A11DFC01CF
:1043BE005A2F0E94CA22611102C081E001C080E022
:0643CE000F900FBE0895E0
:1043D4000F931F93F801611103C00083118302C07E
:1043E40040835183838F648F61E0CF010E94E21682
:0643F4001F910F910895D6
:1043FA000F93009771F0FC011482158210821182CA
:10440A00168200E020E030E040E050E060E00E94E8
:06441A0079100F910895D6
:10442000CF93DF93EB016091287C7091297C645FCE
:104430007F4F0E94BA1E61E0CE010E94C112DF913F
:04444000CF9108957B
:104444008091287C9091297C892B39F0E091287CFB
:10445400F091297C82A18F5F82A38091287C909126
:04446400297C089512
:104468000F93FC018FE0DF011D928A95E9F76487BD
:104478007587448355832683378306870F9108956C
:104488000FB6F8940F922091507CFC012083209164
:10449800227C3091237C218332830F900FBE0895B4
:1044A800CF93DF930F92CDB7DEB7CE0101960E946E
:0E44B800752169810E94E11A0E94DC0FF6CF87
:1044C600FC010396818392832FEF3FEF238334838E
:0C44D60085839683878390871082089569
:1044E200CF93DF93482F60E081E00E94851CEC01AE
:0C44F2000E94FD21CE01DF91CF910895C2
:1044FE002091507CFC0120832091227C3091237CE2
:06450E00218332830895B1
:10451400EC010E94EA220E94E922CE010E94EB22D1
:06452400CE010E94E62218
:10452A00E0E0FBE080EC9DE58487958781E0858368
:04453A0080830895DD
:10453E000FB6F8940F928091227C9091237C0F906D
:04454E000FBE0895FF
:10455200EE0FFF1F0024001C0BBE0790F691E02D0A
:024562000994BA
:1045640057FD04C05BBF6791779108956191719184
:024574000895A8
:104576000F9301E00093060B0F910E94A417189564
:0E4586008091B87B8230E0F30E946318F9CF79
:0E45940057FD03C05BBF6791089560810895D5
:0C45A20080914E7C8F5F80934E7C0895CA
:0A45AE008091287C9091297C0895EB
:0845B800FC0110861186089534
:0845C00081E08093517C089515
:0445C8000C9400004F
:0445CC000E948800C1
:0245D00008954C
:0245D20008954A
:0245D400089548
:0245D600089546
:00000001FF
