:100000000C945E000C94451F0C94451F0C94451FE6
:100010000C94451F0C94451F0C94451F0C94451FD0
:100020000C94451F0C94451F0C94451F0C94451FC0
:100030000C94141F0C94451F0C94451F0C94451FE1
:100040000C94451F0C94451F0C94451F0C94F11AF9
:100050000C943F1A0C947B1A0C94451F0C94451F6A
:100060000C94451F0C94451F0C94451F0C94451F80
:100070000C94451F0C94451F0C94451F0C94451F70
:100080000C94451F0C94451F0C94451F0C94451F60
:100090000C94451F0C94451F0C94451F0C94451F50
:1000A0000C94451FF60AF60A250B2A0B400BF60A9C
:1000B000F60A250B2A0B40007C50800011241FBE3D
:1000C000CFEFCDBFDFE7DEBFE6EBF0E040E019C0E9
:1000D000B791A79137912791079107FD0EC097918E
:1000E0008791EF01F92FE82F0BBF07900D92A21710
:1000F000B307D9F7FE011BBE04C01D92A217B307B8
:10010000E1F7EB3BF40721F70E941C0F0C94E31E70
:04011000F894FFCF91
:10011400494E49540052534F5554005253494E00CE
:0B012400494E444F55540057424D0017
:0D012F00546D725100546D722053766300C0
:06013C0049444C4500039C
:10014200CF93DF93CDB7DEB7CB5CD109CDBFDEBF96
:100152009E012F5F3F4F59016894222427F8C12C3A
:100162006894DD24D3F8C901A0E8C753DF4F888320
:100172009983AA83C95CD0404FEF5FEF61E081E0D1
:100182000E94B4126FEF7FEF80912A7C90912B7CBA
:100192000E94B3092AE030E048EC50E0B5018091BA
:1001A200207C9091217C0E94A611882329F37C0156
:1001B200FF24470192E0891A9108F501E80DF91D23
:1001C20080818111ACC06FEF7FEF8091287C90918C
:1001D200297C0E94B309A1E0EA1AF108EA0CFB1C8F
:1001E200F701808190E0AC01440F551F480F591F61
:1001F200440F551F440F551F4050504960E80FEF00
:100202001FEF28E030E08091227C9091237C0E94B5
:10021200660EF701808190E0FC01EE0FFF1FE80FF0
:10022200F91FEE0FFF1FEE0FFF1FE050F049408550
:1002320050E060E821E030E08091227C9091237CC4
:100242000E94660EF701808190E0FC01EE0FFF1F15
:10025200E80FF91FEE0FFF1FEE0FFF1FE050F049EE
:10026200418550E060E070E021E030E08091227C46
:100272009091237C0E94660EF701808190E0FC0140
:10028200EE0FFF1FE80FF91FEE0FFF1FEE0FFF1F0C
:10029200E050F049428550E060E070E021E030E05B
:1002A2008091227C9091237C0E94660E00E020E0E7
:1002B20030E040E050E060E08091287C9091297C21
:1002C2000E94F20C0FEF1FEF9401C753DF4F4881DA
:1002D20059816A81C95CD0408091227C9091237CB3
:1002E2000E94660E209265042AEAF6012283858125
:1002F200806285834FEF5FEF61E081E00E94B4127C
:100302002092660400E020E030E040E050E060E04F
:1003120080912A7C90912B7C0E94F20C2DCF85300B
:1003220009F0ADC06FEF7FEF8091287C9091297C1E
:100332000E94B3098091487C882309F41DCF312C97
:10034200E32CF12CF701EE0FFF1FEE0DFF1DEE0F58
:10035200FF1FEE0FFF1FE050F049838580FF88C02A
:100362003701660C771C23014E0C5F1CC201880FFB
:10037200991F880F991FFC01E050F0492F01AF012E
:1003820060E80FEF1FEF28E030E08091227C90912F
:10039200237C0E94660EF201408550E060E070E02E
:1003A20021E030E08091227C9091237C0E94660EB5
:1003B200F201418550E060E070E021E030E08091A0
:1003C200227C9091237C0E94660EF201428550E0CD
:1003D20060E070E021E030E08091227C9091237C0B
:1003E2000E94660E00E020E030E040E050E060E075
:1003F2008091287C9091297C0E94F20C0FEF1FEFD4
:100402009401C753DF4F488159816A81C95CD0404A
:100412008091227C9091237C0E94660E209265043A
:100422002AEAF60122838581806285834FEF5FEF9E
:1004320061E081E00E94B4122092660400E020E0B4
:1004420030E040E050E060E080912A7C90912B7C8B
:100452000E94F20C4FEF5FEF61E081E00E94B41264
:100462006FEF7FEF80912A7C90912B7C0E94B309E1
:1004720033948091487C381608F462CF7DCE0FEF1A
:100482001FEF28E030E040E050E060E08091227C05
:100492009091237C0E94660E21E030E040E050E023
:1004A20060E08091227C9091237C0E94660E21E084
:1004B20030E040E050E060E08091227C9091237C2B
:1004C2000E94660E21E030E042E350E060E080915D
:1004D200227C9091237C0E94660E209265042AEA77
:1004E200F60122838581806285834FEF5FEF61E0B1
:1004F20081E00E94B4122092660400E020E030E025
:1005020040E050E060E080912A7C90912B7C0E9438
:04051200F20C32CEE7
:10051600CF93DF93CDB7DEB7C05DD109CDBFDEBFC8
:100526006E0149ECC40ED11CAC2CBD2CCE018653F9
:100536009F4FC453DF4F88839983CC5CD040A0E89B
:10054600C253DF4F88839983AA83CE5CD040FE01D5
:1005560031964F011F01F0E84F2E2FEF3FEF41E09C
:1005660050E06A2D7B2D8091247C9091257C0E9401
:10057600A611D6018C918A3A81F76FEF7FEF8091B1
:100586002A7C90912B7C0E94B3098E010F5F1F4F2E
:10059600512C2FEF3FEF41E050E06A2D7B2D8091EB
:1005A600247C9091257C0E94A611F60180818330DF
:1005B60039F0D8018D938D015394B8EC5B12E9CFD5
:1005C60000E020E030E040E050E060E080912A7CEE
:1005D60090912B7C0E94F20C8B85853079F489856D
:1005E6008111BBCFE12CF12C02E020E030E0A90123
:1005F60061E080E090E00E94D307AFCF8A85811149
:10060600ACCF6FEF7FEF8091287C9091297C0E9480
:10061600B3092091487C822F90E0181619060CF039
:1006260066C00F2EF0E0EF2EF0E7FF2EF02D612CC6
:10063600712C30E0F70190818981981348C090852C
:100646008985981344C0838580FF41C069821A82D8
:10065600852D90E08C30910564F0FE0133969C0167
:1006660029503109280D391D81858193E217F30739
:10067600D9F7E7EF5E0E6FEF7FEF8091267C9091C2
:10068600277C0E94B309252D30E00FEF1FEF642D64
:10069600A10180911E7C90911F7C0E94660E00E055
:1006A60020E030E040E050E060E08091267C9091D0
:1006B600277C0E94F20C20E030E040E050E060E051
:1006C6008091287C9091297C0E94F20C31E0FFEF0A
:1006D6006F1A7F0A2091487C822F90E04CE0E40E4E
:1006E600F11C681679060CF4A5CF311136CFFC0142
:1006F600EE0FFF1FDF01A80FB91FAA0FBB1FAA0F1E
:10070600BB1FA050B04939813C933A8111963C9366
:1007160011973B8112963C9312973C8113963C931A
:1007260013973D8114963C9314973E8115963C93FE
:1007360015973F8116963C931697388517963C93E6
:100746001797398518963C9318973A8519963C93CE
:1007560019973B851A963C931A97FD0113862F5FCE
:100766002093487C6FEF7FEF8091267C9091277CC9
:100776000E94B30985E0C653DF4F8883CA5CD04028
:100786008091487C8150C553DF4F8883CB5CD04035
:100796000FEF1FEF22E030E0C253DF4F488159814F
:1007A6006A81CE5CD04080911E7C90911F7C0E9415
:1007B600660E00E020E030E040E050E060E080912E
:1007C600267C9091277C0E94F20C82E090E00E94A9
:1007D600381E6FEF7FEF8091287C9091297C0E94D4
:1007E600B3092091487C822F90E00197FC01EE0F1F
:1007F600FF1FE80FF91FEE0FFF1FEE0FFF1FE05060
:10080600F049838580FF35C0215029831A82852DC2
:1008160090E08C30910564F0FE0133969C012950DE
:100826003109280D391D818581932E173F07D9F788
:100836006FEF7FEF8091267C9091277C0E94B30911
:1008460027EF250D30E00FEF1FEF642DA1018091FA
:100856001E7C90911F7C0E94660E00E020E030E036
:1008660040E050E060E08091267C9091277C0E94D9
:10087600F20C00E020E030E040E050E060E08091E3
:0C088600287C9091297C0E94F20C67CE27
:100892002F923F924F925F926F927F928F92AF927E
:1008A200BF92CF92DF92EF920F931F93CF93DF937A
:1008B2001C013A01862E59012801C9010E94B71A6A
:1008C2008C01892B09F417C18DE290E00E94B71ABE
:1008D200EC01892B89F08DE2FE0111928A95E9F7EC
:1008E2000F8B188FF1E0AF1AB1080A0D1B1D6114AE
:1008F2007104810429F42FC0C8010E94491FFBC062
:10090200F301582D0E942B1F698FF301582D0E946D
:100912002B1F6623F9F09E01265E3F4FA82DC301CF
:100922000196A11D48E0640E711C811CFC015A2F26
:100932000E942B1FF90161939F01E82FF92F5A2F73
:100942000196A11D0E942B1F662321F08615970593
:10095200A80561F718A2F3E0FE1520F40F2EF3E0CC
:10096200EF2EF02DEE8AE9A25E0142E0A40EB11C48
:10097200C5010E943D1FCE010C960E943D1FC887F3
:10098200D98784E090E08E1991098C879D87CA8B64
:10099200DB8BA201B101C8010E94601E888399838A
:1009A200C114D10419F0F601C083D1830FB6F894B3
:1009B2000F9280914F7C8F5F80934F7C8091387C27
:1009C2009091397C892BA9F5C093387CD093397CDE
:1009D20080914F7C8130E9F588EB9BE70E94CA1E2B
:1009E20081EC9BE70E94CA1E8AEC9BE70E94CA1E0A
:1009F20083ED9BE70E94CA1E81E09CE70E94CA1E0B
:100A020088EF9BE70E94CA1E8FEE9BE70E94CA1ED8
:100A120086EE9BE70E94CA1E81E09CE78093367CAB
:100A22009093377C88EF9BE78093347C9093357C5E
:100A320010C080914D7C81110CC0E091387CF09106
:100A4200397C96898E89891720F0C093387CD0939F
:100A5200397C80914A7C8F5F80934A7C8E89909109
:100A62004E7C981710F480934E7C90E0FC01EE0FC0
:100A7200FF1FEE0FFF1FEE0FFF1F8E0F9F1FFC01C8
:100A8200E854F4480180F281E02DEC83FD838481F7
:100A920095818E839F83A481B5811296AD92BC927B
:100AA2001397A482B582EE89F0E0CF01880F991FD7
:100AB200880F991F880F991FE80FF91FE854F4480F
:100AC200EA87FB8780818F5F80830F900FBE8091C2
:100AD2004D7C882361F0E091387CF091397C9689D5
:100AE2008E89981730F40E94141681E005C081E0C7
:100AF20003C081E001C08FEFDF91CF911F910F9171
:100B0200EF90DF90CF90BF90AF908F907F906F90DB
:0A0B12005F904F903F902F900895E0
:100B1C008F929F92AF92BF92CF92DF92EF92FF9201
:100B2C000F93CF93DF93DC01E114F10479F0FC0116
:100B3C0084E0689FE00DF11D112483A094A0A5A072
:100B4C00B6A0F70180829182A282B38270E0FD018F
:100B5C00E60FF71F83A592E093A70230F9F018F483
:100B6C00013031F049C0033069F10430B9F144C0AF
:100B7C00660F771F660F771FFD01E60FF71F83A027
:100B8C0094A0A5A0B6A0BA01A901482959296A299F
:100B9C007B2943A354A365A376A32EC0660F771FAE
:100BAC00660F771FFD01E60FF71F43A154A165A146
:100BBC0076A14F5F5F4F6F4F7F4F43A354A365A345
:100BCC0076A31AC0660F771F660F771FFD01E60F1D
:100BDC00F71F23A334A345A356A30EC0823009F4F8
:100BEC00B2C0660F771F660F771FFD01E60FF71F68
:100BFC0023A334A345A356A3813009F0A6C080914A
:100C0C00497C81116DC01A96ED91FC911B9714963D
:100C1C00CD91DC91159716968D919C9117978C839D
:100C2C009D831696CD91DC91179714968D919C917E
:100C3C0015978A839B839D012E5F3F4F8181928103
:100C4C008217930731F416968D919C911797818397
:100C5C0092831A961D921C921B97808181508083DF
:100C6C0056968C91569790914E7C981710F48093D1
:100C7C004E7C90E0FC01EE0FFF1FEE0FFF1FEE0FFE
:100C8C00FF1F8E0F9F1FFC01E854F4480180F28176
:100C9C00E02D1496ED93FC9315978481958116960F
:100CAC008D939C931797C481D5812A833B8324838E
:100CBC0035835696EC915697F0E0CF01880F991F2B
:100CCC00880F991F880F991FE80FF91FE854F448F3
:100CDC001A96ED93FC931B9780818F5F808320C0C5
:100CEC004FEE5BE7FA01C181D2811E96CD93DC9366
:100CFC001F978C819D8150968D939C9351972C813D
:100D0C003D81CD010C96F901828393838C839D8365
:100D1C0054964D935C935597FA0180818F5F808335
:100D2C00E091387CF091397C56969C918689891794
:100D3C0070F4C114D10419F081E0F601808381E0D4
:100D4C0080934C7C05C080E003C081E001C081E051
:100D5C00DF91CF910F91FF90EF90DF90CF90BF90EC
:080D6C00AF909F908F90089555
:100D74000F931F93CF93DF938091497C811102C11C
:100D8400C091327CD091337C8E010F5F1F4F009352
:100D9400327C1093337C01151105B9F48091367CB3
:100DA4009091377C2091347C3091357C2093367C33
:100DB4003093377C8093347C9093357C80914B7C4A
:100DC4008F5F80934B7C0E94B81D80912E7C909104
:100DD4002F7C0817190710F480E0B8C080E0E09178
:100DE400367CF091377C9081911107C02FEF3FEF53
:100DF40020932E7C30932F7CA9C0E091367CF09117
:100E0400377C0580F681E02D0680F781E02D228174
:100E140033810217130728F420932E7C30932F7C00
:100E240095C0A285B3852481358146815781E90126
:100E34004C835D832681378144815581E9014A834E
:100E44005B83AF014E5F5F4F11962D913C911297DA
:100E54002417350731F42681378111962D933C935D
:100E64001297128613869C9191509C93A489B589FC
:100E7400109719F12685378560897189E9016C839A
:100E84007D832089318966857785E9016A837B833F
:100E940011966D917C9112979F01245F3F4F6217C9
:100EA400730731F42089318911962D933C9312975D
:100EB400148A158A9C9191509C93268990914E7C1A
:100EC400921710F420934E7C30E0D901AA0FBB1F77
:100ED400AA0FBB1FAA0FBB1F2A0F3B1FD901A8547F
:100EE400B44811960D90BC91A02DA483B58314969B
:100EF4002D913C9115972683378314962D913C911F
:100F04001597E9014A835B8314964D935C93159777
:100F1400A689B0E09D01220F331F220F331F220F39
:100F2400331FA20FB31FA854B448A287B3879C9160
:100F34009F5F9C93A091387CB091397C268956960A
:100F44009C91921708F04BCF81E049CFE091387C17
:100F5400F091397C268930E0F901EE0FFF1FEE0F86
:100F6400FF1FEE0FFF1F2E0F3F1FF901E854F44837
:100F74009081923008F081E090914C7C992361F04B
:100F840081E00AC08091307C9091317C01968093FD
:100F9400307C9093317C80E0DF91CF911F910F9151
:020FA4000895AE
:100FA6008F929F92AF92BF92EF92FF920F93CF9341
:100FB600DF93DC010FB6F8940F92E114F10479F097
:100FC600FC0184E0689FE00DF11D112483A094A02C
:100FD600A5A0B6A0F70180829182A282B38270E0BA
:100FE600FD01E60FF71F83A592E093A70230F9F003
:100FF60018F4013031F049C0033069F10430B9F119
:1010060044C0660F771F660F771FFD01E60FF71FB7
:1010160083A094A0A5A0B6A0BA01A9014829592980
:101026006A297B2943A354A365A376A32EC0660F22
:10103600771F660F771FFD01E60FF71F43A154A127
:1010460065A176A14F5F5F4F6F4F7F4F43A354A3B8
:1010560065A376A31AC0660F771F660F771FFD017B
:10106600E60FF71F23A334A345A356A30EC0823071
:1010760009F487C0660F771F660F771FFD01E60F1D
:10108600F71F23A334A345A356A3813009F07BC0E1
:101096001A96ED91FC911B971496CD91DC911597BC
:1010A60016968D919C9117978C839D831696CD915C
:1010B600DC91179714968D919C9115978A839B8343
:1010C6009D012E5F3F4F818192818217930731F4F4
:1010D60016968D919C911797818392831A961D92ED
:1010E6001C921B9780818150808356968C915697CF
:1010F60090914E7C981710F480934E7C90E0FC0102
:10110600EE0FFF1FEE0FFF1FEE0FFF1F8E0F9F1F2D
:10111600FC01E854F4480180F281E02D1496ED9329
:10112600FC9315978481958116968D939C931797BA
:10113600C481D5812A833B83248335835696EC91DB
:101146005697F0E0CF01880F991F880F991F880FD7
:10115600991FE80FF91FE854F4481A96ED93FC938B
:101166001B9780818F5F8083E091387CF091397C7A
:1011760056969C918689891740F40E94141681E040
:1011860005C080E003C081E001C081E00F900FBE82
:10119600DF91CF910F91FF90EF90BF90AF909F900E
:0411A6008F90089589
:1011AA001F93CF93DF930FB6F8940F928091497CE7
:1011BA0081508093497C8091497C8111C6C080917D
:1011CA004F7C81119BC0C4C0DB011596ED91FC9147
:1011DA0016970680F781E02DA489B58986859785BB
:1011EA0020893189EC012C833D8380899189268568
:1011FA003785EC012A833B83CF010C9611962D91FA
:10120A003C9112972817390731F4808991891196F0
:10121A008D939C931297148A158A8C9181508C9382
:10122A00A285B3858481958126813781EC012C833F
:10123A003D838681978124813581EC012A833B8312
:10124A009F012E5F3F4F11968D919C9112978217A5
:10125A00930731F48681978111968D939C93129707
:10126A00128613868C9181508C93868990914E7C3C
:10127A00981710F480934E7C90E0DC01AA0FBB1FF4
:10128A00AA0FBB1FAA0FBB1F8A0F9B1FDC01A85402
:10129A00B44811960D90BC91A02DA483B5831496E1
:1012AA008D919C9115978683978314968D919C9125
:1012BA001597EC012A833B8314962D933C9315973B
:1012CA00A689B0E0CD01880F991F880F991F880F52
:1012DA00991FA80FB91FA854B448A287B3878C9145
:1012EA008F5F8C93A091387CB091397C9689569601
:1012FA008C91981740F040934C7C05C0E0E0F0E0F8
:10130A006FEE7BE741E0DB018C9181115DCFEF2B22
:10131A0011F00E94B81DC091307CD091317C209789
:10132A0061F011E00E94BA06811110934C7C21975A
:10133A00C9F71092307C1092317C80914C7C8823C2
:10134A0031F00E94141681E003C080E001C080E001
:0C135A000F900FBEDF91CF911F910895FE
:101366002F923F924F926F927F928F92CF92DF92FF
:10137600EF92FF920F931F93CF93DF93CDB7DEB714
:101386002597CDBFDEBF8C016C837D83C12CD12C0C
:101396003C0180E8882E7801E1E1EE0EF11C0FB6E3
:1013A600F8940F92F801828D8823E1F08150828FA4
:1013B60080819181892B29F40E94971EF8018483EC
:1013C6009583F8018085882349F0085F1F4FB8018F
:1013D60080E80E942F0C81110E9414160F900FBEF8
:1013E60081E089C08C819D81892B21F40F900FBEED
:1013F60080E081C0D11006C0CE0101960E94D81EA1
:10140600DD24D3940F900FBE0E94321F0FB6F894BE
:101416000F92F801858D8F3F09F4158EF801868DA0
:101426008F3F09F4168E0F900FBEBE016C5F7F4F83
:10143600CE0101960E942A1B81112AC0882DB30174
:101446000E94A91E8823F1F0F80180819181892BE1
:1014560051F40FB6F8940F92848195810E9412116F
:10146600C82E0F900FBE6C817D81C7010E94851E1C
:10147600C8010E941D170E94D508811190CF0E94B5
:1014860014168DCFC8010E941D170E94D50887CF5C
:10149600C8010E941D170E94D508882DB3010E941D
:1014A600A91E882309F47BCFCC2021F10FB6F8942E
:1014B6000F92A82DC3014196A11DFC015A2F0E942F
:1014C6002B1F662369F0A82DC3014696A11DFC01BA
:1014D6005A2F0E940B1FFB01808164E0681B01C02C
:1014E60060E0F801848195810E94B5130F900FBECC
:1014F60080E001C080E02596CDBFDEBFDF91CF91B1
:101506001F910F91FF90EF90DF90CF908F907F907B
:0A1516006F904F903F902F900895C2
:10152000CF93DF93CDB7DEB72697CDBFDEBFCE0119
:1015300001965C01082F1B2DE091427CF091437CC9
:101540008081882309F4B3C00580F681E02DE08016
:10155000F1800E94321FC5010E94BD196C01898172
:1015600081111BC0CE14DF0438F00E94D508B601EB
:10157000C7010E94931C8EC040E0B7016C197D0921
:1015800080913E7C90913F7C0E949B1D0E94D508DB
:10159000811180C00E9414167DC00E94D5087AC0B7
:1015A000898188230CF476C0EC80FD80D7011B96DE
:1015B0008D919C911C97892B21F0C70103960E9465
:1015C000121DCE0106960E94BD196C01E9818E2F75
:1015D000EE0F990BAA0BBB0BFC013197E930F1051B
:1015E00008F058C0EE5AFF4F0C94021FF701838990
:1015F0008160838B2A813B8165857685620F731FAD
:10160000A601C7010E94641C882309F443C0D701C6
:1016100053968C91539782FF0DC06A817B811D96F2
:101620008D919C911E97680F791FA601C7010E949A
:10163000391D03C08E7FF701838BD7015196ED9141
:10164000FC915297C701099525C0F70183898E7FC8
:10165000838B20C0D70153968C915397816053960A
:101660008C9353976A817B811D966D937C931E9713
:101670006C0D7D1D9601A601C7010E94641C0AC065
:10168000F701838981FD04C0C7010E94491F02C080
:101690008E7F838B40E050E0602F712F80913E7CE5
:1016A00090913F7C0E94D00F81117ACF45CF0E944C
:1016B000321FC5010E94BD196C01898181116DCF56
:1016C000E091407CF091417C808141E0811140E0DB
:0616D000E12CF12C52CFC9
:1016D600CF93DF93CDB7DEB7CA5CD109CDBFDEBFEE
:1016E60055245394152D0F2EF7E49F2EF02DCE0181
:1016F60001963C0120E8822E0F2EF2E5AF2EF02D4A
:101706000F2EF9E5BF2EF02D0F2EF2E4CF2EF02D81
:101716006894DD24D1F86FEF7FEF8091267C90915D
:10172600277C0E94B30922E330E048EC50E0BE017A
:101736006D5F7F4F80911E7C90911F7C0E94A61149
:101746007C0100E020E030E040E050E060E0809185
:10175600267C9091277C0E94F20CC7019927823043
:10176600910519F00397A1F1D6CF8B81853081F5CC
:101776006FEF7FEF8091287C9091297C0E94B309BE
:101786008C8190E0FC01EE0FFF1FE80FF91FEE0FB2
:10179600FF1FEE0FFF1FE050F0492285213361F451
:1017A600FC01EE0FFF1FE80FF91FEE0FFF1FEE0FF4
:1017B600FF1FE050F049538600E020E030E040E0B3
:1017C60050E060E08091287C9091297C0E94F20C88
:1017D6008D818734B9F018F4823431F09CCF82358C
:1017E60069F18935E9F097CFC982DA8200E02FEFF7
:1017F6003FEF682DA30180911C7C90911D7C0E9477
:10180600F20C89CF99821A8300E02FEF3FEF682D03
:10181600A30180911C7C90911D7C0E94F20C7BCFD1
:10182600B9821A8300E02FEF3FEF682DA301809164
:101836001C7C90911D7C0E94F20C6DCFA9821A83AC
:1018460000E02FEF3FEF682DA30180911C7C909163
:081856001D7C0E94F20C5FCF23
:10185E00CF93DF93A82FCB010596A11DFC015A2F24
:10186E000E940B1FDB011696ED91FC911797A48930
:10187E00B589C685D785808991898C839D83C089DA
:10188E00D189868597858A839B839F01245F3F4FED
:10189E0011968D919C9112978217930731F480893E
:1018AE00918911968D939C931297148A158A8C9117
:1018BE0081508C938091497C811160C0A285B38543
:1018CE00C481D581868197818C839D83C681D78182
:1018DE00848195818A839B839F012E5F3F4F119652
:1018EE008D919C9112978217930731F4868197817F
:1018FE0011968D939C931297128613868C9181501C
:10190E008C93868990914E7C981710F480934E7C20
:10191E0090E0DC01AA0FBB1FAA0FBB1FAA0FBB1FB3
:10192E008A0F9B1FDC01A854B44811960D90BC91F0
:10193E00A02DA483B58314968D919C9115978683C3
:10194E0097831496CD91DC9115972A833B83149639
:10195E002D933C931597A689B0E0CD01880F991F62
:10196E00880F991F880F991FA80FB91FA854B44844
:10197E00A287B3878C918F5F8C931CC04FEE5BE771
:10198E00DA011196CD91DC911297C687D7878C819B
:10199E009D81808B918B8C819D81DC0112962D9384
:1019AE003C9313972C833D83448B558BDA018C919A
:1019BE008F5F8C93A091387CB091397C9689569626
:1019CE008C91891720F481E080934C7C01C080E0DB
:0619DE00DF91CF91089596
:1019E4002F923F924F926F927F928F92CF92DF927B
:1019F400EF92FF920F931F93CF93DF93CDB7DEB790
:101A04002897CDBFDEBF7C014E835F8368872C831C
:101A14003D8310E03C0180E8882E1301482CEAE164
:101A24002E0E311C411CFBE16F0E711C811C6701E1
:101A340088E0C80ED11C0FB6F8940F92F701928D6E
:101A4400838D981710F00230F1F4202F4E815F81BE
:101A54006885C7010E94B515F7019189992361F042
:101A6400F1E1EF0EF11CB70180E80E942F0C8823EE
:101A740031F00E94141603C081110E9414160F90B5
:101A84000FBE81E056C08C819D81892B21F40F907B
:101A94000FBE80E04EC0111105C0CE0101960E9418
:101AA400D81E11E00F900FBE0E94321F0FB6F8949B
:101AB4000F92F701858D8F3F09F4158EF701868DFE
:101AC4008F3F09F4168E0F900FBEBE016C5F7F4FDF
:101AD400CE0101960E942A1B811125C00FB6F894ED
:101AE4000F92F101542D0E942B1F862F0F900FBED1
:101AF400F301582D0E942B1F86130FC06C817D812A
:101B0400C6010E94851EC7010E941D170E94D508A8
:101B1400811191CF0E9414168ECFC7010E941D1708
:101B24000E94D50888CFC7010E941D170E94D508BE
:101B340080E02896CDBFDEBFDF91CF911F910F913A
:101B4400FF90EF90DF90CF908F907F906F904F90A9
:061B54003F902F90089560
:101B5A00CF93DF93CDB7DEB76497CDBFDEBFCE019B
:101B6A000C969C0140E82F87388B498BB12C029642
:101B7A00E82EF92E9C0140E82A8B3B8B4C8B0F2ECA
:101B8A00F0E68F2EF4E09F2EF02D6894AA24A7F891
:101B9A00C12C6894DD24D3F8CE0101962C0130E8DB
:101BAA00632E6FEF7FEF80912A7C90912B7C0E94AD
:101BBA00B30989E58C8782E08D8701E02FEF3FEF3B
:101BCA004F855889698980911C7C90911D7C0E945F
:101BDA00F20C2FEF3FEF41E050E06E2D7F2D809108
:101BEA00247C9091257C0E94A6118E858A3A89F3DD
:101BFA002FEF3FEF41E050E06E2D7F2D8091247C46
:101C0A009091257C0E94A6118E858111E2CFBE8615
:101C1A000FEF1FEF21E030E04A895B896C898091E0
:101C2A00227C9091237C0E94660EF401A5828AEAA6
:101C3A00F6018283858180628583F601848186FF2D
:101C4A00FCCF848180648483F401A682BC8601E08F
:101C5A002FEF3FEF4F855889698980911C7C9091BD
:101C6A001D7C0E94F20CB982BA82BB82BC82BD8200
:101C7A00BE828FEF8F838887B986BA8682E38B8785
:101C8A000FEF1FEF2BE030E0662DA2018091207C40
:101C9A009091217C0E94660EF6018581806485837D
:101CAA000B2D20E030E040E050E060E080912A7C9B
:101CBA0090912B7C0E94F20C80E090E00E94C71663
:021CCA0070CFD9
:101CCC004F925F926F927F928F929F92AF92BF9240
:101CDC00CF92DF92EF92FF920F931F93CF93DF93EC
:101CEC00CDB7DEB72897CDBFDEBF5C014E835F83D7
:101CFC00688729010C831D83FC01848195810197E0
:101D0C00268520FF0AC03201F2E06F0E711C861589
:101D1C00970540F41C821D8243C032018415950541
:101D2C0008F43C018C819D81892B09F439C0CE01CA
:101D3C0001960E94BA1E0FB6F8940F92C5010E942C
:101D4C00FF194C018615970530F560E080E090E0B6
:101D5C000E94EF1D0E94381FF501828793870F9018
:101D6C000FBECC80DD80E12CF12C00E010E098015E
:101D7C0040E050E0BA0180E00E947110F50112863B
:101D8C001386BE016C5F7F4FCE0101960E942A1B09
:101D9C00882389F202C00F900FBE8114910421F4A4
:101DAC00C5010E94FF194C017301840192014E81FF
:101DBC005F816885C5010E94C3176C01892B09F1ED
:101DCC00B50180E80E94BE1CF5012681378182177F
:101DDC009307B8F00E94321FF50180859185892BFD
:101DEC0071F080859185E12CF12C00E020E030E051
:101DFC00A90160E00E94D307F501108611860E94AC
:101E0C00D508C6012896CDBFDEBFDF91CF911F91BB
:101E1C000F91FF90EF90DF90CF90BF90AF909F907D
:0C1E2C008F907F906F905F904F90089512
:101E3800CF92DF92EF920F931F930E94221EE0E64B
:101E4800F4E080E88183868300E010E020E030E061
:101E580040E061E070E082E390E00E949A1B80938A
:101E6800247C9093257C20E030E040E061E070E045
:101E780088EC90E00E949A1B8093227C9093237CAC
:101E880020E030E041E060E070E080E991E00E940D
:101E98009A1B8093207C9093217C20E030E041E0E5
:101EA80060E070E088EC90E00E949A1B80931E7CB2
:101EB80090931F7C40E061E083E00E947B1980934F
:101EC8001C7C90931D7C81E00E947E1D80932A7C5F
:101ED80090932B7C81E00E947E1D8093287C9093B8
:101EE800297C81E00E947E1D8093267C9093277C2C
:101EF800C12CD12C6894EE24E2F82CE231E044E1C4
:101F080051E060E08DEA9DE00E9449046894EE2467
:101F1800E1F824EF31E049E151E060E081EA90E046
:101F28000E9449040F2EF3E0EF2EF02D20E931E056
:101F38004FE151E060E08BE892E00E944904689428
:101F4800EE24E1F82AEF30E044E251E060E085E376
:101F580093E10E944904EE24E39428E532E04BE241
:101F680051E060E08BE69BE00E9449040E94241F38
:101F78000E94EE1E80E090E00E94731E80E090E0D8
:101F88000E94731E0E94D01B80E090E01F910F9169
:081F9800EF90DF90CF90089557
:101FA0006F927F928F92AF92BF92CF92DF92EF9219
:101FB000FF920F931F93CF93DF93CDB7DEB7259793
:101FC000CDBFDEBF8C015B014C835D83E12C3C0106
:101FD00080E8882E6801E1E1CE0ED11C0FB6F8949E
:101FE0000F92F801F28CFF20B9F0B501C8010E94F0
:101FF000D41DFA94F801F28E8085882349F0085F99
:102000001F4FB80180E80E942F0C81110E94141606
:102010000F900FBE81E054C08C819D81892B21F4EB
:102020000F900FBE80E04CC0E11006C0CE010196BB
:102030000E94D81EEE24E3940F900FBE0E94321F20
:102040000FB6F8940F92F801858D8F3F09F4158E25
:10205000F801868D8F3F09F4168E0F900FBEBE01DA
:102060006C5F7F4FCE0101960E942A1B81111BC01D
:10207000882DB3010E94A91E882379F06C817D818F
:10208000C6010E94851EC8010E941D170E94D50826
:102090008111A4CF0E941416A1CFC8010E941D1760
:1020A0000E94D5089BCFC8010E941D170E94D50829
:1020B000882DB3010E94A91E882309F48FCF80E0E8
:1020C0002596CDBFDEBFDF91CF911F910F91FF907D
:1020D000EF90DF90CF90BF90AF908F907F906F90F8
:0220E000089561
:1020E2008F929F92AF92BF92CF92DF92EF92FF9226
:1020F2000F931F93CF93DF93480159010FB6F894C2
:102102000F92E091387CF091397CC82FD0E0EC0F2F
:10211200FD1F83A5823061F1E091387CF091397C1A
:10212200CE01880F991F880F991FE80FF91F83A10D
:1021320094A1A5A1B6A140955095609570954823AC
:1021420059236A237B2343A354A365A376A3E09177
:10215200387CF091397CEC0FFD1F81E083A7C1141C
:10216200D10431F061E0C6010E9433120E941416BC
:102172000F900FBE0FB6F8940F92E114F104A1F084
:10218200E091387CF091397CCE01880F991F880F3D
:10219200991FE80FF91F83A194A1A5A1B6A1F70188
:1021A20080839183A283B383E091387CF091397C60
:1021B200EC0FFD1F83A58230E9F4E091387CF091A9
:1021C200397CCE01880F991F880F991FE80FF91FDC
:1021D20083A194A1A5A1B6A180949094A094B09457
:1021E20088229922AA22BB2283A294A2A5A2B6A2E5
:1021F20081E001C080E02091387C3091397CC20FAF
:10220200D31F1BA60F900FBEDF91CF911F910F918D
:10221200FF90EF90DF90CF90BF90AF909F908F9004
:0222220008951D
:102224000F931F93CF93DF93FC01892B09F486C08E
:102234002689A091387CB091397C56968C912817C8
:1022440008F070C084859585992364F0A091387C4A
:10225400B091397C56963C9184E090E0831B9109BF
:102264008487958730E0C901880F991F880F991FCB
:10227400880F991F280F391F285434488285938565
:102284008217930709F045C0EF018F010E5F1F4FBE
:10229400C8010E94121DE091387CF091397C868936
:1022A4008E8B90914E7C981710F480934E7C90E026
:1022B400FC01EE0FFF1FEE0FFF1FEE0FFF1F8E0F2F
:1022C4009F1FFC01E854F4480180F281E02DEC8367
:1022D400FD83848195818E839F83A481B581129629
:1022E4000D931C931397048315838E8990E0FC014E
:1022F400EE0FFF1FEE0FFF1FEE0FFF1FE80FF91F7A
:10230400E854F448EA87FB8780818F5F808381E00B
:1023140016C0A091387CB091397C56968C91868BEE
:1023240081E00DC0A091387CB091397C81E021A17D
:1023340056969C91291718F080E001C080E0DF9147
:08234400CF911F910F91089544
:10234C002F923F924F925F926F928F929F92AF9289
:10235C00BF92CF92DF92EF92FF920F931F93CF9386
:10236C00DF93EC011B014A0169018E8580FD03C0DE
:10237C00A12CB12C04C06894AA24A1F8B12CC114CE
:10238C00D10479F10FB6F8940F922E0180E8682EE3
:10239C00862DB2010E94BE1C8C01A816B90648F00D
:1023AC0060E080E090E00E94EF1D0E94381F88875B
:1023BC0099870F900FBEA016B106D8F0E12CF12C26
:1023CC0000E010E0980140E050E0BA0180E00E948B
:1023DC00711018861986862DB2010E94BE1C8C01C4
:1023EC0005C0BE0180E80E94BE1C8C01A016B1067F
:1023FC00F8F49801A401B101CE010E94A7185C0168
:10240C00892BC1F00E94321F8A859B85892B69F02C
:10241C008A859B85E12CF12C00E020E030E0A901BD
:10242C0060E00E94D3071A861B860E94D50802C062
:10243C00A12CB12CC501DF91CF911F910F91FF9071
:10244C00EF90DF90CF90BF90AF909F908F906F9058
:0A245C005F904F903F902F9008957D
:10246600FF920F931F93CF93DF93EC01F62E00910B
:10247600327C1091337C8091387C9091397C029625
:102486000E94121DCF3F8FEFD807B1F5FF20A1F1B3
:10249600E6EEFBE7A181B281C091387CD091397C10
:1024A600AC83BD83C091387CD091397C14968D91D4
:1024B6009C9115978E839F831496CD91DC911597E9
:1024C6008091387C9091397C02968A839B83809197
:1024D600387C9091397C029614968D939C9315972F
:1024E600A091387CB091397C1A96ED93FC931B979A
:1024F60080818F5F80832FC0C00FD11FE091387C11
:10250600F091397CC283D383C017D10768F46091F8
:10251600387C7091397C8091347C9091357C6E5FEB
:102526007F4F0E94031C17C06091387C7091397CE4
:102536008091367C9091377C6E5F7F4F0E94031CA2
:1025460080912E7C90912F7CC817D90720F4C093D8
:102556002E7CD0932F7CDF91CF911F910F91FF900E
:022566000895D6
:10256800CF92DF92EF92FF921F93CF93DF93162FB4
:102578000FB6F8940F92E091387CF091397CC82F0F
:10258800D0E024E0829FE00DF11D1124C3A0D4A067
:10259800E5A0F6A0CD28CE28CF2889F4E091387C94
:1025A800F091397CEC0FFD1F81E083A7411551059F
:1025B80031F061E0CA010E9433120E9414160F9094
:1025C8000FBE0FB6F8940F92E091387CF091397CE9
:1025D800CE01880F991F880F991FE80FF91F63A173
:1025E80074A185A196A1611571058105910541F137
:1025F800112381F0E091387CF091397C9E01220F03
:10260800331F220F331FE20FF31F13A214A215A2C8
:1026180016A216C0E091387CF091397C9E01220FF9
:10262800331F220F331FE20FF31F6B017C0121E0E0
:10263800C21AD108E108F108C3A2D4A2E5A2F6A201
:102648002091387C3091397CC20FD31F1BA60F9084
:102658000FBEDF91CF911F91FF90EF90DF90CF9049
:022668000895D3
:10266A00CF93DF930F92CDB7DEB78CE0809341040E
:10267A0083E0809361046894EE24E6F8FF24F2F87C
:10268A006894882483F800E614E00F2EF3E0CF2E36
:10269A00F02D6894992492F80F2EFCE0DF2EF02D8D
:1026AA00AA24A3946894BB24B1F84AEF50E0BE016F
:1026BA006F5F7F4F80911C7C90911D7C0E94D00F90
:1026CA009A818981873481F028F4882341F0823401
:1026DA00C1F1EBCF8235B9F0893521F1E6CFF701A7
:1026EA00D682F801C682E1CFF7019682F801C68246
:1026FA00913019F0923021F0D8CFF7018582D5CFE9
:10270A00F7018782D2CFF7018682F801C68291301B
:10271A0019F0923021F0C9CFF7019582C6CFF7019F
:10272A009782C3CFF701D682F801A682913019F0B9
:10273A00923021F0BACFF801B582B7CFF801B7824B
:10274A00B4CFF701D682F801B682913019F09230EF
:10275A0021F0ABCFF801A582A8CFF801A782A5CFB7
:10276A000F931F93CF93DF93FC01892B09F466C063
:10277A0091A1961708F4962F8689891709F45EC0E5
:10278A0022A1213009F05AC0968B2485358533233E
:10279A0034F024E030E0291B31092487358790E0A2
:1027AA009C01220F331F220F331F220F331F820F68
:1027BA00931F885494482285338528173907F1F5E1
:1027CA00EF018F010E5F1F4FC8010E94121D8E89F3
:1027DA0090914E7C981710F480934E7C90E0FC0107
:1027EA00EE0FFF1FEE0FFF1FEE0FFF1F8E0F9F1F33
:1027FA00FC01E854F4480180F281E02DEC83FD836A
:10280A00848195818E839F83A481B58112960D93CD
:10281A001C931397048315838E8990E0FC01EE0FB5
:10282A00FF1FEE0FFF1FEE0FFF1FE80FF91FE854FF
:10283A00F448EA87FB8780818F5F8083DF91CF919D
:06284A001F910F9108959B
:102850008091497C882321F081E080934C7C08950D
:1028600010924C7C20914E7C822F90E0FC01EE0F68
:10287000FF1FEE0FFF1FEE0FFF1FE80FF91FE854B9
:10288000F4483081311111C02150822F90E0FC01B9
:10289000EE0FFF1FEE0FFF1FEE0FFF1FE80FF91FD8
:1028A000E854F4483081332379F3AC01440F551FC9
:1028B000440F551F440F551F480F591FDA01A854E4
:1028C000B4481196ED91FC9112970280F381E02DAE
:1028D0001196ED93FC93129745545448E417F5076D
:1028E00029F442815381FD0141835283FC01EE0FA3
:1028F000FF1FEE0FFF1FEE0FFF1F8E0F9F1FFC012C
:10290000E854F4480180F281E02D8681978180931C
:0C291000387C9093397C20934E7C089515
:10291C00EF92FF920F931F93CF93DF93FC01362F0F
:10292C00892B09F44DC0238D222309F44BC0022FAF
:10293C0010E0448DE42EF12C8FEF9FEFB8010E9434
:10294C004C1E6E157F0508F43FC0EF010FB6F894CE
:10295C000F9260817181CB01249F800D911D1124F8
:10296C0084839583128E62837383015011090E9DAB
:10297C00C0010F9D900D1E9D900D1124860F971F69
:10298C00868397838FEF858F868F31110DC080855D
:10299C00882391F02896BE0180E80E942F0C882392
:1029AC0059F00E94141608C0CF0108960E94CA1E46
:1029BC00CE0141960E94CA1E0F900FBE81E005C049
:1029CC0080E003C080E001C080E0DF91CF911F91D7
:0829DC000F91FF90EF900895A8
:1029E4000F931F93CF93DF93FC01892B09F451C0FC
:1029F40082A1815082A3268991A1291709F44BC091
:102A040081114BC0EF018F010E5F1F4FC8010E945F
:102A1400121D89A18E8B24E030E0281B31092C87FC
:102A24003D8790914E7C981710F480934E7C90E0F3
:102A3400FC01EE0FFF1FEE0FFF1FEE0FFF1F8E0FA7
:102A44009F1FFC01E854F4480180F281E02DEC83DF
:102A5400FD83848195818E839F83A481B5811296A1
:102A64000D931C93139704831583EE89F0E0CF0133
:102A7400880F991F880F991F880F991FE80FF91F56
:102A8400E854F448EA87FB8780818F5F808381E084
:102A940005C080E003C080E001C080E0DF91CF91F9
:062AA4001F910F9108953F
:102AAA000F920FB6F8940F920BB60F921F92112441
:102ABA002F923F924F925F926F927F928F929F9244
:102ACA00AF92BF92CF92DF92EF92FF920F931F9332
:102ADA002F933F934F935F936F937F938F939F931C
:102AEA00AF93BF93CF93DF93EF93FF93A091387C7B
:102AFA00B091397C0DB60D920EB60D920E94BA06AF
:102B0A0081110E942814A091387CB091397CCD9112
:102B1A00CDBFDD91DEBFFF91EF91DF91CF91BF91E4
:102B2A00AF919F918F917F916F915F914F913F915B
:102B3A002F911F910F91FF90EF90DF90CF90BF9050
:102B4A00AF909F908F907F906F905F904F903F9043
:102B5A002F901F900F900BBE0F900FBE0F901895DD
:102B6A000F931F93CF93DF93EC01022F1A8D2C8DB5
:102B7A0021110CC088819981892B09F042C08C816E
:102B8A009D810E94F2141C821D8242C0011117C04D
:102B9A0030E08A819B810E94091E2C8D8A819B814B
:102BAA00820F911D8A839B832C813D818217930713
:102BBA0050F1888199818A839B8380E029C030E023
:102BCA008E819F810E94091E8C8D90E0919581953E
:102BDA0091092E813F81280F391F2E833F83488117
:102BEA0059812417350730F42C813D81820F931FB8
:102BFA008E839F83023049F4112349F0115080E0FB
:102C0A0007C080E005C080E003C080E001C080E02A
:0E2C1A001F5F1A8FDF91CF911F910F910895C8
:102C28000F920FB6F8940F920BB60F921F921124C1
:102C38002F923F924F925F926F927F928F929F92C4
:102C4800AF92BF92CF92DF92EF92FF920F931F93B2
:102C58002F933F934F935F936F937F938F939F939C
:102C6800AF93BF93CF93DF93EF93FF93A091387CFB
:102C7800B091397C0DB60D920EB60D920E942814B3
:102C8800A091387CB091397CCD91CDBFDD91DEBF6C
:102C9800FF91EF91DF91CF91BF91AF919F918F916C
:102CA8007F916F915F914F913F912F911F910F915C
:102CB800FF90EF90DF90CF90BF90AF909F908F9054
:102CC8007F906F905F904F903F902F901F900F9044
:0A2CD8000BBE0F900FBE0F90089581
:102CE200CF92DF92EF9241155105610509F44AC076
:102CF2002091DF7B3091E07B8217930791F420E0F3
:102D020030E005C021E030E002C021E030E0F9010E
:102D1200EE0FFF1FEE0FFF1FE20FF31FE452F44806
:102D220015C0C090DC7BD090DD7BE090DE7BCD28AF
:102D3200CE2801F52091E47B3091E57B8217930741
:102D420009F3ECEDFBE702C0E1EEFBE73097D1F0CF
:102D52004083518362838383948314C0C090E17B58
:102D6200D090E27BE090E37BCD28CE2869F3E0E0CF
:102D7200F0E0ECCF2091E47B3091E57B8217930762
:0C2D820021F2ECCFEF90DF90CF9008958D
:102D8E000F931F93CF93DF93EC010FB6F8940F922E
:102D9E00892B21F4C091387CD091397C8E010E5F45
:102DAE001F4FC8010E94121D8C899D89892B21F00D
:102DBE00CE010C960E94121DB80186EE9BE70E9472
:102DCE005D1D8BA5813009F41BA68CA5813009F4FD
:102DDE001CA60F900FBE80914D7C882339F00FB644
:102DEE00F8940F920E94B81D0F900FBE8091387C00
:102DFE009091397CC817D907A1F480914D7C882316
:102E0E0019F00E9414160DC09091E67B80914F7CB4
:102E1E00981305C01092387C1092397C02C00E9423
:0C2E2E002814DF91CF911F910F9108959F
:102E3A00CF92DF92EF920F931F93CF938C010FB62D
:102E4A00F8940F92FC01C68D1C16C4F48189811175
:102E5A0006C014C0F8018189811107C00FC068013A
:102E6A00F1E1CF0ED11C80E8E82E8E2DB6010E942A
:102E7A002F0C81110E94411FC15061F78FEFF80199
:102E8A00868F0F900FBE0FB6F8940F92C58D1C1641
:102E9A00C4F48085811106C014C0F80180858111AF
:102EAA0007C00FC06801F8E0CF0ED11C80E8E82EF9
:102EBA008E2DB6010E942F0C81110E94411FC15014
:102ECA0061F78FEFF801858F0F900FBECF911F9199
:0A2EDA000F91EF90DF90CF90089564
:102EE4006F927F928F92AF92BF92CF92DF92EF92C6
:102EF400FF920F931F93CF93DF93EC013A01862E39
:102F0400590168018E8580FF05C0790182E0E80ED1
:102F1400F11C01C07901CE010E94FF198C019501B9
:102F2400682DA301CE010E94C3175C01892BD1F047
:102F3400BE0180E80E94BE1C2E813F818217930748
:102F440088F088859985892B69F088859985E12C95
:102F5400F12C00E020E030E0A90160E00E948E0541
:102F640018861986C501DF91CF911F910F91FF90AB
:102F7400EF90DF90CF90BF90AF908F907F906F9045
:022F84000895AE
:102F86006F927F928F92AF92BF92CF92DF92EF9223
:102F9600FF920F931F93CF93DF9300D0CDB7DEB789
:102FA6005C013A01862E6901FC01228133819685F6
:102FB60090FF11C0C982DA820E151F05F0F0AE012E
:102FC6004F5F5F4F60E8890122E030E0C5010E9453
:102FD60013189C0104C00C151D0508F46801C114E2
:102FE600D10469F089019601682DA301C5010E94EB
:102FF6001318F5018283938302C0C12CD12CC6011C
:103006000F900F90DF91CF911F910F91FF90EF904E
:10301600DF90CF90BF90AF908F907F906F90089584
:103026006F927F928F92CF92DF92EF92FF920F93E1
:103036001F93CF93DF936C013A01862EE901FC01C1
:10304600E480F580E01AF10A2E153F0508F47901AF
:10305600F601848595859701682DA301800F911F40
:103066000E94091EEC16FD0678F49E012E193F09F2
:10307600682DA3014E0D5F1D611DF7FC6A95F601D3
:10308600848595850E94091EC8018C0F9D1FF60137
:10309600248135818217930710F0821B930BDF91F1
:1030A600CF911F910F91FF90EF90DF90CF908F906F
:0630B6007F906F90089569
:1030BC000F931F93CF93DF93FC018B01A181B281FE
:1030CC008091387C9091397CEC01AE87BF878091E0
:1030DC00387C9091397C14962D913C911597EC018C
:1030EC00288B398B14968D919C9115972091387C57
:1030FC003091397C245F3F4FEC012A833B83209134
:10310C00387C3091397C245F3F4F14962D933C933F
:10311C001597A091387CB091397C5496ED93FC9323
:10312C00559790819F5F9083442311F00FEF1FEF11
:10313C00642FC8010E943312DF91CF911F910F9120
:02314C000895E4
:10314E00AF92BF92CF92DF92EF92FF920F931F93A7
:10315E00CF93DF9300D0CDB7DEB77C015B016A0160
:10316E008901FC0120813181968590FF11C042E0DA
:10317E0050E0BE016F5F7F4FC7010E94EF189C01A8
:10318E0089819A81C816D90698F0025011096C01EE
:10319E00C016D10608F486010115110559F0A801D3
:1031AE00B501C7010E94EF18F7018083918302C019
:1031BE0000E010E0C8010F900F90DF91CF911F91AA
:1031CE000F91FF90EF90DF90CF90BF90AF9008954A
:1031DE00AF92BF92CF92DF92EF92FF920F931F9317
:1031EE00CF93DF937C015B01EA016901FC0104814D
:1031FE001581021B130B4017510708F48A01F701C2
:10320E00448555854C0D5D1D60E89801C5010E94F1
:10321E00091E0C171D0760F49E01201B310BF701D0
:10322E004485558560E8C501800F911F0E94091ED7
:10323E00C6018C0F9D1FF7012481358182179307DC
:10324E0010F0821B930BDF91CF911F910F91FF9086
:0C325E00EF90DF90CF90BF90AF900895EC
:10326A00AF92BF92CF92DF92EF92FF920F931F938A
:10327A00CF93DF93EC015B017A0169018E8580FDB2
:10328A0003C000E010E002C002E010E0BE0180E8E6
:10329A000E94BE1C08171907D8F49C01A701B501A2
:1032AA00CE010E94A7185C01892BA1F08A859B8513
:1032BA00892B81F08A859B85E12CF12C00E020E0A6
:1032CA0030E0A90160E00E948E051A861B8602C0C2
:1032DA00A12CB12CC501DF91CF911F910F91FF90C5
:0C32EA00EF90DF90CF90BF90AF90089560
:1032F6000F931F93CF93DF93282F362F882361F1E7
:10330600682F70E08FEF9FEF0E944C1E832F90E096
:103316006817790720F1239FC0011124813E4FEFE2
:10332600940700F5D32FC22F4F960E94B71A8C012F
:103336000097D1F0D11104C0FC018083918304C0B1
:103346004F96F80180839183F801C38FD48F61E093
:10335600C8010E948E1408C000E010E005C000E01D
:1033660010E002C000E010E0C801DF91CF911F918C
:043376000F91089516
:10337A000F931F93CF93DF938C010E94F81EEC01E9
:10338A0080913A7C90913B7CC817D90738F5E09137
:10339A00427CF091437C8081882381F00580F6810C
:1033AA00E02D6FEF7FEF808191810E94931CE09165
:1033BA00427CF091437C80818111F0CF8091407CE6
:1033CA009091417C8093427C9093437CE093407C33
:1033DA00F093417C81E0F801808302C0F8011082F9
:1033EA00C0933A7CD0933B7CCE01DF91CF911F9161
:0433FA000F91089592
:1033FE006F927F928F92CF92DF92EF920F931F93E5
:10340E00CF93DF933C0120E8822E482D9301690172
:10341E00E42E82E0C80ED11CE11CF901542F0E944B
:10342E000B1FDB01F6015E2D0E940B1F8B01AA17ED
:10343E00BB0799F724E0620E711C811CF301582D15
:10344E000E940B1FCB0101978A0F9B1F801B910BB4
:10345E008617970710F0861B970BDF91CF911F9160
:10346E000F91EF90DF90CF908F907F906F90089597
:10347E001F920F920FB60F9211240BB60F922F932D
:10348E003F934F935F936F937F938F939F93AF93DE
:10349E00BF93EF93FF936091020870E020E030E05D
:1034AE0041E050E08091227C9091237C0E9435195E
:1034BE00892B39F4E0E0F8E083E0828385818F7D0B
:1034CE008583FF91EF91BF91AF919F918F917F91E6
:1034DE006F915F914F913F912F910F900BBE0F9077
:0834EE000FBE0F901F9018950E
:1034F6001F920F920FB60F9211240BB60F92EF92F6
:10350600FF920F932F933F934F935F936F937F9306
:103516008F939F93AF93BF93EF93FF93E12CF12C7F
:1035260002E020E030E0A90161E080E090E00E9446
:10353600D307E0E0F8E0848180648483FF91EF9113
:10354600BF91AF919F918F917F916F915F914F91B5
:103556003F912F910F91FF90EF900F900BBE0F9020
:083566000FBE0F901F90189595
:10356E00CF93DF93EC010E94321F8091447C9091A7
:10357E00457C892B31F480E090E48093447C9093D9
:10358E00457C2097C9F08091467C9091477C9E01A6
:10359E00280F391F2F3F4FE2340788F48217930705
:1035AE0088F4C091447CD091457CC80FD91F2093DC
:1035BE00467C3093477C08C0C0E0D0E005C0C0E038
:1035CE00D0E002C0C0E0D0E00E94D508CE01DF916D
:0435DE00CF910895EC
:1035E2001F920F920FB60F9211240BB60F920F93E8
:1035F2001F932F933F934F935F936F937F938F9379
:103602009F93AF93BF93EF93FF934091000850E0D5
:1036120060E070E000E010E021E030E08091247C86
:103622009091257C0E947217FF91EF91BF91AF910B
:103632009F918F917F916F915F914F913F912F91C8
:103642001F910F910F900BBE0F900FBE0F901F9006
:023652001895C9
:10365400CF93DF930FB6F8940F922091327C309180
:10366400337CDB014D915C914F3FBFEF5B0719F158
:10367400EC01E981FA81A0914B7CB881BA1741F041
:103684002E173F0728F0FB011082118281E014C03D
:103694002E1B3F0B2417350748F4FB01421B530B29
:1036A400408351830E94D81E80E006C0DB011D9236
:1036B4001C9281E001C080E00F900FBEDF91CF919A
:0236C400089567
:1036C600E0E0FBE080EC9DE58487958781E08583DB
:1036D6008083A091387CB091397CCD91CDBFDD91AE
:1036E600DEBFFF91EF91DF91CF91BF91AF919F9197
:1036F6008F917F916F915F914F913F912F911F9184
:103706000F91FF90EF90DF90CF90BF90AF909F907A
:103716008F907F906F905F904F903F902F901F906B
:0E3726000F900BBE0F900FBE0F9008950895E8
:10373400FF920F931F93CF93DF938B01FF24F39496
:10374400413009F0F12C0115110511F401E010E0EC
:103754009C01205F3F4F82179307B8F4EC01219638
:10376400C9010E94B71AFC01892B89F08FE0DF019F
:103774001D928A95E9F7CF010F9684879587C483B4
:10378400D58306831783F68602C0E0E0F0E0CF011C
:0C379400DF91CF911F910F91FF900895DD
:1037A000CF92DF92EF920F931F930F2EFCE2CF2E5A
:1037B000FCE7DF2EF02DE12C00E010E028E730E000
:1037C0004CE351E060E08CE19FE10E9449048130CC
:1037D000A1F40E94E81C813081F4F8948FEF9FEFF0
:1037E00080932E7C90932F7C81E080934D7C10926F
:1037F000327C1092337C0E94631B1F910F91EF90DB
:06380000DF90CF90089557
:10380600CF93DF93EB01488159814F3F2FEF52074A
:1038160021F4FC01A781B0850DC0DC01139601C01F
:10382600DF011296ED91FC911397208131814217A9
:103836005307B0F71296ED91FC911397EA83FB8339
:10384600C483D583AC83BD831296CD93DC93139743
:1038560088879987FC0120812F5F2083DF91CF9194
:023866000895C3
:103868000FB6F8940F9280913E7C90913F7C892B03
:1038780021F583E19CE70E94CA1E8AE09CE70E942A
:10388800CA1E83E19CE78093427C9093437C8AE044
:103898009CE78093407C9093417C40E065E08AE01F
:1038A8000E947B1980933E7C90933F7C009729F07F
:1038B8004FE251E060E00E9471160F900FBE08952C
:1038C800FC0163837483818792874617570790F0BA
:1038D800421B530B8585968548175907E0F4BF01AD
:1038E8006D5F7F4F8091407C9091417C0E94031CCA
:1038F80080E008954217530718F46217730768F4B5
:10390800BF016D5F7F4F8091427C9091437C0E9404
:0E391800031C80E0089581E0089581E0089589
:10392600EF92FF920F931F93CF93DF938C017B014E
:10393600E091427CF091437C0580F681E02DC681C2
:10394600D781CE0103960E94121D8B8982FF06C085
:10395600A701B801CE010E94391D02C08E7F8B8B54
:10396600E989FA89CE010995DF91CF911F910F91CF
:06397600FF90EF900895A0
:10397C00CF92DF92EF929B01482FA82FCB01049698
:10398C00A11DFC015A2F0E940B1FDB016901E42EC3
:10399C0082E0C80ED11CE11CF6015E2D0E940B1FAB
:1039AC00CD01860F971FF901542F0E940B1F861B08
:1039BC00970B8A179B0710F08A1B9B0BEF90DF90DD
:0439CC00CF900895FB
:1039D000CF92DF92EF920F931F930E94341C80913D
:1039E0003E7C90913F7C892BB1F00F2EFCE3CF2ED3
:1039F000FCE7DF2EF02D0F2EF3E0EF2EF02D00E090
:103A000010E020EF30E044E351E060E080E99AE02C
:103A10000E94490401C080E01F910F91EF90DF9058
:043A2000CF900895A6
:103A2400CF93DF93FC01A085B185C281D3818481CA
:103A340095818C839D83C481D581828193818A837E
:103A44009B8311968D919C911297E817F90731F495
:103A54008481958111968D939C931297108611867B
:0E3A64008C9181508C938C91DF91CF910895BD
:103A7200EF92FF920F931F93CF93DF93EC018B0191
:103A82007A0108C08D859E85080F191FE989FA8978
:103A9200CE0109956D857E85600F711F9801A70182
:103AA200CE010E94641C8111EDCFDF91CF911F9155
:083AB2000F91FF90EF900895C1
:103ABA00CF93DF939C01FB01DC011196CD91DC9140
:103ACA001297C283D3838C819D81848395838C8151
:103ADA009D81DC0112966D937C9313976C837D8391
:103AEA0020873187F90180818F5F8083DF91CF91B1
:023AFA0008952D
:103AFC000F93CF93DF93482F60E081E00E947B19F6
:103B0C00EC01009769F01C821D82188219821E82BA
:103B1C0000E020E030E040E050E060E00E94F20C79
:0A3B2C00CE01DF91CF910F910895B3
:103B3600CF93DF93EC010FB6F8940F928D8D8F3FE4
:103B460009F41D8E8E8D8F3F09F41E8E0F900FBEC9
:103B56008A8D811104C0CE0141960E945E18CE0165
:0A3B66000E941D17DF91CF91089512
:103B7000E091367CF091377C8081811107C08FEF16
:103B80009FEF80932E7C90932F7C0895E091367C5C
:103B9000F091377C0580F681E02D808191818093C2
:083BA0002E7C90932F7C089508
:103BA800FC01248D2223B1F030E046815781420F79
:103BB800531F46835783848195814817590720F0FE
:103BC8008081918186839783CB014681578160E804
:063BD8000E94091E089581
:103BDE00009721F48091387C9091397C0FB6F8943F
:103BEE000F9270E0FC01E60FF71F23A5223031F48F
:103BFE00FC01E60FF71F13A681E001C080E00F90D5
:043C0E000FBE089548
:103C1200CF92DF92EF926A01E62EDC01280F391F64
:103C2200A217B30751F0F6015E2D0E942B1F6D9370
:103C32004FEFC41AD40AE40AF3CFEF90DF90CF908B
:023C42000895E3
:103C44008FB78F778FBFE0E0F8E081E493E080875F
:103C5400918783E2878381E08093010480E88583F0
:0C3C640080EC86838FB78F678FBF0895B8
:103C7000CF93DF93EC01892B51F00E94321F60E05B
:103C8000CE010E9433120E94D508811102C00E9409
:083C90001416DF91CF91089595
:103C9800AA1BBB1B51E107C0AA1FBB1FA617B7076A
:103CA80010F0A61BB70B881F991F5A95A9F7809586
:083CB8009095BC01CD010895B7
:103CC000FC0160833197708331971082319720E82F
:103CD00020833197108231971082779740833197F4
:063CE00050838497089553
:103CE60088E0E0E0F4E090E42085958320E12A95E1
:103CF600F1F700C0968320E12A95F1F700C08150C4
:043D060099F708958C
:103D0A00CF93DF93EB016091387C7091397C645FCB
:103D1A007F4F0E94031C61E0CE010E943312DF91A3
:043D2A00CF91089598
:103D2E008091387C9091397C892B39F0E091387CE8
:103D3E00F091397C82A18F5F82A38091387C909123
:043D4E00397C08951F
:103D52000FB6F8940F92A82FCB014A96A11DFC0131
:103D62005A2F0E942B1F0F900FBE81E0611180E03D
:023D72000895B2
:103D74000FB6F8940F9220914B7CFC012083209184
:103D8400327C3091337C218332830F900FBE0895AF
:103D9400FC010396818392832FEF3FEF23833483C7
:0C3DA400858396838783908710820895A2
:103DB00020914B7CFC0120832091327C3091337C1C
:063DC00021833283089507
:103DC600EC010E944B1F0E944A1FCE010E944C1F0D
:063DD600CE010E94471F10
:103DDC00E0E0F4E080E2858390E19A95F1F700C091
:043DEC00868308952D
:103DF0000FB6F8940F928091327C9091337C0F90A3
:043E00000FBE089554
:103E0400EE0FFF1F0024001C0BBE0790F691E02D5F
:023E140009940F
:103E160057FD04C05BBF67917791089561917191D9
:023E26000895FD
:103E28000F9301E00093060B0F910E94551518950A
:103E3800C8EBDBE788818230E8F30E941416FACFDA
:0E3E4800E0E0F4E080E6818380E1828308956B
:0E3E560057FD03C05BBF67910895608108951A
:0C3E64008091497C8F5F8093497C089519
:0A3E70008091387C9091397C089510
:083E7A00FC0110861186089579
:083E820081E080934C7C08955F
:043E8A000C94000094
:043E8E000E94880006
:023E9200089591
:023E940008958F
:023E960008958D
:023E980008958B
:00000001FF
