:100000000C945E000C947C1B0C947C1B0C947C1B4D
:100010000C947C1B0C947C1B0C947C1B0C947C1B04
:100020000C947C1B0C947C1B0C947C1B0C947C1BF4
:100030000C94501B0C947C1B0C947C1B0C947C1B10
:100040000C947C1B0C947C1B0C947C1B0C94FF1458
:100050000C94B9140C9449170C947C1B0C947C1BC5
:100060000C947C1B0C947C1B0C947C1B0C947C1BB4
:100070000C947C1B0C947C1B0C947C1B0C947C1BA4
:100080000C947C1B0C947C1B0C947C1B0C947C1B94
:100090000C947C1B0C947C1B0C947C1B0C947C1B84
:1000A0000C947C1B650A650A940A990AAF0A650AD2
:1000B000650A940A990A40007195800011241FBEB8
:1000C000CFEFCDBFDFE7DEBFE6EBF0E040E019C0E9
:1000D000B791A79137912791079107FD0EC097918E
:1000E0008791EF01F92FE82F0BBF07900D92A21710
:1000F000B307D9F7FE011BBE04C01D92A217B307B8
:10010000E1F7EB3BF40721F70E94CE010C941F1B93
:04011000F894FFCF91
:10011400524F42494E0052534F5554005253494E88
:0101240000DA
:0D012500546D725100546D722053766300CA
:0601320049444C450003A6
:03013800030303BB
:10013C008F929F92AF92BF92CF92DF92EF92FF92EB
:10014C000F93CF93DF93DC01E114F10489F0E62FD8
:10015C00F0E0EE0FFF1FEE0FFF1FE80FF91F83A05B
:10016C0094A0A5A0B6A0F70180829182A282B3824E
:10017C0070E0FD01E60FF71F93A582E083A7023024
:10018C0001F118F4013031F04DC0033079F1043035
:10019C00D1F148C0660F771F660F771FFD01E60F80
:1001AC00F71F83A094A0A5A0B6A0BA01A901482965
:1001BC0059296A297B2943A354A365A376A381E01B
:1001CC0034C0660F771F660F771FFD01E60FF71F10
:1001DC0043A154A165A176A14F5F5F4F6F4F7F4F35
:1001EC0043A354A365A376A381E01FC0660F771FBA
:1001FC00660F771FFD01E60FF71F23A334A345A35A
:10020C0056A381E012C0923079F0660F771F660F0B
:10021C00771FFD01E60FF71F23A334A345A356A3B5
:10022C0081E003C081E001C080E0913009F0A4C0FE
:10023C0090918D7191116DC01A96ED91FC911B9757
:10024C001496CD91DC91159716962D913C9117979C
:10025C002C833D831696CD91DC91179714962D9196
:10026C003C9115972A833B8321813281AD014E5FEE
:10027C005F4F2417350731F416962D913C91179743
:10028C00218332831A961D921C921B979081915058
:10029C00908356962C91569790919271921710F4D8
:1002AC002093927130E0F901EE0FFF1FEE0FFF1F4C
:1002BC00EE0FFF1F2E0F3F1FF901E150FF48018089
:1002CC00F281E02D1496ED93FC93159724813581E2
:1002DC0016962D933C931797C481D5814A835B83E3
:1002EC00448355835696EC915697F0E09F01220F6C
:1002FC00331F220F331F220F331FE20FF31FE15066
:10030C00FF481A96ED93FC931B9790819F5F908307
:10031C0021C066E371E7FB01C181D2811E96CD93AA
:10032C00DC931F972C813D8150962D933C935197D4
:10033C004C815D819D01245F3F4FFA012283338301
:10034C002C833D8354966D937C935597FB01908140
:10035C009F5F908356962C91E0916F71F091707124
:10036C009689921748F4C114D10419F091E0F60162
:10037C00908391E090939071DF91CF910F91FF90CA
:10038C00EF90DF90CF90BF90AF909F908F9008959B
:10039C00CF92DF92EF92FF920F931F93CF93DF9345
:1003AC0000D00F92CDB7DEB70E941A1AE0E6F4E047
:1003BC0080E88183868300E010E020E030E040E0BC
:1003CC0061E070E084E190E00E9483158093857178
:1003DC009093867120E030E040E061E070E088ECC2
:1003EC0090E00E948315809383719093847120E038
:1003FC0030E041E060E070E080E991E00E9483151C
:10040C00809381719093827120E030E041E060E054
:10041C0070E084E190E00E94831580937F7190934B
:10042C00807181E00E94061B80938B7190938C717C
:10043C0081E00E94061B8093897190938A7143E03E
:10044C0060E081E00E9442158093877190938871DF
:10045C00C12CD12CEE24E39424EF31E044E151E0A3
:10046C0060E089EE98E00E94780F6894EE24E1F841
:10047C0020E931E04AE151E060E086E09FE00E9433
:10048C00780F0F2EF3E0EF2EF02D20E931E040E253
:10049C0051E060E081EE95E00E94780F2FEF8EE93D
:1004AC0094E2215080409040E1F700C0000080E0D1
:1004BC0090E005C0FC01E050F049108201968F3F9E
:1004CC009105C1F3BCF38AEA898383E08B8301E055
:1004DC0010E05BC0F02E0A8380E88093650420E076
:1004EC0030E00FC0E1E0F0E0EC0FFD1FE20FF31F76
:1004FC008081809302088091040880FDFCCF2F5FDF
:10050C003F4F2330310574F38091040886FFFCCFF4
:10051C0080E880936604E0E0F8E084818064848362
:10052C002FE389E191E0215080409040E1F700C039
:10053C0000001A8220E030E043E050E0BE016F5F23
:10054C007F4F80918571909186710E9473148A817E
:10055C0090E00817190751F480919471E82FF0E09E
:10056C00E050F049F0828F5F809394718AEA89831E
:10057C0083E08B832FE389E191E021508040904010
:10058C00E1F700C000000F5F1F4F0A3011050CF49B
:10059C00A1CF2FEF8EE994E2215080409040E1F7FB
:1005AC0000C00000E0E0F8E08581806485830E9453
:1005BC00161780E090E02396CDBFDEBFDF91CF9180
:0E05CC001F910F91FF90EF90DF90CF90089558
:1005DA000F931F93CF93DF9380918D71811101C186
:1005EA00C0916971D0916A718E010F5F1F4F00939C
:1005FA00697110936A7101151105B9F480916D71D1
:10060A0090916E7120916B7130916C7120936D7124
:10061A0030936E7180936B7190936C7180918F712E
:10062A008F5F80938F710E9480198091657190917C
:10063A0066710817190720F480E0B8C081E001C08C
:10064A0080E0E0916D71F0916E719081911107C017
:10065A002FEF3FEF2093657130936671A7C0E09149
:10066A006D71F0916E710580F681E02D0680F7813B
:10067A00E02D228133810217130728F42093657134
:10068A003093667193C0A285B385248135814681F2
:10069A005781E9014C835D832681378144815581E5
:1006AA00E9014A835B8311962D913C911297AF0120
:1006BA004E5F5F4F2417350731F426813781119633
:1006CA002D933C931297128613869C9191509C937A
:1006DA00A489B589109719F12685378560897189AA
:1006EA00E9016C837D832089318966857785E901F3
:1006FA006A837B8311966D917C9112979F01245F87
:10070A003F4F6217730731F42089318911962D936F
:10071A003C931297148A158A9C9191509C9326892E
:10072A0090919271921710F42093927130E0D9014E
:10073A00AA0FBB1FAA0FBB1FAA0FBB1F2A0F3B1F63
:10074A00D901A150BF4811960D90BC91A02DA48348
:10075A00B58314962D913C91159726833783149669
:10076A002D913C911597E9014A835B8314964D9329
:10077A005C931597A689B0E09D01220F331F220FC3
:10078A00331F220F331FA20FB31FA150BF48A287E6
:10079A00B3879C919F5F9C932689E0916F71F0913A
:1007AA0070719689921708F449CF4BCFE0916F7117
:1007BA00F0917071268930E0F901EE0FFF1FEE0FFC
:1007CA00FF1FEE0FFF1F2E0F3F1FF901E150FF48D9
:1007DA009081923008F081E09091907191110CC053
:1007EA000CC08091677190916871019680936771CE
:1007FA009093687180E001C081E0DF91CF911F91F1
:04080A000F910895AD
:10080E008F929F92AF92BF92EF92FF920F93CF93E0
:10081E00DF93DC010FB6F8940F92E114F10489F026
:10082E00E62FF0E0EE0FFF1FEE0FFF1FE80FF91F90
:10083E0083A094A0A5A0B6A0F70180829182A28287
:10084E00B38270E0FD01E60FF71F83A592E093A738
:10085E00023001F118F4013031F04DC0033079F15E
:10086E000430D1F148C0660F771F660F771FFD0168
:10087E00E60FF71F83A094A0A5A0B6A0BA01A90108
:10088E00482959296A297B2943A354A365A376A332
:10089E0001E034C0660F771F660F771FFD01E60F6C
:1008AE00F71F43A154A165A176A14F5F5F4F6F4F14
:1008BE007F4F43A354A365A376A301E01FC0660F29
:1008CE00771F660F771FFD01E60FF71F23A334A3D3
:1008DE0045A356A301E012C0823079F0660F771F50
:1008EE00660F771FFD01E60FF71F23A334A345A361
:1008FE0056A301E003C001E001C000E0813009F021
:10090E0077C01A96ED91FC911B971496CD91DC91C0
:10091E00159716968D919C9117978C839D8316969D
:10092E00CD91DC91179714968D919C9115978A8392
:10093E009B83818192819D012E5F3F4F821793078A
:10094E0031F416968D919C911797818392831A9606
:10095E001D921C921B9780818150808356968C919C
:10096E00569790919271981710F48093927190E02F
:10097E00FC01EE0FFF1FEE0FFF1FEE0FFF1F8E0F7E
:10098E009F1FFC01E150FF480180F281E02D14967B
:10099E00ED93FC9315978481958116968D939C9378
:1009AE001797C481D5812A833B832483358356963A
:1009BE00EC915697F0E0CF01880F991F880F991F81
:1009CE00880F991FE80FF91FE150FF481A96ED9313
:1009DE00FC931B9780818F5F808356969C91E0914C
:1009EE006F71F09170718689891710F40E946811E9
:1009FE000F900FBE802FDF91CF910F91FF90EF9050
:0A0A0E00BF90AF909F908F90089565
:100A1800CF93DF930FB6F8940F9280918D71815028
:100A280080938D7180918D718111BFC08091937178
:100A3800811196C0BDC0E0913B71F0913C71068078
:100A4800F781E02DA489B589C685D78580899189E4
:100A58008C839D83C089D189868597858A839B836A
:100A680011962D913C911297CF010C9628173907B2
:100A780031F48089918911968D939C931297148AE9
:100A8800158A8C9181508C93A285B385C481D581B8
:100A9800868197818C839D83C681D7818481958146
:100AA8008A839B8311968D919C9112979F012E5F4B
:100AB8003F4F8217930731F48681978111968D9362
:100AC8009C931297128613868C9181508C938689F9
:100AD80090919271981710F48093927190E0DC01D4
:100AE800AA0FBB1FAA0FBB1FAA0FBB1F8A0F9B1FF2
:100AF800DC01A150BF4811960D90BC91A02DA48394
:100B0800B58314968D919C91159786839783149637
:100B1800CD91DC9115972A833B8314962D933C93B2
:100B28001597A689B0E0CD01880F991F880F991FE6
:100B3800880F991FA80FB91FA150BF48A287B38774
:100B48008C918F5F8C939689A0916F71B091707121
:100B580056968C91981730F081E08093907102C07E
:100B6800E0E0F0E080913671811165CFEF2B11F054
:100B78000E948019C0916771D0916871209769F0BF
:100B88000E94ED02882319F081E0809390712197EB
:100B9800B9F71092677110926871809190718823EB
:100BA80031F00E94681181E003C080E001C080E05C
:0A0BB8000F900FBEDF91CF9108955A
:100BC200CF93DF93CDB7DEB7C95CD109CDBFDEBF0E
:100BD2002FEF3FEF41E050E0BE0167537F4F80911E
:100BE2008571909186710E948A0CC753DF4F88816C
:100BF200C95CD0408A3A61F76FEF7FEF80918B71C9
:100C020090918C710E94710700E010E073C02FEF89
:100C12003FEF41E050E0BE0167537F4F8091857105
:100C2200909186710E948A0CC753DF4F8881C95CFC
:100C3200D040833009F052C0E1E0F0E0EC0FFD1F3C
:100C4200E00FF11F808378018FEFE81AF80A2FEF87
:100C52003FEF41E050E0BE0167537F4F80918571C5
:100C6200909186710E948A0CC753DF4F8881C95CBC
:100C7200D040833049F5E1E0F0E0EC0FFD1FEE0DCE
:100C8200FF1D8083780182E0E80EF11C2FEF3FEF19
:100C920041E050E0BE0167537F4F80918571909192
:100CA20086710E948A0CC753DF4F8881C95CD0408D
:100CB2008330E1F0E1E0F0E0EC0FFD1FEE0DFF1DEF
:100CC20080830D5F1F4F14C0E1E0F0E0EC0FFD1FC9
:100CD200EE0DFF1D80830E5F1F4F0AC0E1E0F0E0C2
:100CE200EC0FFD1FE00FF11F808302C008EC10E043
:100CF2000F5F1F4F083C11050CF489CF00E020E084
:100D020030E040E050E060E080918B7190918C7116
:100D12000E94D00A8985FE01E753FF4F8083AF010D
:100D220060E80FEF1FEF21E030E080917F7190913A
:100D320080710E94300880E090E00CC0E1E0F0E0B9
:100D4200EC0FFD1FE80FF91F2081222311F088E02C
:0C0D520090E00196883091058CF33ACFB8
:100D5E00CF93DF93A82FCB010596A11DFC015A2F2F
:100D6E000E94471BDB011696ED91FC911797A48903
:100D7E00B589C685D785808991898C839D83C089E5
:100D8E00D189868597858A839B8311968D919C91B7
:100D9E0012979F01245F3F4F8217930731F480898A
:100DAE00918911968D939C931297148A158A8C9122
:100DBE0081508C9380918D71811160C0A285B38515
:100DCE00C481D581868197818C839D83C681D7818D
:100DDE00848195818A839B8311968D919C91129724
:100DEE009F012E5F3F4F8217930731F486819781C3
:100DFE0011968D939C931297128613868C91815027
:100E0E008C93868990919271981710F480939271B9
:100E1E0090E0DC01AA0FBB1FAA0FBB1FAA0FBB1FBE
:100E2E008A0F9B1FDC01A150BF4811960D90BC91FB
:100E3E00A02DA483B58314968D919C9115978683CE
:100E4E0097831496CD91DC9115972A833B83149644
:100E5E002D933C931597A689B0E0CD01880F991F6D
:100E6E00880F991F880F991FA80FB91FA150BF484F
:100E7E00A287B3878C918F5F8C931CC046E351E79A
:100E8E00DA011196CD91DC911297C687D7878C81A6
:100E9E009D81808B918B8C819D81DC0112962D938F
:100EAE003C9313972C833D83448B558BDA018C91A5
:100EBE008F5F8C939689E0916F71F0917071868936
:100ECE00891720F481E08093907101C080E0DF915A
:040EDE00CF91089513
:100EE200BF92CF92DF92EF92FF920F931F93CF9315
:100EF200DF93CDB7DEB72597CDBFDEBF8C016C8304
:100F02007D83E12CF12C0FB6F8940F92F801828DBB
:100F12008823E1F08150828F80819181892B29F48D
:100F22000E94B71AF80184839583F801808588238B
:100F320049F0085F1F4FB80180E80E94AF06811197
:100F42000E9468110F900FBE81E07CC08C819D8150
:100F5200892B21F40F900FBE80E074C0F11006C0FF
:100F6200CE0101960E94141BFF24F3940F900FBE32
:100F72000E94661B0FB6F8940F92F801858D8F3F81
:100F820009F4158EF801868D8F3F09F4168E0F90A5
:100F92000FBEBE016C5F7F4FCE0101960E94C3154A
:100FA20081112BC0B80180E80E946C1A8823F9F0E5
:100FB200F80180819181892B51F40FB6F8940F9238
:100FC200848195810E94650BE82E0F900FBE6C8183
:100FD2007D81C80141960E94A51AC8010E94781617
:100FE2000E940C0581118FCF0E9468118CCFC8011D
:100FF2000E9478160E940C0586CFC8010E947816BE
:101002000E940C05C801A0E8C92EDA2EBC018A2F65
:101012000E946C1A882309F476CFEE2091F00FB665
:10102200F8940F92602F7C2D8D2D0E94B719682F96
:10103200F801848195810E94930E0F900FBE80E08B
:1010420001C080E02596CDBFDEBFDF91CF911F9119
:0E1052000F91FF90EF90DF90CF90BF90089528
:101060004F925F926F927F928F929F92AF92BF92B8
:10107000CF92DF92EF92FF920F931F93CF93DF9364
:10108000CDB7DEB72897CDBFDEBF5C014E835F834F
:10109000688729010C831D83FC0184819581019758
:1010A000268520FF0AC03201F2E06F0E711C861502
:1010B000970548F41C821D8206C08415950510F022
:1010C000320101C03C018C819D81892BB9F1CE0197
:1010D00001960E94D91A0FB6F8940F92C5010E948A
:1010E000B0164C018615970530F560E080E090E081
:1010F0000E94D1190E946C1BF501828793870F9083
:101100000FBECC80DD80E12CF12C00E010E09801D6
:1011100040E050E0BA0180E00E949209F501128699
:101120001386BE016C5F7F4FCE0101960E94C315EE
:10113000882389F205C00F900FBE02C0812C912C2C
:101140008114910421F4C5010E94B0164C01730171
:10115000840192014E815F816885C5010E946A12F7
:101160006C01892B09F1B50180E80E946818F5012E
:101170002681378182179307B8F00E94661BF5011C
:1011800080859185892B71F080859185E12CF12CEA
:1011900000E020E030E0A90160E00E940704F501D2
:1011A000108611860E940C05C6012896CDBFDEBFB1
:1011B000DF91CF911F910F91FF90EF90DF90CF9033
:1011C000BF90AF909F908F907F906F905F904F9067
:0211D000089580
:1011D200CF93DF93CDB7DEB72C97CDBFDEBF80E0D4
:1011E20009C0E1E0F0E0EC0FFD1FE80FF11D95E50D
:1011F20090838F5F8B30A8F38FEF8A8785E08B8790
:10120200D12C89C082E390E00E94041A6FEF7FEF35
:1012120080918B7190918C710E9471076FEF7FEFBB
:101222008091897190918A710E9471078D2D90E051
:101232009C01205030497901F90180818987AE01F2
:101242004F5F5F4F60E80FEF1FEF2BE030E08091C0
:101252008371909184710E94300823E030E048E36A
:1012620051E060E080918371909184710E94300816
:1012720082E390E00E94041A00E614E06894CC2411
:10128200C7F8F801C582E0E0F8E08AEA8283858146
:10129200806285836FEF7FEF809187719091887173
:1012A2000E947107F801C68200E020E030E040E0D1
:1012B20050E060E080918B7190918C710E94D00A15
:1012C2002CED35E041E050E0BE01645F7F4F80913C
:1012D2007F71909180710E948A0CF70190818C85B8
:1012E200981761F020E030E040E050E060E080914B
:1012F200897190918A710E94D00A0CC000E020E0AE
:1013020030E040E050E060E08091897190918A7114
:101312000E94D00AD39480919471D81608F472CFA7
:021322006FCF8B
:101324008F929F92AF92BF92CF92DF92EF92FF92F1
:101334000F931F93CF93DF93480159010FB6F8948D
:101344000F92E0916F71F0917071C82FD0E0EC0FA3
:10135400FD1F83A5823061F1E0916F71F09170718E
:10136400CE01880F991F880F991FE80FF91F83A1D9
:1013740094A1A5A1B6A14095509560957095482378
:1013840059236A237B2343A354A365A376A3E09143
:101394006F71F0917071EC0FFD1F81E083A7C11490
:1013A400D10431F061E0C6010E94170D0E9468115A
:1013B4000F900FBE0FB6F8940F92E114F104A1F050
:1013C400E0916F71F0917071CE01880F991F880FB1
:1013D400991FE80FF91F83A194A1A5A1B6A1F70154
:1013E40080839183A283B383E0916F71F0917071D4
:1013F400EC0FFD1F83A58230E9F4E0916F71F09149
:101404007071CE01880F991F880F991FE80FF91F7B
:1014140083A194A1A5A1B6A180949094A094B09422
:1014240088229922AA22BB2283A294A2A5A2B6A2B0
:1014340081E001C080E020916F7130917071C20F22
:10144400D31F1BA60F900FBEDF91CF911F910F9159
:10145400FF90EF90DF90CF90BF90AF909F908F90D0
:021464000895E9
:10146600EF92FF920F931F93CF93DF93CDB7DEB723
:101476002697CDBFDEBF7AC0898188230CF476C05B
:101486000C811D81D8011B968D919C911C97892BEF
:1014960021F0C80103960E94BC18CE0106960E9450
:1014A60007197C01E9818E2FEE0F990BAA0BBB0B56
:1014B600FC013197E930F10508F058C0EE5AFF4FAC
:1014C6000C943E1BF80183898160838B2A813B81C2
:1014D60065857685620F731FA701C8010E940E18E5
:1014E600882309F443C0D80153968C91539782FF01
:1014F6000DC06A817B811D968D919C911E97680F08
:10150600791FA701C8010E94E31803C08E7FF80166
:10151600838BD8015196ED91FC915297C80109959C
:1015260025C0F80183898E7F838B20C0D80153960E
:101536008C915397816053968C9353976A817B81E4
:101546001D966D937C931E976E0D7F1D9701A701C7
:10155600C8010E940E180AC0F801838981FD04C0E3
:10156600C8010E94801B02C08E7F838B40E050E042
:10157600BE016F5F7F4F80917571909176710E9469
:10158600F90B811179CF2696CDBFDEBFDF91CF91C2
:0A1596001F910F91FF90EF90089550
:1015A0006F927F928F92EF92FF920F931F93CF9340
:1015B000DF93CDB7DEB72597CDBFDEBF7C013A0103
:1015C000862E2C833D8310E00FB6F8940F92F7011E
:1015D000928D838D981710F00230E9F4202F682D3A
:1015E000A301C7010E940911F7019189992361F0B4
:1015F000F1E1EF0EF11CB70180E80E94AF068823ED
:1016000031F00E94681103C081110E9468110F908F
:101610000FBE81E04DC08C819D81892B21F40F90FC
:101620000FBE80E045C0111105C0CE0101960E9499
:10163000141B11E00F900FBE0E94661B0FB6F894AA
:101640000F92F701858D8F3F09F4158EF701868D76
:101650008F3F09F4168E0F900FBEBE016C5F7F4F57
:10166000CE0101960E94C31581111CC0B70180E80C
:101670000E944619882381F06C817D81C7010896FC
:101680000E94A51AC7010E9478160E940C058111BC
:101690009BCF0E94681198CFC7010E9478160E94C4
:1016A0000C0592CFC7010E9478160E940C0580E0BD
:1016B0002596CDBFDEBFDF91CF911F910F91FF9097
:0A16C000EF908F907F906F900895D7
:1016CA000F931F93CF93DF93FC01892B09F484C0F6
:1016DA002689A0916F71B091707156968C912817D6
:1016EA0008F070C084859585992364F0A0916F7184
:1016FA00B091707156963C9184E090E0831B9109F9
:10170A00848795878285938530E0A901440F551F08
:10171A00440F551F440F551F240F351F21503F48B2
:10172A008217930709F045C0EF018F010E5F1F4F23
:10173A00C8010E94BC18E0916F71F091707186899E
:10174A008E8B90919271981710F48093927190E019
:10175A00FC01EE0FFF1FEE0FFF1FEE0FFF1F8E0F94
:10176A009F1FFC01E150FF480180F281E02DEC83CC
:10177A00FD83848195818E839F83A481B58112968E
:10178A000D931C931397048315838E8990E0FC01B3
:10179A00EE0FFF1FEE0FFF1FEE0FFF1FE80FF91FDF
:1017AA00E150FF48EA87FB8780818F5F808381E071
:1017BA0016C0A0916F71B091707156968C91868BFC
:1017CA0081E00DC091A1E0916F71F09170718689ED
:1017DA00981720F080E003C080E001C081E0DF912B
:0817EA00CF911F910F910895AA
:1017F200CF92DF92EF92FF920F931F93CF93DF93DB
:10180200CDB7DEB72597CDBFDEBF8C016B014C8310
:101812005D83E12C0FB6F8940F92F801F28CFF2051
:10182200B9F0B601C8010E949C19FA94F801F28E2F
:101832008085882349F0085F1F4FB80180E80E9425
:10184200AF0681110E9468110F900FBE81E055C052
:101852008C819D81892B21F40F900FBE80E04DC0B9
:10186200E11006C0CE0101960E94141BEE24E394FF
:101872000F900FBE0E94661B0FB6F8940F92F801EC
:10188200858D8F3F09F4158EF801868D8F3F09F4FF
:10189200168E0F900FBEBE016C5F7F4FCE01019678
:1018A2000E94C31581111CC0B80180E80E946C1A05
:1018B200882381F06C817D81C80141960E94A51A1E
:1018C200C8010E9478160E940C058111A3CF0E94C4
:1018D2006811A0CFC8010E9478160E940C059ACF09
:1018E200C8010E9478160E940C05B80180E80E9487
:1018F2006C1A882309F48ECF80E02596CDBFDEBF17
:10190200DF91CF911F910F91FF90EF90DF90CF90D9
:02191200089536
:101914002F923F924F925F926F928F929F92AF92CB
:10192400BF92CF92DF92EF92FF920F931F93CF93C8
:10193400DF93EC011B014A0169018E8580FF05C01C
:101944006894AA24A1F8B12C02C0A12CB12CC11412
:10195400D10479F10FB6F8940F922E0180E8682E25
:10196400862DB2010E9468188C01A816B90648F0A9
:1019740060E080E090E00E94D1190E946C1B88878F
:1019840099870F900FBEA016B106C0F0E12CF12C80
:1019940000E010E0980140E050E0BA0180E00E94CD
:1019A400920918861986862DB2010E9468188C0146
:1019B40005C0BE0180E80E9468188C01A016B1061B
:1019C400F8F49801A401B101CE010E949D135C01B9
:1019D400892BC1F00E94661B8A859B85892B69F03F
:1019E4008A859B85E12CF12C00E020E030E0A90100
:1019F40060E00E9407041A861B860E940C0502C040
:101A0400A12CB12CC501DF91CF911F910F91FF90B3
:101A1400EF90DF90CF90BF90AF909F908F906F909A
:0A1A24005F904F903F902F900895BF
:101A2E00FF920F931F93CF93DF93EC01F62E00914D
:101A3E00697110916A7180916F71909170710296B7
:101A4E000E94BC18CF3F8FEFD807B1F5FF20A1F150
:101A5E00EDE2F1E7A181B281C0916F71D091707109
:101A6E00AC83BD83C0916F71D091707114968D91BE
:101A7E009C9115978E839F831496CD91DC9115972B
:101A8E0080916F719091707102968A839B83809181
:101A9E006F7190917071029614968D939C93159719
:101AAE00A0916F71B09170711A96ED93FC931B9784
:101ABE0080818F5F80832FC0C00FD11FE0916F7127
:101ACE00F0917071C283D383C017D10768F460910F
:101ADE006F717091707180916B7190916C716E5F7E
:101AEE007F4F0E94AD1717C060916F71709170712A
:101AFE0080916D7190916E716E5F7F4F0E94AD17E8
:101B0E008091657190916671C817D90720F4C093C2
:101B1E006571D0936671DF91CF911F910F91FF90F8
:021B2E00089518
:101B30002F923F926F927F928F929F92AF92BF921D
:101B4000CF92DF92EF92FF920F931F93CF93DF9389
:101B5000CDB7DEB73C01A62FCA011701FC2CF4015A
:101B60006789708DA801415051098B01040F151F21
:101B70000097A105D1F41EC0242F30E06C01EA2E9D
:101B8000C20ED31EE11C37FDEA94F6015E2D0E94C1
:101B90005F1BF401E20FF31F618FF6015E2D0E94BF
:101BA0005F1B662329F04F5F01C040E0483020F3FF
:101BB000F40110A2F3E0FF1520F40F2EF3E0FF2E46
:101BC000F02DF401F68AF1A2C40102960E94711B65
:101BD000C4010C960E94711BF4018086918684E0FA
:101BE00090E08F19910984879587828A938AA10151
:101BF000B301C8010E94591AF40180839183A11492
:101C0000B10419F0F50180829182DF91CF911F918B
:101C10000F91FF90EF90DF90CF90BF90AF909F908B
:0C1C20008F907F906F903F902F90089560
:101C2C00CF93DF93EC010FB6F8940F9280919371E0
:101C3C008F5F8093937180916F7190917071892BEC
:101C4C0059F4C0936F71D0937071809193718130FE
:101C5C0099F40E94E31610C08091917181110CC00F
:101C6C00E0916F71F091707196898E89891720F0CF
:101C7C00C0936F71D093707180918E718F5F8093D0
:101C8C008E718E8990919271981710F48093927145
:101C9C0090E0FC01EE0FFF1FEE0FFF1FEE0FFF1F7A
:101CAC008E0F9F1FFC01E150FF480180F281E02D57
:101CBC00EC83FD83848195818E839F83A481B58180
:101CCC00CE01029612968D939C93139784839583E1
:101CDC00EE89F0E0CF01880F991F880F991F880FAC
:101CEC00991FE80FF91FE150FF48EA87FB878081B5
:101CFC008F5F80830F900FBE80919171882351F07C
:101D0C00E0916F71F091707196898E89981710F42B
:0A1D1C000E946811DF91CF91089535
:101D26000F931F93CF93DF93FC01892B09F466C0B1
:101D360091A1961708F4962F8689981709F45EC024
:101D460022A1213009F05AC0968B2485358533238C
:101D560034F024E030E0291B3109248735872285B9
:101D6600338590E0AC01440F551F440F551F440FB7
:101D7600551F840F951F81509F4828173907F1F585
:101D8600EF018F010E5F1F4FC8010E94BC188E899C
:101D960090919271981710F48093927190E0FC01E3
:101DA600EE0FFF1FEE0FFF1FEE0FFF1F8E0F9F1F81
:101DB600FC01E150FF480180F281E02DEC83FD83B8
:101DC600848195818E839F83A481B58112960D931C
:101DD6001C931397048315838E8990E0FC01EE0F04
:101DE600FF1FEE0FFF1FEE0FFF1FE80FF91FE15059
:101DF600FF48EA87FB8780818F5F8083DF91CF91E1
:061E06001F910F910895E9
:101E0C00CF93DF93CDB7DEB7C85CD109CDBFDEBFB2
:101E1C002FEF3FEF48EC50E08E010F5F1F4FB801E2
:101E2C0080918171909182710E948A0C7C016FEF7C
:101E3C007FEF80918B7190918C710E9471076FEF85
:101E4C007FEF8091897190918A710E94710781E076
:101E5C0090E00E94041A97013327A80160E80FEF65
:101E6C001FEF80918371909184710E94300823E060
:101E7C0030E048E351E060E080918371909184718F
:101E8C000E94300800E614E06894FF24F7F8F8018B
:101E9C00F582E0E0F8E08AEA8283858180628583BE
:101EAC006FEF7FEF80918771909188710E9471071D
:101EBC00F801F68200E020E030E040E050E060E025
:101ECC008091897190918A710E94D00A20E030E053
:101EDC0040E050E060E080918B7190918C710E9499
:041EEC00D00A96CFB3
:101EF0004F925F926F927F928F929F92AF92BF921A
:101F0000CF92DF92EF92FF920F931F93CF93DF93C5
:101F1000CDB7DEB72597CDBFDEBF3C0149835A83DD
:101F20006B8349012801C9010E943E168C01892B4F
:101F3000B9F08DE290E00E943E168C839D83892B40
:101F400059F08DE2EC81FD8111928A95E9F7EC81DF
:101F5000FD81078B108F06C0C8010E94801B02C044
:101F60001C821D828C819D81892BD1F0840120E00F
:101F700030E01F921F921F928C809D805601CE2CC4
:101F8000720149815A816B81C3010E94980D8C8135
:101F90009D810E94160E0F900F900F9081E001C05E
:101FA0008FEF2596CDBFDEBFDF91CF911F910F91AF
:101FB000FF90EF90DF90CF90BF90AF909F908F9069
:0A1FC0007F906F905F904F9008959E
:101FCA000F931F93CF93DF93FC01892B09F451C020
:101FDA0082A1815082A3268991A1291709F44BC0B5
:101FEA0081114BC0EF018F010E5F1F4FC8010E9484
:101FFA00BC1889A18E8B24E030E0281B31092C877C
:10200A003D8790919271981710F48093927190E0A5
:10201A00FC01EE0FFF1FEE0FFF1FEE0FFF1F8E0FCB
:10202A009F1FFC01E150FF480180F281E02DEC8303
:10203A00FD83848195818E839F83A481B5811296C5
:10204A000D931C93139704831583EE89F0E0CF0157
:10205A00880F991F880F991F880F991FE80FF91F7A
:10206A00E150FF48EA87FB8780818F5F808381E0A8
:10207A0005C080E003C080E001C080E0DF91CF911D
:06208A001F910F91089563
:102090000F931F93CF93DF93FC01362F892B09F405
:1020A0004EC0238D222309F44CC0022F10E08FEF85
:1020B0009FEFB8010E94451A448D842F90E0681765
:1020C000790708F440C0EF010FB6F8940F926081D1
:1020D0007181FB01249FE00DF11D1124EC83FD8330
:1020E0001A8E6A837B8301501109809FA001819F12
:1020F000500D909F500D1124CB01840F951F8E839E
:102100009F838FEF8D8F8E8F31110DC0888588232F
:1021100091F02896BE0180E80E94AF06882359F00E
:102120000E94681108C0CE0108960E94F81ACE01DC
:1021300041960E94F81A0F900FBE81E005C080E022
:1021400003C080E001C080E0DF91CF911F910F912B
:022150000895F0
:102152000F920FB6F8940F920BB60F921F921124A2
:102162002F923F924F925F926F927F928F929F92A5
:10217200AF92BF92CF92DF92EF92FF920F931F9393
:102182002F933F934F935F936F937F938F939F937D
:10219200AF93BF93CF93DF93EF93FF93A0916F71B0
:1021A200B09170710DB60D920EB60D920E94ED02B5
:1021B20081110E94C511A0916F71B0917071CD9182
:1021C200CDBFDD91DEBFFF91EF91DF91CF91BF9146
:1021D200AF919F918F917F916F915F914F913F91BD
:1021E2002F911F910F91FF90EF90DF90CF90BF90B2
:1021F200AF909F908F907F906F905F904F903F90A5
:102202002F901F900F900BBE0F900FBE0F9018953E
:102212000F931F93CF93DF93EC01022F1A8D2C8D16
:1022220021110CC088819981892B09F042C08C81CF
:102232009D810E94E50F1C821D8242C0011117C0C0
:1022420030E08A819B810E94EB192C8D8A819B81CF
:10225200820F911D8A839B832C813D818217930774
:1022620050F1888199818A839B8380E029C030E084
:102272008E819F810E94EB198C8D90E091958195C2
:1022820091092E813F81280F391F2E833F83488178
:1022920059812417350730F42C813D81820F931F19
:1022A2008E839F83023049F4112349F0115080E05C
:1022B20007C080E005C080E003C080E001C080E08C
:0E22C2001F5F1A8FDF91CF911F910F9108952A
:1022D0000F920FB6F8940F920BB60F921F92112423
:1022E0002F923F924F925F926F927F928F929F9226
:1022F000AF92BF92CF92DF92EF92FF920F931F9314
:102300002F933F934F935F936F937F938F939F93FD
:10231000AF93BF93CF93DF93EF93FF93A0916F7130
:10232000B09170710DB60D920EB60D920E94C5114E
:10233000A0916F71B0917071CD91CDBFDD91DEBF75
:10234000FF91EF91DF91CF91BF91AF919F918F91CD
:102350007F916F915F914F913F912F911F910F91BD
:10236000FF90EF90DF90CF90BF90AF909F908F90B5
:102370007F906F905F904F903F902F901F900F90A5
:0A2380000BBE0F900FBE0F900895E2
:10238A0080918D71882321F081E080939071089566
:10239A00109290712091927101C02150822F90E089
:1023AA00FC01EE0FFF1FEE0FFF1FEE0FFF1FE80FDE
:1023BA00F91FE150FF483081332379F3AC01440F10
:1023CA00551F440F551F440F551F480F591FDF0152
:1023DA000180F281E02D0280F381E02D1196ED93C8
:1023EA00FC9312974E5F5E48E417F50729F4428181
:1023FA005381FD0141835283FC01EE0FFF1FEE0F53
:10240A00FF1FEE0FFF1F8E0F9F1FFC01E150FF48B9
:10241A000180F281E02D8681978180936F7190937C
:08242A00707120939271089576
:102432006F927F928F92AF92BF92CF92DF92EF9282
:10244200FF920F931F93CF93DF93EC013A01862EF5
:10245200590168018E8580FF05C0790182E0E80E8E
:10246200F11C01C07901CE010E94B0168C019501C8
:10247200682DA301CE010E946A125C01892BD1F062
:10248200BE0180E80E9468182E813F81821793075F
:1024920088F088859985892B69F088859985E12C52
:1024A200F12C00E020E030E0A90160E00E949E00F3
:1024B20018861986C501DF91CF911F910F91FF9068
:1024C200EF90DF90CF90BF90AF908F907F906F9002
:0224D20008956B
:1024D4006F927F928F92AF92BF92CF92DF92EF92E0
:1024E400FF920F931F93CF93DF9300D0CDB7DEB746
:1024F4005C013A01862E6901FC01228133819685B3
:1025040090FF11C0C982DA820E151F0588F0AE0152
:102514004F5F5F4F60E8890122E030E0C5010E940F
:1025240009139C0107C00C151D0520F4680102C0A5
:10253400C12CD12CC114D10451F089019601682D0C
:10254400A301C5010E940913F50182839383C60187
:102554000F900F90DF91CF911F910F91FF90EF900B
:10256400DF90CF90BF90AF908F907F906F90089541
:102574006F927F928F92CF92DF92EF92CF93DF93FD
:10258400EC016A01E62E452B462B49F5A0E0B0E0AC
:102594002BC0292F30E0F901EE0FFF1FEE0FFF1FB4
:1025A400E20FF31FED5DFE48638174816C177D07B4
:1025B40011F4DF0119C0109781F4F901EE0FFF1F28
:1025C400EE0FFF1FE20FF31FED5DFE486080718088
:1025D40082806728682809F4DF019F5F03C0A0E0B8
:1025E400B0E090E09230A8F2109741F0CD92DD92E5
:1025F400EC9212971396CD93DC931497DF91CF91BD
:0E260400EF90DF90CF908F907F906F900895B1
:102612006F927F928F92CF92DF92EF92FF920F93FF
:102622001F93CF93DF936C013A01862EE901FC01DF
:10263200E480F580E01AF10A2E153F0508F47901CD
:10264200F601848595859701682DA301800F911F5E
:102652000E94EB19EC16FD0678F49E012E193F0933
:10266200682DA3014E0D5F1D611DF7FC6A95F601F1
:10267200848595850E94EB19C8018C0F9D1FF60178
:10268200248135818217930710F0821B930BDF910F
:10269200CF911F910F91FF90EF90DF90CF908F908D
:0626A2007F906F90089587
:1026A8000F931F93CF93DF93FC018B01A181B2811C
:1026B80080916F7190917071EC01AE87BF878091A6
:1026C8006F719091707114962D913C911597EC0152
:1026D800288B398B14968D919C91159720916F7149
:1026E80030917071245F3F4FEC012A833B83209126
:1026F8006F7130917071245F3F4F14962D933C9306
:102708001597A0916F71B09170715496ED93FC93E9
:10271800559790819F5F9083442311F00FEF1FEF2F
:10272800642FC8010E94170DDF91CF911F910F915F
:02273800089502
:10273A00AF92BF92CF92DF92EF92FF920F931F93C5
:10274A00CF93DF9300D0CDB7DEB77C015B016A017E
:10275A008901FC0120813181968590FF14C042E0F5
:10276A0050E0BE016F5F7F4FC7010E942D149C018C
:10277A0089819A8102501109C816D90610F06C0194
:10278A0002C0C12CD12CC016D10608F4860101154D
:10279A00110541F0A801B501C7010E942D14F701E6
:1027AA0080839183C8010F900F90DF91CF911F9181
:1027BA000F91FF90EF90DF90CF90BF90AF90089568
:1027CA00CF92DF92EF92FF921F93CF93DF930F92F4
:1027DA00CDB7DEB77C01162F0E94661BCE0101968B
:1027EA000E9407196C018981811127C011110AC041
:1027FA00CE14DF0438F00E940C05B601C7010E940E
:10280A003D181DC0112341F0E0917771F091787164
:10281A00808111E0811110E0B7016C197D09412F07
:10282A0080917571909176710E9463190E940C05CE
:10283A00811105C00E94681102C00E940C050F9008
:10284A00DF91CF911F91FF90EF90DF90CF90089585
:10285A00AF92BF92CF92DF92EF92FF920F931F93A4
:10286A00CF93DF937C015B01EA016901FC010481DA
:10287A001581021B130B4017510708F48A01F7014F
:10288A00448555854C0D5D1D60E89801C5010E947F
:10289A00EB190C171D0760F49E01201B310BF70181
:1028AA004485558560E8C501800F911F0E94EB1988
:1028BA00C6018C0F9D1FF70124813581821793076A
:1028CA0010F0821B930BDF91CF911F910F91FF9014
:0C28DA00EF90DF90CF90BF90AF9008957A
:1028E600AF92BF92CF92DF92EF92FF920F931F9318
:1028F600CF93DF93EC015B017A0169018E8580FF3E
:1029060003C002E010E002C000E010E0BE0180E873
:102916000E94681808171907D8F49C01A701B50189
:10292600CE010E949D135C01892BA1F08A859B85AF
:10293600892B81F08A859B85E12CF12C00E020E033
:1029460030E0A90160E00E949E001A861B8602C044
:10295600A12CB12CC501DF91CF911F910F91FF9052
:0C296600EF90DF90CF90BF90AF900895ED
:102972001F920F920FB60F9211240BB60F922F9344
:102982003F934F935F936F937F938F939F93AF93F5
:10299200BF93EF93FF93CF93DF930F92CDB7DEB741
:1029A20020E030E041E050E0BE016F5F7F4F809158
:1029B2008371909184710E947314892B31F4E0E049
:1029C200F8E085818F7D858303C089818093020829
:1029D2000F90DF91CF91FF91EF91BF91AF919F91B6
:1029E2008F917F916F915F914F913F912F910F90B6
:0C29F2000BBE0F900FBE0F901F901895A9
:1029FE001F920F920FB60F9211240BB60F920F93D8
:102A0E001F932F933F934F935F936F937F938F9368
:102A1E009F93AF93BF93EF93FF93CF93DF930F9259
:102A2E00CDB7DEB7809100088983AE014F5F5F4F4F
:102A3E0060E800E010E021E030E080918571909137
:102A4E0086710E9419120F90DF91CF91FF91EF9135
:102A5E00BF91AF919F918F917F916F915F914F91A8
:102A6E003F912F911F910F910F900BBE0F900FBEA4
:062A7E000F901F90189557
:102A8400DF92EF92FF920F931F93CF93DF93382F30
:102A9400E62F882329F1682F70E08FEF9FEF0E94C3
:102AA400451A8E2F90E068177907E8F03E9FC00121
:102AB4001124813E2FEF9207C8F4D42EDE2FC32FAA
:102AC4004F960E943E167C01009791F08C012D2DAB
:102AD400AC01415E5F4F6D2F8C2F0E947F1A08C09E
:102AE400E12CF12C05C0E12CF12C02C0E12CF12CDD
:102AF400C701DF91CF911F910F91FF90EF90DF906D
:022B0400089532
:102B06008F929F92AF92BF92CF92DF92EF92FF92F7
:102B16000F931F93CF93DF93EC014B01790168016B
:102B2600413011F401E001C000E08114910419F470
:102B360088248394912CCE014096C817D90728F48F
:102B460021960E943E165C0102C0A12CB12CA11454
:102B5600B10441F09401AE01B501615F7F4FC5013B
:102B66000E94C91AC501DF91CF911F910F91FF9065
:102B7600EF90DF90CF90BF90AF909F908F90089589
:102B86001F93CF93DF930FB6F8940F92E09169717C
:102B9600F0916A71DC0111964D915C911297DF01FB
:102BA600A41BB50BEB01288139812F3FDFEF3D07D1
:102BB600F9F0EC011881C0918F711C1741F0E417F0
:102BC600F50728F0FB011082118281E012C0A217DE
:102BD600B30748F4FB012A1B3B0B208331830E9479
:102BE600141B80E006C0DB011D921C9281E001C02F
:0E2BF60080E00F900FBEDF91CF911F910895E8
:102C0400EF92FF921F93CF93DF93FC01228D338DBC
:102C1400231718F57B01EC01168D2F5F228F1F3FC0
:102C240091F481898823D9F0CF014196BC0180E8D1
:102C34000E94AF068823A9F0E114F104A1F081E019
:102C4400F701808313C00E94791B181770F4FF24C6
:102C5400F394F10EFE8E81E009C080E007C081E0AC
:102C640005C081E003C081E001C081E0DF91CF9124
:082C74001F91FF90EF900895FD
:102C7C00CF93DF93EC010E94661B80917B71909146
:102C8C007C71892B31F480E090E480937B7190937C
:102C9C007C712097C9F080917D7190917E719E011D
:102CAC00280F391F2F3F4FE2340788F48217930700
:102CBC0088F4C0917B71D0917C71C80FD91F20937F
:102CCC007D7130937E7108C0C0E0D0E005C0C0E0DB
:102CDC00D0E002C0C0E0D0E00E940C05CE01DF9134
:042CEC00CF910895E7
:102CF0001F93CF93DF93EC010FB6F8940F921E8DC4
:102D00000DC08989882361F0BE016F5E7F4F80E826
:102D10000E94AF0681110E94751B115011168CF391
:102D20008FEF8E8F0F900FBE0FB6F8940F921D8D00
:102D30000DC08885882361F0BE01685F7F4F80E801
:102D40000E94AF0681110E94751B115011168CF361
:102D50008FEF8D8F0F900FBEDF91CF911F91089550
:102D6000CF92DF92EF92CF93DF939C0140E8F9017D
:102D7000542F0E94471BEB01A42FC9010496A11DEB
:102D8000FC015A2F0E94471BDB01CD018C0F9D1FB8
:102D90006901E42E52E0C50ED11CE11CF6015E2D46
:102DA0000E94471B861B970BCC17DD0701F7019785
:102DB0008A179B0710F08A1B9B0BDF91CF91EF9036
:062DC000DF90CF900895A2
:102DC600CF93C0E010C08C2F90E09C01220F331FE0
:102DD600220F331F220F331F820F931F81509F48EC
:102DE6000E94F81ACF5FC43070F388E491E70E941E
:102DF600F81A8FE391E70E94F81A86E391E70E949A
:102E0600F81A8DE291E70E94F81A88E491E7809318
:102E16006D7190936E718FE391E780936B719093D0
:062E26006C71CF910895CC
:102E2C00CF92DF92EF920F931F930F2EF3E6CF2EDC
:102E3C00F1E7DF2EF02DE12C00E010E028E730E088
:102E4C0042E351E060E088E59BE10E94780F81301D
:102E5C0011F40E949218813081F4F8948FEF9FEF57
:102E6C00809365719093667181E08093917110925B
:102E7C00697110926A710E947C171F910F91EF90EB
:062E8C00DF90CF900895D5
:102E92001F920F920FB60F9211240BB60F922F931F
:102EA2003F934F935F936F937F938F939F93AF93D0
:102EB200BF93EF93FF9360E070E0809187719091F0
:102EC20088710E940216E0E0F8E0848180648483C5
:102ED200FF91EF91BF91AF919F918F917F916F91F0
:102EE2005F914F913F912F910F900BBE0F900FBEAC
:062EF2000F901F901895DF
:102EF8000E942A1BA0916F71B0917071CD91CDBFC6
:102F0800DD91DEBFFF91EF91DF91CF91BF91AF913E
:102F18009F918F917F916F915F914F913F912F91E9
:102F28001F910F91FF90EF90DF90CF90BF90AF90DF
:102F38009F908F907F906F905F904F903F902F90D1
:102F48001F900F900BBE0F900FBE0F90089581E059
:022F58000895DA
:102F5A00CF93DF93EB01488159814F3F2FEF5207FF
:102F6A0021F4FC01A781B0850DC0DC01139601C0D4
:102F7A00DF011296ED91FC9113972081318142175E
:102F8A005307B0F71296ED91FC911397EA83FB83EE
:102F9A00C483D583AC83BD831296CD93DC931397F8
:102FAA0088879987FC0120812F5F2083DF91CF9149
:022FBA00089578
:102FBC000FB6F8940F928091757190917671892B60
:102FCC0021F58AE591E70E94F81A81E591E70E94C4
:102FDC00F81A8AE591E78093797190937A7181E57B
:102FEC0091E7809377719093787140E065E08AE087
:102FFC000E9442158093757190937671009729F019
:10300C0045E251E060E00E94BA120F900FBE0895A5
:10301C00FC0163837483818792874617570790F06E
:10302C00421B530B8585968548175907E0F4BF0161
:10303C006D5F7F4F80917771909178710E94AD1781
:10304C0080E008954217530718F46217730768F469
:10305C00BF016D5F7F4F8091797190917A710E9461
:0E306C00AD1780E0089581E0089581E0089599
:10307A00EF92FF920F931F93CF93DF938C017B0103
:10308A00E0917971F0917A710580F681E02DC6811F
:10309A00D781CE0103960E94BC188B8982FF06C095
:1030AA00A701B801CE010E94E31802C08E7F8B8B64
:1030BA00E989FA89CE010995DF91CF911F910F9184
:0630CA00FF90EF90089555
:1030D000CF92DF92EF929B01482FA82FCB0104964D
:1030E000A11DFC015A2F0E94471BDB016901E42E40
:1030F00082E0C80ED11CE11CF6015E2D0E94471B28
:10310000CD01860F971FF901542F0E94471B861B84
:10311000970B8A179B0710F08A1B9B0BEF90DF9091
:04312000CF900895AF
:10312400CF92DF92EF920F931F930E94DE1780914C
:10313400757190917671892BB1F00F2EF3E7CF2E34
:10314400F1E7DF2EF02D0F2EF3E0EF2EF02D00E04F
:1031540010E020EF30E04AE251E060E089EE9AE1CD
:103164000E94780F01C080E01F910F91EF90DF90D3
:04317400CF9008955B
:10317800CF93DF93FC01A085B185C281D38184817F
:1031880095818C839D83C481D581828193818A8333
:103198009B8311968D919C911297E817F90731F44A
:1031A8008481958111968D939C9312971086118630
:0E31B8008C9181508C938C91DF91CF91089572
:1031C600EF92FF920F931F93CF93DF93EC018B0146
:1031D6007A0108C08D859E85080F191FE989FA892D
:1031E600CE0109956D857E85600F711F9801A70137
:1031F600CE010E940E188111EDCFDF91CF911F9164
:083206000F91FF90EF90089575
:10320E000F931F93CF93DF938C010E94341BEC011D
:10321E008091717190917271C817D90730F40E9424
:10322E00281981E0F801808302C0F8011082C09352
:10323E007171D0937271CE01DF91CF911F910F9169
:02324E000895E1
:1032500009C00580F681E02D6FEF7FEF80819181BD
:103260000E943D18E0917971F0917A71808181110D
:10327000F0CF80917771909178718093797190936C
:0C3280007A71E0937771F09378710895F3
:10328C00A82FCB010FB6F8940F929C014A2F265E03
:10329C003F4F4F4FF901542F0E945F1B262F4B9627
:1032AC00A11DFC015A2F0E945F1B261302C081E056
:0A32BC0001C080E00F900FBE0895DE
:1032C600CF93DF93EC010FB6F8940F928D8D8F3F5D
:1032D60009F41D8E8E8D8F3F09F41E8E0F900FBE42
:1032E6008A8D811104C0CE0141960E945413CE01ED
:0A32F6000E947816DF91CF91089531
:10330000E0916D71F0916E718081811107C08FEF36
:103310009FEF80936571909366710895E0916D7150
:10332000F0916E710580F681E02D8081918180930E
:08333000657190936671089528
:10333800FC01248D2223B1F030E046815781420FF1
:10334800531F46835783848195814817590720F076
:103358008081918186839783CB014681578160E87C
:063368000E94EB1908951C
:10336E00A82FCB019C014A2F2F5E3F4F4F4FF901E3
:10337E00542F0E945F1B662359F04696A11DFC0137
:10338E005A2F0E94471BFB01908184E0891B0895F0
:04339E0080E008952E
:1033A200009721F480916F71909170710FB6F8942B
:1033B2000F9270E0FC01E60FF71F23A5223031F4D3
:1033C200FC01E60FF71F13A681E001C080E00F9019
:0433D2000FBE08958D
:1033D600CF92DF92EF926A01E62EDC01280F391FA9
:1033E600A217B30751F0F6015E2D0E945F1B6D9385
:1033F6004FEFC41AD40AE40AF3CFEF90DF90CF90D0
:02340600089527
:10340800CF93DF93EC01892B49F00E94661B60E0A3
:10341800CE010E94170D0E940C0501C080E08111A9
:0C34280002C00E946811DF91CF9108954E
:103434008FB78F778FBFE0E0F8E084EC99E0808766
:10344400918783E2878381E08093010480E8858308
:0C34540080EC86838FB780688FBF0895DE
:10346000DC01E0917971F0917A71808191E08111B4
:1034700090E09C93911106C00580F681E02D80813B
:0A3480009181089580E090E0089526
:10348A00AA1BBB1B51E107C0AA1FBB1FA617B70780
:10349A0010F0A61BB70B881F991F5A95A9F780959C
:0834AA009095BC01CD010895CD
:1034B200FC0160833197708331971082319720E845
:1034C200208331971082319710827797408331970A
:0634D20050838497089569
:1034D8000FB6F8940F92A82FCB014A96A11DFC01B4
:1034E8005A2F0E945F1B611102C081E001C080E079
:0634F8000F900FBE0895C5
:1034FE000F931F93F801611103C00083118302C063
:10350E0040835183838F648F61E0CF010E94481006
:06351E001F910F910895BA
:103524000F93009771F0FC011482158210821182AE
:10353400168200E020E030E040E050E060E00E94CD
:06354400D00A0F9108956A
:10354A00CF93DF93EB0160916F7170917071645F3B
:10355A007F4F0E94AD1761E0CE010E94170DDF91E7
:04356A00CF91089560
:10356E0080916F7190917071892B39F0E0916F712C
:10357E00F091707182A18F5F82A380916F71909193
:04358E0070710895BB
:103592000F93FC018FE0DF011D928A95E9F76487A2
:1035A2007587448355832683378306870F91089551
:1035B2000FB6F8940F9220918F71FC012083209115
:1035C200697130916A71218332830F900FBE089521
:1035D200CF93DF930F92CDB7DEB7CE0101960E9453
:0E35E200301A69810E94E5130E94330AF6CF69
:1035F000FC010396818392832FEF3FEF2383348373
:0C3600008583968387839087108208954D
:10360C00CF93DF93482F60E081E00E944215EC01DC
:0C361C000E94921ACE01DF91CF91089518
:1036280020918F71FC0120832091697130916A711A
:0636380021833283089596
:10363E00EC010E94821B0E94811BCE010E94831B03
:06364E00CE010E947E1B6C
:10365400E0E0FBE080EC9DE58487958781E085834D
:0436640080830895C2
:103668000FB6F8940F928091697190916A710F90DA
:043678000FBE0895E4
:10367C00EE0FFF1F0024001C0BBE0790F691E02DEF
:02368C0009949F
:10368E0057FD04C05BBF6791779108956191719169
:02369E0008958D
:1036A0000F9301E00093060B0F910E94A91018954B
:0E36B0008091FF708230E0F30E946811F9CF24
:0E36BE0057FD03C05BBF6791089560810895BA
:0C36CC0080918D718F5F80938D71089547
:0A36D80080916F7190917071089558
:0836E200FC0110861186089519
:0836EA0081E0809390710895C6
:0636F20080919371089520
:0436F8000C9400002E
:0436FC000E948800A0
:0237000008952A
:02370200089528
:02370400089526
:02370600089524
:00000001FF
